{
	"Sol_by_Example/Applications/03.MerkleTree.sol": {
		"MerkleProof": {
			"abi": [
				{
					"inputs": [
						{
							"internalType": "bytes32[]",
							"name": "proof",
							"type": "bytes32[]"
						},
						{
							"internalType": "bytes32",
							"name": "root",
							"type": "bytes32"
						},
						{
							"internalType": "bytes32",
							"name": "leaf",
							"type": "bytes32"
						},
						{
							"internalType": "uint256",
							"name": "index",
							"type": "uint256"
						}
					],
					"name": "verify",
					"outputs": [
						{
							"internalType": "bool",
							"name": "",
							"type": "bool"
						}
					],
					"stateMutability": "pure",
					"type": "function"
				}
			],
			"devdoc": {
				"kind": "dev",
				"methods": {},
				"version": 1
			},
			"evm": {
				"assembly": "    /* \"Sol_by_Example/Applications/03.MerkleTree.sol\":185:783  contract MerkleProof {... */\n  mstore(0x40, 0x80)\n  callvalue\n  dup1\n  iszero\n  tag_1\n  jumpi\n  revert(0x00, 0x00)\ntag_1:\n  pop\n  dataSize(sub_0)\n  dup1\n  dataOffset(sub_0)\n  0x00\n  codecopy\n  0x00\n  return\nstop\n\nsub_0: assembly {\n        /* \"Sol_by_Example/Applications/03.MerkleTree.sol\":185:783  contract MerkleProof {... */\n      mstore(0x40, 0x80)\n      callvalue\n      dup1\n      iszero\n      tag_1\n      jumpi\n      revert(0x00, 0x00)\n    tag_1:\n      pop\n      jumpi(tag_2, lt(calldatasize, 0x04))\n      shr(0xe0, calldataload(0x00))\n      dup1\n      0x21fb335c\n      eq\n      tag_3\n      jumpi\n    tag_2:\n      revert(0x00, 0x00)\n        /* \"Sol_by_Example/Applications/03.MerkleTree.sol\":212:781  function verify(... */\n    tag_3:\n      tag_4\n      0x04\n      dup1\n      calldatasize\n      sub\n      dup2\n      add\n      swap1\n      tag_5\n      swap2\n      swap1\n      tag_6\n      jump\t// in\n    tag_5:\n      tag_7\n      jump\t// in\n    tag_4:\n      mload(0x40)\n      tag_8\n      swap2\n      swap1\n      tag_9\n      jump\t// in\n    tag_8:\n      mload(0x40)\n      dup1\n      swap2\n      sub\n      swap1\n      return\n    tag_7:\n        /* \"Sol_by_Example/Applications/03.MerkleTree.sol\":354:358  bool */\n      0x00\n        /* \"Sol_by_Example/Applications/03.MerkleTree.sol\":370:382  bytes32 hash */\n      0x00\n        /* \"Sol_by_Example/Applications/03.MerkleTree.sol\":385:389  leaf */\n      dup4\n        /* \"Sol_by_Example/Applications/03.MerkleTree.sol\":370:389  bytes32 hash = leaf */\n      swap1\n      pop\n        /* \"Sol_by_Example/Applications/03.MerkleTree.sol\":405:414  uint256 i */\n      0x00\n        /* \"Sol_by_Example/Applications/03.MerkleTree.sol\":417:418  0 */\n      0x00\n        /* \"Sol_by_Example/Applications/03.MerkleTree.sol\":405:418  uint256 i = 0 */\n      swap1\n      pop\n        /* \"Sol_by_Example/Applications/03.MerkleTree.sol\":400:745  for (uint256 i = 0; i < proof.length; i++) {... */\n    tag_11:\n        /* \"Sol_by_Example/Applications/03.MerkleTree.sol\":424:429  proof */\n      dup7\n        /* \"Sol_by_Example/Applications/03.MerkleTree.sol\":424:436  proof.length */\n      mload\n        /* \"Sol_by_Example/Applications/03.MerkleTree.sol\":420:421  i */\n      dup2\n        /* \"Sol_by_Example/Applications/03.MerkleTree.sol\":420:436  i < proof.length */\n      lt\n        /* \"Sol_by_Example/Applications/03.MerkleTree.sol\":400:745  for (uint256 i = 0; i < proof.length; i++) {... */\n      iszero\n      tag_12\n      jumpi\n        /* \"Sol_by_Example/Applications/03.MerkleTree.sol\":457:477  bytes32 proofElement */\n      0x00\n        /* \"Sol_by_Example/Applications/03.MerkleTree.sol\":480:485  proof */\n      dup8\n        /* \"Sol_by_Example/Applications/03.MerkleTree.sol\":486:487  i */\n      dup3\n        /* \"Sol_by_Example/Applications/03.MerkleTree.sol\":480:488  proof[i] */\n      dup2\n      mload\n      dup2\n      lt\n      tag_14\n      jumpi\n      tag_15\n      tag_16\n      jump\t// in\n    tag_15:\n    tag_14:\n      0x20\n      mul\n      0x20\n      add\n      add\n      mload\n        /* \"Sol_by_Example/Applications/03.MerkleTree.sol\":457:488  bytes32 proofElement = proof[i] */\n      swap1\n      pop\n        /* \"Sol_by_Example/Applications/03.MerkleTree.sol\":520:521  0 */\n      0x00\n        /* \"Sol_by_Example/Applications/03.MerkleTree.sol\":515:516  2 */\n      0x02\n        /* \"Sol_by_Example/Applications/03.MerkleTree.sol\":507:512  index */\n      dup7\n        /* \"Sol_by_Example/Applications/03.MerkleTree.sol\":507:516  index % 2 */\n      tag_17\n      swap2\n      swap1\n      tag_18\n      jump\t// in\n    tag_17:\n        /* \"Sol_by_Example/Applications/03.MerkleTree.sol\":507:521  index % 2 == 0 */\n      sub\n        /* \"Sol_by_Example/Applications/03.MerkleTree.sol\":503:703  if (index % 2 == 0) {... */\n      tag_19\n      jumpi\n        /* \"Sol_by_Example/Applications/03.MerkleTree.sol\":575:579  hash */\n      dup3\n        /* \"Sol_by_Example/Applications/03.MerkleTree.sol\":581:593  proofElement */\n      dup2\n        /* \"Sol_by_Example/Applications/03.MerkleTree.sol\":558:594  abi.encodePacked(hash, proofElement) */\n      add(0x20, mload(0x40))\n      tag_20\n      swap3\n      swap2\n      swap1\n      tag_21\n      jump\t// in\n    tag_20:\n      mload(0x40)\n      0x20\n      dup2\n      dup4\n      sub\n      sub\n      dup2\n      mstore\n      swap1\n      0x40\n      mstore\n        /* \"Sol_by_Example/Applications/03.MerkleTree.sol\":548:595  keccak256(abi.encodePacked(hash, proofElement)) */\n      dup1\n      mload\n      swap1\n      0x20\n      add\n      keccak256\n        /* \"Sol_by_Example/Applications/03.MerkleTree.sol\":541:595  hash = keccak256(abi.encodePacked(hash, proofElement)) */\n      swap3\n      pop\n        /* \"Sol_by_Example/Applications/03.MerkleTree.sol\":503:703  if (index % 2 == 0) {... */\n      jump(tag_22)\n    tag_19:\n        /* \"Sol_by_Example/Applications/03.MerkleTree.sol\":668:680  proofElement */\n      dup1\n        /* \"Sol_by_Example/Applications/03.MerkleTree.sol\":682:686  hash */\n      dup4\n        /* \"Sol_by_Example/Applications/03.MerkleTree.sol\":651:687  abi.encodePacked(proofElement, hash) */\n      add(0x20, mload(0x40))\n      tag_23\n      swap3\n      swap2\n      swap1\n      tag_21\n      jump\t// in\n    tag_23:\n      mload(0x40)\n      0x20\n      dup2\n      dup4\n      sub\n      sub\n      dup2\n      mstore\n      swap1\n      0x40\n      mstore\n        /* \"Sol_by_Example/Applications/03.MerkleTree.sol\":641:688  keccak256(abi.encodePacked(proofElement, hash)) */\n      dup1\n      mload\n      swap1\n      0x20\n      add\n      keccak256\n        /* \"Sol_by_Example/Applications/03.MerkleTree.sol\":634:688  hash = keccak256(abi.encodePacked(proofElement, hash)) */\n      swap3\n      pop\n        /* \"Sol_by_Example/Applications/03.MerkleTree.sol\":503:703  if (index % 2 == 0) {... */\n    tag_22:\n        /* \"Sol_by_Example/Applications/03.MerkleTree.sol\":733:734  2 */\n      0x02\n        /* \"Sol_by_Example/Applications/03.MerkleTree.sol\":725:730  index */\n      dup6\n        /* \"Sol_by_Example/Applications/03.MerkleTree.sol\":725:734  index / 2 */\n      tag_24\n      swap2\n      swap1\n      tag_25\n      jump\t// in\n    tag_24:\n        /* \"Sol_by_Example/Applications/03.MerkleTree.sol\":717:734  index = index / 2 */\n      swap5\n      pop\n        /* \"Sol_by_Example/Applications/03.MerkleTree.sol\":443:745  {... */\n      pop\n        /* \"Sol_by_Example/Applications/03.MerkleTree.sol\":438:441  i++ */\n      dup1\n      dup1\n      0x01\n      add\n      swap2\n      pop\n      pop\n        /* \"Sol_by_Example/Applications/03.MerkleTree.sol\":400:745  for (uint256 i = 0; i < proof.length; i++) {... */\n      jump(tag_11)\n    tag_12:\n      pop\n        /* \"Sol_by_Example/Applications/03.MerkleTree.sol\":770:774  root */\n      dup5\n        /* \"Sol_by_Example/Applications/03.MerkleTree.sol\":762:766  hash */\n      dup2\n        /* \"Sol_by_Example/Applications/03.MerkleTree.sol\":762:774  hash == root */\n      eq\n        /* \"Sol_by_Example/Applications/03.MerkleTree.sol\":755:774  return hash == root */\n      swap2\n      pop\n      pop\n        /* \"Sol_by_Example/Applications/03.MerkleTree.sol\":212:781  function verify(... */\n      swap5\n      swap4\n      pop\n      pop\n      pop\n      pop\n      jump\t// out\n        /* \"#utility.yul\":7:82   */\n    tag_26:\n        /* \"#utility.yul\":40:46   */\n      0x00\n        /* \"#utility.yul\":73:75   */\n      0x40\n        /* \"#utility.yul\":67:76   */\n      mload\n        /* \"#utility.yul\":57:76   */\n      swap1\n      pop\n        /* \"#utility.yul\":7:82   */\n      swap1\n      jump\t// out\n        /* \"#utility.yul\":88:205   */\n    tag_27:\n        /* \"#utility.yul\":197:198   */\n      0x00\n        /* \"#utility.yul\":194:195   */\n      0x00\n        /* \"#utility.yul\":187:199   */\n      revert\n        /* \"#utility.yul\":211:328   */\n    tag_28:\n        /* \"#utility.yul\":320:321   */\n      0x00\n        /* \"#utility.yul\":317:318   */\n      0x00\n        /* \"#utility.yul\":310:322   */\n      revert\n        /* \"#utility.yul\":334:451   */\n    tag_29:\n        /* \"#utility.yul\":443:444   */\n      0x00\n        /* \"#utility.yul\":440:441   */\n      0x00\n        /* \"#utility.yul\":433:445   */\n      revert\n        /* \"#utility.yul\":457:559   */\n    tag_30:\n        /* \"#utility.yul\":498:504   */\n      0x00\n        /* \"#utility.yul\":549:551   */\n      0x1f\n        /* \"#utility.yul\":545:552   */\n      not\n        /* \"#utility.yul\":540:542   */\n      0x1f\n        /* \"#utility.yul\":533:538   */\n      dup4\n        /* \"#utility.yul\":529:543   */\n      add\n        /* \"#utility.yul\":525:553   */\n      and\n        /* \"#utility.yul\":515:553   */\n      swap1\n      pop\n        /* \"#utility.yul\":457:559   */\n      swap2\n      swap1\n      pop\n      jump\t// out\n        /* \"#utility.yul\":565:745   */\n    tag_31:\n        /* \"#utility.yul\":613:690   */\n      0x4e487b7100000000000000000000000000000000000000000000000000000000\n        /* \"#utility.yul\":610:611   */\n      0x00\n        /* \"#utility.yul\":603:691   */\n      mstore\n        /* \"#utility.yul\":710:714   */\n      0x41\n        /* \"#utility.yul\":707:708   */\n      0x04\n        /* \"#utility.yul\":700:715   */\n      mstore\n        /* \"#utility.yul\":734:738   */\n      0x24\n        /* \"#utility.yul\":731:732   */\n      0x00\n        /* \"#utility.yul\":724:739   */\n      revert\n        /* \"#utility.yul\":751:1032   */\n    tag_32:\n        /* \"#utility.yul\":834:861   */\n      tag_58\n        /* \"#utility.yul\":856:860   */\n      dup3\n        /* \"#utility.yul\":834:861   */\n      tag_30\n      jump\t// in\n    tag_58:\n        /* \"#utility.yul\":826:832   */\n      dup2\n        /* \"#utility.yul\":822:862   */\n      add\n        /* \"#utility.yul\":964:970   */\n      dup2\n        /* \"#utility.yul\":952:962   */\n      dup2\n        /* \"#utility.yul\":949:971   */\n      lt\n        /* \"#utility.yul\":928:946   */\n      0xffffffffffffffff\n        /* \"#utility.yul\":916:926   */\n      dup3\n        /* \"#utility.yul\":913:947   */\n      gt\n        /* \"#utility.yul\":910:972   */\n      or\n        /* \"#utility.yul\":907:995   */\n      iszero\n      tag_59\n      jumpi\n        /* \"#utility.yul\":975:993   */\n      tag_60\n      tag_31\n      jump\t// in\n    tag_60:\n        /* \"#utility.yul\":907:995   */\n    tag_59:\n        /* \"#utility.yul\":1015:1025   */\n      dup1\n        /* \"#utility.yul\":1011:1013   */\n      0x40\n        /* \"#utility.yul\":1004:1026   */\n      mstore\n        /* \"#utility.yul\":794:1032   */\n      pop\n        /* \"#utility.yul\":751:1032   */\n      pop\n      pop\n      jump\t// out\n        /* \"#utility.yul\":1038:1167   */\n    tag_33:\n        /* \"#utility.yul\":1072:1078   */\n      0x00\n        /* \"#utility.yul\":1099:1119   */\n      tag_62\n      tag_26\n      jump\t// in\n    tag_62:\n        /* \"#utility.yul\":1089:1119   */\n      swap1\n      pop\n        /* \"#utility.yul\":1128:1161   */\n      tag_63\n        /* \"#utility.yul\":1156:1160   */\n      dup3\n        /* \"#utility.yul\":1148:1154   */\n      dup3\n        /* \"#utility.yul\":1128:1161   */\n      tag_32\n      jump\t// in\n    tag_63:\n        /* \"#utility.yul\":1038:1167   */\n      swap2\n      swap1\n      pop\n      jump\t// out\n        /* \"#utility.yul\":1173:1484   */\n    tag_34:\n        /* \"#utility.yul\":1250:1254   */\n      0x00\n        /* \"#utility.yul\":1340:1358   */\n      0xffffffffffffffff\n        /* \"#utility.yul\":1332:1338   */\n      dup3\n        /* \"#utility.yul\":1329:1359   */\n      gt\n        /* \"#utility.yul\":1326:1382   */\n      iszero\n      tag_65\n      jumpi\n        /* \"#utility.yul\":1362:1380   */\n      tag_66\n      tag_31\n      jump\t// in\n    tag_66:\n        /* \"#utility.yul\":1326:1382   */\n    tag_65:\n        /* \"#utility.yul\":1412:1416   */\n      0x20\n        /* \"#utility.yul\":1404:1410   */\n      dup3\n        /* \"#utility.yul\":1400:1417   */\n      mul\n        /* \"#utility.yul\":1392:1417   */\n      swap1\n      pop\n        /* \"#utility.yul\":1472:1476   */\n      0x20\n        /* \"#utility.yul\":1466:1470   */\n      dup2\n        /* \"#utility.yul\":1462:1477   */\n      add\n        /* \"#utility.yul\":1454:1477   */\n      swap1\n      pop\n        /* \"#utility.yul\":1173:1484   */\n      swap2\n      swap1\n      pop\n      jump\t// out\n        /* \"#utility.yul\":1490:1607   */\n    tag_35:\n        /* \"#utility.yul\":1599:1600   */\n      0x00\n        /* \"#utility.yul\":1596:1597   */\n      0x00\n        /* \"#utility.yul\":1589:1601   */\n      revert\n        /* \"#utility.yul\":1613:1690   */\n    tag_36:\n        /* \"#utility.yul\":1650:1657   */\n      0x00\n        /* \"#utility.yul\":1679:1684   */\n      dup2\n        /* \"#utility.yul\":1668:1684   */\n      swap1\n      pop\n        /* \"#utility.yul\":1613:1690   */\n      swap2\n      swap1\n      pop\n      jump\t// out\n        /* \"#utility.yul\":1696:1818   */\n    tag_37:\n        /* \"#utility.yul\":1769:1793   */\n      tag_70\n        /* \"#utility.yul\":1787:1792   */\n      dup2\n        /* \"#utility.yul\":1769:1793   */\n      tag_36\n      jump\t// in\n    tag_70:\n        /* \"#utility.yul\":1762:1767   */\n      dup2\n        /* \"#utility.yul\":1759:1794   */\n      eq\n        /* \"#utility.yul\":1749:1812   */\n      tag_71\n      jumpi\n        /* \"#utility.yul\":1808:1809   */\n      0x00\n        /* \"#utility.yul\":1805:1806   */\n      0x00\n        /* \"#utility.yul\":1798:1810   */\n      revert\n        /* \"#utility.yul\":1749:1812   */\n    tag_71:\n        /* \"#utility.yul\":1696:1818   */\n      pop\n      jump\t// out\n        /* \"#utility.yul\":1824:1963   */\n    tag_38:\n        /* \"#utility.yul\":1870:1875   */\n      0x00\n        /* \"#utility.yul\":1908:1914   */\n      dup2\n        /* \"#utility.yul\":1895:1915   */\n      calldataload\n        /* \"#utility.yul\":1886:1915   */\n      swap1\n      pop\n        /* \"#utility.yul\":1924:1957   */\n      tag_73\n        /* \"#utility.yul\":1951:1956   */\n      dup2\n        /* \"#utility.yul\":1924:1957   */\n      tag_37\n      jump\t// in\n    tag_73:\n        /* \"#utility.yul\":1824:1963   */\n      swap3\n      swap2\n      pop\n      pop\n      jump\t// out\n        /* \"#utility.yul\":1986:2696   */\n    tag_39:\n        /* \"#utility.yul\":2082:2087   */\n      0x00\n        /* \"#utility.yul\":2107:2188   */\n      tag_75\n        /* \"#utility.yul\":2123:2187   */\n      tag_76\n        /* \"#utility.yul\":2180:2186   */\n      dup5\n        /* \"#utility.yul\":2123:2187   */\n      tag_34\n      jump\t// in\n    tag_76:\n        /* \"#utility.yul\":2107:2188   */\n      tag_33\n      jump\t// in\n    tag_75:\n        /* \"#utility.yul\":2098:2188   */\n      swap1\n      pop\n        /* \"#utility.yul\":2208:2213   */\n      dup1\n        /* \"#utility.yul\":2237:2243   */\n      dup4\n        /* \"#utility.yul\":2230:2235   */\n      dup3\n        /* \"#utility.yul\":2223:2244   */\n      mstore\n        /* \"#utility.yul\":2271:2275   */\n      0x20\n        /* \"#utility.yul\":2264:2269   */\n      dup3\n        /* \"#utility.yul\":2260:2276   */\n      add\n        /* \"#utility.yul\":2253:2276   */\n      swap1\n      pop\n        /* \"#utility.yul\":2324:2328   */\n      0x20\n        /* \"#utility.yul\":2316:2322   */\n      dup5\n        /* \"#utility.yul\":2312:2329   */\n      mul\n        /* \"#utility.yul\":2304:2310   */\n      dup4\n        /* \"#utility.yul\":2300:2330   */\n      add\n        /* \"#utility.yul\":2353:2356   */\n      dup6\n        /* \"#utility.yul\":2345:2351   */\n      dup2\n        /* \"#utility.yul\":2342:2357   */\n      gt\n        /* \"#utility.yul\":2339:2461   */\n      iszero\n      tag_77\n      jumpi\n        /* \"#utility.yul\":2372:2451   */\n      tag_78\n      tag_35\n      jump\t// in\n    tag_78:\n        /* \"#utility.yul\":2339:2461   */\n    tag_77:\n        /* \"#utility.yul\":2487:2493   */\n      dup4\n        /* \"#utility.yul\":2470:2690   */\n    tag_79:\n        /* \"#utility.yul\":2504:2510   */\n      dup2\n        /* \"#utility.yul\":2499:2502   */\n      dup2\n        /* \"#utility.yul\":2496:2511   */\n      lt\n        /* \"#utility.yul\":2470:2690   */\n      iszero\n      tag_81\n      jumpi\n        /* \"#utility.yul\":2579:2582   */\n      dup1\n        /* \"#utility.yul\":2608:2645   */\n      tag_82\n        /* \"#utility.yul\":2641:2644   */\n      dup9\n        /* \"#utility.yul\":2629:2639   */\n      dup3\n        /* \"#utility.yul\":2608:2645   */\n      tag_38\n      jump\t// in\n    tag_82:\n        /* \"#utility.yul\":2603:2606   */\n      dup5\n        /* \"#utility.yul\":2596:2646   */\n      mstore\n        /* \"#utility.yul\":2675:2679   */\n      0x20\n        /* \"#utility.yul\":2670:2673   */\n      dup5\n        /* \"#utility.yul\":2666:2680   */\n      add\n        /* \"#utility.yul\":2659:2680   */\n      swap4\n      pop\n        /* \"#utility.yul\":2546:2690   */\n      pop\n        /* \"#utility.yul\":2530:2534   */\n      0x20\n        /* \"#utility.yul\":2525:2528   */\n      dup2\n        /* \"#utility.yul\":2521:2535   */\n      add\n        /* \"#utility.yul\":2514:2535   */\n      swap1\n      pop\n        /* \"#utility.yul\":2470:2690   */\n      jump(tag_79)\n    tag_81:\n        /* \"#utility.yul\":2474:2495   */\n      pop\n        /* \"#utility.yul\":2088:2696   */\n      pop\n      pop\n        /* \"#utility.yul\":1986:2696   */\n      swap4\n      swap3\n      pop\n      pop\n      pop\n      jump\t// out\n        /* \"#utility.yul\":2719:3089   */\n    tag_40:\n        /* \"#utility.yul\":2790:2795   */\n      0x00\n        /* \"#utility.yul\":2839:2842   */\n      dup3\n        /* \"#utility.yul\":2832:2836   */\n      0x1f\n        /* \"#utility.yul\":2824:2830   */\n      dup4\n        /* \"#utility.yul\":2820:2837   */\n      add\n        /* \"#utility.yul\":2816:2843   */\n      slt\n        /* \"#utility.yul\":2806:2928   */\n      tag_84\n      jumpi\n        /* \"#utility.yul\":2847:2926   */\n      tag_85\n      tag_29\n      jump\t// in\n    tag_85:\n        /* \"#utility.yul\":2806:2928   */\n    tag_84:\n        /* \"#utility.yul\":2964:2970   */\n      dup2\n        /* \"#utility.yul\":2951:2971   */\n      calldataload\n        /* \"#utility.yul\":2989:3083   */\n      tag_86\n        /* \"#utility.yul\":3079:3082   */\n      dup5\n        /* \"#utility.yul\":3071:3077   */\n      dup3\n        /* \"#utility.yul\":3064:3068   */\n      0x20\n        /* \"#utility.yul\":3056:3062   */\n      dup7\n        /* \"#utility.yul\":3052:3069   */\n      add\n        /* \"#utility.yul\":2989:3083   */\n      tag_39\n      jump\t// in\n    tag_86:\n        /* \"#utility.yul\":2980:3083   */\n      swap2\n      pop\n        /* \"#utility.yul\":2796:3089   */\n      pop\n        /* \"#utility.yul\":2719:3089   */\n      swap3\n      swap2\n      pop\n      pop\n      jump\t// out\n        /* \"#utility.yul\":3095:3172   */\n    tag_41:\n        /* \"#utility.yul\":3132:3139   */\n      0x00\n        /* \"#utility.yul\":3161:3166   */\n      dup2\n        /* \"#utility.yul\":3150:3166   */\n      swap1\n      pop\n        /* \"#utility.yul\":3095:3172   */\n      swap2\n      swap1\n      pop\n      jump\t// out\n        /* \"#utility.yul\":3178:3300   */\n    tag_42:\n        /* \"#utility.yul\":3251:3275   */\n      tag_89\n        /* \"#utility.yul\":3269:3274   */\n      dup2\n        /* \"#utility.yul\":3251:3275   */\n      tag_41\n      jump\t// in\n    tag_89:\n        /* \"#utility.yul\":3244:3249   */\n      dup2\n        /* \"#utility.yul\":3241:3276   */\n      eq\n        /* \"#utility.yul\":3231:3294   */\n      tag_90\n      jumpi\n        /* \"#utility.yul\":3290:3291   */\n      0x00\n        /* \"#utility.yul\":3287:3288   */\n      0x00\n        /* \"#utility.yul\":3280:3292   */\n      revert\n        /* \"#utility.yul\":3231:3294   */\n    tag_90:\n        /* \"#utility.yul\":3178:3300   */\n      pop\n      jump\t// out\n        /* \"#utility.yul\":3306:3445   */\n    tag_43:\n        /* \"#utility.yul\":3352:3357   */\n      0x00\n        /* \"#utility.yul\":3390:3396   */\n      dup2\n        /* \"#utility.yul\":3377:3397   */\n      calldataload\n        /* \"#utility.yul\":3368:3397   */\n      swap1\n      pop\n        /* \"#utility.yul\":3406:3439   */\n      tag_92\n        /* \"#utility.yul\":3433:3438   */\n      dup2\n        /* \"#utility.yul\":3406:3439   */\n      tag_42\n      jump\t// in\n    tag_92:\n        /* \"#utility.yul\":3306:3445   */\n      swap3\n      swap2\n      pop\n      pop\n      jump\t// out\n        /* \"#utility.yul\":3451:4426   */\n    tag_6:\n        /* \"#utility.yul\":3562:3568   */\n      0x00\n        /* \"#utility.yul\":3570:3576   */\n      0x00\n        /* \"#utility.yul\":3578:3584   */\n      0x00\n        /* \"#utility.yul\":3586:3592   */\n      0x00\n        /* \"#utility.yul\":3635:3638   */\n      0x80\n        /* \"#utility.yul\":3623:3632   */\n      dup6\n        /* \"#utility.yul\":3614:3621   */\n      dup8\n        /* \"#utility.yul\":3610:3633   */\n      sub\n        /* \"#utility.yul\":3606:3639   */\n      slt\n        /* \"#utility.yul\":3603:3723   */\n      iszero\n      tag_94\n      jumpi\n        /* \"#utility.yul\":3642:3721   */\n      tag_95\n      tag_27\n      jump\t// in\n    tag_95:\n        /* \"#utility.yul\":3603:3723   */\n    tag_94:\n        /* \"#utility.yul\":3790:3791   */\n      0x00\n        /* \"#utility.yul\":3779:3788   */\n      dup6\n        /* \"#utility.yul\":3775:3792   */\n      add\n        /* \"#utility.yul\":3762:3793   */\n      calldataload\n        /* \"#utility.yul\":3820:3838   */\n      0xffffffffffffffff\n        /* \"#utility.yul\":3812:3818   */\n      dup2\n        /* \"#utility.yul\":3809:3839   */\n      gt\n        /* \"#utility.yul\":3806:3923   */\n      iszero\n      tag_96\n      jumpi\n        /* \"#utility.yul\":3842:3921   */\n      tag_97\n      tag_28\n      jump\t// in\n    tag_97:\n        /* \"#utility.yul\":3806:3923   */\n    tag_96:\n        /* \"#utility.yul\":3947:4025   */\n      tag_98\n        /* \"#utility.yul\":4017:4024   */\n      dup8\n        /* \"#utility.yul\":4008:4014   */\n      dup3\n        /* \"#utility.yul\":3997:4006   */\n      dup9\n        /* \"#utility.yul\":3993:4015   */\n      add\n        /* \"#utility.yul\":3947:4025   */\n      tag_40\n      jump\t// in\n    tag_98:\n        /* \"#utility.yul\":3937:4025   */\n      swap5\n      pop\n        /* \"#utility.yul\":3733:4035   */\n      pop\n        /* \"#utility.yul\":4074:4076   */\n      0x20\n        /* \"#utility.yul\":4100:4153   */\n      tag_99\n        /* \"#utility.yul\":4145:4152   */\n      dup8\n        /* \"#utility.yul\":4136:4142   */\n      dup3\n        /* \"#utility.yul\":4125:4134   */\n      dup9\n        /* \"#utility.yul\":4121:4143   */\n      add\n        /* \"#utility.yul\":4100:4153   */\n      tag_38\n      jump\t// in\n    tag_99:\n        /* \"#utility.yul\":4090:4153   */\n      swap4\n      pop\n        /* \"#utility.yul\":4045:4163   */\n      pop\n        /* \"#utility.yul\":4202:4204   */\n      0x40\n        /* \"#utility.yul\":4228:4281   */\n      tag_100\n        /* \"#utility.yul\":4273:4280   */\n      dup8\n        /* \"#utility.yul\":4264:4270   */\n      dup3\n        /* \"#utility.yul\":4253:4262   */\n      dup9\n        /* \"#utility.yul\":4249:4271   */\n      add\n        /* \"#utility.yul\":4228:4281   */\n      tag_38\n      jump\t// in\n    tag_100:\n        /* \"#utility.yul\":4218:4281   */\n      swap3\n      pop\n        /* \"#utility.yul\":4173:4291   */\n      pop\n        /* \"#utility.yul\":4330:4332   */\n      0x60\n        /* \"#utility.yul\":4356:4409   */\n      tag_101\n        /* \"#utility.yul\":4401:4408   */\n      dup8\n        /* \"#utility.yul\":4392:4398   */\n      dup3\n        /* \"#utility.yul\":4381:4390   */\n      dup9\n        /* \"#utility.yul\":4377:4399   */\n      add\n        /* \"#utility.yul\":4356:4409   */\n      tag_43\n      jump\t// in\n    tag_101:\n        /* \"#utility.yul\":4346:4409   */\n      swap2\n      pop\n        /* \"#utility.yul\":4301:4419   */\n      pop\n        /* \"#utility.yul\":3451:4426   */\n      swap3\n      swap6\n      swap2\n      swap5\n      pop\n      swap3\n      pop\n      jump\t// out\n        /* \"#utility.yul\":4432:4522   */\n    tag_44:\n        /* \"#utility.yul\":4466:4473   */\n      0x00\n        /* \"#utility.yul\":4509:4514   */\n      dup2\n        /* \"#utility.yul\":4502:4515   */\n      iszero\n        /* \"#utility.yul\":4495:4516   */\n      iszero\n        /* \"#utility.yul\":4484:4516   */\n      swap1\n      pop\n        /* \"#utility.yul\":4432:4522   */\n      swap2\n      swap1\n      pop\n      jump\t// out\n        /* \"#utility.yul\":4528:4637   */\n    tag_45:\n        /* \"#utility.yul\":4609:4630   */\n      tag_104\n        /* \"#utility.yul\":4624:4629   */\n      dup2\n        /* \"#utility.yul\":4609:4630   */\n      tag_44\n      jump\t// in\n    tag_104:\n        /* \"#utility.yul\":4604:4607   */\n      dup3\n        /* \"#utility.yul\":4597:4631   */\n      mstore\n        /* \"#utility.yul\":4528:4637   */\n      pop\n      pop\n      jump\t// out\n        /* \"#utility.yul\":4643:4853   */\n    tag_9:\n        /* \"#utility.yul\":4730:4734   */\n      0x00\n        /* \"#utility.yul\":4768:4770   */\n      0x20\n        /* \"#utility.yul\":4757:4766   */\n      dup3\n        /* \"#utility.yul\":4753:4771   */\n      add\n        /* \"#utility.yul\":4745:4771   */\n      swap1\n      pop\n        /* \"#utility.yul\":4781:4846   */\n      tag_106\n        /* \"#utility.yul\":4843:4844   */\n      0x00\n        /* \"#utility.yul\":4832:4841   */\n      dup4\n        /* \"#utility.yul\":4828:4845   */\n      add\n        /* \"#utility.yul\":4819:4825   */\n      dup5\n        /* \"#utility.yul\":4781:4846   */\n      tag_45\n      jump\t// in\n    tag_106:\n        /* \"#utility.yul\":4643:4853   */\n      swap3\n      swap2\n      pop\n      pop\n      jump\t// out\n        /* \"#utility.yul\":4859:5039   */\n    tag_16:\n        /* \"#utility.yul\":4907:4984   */\n      0x4e487b7100000000000000000000000000000000000000000000000000000000\n        /* \"#utility.yul\":4904:4905   */\n      0x00\n        /* \"#utility.yul\":4897:4985   */\n      mstore\n        /* \"#utility.yul\":5004:5008   */\n      0x32\n        /* \"#utility.yul\":5001:5002   */\n      0x04\n        /* \"#utility.yul\":4994:5009   */\n      mstore\n        /* \"#utility.yul\":5028:5032   */\n      0x24\n        /* \"#utility.yul\":5025:5026   */\n      0x00\n        /* \"#utility.yul\":5018:5033   */\n      revert\n        /* \"#utility.yul\":5045:5225   */\n    tag_46:\n        /* \"#utility.yul\":5093:5170   */\n      0x4e487b7100000000000000000000000000000000000000000000000000000000\n        /* \"#utility.yul\":5090:5091   */\n      0x00\n        /* \"#utility.yul\":5083:5171   */\n      mstore\n        /* \"#utility.yul\":5190:5194   */\n      0x12\n        /* \"#utility.yul\":5187:5188   */\n      0x04\n        /* \"#utility.yul\":5180:5195   */\n      mstore\n        /* \"#utility.yul\":5214:5218   */\n      0x24\n        /* \"#utility.yul\":5211:5212   */\n      0x00\n        /* \"#utility.yul\":5204:5219   */\n      revert\n        /* \"#utility.yul\":5231:5407   */\n    tag_18:\n        /* \"#utility.yul\":5263:5264   */\n      0x00\n        /* \"#utility.yul\":5280:5300   */\n      tag_110\n        /* \"#utility.yul\":5298:5299   */\n      dup3\n        /* \"#utility.yul\":5280:5300   */\n      tag_41\n      jump\t// in\n    tag_110:\n        /* \"#utility.yul\":5275:5300   */\n      swap2\n      pop\n        /* \"#utility.yul\":5314:5334   */\n      tag_111\n        /* \"#utility.yul\":5332:5333   */\n      dup4\n        /* \"#utility.yul\":5314:5334   */\n      tag_41\n      jump\t// in\n    tag_111:\n        /* \"#utility.yul\":5309:5334   */\n      swap3\n      pop\n        /* \"#utility.yul\":5353:5354   */\n      dup3\n        /* \"#utility.yul\":5343:5378   */\n      tag_112\n      jumpi\n        /* \"#utility.yul\":5358:5376   */\n      tag_113\n      tag_46\n      jump\t// in\n    tag_113:\n        /* \"#utility.yul\":5343:5378   */\n    tag_112:\n        /* \"#utility.yul\":5399:5400   */\n      dup3\n        /* \"#utility.yul\":5396:5397   */\n      dup3\n        /* \"#utility.yul\":5392:5401   */\n      mod\n        /* \"#utility.yul\":5387:5401   */\n      swap1\n      pop\n        /* \"#utility.yul\":5231:5407   */\n      swap3\n      swap2\n      pop\n      pop\n      jump\t// out\n        /* \"#utility.yul\":5413:5492   */\n    tag_47:\n        /* \"#utility.yul\":5452:5459   */\n      0x00\n        /* \"#utility.yul\":5481:5486   */\n      dup2\n        /* \"#utility.yul\":5470:5486   */\n      swap1\n      pop\n        /* \"#utility.yul\":5413:5492   */\n      swap2\n      swap1\n      pop\n      jump\t// out\n        /* \"#utility.yul\":5498:5655   */\n    tag_48:\n        /* \"#utility.yul\":5603:5648   */\n      tag_116\n        /* \"#utility.yul\":5623:5647   */\n      tag_117\n        /* \"#utility.yul\":5641:5646   */\n      dup3\n        /* \"#utility.yul\":5623:5647   */\n      tag_36\n      jump\t// in\n    tag_117:\n        /* \"#utility.yul\":5603:5648   */\n      tag_47\n      jump\t// in\n    tag_116:\n        /* \"#utility.yul\":5598:5601   */\n      dup3\n        /* \"#utility.yul\":5591:5649   */\n      mstore\n        /* \"#utility.yul\":5498:5655   */\n      pop\n      pop\n      jump\t// out\n        /* \"#utility.yul\":5661:6058   */\n    tag_21:\n        /* \"#utility.yul\":5801:5804   */\n      0x00\n        /* \"#utility.yul\":5816:5891   */\n      tag_119\n        /* \"#utility.yul\":5887:5890   */\n      dup3\n        /* \"#utility.yul\":5878:5884   */\n      dup6\n        /* \"#utility.yul\":5816:5891   */\n      tag_48\n      jump\t// in\n    tag_119:\n        /* \"#utility.yul\":5916:5918   */\n      0x20\n        /* \"#utility.yul\":5911:5914   */\n      dup3\n        /* \"#utility.yul\":5907:5919   */\n      add\n        /* \"#utility.yul\":5900:5919   */\n      swap2\n      pop\n        /* \"#utility.yul\":5929:6004   */\n      tag_120\n        /* \"#utility.yul\":6000:6003   */\n      dup3\n        /* \"#utility.yul\":5991:5997   */\n      dup5\n        /* \"#utility.yul\":5929:6004   */\n      tag_48\n      jump\t// in\n    tag_120:\n        /* \"#utility.yul\":6029:6031   */\n      0x20\n        /* \"#utility.yul\":6024:6027   */\n      dup3\n        /* \"#utility.yul\":6020:6032   */\n      add\n        /* \"#utility.yul\":6013:6032   */\n      swap2\n      pop\n        /* \"#utility.yul\":6049:6052   */\n      dup2\n        /* \"#utility.yul\":6042:6052   */\n      swap1\n      pop\n        /* \"#utility.yul\":5661:6058   */\n      swap4\n      swap3\n      pop\n      pop\n      pop\n      jump\t// out\n        /* \"#utility.yul\":6250:6435   */\n    tag_25:\n        /* \"#utility.yul\":6290:6291   */\n      0x00\n        /* \"#utility.yul\":6307:6327   */\n      tag_123\n        /* \"#utility.yul\":6325:6326   */\n      dup3\n        /* \"#utility.yul\":6307:6327   */\n      tag_41\n      jump\t// in\n    tag_123:\n        /* \"#utility.yul\":6302:6327   */\n      swap2\n      pop\n        /* \"#utility.yul\":6341:6361   */\n      tag_124\n        /* \"#utility.yul\":6359:6360   */\n      dup4\n        /* \"#utility.yul\":6341:6361   */\n      tag_41\n      jump\t// in\n    tag_124:\n        /* \"#utility.yul\":6336:6361   */\n      swap3\n      pop\n        /* \"#utility.yul\":6380:6381   */\n      dup3\n        /* \"#utility.yul\":6370:6405   */\n      tag_125\n      jumpi\n        /* \"#utility.yul\":6385:6403   */\n      tag_126\n      tag_46\n      jump\t// in\n    tag_126:\n        /* \"#utility.yul\":6370:6405   */\n    tag_125:\n        /* \"#utility.yul\":6427:6428   */\n      dup3\n        /* \"#utility.yul\":6424:6425   */\n      dup3\n        /* \"#utility.yul\":6420:6429   */\n      div\n        /* \"#utility.yul\":6415:6429   */\n      swap1\n      pop\n        /* \"#utility.yul\":6250:6435   */\n      swap3\n      swap2\n      pop\n      pop\n      jump\t// out\n\n    auxdata: 0xa2646970667358221220c4e5e67c571bb99ef23733f3eebb486c99a3a8f16833c1c3a422fb15651d8f0964736f6c634300081f0033\n}\n",
				"bytecode": {
					"linkReferences": {},
					"object": "6080604052348015600e575f5ffd5b506104de8061001c5f395ff3fe608060405234801561000f575f5ffd5b5060043610610029575f3560e01c806321fb335c1461002d575b5f5ffd5b610047600480360381019061004291906102f0565b61005d565b604051610054919061038a565b60405180910390f35b5f5f8390505f5f90505b865181101561011a575f878281518110610084576100836103a3565b5b602002602001015190505f60028661009c91906103fd565b036100d15782816040516020016100b492919061044d565b6040516020818303038152906040528051906020012092506100fd565b80836040516020016100e492919061044d565b6040516020818303038152906040528051906020012092505b60028561010a9190610478565b9450508080600101915050610067565b50848114915050949350505050565b5f604051905090565b5f5ffd5b5f5ffd5b5f5ffd5b5f601f19601f8301169050919050565b7f4e487b71000000000000000000000000000000000000000000000000000000005f52604160045260245ffd5b6101848261013e565b810181811067ffffffffffffffff821117156101a3576101a261014e565b5b80604052505050565b5f6101b5610129565b90506101c1828261017b565b919050565b5f67ffffffffffffffff8211156101e0576101df61014e565b5b602082029050602081019050919050565b5f5ffd5b5f819050919050565b610207816101f5565b8114610211575f5ffd5b50565b5f81359050610222816101fe565b92915050565b5f61023a610235846101c6565b6101ac565b9050808382526020820190506020840283018581111561025d5761025c6101f1565b5b835b8181101561028657806102728882610214565b84526020840193505060208101905061025f565b5050509392505050565b5f82601f8301126102a4576102a361013a565b5b81356102b4848260208601610228565b91505092915050565b5f819050919050565b6102cf816102bd565b81146102d9575f5ffd5b50565b5f813590506102ea816102c6565b92915050565b5f5f5f5f6080858703121561030857610307610132565b5b5f85013567ffffffffffffffff81111561032557610324610136565b5b61033187828801610290565b945050602061034287828801610214565b935050604061035387828801610214565b9250506060610364878288016102dc565b91505092959194509250565b5f8115159050919050565b61038481610370565b82525050565b5f60208201905061039d5f83018461037b565b92915050565b7f4e487b71000000000000000000000000000000000000000000000000000000005f52603260045260245ffd5b7f4e487b71000000000000000000000000000000000000000000000000000000005f52601260045260245ffd5b5f610407826102bd565b9150610412836102bd565b925082610422576104216103d0565b5b828206905092915050565b5f819050919050565b610447610442826101f5565b61042d565b82525050565b5f6104588285610436565b6020820191506104688284610436565b6020820191508190509392505050565b5f610482826102bd565b915061048d836102bd565b92508261049d5761049c6103d0565b5b82820490509291505056fea2646970667358221220c4e5e67c571bb99ef23733f3eebb486c99a3a8f16833c1c3a422fb15651d8f0964736f6c634300081f0033",
					"opcodes": "PUSH1 0x80 PUSH1 0x40 MSTORE CALLVALUE DUP1 ISZERO PUSH1 0xE JUMPI PUSH0 PUSH0 REVERT JUMPDEST POP PUSH2 0x4DE DUP1 PUSH2 0x1C PUSH0 CODECOPY PUSH0 RETURN INVALID PUSH1 0x80 PUSH1 0x40 MSTORE CALLVALUE DUP1 ISZERO PUSH2 0xF JUMPI PUSH0 PUSH0 REVERT JUMPDEST POP PUSH1 0x4 CALLDATASIZE LT PUSH2 0x29 JUMPI PUSH0 CALLDATALOAD PUSH1 0xE0 SHR DUP1 PUSH4 0x21FB335C EQ PUSH2 0x2D JUMPI JUMPDEST PUSH0 PUSH0 REVERT JUMPDEST PUSH2 0x47 PUSH1 0x4 DUP1 CALLDATASIZE SUB DUP2 ADD SWAP1 PUSH2 0x42 SWAP2 SWAP1 PUSH2 0x2F0 JUMP JUMPDEST PUSH2 0x5D JUMP JUMPDEST PUSH1 0x40 MLOAD PUSH2 0x54 SWAP2 SWAP1 PUSH2 0x38A JUMP JUMPDEST PUSH1 0x40 MLOAD DUP1 SWAP2 SUB SWAP1 RETURN JUMPDEST PUSH0 PUSH0 DUP4 SWAP1 POP PUSH0 PUSH0 SWAP1 POP JUMPDEST DUP7 MLOAD DUP2 LT ISZERO PUSH2 0x11A JUMPI PUSH0 DUP8 DUP3 DUP2 MLOAD DUP2 LT PUSH2 0x84 JUMPI PUSH2 0x83 PUSH2 0x3A3 JUMP JUMPDEST JUMPDEST PUSH1 0x20 MUL PUSH1 0x20 ADD ADD MLOAD SWAP1 POP PUSH0 PUSH1 0x2 DUP7 PUSH2 0x9C SWAP2 SWAP1 PUSH2 0x3FD JUMP JUMPDEST SUB PUSH2 0xD1 JUMPI DUP3 DUP2 PUSH1 0x40 MLOAD PUSH1 0x20 ADD PUSH2 0xB4 SWAP3 SWAP2 SWAP1 PUSH2 0x44D JUMP JUMPDEST PUSH1 0x40 MLOAD PUSH1 0x20 DUP2 DUP4 SUB SUB DUP2 MSTORE SWAP1 PUSH1 0x40 MSTORE DUP1 MLOAD SWAP1 PUSH1 0x20 ADD KECCAK256 SWAP3 POP PUSH2 0xFD JUMP JUMPDEST DUP1 DUP4 PUSH1 0x40 MLOAD PUSH1 0x20 ADD PUSH2 0xE4 SWAP3 SWAP2 SWAP1 PUSH2 0x44D JUMP JUMPDEST PUSH1 0x40 MLOAD PUSH1 0x20 DUP2 DUP4 SUB SUB DUP2 MSTORE SWAP1 PUSH1 0x40 MSTORE DUP1 MLOAD SWAP1 PUSH1 0x20 ADD KECCAK256 SWAP3 POP JUMPDEST PUSH1 0x2 DUP6 PUSH2 0x10A SWAP2 SWAP1 PUSH2 0x478 JUMP JUMPDEST SWAP5 POP POP DUP1 DUP1 PUSH1 0x1 ADD SWAP2 POP POP PUSH2 0x67 JUMP JUMPDEST POP DUP5 DUP2 EQ SWAP2 POP POP SWAP5 SWAP4 POP POP POP POP JUMP JUMPDEST PUSH0 PUSH1 0x40 MLOAD SWAP1 POP SWAP1 JUMP JUMPDEST PUSH0 PUSH0 REVERT JUMPDEST PUSH0 PUSH0 REVERT JUMPDEST PUSH0 PUSH0 REVERT JUMPDEST PUSH0 PUSH1 0x1F NOT PUSH1 0x1F DUP4 ADD AND SWAP1 POP SWAP2 SWAP1 POP JUMP JUMPDEST PUSH32 0x4E487B7100000000000000000000000000000000000000000000000000000000 PUSH0 MSTORE PUSH1 0x41 PUSH1 0x4 MSTORE PUSH1 0x24 PUSH0 REVERT JUMPDEST PUSH2 0x184 DUP3 PUSH2 0x13E JUMP JUMPDEST DUP2 ADD DUP2 DUP2 LT PUSH8 0xFFFFFFFFFFFFFFFF DUP3 GT OR ISZERO PUSH2 0x1A3 JUMPI PUSH2 0x1A2 PUSH2 0x14E JUMP JUMPDEST JUMPDEST DUP1 PUSH1 0x40 MSTORE POP POP POP JUMP JUMPDEST PUSH0 PUSH2 0x1B5 PUSH2 0x129 JUMP JUMPDEST SWAP1 POP PUSH2 0x1C1 DUP3 DUP3 PUSH2 0x17B JUMP JUMPDEST SWAP2 SWAP1 POP JUMP JUMPDEST PUSH0 PUSH8 0xFFFFFFFFFFFFFFFF DUP3 GT ISZERO PUSH2 0x1E0 JUMPI PUSH2 0x1DF PUSH2 0x14E JUMP JUMPDEST JUMPDEST PUSH1 0x20 DUP3 MUL SWAP1 POP PUSH1 0x20 DUP2 ADD SWAP1 POP SWAP2 SWAP1 POP JUMP JUMPDEST PUSH0 PUSH0 REVERT JUMPDEST PUSH0 DUP2 SWAP1 POP SWAP2 SWAP1 POP JUMP JUMPDEST PUSH2 0x207 DUP2 PUSH2 0x1F5 JUMP JUMPDEST DUP2 EQ PUSH2 0x211 JUMPI PUSH0 PUSH0 REVERT JUMPDEST POP JUMP JUMPDEST PUSH0 DUP2 CALLDATALOAD SWAP1 POP PUSH2 0x222 DUP2 PUSH2 0x1FE JUMP JUMPDEST SWAP3 SWAP2 POP POP JUMP JUMPDEST PUSH0 PUSH2 0x23A PUSH2 0x235 DUP5 PUSH2 0x1C6 JUMP JUMPDEST PUSH2 0x1AC JUMP JUMPDEST SWAP1 POP DUP1 DUP4 DUP3 MSTORE PUSH1 0x20 DUP3 ADD SWAP1 POP PUSH1 0x20 DUP5 MUL DUP4 ADD DUP6 DUP2 GT ISZERO PUSH2 0x25D JUMPI PUSH2 0x25C PUSH2 0x1F1 JUMP JUMPDEST JUMPDEST DUP4 JUMPDEST DUP2 DUP2 LT ISZERO PUSH2 0x286 JUMPI DUP1 PUSH2 0x272 DUP9 DUP3 PUSH2 0x214 JUMP JUMPDEST DUP5 MSTORE PUSH1 0x20 DUP5 ADD SWAP4 POP POP PUSH1 0x20 DUP2 ADD SWAP1 POP PUSH2 0x25F JUMP JUMPDEST POP POP POP SWAP4 SWAP3 POP POP POP JUMP JUMPDEST PUSH0 DUP3 PUSH1 0x1F DUP4 ADD SLT PUSH2 0x2A4 JUMPI PUSH2 0x2A3 PUSH2 0x13A JUMP JUMPDEST JUMPDEST DUP2 CALLDATALOAD PUSH2 0x2B4 DUP5 DUP3 PUSH1 0x20 DUP7 ADD PUSH2 0x228 JUMP JUMPDEST SWAP2 POP POP SWAP3 SWAP2 POP POP JUMP JUMPDEST PUSH0 DUP2 SWAP1 POP SWAP2 SWAP1 POP JUMP JUMPDEST PUSH2 0x2CF DUP2 PUSH2 0x2BD JUMP JUMPDEST DUP2 EQ PUSH2 0x2D9 JUMPI PUSH0 PUSH0 REVERT JUMPDEST POP JUMP JUMPDEST PUSH0 DUP2 CALLDATALOAD SWAP1 POP PUSH2 0x2EA DUP2 PUSH2 0x2C6 JUMP JUMPDEST SWAP3 SWAP2 POP POP JUMP JUMPDEST PUSH0 PUSH0 PUSH0 PUSH0 PUSH1 0x80 DUP6 DUP8 SUB SLT ISZERO PUSH2 0x308 JUMPI PUSH2 0x307 PUSH2 0x132 JUMP JUMPDEST JUMPDEST PUSH0 DUP6 ADD CALLDATALOAD PUSH8 0xFFFFFFFFFFFFFFFF DUP2 GT ISZERO PUSH2 0x325 JUMPI PUSH2 0x324 PUSH2 0x136 JUMP JUMPDEST JUMPDEST PUSH2 0x331 DUP8 DUP3 DUP9 ADD PUSH2 0x290 JUMP JUMPDEST SWAP5 POP POP PUSH1 0x20 PUSH2 0x342 DUP8 DUP3 DUP9 ADD PUSH2 0x214 JUMP JUMPDEST SWAP4 POP POP PUSH1 0x40 PUSH2 0x353 DUP8 DUP3 DUP9 ADD PUSH2 0x214 JUMP JUMPDEST SWAP3 POP POP PUSH1 0x60 PUSH2 0x364 DUP8 DUP3 DUP9 ADD PUSH2 0x2DC JUMP JUMPDEST SWAP2 POP POP SWAP3 SWAP6 SWAP2 SWAP5 POP SWAP3 POP JUMP JUMPDEST PUSH0 DUP2 ISZERO ISZERO SWAP1 POP SWAP2 SWAP1 POP JUMP JUMPDEST PUSH2 0x384 DUP2 PUSH2 0x370 JUMP JUMPDEST DUP3 MSTORE POP POP JUMP JUMPDEST PUSH0 PUSH1 0x20 DUP3 ADD SWAP1 POP PUSH2 0x39D PUSH0 DUP4 ADD DUP5 PUSH2 0x37B JUMP JUMPDEST SWAP3 SWAP2 POP POP JUMP JUMPDEST PUSH32 0x4E487B7100000000000000000000000000000000000000000000000000000000 PUSH0 MSTORE PUSH1 0x32 PUSH1 0x4 MSTORE PUSH1 0x24 PUSH0 REVERT JUMPDEST PUSH32 0x4E487B7100000000000000000000000000000000000000000000000000000000 PUSH0 MSTORE PUSH1 0x12 PUSH1 0x4 MSTORE PUSH1 0x24 PUSH0 REVERT JUMPDEST PUSH0 PUSH2 0x407 DUP3 PUSH2 0x2BD JUMP JUMPDEST SWAP2 POP PUSH2 0x412 DUP4 PUSH2 0x2BD JUMP JUMPDEST SWAP3 POP DUP3 PUSH2 0x422 JUMPI PUSH2 0x421 PUSH2 0x3D0 JUMP JUMPDEST JUMPDEST DUP3 DUP3 MOD SWAP1 POP SWAP3 SWAP2 POP POP JUMP JUMPDEST PUSH0 DUP2 SWAP1 POP SWAP2 SWAP1 POP JUMP JUMPDEST PUSH2 0x447 PUSH2 0x442 DUP3 PUSH2 0x1F5 JUMP JUMPDEST PUSH2 0x42D JUMP JUMPDEST DUP3 MSTORE POP POP JUMP JUMPDEST PUSH0 PUSH2 0x458 DUP3 DUP6 PUSH2 0x436 JUMP JUMPDEST PUSH1 0x20 DUP3 ADD SWAP2 POP PUSH2 0x468 DUP3 DUP5 PUSH2 0x436 JUMP JUMPDEST PUSH1 0x20 DUP3 ADD SWAP2 POP DUP2 SWAP1 POP SWAP4 SWAP3 POP POP POP JUMP JUMPDEST PUSH0 PUSH2 0x482 DUP3 PUSH2 0x2BD JUMP JUMPDEST SWAP2 POP PUSH2 0x48D DUP4 PUSH2 0x2BD JUMP JUMPDEST SWAP3 POP DUP3 PUSH2 0x49D JUMPI PUSH2 0x49C PUSH2 0x3D0 JUMP JUMPDEST JUMPDEST DUP3 DUP3 DIV SWAP1 POP SWAP3 SWAP2 POP POP JUMP INVALID LOG2 PUSH5 0x6970667358 0x22 SLT KECCAK256 0xC4 JUMPF 0xE67C JUMPI SHL 0xB9 SWAP15 CALLCODE CALLDATACOPY CALLER RETURN RETURNCONTRACT 0xBB BASEFEE PUSH13 0x99A3A8F16833C1C3A422FB1565 SAR DUP16 MULMOD PUSH5 0x736F6C6343 STOP ADDMOD 0x1F STOP CALLER "
				},
				"gasEstimates": {
					"creation": {
						"codeDepositCost": "249200",
						"executionCost": "285",
						"totalCost": "249485"
					},
					"external": {
						"verify(bytes32[],bytes32,bytes32,uint256)": "infinite"
					}
				},
				"methodIdentifiers": {
					"verify(bytes32[],bytes32,bytes32,uint256)": "21fb335c"
				}
			},
			"storageLayout": {
				"storage": [],
				"types": null
			},
			"userdoc": {
				"kind": "user",
				"methods": {},
				"version": 1
			}
		}
	}
}