{
	"Sol_by_Example/Basics/38.GasOptimzation.sol": {
		"GasGolf": {
			"abi": [
				{
					"inputs": [
						{
							"internalType": "uint256[]",
							"name": "nums",
							"type": "uint256[]"
						}
					],
					"name": "sumIfEvenAndLessThan99",
					"outputs": [],
					"stateMutability": "nonpayable",
					"type": "function"
				},
				{
					"inputs": [],
					"name": "total",
					"outputs": [
						{
							"internalType": "uint256",
							"name": "",
							"type": "uint256"
						}
					],
					"stateMutability": "view",
					"type": "function"
				}
			],
			"devdoc": {
				"kind": "dev",
				"methods": {},
				"version": 1
			},
			"evm": {
				"assembly": "    /* \"Sol_by_Example/Basics/38.GasOptimzation.sol\":70:1272  contract GasGolf {... */\n  mstore(0x40, 0x80)\n  callvalue\n  dup1\n  iszero\n  tag_1\n  jumpi\n  revert(0x00, 0x00)\ntag_1:\n  pop\n  dataSize(sub_0)\n  dup1\n  dataOffset(sub_0)\n  0x00\n  codecopy\n  0x00\n  return\nstop\n\nsub_0: assembly {\n        /* \"Sol_by_Example/Basics/38.GasOptimzation.sol\":70:1272  contract GasGolf {... */\n      mstore(0x40, 0x80)\n      callvalue\n      dup1\n      iszero\n      tag_1\n      jumpi\n      revert(0x00, 0x00)\n    tag_1:\n      pop\n      jumpi(tag_2, lt(calldatasize, 0x04))\n      shr(0xe0, calldataload(0x00))\n      dup1\n      0x2ddbd13a\n      eq\n      tag_3\n      jumpi\n      dup1\n      0xc9762ec2\n      eq\n      tag_4\n      jumpi\n    tag_2:\n      revert(0x00, 0x00)\n        /* \"Sol_by_Example/Basics/38.GasOptimzation.sol\":404:424  uint256 public total */\n    tag_3:\n      tag_5\n      tag_6\n      jump\t// in\n    tag_5:\n      mload(0x40)\n      tag_7\n      swap2\n      swap1\n      tag_8\n      jump\t// in\n    tag_7:\n      mload(0x40)\n      dup1\n      swap2\n      sub\n      swap1\n      return\n        /* \"Sol_by_Example/Basics/38.GasOptimzation.sol\":464:774  function sumIfEvenAndLessThan99(uint[] memory nums) external {... */\n    tag_4:\n      tag_9\n      0x04\n      dup1\n      calldatasize\n      sub\n      dup2\n      add\n      swap1\n      tag_10\n      swap2\n      swap1\n      tag_11\n      jump\t// in\n    tag_10:\n      tag_12\n      jump\t// in\n    tag_9:\n      stop\n        /* \"Sol_by_Example/Basics/38.GasOptimzation.sol\":404:424  uint256 public total */\n    tag_6:\n      sload(0x00)\n      dup2\n      jump\t// out\n        /* \"Sol_by_Example/Basics/38.GasOptimzation.sol\":464:774  function sumIfEvenAndLessThan99(uint[] memory nums) external {... */\n    tag_12:\n        /* \"Sol_by_Example/Basics/38.GasOptimzation.sol\":540:546  uint i */\n      0x00\n        /* \"Sol_by_Example/Basics/38.GasOptimzation.sol\":549:550  0 */\n      0x00\n        /* \"Sol_by_Example/Basics/38.GasOptimzation.sol\":540:550  uint i = 0 */\n      swap1\n      pop\n        /* \"Sol_by_Example/Basics/38.GasOptimzation.sol\":535:768  for (uint i = 0; i < nums.length; i += 1) {... */\n    tag_14:\n        /* \"Sol_by_Example/Basics/38.GasOptimzation.sol\":556:560  nums */\n      dup2\n        /* \"Sol_by_Example/Basics/38.GasOptimzation.sol\":556:567  nums.length */\n      mload\n        /* \"Sol_by_Example/Basics/38.GasOptimzation.sol\":552:553  i */\n      dup2\n        /* \"Sol_by_Example/Basics/38.GasOptimzation.sol\":552:567  i < nums.length */\n      lt\n        /* \"Sol_by_Example/Basics/38.GasOptimzation.sol\":535:768  for (uint i = 0; i < nums.length; i += 1) {... */\n      iszero\n      tag_15\n      jumpi\n        /* \"Sol_by_Example/Basics/38.GasOptimzation.sol\":591:602  bool isEven */\n      0x00\n        /* \"Sol_by_Example/Basics/38.GasOptimzation.sol\":620:621  0 */\n      0x00\n        /* \"Sol_by_Example/Basics/38.GasOptimzation.sol\":615:616  2 */\n      0x02\n        /* \"Sol_by_Example/Basics/38.GasOptimzation.sol\":605:609  nums */\n      dup5\n        /* \"Sol_by_Example/Basics/38.GasOptimzation.sol\":610:611  i */\n      dup5\n        /* \"Sol_by_Example/Basics/38.GasOptimzation.sol\":605:612  nums[i] */\n      dup2\n      mload\n      dup2\n      lt\n      tag_17\n      jumpi\n      tag_18\n      tag_19\n      jump\t// in\n    tag_18:\n    tag_17:\n      0x20\n      mul\n      0x20\n      add\n      add\n      mload\n        /* \"Sol_by_Example/Basics/38.GasOptimzation.sol\":605:616  nums[i] % 2 */\n      tag_20\n      swap2\n      swap1\n      tag_21\n      jump\t// in\n    tag_20:\n        /* \"Sol_by_Example/Basics/38.GasOptimzation.sol\":605:621  nums[i] % 2 == 0 */\n      eq\n        /* \"Sol_by_Example/Basics/38.GasOptimzation.sol\":591:621  bool isEven = nums[i] % 2 == 0 */\n      swap1\n      pop\n        /* \"Sol_by_Example/Basics/38.GasOptimzation.sol\":635:652  bool isLessThan99 */\n      0x00\n        /* \"Sol_by_Example/Basics/38.GasOptimzation.sol\":665:667  99 */\n      0x63\n        /* \"Sol_by_Example/Basics/38.GasOptimzation.sol\":655:659  nums */\n      dup5\n        /* \"Sol_by_Example/Basics/38.GasOptimzation.sol\":660:661  i */\n      dup5\n        /* \"Sol_by_Example/Basics/38.GasOptimzation.sol\":655:662  nums[i] */\n      dup2\n      mload\n      dup2\n      lt\n      tag_22\n      jumpi\n      tag_23\n      tag_19\n      jump\t// in\n    tag_23:\n    tag_22:\n      0x20\n      mul\n      0x20\n      add\n      add\n      mload\n        /* \"Sol_by_Example/Basics/38.GasOptimzation.sol\":655:667  nums[i] < 99 */\n      lt\n        /* \"Sol_by_Example/Basics/38.GasOptimzation.sol\":635:667  bool isLessThan99 = nums[i] < 99 */\n      swap1\n      pop\n        /* \"Sol_by_Example/Basics/38.GasOptimzation.sol\":685:691  isEven */\n      dup2\n        /* \"Sol_by_Example/Basics/38.GasOptimzation.sol\":685:707  isEven && isLessThan99 */\n      dup1\n      iszero\n      tag_24\n      jumpi\n      pop\n        /* \"Sol_by_Example/Basics/38.GasOptimzation.sol\":695:707  isLessThan99 */\n      dup1\n        /* \"Sol_by_Example/Basics/38.GasOptimzation.sol\":685:707  isEven && isLessThan99 */\n    tag_24:\n        /* \"Sol_by_Example/Basics/38.GasOptimzation.sol\":681:758  if (isEven && isLessThan99) {... */\n      iszero\n      tag_25\n      jumpi\n        /* \"Sol_by_Example/Basics/38.GasOptimzation.sol\":736:740  nums */\n      dup4\n        /* \"Sol_by_Example/Basics/38.GasOptimzation.sol\":741:742  i */\n      dup4\n        /* \"Sol_by_Example/Basics/38.GasOptimzation.sol\":736:743  nums[i] */\n      dup2\n      mload\n      dup2\n      lt\n      tag_26\n      jumpi\n      tag_27\n      tag_19\n      jump\t// in\n    tag_27:\n    tag_26:\n      0x20\n      mul\n      0x20\n      add\n      add\n      mload\n        /* \"Sol_by_Example/Basics/38.GasOptimzation.sol\":727:732  total */\n      0x00\n      0x00\n        /* \"Sol_by_Example/Basics/38.GasOptimzation.sol\":727:743  total += nums[i] */\n      dup3\n      dup3\n      sload\n      tag_28\n      swap2\n      swap1\n      tag_29\n      jump\t// in\n    tag_28:\n      swap3\n      pop\n      pop\n      dup2\n      swap1\n      sstore\n      pop\n        /* \"Sol_by_Example/Basics/38.GasOptimzation.sol\":681:758  if (isEven && isLessThan99) {... */\n    tag_25:\n        /* \"Sol_by_Example/Basics/38.GasOptimzation.sol\":577:768  {... */\n      pop\n      pop\n        /* \"Sol_by_Example/Basics/38.GasOptimzation.sol\":574:575  1 */\n      0x01\n        /* \"Sol_by_Example/Basics/38.GasOptimzation.sol\":569:575  i += 1 */\n      dup2\n      tag_30\n      swap2\n      swap1\n      tag_29\n      jump\t// in\n    tag_30:\n      swap1\n      pop\n        /* \"Sol_by_Example/Basics/38.GasOptimzation.sol\":535:768  for (uint i = 0; i < nums.length; i += 1) {... */\n      jump(tag_14)\n    tag_15:\n      pop\n        /* \"Sol_by_Example/Basics/38.GasOptimzation.sol\":464:774  function sumIfEvenAndLessThan99(uint[] memory nums) external {... */\n      pop\n      jump\t// out\n        /* \"#utility.yul\":7:84   */\n    tag_31:\n        /* \"#utility.yul\":44:51   */\n      0x00\n        /* \"#utility.yul\":73:78   */\n      dup2\n        /* \"#utility.yul\":62:78   */\n      swap1\n      pop\n        /* \"#utility.yul\":7:84   */\n      swap2\n      swap1\n      pop\n      jump\t// out\n        /* \"#utility.yul\":90:208   */\n    tag_32:\n        /* \"#utility.yul\":177:201   */\n      tag_52\n        /* \"#utility.yul\":195:200   */\n      dup2\n        /* \"#utility.yul\":177:201   */\n      tag_31\n      jump\t// in\n    tag_52:\n        /* \"#utility.yul\":172:175   */\n      dup3\n        /* \"#utility.yul\":165:202   */\n      mstore\n        /* \"#utility.yul\":90:208   */\n      pop\n      pop\n      jump\t// out\n        /* \"#utility.yul\":214:436   */\n    tag_8:\n        /* \"#utility.yul\":307:311   */\n      0x00\n        /* \"#utility.yul\":345:347   */\n      0x20\n        /* \"#utility.yul\":334:343   */\n      dup3\n        /* \"#utility.yul\":330:348   */\n      add\n        /* \"#utility.yul\":322:348   */\n      swap1\n      pop\n        /* \"#utility.yul\":358:429   */\n      tag_54\n        /* \"#utility.yul\":426:427   */\n      0x00\n        /* \"#utility.yul\":415:424   */\n      dup4\n        /* \"#utility.yul\":411:428   */\n      add\n        /* \"#utility.yul\":402:408   */\n      dup5\n        /* \"#utility.yul\":358:429   */\n      tag_32\n      jump\t// in\n    tag_54:\n        /* \"#utility.yul\":214:436   */\n      swap3\n      swap2\n      pop\n      pop\n      jump\t// out\n        /* \"#utility.yul\":442:517   */\n    tag_33:\n        /* \"#utility.yul\":475:481   */\n      0x00\n        /* \"#utility.yul\":508:510   */\n      0x40\n        /* \"#utility.yul\":502:511   */\n      mload\n        /* \"#utility.yul\":492:511   */\n      swap1\n      pop\n        /* \"#utility.yul\":442:517   */\n      swap1\n      jump\t// out\n        /* \"#utility.yul\":523:640   */\n    tag_34:\n        /* \"#utility.yul\":632:633   */\n      0x00\n        /* \"#utility.yul\":629:630   */\n      0x00\n        /* \"#utility.yul\":622:634   */\n      revert\n        /* \"#utility.yul\":646:763   */\n    tag_35:\n        /* \"#utility.yul\":755:756   */\n      0x00\n        /* \"#utility.yul\":752:753   */\n      0x00\n        /* \"#utility.yul\":745:757   */\n      revert\n        /* \"#utility.yul\":769:886   */\n    tag_36:\n        /* \"#utility.yul\":878:879   */\n      0x00\n        /* \"#utility.yul\":875:876   */\n      0x00\n        /* \"#utility.yul\":868:880   */\n      revert\n        /* \"#utility.yul\":892:994   */\n    tag_37:\n        /* \"#utility.yul\":933:939   */\n      0x00\n        /* \"#utility.yul\":984:986   */\n      0x1f\n        /* \"#utility.yul\":980:987   */\n      not\n        /* \"#utility.yul\":975:977   */\n      0x1f\n        /* \"#utility.yul\":968:973   */\n      dup4\n        /* \"#utility.yul\":964:978   */\n      add\n        /* \"#utility.yul\":960:988   */\n      and\n        /* \"#utility.yul\":950:988   */\n      swap1\n      pop\n        /* \"#utility.yul\":892:994   */\n      swap2\n      swap1\n      pop\n      jump\t// out\n        /* \"#utility.yul\":1000:1180   */\n    tag_38:\n        /* \"#utility.yul\":1048:1125   */\n      0x4e487b7100000000000000000000000000000000000000000000000000000000\n        /* \"#utility.yul\":1045:1046   */\n      0x00\n        /* \"#utility.yul\":1038:1126   */\n      mstore\n        /* \"#utility.yul\":1145:1149   */\n      0x41\n        /* \"#utility.yul\":1142:1143   */\n      0x04\n        /* \"#utility.yul\":1135:1150   */\n      mstore\n        /* \"#utility.yul\":1169:1173   */\n      0x24\n        /* \"#utility.yul\":1166:1167   */\n      0x00\n        /* \"#utility.yul\":1159:1174   */\n      revert\n        /* \"#utility.yul\":1186:1467   */\n    tag_39:\n        /* \"#utility.yul\":1269:1296   */\n      tag_62\n        /* \"#utility.yul\":1291:1295   */\n      dup3\n        /* \"#utility.yul\":1269:1296   */\n      tag_37\n      jump\t// in\n    tag_62:\n        /* \"#utility.yul\":1261:1267   */\n      dup2\n        /* \"#utility.yul\":1257:1297   */\n      add\n        /* \"#utility.yul\":1399:1405   */\n      dup2\n        /* \"#utility.yul\":1387:1397   */\n      dup2\n        /* \"#utility.yul\":1384:1406   */\n      lt\n        /* \"#utility.yul\":1363:1381   */\n      0xffffffffffffffff\n        /* \"#utility.yul\":1351:1361   */\n      dup3\n        /* \"#utility.yul\":1348:1382   */\n      gt\n        /* \"#utility.yul\":1345:1407   */\n      or\n        /* \"#utility.yul\":1342:1430   */\n      iszero\n      tag_63\n      jumpi\n        /* \"#utility.yul\":1410:1428   */\n      tag_64\n      tag_38\n      jump\t// in\n    tag_64:\n        /* \"#utility.yul\":1342:1430   */\n    tag_63:\n        /* \"#utility.yul\":1450:1460   */\n      dup1\n        /* \"#utility.yul\":1446:1448   */\n      0x40\n        /* \"#utility.yul\":1439:1461   */\n      mstore\n        /* \"#utility.yul\":1229:1467   */\n      pop\n        /* \"#utility.yul\":1186:1467   */\n      pop\n      pop\n      jump\t// out\n        /* \"#utility.yul\":1473:1602   */\n    tag_40:\n        /* \"#utility.yul\":1507:1513   */\n      0x00\n        /* \"#utility.yul\":1534:1554   */\n      tag_66\n      tag_33\n      jump\t// in\n    tag_66:\n        /* \"#utility.yul\":1524:1554   */\n      swap1\n      pop\n        /* \"#utility.yul\":1563:1596   */\n      tag_67\n        /* \"#utility.yul\":1591:1595   */\n      dup3\n        /* \"#utility.yul\":1583:1589   */\n      dup3\n        /* \"#utility.yul\":1563:1596   */\n      tag_39\n      jump\t// in\n    tag_67:\n        /* \"#utility.yul\":1473:1602   */\n      swap2\n      swap1\n      pop\n      jump\t// out\n        /* \"#utility.yul\":1608:1919   */\n    tag_41:\n        /* \"#utility.yul\":1685:1689   */\n      0x00\n        /* \"#utility.yul\":1775:1793   */\n      0xffffffffffffffff\n        /* \"#utility.yul\":1767:1773   */\n      dup3\n        /* \"#utility.yul\":1764:1794   */\n      gt\n        /* \"#utility.yul\":1761:1817   */\n      iszero\n      tag_69\n      jumpi\n        /* \"#utility.yul\":1797:1815   */\n      tag_70\n      tag_38\n      jump\t// in\n    tag_70:\n        /* \"#utility.yul\":1761:1817   */\n    tag_69:\n        /* \"#utility.yul\":1847:1851   */\n      0x20\n        /* \"#utility.yul\":1839:1845   */\n      dup3\n        /* \"#utility.yul\":1835:1852   */\n      mul\n        /* \"#utility.yul\":1827:1852   */\n      swap1\n      pop\n        /* \"#utility.yul\":1907:1911   */\n      0x20\n        /* \"#utility.yul\":1901:1905   */\n      dup2\n        /* \"#utility.yul\":1897:1912   */\n      add\n        /* \"#utility.yul\":1889:1912   */\n      swap1\n      pop\n        /* \"#utility.yul\":1608:1919   */\n      swap2\n      swap1\n      pop\n      jump\t// out\n        /* \"#utility.yul\":1925:2042   */\n    tag_42:\n        /* \"#utility.yul\":2034:2035   */\n      0x00\n        /* \"#utility.yul\":2031:2032   */\n      0x00\n        /* \"#utility.yul\":2024:2036   */\n      revert\n        /* \"#utility.yul\":2048:2170   */\n    tag_43:\n        /* \"#utility.yul\":2121:2145   */\n      tag_73\n        /* \"#utility.yul\":2139:2144   */\n      dup2\n        /* \"#utility.yul\":2121:2145   */\n      tag_31\n      jump\t// in\n    tag_73:\n        /* \"#utility.yul\":2114:2119   */\n      dup2\n        /* \"#utility.yul\":2111:2146   */\n      eq\n        /* \"#utility.yul\":2101:2164   */\n      tag_74\n      jumpi\n        /* \"#utility.yul\":2160:2161   */\n      0x00\n        /* \"#utility.yul\":2157:2158   */\n      0x00\n        /* \"#utility.yul\":2150:2162   */\n      revert\n        /* \"#utility.yul\":2101:2164   */\n    tag_74:\n        /* \"#utility.yul\":2048:2170   */\n      pop\n      jump\t// out\n        /* \"#utility.yul\":2176:2315   */\n    tag_44:\n        /* \"#utility.yul\":2222:2227   */\n      0x00\n        /* \"#utility.yul\":2260:2266   */\n      dup2\n        /* \"#utility.yul\":2247:2267   */\n      calldataload\n        /* \"#utility.yul\":2238:2267   */\n      swap1\n      pop\n        /* \"#utility.yul\":2276:2309   */\n      tag_76\n        /* \"#utility.yul\":2303:2308   */\n      dup2\n        /* \"#utility.yul\":2276:2309   */\n      tag_43\n      jump\t// in\n    tag_76:\n        /* \"#utility.yul\":2176:2315   */\n      swap3\n      swap2\n      pop\n      pop\n      jump\t// out\n        /* \"#utility.yul\":2338:3048   */\n    tag_45:\n        /* \"#utility.yul\":2434:2439   */\n      0x00\n        /* \"#utility.yul\":2459:2540   */\n      tag_78\n        /* \"#utility.yul\":2475:2539   */\n      tag_79\n        /* \"#utility.yul\":2532:2538   */\n      dup5\n        /* \"#utility.yul\":2475:2539   */\n      tag_41\n      jump\t// in\n    tag_79:\n        /* \"#utility.yul\":2459:2540   */\n      tag_40\n      jump\t// in\n    tag_78:\n        /* \"#utility.yul\":2450:2540   */\n      swap1\n      pop\n        /* \"#utility.yul\":2560:2565   */\n      dup1\n        /* \"#utility.yul\":2589:2595   */\n      dup4\n        /* \"#utility.yul\":2582:2587   */\n      dup3\n        /* \"#utility.yul\":2575:2596   */\n      mstore\n        /* \"#utility.yul\":2623:2627   */\n      0x20\n        /* \"#utility.yul\":2616:2621   */\n      dup3\n        /* \"#utility.yul\":2612:2628   */\n      add\n        /* \"#utility.yul\":2605:2628   */\n      swap1\n      pop\n        /* \"#utility.yul\":2676:2680   */\n      0x20\n        /* \"#utility.yul\":2668:2674   */\n      dup5\n        /* \"#utility.yul\":2664:2681   */\n      mul\n        /* \"#utility.yul\":2656:2662   */\n      dup4\n        /* \"#utility.yul\":2652:2682   */\n      add\n        /* \"#utility.yul\":2705:2708   */\n      dup6\n        /* \"#utility.yul\":2697:2703   */\n      dup2\n        /* \"#utility.yul\":2694:2709   */\n      gt\n        /* \"#utility.yul\":2691:2813   */\n      iszero\n      tag_80\n      jumpi\n        /* \"#utility.yul\":2724:2803   */\n      tag_81\n      tag_42\n      jump\t// in\n    tag_81:\n        /* \"#utility.yul\":2691:2813   */\n    tag_80:\n        /* \"#utility.yul\":2839:2845   */\n      dup4\n        /* \"#utility.yul\":2822:3042   */\n    tag_82:\n        /* \"#utility.yul\":2856:2862   */\n      dup2\n        /* \"#utility.yul\":2851:2854   */\n      dup2\n        /* \"#utility.yul\":2848:2863   */\n      lt\n        /* \"#utility.yul\":2822:3042   */\n      iszero\n      tag_84\n      jumpi\n        /* \"#utility.yul\":2931:2934   */\n      dup1\n        /* \"#utility.yul\":2960:2997   */\n      tag_85\n        /* \"#utility.yul\":2993:2996   */\n      dup9\n        /* \"#utility.yul\":2981:2991   */\n      dup3\n        /* \"#utility.yul\":2960:2997   */\n      tag_44\n      jump\t// in\n    tag_85:\n        /* \"#utility.yul\":2955:2958   */\n      dup5\n        /* \"#utility.yul\":2948:2998   */\n      mstore\n        /* \"#utility.yul\":3027:3031   */\n      0x20\n        /* \"#utility.yul\":3022:3025   */\n      dup5\n        /* \"#utility.yul\":3018:3032   */\n      add\n        /* \"#utility.yul\":3011:3032   */\n      swap4\n      pop\n        /* \"#utility.yul\":2898:3042   */\n      pop\n        /* \"#utility.yul\":2882:2886   */\n      0x20\n        /* \"#utility.yul\":2877:2880   */\n      dup2\n        /* \"#utility.yul\":2873:2887   */\n      add\n        /* \"#utility.yul\":2866:2887   */\n      swap1\n      pop\n        /* \"#utility.yul\":2822:3042   */\n      jump(tag_82)\n    tag_84:\n        /* \"#utility.yul\":2826:2847   */\n      pop\n        /* \"#utility.yul\":2440:3048   */\n      pop\n      pop\n        /* \"#utility.yul\":2338:3048   */\n      swap4\n      swap3\n      pop\n      pop\n      pop\n      jump\t// out\n        /* \"#utility.yul\":3071:3441   */\n    tag_46:\n        /* \"#utility.yul\":3142:3147   */\n      0x00\n        /* \"#utility.yul\":3191:3194   */\n      dup3\n        /* \"#utility.yul\":3184:3188   */\n      0x1f\n        /* \"#utility.yul\":3176:3182   */\n      dup4\n        /* \"#utility.yul\":3172:3189   */\n      add\n        /* \"#utility.yul\":3168:3195   */\n      slt\n        /* \"#utility.yul\":3158:3280   */\n      tag_87\n      jumpi\n        /* \"#utility.yul\":3199:3278   */\n      tag_88\n      tag_36\n      jump\t// in\n    tag_88:\n        /* \"#utility.yul\":3158:3280   */\n    tag_87:\n        /* \"#utility.yul\":3316:3322   */\n      dup2\n        /* \"#utility.yul\":3303:3323   */\n      calldataload\n        /* \"#utility.yul\":3341:3435   */\n      tag_89\n        /* \"#utility.yul\":3431:3434   */\n      dup5\n        /* \"#utility.yul\":3423:3429   */\n      dup3\n        /* \"#utility.yul\":3416:3420   */\n      0x20\n        /* \"#utility.yul\":3408:3414   */\n      dup7\n        /* \"#utility.yul\":3404:3421   */\n      add\n        /* \"#utility.yul\":3341:3435   */\n      tag_45\n      jump\t// in\n    tag_89:\n        /* \"#utility.yul\":3332:3435   */\n      swap2\n      pop\n        /* \"#utility.yul\":3148:3441   */\n      pop\n        /* \"#utility.yul\":3071:3441   */\n      swap3\n      swap2\n      pop\n      pop\n      jump\t// out\n        /* \"#utility.yul\":3447:3986   */\n    tag_11:\n        /* \"#utility.yul\":3531:3537   */\n      0x00\n        /* \"#utility.yul\":3580:3582   */\n      0x20\n        /* \"#utility.yul\":3568:3577   */\n      dup3\n        /* \"#utility.yul\":3559:3566   */\n      dup5\n        /* \"#utility.yul\":3555:3578   */\n      sub\n        /* \"#utility.yul\":3551:3583   */\n      slt\n        /* \"#utility.yul\":3548:3667   */\n      iszero\n      tag_91\n      jumpi\n        /* \"#utility.yul\":3586:3665   */\n      tag_92\n      tag_34\n      jump\t// in\n    tag_92:\n        /* \"#utility.yul\":3548:3667   */\n    tag_91:\n        /* \"#utility.yul\":3734:3735   */\n      0x00\n        /* \"#utility.yul\":3723:3732   */\n      dup3\n        /* \"#utility.yul\":3719:3736   */\n      add\n        /* \"#utility.yul\":3706:3737   */\n      calldataload\n        /* \"#utility.yul\":3764:3782   */\n      0xffffffffffffffff\n        /* \"#utility.yul\":3756:3762   */\n      dup2\n        /* \"#utility.yul\":3753:3783   */\n      gt\n        /* \"#utility.yul\":3750:3867   */\n      iszero\n      tag_93\n      jumpi\n        /* \"#utility.yul\":3786:3865   */\n      tag_94\n      tag_35\n      jump\t// in\n    tag_94:\n        /* \"#utility.yul\":3750:3867   */\n    tag_93:\n        /* \"#utility.yul\":3891:3969   */\n      tag_95\n        /* \"#utility.yul\":3961:3968   */\n      dup5\n        /* \"#utility.yul\":3952:3958   */\n      dup3\n        /* \"#utility.yul\":3941:3950   */\n      dup6\n        /* \"#utility.yul\":3937:3959   */\n      add\n        /* \"#utility.yul\":3891:3969   */\n      tag_46\n      jump\t// in\n    tag_95:\n        /* \"#utility.yul\":3881:3969   */\n      swap2\n      pop\n        /* \"#utility.yul\":3677:3979   */\n      pop\n        /* \"#utility.yul\":3447:3986   */\n      swap3\n      swap2\n      pop\n      pop\n      jump\t// out\n        /* \"#utility.yul\":3992:4172   */\n    tag_19:\n        /* \"#utility.yul\":4040:4117   */\n      0x4e487b7100000000000000000000000000000000000000000000000000000000\n        /* \"#utility.yul\":4037:4038   */\n      0x00\n        /* \"#utility.yul\":4030:4118   */\n      mstore\n        /* \"#utility.yul\":4137:4141   */\n      0x32\n        /* \"#utility.yul\":4134:4135   */\n      0x04\n        /* \"#utility.yul\":4127:4142   */\n      mstore\n        /* \"#utility.yul\":4161:4165   */\n      0x24\n        /* \"#utility.yul\":4158:4159   */\n      0x00\n        /* \"#utility.yul\":4151:4166   */\n      revert\n        /* \"#utility.yul\":4178:4358   */\n    tag_47:\n        /* \"#utility.yul\":4226:4303   */\n      0x4e487b7100000000000000000000000000000000000000000000000000000000\n        /* \"#utility.yul\":4223:4224   */\n      0x00\n        /* \"#utility.yul\":4216:4304   */\n      mstore\n        /* \"#utility.yul\":4323:4327   */\n      0x12\n        /* \"#utility.yul\":4320:4321   */\n      0x04\n        /* \"#utility.yul\":4313:4328   */\n      mstore\n        /* \"#utility.yul\":4347:4351   */\n      0x24\n        /* \"#utility.yul\":4344:4345   */\n      0x00\n        /* \"#utility.yul\":4337:4352   */\n      revert\n        /* \"#utility.yul\":4364:4540   */\n    tag_21:\n        /* \"#utility.yul\":4396:4397   */\n      0x00\n        /* \"#utility.yul\":4413:4433   */\n      tag_99\n        /* \"#utility.yul\":4431:4432   */\n      dup3\n        /* \"#utility.yul\":4413:4433   */\n      tag_31\n      jump\t// in\n    tag_99:\n        /* \"#utility.yul\":4408:4433   */\n      swap2\n      pop\n        /* \"#utility.yul\":4447:4467   */\n      tag_100\n        /* \"#utility.yul\":4465:4466   */\n      dup4\n        /* \"#utility.yul\":4447:4467   */\n      tag_31\n      jump\t// in\n    tag_100:\n        /* \"#utility.yul\":4442:4467   */\n      swap3\n      pop\n        /* \"#utility.yul\":4486:4487   */\n      dup3\n        /* \"#utility.yul\":4476:4511   */\n      tag_101\n      jumpi\n        /* \"#utility.yul\":4491:4509   */\n      tag_102\n      tag_47\n      jump\t// in\n    tag_102:\n        /* \"#utility.yul\":4476:4511   */\n    tag_101:\n        /* \"#utility.yul\":4532:4533   */\n      dup3\n        /* \"#utility.yul\":4529:4530   */\n      dup3\n        /* \"#utility.yul\":4525:4534   */\n      mod\n        /* \"#utility.yul\":4520:4534   */\n      swap1\n      pop\n        /* \"#utility.yul\":4364:4540   */\n      swap3\n      swap2\n      pop\n      pop\n      jump\t// out\n        /* \"#utility.yul\":4546:4726   */\n    tag_48:\n        /* \"#utility.yul\":4594:4671   */\n      0x4e487b7100000000000000000000000000000000000000000000000000000000\n        /* \"#utility.yul\":4591:4592   */\n      0x00\n        /* \"#utility.yul\":4584:4672   */\n      mstore\n        /* \"#utility.yul\":4691:4695   */\n      0x11\n        /* \"#utility.yul\":4688:4689   */\n      0x04\n        /* \"#utility.yul\":4681:4696   */\n      mstore\n        /* \"#utility.yul\":4715:4719   */\n      0x24\n        /* \"#utility.yul\":4712:4713   */\n      0x00\n        /* \"#utility.yul\":4705:4720   */\n      revert\n        /* \"#utility.yul\":4732:4923   */\n    tag_29:\n        /* \"#utility.yul\":4772:4775   */\n      0x00\n        /* \"#utility.yul\":4791:4811   */\n      tag_105\n        /* \"#utility.yul\":4809:4810   */\n      dup3\n        /* \"#utility.yul\":4791:4811   */\n      tag_31\n      jump\t// in\n    tag_105:\n        /* \"#utility.yul\":4786:4811   */\n      swap2\n      pop\n        /* \"#utility.yul\":4825:4845   */\n      tag_106\n        /* \"#utility.yul\":4843:4844   */\n      dup4\n        /* \"#utility.yul\":4825:4845   */\n      tag_31\n      jump\t// in\n    tag_106:\n        /* \"#utility.yul\":4820:4845   */\n      swap3\n      pop\n        /* \"#utility.yul\":4868:4869   */\n      dup3\n        /* \"#utility.yul\":4865:4866   */\n      dup3\n        /* \"#utility.yul\":4861:4870   */\n      add\n        /* \"#utility.yul\":4854:4870   */\n      swap1\n      pop\n        /* \"#utility.yul\":4889:4892   */\n      dup1\n        /* \"#utility.yul\":4886:4887   */\n      dup3\n        /* \"#utility.yul\":4883:4893   */\n      gt\n        /* \"#utility.yul\":4880:4916   */\n      iszero\n      tag_107\n      jumpi\n        /* \"#utility.yul\":4896:4914   */\n      tag_108\n      tag_48\n      jump\t// in\n    tag_108:\n        /* \"#utility.yul\":4880:4916   */\n    tag_107:\n        /* \"#utility.yul\":4732:4923   */\n      swap3\n      swap2\n      pop\n      pop\n      jump\t// out\n\n    auxdata: 0xa2646970667358221220a850e8ab9160fadc453740508dc3634ff5d10024df7196b0dde799c3a615d4e264736f6c634300081f0033\n}\n",
				"bytecode": {
					"linkReferences": {},
					"object": "6080604052348015600e575f5ffd5b506104508061001c5f395ff3fe608060405234801561000f575f5ffd5b5060043610610034575f3560e01c80632ddbd13a14610038578063c9762ec214610056575b5f5ffd5b610040610072565b60405161004d9190610145565b60405180910390f35b610070600480360381019061006b91906102e9565b610077565b005b5f5481565b5f5f90505b8151811015610129575f5f600284848151811061009c5761009b610330565b5b60200260200101516100ae919061038a565b1490505f60638484815181106100c7576100c6610330565b5b60200260200101511090508180156100dc5750805b15610113578383815181106100f4576100f3610330565b5b60200260200101515f5f82825461010b91906103e7565b925050819055505b505060018161012291906103e7565b905061007c565b5050565b5f819050919050565b61013f8161012d565b82525050565b5f6020820190506101585f830184610136565b92915050565b5f604051905090565b5f5ffd5b5f5ffd5b5f5ffd5b5f601f19601f8301169050919050565b7f4e487b71000000000000000000000000000000000000000000000000000000005f52604160045260245ffd5b6101b982610173565b810181811067ffffffffffffffff821117156101d8576101d7610183565b5b80604052505050565b5f6101ea61015e565b90506101f682826101b0565b919050565b5f67ffffffffffffffff82111561021557610214610183565b5b602082029050602081019050919050565b5f5ffd5b6102338161012d565b811461023d575f5ffd5b50565b5f8135905061024e8161022a565b92915050565b5f610266610261846101fb565b6101e1565b9050808382526020820190506020840283018581111561028957610288610226565b5b835b818110156102b2578061029e8882610240565b84526020840193505060208101905061028b565b5050509392505050565b5f82601f8301126102d0576102cf61016f565b5b81356102e0848260208601610254565b91505092915050565b5f602082840312156102fe576102fd610167565b5b5f82013567ffffffffffffffff81111561031b5761031a61016b565b5b610327848285016102bc565b91505092915050565b7f4e487b71000000000000000000000000000000000000000000000000000000005f52603260045260245ffd5b7f4e487b71000000000000000000000000000000000000000000000000000000005f52601260045260245ffd5b5f6103948261012d565b915061039f8361012d565b9250826103af576103ae61035d565b5b828206905092915050565b7f4e487b71000000000000000000000000000000000000000000000000000000005f52601160045260245ffd5b5f6103f18261012d565b91506103fc8361012d565b9250828201905080821115610414576104136103ba565b5b9291505056fea2646970667358221220a850e8ab9160fadc453740508dc3634ff5d10024df7196b0dde799c3a615d4e264736f6c634300081f0033",
					"opcodes": "PUSH1 0x80 PUSH1 0x40 MSTORE CALLVALUE DUP1 ISZERO PUSH1 0xE JUMPI PUSH0 PUSH0 REVERT JUMPDEST POP PUSH2 0x450 DUP1 PUSH2 0x1C PUSH0 CODECOPY PUSH0 RETURN INVALID PUSH1 0x80 PUSH1 0x40 MSTORE CALLVALUE DUP1 ISZERO PUSH2 0xF JUMPI PUSH0 PUSH0 REVERT JUMPDEST POP PUSH1 0x4 CALLDATASIZE LT PUSH2 0x34 JUMPI PUSH0 CALLDATALOAD PUSH1 0xE0 SHR DUP1 PUSH4 0x2DDBD13A EQ PUSH2 0x38 JUMPI DUP1 PUSH4 0xC9762EC2 EQ PUSH2 0x56 JUMPI JUMPDEST PUSH0 PUSH0 REVERT JUMPDEST PUSH2 0x40 PUSH2 0x72 JUMP JUMPDEST PUSH1 0x40 MLOAD PUSH2 0x4D SWAP2 SWAP1 PUSH2 0x145 JUMP JUMPDEST PUSH1 0x40 MLOAD DUP1 SWAP2 SUB SWAP1 RETURN JUMPDEST PUSH2 0x70 PUSH1 0x4 DUP1 CALLDATASIZE SUB DUP2 ADD SWAP1 PUSH2 0x6B SWAP2 SWAP1 PUSH2 0x2E9 JUMP JUMPDEST PUSH2 0x77 JUMP JUMPDEST STOP JUMPDEST PUSH0 SLOAD DUP2 JUMP JUMPDEST PUSH0 PUSH0 SWAP1 POP JUMPDEST DUP2 MLOAD DUP2 LT ISZERO PUSH2 0x129 JUMPI PUSH0 PUSH0 PUSH1 0x2 DUP5 DUP5 DUP2 MLOAD DUP2 LT PUSH2 0x9C JUMPI PUSH2 0x9B PUSH2 0x330 JUMP JUMPDEST JUMPDEST PUSH1 0x20 MUL PUSH1 0x20 ADD ADD MLOAD PUSH2 0xAE SWAP2 SWAP1 PUSH2 0x38A JUMP JUMPDEST EQ SWAP1 POP PUSH0 PUSH1 0x63 DUP5 DUP5 DUP2 MLOAD DUP2 LT PUSH2 0xC7 JUMPI PUSH2 0xC6 PUSH2 0x330 JUMP JUMPDEST JUMPDEST PUSH1 0x20 MUL PUSH1 0x20 ADD ADD MLOAD LT SWAP1 POP DUP2 DUP1 ISZERO PUSH2 0xDC JUMPI POP DUP1 JUMPDEST ISZERO PUSH2 0x113 JUMPI DUP4 DUP4 DUP2 MLOAD DUP2 LT PUSH2 0xF4 JUMPI PUSH2 0xF3 PUSH2 0x330 JUMP JUMPDEST JUMPDEST PUSH1 0x20 MUL PUSH1 0x20 ADD ADD MLOAD PUSH0 PUSH0 DUP3 DUP3 SLOAD PUSH2 0x10B SWAP2 SWAP1 PUSH2 0x3E7 JUMP JUMPDEST SWAP3 POP POP DUP2 SWAP1 SSTORE POP JUMPDEST POP POP PUSH1 0x1 DUP2 PUSH2 0x122 SWAP2 SWAP1 PUSH2 0x3E7 JUMP JUMPDEST SWAP1 POP PUSH2 0x7C JUMP JUMPDEST POP POP JUMP JUMPDEST PUSH0 DUP2 SWAP1 POP SWAP2 SWAP1 POP JUMP JUMPDEST PUSH2 0x13F DUP2 PUSH2 0x12D JUMP JUMPDEST DUP3 MSTORE POP POP JUMP JUMPDEST PUSH0 PUSH1 0x20 DUP3 ADD SWAP1 POP PUSH2 0x158 PUSH0 DUP4 ADD DUP5 PUSH2 0x136 JUMP JUMPDEST SWAP3 SWAP2 POP POP JUMP JUMPDEST PUSH0 PUSH1 0x40 MLOAD SWAP1 POP SWAP1 JUMP JUMPDEST PUSH0 PUSH0 REVERT JUMPDEST PUSH0 PUSH0 REVERT JUMPDEST PUSH0 PUSH0 REVERT JUMPDEST PUSH0 PUSH1 0x1F NOT PUSH1 0x1F DUP4 ADD AND SWAP1 POP SWAP2 SWAP1 POP JUMP JUMPDEST PUSH32 0x4E487B7100000000000000000000000000000000000000000000000000000000 PUSH0 MSTORE PUSH1 0x41 PUSH1 0x4 MSTORE PUSH1 0x24 PUSH0 REVERT JUMPDEST PUSH2 0x1B9 DUP3 PUSH2 0x173 JUMP JUMPDEST DUP2 ADD DUP2 DUP2 LT PUSH8 0xFFFFFFFFFFFFFFFF DUP3 GT OR ISZERO PUSH2 0x1D8 JUMPI PUSH2 0x1D7 PUSH2 0x183 JUMP JUMPDEST JUMPDEST DUP1 PUSH1 0x40 MSTORE POP POP POP JUMP JUMPDEST PUSH0 PUSH2 0x1EA PUSH2 0x15E JUMP JUMPDEST SWAP1 POP PUSH2 0x1F6 DUP3 DUP3 PUSH2 0x1B0 JUMP JUMPDEST SWAP2 SWAP1 POP JUMP JUMPDEST PUSH0 PUSH8 0xFFFFFFFFFFFFFFFF DUP3 GT ISZERO PUSH2 0x215 JUMPI PUSH2 0x214 PUSH2 0x183 JUMP JUMPDEST JUMPDEST PUSH1 0x20 DUP3 MUL SWAP1 POP PUSH1 0x20 DUP2 ADD SWAP1 POP SWAP2 SWAP1 POP JUMP JUMPDEST PUSH0 PUSH0 REVERT JUMPDEST PUSH2 0x233 DUP2 PUSH2 0x12D JUMP JUMPDEST DUP2 EQ PUSH2 0x23D JUMPI PUSH0 PUSH0 REVERT JUMPDEST POP JUMP JUMPDEST PUSH0 DUP2 CALLDATALOAD SWAP1 POP PUSH2 0x24E DUP2 PUSH2 0x22A JUMP JUMPDEST SWAP3 SWAP2 POP POP JUMP JUMPDEST PUSH0 PUSH2 0x266 PUSH2 0x261 DUP5 PUSH2 0x1FB JUMP JUMPDEST PUSH2 0x1E1 JUMP JUMPDEST SWAP1 POP DUP1 DUP4 DUP3 MSTORE PUSH1 0x20 DUP3 ADD SWAP1 POP PUSH1 0x20 DUP5 MUL DUP4 ADD DUP6 DUP2 GT ISZERO PUSH2 0x289 JUMPI PUSH2 0x288 PUSH2 0x226 JUMP JUMPDEST JUMPDEST DUP4 JUMPDEST DUP2 DUP2 LT ISZERO PUSH2 0x2B2 JUMPI DUP1 PUSH2 0x29E DUP9 DUP3 PUSH2 0x240 JUMP JUMPDEST DUP5 MSTORE PUSH1 0x20 DUP5 ADD SWAP4 POP POP PUSH1 0x20 DUP2 ADD SWAP1 POP PUSH2 0x28B JUMP JUMPDEST POP POP POP SWAP4 SWAP3 POP POP POP JUMP JUMPDEST PUSH0 DUP3 PUSH1 0x1F DUP4 ADD SLT PUSH2 0x2D0 JUMPI PUSH2 0x2CF PUSH2 0x16F JUMP JUMPDEST JUMPDEST DUP2 CALLDATALOAD PUSH2 0x2E0 DUP5 DUP3 PUSH1 0x20 DUP7 ADD PUSH2 0x254 JUMP JUMPDEST SWAP2 POP POP SWAP3 SWAP2 POP POP JUMP JUMPDEST PUSH0 PUSH1 0x20 DUP3 DUP5 SUB SLT ISZERO PUSH2 0x2FE JUMPI PUSH2 0x2FD PUSH2 0x167 JUMP JUMPDEST JUMPDEST PUSH0 DUP3 ADD CALLDATALOAD PUSH8 0xFFFFFFFFFFFFFFFF DUP2 GT ISZERO PUSH2 0x31B JUMPI PUSH2 0x31A PUSH2 0x16B JUMP JUMPDEST JUMPDEST PUSH2 0x327 DUP5 DUP3 DUP6 ADD PUSH2 0x2BC JUMP JUMPDEST SWAP2 POP POP SWAP3 SWAP2 POP POP JUMP JUMPDEST PUSH32 0x4E487B7100000000000000000000000000000000000000000000000000000000 PUSH0 MSTORE PUSH1 0x32 PUSH1 0x4 MSTORE PUSH1 0x24 PUSH0 REVERT JUMPDEST PUSH32 0x4E487B7100000000000000000000000000000000000000000000000000000000 PUSH0 MSTORE PUSH1 0x12 PUSH1 0x4 MSTORE PUSH1 0x24 PUSH0 REVERT JUMPDEST PUSH0 PUSH2 0x394 DUP3 PUSH2 0x12D JUMP JUMPDEST SWAP2 POP PUSH2 0x39F DUP4 PUSH2 0x12D JUMP JUMPDEST SWAP3 POP DUP3 PUSH2 0x3AF JUMPI PUSH2 0x3AE PUSH2 0x35D JUMP JUMPDEST JUMPDEST DUP3 DUP3 MOD SWAP1 POP SWAP3 SWAP2 POP POP JUMP JUMPDEST PUSH32 0x4E487B7100000000000000000000000000000000000000000000000000000000 PUSH0 MSTORE PUSH1 0x11 PUSH1 0x4 MSTORE PUSH1 0x24 PUSH0 REVERT JUMPDEST PUSH0 PUSH2 0x3F1 DUP3 PUSH2 0x12D JUMP JUMPDEST SWAP2 POP PUSH2 0x3FC DUP4 PUSH2 0x12D JUMP JUMPDEST SWAP3 POP DUP3 DUP3 ADD SWAP1 POP DUP1 DUP3 GT ISZERO PUSH2 0x414 JUMPI PUSH2 0x413 PUSH2 0x3BA JUMP JUMPDEST JUMPDEST SWAP3 SWAP2 POP POP JUMP INVALID LOG2 PUSH5 0x6970667358 0x22 SLT KECCAK256 0xA8 POP 0xE8 0xAB SWAP2 PUSH1 0xFA 0xDC GASLIMIT CALLDATACOPY BLOCKHASH POP DUP14 0xC3 PUSH4 0x4FF5D100 0x24 0xDF PUSH18 0x96B0DDE799C3A615D4E264736F6C63430008 0x1F STOP CALLER "
				},
				"gasEstimates": {
					"creation": {
						"codeDepositCost": "220800",
						"executionCost": "261",
						"totalCost": "221061"
					},
					"external": {
						"sumIfEvenAndLessThan99(uint256[])": "infinite",
						"total()": "2402"
					}
				},
				"methodIdentifiers": {
					"sumIfEvenAndLessThan99(uint256[])": "c9762ec2",
					"total()": "2ddbd13a"
				}
			},
			"storageLayout": {
				"storage": [
					{
						"astId": 3,
						"contract": "Sol_by_Example/Basics/38.GasOptimzation.sol:GasGolf",
						"label": "total",
						"offset": 0,
						"slot": "0",
						"type": "t_uint256"
					}
				],
				"types": {
					"t_uint256": {
						"encoding": "inplace",
						"label": "uint256",
						"numberOfBytes": "32"
					}
				}
			},
			"userdoc": {
				"kind": "user",
				"methods": {},
				"version": 1
			}
		}
	}
}