{
	"Sol_by_Example/Basics/functions.sol": {
		"XYZ": {
			"abi": [
				{
					"inputs": [],
					"name": "callFunc",
					"outputs": [
						{
							"internalType": "uint256",
							"name": "",
							"type": "uint256"
						}
					],
					"stateMutability": "pure",
					"type": "function"
				},
				{
					"inputs": [],
					"name": "callFunctionWithKeyValue",
					"outputs": [
						{
							"internalType": "uint256",
							"name": "",
							"type": "uint256"
						}
					],
					"stateMutability": "pure",
					"type": "function"
				},
				{
					"inputs": [
						{
							"internalType": "uint256",
							"name": "x",
							"type": "uint256"
						},
						{
							"internalType": "uint256",
							"name": "y",
							"type": "uint256"
						},
						{
							"internalType": "uint256",
							"name": "z",
							"type": "uint256"
						},
						{
							"internalType": "address",
							"name": "a",
							"type": "address"
						},
						{
							"internalType": "bool",
							"name": "b",
							"type": "bool"
						},
						{
							"internalType": "string",
							"name": "s",
							"type": "string"
						}
					],
					"name": "someFuncWithManyInputs",
					"outputs": [
						{
							"internalType": "uint256",
							"name": "",
							"type": "uint256"
						}
					],
					"stateMutability": "pure",
					"type": "function"
				}
			],
			"devdoc": {
				"kind": "dev",
				"methods": {},
				"version": 1
			},
			"evm": {
				"assembly": "    /* \"Sol_by_Example/Basics/functions.sol\":1108:1633  contract XYZ{... */\n  mstore(0x40, 0x80)\n  callvalue\n  dup1\n  iszero\n  tag_1\n  jumpi\n  revert(0x00, 0x00)\ntag_1:\n  pop\n  dataSize(sub_0)\n  dup1\n  dataOffset(sub_0)\n  0x00\n  codecopy\n  0x00\n  return\nstop\n\nsub_0: assembly {\n        /* \"Sol_by_Example/Basics/functions.sol\":1108:1633  contract XYZ{... */\n      mstore(0x40, 0x80)\n      callvalue\n      dup1\n      iszero\n      tag_1\n      jumpi\n      revert(0x00, 0x00)\n    tag_1:\n      pop\n      jumpi(tag_2, lt(calldatasize, 0x04))\n      shr(0xe0, calldataload(0x00))\n      dup1\n      0x127b4e08\n      eq\n      tag_3\n      jumpi\n      dup1\n      0x9a7846b9\n      eq\n      tag_4\n      jumpi\n      dup1\n      0xe9d47c4a\n      eq\n      tag_5\n      jumpi\n    tag_2:\n      revert(0x00, 0x00)\n        /* \"Sol_by_Example/Basics/functions.sol\":1126:1308  function someFuncWithManyInputs (... */\n    tag_3:\n      tag_6\n      0x04\n      dup1\n      calldatasize\n      sub\n      dup2\n      add\n      swap1\n      tag_7\n      swap2\n      swap1\n      tag_8\n      jump\t// in\n    tag_7:\n      tag_9\n      jump\t// in\n    tag_6:\n      mload(0x40)\n      tag_10\n      swap2\n      swap1\n      tag_11\n      jump\t// in\n    tag_10:\n      mload(0x40)\n      dup1\n      swap2\n      sub\n      swap1\n      return\n        /* \"Sol_by_Example/Basics/functions.sol\":1314:1454  function callFunc() external pure returns (uint) {... */\n    tag_4:\n      tag_12\n      tag_13\n      jump\t// in\n    tag_12:\n      mload(0x40)\n      tag_14\n      swap2\n      swap1\n      tag_11\n      jump\t// in\n    tag_14:\n      mload(0x40)\n      dup1\n      swap2\n      sub\n      swap1\n      return\n        /* \"Sol_by_Example/Basics/functions.sol\":1460:1631  function callFunctionWithKeyValue() external pure returns (uint) {... */\n    tag_5:\n      tag_15\n      tag_16\n      jump\t// in\n    tag_15:\n      mload(0x40)\n      tag_17\n      swap2\n      swap1\n      tag_11\n      jump\t// in\n    tag_17:\n      mload(0x40)\n      dup1\n      swap2\n      sub\n      swap1\n      return\n        /* \"Sol_by_Example/Basics/functions.sol\":1126:1308  function someFuncWithManyInputs (... */\n    tag_9:\n        /* \"Sol_by_Example/Basics/functions.sol\":1294:1298  uint */\n      0x00\n        /* \"Sol_by_Example/Basics/functions.sol\":1126:1308  function someFuncWithManyInputs (... */\n      swap7\n      swap6\n      pop\n      pop\n      pop\n      pop\n      pop\n      pop\n      jump\t// out\n        /* \"Sol_by_Example/Basics/functions.sol\":1314:1454  function callFunc() external pure returns (uint) {... */\n    tag_13:\n        /* \"Sol_by_Example/Basics/functions.sol\":1357:1361  uint */\n      0x00\n        /* \"Sol_by_Example/Basics/functions.sol\":1380:1447  someFuncWithManyInputs(1, 2, 3, address(0), true, \"This is string\") */\n      tag_20\n        /* \"Sol_by_Example/Basics/functions.sol\":1403:1404  1 */\n      0x01\n        /* \"Sol_by_Example/Basics/functions.sol\":1406:1407  2 */\n      0x02\n        /* \"Sol_by_Example/Basics/functions.sol\":1409:1410  3 */\n      0x03\n        /* \"Sol_by_Example/Basics/functions.sol\":1420:1421  0 */\n      0x00\n        /* \"Sol_by_Example/Basics/functions.sol\":1424:1428  true */\n      0x01\n        /* \"Sol_by_Example/Basics/functions.sol\":1380:1447  someFuncWithManyInputs(1, 2, 3, address(0), true, \"This is string\") */\n      mload(0x40)\n      dup1\n      0x40\n      add\n      0x40\n      mstore\n      dup1\n      0x0e\n      dup2\n      mstore\n      0x20\n      add\n      0x5468697320697320737472696e67000000000000000000000000000000000000\n      dup2\n      mstore\n      pop\n        /* \"Sol_by_Example/Basics/functions.sol\":1380:1402  someFuncWithManyInputs */\n      tag_9\n        /* \"Sol_by_Example/Basics/functions.sol\":1380:1447  someFuncWithManyInputs(1, 2, 3, address(0), true, \"This is string\") */\n      jump\t// in\n    tag_20:\n        /* \"Sol_by_Example/Basics/functions.sol\":1373:1447  return someFuncWithManyInputs(1, 2, 3, address(0), true, \"This is string\") */\n      swap1\n      pop\n        /* \"Sol_by_Example/Basics/functions.sol\":1314:1454  function callFunc() external pure returns (uint) {... */\n      swap1\n      jump\t// out\n        /* \"Sol_by_Example/Basics/functions.sol\":1460:1631  function callFunctionWithKeyValue() external pure returns (uint) {... */\n    tag_16:\n        /* \"Sol_by_Example/Basics/functions.sol\":1519:1523  uint */\n      0x00\n        /* \"Sol_by_Example/Basics/functions.sol\":1542:1624  someFuncWithManyInputs({a:address(0), b:false, s:\"This is string\", x:1, y:2, z:3}) */\n      tag_22\n        /* \"Sol_by_Example/Basics/functions.sol\":1611:1612  1 */\n      0x01\n        /* \"Sol_by_Example/Basics/functions.sol\":1616:1617  2 */\n      0x02\n        /* \"Sol_by_Example/Basics/functions.sol\":1621:1622  3 */\n      0x03\n        /* \"Sol_by_Example/Basics/functions.sol\":1576:1577  0 */\n      0x00\n        /* \"Sol_by_Example/Basics/functions.sol\":1582:1587  false */\n      0x00\n        /* \"Sol_by_Example/Basics/functions.sol\":1542:1624  someFuncWithManyInputs({a:address(0), b:false, s:\"This is string\", x:1, y:2, z:3}) */\n      mload(0x40)\n      dup1\n      0x40\n      add\n      0x40\n      mstore\n      dup1\n      0x0e\n      dup2\n      mstore\n      0x20\n      add\n      0x5468697320697320737472696e67000000000000000000000000000000000000\n      dup2\n      mstore\n      pop\n        /* \"Sol_by_Example/Basics/functions.sol\":1542:1564  someFuncWithManyInputs */\n      tag_9\n        /* \"Sol_by_Example/Basics/functions.sol\":1542:1624  someFuncWithManyInputs({a:address(0), b:false, s:\"This is string\", x:1, y:2, z:3}) */\n      jump\t// in\n    tag_22:\n        /* \"Sol_by_Example/Basics/functions.sol\":1535:1624  return someFuncWithManyInputs({a:address(0), b:false, s:\"This is string\", x:1, y:2, z:3}) */\n      swap1\n      pop\n        /* \"Sol_by_Example/Basics/functions.sol\":1460:1631  function callFunctionWithKeyValue() external pure returns (uint) {... */\n      swap1\n      jump\t// out\n        /* \"#utility.yul\":7:82   */\n    tag_23:\n        /* \"#utility.yul\":40:46   */\n      0x00\n        /* \"#utility.yul\":73:75   */\n      0x40\n        /* \"#utility.yul\":67:76   */\n      mload\n        /* \"#utility.yul\":57:76   */\n      swap1\n      pop\n        /* \"#utility.yul\":7:82   */\n      swap1\n      jump\t// out\n        /* \"#utility.yul\":88:205   */\n    tag_24:\n        /* \"#utility.yul\":197:198   */\n      0x00\n        /* \"#utility.yul\":194:195   */\n      0x00\n        /* \"#utility.yul\":187:199   */\n      revert\n        /* \"#utility.yul\":211:328   */\n    tag_25:\n        /* \"#utility.yul\":320:321   */\n      0x00\n        /* \"#utility.yul\":317:318   */\n      0x00\n        /* \"#utility.yul\":310:322   */\n      revert\n        /* \"#utility.yul\":334:411   */\n    tag_26:\n        /* \"#utility.yul\":371:378   */\n      0x00\n        /* \"#utility.yul\":400:405   */\n      dup2\n        /* \"#utility.yul\":389:405   */\n      swap1\n      pop\n        /* \"#utility.yul\":334:411   */\n      swap2\n      swap1\n      pop\n      jump\t// out\n        /* \"#utility.yul\":417:539   */\n    tag_27:\n        /* \"#utility.yul\":490:514   */\n      tag_53\n        /* \"#utility.yul\":508:513   */\n      dup2\n        /* \"#utility.yul\":490:514   */\n      tag_26\n      jump\t// in\n    tag_53:\n        /* \"#utility.yul\":483:488   */\n      dup2\n        /* \"#utility.yul\":480:515   */\n      eq\n        /* \"#utility.yul\":470:533   */\n      tag_54\n      jumpi\n        /* \"#utility.yul\":529:530   */\n      0x00\n        /* \"#utility.yul\":526:527   */\n      0x00\n        /* \"#utility.yul\":519:531   */\n      revert\n        /* \"#utility.yul\":470:533   */\n    tag_54:\n        /* \"#utility.yul\":417:539   */\n      pop\n      jump\t// out\n        /* \"#utility.yul\":545:684   */\n    tag_28:\n        /* \"#utility.yul\":591:596   */\n      0x00\n        /* \"#utility.yul\":629:635   */\n      dup2\n        /* \"#utility.yul\":616:636   */\n      calldataload\n        /* \"#utility.yul\":607:636   */\n      swap1\n      pop\n        /* \"#utility.yul\":645:678   */\n      tag_56\n        /* \"#utility.yul\":672:677   */\n      dup2\n        /* \"#utility.yul\":645:678   */\n      tag_27\n      jump\t// in\n    tag_56:\n        /* \"#utility.yul\":545:684   */\n      swap3\n      swap2\n      pop\n      pop\n      jump\t// out\n        /* \"#utility.yul\":690:816   */\n    tag_29:\n        /* \"#utility.yul\":727:734   */\n      0x00\n        /* \"#utility.yul\":767:809   */\n      0xffffffffffffffffffffffffffffffffffffffff\n        /* \"#utility.yul\":760:765   */\n      dup3\n        /* \"#utility.yul\":756:810   */\n      and\n        /* \"#utility.yul\":745:810   */\n      swap1\n      pop\n        /* \"#utility.yul\":690:816   */\n      swap2\n      swap1\n      pop\n      jump\t// out\n        /* \"#utility.yul\":822:918   */\n    tag_30:\n        /* \"#utility.yul\":859:866   */\n      0x00\n        /* \"#utility.yul\":888:912   */\n      tag_59\n        /* \"#utility.yul\":906:911   */\n      dup3\n        /* \"#utility.yul\":888:912   */\n      tag_29\n      jump\t// in\n    tag_59:\n        /* \"#utility.yul\":877:912   */\n      swap1\n      pop\n        /* \"#utility.yul\":822:918   */\n      swap2\n      swap1\n      pop\n      jump\t// out\n        /* \"#utility.yul\":924:1046   */\n    tag_31:\n        /* \"#utility.yul\":997:1021   */\n      tag_61\n        /* \"#utility.yul\":1015:1020   */\n      dup2\n        /* \"#utility.yul\":997:1021   */\n      tag_30\n      jump\t// in\n    tag_61:\n        /* \"#utility.yul\":990:995   */\n      dup2\n        /* \"#utility.yul\":987:1022   */\n      eq\n        /* \"#utility.yul\":977:1040   */\n      tag_62\n      jumpi\n        /* \"#utility.yul\":1036:1037   */\n      0x00\n        /* \"#utility.yul\":1033:1034   */\n      0x00\n        /* \"#utility.yul\":1026:1038   */\n      revert\n        /* \"#utility.yul\":977:1040   */\n    tag_62:\n        /* \"#utility.yul\":924:1046   */\n      pop\n      jump\t// out\n        /* \"#utility.yul\":1052:1191   */\n    tag_32:\n        /* \"#utility.yul\":1098:1103   */\n      0x00\n        /* \"#utility.yul\":1136:1142   */\n      dup2\n        /* \"#utility.yul\":1123:1143   */\n      calldataload\n        /* \"#utility.yul\":1114:1143   */\n      swap1\n      pop\n        /* \"#utility.yul\":1152:1185   */\n      tag_64\n        /* \"#utility.yul\":1179:1184   */\n      dup2\n        /* \"#utility.yul\":1152:1185   */\n      tag_31\n      jump\t// in\n    tag_64:\n        /* \"#utility.yul\":1052:1191   */\n      swap3\n      swap2\n      pop\n      pop\n      jump\t// out\n        /* \"#utility.yul\":1197:1287   */\n    tag_33:\n        /* \"#utility.yul\":1231:1238   */\n      0x00\n        /* \"#utility.yul\":1274:1279   */\n      dup2\n        /* \"#utility.yul\":1267:1280   */\n      iszero\n        /* \"#utility.yul\":1260:1281   */\n      iszero\n        /* \"#utility.yul\":1249:1281   */\n      swap1\n      pop\n        /* \"#utility.yul\":1197:1287   */\n      swap2\n      swap1\n      pop\n      jump\t// out\n        /* \"#utility.yul\":1293:1409   */\n    tag_34:\n        /* \"#utility.yul\":1363:1384   */\n      tag_67\n        /* \"#utility.yul\":1378:1383   */\n      dup2\n        /* \"#utility.yul\":1363:1384   */\n      tag_33\n      jump\t// in\n    tag_67:\n        /* \"#utility.yul\":1356:1361   */\n      dup2\n        /* \"#utility.yul\":1353:1385   */\n      eq\n        /* \"#utility.yul\":1343:1403   */\n      tag_68\n      jumpi\n        /* \"#utility.yul\":1399:1400   */\n      0x00\n        /* \"#utility.yul\":1396:1397   */\n      0x00\n        /* \"#utility.yul\":1389:1401   */\n      revert\n        /* \"#utility.yul\":1343:1403   */\n    tag_68:\n        /* \"#utility.yul\":1293:1409   */\n      pop\n      jump\t// out\n        /* \"#utility.yul\":1415:1548   */\n    tag_35:\n        /* \"#utility.yul\":1458:1463   */\n      0x00\n        /* \"#utility.yul\":1496:1502   */\n      dup2\n        /* \"#utility.yul\":1483:1503   */\n      calldataload\n        /* \"#utility.yul\":1474:1503   */\n      swap1\n      pop\n        /* \"#utility.yul\":1512:1542   */\n      tag_70\n        /* \"#utility.yul\":1536:1541   */\n      dup2\n        /* \"#utility.yul\":1512:1542   */\n      tag_34\n      jump\t// in\n    tag_70:\n        /* \"#utility.yul\":1415:1548   */\n      swap3\n      swap2\n      pop\n      pop\n      jump\t// out\n        /* \"#utility.yul\":1554:1671   */\n    tag_36:\n        /* \"#utility.yul\":1663:1664   */\n      0x00\n        /* \"#utility.yul\":1660:1661   */\n      0x00\n        /* \"#utility.yul\":1653:1665   */\n      revert\n        /* \"#utility.yul\":1677:1794   */\n    tag_37:\n        /* \"#utility.yul\":1786:1787   */\n      0x00\n        /* \"#utility.yul\":1783:1784   */\n      0x00\n        /* \"#utility.yul\":1776:1788   */\n      revert\n        /* \"#utility.yul\":1800:1902   */\n    tag_38:\n        /* \"#utility.yul\":1841:1847   */\n      0x00\n        /* \"#utility.yul\":1892:1894   */\n      0x1f\n        /* \"#utility.yul\":1888:1895   */\n      not\n        /* \"#utility.yul\":1883:1885   */\n      0x1f\n        /* \"#utility.yul\":1876:1881   */\n      dup4\n        /* \"#utility.yul\":1872:1886   */\n      add\n        /* \"#utility.yul\":1868:1896   */\n      and\n        /* \"#utility.yul\":1858:1896   */\n      swap1\n      pop\n        /* \"#utility.yul\":1800:1902   */\n      swap2\n      swap1\n      pop\n      jump\t// out\n        /* \"#utility.yul\":1908:2088   */\n    tag_39:\n        /* \"#utility.yul\":1956:2033   */\n      0x4e487b7100000000000000000000000000000000000000000000000000000000\n        /* \"#utility.yul\":1953:1954   */\n      0x00\n        /* \"#utility.yul\":1946:2034   */\n      mstore\n        /* \"#utility.yul\":2053:2057   */\n      0x41\n        /* \"#utility.yul\":2050:2051   */\n      0x04\n        /* \"#utility.yul\":2043:2058   */\n      mstore\n        /* \"#utility.yul\":2077:2081   */\n      0x24\n        /* \"#utility.yul\":2074:2075   */\n      0x00\n        /* \"#utility.yul\":2067:2082   */\n      revert\n        /* \"#utility.yul\":2094:2375   */\n    tag_40:\n        /* \"#utility.yul\":2177:2204   */\n      tag_76\n        /* \"#utility.yul\":2199:2203   */\n      dup3\n        /* \"#utility.yul\":2177:2204   */\n      tag_38\n      jump\t// in\n    tag_76:\n        /* \"#utility.yul\":2169:2175   */\n      dup2\n        /* \"#utility.yul\":2165:2205   */\n      add\n        /* \"#utility.yul\":2307:2313   */\n      dup2\n        /* \"#utility.yul\":2295:2305   */\n      dup2\n        /* \"#utility.yul\":2292:2314   */\n      lt\n        /* \"#utility.yul\":2271:2289   */\n      0xffffffffffffffff\n        /* \"#utility.yul\":2259:2269   */\n      dup3\n        /* \"#utility.yul\":2256:2290   */\n      gt\n        /* \"#utility.yul\":2253:2315   */\n      or\n        /* \"#utility.yul\":2250:2338   */\n      iszero\n      tag_77\n      jumpi\n        /* \"#utility.yul\":2318:2336   */\n      tag_78\n      tag_39\n      jump\t// in\n    tag_78:\n        /* \"#utility.yul\":2250:2338   */\n    tag_77:\n        /* \"#utility.yul\":2358:2368   */\n      dup1\n        /* \"#utility.yul\":2354:2356   */\n      0x40\n        /* \"#utility.yul\":2347:2369   */\n      mstore\n        /* \"#utility.yul\":2137:2375   */\n      pop\n        /* \"#utility.yul\":2094:2375   */\n      pop\n      pop\n      jump\t// out\n        /* \"#utility.yul\":2381:2510   */\n    tag_41:\n        /* \"#utility.yul\":2415:2421   */\n      0x00\n        /* \"#utility.yul\":2442:2462   */\n      tag_80\n      tag_23\n      jump\t// in\n    tag_80:\n        /* \"#utility.yul\":2432:2462   */\n      swap1\n      pop\n        /* \"#utility.yul\":2471:2504   */\n      tag_81\n        /* \"#utility.yul\":2499:2503   */\n      dup3\n        /* \"#utility.yul\":2491:2497   */\n      dup3\n        /* \"#utility.yul\":2471:2504   */\n      tag_40\n      jump\t// in\n    tag_81:\n        /* \"#utility.yul\":2381:2510   */\n      swap2\n      swap1\n      pop\n      jump\t// out\n        /* \"#utility.yul\":2516:2824   */\n    tag_42:\n        /* \"#utility.yul\":2578:2582   */\n      0x00\n        /* \"#utility.yul\":2668:2686   */\n      0xffffffffffffffff\n        /* \"#utility.yul\":2660:2666   */\n      dup3\n        /* \"#utility.yul\":2657:2687   */\n      gt\n        /* \"#utility.yul\":2654:2710   */\n      iszero\n      tag_83\n      jumpi\n        /* \"#utility.yul\":2690:2708   */\n      tag_84\n      tag_39\n      jump\t// in\n    tag_84:\n        /* \"#utility.yul\":2654:2710   */\n    tag_83:\n        /* \"#utility.yul\":2728:2757   */\n      tag_85\n        /* \"#utility.yul\":2750:2756   */\n      dup3\n        /* \"#utility.yul\":2728:2757   */\n      tag_38\n      jump\t// in\n    tag_85:\n        /* \"#utility.yul\":2720:2757   */\n      swap1\n      pop\n        /* \"#utility.yul\":2812:2816   */\n      0x20\n        /* \"#utility.yul\":2806:2810   */\n      dup2\n        /* \"#utility.yul\":2802:2817   */\n      add\n        /* \"#utility.yul\":2794:2817   */\n      swap1\n      pop\n        /* \"#utility.yul\":2516:2824   */\n      swap2\n      swap1\n      pop\n      jump\t// out\n        /* \"#utility.yul\":2830:2978   */\n    tag_43:\n        /* \"#utility.yul\":2928:2934   */\n      dup3\n        /* \"#utility.yul\":2923:2926   */\n      dup2\n        /* \"#utility.yul\":2918:2921   */\n      dup4\n        /* \"#utility.yul\":2905:2935   */\n      calldatacopy\n        /* \"#utility.yul\":2969:2970   */\n      0x00\n        /* \"#utility.yul\":2960:2966   */\n      dup4\n        /* \"#utility.yul\":2955:2958   */\n      dup4\n        /* \"#utility.yul\":2951:2967   */\n      add\n        /* \"#utility.yul\":2944:2971   */\n      mstore\n        /* \"#utility.yul\":2830:2978   */\n      pop\n      pop\n      pop\n      jump\t// out\n        /* \"#utility.yul\":2984:3409   */\n    tag_44:\n        /* \"#utility.yul\":3062:3067   */\n      0x00\n        /* \"#utility.yul\":3087:3153   */\n      tag_88\n        /* \"#utility.yul\":3103:3152   */\n      tag_89\n        /* \"#utility.yul\":3145:3151   */\n      dup5\n        /* \"#utility.yul\":3103:3152   */\n      tag_42\n      jump\t// in\n    tag_89:\n        /* \"#utility.yul\":3087:3153   */\n      tag_41\n      jump\t// in\n    tag_88:\n        /* \"#utility.yul\":3078:3153   */\n      swap1\n      pop\n        /* \"#utility.yul\":3176:3182   */\n      dup3\n        /* \"#utility.yul\":3169:3174   */\n      dup2\n        /* \"#utility.yul\":3162:3183   */\n      mstore\n        /* \"#utility.yul\":3214:3218   */\n      0x20\n        /* \"#utility.yul\":3207:3212   */\n      dup2\n        /* \"#utility.yul\":3203:3219   */\n      add\n        /* \"#utility.yul\":3252:3255   */\n      dup5\n        /* \"#utility.yul\":3243:3249   */\n      dup5\n        /* \"#utility.yul\":3238:3241   */\n      dup5\n        /* \"#utility.yul\":3234:3250   */\n      add\n        /* \"#utility.yul\":3231:3256   */\n      gt\n        /* \"#utility.yul\":3228:3340   */\n      iszero\n      tag_90\n      jumpi\n        /* \"#utility.yul\":3259:3338   */\n      tag_91\n      tag_37\n      jump\t// in\n    tag_91:\n        /* \"#utility.yul\":3228:3340   */\n    tag_90:\n        /* \"#utility.yul\":3349:3403   */\n      tag_92\n        /* \"#utility.yul\":3396:3402   */\n      dup5\n        /* \"#utility.yul\":3391:3394   */\n      dup3\n        /* \"#utility.yul\":3386:3389   */\n      dup6\n        /* \"#utility.yul\":3349:3403   */\n      tag_43\n      jump\t// in\n    tag_92:\n        /* \"#utility.yul\":3068:3409   */\n      pop\n        /* \"#utility.yul\":2984:3409   */\n      swap4\n      swap3\n      pop\n      pop\n      pop\n      jump\t// out\n        /* \"#utility.yul\":3429:3769   */\n    tag_45:\n        /* \"#utility.yul\":3485:3490   */\n      0x00\n        /* \"#utility.yul\":3534:3537   */\n      dup3\n        /* \"#utility.yul\":3527:3531   */\n      0x1f\n        /* \"#utility.yul\":3519:3525   */\n      dup4\n        /* \"#utility.yul\":3515:3532   */\n      add\n        /* \"#utility.yul\":3511:3538   */\n      slt\n        /* \"#utility.yul\":3501:3623   */\n      tag_94\n      jumpi\n        /* \"#utility.yul\":3542:3621   */\n      tag_95\n      tag_36\n      jump\t// in\n    tag_95:\n        /* \"#utility.yul\":3501:3623   */\n    tag_94:\n        /* \"#utility.yul\":3659:3665   */\n      dup2\n        /* \"#utility.yul\":3646:3666   */\n      calldataload\n        /* \"#utility.yul\":3684:3763   */\n      tag_96\n        /* \"#utility.yul\":3759:3762   */\n      dup5\n        /* \"#utility.yul\":3751:3757   */\n      dup3\n        /* \"#utility.yul\":3744:3748   */\n      0x20\n        /* \"#utility.yul\":3736:3742   */\n      dup7\n        /* \"#utility.yul\":3732:3749   */\n      add\n        /* \"#utility.yul\":3684:3763   */\n      tag_44\n      jump\t// in\n    tag_96:\n        /* \"#utility.yul\":3675:3763   */\n      swap2\n      pop\n        /* \"#utility.yul\":3491:3769   */\n      pop\n        /* \"#utility.yul\":3429:3769   */\n      swap3\n      swap2\n      pop\n      pop\n      jump\t// out\n        /* \"#utility.yul\":3775:5006   */\n    tag_8:\n        /* \"#utility.yul\":3886:3892   */\n      0x00\n        /* \"#utility.yul\":3894:3900   */\n      0x00\n        /* \"#utility.yul\":3902:3908   */\n      0x00\n        /* \"#utility.yul\":3910:3916   */\n      0x00\n        /* \"#utility.yul\":3918:3924   */\n      0x00\n        /* \"#utility.yul\":3926:3932   */\n      0x00\n        /* \"#utility.yul\":3975:3978   */\n      0xc0\n        /* \"#utility.yul\":3963:3972   */\n      dup8\n        /* \"#utility.yul\":3954:3961   */\n      dup10\n        /* \"#utility.yul\":3950:3973   */\n      sub\n        /* \"#utility.yul\":3946:3979   */\n      slt\n        /* \"#utility.yul\":3943:4063   */\n      iszero\n      tag_98\n      jumpi\n        /* \"#utility.yul\":3982:4061   */\n      tag_99\n      tag_24\n      jump\t// in\n    tag_99:\n        /* \"#utility.yul\":3943:4063   */\n    tag_98:\n        /* \"#utility.yul\":4102:4103   */\n      0x00\n        /* \"#utility.yul\":4127:4180   */\n      tag_100\n        /* \"#utility.yul\":4172:4179   */\n      dup10\n        /* \"#utility.yul\":4163:4169   */\n      dup3\n        /* \"#utility.yul\":4152:4161   */\n      dup11\n        /* \"#utility.yul\":4148:4170   */\n      add\n        /* \"#utility.yul\":4127:4180   */\n      tag_28\n      jump\t// in\n    tag_100:\n        /* \"#utility.yul\":4117:4180   */\n      swap7\n      pop\n        /* \"#utility.yul\":4073:4190   */\n      pop\n        /* \"#utility.yul\":4229:4231   */\n      0x20\n        /* \"#utility.yul\":4255:4308   */\n      tag_101\n        /* \"#utility.yul\":4300:4307   */\n      dup10\n        /* \"#utility.yul\":4291:4297   */\n      dup3\n        /* \"#utility.yul\":4280:4289   */\n      dup11\n        /* \"#utility.yul\":4276:4298   */\n      add\n        /* \"#utility.yul\":4255:4308   */\n      tag_28\n      jump\t// in\n    tag_101:\n        /* \"#utility.yul\":4245:4308   */\n      swap6\n      pop\n        /* \"#utility.yul\":4200:4318   */\n      pop\n        /* \"#utility.yul\":4357:4359   */\n      0x40\n        /* \"#utility.yul\":4383:4436   */\n      tag_102\n        /* \"#utility.yul\":4428:4435   */\n      dup10\n        /* \"#utility.yul\":4419:4425   */\n      dup3\n        /* \"#utility.yul\":4408:4417   */\n      dup11\n        /* \"#utility.yul\":4404:4426   */\n      add\n        /* \"#utility.yul\":4383:4436   */\n      tag_28\n      jump\t// in\n    tag_102:\n        /* \"#utility.yul\":4373:4436   */\n      swap5\n      pop\n        /* \"#utility.yul\":4328:4446   */\n      pop\n        /* \"#utility.yul\":4485:4487   */\n      0x60\n        /* \"#utility.yul\":4511:4564   */\n      tag_103\n        /* \"#utility.yul\":4556:4563   */\n      dup10\n        /* \"#utility.yul\":4547:4553   */\n      dup3\n        /* \"#utility.yul\":4536:4545   */\n      dup11\n        /* \"#utility.yul\":4532:4554   */\n      add\n        /* \"#utility.yul\":4511:4564   */\n      tag_32\n      jump\t// in\n    tag_103:\n        /* \"#utility.yul\":4501:4564   */\n      swap4\n      pop\n        /* \"#utility.yul\":4456:4574   */\n      pop\n        /* \"#utility.yul\":4613:4616   */\n      0x80\n        /* \"#utility.yul\":4640:4690   */\n      tag_104\n        /* \"#utility.yul\":4682:4689   */\n      dup10\n        /* \"#utility.yul\":4673:4679   */\n      dup3\n        /* \"#utility.yul\":4662:4671   */\n      dup11\n        /* \"#utility.yul\":4658:4680   */\n      add\n        /* \"#utility.yul\":4640:4690   */\n      tag_35\n      jump\t// in\n    tag_104:\n        /* \"#utility.yul\":4630:4690   */\n      swap3\n      pop\n        /* \"#utility.yul\":4584:4700   */\n      pop\n        /* \"#utility.yul\":4767:4770   */\n      0xa0\n        /* \"#utility.yul\":4756:4765   */\n      dup8\n        /* \"#utility.yul\":4752:4771   */\n      add\n        /* \"#utility.yul\":4739:4772   */\n      calldataload\n        /* \"#utility.yul\":4799:4817   */\n      0xffffffffffffffff\n        /* \"#utility.yul\":4791:4797   */\n      dup2\n        /* \"#utility.yul\":4788:4818   */\n      gt\n        /* \"#utility.yul\":4785:4902   */\n      iszero\n      tag_105\n      jumpi\n        /* \"#utility.yul\":4821:4900   */\n      tag_106\n      tag_25\n      jump\t// in\n    tag_106:\n        /* \"#utility.yul\":4785:4902   */\n    tag_105:\n        /* \"#utility.yul\":4926:4989   */\n      tag_107\n        /* \"#utility.yul\":4981:4988   */\n      dup10\n        /* \"#utility.yul\":4972:4978   */\n      dup3\n        /* \"#utility.yul\":4961:4970   */\n      dup11\n        /* \"#utility.yul\":4957:4979   */\n      add\n        /* \"#utility.yul\":4926:4989   */\n      tag_45\n      jump\t// in\n    tag_107:\n        /* \"#utility.yul\":4916:4989   */\n      swap2\n      pop\n        /* \"#utility.yul\":4710:4999   */\n      pop\n        /* \"#utility.yul\":3775:5006   */\n      swap3\n      swap6\n      pop\n      swap3\n      swap6\n      pop\n      swap3\n      swap6\n      jump\t// out\n        /* \"#utility.yul\":5012:5130   */\n    tag_46:\n        /* \"#utility.yul\":5099:5123   */\n      tag_109\n        /* \"#utility.yul\":5117:5122   */\n      dup2\n        /* \"#utility.yul\":5099:5123   */\n      tag_26\n      jump\t// in\n    tag_109:\n        /* \"#utility.yul\":5094:5097   */\n      dup3\n        /* \"#utility.yul\":5087:5124   */\n      mstore\n        /* \"#utility.yul\":5012:5130   */\n      pop\n      pop\n      jump\t// out\n        /* \"#utility.yul\":5136:5358   */\n    tag_11:\n        /* \"#utility.yul\":5229:5233   */\n      0x00\n        /* \"#utility.yul\":5267:5269   */\n      0x20\n        /* \"#utility.yul\":5256:5265   */\n      dup3\n        /* \"#utility.yul\":5252:5270   */\n      add\n        /* \"#utility.yul\":5244:5270   */\n      swap1\n      pop\n        /* \"#utility.yul\":5280:5351   */\n      tag_111\n        /* \"#utility.yul\":5348:5349   */\n      0x00\n        /* \"#utility.yul\":5337:5346   */\n      dup4\n        /* \"#utility.yul\":5333:5350   */\n      add\n        /* \"#utility.yul\":5324:5330   */\n      dup5\n        /* \"#utility.yul\":5280:5351   */\n      tag_46\n      jump\t// in\n    tag_111:\n        /* \"#utility.yul\":5136:5358   */\n      swap3\n      swap2\n      pop\n      pop\n      jump\t// out\n\n    auxdata: 0xa26469706673582212205c8f0532c7629a1b018c1d55f58118dddbfb435eb2b31be5b8ce8c34c08dc3a364736f6c634300081f0033\n}\n",
				"bytecode": {
					"linkReferences": {},
					"object": "6080604052348015600e575f5ffd5b506104658061001c5f395ff3fe608060405234801561000f575f5ffd5b506004361061003f575f3560e01c8063127b4e08146100435780639a7846b914610073578063e9d47c4a14610091575b5f5ffd5b61005d60048036038101906100589190610362565b6100af565b60405161006a9190610416565b60405180910390f35b61007b6100ba565b6040516100889190610416565b60405180910390f35b610099610107565b6040516100a69190610416565b60405180910390f35b5f9695505050505050565b5f6101026001600260035f60016040518060400160405280600e81526020017f5468697320697320737472696e670000000000000000000000000000000000008152506100af565b905090565b5f61014e6001600260035f5f6040518060400160405280600e81526020017f5468697320697320737472696e670000000000000000000000000000000000008152506100af565b905090565b5f604051905090565b5f5ffd5b5f5ffd5b5f819050919050565b61017681610164565b8114610180575f5ffd5b50565b5f813590506101918161016d565b92915050565b5f73ffffffffffffffffffffffffffffffffffffffff82169050919050565b5f6101c082610197565b9050919050565b6101d0816101b6565b81146101da575f5ffd5b50565b5f813590506101eb816101c7565b92915050565b5f8115159050919050565b610205816101f1565b811461020f575f5ffd5b50565b5f81359050610220816101fc565b92915050565b5f5ffd5b5f5ffd5b5f601f19601f8301169050919050565b7f4e487b71000000000000000000000000000000000000000000000000000000005f52604160045260245ffd5b6102748261022e565b810181811067ffffffffffffffff821117156102935761029261023e565b5b80604052505050565b5f6102a5610153565b90506102b1828261026b565b919050565b5f67ffffffffffffffff8211156102d0576102cf61023e565b5b6102d98261022e565b9050602081019050919050565b828183375f83830152505050565b5f610306610301846102b6565b61029c565b9050828152602081018484840111156103225761032161022a565b5b61032d8482856102e6565b509392505050565b5f82601f83011261034957610348610226565b5b81356103598482602086016102f4565b91505092915050565b5f5f5f5f5f5f60c0878903121561037c5761037b61015c565b5b5f61038989828a01610183565b965050602061039a89828a01610183565b95505060406103ab89828a01610183565b94505060606103bc89828a016101dd565b93505060806103cd89828a01610212565b92505060a087013567ffffffffffffffff8111156103ee576103ed610160565b5b6103fa89828a01610335565b9150509295509295509295565b61041081610164565b82525050565b5f6020820190506104295f830184610407565b9291505056fea26469706673582212205c8f0532c7629a1b018c1d55f58118dddbfb435eb2b31be5b8ce8c34c08dc3a364736f6c634300081f0033",
					"opcodes": "PUSH1 0x80 PUSH1 0x40 MSTORE CALLVALUE DUP1 ISZERO PUSH1 0xE JUMPI PUSH0 PUSH0 REVERT JUMPDEST POP PUSH2 0x465 DUP1 PUSH2 0x1C PUSH0 CODECOPY PUSH0 RETURN INVALID PUSH1 0x80 PUSH1 0x40 MSTORE CALLVALUE DUP1 ISZERO PUSH2 0xF JUMPI PUSH0 PUSH0 REVERT JUMPDEST POP PUSH1 0x4 CALLDATASIZE LT PUSH2 0x3F JUMPI PUSH0 CALLDATALOAD PUSH1 0xE0 SHR DUP1 PUSH4 0x127B4E08 EQ PUSH2 0x43 JUMPI DUP1 PUSH4 0x9A7846B9 EQ PUSH2 0x73 JUMPI DUP1 PUSH4 0xE9D47C4A EQ PUSH2 0x91 JUMPI JUMPDEST PUSH0 PUSH0 REVERT JUMPDEST PUSH2 0x5D PUSH1 0x4 DUP1 CALLDATASIZE SUB DUP2 ADD SWAP1 PUSH2 0x58 SWAP2 SWAP1 PUSH2 0x362 JUMP JUMPDEST PUSH2 0xAF JUMP JUMPDEST PUSH1 0x40 MLOAD PUSH2 0x6A SWAP2 SWAP1 PUSH2 0x416 JUMP JUMPDEST PUSH1 0x40 MLOAD DUP1 SWAP2 SUB SWAP1 RETURN JUMPDEST PUSH2 0x7B PUSH2 0xBA JUMP JUMPDEST PUSH1 0x40 MLOAD PUSH2 0x88 SWAP2 SWAP1 PUSH2 0x416 JUMP JUMPDEST PUSH1 0x40 MLOAD DUP1 SWAP2 SUB SWAP1 RETURN JUMPDEST PUSH2 0x99 PUSH2 0x107 JUMP JUMPDEST PUSH1 0x40 MLOAD PUSH2 0xA6 SWAP2 SWAP1 PUSH2 0x416 JUMP JUMPDEST PUSH1 0x40 MLOAD DUP1 SWAP2 SUB SWAP1 RETURN JUMPDEST PUSH0 SWAP7 SWAP6 POP POP POP POP POP POP JUMP JUMPDEST PUSH0 PUSH2 0x102 PUSH1 0x1 PUSH1 0x2 PUSH1 0x3 PUSH0 PUSH1 0x1 PUSH1 0x40 MLOAD DUP1 PUSH1 0x40 ADD PUSH1 0x40 MSTORE DUP1 PUSH1 0xE DUP2 MSTORE PUSH1 0x20 ADD PUSH32 0x5468697320697320737472696E67000000000000000000000000000000000000 DUP2 MSTORE POP PUSH2 0xAF JUMP JUMPDEST SWAP1 POP SWAP1 JUMP JUMPDEST PUSH0 PUSH2 0x14E PUSH1 0x1 PUSH1 0x2 PUSH1 0x3 PUSH0 PUSH0 PUSH1 0x40 MLOAD DUP1 PUSH1 0x40 ADD PUSH1 0x40 MSTORE DUP1 PUSH1 0xE DUP2 MSTORE PUSH1 0x20 ADD PUSH32 0x5468697320697320737472696E67000000000000000000000000000000000000 DUP2 MSTORE POP PUSH2 0xAF JUMP JUMPDEST SWAP1 POP SWAP1 JUMP JUMPDEST PUSH0 PUSH1 0x40 MLOAD SWAP1 POP SWAP1 JUMP JUMPDEST PUSH0 PUSH0 REVERT JUMPDEST PUSH0 PUSH0 REVERT JUMPDEST PUSH0 DUP2 SWAP1 POP SWAP2 SWAP1 POP JUMP JUMPDEST PUSH2 0x176 DUP2 PUSH2 0x164 JUMP JUMPDEST DUP2 EQ PUSH2 0x180 JUMPI PUSH0 PUSH0 REVERT JUMPDEST POP JUMP JUMPDEST PUSH0 DUP2 CALLDATALOAD SWAP1 POP PUSH2 0x191 DUP2 PUSH2 0x16D JUMP JUMPDEST SWAP3 SWAP2 POP POP JUMP JUMPDEST PUSH0 PUSH20 0xFFFFFFFFFFFFFFFFFFFFFFFFFFFFFFFFFFFFFFFF DUP3 AND SWAP1 POP SWAP2 SWAP1 POP JUMP JUMPDEST PUSH0 PUSH2 0x1C0 DUP3 PUSH2 0x197 JUMP JUMPDEST SWAP1 POP SWAP2 SWAP1 POP JUMP JUMPDEST PUSH2 0x1D0 DUP2 PUSH2 0x1B6 JUMP JUMPDEST DUP2 EQ PUSH2 0x1DA JUMPI PUSH0 PUSH0 REVERT JUMPDEST POP JUMP JUMPDEST PUSH0 DUP2 CALLDATALOAD SWAP1 POP PUSH2 0x1EB DUP2 PUSH2 0x1C7 JUMP JUMPDEST SWAP3 SWAP2 POP POP JUMP JUMPDEST PUSH0 DUP2 ISZERO ISZERO SWAP1 POP SWAP2 SWAP1 POP JUMP JUMPDEST PUSH2 0x205 DUP2 PUSH2 0x1F1 JUMP JUMPDEST DUP2 EQ PUSH2 0x20F JUMPI PUSH0 PUSH0 REVERT JUMPDEST POP JUMP JUMPDEST PUSH0 DUP2 CALLDATALOAD SWAP1 POP PUSH2 0x220 DUP2 PUSH2 0x1FC JUMP JUMPDEST SWAP3 SWAP2 POP POP JUMP JUMPDEST PUSH0 PUSH0 REVERT JUMPDEST PUSH0 PUSH0 REVERT JUMPDEST PUSH0 PUSH1 0x1F NOT PUSH1 0x1F DUP4 ADD AND SWAP1 POP SWAP2 SWAP1 POP JUMP JUMPDEST PUSH32 0x4E487B7100000000000000000000000000000000000000000000000000000000 PUSH0 MSTORE PUSH1 0x41 PUSH1 0x4 MSTORE PUSH1 0x24 PUSH0 REVERT JUMPDEST PUSH2 0x274 DUP3 PUSH2 0x22E JUMP JUMPDEST DUP2 ADD DUP2 DUP2 LT PUSH8 0xFFFFFFFFFFFFFFFF DUP3 GT OR ISZERO PUSH2 0x293 JUMPI PUSH2 0x292 PUSH2 0x23E JUMP JUMPDEST JUMPDEST DUP1 PUSH1 0x40 MSTORE POP POP POP JUMP JUMPDEST PUSH0 PUSH2 0x2A5 PUSH2 0x153 JUMP JUMPDEST SWAP1 POP PUSH2 0x2B1 DUP3 DUP3 PUSH2 0x26B JUMP JUMPDEST SWAP2 SWAP1 POP JUMP JUMPDEST PUSH0 PUSH8 0xFFFFFFFFFFFFFFFF DUP3 GT ISZERO PUSH2 0x2D0 JUMPI PUSH2 0x2CF PUSH2 0x23E JUMP JUMPDEST JUMPDEST PUSH2 0x2D9 DUP3 PUSH2 0x22E JUMP JUMPDEST SWAP1 POP PUSH1 0x20 DUP2 ADD SWAP1 POP SWAP2 SWAP1 POP JUMP JUMPDEST DUP3 DUP2 DUP4 CALLDATACOPY PUSH0 DUP4 DUP4 ADD MSTORE POP POP POP JUMP JUMPDEST PUSH0 PUSH2 0x306 PUSH2 0x301 DUP5 PUSH2 0x2B6 JUMP JUMPDEST PUSH2 0x29C JUMP JUMPDEST SWAP1 POP DUP3 DUP2 MSTORE PUSH1 0x20 DUP2 ADD DUP5 DUP5 DUP5 ADD GT ISZERO PUSH2 0x322 JUMPI PUSH2 0x321 PUSH2 0x22A JUMP JUMPDEST JUMPDEST PUSH2 0x32D DUP5 DUP3 DUP6 PUSH2 0x2E6 JUMP JUMPDEST POP SWAP4 SWAP3 POP POP POP JUMP JUMPDEST PUSH0 DUP3 PUSH1 0x1F DUP4 ADD SLT PUSH2 0x349 JUMPI PUSH2 0x348 PUSH2 0x226 JUMP JUMPDEST JUMPDEST DUP2 CALLDATALOAD PUSH2 0x359 DUP5 DUP3 PUSH1 0x20 DUP7 ADD PUSH2 0x2F4 JUMP JUMPDEST SWAP2 POP POP SWAP3 SWAP2 POP POP JUMP JUMPDEST PUSH0 PUSH0 PUSH0 PUSH0 PUSH0 PUSH0 PUSH1 0xC0 DUP8 DUP10 SUB SLT ISZERO PUSH2 0x37C JUMPI PUSH2 0x37B PUSH2 0x15C JUMP JUMPDEST JUMPDEST PUSH0 PUSH2 0x389 DUP10 DUP3 DUP11 ADD PUSH2 0x183 JUMP JUMPDEST SWAP7 POP POP PUSH1 0x20 PUSH2 0x39A DUP10 DUP3 DUP11 ADD PUSH2 0x183 JUMP JUMPDEST SWAP6 POP POP PUSH1 0x40 PUSH2 0x3AB DUP10 DUP3 DUP11 ADD PUSH2 0x183 JUMP JUMPDEST SWAP5 POP POP PUSH1 0x60 PUSH2 0x3BC DUP10 DUP3 DUP11 ADD PUSH2 0x1DD JUMP JUMPDEST SWAP4 POP POP PUSH1 0x80 PUSH2 0x3CD DUP10 DUP3 DUP11 ADD PUSH2 0x212 JUMP JUMPDEST SWAP3 POP POP PUSH1 0xA0 DUP8 ADD CALLDATALOAD PUSH8 0xFFFFFFFFFFFFFFFF DUP2 GT ISZERO PUSH2 0x3EE JUMPI PUSH2 0x3ED PUSH2 0x160 JUMP JUMPDEST JUMPDEST PUSH2 0x3FA DUP10 DUP3 DUP11 ADD PUSH2 0x335 JUMP JUMPDEST SWAP2 POP POP SWAP3 SWAP6 POP SWAP3 SWAP6 POP SWAP3 SWAP6 JUMP JUMPDEST PUSH2 0x410 DUP2 PUSH2 0x164 JUMP JUMPDEST DUP3 MSTORE POP POP JUMP JUMPDEST PUSH0 PUSH1 0x20 DUP3 ADD SWAP1 POP PUSH2 0x429 PUSH0 DUP4 ADD DUP5 PUSH2 0x407 JUMP JUMPDEST SWAP3 SWAP2 POP POP JUMP INVALID LOG2 PUSH5 0x6970667358 0x22 SLT KECCAK256 TLOAD DUP16 SDIV ORIGIN 0xC7 PUSH3 0x9A1B01 DUP13 SAR SSTORE CREATE2 DUP2 XOR 0xDD 0xDB EXTSTATICCALL NUMBER MCOPY 0xB2 0xB3 SHL JUMPF 0xB8CE DUP13 CALLVALUE 0xC0 DUP14 0xC3 LOG3 PUSH5 0x736F6C6343 STOP ADDMOD 0x1F STOP CALLER "
				},
				"gasEstimates": {
					"creation": {
						"codeDepositCost": "225000",
						"executionCost": "267",
						"totalCost": "225267"
					},
					"external": {
						"callFunc()": "443",
						"callFunctionWithKeyValue()": "464",
						"someFuncWithManyInputs(uint256,uint256,uint256,address,bool,string)": "infinite"
					}
				},
				"methodIdentifiers": {
					"callFunc()": "9a7846b9",
					"callFunctionWithKeyValue()": "e9d47c4a",
					"someFuncWithManyInputs(uint256,uint256,uint256,address,bool,string)": "127b4e08"
				}
			},
			"storageLayout": {
				"storage": [],
				"types": null
			},
			"userdoc": {
				"kind": "user",
				"methods": {},
				"version": 1
			}
		}
	}
}