{
	"MarketplaceEscrowSystem/AccessManager.sol": {
		"AccessManager": {
			"abi": [
				{
					"inputs": [],
					"stateMutability": "nonpayable",
					"type": "constructor"
				},
				{
					"inputs": [],
					"name": "Unauthorized",
					"type": "error"
				},
				{
					"inputs": [],
					"name": "ZeroAddress",
					"type": "error"
				},
				{
					"anonymous": false,
					"inputs": [
						{
							"indexed": true,
							"internalType": "address",
							"name": "account",
							"type": "address"
						},
						{
							"indexed": true,
							"internalType": "uint8",
							"name": "role",
							"type": "uint8"
						}
					],
					"name": "RoleGranted",
					"type": "event"
				},
				{
					"anonymous": false,
					"inputs": [
						{
							"indexed": true,
							"internalType": "address",
							"name": "account",
							"type": "address"
						},
						{
							"indexed": true,
							"internalType": "uint8",
							"name": "role",
							"type": "uint8"
						}
					],
					"name": "RoleRevoked",
					"type": "event"
				},
				{
					"inputs": [],
					"name": "ADMIN",
					"outputs": [
						{
							"internalType": "uint8",
							"name": "",
							"type": "uint8"
						}
					],
					"stateMutability": "view",
					"type": "function"
				},
				{
					"inputs": [],
					"name": "MEDIATOR",
					"outputs": [
						{
							"internalType": "uint8",
							"name": "",
							"type": "uint8"
						}
					],
					"stateMutability": "view",
					"type": "function"
				},
				{
					"inputs": [],
					"name": "SELLER",
					"outputs": [
						{
							"internalType": "uint8",
							"name": "",
							"type": "uint8"
						}
					],
					"stateMutability": "view",
					"type": "function"
				},
				{
					"inputs": [
						{
							"internalType": "address",
							"name": "account",
							"type": "address"
						},
						{
							"internalType": "uint8",
							"name": "role",
							"type": "uint8"
						}
					],
					"name": "grantRole",
					"outputs": [],
					"stateMutability": "nonpayable",
					"type": "function"
				},
				{
					"inputs": [
						{
							"internalType": "address",
							"name": "account",
							"type": "address"
						},
						{
							"internalType": "uint8",
							"name": "role",
							"type": "uint8"
						}
					],
					"name": "hasRole",
					"outputs": [
						{
							"internalType": "bool",
							"name": "",
							"type": "bool"
						}
					],
					"stateMutability": "view",
					"type": "function"
				},
				{
					"inputs": [
						{
							"internalType": "address",
							"name": "account",
							"type": "address"
						},
						{
							"internalType": "uint8",
							"name": "role",
							"type": "uint8"
						}
					],
					"name": "revokeRole",
					"outputs": [],
					"stateMutability": "nonpayable",
					"type": "function"
				}
			],
			"devdoc": {
				"kind": "dev",
				"methods": {},
				"version": 1
			},
			"evm": {
				"assembly": "    /* \"MarketplaceEscrowSystem/AccessManager.sol\":58:1316  contract AccessManager {... */\n  mstore(0x40, 0x80)\n    /* \"MarketplaceEscrowSystem/AccessManager.sol\":462:522  constructor() {... */\n  callvalue\n  dup1\n  iszero\n  tag_1\n  jumpi\n  revert(0x00, 0x00)\ntag_1:\n  pop\n    /* \"MarketplaceEscrowSystem/AccessManager.sol\":486:515  _grantRole(msg.sender, ADMIN) */\n  tag_4\n    /* \"MarketplaceEscrowSystem/AccessManager.sol\":497:507  msg.sender */\n  caller\n    /* \"MarketplaceEscrowSystem/AccessManager.sol\":121:122  1 */\n  0x01\n    /* \"MarketplaceEscrowSystem/AccessManager.sol\":486:496  _grantRole */\n  shl(0x20, tag_5)\n    /* \"MarketplaceEscrowSystem/AccessManager.sol\":486:515  _grantRole(msg.sender, ADMIN) */\n  0x20\n  shr\n  jump\t// in\ntag_4:\n    /* \"MarketplaceEscrowSystem/AccessManager.sol\":58:1316  contract AccessManager {... */\n  jump(tag_6)\n    /* \"MarketplaceEscrowSystem/AccessManager.sol\":1170:1314  function _grantRole(address account, uint8 role) internal {... */\ntag_5:\n    /* \"MarketplaceEscrowSystem/AccessManager.sol\":1262:1266  true */\n  0x01\n    /* \"MarketplaceEscrowSystem/AccessManager.sol\":1238:1244  _roles */\n  0x00\n    /* \"MarketplaceEscrowSystem/AccessManager.sol\":1238:1253  _roles[account] */\n  0x00\n    /* \"MarketplaceEscrowSystem/AccessManager.sol\":1245:1252  account */\n  dup5\n    /* \"MarketplaceEscrowSystem/AccessManager.sol\":1238:1253  _roles[account] */\n  0xffffffffffffffffffffffffffffffffffffffff\n  and\n  0xffffffffffffffffffffffffffffffffffffffff\n  and\n  dup2\n  mstore\n  0x20\n  add\n  swap1\n  dup2\n  mstore\n  0x20\n  add\n  0x00\n  keccak256\n    /* \"MarketplaceEscrowSystem/AccessManager.sol\":1238:1259  _roles[account][role] */\n  0x00\n    /* \"MarketplaceEscrowSystem/AccessManager.sol\":1254:1258  role */\n  dup4\n    /* \"MarketplaceEscrowSystem/AccessManager.sol\":1238:1259  _roles[account][role] */\n  0xff\n  and\n  0xff\n  and\n  dup2\n  mstore\n  0x20\n  add\n  swap1\n  dup2\n  mstore\n  0x20\n  add\n  0x00\n  keccak256\n  0x00\n    /* \"MarketplaceEscrowSystem/AccessManager.sol\":1238:1266  _roles[account][role] = true */\n  0x0100\n  exp\n  dup2\n  sload\n  dup2\n  0xff\n  mul\n  not\n  and\n  swap1\n  dup4\n  iszero\n  iszero\n  mul\n  or\n  swap1\n  sstore\n  pop\n    /* \"MarketplaceEscrowSystem/AccessManager.sol\":1302:1306  role */\n  dup1\n    /* \"MarketplaceEscrowSystem/AccessManager.sol\":1281:1307  RoleGranted(account, role) */\n  0xff\n  and\n    /* \"MarketplaceEscrowSystem/AccessManager.sol\":1293:1300  account */\n  dup3\n    /* \"MarketplaceEscrowSystem/AccessManager.sol\":1281:1307  RoleGranted(account, role) */\n  0xffffffffffffffffffffffffffffffffffffffff\n  and\n  0xaa259565575c834bc07e74dca784b4071676133ac78513b431afb6ee7edae121\n  mload(0x40)\n  mload(0x40)\n  dup1\n  swap2\n  sub\n  swap1\n  log3\n    /* \"MarketplaceEscrowSystem/AccessManager.sol\":1170:1314  function _grantRole(address account, uint8 role) internal {... */\n  pop\n  pop\n  jump\t// out\n    /* \"MarketplaceEscrowSystem/AccessManager.sol\":58:1316  contract AccessManager {... */\ntag_6:\n  dataSize(sub_0)\n  dup1\n  dataOffset(sub_0)\n  0x00\n  codecopy\n  0x00\n  return\nstop\n\nsub_0: assembly {\n        /* \"MarketplaceEscrowSystem/AccessManager.sol\":58:1316  contract AccessManager {... */\n      mstore(0x40, 0x80)\n      callvalue\n      dup1\n      iszero\n      tag_1\n      jumpi\n      revert(0x00, 0x00)\n    tag_1:\n      pop\n      jumpi(tag_2, lt(calldatasize, 0x04))\n      shr(0xe0, calldataload(0x00))\n      dup1\n      0x077d3c03\n      eq\n      tag_3\n      jumpi\n      dup1\n      0x2a0acc6a\n      eq\n      tag_4\n      jumpi\n      dup1\n      0x3e840236\n      eq\n      tag_5\n      jumpi\n      dup1\n      0x95a8c58d\n      eq\n      tag_6\n      jumpi\n      dup1\n      0xb2170409\n      eq\n      tag_7\n      jumpi\n      dup1\n      0xbca93eba\n      eq\n      tag_8\n      jumpi\n    tag_2:\n      revert(0x00, 0x00)\n        /* \"MarketplaceEscrowSystem/AccessManager.sol\":822:1040  function revokeRole(address account, uint8 role) external onlyRole(ADMIN) {... */\n    tag_3:\n      tag_9\n      0x04\n      dup1\n      calldatasize\n      sub\n      dup2\n      add\n      swap1\n      tag_10\n      swap2\n      swap1\n      tag_11\n      jump\t// in\n    tag_10:\n      tag_12\n      jump\t// in\n    tag_9:\n      stop\n        /* \"MarketplaceEscrowSystem/AccessManager.sol\":88:122  uint8 public constant ADMIN    = 1 */\n    tag_4:\n      tag_13\n      tag_14\n      jump\t// in\n    tag_13:\n      mload(0x40)\n      tag_15\n      swap2\n      swap1\n      tag_16\n      jump\t// in\n    tag_15:\n      mload(0x40)\n      dup1\n      swap2\n      sub\n      swap1\n      return\n        /* \"MarketplaceEscrowSystem/AccessManager.sol\":644:816  function grantRole(address account, uint8 role) external onlyRole(ADMIN) {... */\n    tag_5:\n      tag_17\n      0x04\n      dup1\n      calldatasize\n      sub\n      dup2\n      add\n      swap1\n      tag_18\n      swap2\n      swap1\n      tag_11\n      jump\t// in\n    tag_18:\n      tag_19\n      jump\t// in\n    tag_17:\n      stop\n        /* \"MarketplaceEscrowSystem/AccessManager.sol\":1046:1164  function hasRole(address account, uint8 role) public view returns (bool) {... */\n    tag_6:\n      tag_20\n      0x04\n      dup1\n      calldatasize\n      sub\n      dup2\n      add\n      swap1\n      tag_21\n      swap2\n      swap1\n      tag_11\n      jump\t// in\n    tag_21:\n      tag_22\n      jump\t// in\n    tag_20:\n      mload(0x40)\n      tag_23\n      swap2\n      swap1\n      tag_24\n      jump\t// in\n    tag_23:\n      mload(0x40)\n      dup1\n      swap2\n      sub\n      swap1\n      return\n        /* \"MarketplaceEscrowSystem/AccessManager.sol\":168:202  uint8 public constant MEDIATOR = 3 */\n    tag_7:\n      tag_25\n      tag_26\n      jump\t// in\n    tag_25:\n      mload(0x40)\n      tag_27\n      swap2\n      swap1\n      tag_16\n      jump\t// in\n    tag_27:\n      mload(0x40)\n      dup1\n      swap2\n      sub\n      swap1\n      return\n        /* \"MarketplaceEscrowSystem/AccessManager.sol\":128:162  uint8 public constant SELLER   = 2 */\n    tag_8:\n      tag_28\n      tag_29\n      jump\t// in\n    tag_28:\n      mload(0x40)\n      tag_30\n      swap2\n      swap1\n      tag_16\n      jump\t// in\n    tag_30:\n      mload(0x40)\n      dup1\n      swap2\n      sub\n      swap1\n      return\n        /* \"MarketplaceEscrowSystem/AccessManager.sol\":822:1040  function revokeRole(address account, uint8 role) external onlyRole(ADMIN) {... */\n    tag_12:\n        /* \"MarketplaceEscrowSystem/AccessManager.sol\":121:122  1 */\n      0x01\n        /* \"MarketplaceEscrowSystem/AccessManager.sol\":573:579  _roles */\n      0x00\n        /* \"MarketplaceEscrowSystem/AccessManager.sol\":573:591  _roles[msg.sender] */\n      0x00\n        /* \"MarketplaceEscrowSystem/AccessManager.sol\":580:590  msg.sender */\n      caller\n        /* \"MarketplaceEscrowSystem/AccessManager.sol\":573:591  _roles[msg.sender] */\n      0xffffffffffffffffffffffffffffffffffffffff\n      and\n      0xffffffffffffffffffffffffffffffffffffffff\n      and\n      dup2\n      mstore\n      0x20\n      add\n      swap1\n      dup2\n      mstore\n      0x20\n      add\n      0x00\n      keccak256\n        /* \"MarketplaceEscrowSystem/AccessManager.sol\":573:597  _roles[msg.sender][role] */\n      0x00\n        /* \"MarketplaceEscrowSystem/AccessManager.sol\":592:596  role */\n      dup3\n        /* \"MarketplaceEscrowSystem/AccessManager.sol\":573:597  _roles[msg.sender][role] */\n      0xff\n      and\n      0xff\n      and\n      dup2\n      mstore\n      0x20\n      add\n      swap1\n      dup2\n      mstore\n      0x20\n      add\n      0x00\n      keccak256\n      0x00\n      swap1\n      sload\n      swap1\n      0x0100\n      exp\n      swap1\n      div\n      0xff\n      and\n        /* \"MarketplaceEscrowSystem/AccessManager.sol\":568:620  if (!_roles[msg.sender][role]) revert Unauthorized() */\n      tag_32\n      jumpi\n        /* \"MarketplaceEscrowSystem/AccessManager.sol\":606:620  Unauthorized() */\n      mload(0x40)\n      0x82b4290000000000000000000000000000000000000000000000000000000000\n      dup2\n      mstore\n      0x04\n      add\n      mload(0x40)\n      dup1\n      swap2\n      sub\n      swap1\n      revert\n        /* \"MarketplaceEscrowSystem/AccessManager.sol\":568:620  if (!_roles[msg.sender][role]) revert Unauthorized() */\n    tag_32:\n        /* \"MarketplaceEscrowSystem/AccessManager.sol\":929:930  0 */\n      0x00\n        /* \"MarketplaceEscrowSystem/AccessManager.sol\":910:931  account == address(0) */\n      0xffffffffffffffffffffffffffffffffffffffff\n      and\n        /* \"MarketplaceEscrowSystem/AccessManager.sol\":910:917  account */\n      dup4\n        /* \"MarketplaceEscrowSystem/AccessManager.sol\":910:931  account == address(0) */\n      0xffffffffffffffffffffffffffffffffffffffff\n      and\n      sub\n        /* \"MarketplaceEscrowSystem/AccessManager.sol\":906:953  if (account == address(0)) revert ZeroAddress() */\n      tag_34\n      jumpi\n        /* \"MarketplaceEscrowSystem/AccessManager.sol\":940:953  ZeroAddress() */\n      mload(0x40)\n      0xd92e233d00000000000000000000000000000000000000000000000000000000\n      dup2\n      mstore\n      0x04\n      add\n      mload(0x40)\n      dup1\n      swap2\n      sub\n      swap1\n      revert\n        /* \"MarketplaceEscrowSystem/AccessManager.sol\":906:953  if (account == address(0)) revert ZeroAddress() */\n    tag_34:\n        /* \"MarketplaceEscrowSystem/AccessManager.sol\":987:992  false */\n      0x00\n        /* \"MarketplaceEscrowSystem/AccessManager.sol\":963:969  _roles */\n      0x00\n        /* \"MarketplaceEscrowSystem/AccessManager.sol\":963:978  _roles[account] */\n      0x00\n        /* \"MarketplaceEscrowSystem/AccessManager.sol\":970:977  account */\n      dup6\n        /* \"MarketplaceEscrowSystem/AccessManager.sol\":963:978  _roles[account] */\n      0xffffffffffffffffffffffffffffffffffffffff\n      and\n      0xffffffffffffffffffffffffffffffffffffffff\n      and\n      dup2\n      mstore\n      0x20\n      add\n      swap1\n      dup2\n      mstore\n      0x20\n      add\n      0x00\n      keccak256\n        /* \"MarketplaceEscrowSystem/AccessManager.sol\":963:984  _roles[account][role] */\n      0x00\n        /* \"MarketplaceEscrowSystem/AccessManager.sol\":979:983  role */\n      dup5\n        /* \"MarketplaceEscrowSystem/AccessManager.sol\":963:984  _roles[account][role] */\n      0xff\n      and\n      0xff\n      and\n      dup2\n      mstore\n      0x20\n      add\n      swap1\n      dup2\n      mstore\n      0x20\n      add\n      0x00\n      keccak256\n      0x00\n        /* \"MarketplaceEscrowSystem/AccessManager.sol\":963:992  _roles[account][role] = false */\n      0x0100\n      exp\n      dup2\n      sload\n      dup2\n      0xff\n      mul\n      not\n      and\n      swap1\n      dup4\n      iszero\n      iszero\n      mul\n      or\n      swap1\n      sstore\n      pop\n        /* \"MarketplaceEscrowSystem/AccessManager.sol\":1028:1032  role */\n      dup2\n        /* \"MarketplaceEscrowSystem/AccessManager.sol\":1007:1033  RoleRevoked(account, role) */\n      0xff\n      and\n        /* \"MarketplaceEscrowSystem/AccessManager.sol\":1019:1026  account */\n      dup4\n        /* \"MarketplaceEscrowSystem/AccessManager.sol\":1007:1033  RoleRevoked(account, role) */\n      0xffffffffffffffffffffffffffffffffffffffff\n      and\n      0x34a1009b84e077aee5bc8197faf7105e54f9ba6879e2a51a716e4156ea9ad769\n      mload(0x40)\n      mload(0x40)\n      dup1\n      swap2\n      sub\n      swap1\n      log3\n        /* \"MarketplaceEscrowSystem/AccessManager.sol\":822:1040  function revokeRole(address account, uint8 role) external onlyRole(ADMIN) {... */\n      pop\n      pop\n      pop\n      jump\t// out\n        /* \"MarketplaceEscrowSystem/AccessManager.sol\":88:122  uint8 public constant ADMIN    = 1 */\n    tag_14:\n        /* \"MarketplaceEscrowSystem/AccessManager.sol\":121:122  1 */\n      0x01\n        /* \"MarketplaceEscrowSystem/AccessManager.sol\":88:122  uint8 public constant ADMIN    = 1 */\n      dup2\n      jump\t// out\n        /* \"MarketplaceEscrowSystem/AccessManager.sol\":644:816  function grantRole(address account, uint8 role) external onlyRole(ADMIN) {... */\n    tag_19:\n        /* \"MarketplaceEscrowSystem/AccessManager.sol\":121:122  1 */\n      0x01\n        /* \"MarketplaceEscrowSystem/AccessManager.sol\":573:579  _roles */\n      0x00\n        /* \"MarketplaceEscrowSystem/AccessManager.sol\":573:591  _roles[msg.sender] */\n      0x00\n        /* \"MarketplaceEscrowSystem/AccessManager.sol\":580:590  msg.sender */\n      caller\n        /* \"MarketplaceEscrowSystem/AccessManager.sol\":573:591  _roles[msg.sender] */\n      0xffffffffffffffffffffffffffffffffffffffff\n      and\n      0xffffffffffffffffffffffffffffffffffffffff\n      and\n      dup2\n      mstore\n      0x20\n      add\n      swap1\n      dup2\n      mstore\n      0x20\n      add\n      0x00\n      keccak256\n        /* \"MarketplaceEscrowSystem/AccessManager.sol\":573:597  _roles[msg.sender][role] */\n      0x00\n        /* \"MarketplaceEscrowSystem/AccessManager.sol\":592:596  role */\n      dup3\n        /* \"MarketplaceEscrowSystem/AccessManager.sol\":573:597  _roles[msg.sender][role] */\n      0xff\n      and\n      0xff\n      and\n      dup2\n      mstore\n      0x20\n      add\n      swap1\n      dup2\n      mstore\n      0x20\n      add\n      0x00\n      keccak256\n      0x00\n      swap1\n      sload\n      swap1\n      0x0100\n      exp\n      swap1\n      div\n      0xff\n      and\n        /* \"MarketplaceEscrowSystem/AccessManager.sol\":568:620  if (!_roles[msg.sender][role]) revert Unauthorized() */\n      tag_36\n      jumpi\n        /* \"MarketplaceEscrowSystem/AccessManager.sol\":606:620  Unauthorized() */\n      mload(0x40)\n      0x82b4290000000000000000000000000000000000000000000000000000000000\n      dup2\n      mstore\n      0x04\n      add\n      mload(0x40)\n      dup1\n      swap2\n      sub\n      swap1\n      revert\n        /* \"MarketplaceEscrowSystem/AccessManager.sol\":568:620  if (!_roles[msg.sender][role]) revert Unauthorized() */\n    tag_36:\n        /* \"MarketplaceEscrowSystem/AccessManager.sol\":750:751  0 */\n      0x00\n        /* \"MarketplaceEscrowSystem/AccessManager.sol\":731:752  account == address(0) */\n      0xffffffffffffffffffffffffffffffffffffffff\n      and\n        /* \"MarketplaceEscrowSystem/AccessManager.sol\":731:738  account */\n      dup4\n        /* \"MarketplaceEscrowSystem/AccessManager.sol\":731:752  account == address(0) */\n      0xffffffffffffffffffffffffffffffffffffffff\n      and\n      sub\n        /* \"MarketplaceEscrowSystem/AccessManager.sol\":727:774  if (account == address(0)) revert ZeroAddress() */\n      tag_38\n      jumpi\n        /* \"MarketplaceEscrowSystem/AccessManager.sol\":761:774  ZeroAddress() */\n      mload(0x40)\n      0xd92e233d00000000000000000000000000000000000000000000000000000000\n      dup2\n      mstore\n      0x04\n      add\n      mload(0x40)\n      dup1\n      swap2\n      sub\n      swap1\n      revert\n        /* \"MarketplaceEscrowSystem/AccessManager.sol\":727:774  if (account == address(0)) revert ZeroAddress() */\n    tag_38:\n        /* \"MarketplaceEscrowSystem/AccessManager.sol\":784:809  _grantRole(account, role) */\n      tag_39\n        /* \"MarketplaceEscrowSystem/AccessManager.sol\":795:802  account */\n      dup4\n        /* \"MarketplaceEscrowSystem/AccessManager.sol\":804:808  role */\n      dup4\n        /* \"MarketplaceEscrowSystem/AccessManager.sol\":784:794  _grantRole */\n      tag_40\n        /* \"MarketplaceEscrowSystem/AccessManager.sol\":784:809  _grantRole(account, role) */\n      jump\t// in\n    tag_39:\n        /* \"MarketplaceEscrowSystem/AccessManager.sol\":644:816  function grantRole(address account, uint8 role) external onlyRole(ADMIN) {... */\n      pop\n      pop\n      pop\n      jump\t// out\n        /* \"MarketplaceEscrowSystem/AccessManager.sol\":1046:1164  function hasRole(address account, uint8 role) public view returns (bool) {... */\n    tag_22:\n        /* \"MarketplaceEscrowSystem/AccessManager.sol\":1113:1117  bool */\n      0x00\n        /* \"MarketplaceEscrowSystem/AccessManager.sol\":1136:1142  _roles */\n      0x00\n        /* \"MarketplaceEscrowSystem/AccessManager.sol\":1136:1151  _roles[account] */\n      0x00\n        /* \"MarketplaceEscrowSystem/AccessManager.sol\":1143:1150  account */\n      dup5\n        /* \"MarketplaceEscrowSystem/AccessManager.sol\":1136:1151  _roles[account] */\n      0xffffffffffffffffffffffffffffffffffffffff\n      and\n      0xffffffffffffffffffffffffffffffffffffffff\n      and\n      dup2\n      mstore\n      0x20\n      add\n      swap1\n      dup2\n      mstore\n      0x20\n      add\n      0x00\n      keccak256\n        /* \"MarketplaceEscrowSystem/AccessManager.sol\":1136:1157  _roles[account][role] */\n      0x00\n        /* \"MarketplaceEscrowSystem/AccessManager.sol\":1152:1156  role */\n      dup4\n        /* \"MarketplaceEscrowSystem/AccessManager.sol\":1136:1157  _roles[account][role] */\n      0xff\n      and\n      0xff\n      and\n      dup2\n      mstore\n      0x20\n      add\n      swap1\n      dup2\n      mstore\n      0x20\n      add\n      0x00\n      keccak256\n      0x00\n      swap1\n      sload\n      swap1\n      0x0100\n      exp\n      swap1\n      div\n      0xff\n      and\n        /* \"MarketplaceEscrowSystem/AccessManager.sol\":1129:1157  return _roles[account][role] */\n      swap1\n      pop\n        /* \"MarketplaceEscrowSystem/AccessManager.sol\":1046:1164  function hasRole(address account, uint8 role) public view returns (bool) {... */\n      swap3\n      swap2\n      pop\n      pop\n      jump\t// out\n        /* \"MarketplaceEscrowSystem/AccessManager.sol\":168:202  uint8 public constant MEDIATOR = 3 */\n    tag_26:\n        /* \"MarketplaceEscrowSystem/AccessManager.sol\":201:202  3 */\n      0x03\n        /* \"MarketplaceEscrowSystem/AccessManager.sol\":168:202  uint8 public constant MEDIATOR = 3 */\n      dup2\n      jump\t// out\n        /* \"MarketplaceEscrowSystem/AccessManager.sol\":128:162  uint8 public constant SELLER   = 2 */\n    tag_29:\n        /* \"MarketplaceEscrowSystem/AccessManager.sol\":161:162  2 */\n      0x02\n        /* \"MarketplaceEscrowSystem/AccessManager.sol\":128:162  uint8 public constant SELLER   = 2 */\n      dup2\n      jump\t// out\n        /* \"MarketplaceEscrowSystem/AccessManager.sol\":1170:1314  function _grantRole(address account, uint8 role) internal {... */\n    tag_40:\n        /* \"MarketplaceEscrowSystem/AccessManager.sol\":1262:1266  true */\n      0x01\n        /* \"MarketplaceEscrowSystem/AccessManager.sol\":1238:1244  _roles */\n      0x00\n        /* \"MarketplaceEscrowSystem/AccessManager.sol\":1238:1253  _roles[account] */\n      0x00\n        /* \"MarketplaceEscrowSystem/AccessManager.sol\":1245:1252  account */\n      dup5\n        /* \"MarketplaceEscrowSystem/AccessManager.sol\":1238:1253  _roles[account] */\n      0xffffffffffffffffffffffffffffffffffffffff\n      and\n      0xffffffffffffffffffffffffffffffffffffffff\n      and\n      dup2\n      mstore\n      0x20\n      add\n      swap1\n      dup2\n      mstore\n      0x20\n      add\n      0x00\n      keccak256\n        /* \"MarketplaceEscrowSystem/AccessManager.sol\":1238:1259  _roles[account][role] */\n      0x00\n        /* \"MarketplaceEscrowSystem/AccessManager.sol\":1254:1258  role */\n      dup4\n        /* \"MarketplaceEscrowSystem/AccessManager.sol\":1238:1259  _roles[account][role] */\n      0xff\n      and\n      0xff\n      and\n      dup2\n      mstore\n      0x20\n      add\n      swap1\n      dup2\n      mstore\n      0x20\n      add\n      0x00\n      keccak256\n      0x00\n        /* \"MarketplaceEscrowSystem/AccessManager.sol\":1238:1266  _roles[account][role] = true */\n      0x0100\n      exp\n      dup2\n      sload\n      dup2\n      0xff\n      mul\n      not\n      and\n      swap1\n      dup4\n      iszero\n      iszero\n      mul\n      or\n      swap1\n      sstore\n      pop\n        /* \"MarketplaceEscrowSystem/AccessManager.sol\":1302:1306  role */\n      dup1\n        /* \"MarketplaceEscrowSystem/AccessManager.sol\":1281:1307  RoleGranted(account, role) */\n      0xff\n      and\n        /* \"MarketplaceEscrowSystem/AccessManager.sol\":1293:1300  account */\n      dup3\n        /* \"MarketplaceEscrowSystem/AccessManager.sol\":1281:1307  RoleGranted(account, role) */\n      0xffffffffffffffffffffffffffffffffffffffff\n      and\n      0xaa259565575c834bc07e74dca784b4071676133ac78513b431afb6ee7edae121\n      mload(0x40)\n      mload(0x40)\n      dup1\n      swap2\n      sub\n      swap1\n      log3\n        /* \"MarketplaceEscrowSystem/AccessManager.sol\":1170:1314  function _grantRole(address account, uint8 role) internal {... */\n      pop\n      pop\n      jump\t// out\n        /* \"#utility.yul\":88:205   */\n    tag_44:\n        /* \"#utility.yul\":197:198   */\n      0x00\n        /* \"#utility.yul\":194:195   */\n      0x00\n        /* \"#utility.yul\":187:199   */\n      revert\n        /* \"#utility.yul\":334:460   */\n    tag_46:\n        /* \"#utility.yul\":371:378   */\n      0x00\n        /* \"#utility.yul\":411:453   */\n      0xffffffffffffffffffffffffffffffffffffffff\n        /* \"#utility.yul\":404:409   */\n      dup3\n        /* \"#utility.yul\":400:454   */\n      and\n        /* \"#utility.yul\":389:454   */\n      swap1\n      pop\n        /* \"#utility.yul\":334:460   */\n      swap2\n      swap1\n      pop\n      jump\t// out\n        /* \"#utility.yul\":466:562   */\n    tag_47:\n        /* \"#utility.yul\":503:510   */\n      0x00\n        /* \"#utility.yul\":532:556   */\n      tag_62\n        /* \"#utility.yul\":550:555   */\n      dup3\n        /* \"#utility.yul\":532:556   */\n      tag_46\n      jump\t// in\n    tag_62:\n        /* \"#utility.yul\":521:556   */\n      swap1\n      pop\n        /* \"#utility.yul\":466:562   */\n      swap2\n      swap1\n      pop\n      jump\t// out\n        /* \"#utility.yul\":568:690   */\n    tag_48:\n        /* \"#utility.yul\":641:665   */\n      tag_64\n        /* \"#utility.yul\":659:664   */\n      dup2\n        /* \"#utility.yul\":641:665   */\n      tag_47\n      jump\t// in\n    tag_64:\n        /* \"#utility.yul\":634:639   */\n      dup2\n        /* \"#utility.yul\":631:666   */\n      eq\n        /* \"#utility.yul\":621:684   */\n      tag_65\n      jumpi\n        /* \"#utility.yul\":680:681   */\n      0x00\n        /* \"#utility.yul\":677:678   */\n      0x00\n        /* \"#utility.yul\":670:682   */\n      revert\n        /* \"#utility.yul\":621:684   */\n    tag_65:\n        /* \"#utility.yul\":568:690   */\n      pop\n      jump\t// out\n        /* \"#utility.yul\":696:835   */\n    tag_49:\n        /* \"#utility.yul\":742:747   */\n      0x00\n        /* \"#utility.yul\":780:786   */\n      dup2\n        /* \"#utility.yul\":767:787   */\n      calldataload\n        /* \"#utility.yul\":758:787   */\n      swap1\n      pop\n        /* \"#utility.yul\":796:829   */\n      tag_67\n        /* \"#utility.yul\":823:828   */\n      dup2\n        /* \"#utility.yul\":796:829   */\n      tag_48\n      jump\t// in\n    tag_67:\n        /* \"#utility.yul\":696:835   */\n      swap3\n      swap2\n      pop\n      pop\n      jump\t// out\n        /* \"#utility.yul\":841:927   */\n    tag_50:\n        /* \"#utility.yul\":876:883   */\n      0x00\n        /* \"#utility.yul\":916:920   */\n      0xff\n        /* \"#utility.yul\":909:914   */\n      dup3\n        /* \"#utility.yul\":905:921   */\n      and\n        /* \"#utility.yul\":894:921   */\n      swap1\n      pop\n        /* \"#utility.yul\":841:927   */\n      swap2\n      swap1\n      pop\n      jump\t// out\n        /* \"#utility.yul\":933:1051   */\n    tag_51:\n        /* \"#utility.yul\":1004:1026   */\n      tag_70\n        /* \"#utility.yul\":1020:1025   */\n      dup2\n        /* \"#utility.yul\":1004:1026   */\n      tag_50\n      jump\t// in\n    tag_70:\n        /* \"#utility.yul\":997:1002   */\n      dup2\n        /* \"#utility.yul\":994:1027   */\n      eq\n        /* \"#utility.yul\":984:1045   */\n      tag_71\n      jumpi\n        /* \"#utility.yul\":1041:1042   */\n      0x00\n        /* \"#utility.yul\":1038:1039   */\n      0x00\n        /* \"#utility.yul\":1031:1043   */\n      revert\n        /* \"#utility.yul\":984:1045   */\n    tag_71:\n        /* \"#utility.yul\":933:1051   */\n      pop\n      jump\t// out\n        /* \"#utility.yul\":1057:1192   */\n    tag_52:\n        /* \"#utility.yul\":1101:1106   */\n      0x00\n        /* \"#utility.yul\":1139:1145   */\n      dup2\n        /* \"#utility.yul\":1126:1146   */\n      calldataload\n        /* \"#utility.yul\":1117:1146   */\n      swap1\n      pop\n        /* \"#utility.yul\":1155:1186   */\n      tag_73\n        /* \"#utility.yul\":1180:1185   */\n      dup2\n        /* \"#utility.yul\":1155:1186   */\n      tag_51\n      jump\t// in\n    tag_73:\n        /* \"#utility.yul\":1057:1192   */\n      swap3\n      swap2\n      pop\n      pop\n      jump\t// out\n        /* \"#utility.yul\":1198:1668   */\n    tag_11:\n        /* \"#utility.yul\":1264:1270   */\n      0x00\n        /* \"#utility.yul\":1272:1278   */\n      0x00\n        /* \"#utility.yul\":1321:1323   */\n      0x40\n        /* \"#utility.yul\":1309:1318   */\n      dup4\n        /* \"#utility.yul\":1300:1307   */\n      dup6\n        /* \"#utility.yul\":1296:1319   */\n      sub\n        /* \"#utility.yul\":1292:1324   */\n      slt\n        /* \"#utility.yul\":1289:1408   */\n      iszero\n      tag_75\n      jumpi\n        /* \"#utility.yul\":1327:1406   */\n      tag_76\n      tag_44\n      jump\t// in\n    tag_76:\n        /* \"#utility.yul\":1289:1408   */\n    tag_75:\n        /* \"#utility.yul\":1447:1448   */\n      0x00\n        /* \"#utility.yul\":1472:1525   */\n      tag_77\n        /* \"#utility.yul\":1517:1524   */\n      dup6\n        /* \"#utility.yul\":1508:1514   */\n      dup3\n        /* \"#utility.yul\":1497:1506   */\n      dup7\n        /* \"#utility.yul\":1493:1515   */\n      add\n        /* \"#utility.yul\":1472:1525   */\n      tag_49\n      jump\t// in\n    tag_77:\n        /* \"#utility.yul\":1462:1525   */\n      swap3\n      pop\n        /* \"#utility.yul\":1418:1535   */\n      pop\n        /* \"#utility.yul\":1574:1576   */\n      0x20\n        /* \"#utility.yul\":1600:1651   */\n      tag_78\n        /* \"#utility.yul\":1643:1650   */\n      dup6\n        /* \"#utility.yul\":1634:1640   */\n      dup3\n        /* \"#utility.yul\":1623:1632   */\n      dup7\n        /* \"#utility.yul\":1619:1641   */\n      add\n        /* \"#utility.yul\":1600:1651   */\n      tag_52\n      jump\t// in\n    tag_78:\n        /* \"#utility.yul\":1590:1651   */\n      swap2\n      pop\n        /* \"#utility.yul\":1545:1661   */\n      pop\n        /* \"#utility.yul\":1198:1668   */\n      swap3\n      pop\n      swap3\n      swap1\n      pop\n      jump\t// out\n        /* \"#utility.yul\":1674:1786   */\n    tag_53:\n        /* \"#utility.yul\":1757:1779   */\n      tag_80\n        /* \"#utility.yul\":1773:1778   */\n      dup2\n        /* \"#utility.yul\":1757:1779   */\n      tag_50\n      jump\t// in\n    tag_80:\n        /* \"#utility.yul\":1752:1755   */\n      dup3\n        /* \"#utility.yul\":1745:1780   */\n      mstore\n        /* \"#utility.yul\":1674:1786   */\n      pop\n      pop\n      jump\t// out\n        /* \"#utility.yul\":1792:2006   */\n    tag_16:\n        /* \"#utility.yul\":1881:1885   */\n      0x00\n        /* \"#utility.yul\":1919:1921   */\n      0x20\n        /* \"#utility.yul\":1908:1917   */\n      dup3\n        /* \"#utility.yul\":1904:1922   */\n      add\n        /* \"#utility.yul\":1896:1922   */\n      swap1\n      pop\n        /* \"#utility.yul\":1932:1999   */\n      tag_82\n        /* \"#utility.yul\":1996:1997   */\n      0x00\n        /* \"#utility.yul\":1985:1994   */\n      dup4\n        /* \"#utility.yul\":1981:1998   */\n      add\n        /* \"#utility.yul\":1972:1978   */\n      dup5\n        /* \"#utility.yul\":1932:1999   */\n      tag_53\n      jump\t// in\n    tag_82:\n        /* \"#utility.yul\":1792:2006   */\n      swap3\n      swap2\n      pop\n      pop\n      jump\t// out\n        /* \"#utility.yul\":2012:2102   */\n    tag_54:\n        /* \"#utility.yul\":2046:2053   */\n      0x00\n        /* \"#utility.yul\":2089:2094   */\n      dup2\n        /* \"#utility.yul\":2082:2095   */\n      iszero\n        /* \"#utility.yul\":2075:2096   */\n      iszero\n        /* \"#utility.yul\":2064:2096   */\n      swap1\n      pop\n        /* \"#utility.yul\":2012:2102   */\n      swap2\n      swap1\n      pop\n      jump\t// out\n        /* \"#utility.yul\":2108:2217   */\n    tag_55:\n        /* \"#utility.yul\":2189:2210   */\n      tag_85\n        /* \"#utility.yul\":2204:2209   */\n      dup2\n        /* \"#utility.yul\":2189:2210   */\n      tag_54\n      jump\t// in\n    tag_85:\n        /* \"#utility.yul\":2184:2187   */\n      dup3\n        /* \"#utility.yul\":2177:2211   */\n      mstore\n        /* \"#utility.yul\":2108:2217   */\n      pop\n      pop\n      jump\t// out\n        /* \"#utility.yul\":2223:2433   */\n    tag_24:\n        /* \"#utility.yul\":2310:2314   */\n      0x00\n        /* \"#utility.yul\":2348:2350   */\n      0x20\n        /* \"#utility.yul\":2337:2346   */\n      dup3\n        /* \"#utility.yul\":2333:2351   */\n      add\n        /* \"#utility.yul\":2325:2351   */\n      swap1\n      pop\n        /* \"#utility.yul\":2361:2426   */\n      tag_87\n        /* \"#utility.yul\":2423:2424   */\n      0x00\n        /* \"#utility.yul\":2412:2421   */\n      dup4\n        /* \"#utility.yul\":2408:2425   */\n      add\n        /* \"#utility.yul\":2399:2405   */\n      dup5\n        /* \"#utility.yul\":2361:2426   */\n      tag_55\n      jump\t// in\n    tag_87:\n        /* \"#utility.yul\":2223:2433   */\n      swap3\n      swap2\n      pop\n      pop\n      jump\t// out\n\n    auxdata: 0xa2646970667358221220450e65889d72f3642c50e3bfca6abe76e12d5e34d0252b552858a17e3372876864736f6c634300081f0033\n}\n",
				"bytecode": {
					"linkReferences": {},
					"object": "6080604052348015600e575f5ffd5b50601e336001602260201b60201c565b60d6565b60015f5f8473ffffffffffffffffffffffffffffffffffffffff1673ffffffffffffffffffffffffffffffffffffffff1681526020019081526020015f205f8360ff1660ff1681526020019081526020015f205f6101000a81548160ff0219169083151502179055508060ff168273ffffffffffffffffffffffffffffffffffffffff167faa259565575c834bc07e74dca784b4071676133ac78513b431afb6ee7edae12160405160405180910390a35050565b61066c806100e35f395ff3fe608060405234801561000f575f5ffd5b5060043610610060575f3560e01c8063077d3c03146100645780632a0acc6a146100805780633e8402361461009e57806395a8c58d146100ba578063b2170409146100ea578063bca93eba14610108575b5f5ffd5b61007e6004803603810190610079919061059d565b610126565b005b6100886102d5565b60405161009591906105ea565b60405180910390f35b6100b860048036038101906100b3919061059d565b6102da565b005b6100d460048036038101906100cf919061059d565b6103e4565b6040516100e1919061061d565b60405180910390f35b6100f261044b565b6040516100ff91906105ea565b60405180910390f35b610110610450565b60405161011d91906105ea565b60405180910390f35b60015f5f3373ffffffffffffffffffffffffffffffffffffffff1673ffffffffffffffffffffffffffffffffffffffff1681526020019081526020015f205f8260ff1660ff1681526020019081526020015f205f9054906101000a900460ff166101bc576040517f82b4290000000000000000000000000000000000000000000000000000000000815260040160405180910390fd5b5f73ffffffffffffffffffffffffffffffffffffffff168373ffffffffffffffffffffffffffffffffffffffff1603610221576040517fd92e233d00000000000000000000000000000000000000000000000000000000815260040160405180910390fd5b5f5f5f8573ffffffffffffffffffffffffffffffffffffffff1673ffffffffffffffffffffffffffffffffffffffff1681526020019081526020015f205f8460ff1660ff1681526020019081526020015f205f6101000a81548160ff0219169083151502179055508160ff168373ffffffffffffffffffffffffffffffffffffffff167f34a1009b84e077aee5bc8197faf7105e54f9ba6879e2a51a716e4156ea9ad76960405160405180910390a3505050565b600181565b60015f5f3373ffffffffffffffffffffffffffffffffffffffff1673ffffffffffffffffffffffffffffffffffffffff1681526020019081526020015f205f8260ff1660ff1681526020019081526020015f205f9054906101000a900460ff16610370576040517f82b4290000000000000000000000000000000000000000000000000000000000815260040160405180910390fd5b5f73ffffffffffffffffffffffffffffffffffffffff168373ffffffffffffffffffffffffffffffffffffffff16036103d5576040517fd92e233d00000000000000000000000000000000000000000000000000000000815260040160405180910390fd5b6103df8383610455565b505050565b5f5f5f8473ffffffffffffffffffffffffffffffffffffffff1673ffffffffffffffffffffffffffffffffffffffff1681526020019081526020015f205f8360ff1660ff1681526020019081526020015f205f9054906101000a900460ff16905092915050565b600381565b600281565b60015f5f8473ffffffffffffffffffffffffffffffffffffffff1673ffffffffffffffffffffffffffffffffffffffff1681526020019081526020015f205f8360ff1660ff1681526020019081526020015f205f6101000a81548160ff0219169083151502179055508060ff168273ffffffffffffffffffffffffffffffffffffffff167faa259565575c834bc07e74dca784b4071676133ac78513b431afb6ee7edae12160405160405180910390a35050565b5f5ffd5b5f73ffffffffffffffffffffffffffffffffffffffff82169050919050565b5f6105368261050d565b9050919050565b6105468161052c565b8114610550575f5ffd5b50565b5f813590506105618161053d565b92915050565b5f60ff82169050919050565b61057c81610567565b8114610586575f5ffd5b50565b5f8135905061059781610573565b92915050565b5f5f604083850312156105b3576105b2610509565b5b5f6105c085828601610553565b92505060206105d185828601610589565b9150509250929050565b6105e481610567565b82525050565b5f6020820190506105fd5f8301846105db565b92915050565b5f8115159050919050565b61061781610603565b82525050565b5f6020820190506106305f83018461060e565b9291505056fea2646970667358221220450e65889d72f3642c50e3bfca6abe76e12d5e34d0252b552858a17e3372876864736f6c634300081f0033",
					"opcodes": "PUSH1 0x80 PUSH1 0x40 MSTORE CALLVALUE DUP1 ISZERO PUSH1 0xE JUMPI PUSH0 PUSH0 REVERT JUMPDEST POP PUSH1 0x1E CALLER PUSH1 0x1 PUSH1 0x22 PUSH1 0x20 SHL PUSH1 0x20 SHR JUMP JUMPDEST PUSH1 0xD6 JUMP JUMPDEST PUSH1 0x1 PUSH0 PUSH0 DUP5 PUSH20 0xFFFFFFFFFFFFFFFFFFFFFFFFFFFFFFFFFFFFFFFF AND PUSH20 0xFFFFFFFFFFFFFFFFFFFFFFFFFFFFFFFFFFFFFFFF AND DUP2 MSTORE PUSH1 0x20 ADD SWAP1 DUP2 MSTORE PUSH1 0x20 ADD PUSH0 KECCAK256 PUSH0 DUP4 PUSH1 0xFF AND PUSH1 0xFF AND DUP2 MSTORE PUSH1 0x20 ADD SWAP1 DUP2 MSTORE PUSH1 0x20 ADD PUSH0 KECCAK256 PUSH0 PUSH2 0x100 EXP DUP2 SLOAD DUP2 PUSH1 0xFF MUL NOT AND SWAP1 DUP4 ISZERO ISZERO MUL OR SWAP1 SSTORE POP DUP1 PUSH1 0xFF AND DUP3 PUSH20 0xFFFFFFFFFFFFFFFFFFFFFFFFFFFFFFFFFFFFFFFF AND PUSH32 0xAA259565575C834BC07E74DCA784B4071676133AC78513B431AFB6EE7EDAE121 PUSH1 0x40 MLOAD PUSH1 0x40 MLOAD DUP1 SWAP2 SUB SWAP1 LOG3 POP POP JUMP JUMPDEST PUSH2 0x66C DUP1 PUSH2 0xE3 PUSH0 CODECOPY PUSH0 RETURN INVALID PUSH1 0x80 PUSH1 0x40 MSTORE CALLVALUE DUP1 ISZERO PUSH2 0xF JUMPI PUSH0 PUSH0 REVERT JUMPDEST POP PUSH1 0x4 CALLDATASIZE LT PUSH2 0x60 JUMPI PUSH0 CALLDATALOAD PUSH1 0xE0 SHR DUP1 PUSH4 0x77D3C03 EQ PUSH2 0x64 JUMPI DUP1 PUSH4 0x2A0ACC6A EQ PUSH2 0x80 JUMPI DUP1 PUSH4 0x3E840236 EQ PUSH2 0x9E JUMPI DUP1 PUSH4 0x95A8C58D EQ PUSH2 0xBA JUMPI DUP1 PUSH4 0xB2170409 EQ PUSH2 0xEA JUMPI DUP1 PUSH4 0xBCA93EBA EQ PUSH2 0x108 JUMPI JUMPDEST PUSH0 PUSH0 REVERT JUMPDEST PUSH2 0x7E PUSH1 0x4 DUP1 CALLDATASIZE SUB DUP2 ADD SWAP1 PUSH2 0x79 SWAP2 SWAP1 PUSH2 0x59D JUMP JUMPDEST PUSH2 0x126 JUMP JUMPDEST STOP JUMPDEST PUSH2 0x88 PUSH2 0x2D5 JUMP JUMPDEST PUSH1 0x40 MLOAD PUSH2 0x95 SWAP2 SWAP1 PUSH2 0x5EA JUMP JUMPDEST PUSH1 0x40 MLOAD DUP1 SWAP2 SUB SWAP1 RETURN JUMPDEST PUSH2 0xB8 PUSH1 0x4 DUP1 CALLDATASIZE SUB DUP2 ADD SWAP1 PUSH2 0xB3 SWAP2 SWAP1 PUSH2 0x59D JUMP JUMPDEST PUSH2 0x2DA JUMP JUMPDEST STOP JUMPDEST PUSH2 0xD4 PUSH1 0x4 DUP1 CALLDATASIZE SUB DUP2 ADD SWAP1 PUSH2 0xCF SWAP2 SWAP1 PUSH2 0x59D JUMP JUMPDEST PUSH2 0x3E4 JUMP JUMPDEST PUSH1 0x40 MLOAD PUSH2 0xE1 SWAP2 SWAP1 PUSH2 0x61D JUMP JUMPDEST PUSH1 0x40 MLOAD DUP1 SWAP2 SUB SWAP1 RETURN JUMPDEST PUSH2 0xF2 PUSH2 0x44B JUMP JUMPDEST PUSH1 0x40 MLOAD PUSH2 0xFF SWAP2 SWAP1 PUSH2 0x5EA JUMP JUMPDEST PUSH1 0x40 MLOAD DUP1 SWAP2 SUB SWAP1 RETURN JUMPDEST PUSH2 0x110 PUSH2 0x450 JUMP JUMPDEST PUSH1 0x40 MLOAD PUSH2 0x11D SWAP2 SWAP1 PUSH2 0x5EA JUMP JUMPDEST PUSH1 0x40 MLOAD DUP1 SWAP2 SUB SWAP1 RETURN JUMPDEST PUSH1 0x1 PUSH0 PUSH0 CALLER PUSH20 0xFFFFFFFFFFFFFFFFFFFFFFFFFFFFFFFFFFFFFFFF AND PUSH20 0xFFFFFFFFFFFFFFFFFFFFFFFFFFFFFFFFFFFFFFFF AND DUP2 MSTORE PUSH1 0x20 ADD SWAP1 DUP2 MSTORE PUSH1 0x20 ADD PUSH0 KECCAK256 PUSH0 DUP3 PUSH1 0xFF AND PUSH1 0xFF AND DUP2 MSTORE PUSH1 0x20 ADD SWAP1 DUP2 MSTORE PUSH1 0x20 ADD PUSH0 KECCAK256 PUSH0 SWAP1 SLOAD SWAP1 PUSH2 0x100 EXP SWAP1 DIV PUSH1 0xFF AND PUSH2 0x1BC JUMPI PUSH1 0x40 MLOAD PUSH32 0x82B4290000000000000000000000000000000000000000000000000000000000 DUP2 MSTORE PUSH1 0x4 ADD PUSH1 0x40 MLOAD DUP1 SWAP2 SUB SWAP1 REVERT JUMPDEST PUSH0 PUSH20 0xFFFFFFFFFFFFFFFFFFFFFFFFFFFFFFFFFFFFFFFF AND DUP4 PUSH20 0xFFFFFFFFFFFFFFFFFFFFFFFFFFFFFFFFFFFFFFFF AND SUB PUSH2 0x221 JUMPI PUSH1 0x40 MLOAD PUSH32 0xD92E233D00000000000000000000000000000000000000000000000000000000 DUP2 MSTORE PUSH1 0x4 ADD PUSH1 0x40 MLOAD DUP1 SWAP2 SUB SWAP1 REVERT JUMPDEST PUSH0 PUSH0 PUSH0 DUP6 PUSH20 0xFFFFFFFFFFFFFFFFFFFFFFFFFFFFFFFFFFFFFFFF AND PUSH20 0xFFFFFFFFFFFFFFFFFFFFFFFFFFFFFFFFFFFFFFFF AND DUP2 MSTORE PUSH1 0x20 ADD SWAP1 DUP2 MSTORE PUSH1 0x20 ADD PUSH0 KECCAK256 PUSH0 DUP5 PUSH1 0xFF AND PUSH1 0xFF AND DUP2 MSTORE PUSH1 0x20 ADD SWAP1 DUP2 MSTORE PUSH1 0x20 ADD PUSH0 KECCAK256 PUSH0 PUSH2 0x100 EXP DUP2 SLOAD DUP2 PUSH1 0xFF MUL NOT AND SWAP1 DUP4 ISZERO ISZERO MUL OR SWAP1 SSTORE POP DUP2 PUSH1 0xFF AND DUP4 PUSH20 0xFFFFFFFFFFFFFFFFFFFFFFFFFFFFFFFFFFFFFFFF AND PUSH32 0x34A1009B84E077AEE5BC8197FAF7105E54F9BA6879E2A51A716E4156EA9AD769 PUSH1 0x40 MLOAD PUSH1 0x40 MLOAD DUP1 SWAP2 SUB SWAP1 LOG3 POP POP POP JUMP JUMPDEST PUSH1 0x1 DUP2 JUMP JUMPDEST PUSH1 0x1 PUSH0 PUSH0 CALLER PUSH20 0xFFFFFFFFFFFFFFFFFFFFFFFFFFFFFFFFFFFFFFFF AND PUSH20 0xFFFFFFFFFFFFFFFFFFFFFFFFFFFFFFFFFFFFFFFF AND DUP2 MSTORE PUSH1 0x20 ADD SWAP1 DUP2 MSTORE PUSH1 0x20 ADD PUSH0 KECCAK256 PUSH0 DUP3 PUSH1 0xFF AND PUSH1 0xFF AND DUP2 MSTORE PUSH1 0x20 ADD SWAP1 DUP2 MSTORE PUSH1 0x20 ADD PUSH0 KECCAK256 PUSH0 SWAP1 SLOAD SWAP1 PUSH2 0x100 EXP SWAP1 DIV PUSH1 0xFF AND PUSH2 0x370 JUMPI PUSH1 0x40 MLOAD PUSH32 0x82B4290000000000000000000000000000000000000000000000000000000000 DUP2 MSTORE PUSH1 0x4 ADD PUSH1 0x40 MLOAD DUP1 SWAP2 SUB SWAP1 REVERT JUMPDEST PUSH0 PUSH20 0xFFFFFFFFFFFFFFFFFFFFFFFFFFFFFFFFFFFFFFFF AND DUP4 PUSH20 0xFFFFFFFFFFFFFFFFFFFFFFFFFFFFFFFFFFFFFFFF AND SUB PUSH2 0x3D5 JUMPI PUSH1 0x40 MLOAD PUSH32 0xD92E233D00000000000000000000000000000000000000000000000000000000 DUP2 MSTORE PUSH1 0x4 ADD PUSH1 0x40 MLOAD DUP1 SWAP2 SUB SWAP1 REVERT JUMPDEST PUSH2 0x3DF DUP4 DUP4 PUSH2 0x455 JUMP JUMPDEST POP POP POP JUMP JUMPDEST PUSH0 PUSH0 PUSH0 DUP5 PUSH20 0xFFFFFFFFFFFFFFFFFFFFFFFFFFFFFFFFFFFFFFFF AND PUSH20 0xFFFFFFFFFFFFFFFFFFFFFFFFFFFFFFFFFFFFFFFF AND DUP2 MSTORE PUSH1 0x20 ADD SWAP1 DUP2 MSTORE PUSH1 0x20 ADD PUSH0 KECCAK256 PUSH0 DUP4 PUSH1 0xFF AND PUSH1 0xFF AND DUP2 MSTORE PUSH1 0x20 ADD SWAP1 DUP2 MSTORE PUSH1 0x20 ADD PUSH0 KECCAK256 PUSH0 SWAP1 SLOAD SWAP1 PUSH2 0x100 EXP SWAP1 DIV PUSH1 0xFF AND SWAP1 POP SWAP3 SWAP2 POP POP JUMP JUMPDEST PUSH1 0x3 DUP2 JUMP JUMPDEST PUSH1 0x2 DUP2 JUMP JUMPDEST PUSH1 0x1 PUSH0 PUSH0 DUP5 PUSH20 0xFFFFFFFFFFFFFFFFFFFFFFFFFFFFFFFFFFFFFFFF AND PUSH20 0xFFFFFFFFFFFFFFFFFFFFFFFFFFFFFFFFFFFFFFFF AND DUP2 MSTORE PUSH1 0x20 ADD SWAP1 DUP2 MSTORE PUSH1 0x20 ADD PUSH0 KECCAK256 PUSH0 DUP4 PUSH1 0xFF AND PUSH1 0xFF AND DUP2 MSTORE PUSH1 0x20 ADD SWAP1 DUP2 MSTORE PUSH1 0x20 ADD PUSH0 KECCAK256 PUSH0 PUSH2 0x100 EXP DUP2 SLOAD DUP2 PUSH1 0xFF MUL NOT AND SWAP1 DUP4 ISZERO ISZERO MUL OR SWAP1 SSTORE POP DUP1 PUSH1 0xFF AND DUP3 PUSH20 0xFFFFFFFFFFFFFFFFFFFFFFFFFFFFFFFFFFFFFFFF AND PUSH32 0xAA259565575C834BC07E74DCA784B4071676133AC78513B431AFB6EE7EDAE121 PUSH1 0x40 MLOAD PUSH1 0x40 MLOAD DUP1 SWAP2 SUB SWAP1 LOG3 POP POP JUMP JUMPDEST PUSH0 PUSH0 REVERT JUMPDEST PUSH0 PUSH20 0xFFFFFFFFFFFFFFFFFFFFFFFFFFFFFFFFFFFFFFFF DUP3 AND SWAP1 POP SWAP2 SWAP1 POP JUMP JUMPDEST PUSH0 PUSH2 0x536 DUP3 PUSH2 0x50D JUMP JUMPDEST SWAP1 POP SWAP2 SWAP1 POP JUMP JUMPDEST PUSH2 0x546 DUP2 PUSH2 0x52C JUMP JUMPDEST DUP2 EQ PUSH2 0x550 JUMPI PUSH0 PUSH0 REVERT JUMPDEST POP JUMP JUMPDEST PUSH0 DUP2 CALLDATALOAD SWAP1 POP PUSH2 0x561 DUP2 PUSH2 0x53D JUMP JUMPDEST SWAP3 SWAP2 POP POP JUMP JUMPDEST PUSH0 PUSH1 0xFF DUP3 AND SWAP1 POP SWAP2 SWAP1 POP JUMP JUMPDEST PUSH2 0x57C DUP2 PUSH2 0x567 JUMP JUMPDEST DUP2 EQ PUSH2 0x586 JUMPI PUSH0 PUSH0 REVERT JUMPDEST POP JUMP JUMPDEST PUSH0 DUP2 CALLDATALOAD SWAP1 POP PUSH2 0x597 DUP2 PUSH2 0x573 JUMP JUMPDEST SWAP3 SWAP2 POP POP JUMP JUMPDEST PUSH0 PUSH0 PUSH1 0x40 DUP4 DUP6 SUB SLT ISZERO PUSH2 0x5B3 JUMPI PUSH2 0x5B2 PUSH2 0x509 JUMP JUMPDEST JUMPDEST PUSH0 PUSH2 0x5C0 DUP6 DUP3 DUP7 ADD PUSH2 0x553 JUMP JUMPDEST SWAP3 POP POP PUSH1 0x20 PUSH2 0x5D1 DUP6 DUP3 DUP7 ADD PUSH2 0x589 JUMP JUMPDEST SWAP2 POP POP SWAP3 POP SWAP3 SWAP1 POP JUMP JUMPDEST PUSH2 0x5E4 DUP2 PUSH2 0x567 JUMP JUMPDEST DUP3 MSTORE POP POP JUMP JUMPDEST PUSH0 PUSH1 0x20 DUP3 ADD SWAP1 POP PUSH2 0x5FD PUSH0 DUP4 ADD DUP5 PUSH2 0x5DB JUMP JUMPDEST SWAP3 SWAP2 POP POP JUMP JUMPDEST PUSH0 DUP2 ISZERO ISZERO SWAP1 POP SWAP2 SWAP1 POP JUMP JUMPDEST PUSH2 0x617 DUP2 PUSH2 0x603 JUMP JUMPDEST DUP3 MSTORE POP POP JUMP JUMPDEST PUSH0 PUSH1 0x20 DUP3 ADD SWAP1 POP PUSH2 0x630 PUSH0 DUP4 ADD DUP5 PUSH2 0x60E JUMP JUMPDEST SWAP3 SWAP2 POP POP JUMP INVALID LOG2 PUSH5 0x6970667358 0x22 SLT KECCAK256 GASLIMIT 0xE PUSH6 0x889D72F3642C POP CALLF 0xBFCA PUSH11 0xBE76E12D5E34D0252B5528 PC LOG1 PUSH31 0x3372876864736F6C634300081F003300000000000000000000000000000000 "
				},
				"gasEstimates": {
					"creation": {
						"codeDepositCost": "328800",
						"executionCost": "infinite",
						"totalCost": "infinite"
					},
					"external": {
						"ADMIN()": "331",
						"MEDIATOR()": "397",
						"SELLER()": "419",
						"grantRole(address,uint8)": "29032",
						"hasRole(address,uint8)": "3177",
						"revokeRole(address,uint8)": "28953"
					},
					"internal": {
						"_grantRole(address,uint8)": "26008"
					}
				},
				"methodIdentifiers": {
					"ADMIN()": "2a0acc6a",
					"MEDIATOR()": "b2170409",
					"SELLER()": "bca93eba",
					"grantRole(address,uint8)": "3e840236",
					"hasRole(address,uint8)": "95a8c58d",
					"revokeRole(address,uint8)": "077d3c03"
				}
			},
			"storageLayout": {
				"storage": [
					{
						"astId": 16,
						"contract": "MarketplaceEscrowSystem/AccessManager.sol:AccessManager",
						"label": "_roles",
						"offset": 0,
						"slot": "0",
						"type": "t_mapping(t_address,t_mapping(t_uint8,t_bool))"
					}
				],
				"types": {
					"t_address": {
						"encoding": "inplace",
						"label": "address",
						"numberOfBytes": "20"
					},
					"t_bool": {
						"encoding": "inplace",
						"label": "bool",
						"numberOfBytes": "1"
					},
					"t_mapping(t_address,t_mapping(t_uint8,t_bool))": {
						"encoding": "mapping",
						"key": "t_address",
						"label": "mapping(address => mapping(uint8 => bool))",
						"numberOfBytes": "32",
						"value": "t_mapping(t_uint8,t_bool)"
					},
					"t_mapping(t_uint8,t_bool)": {
						"encoding": "mapping",
						"key": "t_uint8",
						"label": "mapping(uint8 => bool)",
						"numberOfBytes": "32",
						"value": "t_bool"
					},
					"t_uint8": {
						"encoding": "inplace",
						"label": "uint8",
						"numberOfBytes": "1"
					}
				}
			},
			"userdoc": {
				"kind": "user",
				"methods": {},
				"version": 1
			}
		}
	}
}