{
	"Sol_by_Example/Basics/31.TryAndCatch.sol": {
		"Foo": {
			"abi": [
				{
					"inputs": [
						{
							"internalType": "address",
							"name": "_owner",
							"type": "address"
						}
					],
					"stateMutability": "nonpayable",
					"type": "constructor"
				},
				{
					"inputs": [
						{
							"internalType": "uint256",
							"name": "_x",
							"type": "uint256"
						}
					],
					"name": "myFunc",
					"outputs": [
						{
							"internalType": "string",
							"name": "",
							"type": "string"
						}
					],
					"stateMutability": "pure",
					"type": "function"
				},
				{
					"inputs": [],
					"name": "owner",
					"outputs": [
						{
							"internalType": "address",
							"name": "",
							"type": "address"
						}
					],
					"stateMutability": "view",
					"type": "function"
				},
				{
					"inputs": [
						{
							"internalType": "uint256",
							"name": "_x",
							"type": "uint256"
						}
					],
					"name": "setX",
					"outputs": [],
					"stateMutability": "nonpayable",
					"type": "function"
				},
				{
					"inputs": [],
					"name": "x",
					"outputs": [
						{
							"internalType": "uint256",
							"name": "",
							"type": "uint256"
						}
					],
					"stateMutability": "view",
					"type": "function"
				}
			],
			"devdoc": {
				"kind": "dev",
				"methods": {},
				"version": 1
			},
			"evm": {
				"assembly": "    /* \"Sol_by_Example/Basics/31.TryAndCatch.sol\":203:714  contract Foo {... */\n  mstore(0x40, 0x80)\n    /* \"Sol_by_Example/Basics/31.TryAndCatch.sol\":268:455  constructor(address _owner) {... */\n  callvalue\n  dup1\n  iszero\n  tag_1\n  jumpi\n  revert(0x00, 0x00)\ntag_1:\n  pop\n  mload(0x40)\n  sub(codesize, bytecodeSize)\n  dup1\n  bytecodeSize\n  dup4\n  codecopy\n  dup2\n  dup2\n  add\n  0x40\n  mstore\n  dup2\n  add\n  swap1\n  tag_2\n  swap2\n  swap1\n  tag_3\n  jump\t// in\ntag_2:\n    /* \"Sol_by_Example/Basics/31.TryAndCatch.sol\":332:333  0 */\n  0x00\n    /* \"Sol_by_Example/Basics/31.TryAndCatch.sol\":314:334  _owner != address(0) */\n  0xffffffffffffffffffffffffffffffffffffffff\n  and\n    /* \"Sol_by_Example/Basics/31.TryAndCatch.sol\":314:320  _owner */\n  dup2\n    /* \"Sol_by_Example/Basics/31.TryAndCatch.sol\":314:334  _owner != address(0) */\n  0xffffffffffffffffffffffffffffffffffffffff\n  and\n  sub\n    /* \"Sol_by_Example/Basics/31.TryAndCatch.sol\":306:354  require(_owner != address(0), \"invalid address\") */\n  tag_6\n  jumpi\n  mload(0x40)\n  0x08c379a000000000000000000000000000000000000000000000000000000000\n  dup2\n  mstore\n  0x04\n  add\n  tag_7\n  swap1\n  tag_8\n  jump\t// in\ntag_7:\n  mload(0x40)\n  dup1\n  swap2\n  sub\n  swap1\n  revert\ntag_6:\n    /* \"Sol_by_Example/Basics/31.TryAndCatch.sol\":381:423  0x0000000000000000000000000000000000000001 */\n  0x01\n    /* \"Sol_by_Example/Basics/31.TryAndCatch.sol\":371:423  _owner != 0x0000000000000000000000000000000000000001 */\n  0xffffffffffffffffffffffffffffffffffffffff\n  and\n    /* \"Sol_by_Example/Basics/31.TryAndCatch.sol\":371:377  _owner */\n  dup2\n    /* \"Sol_by_Example/Basics/31.TryAndCatch.sol\":371:423  _owner != 0x0000000000000000000000000000000000000001 */\n  0xffffffffffffffffffffffffffffffffffffffff\n  and\n  sub\n    /* \"Sol_by_Example/Basics/31.TryAndCatch.sol\":364:424  assert(_owner != 0x0000000000000000000000000000000000000001) */\n  tag_9\n  jumpi\n  tag_10\n  tag_11\n  jump\t// in\ntag_10:\ntag_9:\n    /* \"Sol_by_Example/Basics/31.TryAndCatch.sol\":442:448  _owner */\n  dup1\n    /* \"Sol_by_Example/Basics/31.TryAndCatch.sol\":434:439  owner */\n  0x00\n  0x00\n    /* \"Sol_by_Example/Basics/31.TryAndCatch.sol\":434:448  owner = _owner */\n  0x0100\n  exp\n  dup2\n  sload\n  dup2\n  0xffffffffffffffffffffffffffffffffffffffff\n  mul\n  not\n  and\n  swap1\n  dup4\n  0xffffffffffffffffffffffffffffffffffffffff\n  and\n  mul\n  or\n  swap1\n  sstore\n  pop\n    /* \"Sol_by_Example/Basics/31.TryAndCatch.sol\":268:455  constructor(address _owner) {... */\n  pop\n    /* \"Sol_by_Example/Basics/31.TryAndCatch.sol\":203:714  contract Foo {... */\n  jump(tag_12)\n    /* \"#utility.yul\":88:205   */\ntag_14:\n    /* \"#utility.yul\":197:198   */\n  0x00\n    /* \"#utility.yul\":194:195   */\n  0x00\n    /* \"#utility.yul\":187:199   */\n  revert\n    /* \"#utility.yul\":334:460   */\ntag_16:\n    /* \"#utility.yul\":371:378   */\n  0x00\n    /* \"#utility.yul\":411:453   */\n  0xffffffffffffffffffffffffffffffffffffffff\n    /* \"#utility.yul\":404:409   */\n  dup3\n    /* \"#utility.yul\":400:454   */\n  and\n    /* \"#utility.yul\":389:454   */\n  swap1\n  pop\n    /* \"#utility.yul\":334:460   */\n  swap2\n  swap1\n  pop\n  jump\t// out\n    /* \"#utility.yul\":466:562   */\ntag_17:\n    /* \"#utility.yul\":503:510   */\n  0x00\n    /* \"#utility.yul\":532:556   */\n  tag_29\n    /* \"#utility.yul\":550:555   */\n  dup3\n    /* \"#utility.yul\":532:556   */\n  tag_16\n  jump\t// in\ntag_29:\n    /* \"#utility.yul\":521:556   */\n  swap1\n  pop\n    /* \"#utility.yul\":466:562   */\n  swap2\n  swap1\n  pop\n  jump\t// out\n    /* \"#utility.yul\":568:690   */\ntag_18:\n    /* \"#utility.yul\":641:665   */\n  tag_31\n    /* \"#utility.yul\":659:664   */\n  dup2\n    /* \"#utility.yul\":641:665   */\n  tag_17\n  jump\t// in\ntag_31:\n    /* \"#utility.yul\":634:639   */\n  dup2\n    /* \"#utility.yul\":631:666   */\n  eq\n    /* \"#utility.yul\":621:684   */\n  tag_32\n  jumpi\n    /* \"#utility.yul\":680:681   */\n  0x00\n    /* \"#utility.yul\":677:678   */\n  0x00\n    /* \"#utility.yul\":670:682   */\n  revert\n    /* \"#utility.yul\":621:684   */\ntag_32:\n    /* \"#utility.yul\":568:690   */\n  pop\n  jump\t// out\n    /* \"#utility.yul\":696:839   */\ntag_19:\n    /* \"#utility.yul\":753:758   */\n  0x00\n    /* \"#utility.yul\":784:790   */\n  dup2\n    /* \"#utility.yul\":778:791   */\n  mload\n    /* \"#utility.yul\":769:791   */\n  swap1\n  pop\n    /* \"#utility.yul\":800:833   */\n  tag_34\n    /* \"#utility.yul\":827:832   */\n  dup2\n    /* \"#utility.yul\":800:833   */\n  tag_18\n  jump\t// in\ntag_34:\n    /* \"#utility.yul\":696:839   */\n  swap3\n  swap2\n  pop\n  pop\n  jump\t// out\n    /* \"#utility.yul\":845:1196   */\ntag_3:\n    /* \"#utility.yul\":915:921   */\n  0x00\n    /* \"#utility.yul\":964:966   */\n  0x20\n    /* \"#utility.yul\":952:961   */\n  dup3\n    /* \"#utility.yul\":943:950   */\n  dup5\n    /* \"#utility.yul\":939:962   */\n  sub\n    /* \"#utility.yul\":935:967   */\n  slt\n    /* \"#utility.yul\":932:1051   */\n  iszero\n  tag_36\n  jumpi\n    /* \"#utility.yul\":970:1049   */\n  tag_37\n  tag_14\n  jump\t// in\ntag_37:\n    /* \"#utility.yul\":932:1051   */\ntag_36:\n    /* \"#utility.yul\":1090:1091   */\n  0x00\n    /* \"#utility.yul\":1115:1179   */\n  tag_38\n    /* \"#utility.yul\":1171:1178   */\n  dup5\n    /* \"#utility.yul\":1162:1168   */\n  dup3\n    /* \"#utility.yul\":1151:1160   */\n  dup6\n    /* \"#utility.yul\":1147:1169   */\n  add\n    /* \"#utility.yul\":1115:1179   */\n  tag_19\n  jump\t// in\ntag_38:\n    /* \"#utility.yul\":1105:1179   */\n  swap2\n  pop\n    /* \"#utility.yul\":1061:1189   */\n  pop\n    /* \"#utility.yul\":845:1196   */\n  swap3\n  swap2\n  pop\n  pop\n  jump\t// out\n    /* \"#utility.yul\":1202:1371   */\ntag_20:\n    /* \"#utility.yul\":1286:1297   */\n  0x00\n    /* \"#utility.yul\":1320:1326   */\n  dup3\n    /* \"#utility.yul\":1315:1318   */\n  dup3\n    /* \"#utility.yul\":1308:1327   */\n  mstore\n    /* \"#utility.yul\":1360:1364   */\n  0x20\n    /* \"#utility.yul\":1355:1358   */\n  dup3\n    /* \"#utility.yul\":1351:1365   */\n  add\n    /* \"#utility.yul\":1336:1365   */\n  swap1\n  pop\n    /* \"#utility.yul\":1202:1371   */\n  swap3\n  swap2\n  pop\n  pop\n  jump\t// out\n    /* \"#utility.yul\":1377:1542   */\ntag_21:\n    /* \"#utility.yul\":1517:1534   */\n  0x696e76616c696420616464726573730000000000000000000000000000000000\n    /* \"#utility.yul\":1513:1514   */\n  0x00\n    /* \"#utility.yul\":1505:1511   */\n  dup3\n    /* \"#utility.yul\":1501:1515   */\n  add\n    /* \"#utility.yul\":1494:1535   */\n  mstore\n    /* \"#utility.yul\":1377:1542   */\n  pop\n  jump\t// out\n    /* \"#utility.yul\":1548:1914   */\ntag_22:\n    /* \"#utility.yul\":1690:1693   */\n  0x00\n    /* \"#utility.yul\":1711:1778   */\n  tag_42\n    /* \"#utility.yul\":1775:1777   */\n  0x0f\n    /* \"#utility.yul\":1770:1773   */\n  dup4\n    /* \"#utility.yul\":1711:1778   */\n  tag_20\n  jump\t// in\ntag_42:\n    /* \"#utility.yul\":1704:1778   */\n  swap2\n  pop\n    /* \"#utility.yul\":1787:1880   */\n  tag_43\n    /* \"#utility.yul\":1876:1879   */\n  dup3\n    /* \"#utility.yul\":1787:1880   */\n  tag_21\n  jump\t// in\ntag_43:\n    /* \"#utility.yul\":1905:1907   */\n  0x20\n    /* \"#utility.yul\":1900:1903   */\n  dup3\n    /* \"#utility.yul\":1896:1908   */\n  add\n    /* \"#utility.yul\":1889:1908   */\n  swap1\n  pop\n    /* \"#utility.yul\":1548:1914   */\n  swap2\n  swap1\n  pop\n  jump\t// out\n    /* \"#utility.yul\":1920:2339   */\ntag_8:\n    /* \"#utility.yul\":2086:2090   */\n  0x00\n    /* \"#utility.yul\":2124:2126   */\n  0x20\n    /* \"#utility.yul\":2113:2122   */\n  dup3\n    /* \"#utility.yul\":2109:2127   */\n  add\n    /* \"#utility.yul\":2101:2127   */\n  swap1\n  pop\n    /* \"#utility.yul\":2173:2182   */\n  dup2\n    /* \"#utility.yul\":2167:2171   */\n  dup2\n    /* \"#utility.yul\":2163:2183   */\n  sub\n    /* \"#utility.yul\":2159:2160   */\n  0x00\n    /* \"#utility.yul\":2148:2157   */\n  dup4\n    /* \"#utility.yul\":2144:2161   */\n  add\n    /* \"#utility.yul\":2137:2184   */\n  mstore\n    /* \"#utility.yul\":2201:2332   */\n  tag_45\n    /* \"#utility.yul\":2327:2331   */\n  dup2\n    /* \"#utility.yul\":2201:2332   */\n  tag_22\n  jump\t// in\ntag_45:\n    /* \"#utility.yul\":2193:2332   */\n  swap1\n  pop\n    /* \"#utility.yul\":1920:2339   */\n  swap2\n  swap1\n  pop\n  jump\t// out\n    /* \"#utility.yul\":2345:2525   */\ntag_11:\n    /* \"#utility.yul\":2393:2470   */\n  0x4e487b7100000000000000000000000000000000000000000000000000000000\n    /* \"#utility.yul\":2390:2391   */\n  0x00\n    /* \"#utility.yul\":2383:2471   */\n  mstore\n    /* \"#utility.yul\":2490:2494   */\n  0x01\n    /* \"#utility.yul\":2487:2488   */\n  0x04\n    /* \"#utility.yul\":2480:2495   */\n  mstore\n    /* \"#utility.yul\":2514:2518   */\n  0x24\n    /* \"#utility.yul\":2511:2512   */\n  0x00\n    /* \"#utility.yul\":2504:2519   */\n  revert\n    /* \"Sol_by_Example/Basics/31.TryAndCatch.sol\":203:714  contract Foo {... */\ntag_12:\n  dataSize(sub_0)\n  dup1\n  dataOffset(sub_0)\n  0x00\n  codecopy\n  0x00\n  return\nstop\n\nsub_0: assembly {\n        /* \"Sol_by_Example/Basics/31.TryAndCatch.sol\":203:714  contract Foo {... */\n      mstore(0x40, 0x80)\n      callvalue\n      dup1\n      iszero\n      tag_1\n      jumpi\n      revert(0x00, 0x00)\n    tag_1:\n      pop\n      jumpi(tag_2, lt(calldatasize, 0x04))\n      shr(0xe0, calldataload(0x00))\n      dup1\n      0x0c55699c\n      eq\n      tag_3\n      jumpi\n      dup1\n      0x4018d9aa\n      eq\n      tag_4\n      jumpi\n      dup1\n      0x8da5cb5b\n      eq\n      tag_5\n      jumpi\n      dup1\n      0xa9bf5633\n      eq\n      tag_6\n      jumpi\n    tag_2:\n      revert(0x00, 0x00)\n        /* \"Sol_by_Example/Basics/31.TryAndCatch.sol\":248:261  uint public x */\n    tag_3:\n      tag_7\n      tag_8\n      jump\t// in\n    tag_7:\n      mload(0x40)\n      tag_9\n      swap2\n      swap1\n      tag_10\n      jump\t// in\n    tag_9:\n      mload(0x40)\n      dup1\n      swap2\n      sub\n      swap1\n      return\n        /* \"Sol_by_Example/Basics/31.TryAndCatch.sol\":461:557  function setX(uint _x) public {... */\n    tag_4:\n      tag_11\n      0x04\n      dup1\n      calldatasize\n      sub\n      dup2\n      add\n      swap1\n      tag_12\n      swap2\n      swap1\n      tag_13\n      jump\t// in\n    tag_12:\n      tag_14\n      jump\t// in\n    tag_11:\n      stop\n        /* \"Sol_by_Example/Basics/31.TryAndCatch.sol\":222:242  address public owner */\n    tag_5:\n      tag_15\n      tag_16\n      jump\t// in\n    tag_15:\n      mload(0x40)\n      tag_17\n      swap2\n      swap1\n      tag_18\n      jump\t// in\n    tag_17:\n      mload(0x40)\n      dup1\n      swap2\n      sub\n      swap1\n      return\n        /* \"Sol_by_Example/Basics/31.TryAndCatch.sol\":563:712  function myFunc(uint _x) public pure returns (string memory) {... */\n    tag_6:\n      tag_19\n      0x04\n      dup1\n      calldatasize\n      sub\n      dup2\n      add\n      swap1\n      tag_20\n      swap2\n      swap1\n      tag_13\n      jump\t// in\n    tag_20:\n      tag_21\n      jump\t// in\n    tag_19:\n      mload(0x40)\n      tag_22\n      swap2\n      swap1\n      tag_23\n      jump\t// in\n    tag_22:\n      mload(0x40)\n      dup1\n      swap2\n      sub\n      swap1\n      return\n        /* \"Sol_by_Example/Basics/31.TryAndCatch.sol\":248:261  uint public x */\n    tag_8:\n      sload(0x01)\n      dup2\n      jump\t// out\n        /* \"Sol_by_Example/Basics/31.TryAndCatch.sol\":461:557  function setX(uint _x) public {... */\n    tag_14:\n        /* \"Sol_by_Example/Basics/31.TryAndCatch.sol\":514:516  10 */\n      0x0a\n        /* \"Sol_by_Example/Basics/31.TryAndCatch.sol\":509:511  _x */\n      dup2\n        /* \"Sol_by_Example/Basics/31.TryAndCatch.sol\":509:516  _x > 10 */\n      gt\n        /* \"Sol_by_Example/Basics/31.TryAndCatch.sol\":501:534  require(_x > 10, \"invalid value\") */\n      tag_25\n      jumpi\n      mload(0x40)\n      0x08c379a000000000000000000000000000000000000000000000000000000000\n      dup2\n      mstore\n      0x04\n      add\n      tag_26\n      swap1\n      tag_27\n      jump\t// in\n    tag_26:\n      mload(0x40)\n      dup1\n      swap2\n      sub\n      swap1\n      revert\n    tag_25:\n        /* \"Sol_by_Example/Basics/31.TryAndCatch.sol\":548:550  _x */\n      dup1\n        /* \"Sol_by_Example/Basics/31.TryAndCatch.sol\":544:545  x */\n      0x01\n        /* \"Sol_by_Example/Basics/31.TryAndCatch.sol\":544:550  x = _x */\n      dup2\n      swap1\n      sstore\n      pop\n        /* \"Sol_by_Example/Basics/31.TryAndCatch.sol\":461:557  function setX(uint _x) public {... */\n      pop\n      jump\t// out\n        /* \"Sol_by_Example/Basics/31.TryAndCatch.sol\":222:242  address public owner */\n    tag_16:\n      0x00\n      0x00\n      swap1\n      sload\n      swap1\n      0x0100\n      exp\n      swap1\n      div\n      0xffffffffffffffffffffffffffffffffffffffff\n      and\n      dup2\n      jump\t// out\n        /* \"Sol_by_Example/Basics/31.TryAndCatch.sol\":563:712  function myFunc(uint _x) public pure returns (string memory) {... */\n    tag_21:\n        /* \"Sol_by_Example/Basics/31.TryAndCatch.sol\":609:622  string memory */\n      0x60\n        /* \"Sol_by_Example/Basics/31.TryAndCatch.sol\":648:649  0 */\n      0x00\n        /* \"Sol_by_Example/Basics/31.TryAndCatch.sol\":642:644  _x */\n      dup3\n        /* \"Sol_by_Example/Basics/31.TryAndCatch.sol\":642:649  _x != 0 */\n      sub\n        /* \"Sol_by_Example/Basics/31.TryAndCatch.sol\":634:668  require(_x != 0, \"require failed\") */\n      tag_29\n      jumpi\n      mload(0x40)\n      0x08c379a000000000000000000000000000000000000000000000000000000000\n      dup2\n      mstore\n      0x04\n      add\n      tag_30\n      swap1\n      tag_31\n      jump\t// in\n    tag_30:\n      mload(0x40)\n      dup1\n      swap2\n      sub\n      swap1\n      revert\n    tag_29:\n        /* \"Sol_by_Example/Basics/31.TryAndCatch.sol\":678:705  return \"myFunc was called!\" */\n      mload(0x40)\n      dup1\n      0x40\n      add\n      0x40\n      mstore\n      dup1\n      0x12\n      dup2\n      mstore\n      0x20\n      add\n      0x6d7946756e63207761732063616c6c6564210000000000000000000000000000\n      dup2\n      mstore\n      pop\n      swap1\n      pop\n        /* \"Sol_by_Example/Basics/31.TryAndCatch.sol\":563:712  function myFunc(uint _x) public pure returns (string memory) {... */\n      swap2\n      swap1\n      pop\n      jump\t// out\n        /* \"#utility.yul\":7:84   */\n    tag_32:\n        /* \"#utility.yul\":44:51   */\n      0x00\n        /* \"#utility.yul\":73:78   */\n      dup2\n        /* \"#utility.yul\":62:78   */\n      swap1\n      pop\n        /* \"#utility.yul\":7:84   */\n      swap2\n      swap1\n      pop\n      jump\t// out\n        /* \"#utility.yul\":90:208   */\n    tag_33:\n        /* \"#utility.yul\":177:201   */\n      tag_54\n        /* \"#utility.yul\":195:200   */\n      dup2\n        /* \"#utility.yul\":177:201   */\n      tag_32\n      jump\t// in\n    tag_54:\n        /* \"#utility.yul\":172:175   */\n      dup3\n        /* \"#utility.yul\":165:202   */\n      mstore\n        /* \"#utility.yul\":90:208   */\n      pop\n      pop\n      jump\t// out\n        /* \"#utility.yul\":214:436   */\n    tag_10:\n        /* \"#utility.yul\":307:311   */\n      0x00\n        /* \"#utility.yul\":345:347   */\n      0x20\n        /* \"#utility.yul\":334:343   */\n      dup3\n        /* \"#utility.yul\":330:348   */\n      add\n        /* \"#utility.yul\":322:348   */\n      swap1\n      pop\n        /* \"#utility.yul\":358:429   */\n      tag_56\n        /* \"#utility.yul\":426:427   */\n      0x00\n        /* \"#utility.yul\":415:424   */\n      dup4\n        /* \"#utility.yul\":411:428   */\n      add\n        /* \"#utility.yul\":402:408   */\n      dup5\n        /* \"#utility.yul\":358:429   */\n      tag_33\n      jump\t// in\n    tag_56:\n        /* \"#utility.yul\":214:436   */\n      swap3\n      swap2\n      pop\n      pop\n      jump\t// out\n        /* \"#utility.yul\":523:640   */\n    tag_35:\n        /* \"#utility.yul\":632:633   */\n      0x00\n        /* \"#utility.yul\":629:630   */\n      0x00\n        /* \"#utility.yul\":622:634   */\n      revert\n        /* \"#utility.yul\":769:891   */\n    tag_37:\n        /* \"#utility.yul\":842:866   */\n      tag_61\n        /* \"#utility.yul\":860:865   */\n      dup2\n        /* \"#utility.yul\":842:866   */\n      tag_32\n      jump\t// in\n    tag_61:\n        /* \"#utility.yul\":835:840   */\n      dup2\n        /* \"#utility.yul\":832:867   */\n      eq\n        /* \"#utility.yul\":822:885   */\n      tag_62\n      jumpi\n        /* \"#utility.yul\":881:882   */\n      0x00\n        /* \"#utility.yul\":878:879   */\n      0x00\n        /* \"#utility.yul\":871:883   */\n      revert\n        /* \"#utility.yul\":822:885   */\n    tag_62:\n        /* \"#utility.yul\":769:891   */\n      pop\n      jump\t// out\n        /* \"#utility.yul\":897:1036   */\n    tag_38:\n        /* \"#utility.yul\":943:948   */\n      0x00\n        /* \"#utility.yul\":981:987   */\n      dup2\n        /* \"#utility.yul\":968:988   */\n      calldataload\n        /* \"#utility.yul\":959:988   */\n      swap1\n      pop\n        /* \"#utility.yul\":997:1030   */\n      tag_64\n        /* \"#utility.yul\":1024:1029   */\n      dup2\n        /* \"#utility.yul\":997:1030   */\n      tag_37\n      jump\t// in\n    tag_64:\n        /* \"#utility.yul\":897:1036   */\n      swap3\n      swap2\n      pop\n      pop\n      jump\t// out\n        /* \"#utility.yul\":1042:1371   */\n    tag_13:\n        /* \"#utility.yul\":1101:1107   */\n      0x00\n        /* \"#utility.yul\":1150:1152   */\n      0x20\n        /* \"#utility.yul\":1138:1147   */\n      dup3\n        /* \"#utility.yul\":1129:1136   */\n      dup5\n        /* \"#utility.yul\":1125:1148   */\n      sub\n        /* \"#utility.yul\":1121:1153   */\n      slt\n        /* \"#utility.yul\":1118:1237   */\n      iszero\n      tag_66\n      jumpi\n        /* \"#utility.yul\":1156:1235   */\n      tag_67\n      tag_35\n      jump\t// in\n    tag_67:\n        /* \"#utility.yul\":1118:1237   */\n    tag_66:\n        /* \"#utility.yul\":1276:1277   */\n      0x00\n        /* \"#utility.yul\":1301:1354   */\n      tag_68\n        /* \"#utility.yul\":1346:1353   */\n      dup5\n        /* \"#utility.yul\":1337:1343   */\n      dup3\n        /* \"#utility.yul\":1326:1335   */\n      dup6\n        /* \"#utility.yul\":1322:1344   */\n      add\n        /* \"#utility.yul\":1301:1354   */\n      tag_38\n      jump\t// in\n    tag_68:\n        /* \"#utility.yul\":1291:1354   */\n      swap2\n      pop\n        /* \"#utility.yul\":1247:1364   */\n      pop\n        /* \"#utility.yul\":1042:1371   */\n      swap3\n      swap2\n      pop\n      pop\n      jump\t// out\n        /* \"#utility.yul\":1377:1503   */\n    tag_39:\n        /* \"#utility.yul\":1414:1421   */\n      0x00\n        /* \"#utility.yul\":1454:1496   */\n      0xffffffffffffffffffffffffffffffffffffffff\n        /* \"#utility.yul\":1447:1452   */\n      dup3\n        /* \"#utility.yul\":1443:1497   */\n      and\n        /* \"#utility.yul\":1432:1497   */\n      swap1\n      pop\n        /* \"#utility.yul\":1377:1503   */\n      swap2\n      swap1\n      pop\n      jump\t// out\n        /* \"#utility.yul\":1509:1605   */\n    tag_40:\n        /* \"#utility.yul\":1546:1553   */\n      0x00\n        /* \"#utility.yul\":1575:1599   */\n      tag_71\n        /* \"#utility.yul\":1593:1598   */\n      dup3\n        /* \"#utility.yul\":1575:1599   */\n      tag_39\n      jump\t// in\n    tag_71:\n        /* \"#utility.yul\":1564:1599   */\n      swap1\n      pop\n        /* \"#utility.yul\":1509:1605   */\n      swap2\n      swap1\n      pop\n      jump\t// out\n        /* \"#utility.yul\":1611:1729   */\n    tag_41:\n        /* \"#utility.yul\":1698:1722   */\n      tag_73\n        /* \"#utility.yul\":1716:1721   */\n      dup2\n        /* \"#utility.yul\":1698:1722   */\n      tag_40\n      jump\t// in\n    tag_73:\n        /* \"#utility.yul\":1693:1696   */\n      dup3\n        /* \"#utility.yul\":1686:1723   */\n      mstore\n        /* \"#utility.yul\":1611:1729   */\n      pop\n      pop\n      jump\t// out\n        /* \"#utility.yul\":1735:1957   */\n    tag_18:\n        /* \"#utility.yul\":1828:1832   */\n      0x00\n        /* \"#utility.yul\":1866:1868   */\n      0x20\n        /* \"#utility.yul\":1855:1864   */\n      dup3\n        /* \"#utility.yul\":1851:1869   */\n      add\n        /* \"#utility.yul\":1843:1869   */\n      swap1\n      pop\n        /* \"#utility.yul\":1879:1950   */\n      tag_75\n        /* \"#utility.yul\":1947:1948   */\n      0x00\n        /* \"#utility.yul\":1936:1945   */\n      dup4\n        /* \"#utility.yul\":1932:1949   */\n      add\n        /* \"#utility.yul\":1923:1929   */\n      dup5\n        /* \"#utility.yul\":1879:1950   */\n      tag_41\n      jump\t// in\n    tag_75:\n        /* \"#utility.yul\":1735:1957   */\n      swap3\n      swap2\n      pop\n      pop\n      jump\t// out\n        /* \"#utility.yul\":1963:2062   */\n    tag_42:\n        /* \"#utility.yul\":2015:2021   */\n      0x00\n        /* \"#utility.yul\":2049:2054   */\n      dup2\n        /* \"#utility.yul\":2043:2055   */\n      mload\n        /* \"#utility.yul\":2033:2055   */\n      swap1\n      pop\n        /* \"#utility.yul\":1963:2062   */\n      swap2\n      swap1\n      pop\n      jump\t// out\n        /* \"#utility.yul\":2068:2237   */\n    tag_43:\n        /* \"#utility.yul\":2152:2163   */\n      0x00\n        /* \"#utility.yul\":2186:2192   */\n      dup3\n        /* \"#utility.yul\":2181:2184   */\n      dup3\n        /* \"#utility.yul\":2174:2193   */\n      mstore\n        /* \"#utility.yul\":2226:2230   */\n      0x20\n        /* \"#utility.yul\":2221:2224   */\n      dup3\n        /* \"#utility.yul\":2217:2231   */\n      add\n        /* \"#utility.yul\":2202:2231   */\n      swap1\n      pop\n        /* \"#utility.yul\":2068:2237   */\n      swap3\n      swap2\n      pop\n      pop\n      jump\t// out\n        /* \"#utility.yul\":2243:2382   */\n    tag_44:\n        /* \"#utility.yul\":2332:2338   */\n      dup3\n        /* \"#utility.yul\":2327:2330   */\n      dup2\n        /* \"#utility.yul\":2322:2325   */\n      dup4\n        /* \"#utility.yul\":2316:2339   */\n      mcopy\n        /* \"#utility.yul\":2373:2374   */\n      0x00\n        /* \"#utility.yul\":2364:2370   */\n      dup4\n        /* \"#utility.yul\":2359:2362   */\n      dup4\n        /* \"#utility.yul\":2355:2371   */\n      add\n        /* \"#utility.yul\":2348:2375   */\n      mstore\n        /* \"#utility.yul\":2243:2382   */\n      pop\n      pop\n      pop\n      jump\t// out\n        /* \"#utility.yul\":2388:2490   */\n    tag_45:\n        /* \"#utility.yul\":2429:2435   */\n      0x00\n        /* \"#utility.yul\":2480:2482   */\n      0x1f\n        /* \"#utility.yul\":2476:2483   */\n      not\n        /* \"#utility.yul\":2471:2473   */\n      0x1f\n        /* \"#utility.yul\":2464:2469   */\n      dup4\n        /* \"#utility.yul\":2460:2474   */\n      add\n        /* \"#utility.yul\":2456:2484   */\n      and\n        /* \"#utility.yul\":2446:2484   */\n      swap1\n      pop\n        /* \"#utility.yul\":2388:2490   */\n      swap2\n      swap1\n      pop\n      jump\t// out\n        /* \"#utility.yul\":2496:2873   */\n    tag_46:\n        /* \"#utility.yul\":2584:2587   */\n      0x00\n        /* \"#utility.yul\":2612:2651   */\n      tag_81\n        /* \"#utility.yul\":2645:2650   */\n      dup3\n        /* \"#utility.yul\":2612:2651   */\n      tag_42\n      jump\t// in\n    tag_81:\n        /* \"#utility.yul\":2667:2738   */\n      tag_82\n        /* \"#utility.yul\":2731:2737   */\n      dup2\n        /* \"#utility.yul\":2726:2729   */\n      dup6\n        /* \"#utility.yul\":2667:2738   */\n      tag_43\n      jump\t// in\n    tag_82:\n        /* \"#utility.yul\":2660:2738   */\n      swap4\n      pop\n        /* \"#utility.yul\":2747:2812   */\n      tag_83\n        /* \"#utility.yul\":2805:2811   */\n      dup2\n        /* \"#utility.yul\":2800:2803   */\n      dup6\n        /* \"#utility.yul\":2793:2797   */\n      0x20\n        /* \"#utility.yul\":2786:2791   */\n      dup7\n        /* \"#utility.yul\":2782:2798   */\n      add\n        /* \"#utility.yul\":2747:2812   */\n      tag_44\n      jump\t// in\n    tag_83:\n        /* \"#utility.yul\":2837:2866   */\n      tag_84\n        /* \"#utility.yul\":2859:2865   */\n      dup2\n        /* \"#utility.yul\":2837:2866   */\n      tag_45\n      jump\t// in\n    tag_84:\n        /* \"#utility.yul\":2832:2835   */\n      dup5\n        /* \"#utility.yul\":2828:2867   */\n      add\n        /* \"#utility.yul\":2821:2867   */\n      swap2\n      pop\n        /* \"#utility.yul\":2588:2873   */\n      pop\n        /* \"#utility.yul\":2496:2873   */\n      swap3\n      swap2\n      pop\n      pop\n      jump\t// out\n        /* \"#utility.yul\":2879:3192   */\n    tag_23:\n        /* \"#utility.yul\":2992:2996   */\n      0x00\n        /* \"#utility.yul\":3030:3032   */\n      0x20\n        /* \"#utility.yul\":3019:3028   */\n      dup3\n        /* \"#utility.yul\":3015:3033   */\n      add\n        /* \"#utility.yul\":3007:3033   */\n      swap1\n      pop\n        /* \"#utility.yul\":3079:3088   */\n      dup2\n        /* \"#utility.yul\":3073:3077   */\n      dup2\n        /* \"#utility.yul\":3069:3089   */\n      sub\n        /* \"#utility.yul\":3065:3066   */\n      0x00\n        /* \"#utility.yul\":3054:3063   */\n      dup4\n        /* \"#utility.yul\":3050:3067   */\n      add\n        /* \"#utility.yul\":3043:3090   */\n      mstore\n        /* \"#utility.yul\":3107:3185   */\n      tag_86\n        /* \"#utility.yul\":3180:3184   */\n      dup2\n        /* \"#utility.yul\":3171:3177   */\n      dup5\n        /* \"#utility.yul\":3107:3185   */\n      tag_46\n      jump\t// in\n    tag_86:\n        /* \"#utility.yul\":3099:3185   */\n      swap1\n      pop\n        /* \"#utility.yul\":2879:3192   */\n      swap3\n      swap2\n      pop\n      pop\n      jump\t// out\n        /* \"#utility.yul\":3198:3361   */\n    tag_47:\n        /* \"#utility.yul\":3338:3353   */\n      0x696e76616c69642076616c756500000000000000000000000000000000000000\n        /* \"#utility.yul\":3334:3335   */\n      0x00\n        /* \"#utility.yul\":3326:3332   */\n      dup3\n        /* \"#utility.yul\":3322:3336   */\n      add\n        /* \"#utility.yul\":3315:3354   */\n      mstore\n        /* \"#utility.yul\":3198:3361   */\n      pop\n      jump\t// out\n        /* \"#utility.yul\":3367:3733   */\n    tag_48:\n        /* \"#utility.yul\":3509:3512   */\n      0x00\n        /* \"#utility.yul\":3530:3597   */\n      tag_89\n        /* \"#utility.yul\":3594:3596   */\n      0x0d\n        /* \"#utility.yul\":3589:3592   */\n      dup4\n        /* \"#utility.yul\":3530:3597   */\n      tag_43\n      jump\t// in\n    tag_89:\n        /* \"#utility.yul\":3523:3597   */\n      swap2\n      pop\n        /* \"#utility.yul\":3606:3699   */\n      tag_90\n        /* \"#utility.yul\":3695:3698   */\n      dup3\n        /* \"#utility.yul\":3606:3699   */\n      tag_47\n      jump\t// in\n    tag_90:\n        /* \"#utility.yul\":3724:3726   */\n      0x20\n        /* \"#utility.yul\":3719:3722   */\n      dup3\n        /* \"#utility.yul\":3715:3727   */\n      add\n        /* \"#utility.yul\":3708:3727   */\n      swap1\n      pop\n        /* \"#utility.yul\":3367:3733   */\n      swap2\n      swap1\n      pop\n      jump\t// out\n        /* \"#utility.yul\":3739:4158   */\n    tag_27:\n        /* \"#utility.yul\":3905:3909   */\n      0x00\n        /* \"#utility.yul\":3943:3945   */\n      0x20\n        /* \"#utility.yul\":3932:3941   */\n      dup3\n        /* \"#utility.yul\":3928:3946   */\n      add\n        /* \"#utility.yul\":3920:3946   */\n      swap1\n      pop\n        /* \"#utility.yul\":3992:4001   */\n      dup2\n        /* \"#utility.yul\":3986:3990   */\n      dup2\n        /* \"#utility.yul\":3982:4002   */\n      sub\n        /* \"#utility.yul\":3978:3979   */\n      0x00\n        /* \"#utility.yul\":3967:3976   */\n      dup4\n        /* \"#utility.yul\":3963:3980   */\n      add\n        /* \"#utility.yul\":3956:4003   */\n      mstore\n        /* \"#utility.yul\":4020:4151   */\n      tag_92\n        /* \"#utility.yul\":4146:4150   */\n      dup2\n        /* \"#utility.yul\":4020:4151   */\n      tag_48\n      jump\t// in\n    tag_92:\n        /* \"#utility.yul\":4012:4151   */\n      swap1\n      pop\n        /* \"#utility.yul\":3739:4158   */\n      swap2\n      swap1\n      pop\n      jump\t// out\n        /* \"#utility.yul\":4164:4328   */\n    tag_49:\n        /* \"#utility.yul\":4304:4320   */\n      0x72657175697265206661696c6564000000000000000000000000000000000000\n        /* \"#utility.yul\":4300:4301   */\n      0x00\n        /* \"#utility.yul\":4292:4298   */\n      dup3\n        /* \"#utility.yul\":4288:4302   */\n      add\n        /* \"#utility.yul\":4281:4321   */\n      mstore\n        /* \"#utility.yul\":4164:4328   */\n      pop\n      jump\t// out\n        /* \"#utility.yul\":4334:4700   */\n    tag_50:\n        /* \"#utility.yul\":4476:4479   */\n      0x00\n        /* \"#utility.yul\":4497:4564   */\n      tag_95\n        /* \"#utility.yul\":4561:4563   */\n      0x0e\n        /* \"#utility.yul\":4556:4559   */\n      dup4\n        /* \"#utility.yul\":4497:4564   */\n      tag_43\n      jump\t// in\n    tag_95:\n        /* \"#utility.yul\":4490:4564   */\n      swap2\n      pop\n        /* \"#utility.yul\":4573:4666   */\n      tag_96\n        /* \"#utility.yul\":4662:4665   */\n      dup3\n        /* \"#utility.yul\":4573:4666   */\n      tag_49\n      jump\t// in\n    tag_96:\n        /* \"#utility.yul\":4691:4693   */\n      0x20\n        /* \"#utility.yul\":4686:4689   */\n      dup3\n        /* \"#utility.yul\":4682:4694   */\n      add\n        /* \"#utility.yul\":4675:4694   */\n      swap1\n      pop\n        /* \"#utility.yul\":4334:4700   */\n      swap2\n      swap1\n      pop\n      jump\t// out\n        /* \"#utility.yul\":4706:5125   */\n    tag_31:\n        /* \"#utility.yul\":4872:4876   */\n      0x00\n        /* \"#utility.yul\":4910:4912   */\n      0x20\n        /* \"#utility.yul\":4899:4908   */\n      dup3\n        /* \"#utility.yul\":4895:4913   */\n      add\n        /* \"#utility.yul\":4887:4913   */\n      swap1\n      pop\n        /* \"#utility.yul\":4959:4968   */\n      dup2\n        /* \"#utility.yul\":4953:4957   */\n      dup2\n        /* \"#utility.yul\":4949:4969   */\n      sub\n        /* \"#utility.yul\":4945:4946   */\n      0x00\n        /* \"#utility.yul\":4934:4943   */\n      dup4\n        /* \"#utility.yul\":4930:4947   */\n      add\n        /* \"#utility.yul\":4923:4970   */\n      mstore\n        /* \"#utility.yul\":4987:5118   */\n      tag_98\n        /* \"#utility.yul\":5113:5117   */\n      dup2\n        /* \"#utility.yul\":4987:5118   */\n      tag_50\n      jump\t// in\n    tag_98:\n        /* \"#utility.yul\":4979:5118   */\n      swap1\n      pop\n        /* \"#utility.yul\":4706:5125   */\n      swap2\n      swap1\n      pop\n      jump\t// out\n\n    auxdata: 0xa26469706673582212205da2848370b47e921722266649f3d043f5b4c36d4cedfaff67e79ced3caaf18d64736f6c634300081f0033\n}\n",
				"bytecode": {
					"linkReferences": {},
					"object": "608060405234801561000f575f5ffd5b506040516106a23803806106a28339818101604052810190610031919061017f565b5f73ffffffffffffffffffffffffffffffffffffffff168173ffffffffffffffffffffffffffffffffffffffff160361009f576040517f08c379a000000000000000000000000000000000000000000000000000000000815260040161009690610204565b60405180910390fd5b600173ffffffffffffffffffffffffffffffffffffffff168173ffffffffffffffffffffffffffffffffffffffff16036100dc576100db610222565b5b805f5f6101000a81548173ffffffffffffffffffffffffffffffffffffffff021916908373ffffffffffffffffffffffffffffffffffffffff1602179055505061024f565b5f5ffd5b5f73ffffffffffffffffffffffffffffffffffffffff82169050919050565b5f61014e82610125565b9050919050565b61015e81610144565b8114610168575f5ffd5b50565b5f8151905061017981610155565b92915050565b5f6020828403121561019457610193610121565b5b5f6101a18482850161016b565b91505092915050565b5f82825260208201905092915050565b7f696e76616c6964206164647265737300000000000000000000000000000000005f82015250565b5f6101ee600f836101aa565b91506101f9826101ba565b602082019050919050565b5f6020820190508181035f83015261021b816101e2565b9050919050565b7f4e487b71000000000000000000000000000000000000000000000000000000005f52600160045260245ffd5b6104468061025c5f395ff3fe608060405234801561000f575f5ffd5b506004361061004a575f3560e01c80630c55699c1461004e5780634018d9aa1461006c5780638da5cb5b14610088578063a9bf5633146100a6575b5f5ffd5b6100566100d6565b60405161006391906101e6565b60405180910390f35b6100866004803603810190610081919061022d565b6100dc565b005b610090610129565b60405161009d9190610297565b60405180910390f35b6100c060048036038101906100bb919061022d565b61014d565b6040516100cd9190610320565b60405180910390f35b60015481565b600a811161011f576040517f08c379a00000000000000000000000000000000000000000000000000000000081526004016101169061038a565b60405180910390fd5b8060018190555050565b5f5f9054906101000a900473ffffffffffffffffffffffffffffffffffffffff1681565b60605f8203610191576040517f08c379a0000000000000000000000000000000000000000000000000000000008152600401610188906103f2565b60405180910390fd5b6040518060400160405280601281526020017f6d7946756e63207761732063616c6c65642100000000000000000000000000008152509050919050565b5f819050919050565b6101e0816101ce565b82525050565b5f6020820190506101f95f8301846101d7565b92915050565b5f5ffd5b61020c816101ce565b8114610216575f5ffd5b50565b5f8135905061022781610203565b92915050565b5f60208284031215610242576102416101ff565b5b5f61024f84828501610219565b91505092915050565b5f73ffffffffffffffffffffffffffffffffffffffff82169050919050565b5f61028182610258565b9050919050565b61029181610277565b82525050565b5f6020820190506102aa5f830184610288565b92915050565b5f81519050919050565b5f82825260208201905092915050565b8281835e5f83830152505050565b5f601f19601f8301169050919050565b5f6102f2826102b0565b6102fc81856102ba565b935061030c8185602086016102ca565b610315816102d8565b840191505092915050565b5f6020820190508181035f83015261033881846102e8565b905092915050565b7f696e76616c69642076616c7565000000000000000000000000000000000000005f82015250565b5f610374600d836102ba565b915061037f82610340565b602082019050919050565b5f6020820190508181035f8301526103a181610368565b9050919050565b7f72657175697265206661696c65640000000000000000000000000000000000005f82015250565b5f6103dc600e836102ba565b91506103e7826103a8565b602082019050919050565b5f6020820190508181035f830152610409816103d0565b905091905056fea26469706673582212205da2848370b47e921722266649f3d043f5b4c36d4cedfaff67e79ced3caaf18d64736f6c634300081f0033",
					"opcodes": "PUSH1 0x80 PUSH1 0x40 MSTORE CALLVALUE DUP1 ISZERO PUSH2 0xF JUMPI PUSH0 PUSH0 REVERT JUMPDEST POP PUSH1 0x40 MLOAD PUSH2 0x6A2 CODESIZE SUB DUP1 PUSH2 0x6A2 DUP4 CODECOPY DUP2 DUP2 ADD PUSH1 0x40 MSTORE DUP2 ADD SWAP1 PUSH2 0x31 SWAP2 SWAP1 PUSH2 0x17F JUMP JUMPDEST PUSH0 PUSH20 0xFFFFFFFFFFFFFFFFFFFFFFFFFFFFFFFFFFFFFFFF AND DUP2 PUSH20 0xFFFFFFFFFFFFFFFFFFFFFFFFFFFFFFFFFFFFFFFF AND SUB PUSH2 0x9F JUMPI PUSH1 0x40 MLOAD PUSH32 0x8C379A000000000000000000000000000000000000000000000000000000000 DUP2 MSTORE PUSH1 0x4 ADD PUSH2 0x96 SWAP1 PUSH2 0x204 JUMP JUMPDEST PUSH1 0x40 MLOAD DUP1 SWAP2 SUB SWAP1 REVERT JUMPDEST PUSH1 0x1 PUSH20 0xFFFFFFFFFFFFFFFFFFFFFFFFFFFFFFFFFFFFFFFF AND DUP2 PUSH20 0xFFFFFFFFFFFFFFFFFFFFFFFFFFFFFFFFFFFFFFFF AND SUB PUSH2 0xDC JUMPI PUSH2 0xDB PUSH2 0x222 JUMP JUMPDEST JUMPDEST DUP1 PUSH0 PUSH0 PUSH2 0x100 EXP DUP2 SLOAD DUP2 PUSH20 0xFFFFFFFFFFFFFFFFFFFFFFFFFFFFFFFFFFFFFFFF MUL NOT AND SWAP1 DUP4 PUSH20 0xFFFFFFFFFFFFFFFFFFFFFFFFFFFFFFFFFFFFFFFF AND MUL OR SWAP1 SSTORE POP POP PUSH2 0x24F JUMP JUMPDEST PUSH0 PUSH0 REVERT JUMPDEST PUSH0 PUSH20 0xFFFFFFFFFFFFFFFFFFFFFFFFFFFFFFFFFFFFFFFF DUP3 AND SWAP1 POP SWAP2 SWAP1 POP JUMP JUMPDEST PUSH0 PUSH2 0x14E DUP3 PUSH2 0x125 JUMP JUMPDEST SWAP1 POP SWAP2 SWAP1 POP JUMP JUMPDEST PUSH2 0x15E DUP2 PUSH2 0x144 JUMP JUMPDEST DUP2 EQ PUSH2 0x168 JUMPI PUSH0 PUSH0 REVERT JUMPDEST POP JUMP JUMPDEST PUSH0 DUP2 MLOAD SWAP1 POP PUSH2 0x179 DUP2 PUSH2 0x155 JUMP JUMPDEST SWAP3 SWAP2 POP POP JUMP JUMPDEST PUSH0 PUSH1 0x20 DUP3 DUP5 SUB SLT ISZERO PUSH2 0x194 JUMPI PUSH2 0x193 PUSH2 0x121 JUMP JUMPDEST JUMPDEST PUSH0 PUSH2 0x1A1 DUP5 DUP3 DUP6 ADD PUSH2 0x16B JUMP JUMPDEST SWAP2 POP POP SWAP3 SWAP2 POP POP JUMP JUMPDEST PUSH0 DUP3 DUP3 MSTORE PUSH1 0x20 DUP3 ADD SWAP1 POP SWAP3 SWAP2 POP POP JUMP JUMPDEST PUSH32 0x696E76616C696420616464726573730000000000000000000000000000000000 PUSH0 DUP3 ADD MSTORE POP JUMP JUMPDEST PUSH0 PUSH2 0x1EE PUSH1 0xF DUP4 PUSH2 0x1AA JUMP JUMPDEST SWAP2 POP PUSH2 0x1F9 DUP3 PUSH2 0x1BA JUMP JUMPDEST PUSH1 0x20 DUP3 ADD SWAP1 POP SWAP2 SWAP1 POP JUMP JUMPDEST PUSH0 PUSH1 0x20 DUP3 ADD SWAP1 POP DUP2 DUP2 SUB PUSH0 DUP4 ADD MSTORE PUSH2 0x21B DUP2 PUSH2 0x1E2 JUMP JUMPDEST SWAP1 POP SWAP2 SWAP1 POP JUMP JUMPDEST PUSH32 0x4E487B7100000000000000000000000000000000000000000000000000000000 PUSH0 MSTORE PUSH1 0x1 PUSH1 0x4 MSTORE PUSH1 0x24 PUSH0 REVERT JUMPDEST PUSH2 0x446 DUP1 PUSH2 0x25C PUSH0 CODECOPY PUSH0 RETURN INVALID PUSH1 0x80 PUSH1 0x40 MSTORE CALLVALUE DUP1 ISZERO PUSH2 0xF JUMPI PUSH0 PUSH0 REVERT JUMPDEST POP PUSH1 0x4 CALLDATASIZE LT PUSH2 0x4A JUMPI PUSH0 CALLDATALOAD PUSH1 0xE0 SHR DUP1 PUSH4 0xC55699C EQ PUSH2 0x4E JUMPI DUP1 PUSH4 0x4018D9AA EQ PUSH2 0x6C JUMPI DUP1 PUSH4 0x8DA5CB5B EQ PUSH2 0x88 JUMPI DUP1 PUSH4 0xA9BF5633 EQ PUSH2 0xA6 JUMPI JUMPDEST PUSH0 PUSH0 REVERT JUMPDEST PUSH2 0x56 PUSH2 0xD6 JUMP JUMPDEST PUSH1 0x40 MLOAD PUSH2 0x63 SWAP2 SWAP1 PUSH2 0x1E6 JUMP JUMPDEST PUSH1 0x40 MLOAD DUP1 SWAP2 SUB SWAP1 RETURN JUMPDEST PUSH2 0x86 PUSH1 0x4 DUP1 CALLDATASIZE SUB DUP2 ADD SWAP1 PUSH2 0x81 SWAP2 SWAP1 PUSH2 0x22D JUMP JUMPDEST PUSH2 0xDC JUMP JUMPDEST STOP JUMPDEST PUSH2 0x90 PUSH2 0x129 JUMP JUMPDEST PUSH1 0x40 MLOAD PUSH2 0x9D SWAP2 SWAP1 PUSH2 0x297 JUMP JUMPDEST PUSH1 0x40 MLOAD DUP1 SWAP2 SUB SWAP1 RETURN JUMPDEST PUSH2 0xC0 PUSH1 0x4 DUP1 CALLDATASIZE SUB DUP2 ADD SWAP1 PUSH2 0xBB SWAP2 SWAP1 PUSH2 0x22D JUMP JUMPDEST PUSH2 0x14D JUMP JUMPDEST PUSH1 0x40 MLOAD PUSH2 0xCD SWAP2 SWAP1 PUSH2 0x320 JUMP JUMPDEST PUSH1 0x40 MLOAD DUP1 SWAP2 SUB SWAP1 RETURN JUMPDEST PUSH1 0x1 SLOAD DUP2 JUMP JUMPDEST PUSH1 0xA DUP2 GT PUSH2 0x11F JUMPI PUSH1 0x40 MLOAD PUSH32 0x8C379A000000000000000000000000000000000000000000000000000000000 DUP2 MSTORE PUSH1 0x4 ADD PUSH2 0x116 SWAP1 PUSH2 0x38A JUMP JUMPDEST PUSH1 0x40 MLOAD DUP1 SWAP2 SUB SWAP1 REVERT JUMPDEST DUP1 PUSH1 0x1 DUP2 SWAP1 SSTORE POP POP JUMP JUMPDEST PUSH0 PUSH0 SWAP1 SLOAD SWAP1 PUSH2 0x100 EXP SWAP1 DIV PUSH20 0xFFFFFFFFFFFFFFFFFFFFFFFFFFFFFFFFFFFFFFFF AND DUP2 JUMP JUMPDEST PUSH1 0x60 PUSH0 DUP3 SUB PUSH2 0x191 JUMPI PUSH1 0x40 MLOAD PUSH32 0x8C379A000000000000000000000000000000000000000000000000000000000 DUP2 MSTORE PUSH1 0x4 ADD PUSH2 0x188 SWAP1 PUSH2 0x3F2 JUMP JUMPDEST PUSH1 0x40 MLOAD DUP1 SWAP2 SUB SWAP1 REVERT JUMPDEST PUSH1 0x40 MLOAD DUP1 PUSH1 0x40 ADD PUSH1 0x40 MSTORE DUP1 PUSH1 0x12 DUP2 MSTORE PUSH1 0x20 ADD PUSH32 0x6D7946756E63207761732063616C6C6564210000000000000000000000000000 DUP2 MSTORE POP SWAP1 POP SWAP2 SWAP1 POP JUMP JUMPDEST PUSH0 DUP2 SWAP1 POP SWAP2 SWAP1 POP JUMP JUMPDEST PUSH2 0x1E0 DUP2 PUSH2 0x1CE JUMP JUMPDEST DUP3 MSTORE POP POP JUMP JUMPDEST PUSH0 PUSH1 0x20 DUP3 ADD SWAP1 POP PUSH2 0x1F9 PUSH0 DUP4 ADD DUP5 PUSH2 0x1D7 JUMP JUMPDEST SWAP3 SWAP2 POP POP JUMP JUMPDEST PUSH0 PUSH0 REVERT JUMPDEST PUSH2 0x20C DUP2 PUSH2 0x1CE JUMP JUMPDEST DUP2 EQ PUSH2 0x216 JUMPI PUSH0 PUSH0 REVERT JUMPDEST POP JUMP JUMPDEST PUSH0 DUP2 CALLDATALOAD SWAP1 POP PUSH2 0x227 DUP2 PUSH2 0x203 JUMP JUMPDEST SWAP3 SWAP2 POP POP JUMP JUMPDEST PUSH0 PUSH1 0x20 DUP3 DUP5 SUB SLT ISZERO PUSH2 0x242 JUMPI PUSH2 0x241 PUSH2 0x1FF JUMP JUMPDEST JUMPDEST PUSH0 PUSH2 0x24F DUP5 DUP3 DUP6 ADD PUSH2 0x219 JUMP JUMPDEST SWAP2 POP POP SWAP3 SWAP2 POP POP JUMP JUMPDEST PUSH0 PUSH20 0xFFFFFFFFFFFFFFFFFFFFFFFFFFFFFFFFFFFFFFFF DUP3 AND SWAP1 POP SWAP2 SWAP1 POP JUMP JUMPDEST PUSH0 PUSH2 0x281 DUP3 PUSH2 0x258 JUMP JUMPDEST SWAP1 POP SWAP2 SWAP1 POP JUMP JUMPDEST PUSH2 0x291 DUP2 PUSH2 0x277 JUMP JUMPDEST DUP3 MSTORE POP POP JUMP JUMPDEST PUSH0 PUSH1 0x20 DUP3 ADD SWAP1 POP PUSH2 0x2AA PUSH0 DUP4 ADD DUP5 PUSH2 0x288 JUMP JUMPDEST SWAP3 SWAP2 POP POP JUMP JUMPDEST PUSH0 DUP2 MLOAD SWAP1 POP SWAP2 SWAP1 POP JUMP JUMPDEST PUSH0 DUP3 DUP3 MSTORE PUSH1 0x20 DUP3 ADD SWAP1 POP SWAP3 SWAP2 POP POP JUMP JUMPDEST DUP3 DUP2 DUP4 MCOPY PUSH0 DUP4 DUP4 ADD MSTORE POP POP POP JUMP JUMPDEST PUSH0 PUSH1 0x1F NOT PUSH1 0x1F DUP4 ADD AND SWAP1 POP SWAP2 SWAP1 POP JUMP JUMPDEST PUSH0 PUSH2 0x2F2 DUP3 PUSH2 0x2B0 JUMP JUMPDEST PUSH2 0x2FC DUP2 DUP6 PUSH2 0x2BA JUMP JUMPDEST SWAP4 POP PUSH2 0x30C DUP2 DUP6 PUSH1 0x20 DUP7 ADD PUSH2 0x2CA JUMP JUMPDEST PUSH2 0x315 DUP2 PUSH2 0x2D8 JUMP JUMPDEST DUP5 ADD SWAP2 POP POP SWAP3 SWAP2 POP POP JUMP JUMPDEST PUSH0 PUSH1 0x20 DUP3 ADD SWAP1 POP DUP2 DUP2 SUB PUSH0 DUP4 ADD MSTORE PUSH2 0x338 DUP2 DUP5 PUSH2 0x2E8 JUMP JUMPDEST SWAP1 POP SWAP3 SWAP2 POP POP JUMP JUMPDEST PUSH32 0x696E76616C69642076616C756500000000000000000000000000000000000000 PUSH0 DUP3 ADD MSTORE POP JUMP JUMPDEST PUSH0 PUSH2 0x374 PUSH1 0xD DUP4 PUSH2 0x2BA JUMP JUMPDEST SWAP2 POP PUSH2 0x37F DUP3 PUSH2 0x340 JUMP JUMPDEST PUSH1 0x20 DUP3 ADD SWAP1 POP SWAP2 SWAP1 POP JUMP JUMPDEST PUSH0 PUSH1 0x20 DUP3 ADD SWAP1 POP DUP2 DUP2 SUB PUSH0 DUP4 ADD MSTORE PUSH2 0x3A1 DUP2 PUSH2 0x368 JUMP JUMPDEST SWAP1 POP SWAP2 SWAP1 POP JUMP JUMPDEST PUSH32 0x72657175697265206661696C6564000000000000000000000000000000000000 PUSH0 DUP3 ADD MSTORE POP JUMP JUMPDEST PUSH0 PUSH2 0x3DC PUSH1 0xE DUP4 PUSH2 0x2BA JUMP JUMPDEST SWAP2 POP PUSH2 0x3E7 DUP3 PUSH2 0x3A8 JUMP JUMPDEST PUSH1 0x20 DUP3 ADD SWAP1 POP SWAP2 SWAP1 POP JUMP JUMPDEST PUSH0 PUSH1 0x20 DUP3 ADD SWAP1 POP DUP2 DUP2 SUB PUSH0 DUP4 ADD MSTORE PUSH2 0x409 DUP2 PUSH2 0x3D0 JUMP JUMPDEST SWAP1 POP SWAP2 SWAP1 POP JUMP INVALID LOG2 PUSH5 0x6970667358 0x22 SLT KECCAK256 TSTORE LOG2 DUP5 DUP4 PUSH17 0xB47E921722266649F3D043F5B4C36D4CED STATICCALL SELFDESTRUCT PUSH8 0xE79CED3CAAF18D64 PUSH20 0x6F6C634300081F00330000000000000000000000 "
				},
				"gasEstimates": {
					"creation": {
						"codeDepositCost": "218800",
						"executionCost": "infinite",
						"totalCost": "infinite"
					},
					"external": {
						"myFunc(uint256)": "infinite",
						"owner()": "2529",
						"setX(uint256)": "22538",
						"x()": "2403"
					}
				},
				"methodIdentifiers": {
					"myFunc(uint256)": "a9bf5633",
					"owner()": "8da5cb5b",
					"setX(uint256)": "4018d9aa",
					"x()": "0c55699c"
				}
			},
			"storageLayout": {
				"storage": [
					{
						"astId": 3,
						"contract": "Sol_by_Example/Basics/31.TryAndCatch.sol:Foo",
						"label": "owner",
						"offset": 0,
						"slot": "0",
						"type": "t_address"
					},
					{
						"astId": 5,
						"contract": "Sol_by_Example/Basics/31.TryAndCatch.sol:Foo",
						"label": "x",
						"offset": 0,
						"slot": "1",
						"type": "t_uint256"
					}
				],
				"types": {
					"t_address": {
						"encoding": "inplace",
						"label": "address",
						"numberOfBytes": "20"
					},
					"t_uint256": {
						"encoding": "inplace",
						"label": "uint256",
						"numberOfBytes": "32"
					}
				}
			},
			"userdoc": {
				"kind": "user",
				"methods": {},
				"version": 1
			}
		}
	}
}