{
	"Sol_by_Example/Basics/31.TryAndCatch.sol": {
		"Bar": {
			"abi": [
				{
					"inputs": [],
					"stateMutability": "nonpayable",
					"type": "constructor"
				},
				{
					"anonymous": false,
					"inputs": [
						{
							"indexed": false,
							"internalType": "string",
							"name": "message",
							"type": "string"
						}
					],
					"name": "Log",
					"type": "event"
				},
				{
					"anonymous": false,
					"inputs": [
						{
							"indexed": false,
							"internalType": "bytes",
							"name": "data",
							"type": "bytes"
						}
					],
					"name": "LogBytes",
					"type": "event"
				},
				{
					"inputs": [],
					"name": "foo",
					"outputs": [
						{
							"internalType": "contract Foo",
							"name": "",
							"type": "address"
						}
					],
					"stateMutability": "view",
					"type": "function"
				},
				{
					"inputs": [
						{
							"internalType": "uint256",
							"name": "_i",
							"type": "uint256"
						}
					],
					"name": "tryCatchExternalCall",
					"outputs": [],
					"stateMutability": "nonpayable",
					"type": "function"
				},
				{
					"inputs": [
						{
							"internalType": "address",
							"name": "_owner",
							"type": "address"
						}
					],
					"name": "tryCatchNewContract",
					"outputs": [],
					"stateMutability": "nonpayable",
					"type": "function"
				}
			],
			"devdoc": {
				"kind": "dev",
				"methods": {},
				"version": 1
			},
			"evm": {
				"assembly": "    /* \"Sol_by_Example/Basics/31.TryAndCatch.sol\":716:2111  contract Bar {... */\n  mstore(0x40, 0x80)\n    /* \"Sol_by_Example/Basics/31.TryAndCatch.sol\":820:952  constructor() {... */\n  callvalue\n  dup1\n  iszero\n  tag_1\n  jumpi\n  revert(0x00, 0x00)\ntag_1:\n  pop\n    /* \"Sol_by_Example/Basics/31.TryAndCatch.sol\":934:944  msg.sender */\n  caller\n    /* \"Sol_by_Example/Basics/31.TryAndCatch.sol\":926:945  new Foo(msg.sender) */\n  mload(0x40)\n  tag_4\n  swap1\n  tag_5\n  jump\t// in\ntag_4:\n  tag_6\n  swap2\n  swap1\n  tag_7\n  jump\t// in\ntag_6:\n  mload(0x40)\n  dup1\n  swap2\n  sub\n  swap1\n  0x00\n  create\n  dup1\n  iszero\n  dup1\n  iszero\n  tag_8\n  jumpi\n  returndatacopy(0x00, 0x00, returndatasize)\n  revert(0x00, returndatasize)\ntag_8:\n  pop\n    /* \"Sol_by_Example/Basics/31.TryAndCatch.sol\":920:923  foo */\n  0x00\n  0x00\n    /* \"Sol_by_Example/Basics/31.TryAndCatch.sol\":920:945  foo = new Foo(msg.sender) */\n  0x0100\n  exp\n  dup2\n  sload\n  dup2\n  0xffffffffffffffffffffffffffffffffffffffff\n  mul\n  not\n  and\n  swap1\n  dup4\n  0xffffffffffffffffffffffffffffffffffffffff\n  and\n  mul\n  or\n  swap1\n  sstore\n  pop\n    /* \"Sol_by_Example/Basics/31.TryAndCatch.sol\":716:2111  contract Bar {... */\n  jump(tag_9)\ntag_5:\n  dataSize(sub_1)\n  dup1\n  dataOffset(sub_1)\n  dup4\n  codecopy\n  add\n  swap1\n  jump\t// out\n    /* \"#utility.yul\":7:133   */\ntag_10:\n    /* \"#utility.yul\":44:51   */\n  0x00\n    /* \"#utility.yul\":84:126   */\n  0xffffffffffffffffffffffffffffffffffffffff\n    /* \"#utility.yul\":77:82   */\n  dup3\n    /* \"#utility.yul\":73:127   */\n  and\n    /* \"#utility.yul\":62:127   */\n  swap1\n  pop\n    /* \"#utility.yul\":7:133   */\n  swap2\n  swap1\n  pop\n  jump\t// out\n    /* \"#utility.yul\":139:235   */\ntag_11:\n    /* \"#utility.yul\":176:183   */\n  0x00\n    /* \"#utility.yul\":205:229   */\n  tag_16\n    /* \"#utility.yul\":223:228   */\n  dup3\n    /* \"#utility.yul\":205:229   */\n  tag_10\n  jump\t// in\ntag_16:\n    /* \"#utility.yul\":194:229   */\n  swap1\n  pop\n    /* \"#utility.yul\":139:235   */\n  swap2\n  swap1\n  pop\n  jump\t// out\n    /* \"#utility.yul\":241:359   */\ntag_12:\n    /* \"#utility.yul\":328:352   */\n  tag_18\n    /* \"#utility.yul\":346:351   */\n  dup2\n    /* \"#utility.yul\":328:352   */\n  tag_11\n  jump\t// in\ntag_18:\n    /* \"#utility.yul\":323:326   */\n  dup3\n    /* \"#utility.yul\":316:353   */\n  mstore\n    /* \"#utility.yul\":241:359   */\n  pop\n  pop\n  jump\t// out\n    /* \"#utility.yul\":365:587   */\ntag_7:\n    /* \"#utility.yul\":458:462   */\n  0x00\n    /* \"#utility.yul\":496:498   */\n  0x20\n    /* \"#utility.yul\":485:494   */\n  dup3\n    /* \"#utility.yul\":481:499   */\n  add\n    /* \"#utility.yul\":473:499   */\n  swap1\n  pop\n    /* \"#utility.yul\":509:580   */\n  tag_20\n    /* \"#utility.yul\":577:578   */\n  0x00\n    /* \"#utility.yul\":566:575   */\n  dup4\n    /* \"#utility.yul\":562:579   */\n  add\n    /* \"#utility.yul\":553:559   */\n  dup5\n    /* \"#utility.yul\":509:580   */\n  tag_12\n  jump\t// in\ntag_20:\n    /* \"#utility.yul\":365:587   */\n  swap3\n  swap2\n  pop\n  pop\n  jump\t// out\n    /* \"Sol_by_Example/Basics/31.TryAndCatch.sol\":716:2111  contract Bar {... */\ntag_9:\n  dataSize(sub_0)\n  dup1\n  dataOffset(sub_0)\n  0x00\n  codecopy\n  0x00\n  return\nstop\n\nsub_0: assembly {\n        /* \"Sol_by_Example/Basics/31.TryAndCatch.sol\":716:2111  contract Bar {... */\n      mstore(0x40, 0x80)\n      callvalue\n      dup1\n      iszero\n      tag_1\n      jumpi\n      revert(0x00, 0x00)\n    tag_1:\n      pop\n      jumpi(tag_2, lt(calldatasize, 0x04))\n      shr(0xe0, calldataload(0x00))\n      dup1\n      0x77bdab83\n      eq\n      tag_3\n      jumpi\n      dup1\n      0x933ac084\n      eq\n      tag_4\n      jumpi\n      dup1\n      0xc2985578\n      eq\n      tag_5\n      jumpi\n    tag_2:\n      revert(0x00, 0x00)\n        /* \"Sol_by_Example/Basics/31.TryAndCatch.sol\":1689:2109  function tryCatchNewContract(address _owner) public {... */\n    tag_3:\n      tag_6\n      0x04\n      dup1\n      calldatasize\n      sub\n      dup2\n      add\n      swap1\n      tag_7\n      swap2\n      swap1\n      tag_8\n      jump\t// in\n    tag_7:\n      tag_9\n      jump\t// in\n    tag_6:\n      stop\n        /* \"Sol_by_Example/Basics/31.TryAndCatch.sol\":1127:1352  function tryCatchExternalCall(uint _i) public {... */\n    tag_4:\n      tag_10\n      0x04\n      dup1\n      calldatasize\n      sub\n      dup2\n      add\n      swap1\n      tag_11\n      swap2\n      swap1\n      tag_12\n      jump\t// in\n    tag_11:\n      tag_13\n      jump\t// in\n    tag_10:\n      stop\n        /* \"Sol_by_Example/Basics/31.TryAndCatch.sol\":799:813  Foo public foo */\n    tag_5:\n      tag_14\n      tag_15\n      jump\t// in\n    tag_14:\n      mload(0x40)\n      tag_16\n      swap2\n      swap1\n      tag_17\n      jump\t// in\n    tag_16:\n      mload(0x40)\n      dup1\n      swap2\n      sub\n      swap1\n      return\n        /* \"Sol_by_Example/Basics/31.TryAndCatch.sol\":1689:2109  function tryCatchNewContract(address _owner) public {... */\n    tag_9:\n        /* \"Sol_by_Example/Basics/31.TryAndCatch.sol\":1763:1769  _owner */\n      dup1\n        /* \"Sol_by_Example/Basics/31.TryAndCatch.sol\":1755:1770  new Foo(_owner) */\n      mload(0x40)\n      tag_19\n      swap1\n      tag_20\n      jump\t// in\n    tag_19:\n      tag_21\n      swap2\n      swap1\n      tag_22\n      jump\t// in\n    tag_21:\n      mload(0x40)\n      dup1\n      swap2\n      sub\n      swap1\n      0x00\n      create\n      dup1\n      iszero\n      tag_23\n      jumpi\n      0x01\n    tag_23:\n        /* \"Sol_by_Example/Basics/31.TryAndCatch.sol\":1751:2103  try new Foo(_owner) returns (Foo _foo) {... */\n      tag_24\n      jumpi\n      tag_28\n      tag_29\n      jump\t// in\n    tag_28:\n      dup1\n      0x08c379a0\n      sub\n      tag_27\n      jumpi\n      pop\n      tag_30\n      tag_31\n      jump\t// in\n    tag_30:\n      dup1\n      tag_32\n      jumpi\n      pop\n      jump(tag_26)\n    tag_32:\n        /* \"Sol_by_Example/Basics/31.TryAndCatch.sol\":1960:1971  Log(reason) */\n      0xcf34ef537ac33ee1ac626ca1587a0a7e8e51561e5514f8cb36afa1c5102b3bab\n        /* \"Sol_by_Example/Basics/31.TryAndCatch.sol\":1964:1970  reason */\n      dup2\n        /* \"Sol_by_Example/Basics/31.TryAndCatch.sol\":1960:1971  Log(reason) */\n      mload(0x40)\n      tag_33\n      swap2\n      swap1\n      tag_34\n      jump\t// in\n    tag_33:\n      mload(0x40)\n      dup1\n      swap2\n      sub\n      swap1\n      log1\n        /* \"Sol_by_Example/Basics/31.TryAndCatch.sol\":1907:1982  catch Error(string memory reason) {... */\n      pop\n        /* \"Sol_by_Example/Basics/31.TryAndCatch.sol\":1751:2103  try new Foo(_owner) returns (Foo _foo) {... */\n      jump(tag_25)\n    tag_27:\n      pop\n    tag_26:\n      returndatasize\n      dup1\n      0x00\n      dup2\n      eq\n      tag_36\n      jumpi\n      mload(0x40)\n      swap2\n      pop\n      and(add(returndatasize, 0x3f), not(0x1f))\n      dup3\n      add\n      0x40\n      mstore\n      returndatasize\n      dup3\n      mstore\n      returndatasize\n      0x00\n      0x20\n      dup5\n      add\n      returndatacopy\n      jump(tag_35)\n    tag_36:\n      0x60\n      swap2\n      pop\n    tag_35:\n      pop\n        /* \"Sol_by_Example/Basics/31.TryAndCatch.sol\":2076:2092  LogBytes(reason) */\n      0x532fd6ea96cfb78bb46e09279a26828b8b493de1a2b8b1ee1face527978a15a5\n        /* \"Sol_by_Example/Basics/31.TryAndCatch.sol\":2085:2091  reason */\n      dup2\n        /* \"Sol_by_Example/Basics/31.TryAndCatch.sol\":2076:2092  LogBytes(reason) */\n      mload(0x40)\n      tag_37\n      swap2\n      swap1\n      tag_38\n      jump\t// in\n    tag_37:\n      mload(0x40)\n      dup1\n      swap2\n      sub\n      swap1\n      log1\n        /* \"Sol_by_Example/Basics/31.TryAndCatch.sol\":1991:2103  catch (bytes memory reason) {... */\n      pop\n        /* \"Sol_by_Example/Basics/31.TryAndCatch.sol\":1751:2103  try new Foo(_owner) returns (Foo _foo) {... */\n    tag_25:\n      jump(tag_39)\n    tag_24:\n        /* \"Sol_by_Example/Basics/31.TryAndCatch.sol\":1836:1840  _foo */\n      dup1\n        /* \"Sol_by_Example/Basics/31.TryAndCatch.sol\":1836:1845  _foo.setX */\n      0xffffffffffffffffffffffffffffffffffffffff\n      and\n      0x4018d9aa\n        /* \"Sol_by_Example/Basics/31.TryAndCatch.sol\":1846:1849  100 */\n      0x64\n        /* \"Sol_by_Example/Basics/31.TryAndCatch.sol\":1836:1850  _foo.setX(100) */\n      mload(0x40)\n      dup3\n      0xffffffff\n      and\n      0xe0\n      shl\n      dup2\n      mstore\n      0x04\n      add\n      tag_40\n      swap2\n      swap1\n      tag_41\n      jump\t// in\n    tag_40:\n      0x00\n      mload(0x40)\n      dup1\n      dup4\n      sub\n      dup2\n      0x00\n      dup8\n      dup1\n      extcodesize\n      iszero\n      dup1\n      iszero\n      tag_42\n      jumpi\n      revert(0x00, 0x00)\n    tag_42:\n      pop\n      gas\n      call\n      iszero\n      dup1\n      iszero\n      tag_44\n      jumpi\n      returndatacopy(0x00, 0x00, returndatasize)\n      revert(0x00, returndatasize)\n    tag_44:\n      pop\n      pop\n      pop\n      pop\n        /* \"Sol_by_Example/Basics/31.TryAndCatch.sol\":1869:1887  Log(\"Foo created\") */\n      0xcf34ef537ac33ee1ac626ca1587a0a7e8e51561e5514f8cb36afa1c5102b3bab\n      mload(0x40)\n      tag_45\n      swap1\n      tag_46\n      jump\t// in\n    tag_45:\n      mload(0x40)\n      dup1\n      swap2\n      sub\n      swap1\n      log1\n        /* \"Sol_by_Example/Basics/31.TryAndCatch.sol\":1771:1898  returns (Foo _foo) {... */\n      pop\n        /* \"Sol_by_Example/Basics/31.TryAndCatch.sol\":1751:2103  try new Foo(_owner) returns (Foo _foo) {... */\n    tag_39:\n        /* \"Sol_by_Example/Basics/31.TryAndCatch.sol\":1689:2109  function tryCatchNewContract(address _owner) public {... */\n      pop\n      jump\t// out\n        /* \"Sol_by_Example/Basics/31.TryAndCatch.sol\":1127:1352  function tryCatchExternalCall(uint _i) public {... */\n    tag_13:\n        /* \"Sol_by_Example/Basics/31.TryAndCatch.sol\":1187:1190  foo */\n      0x00\n      0x00\n      swap1\n      sload\n      swap1\n      0x0100\n      exp\n      swap1\n      div\n      0xffffffffffffffffffffffffffffffffffffffff\n      and\n        /* \"Sol_by_Example/Basics/31.TryAndCatch.sol\":1187:1197  foo.myFunc */\n      0xffffffffffffffffffffffffffffffffffffffff\n      and\n      0xa9bf5633\n        /* \"Sol_by_Example/Basics/31.TryAndCatch.sol\":1198:1200  _i */\n      dup3\n        /* \"Sol_by_Example/Basics/31.TryAndCatch.sol\":1187:1201  foo.myFunc(_i) */\n      mload(0x40)\n      dup3\n      0xffffffff\n      and\n      0xe0\n      shl\n      dup2\n      mstore\n      0x04\n      add\n      tag_48\n      swap2\n      swap1\n      tag_49\n      jump\t// in\n    tag_48:\n      0x00\n      mload(0x40)\n      dup1\n      dup4\n      sub\n      dup2\n      dup7\n      gas\n      staticcall\n      swap3\n      pop\n      pop\n      pop\n      dup1\n      iszero\n      tag_50\n      jumpi\n      pop\n      mload(0x40)\n      returndatasize\n      0x00\n      dup3\n      returndatacopy\n      returndatasize\n      not(0x1f)\n      0x1f\n      dup3\n      add\n      and\n      dup3\n      add\n      dup1\n      0x40\n      mstore\n      pop\n      dup2\n      add\n      swap1\n      tag_51\n      swap2\n      swap1\n      tag_52\n      jump\t// in\n    tag_51:\n      0x01\n    tag_50:\n        /* \"Sol_by_Example/Basics/31.TryAndCatch.sol\":1183:1346  try foo.myFunc(_i) returns (string memory result) {... */\n      tag_53\n      jumpi\n        /* \"Sol_by_Example/Basics/31.TryAndCatch.sol\":1308:1335  Log(\"external call failed\") */\n      0xcf34ef537ac33ee1ac626ca1587a0a7e8e51561e5514f8cb36afa1c5102b3bab\n      mload(0x40)\n      tag_57\n      swap1\n      tag_58\n      jump\t// in\n    tag_57:\n      mload(0x40)\n      dup1\n      swap2\n      sub\n      swap1\n      log1\n        /* \"Sol_by_Example/Basics/31.TryAndCatch.sol\":1183:1346  try foo.myFunc(_i) returns (string memory result) {... */\n      jump(tag_59)\n    tag_53:\n        /* \"Sol_by_Example/Basics/31.TryAndCatch.sol\":1252:1263  Log(result) */\n      0xcf34ef537ac33ee1ac626ca1587a0a7e8e51561e5514f8cb36afa1c5102b3bab\n        /* \"Sol_by_Example/Basics/31.TryAndCatch.sol\":1256:1262  result */\n      dup2\n        /* \"Sol_by_Example/Basics/31.TryAndCatch.sol\":1252:1263  Log(result) */\n      mload(0x40)\n      tag_60\n      swap2\n      swap1\n      tag_34\n      jump\t// in\n    tag_60:\n      mload(0x40)\n      dup1\n      swap2\n      sub\n      swap1\n      log1\n        /* \"Sol_by_Example/Basics/31.TryAndCatch.sol\":1202:1274  returns (string memory result) {... */\n      pop\n        /* \"Sol_by_Example/Basics/31.TryAndCatch.sol\":1183:1346  try foo.myFunc(_i) returns (string memory result) {... */\n    tag_59:\n        /* \"Sol_by_Example/Basics/31.TryAndCatch.sol\":1127:1352  function tryCatchExternalCall(uint _i) public {... */\n      pop\n      jump\t// out\n        /* \"Sol_by_Example/Basics/31.TryAndCatch.sol\":799:813  Foo public foo */\n    tag_15:\n      0x00\n      0x00\n      swap1\n      sload\n      swap1\n      0x0100\n      exp\n      swap1\n      div\n      0xffffffffffffffffffffffffffffffffffffffff\n      and\n      dup2\n      jump\t// out\n    tag_20:\n      dataSize(sub_0)\n      dup1\n      dataOffset(sub_0)\n      dup4\n      codecopy\n      add\n      swap1\n      jump\t// out\n        /* \"#utility.yul\":7:82   */\n    tag_61:\n        /* \"#utility.yul\":40:46   */\n      0x00\n        /* \"#utility.yul\":73:75   */\n      0x40\n        /* \"#utility.yul\":67:76   */\n      mload\n        /* \"#utility.yul\":57:76   */\n      swap1\n      pop\n        /* \"#utility.yul\":7:82   */\n      swap1\n      jump\t// out\n        /* \"#utility.yul\":88:205   */\n    tag_62:\n        /* \"#utility.yul\":197:198   */\n      0x00\n        /* \"#utility.yul\":194:195   */\n      0x00\n        /* \"#utility.yul\":187:199   */\n      revert\n        /* \"#utility.yul\":211:328   */\n    tag_63:\n        /* \"#utility.yul\":320:321   */\n      0x00\n        /* \"#utility.yul\":317:318   */\n      0x00\n        /* \"#utility.yul\":310:322   */\n      revert\n        /* \"#utility.yul\":334:460   */\n    tag_64:\n        /* \"#utility.yul\":371:378   */\n      0x00\n        /* \"#utility.yul\":411:453   */\n      0xffffffffffffffffffffffffffffffffffffffff\n        /* \"#utility.yul\":404:409   */\n      dup3\n        /* \"#utility.yul\":400:454   */\n      and\n        /* \"#utility.yul\":389:454   */\n      swap1\n      pop\n        /* \"#utility.yul\":334:460   */\n      swap2\n      swap1\n      pop\n      jump\t// out\n        /* \"#utility.yul\":466:562   */\n    tag_65:\n        /* \"#utility.yul\":503:510   */\n      0x00\n        /* \"#utility.yul\":532:556   */\n      tag_108\n        /* \"#utility.yul\":550:555   */\n      dup3\n        /* \"#utility.yul\":532:556   */\n      tag_64\n      jump\t// in\n    tag_108:\n        /* \"#utility.yul\":521:556   */\n      swap1\n      pop\n        /* \"#utility.yul\":466:562   */\n      swap2\n      swap1\n      pop\n      jump\t// out\n        /* \"#utility.yul\":568:690   */\n    tag_66:\n        /* \"#utility.yul\":641:665   */\n      tag_110\n        /* \"#utility.yul\":659:664   */\n      dup2\n        /* \"#utility.yul\":641:665   */\n      tag_65\n      jump\t// in\n    tag_110:\n        /* \"#utility.yul\":634:639   */\n      dup2\n        /* \"#utility.yul\":631:666   */\n      eq\n        /* \"#utility.yul\":621:684   */\n      tag_111\n      jumpi\n        /* \"#utility.yul\":680:681   */\n      0x00\n        /* \"#utility.yul\":677:678   */\n      0x00\n        /* \"#utility.yul\":670:682   */\n      revert\n        /* \"#utility.yul\":621:684   */\n    tag_111:\n        /* \"#utility.yul\":568:690   */\n      pop\n      jump\t// out\n        /* \"#utility.yul\":696:835   */\n    tag_67:\n        /* \"#utility.yul\":742:747   */\n      0x00\n        /* \"#utility.yul\":780:786   */\n      dup2\n        /* \"#utility.yul\":767:787   */\n      calldataload\n        /* \"#utility.yul\":758:787   */\n      swap1\n      pop\n        /* \"#utility.yul\":796:829   */\n      tag_113\n        /* \"#utility.yul\":823:828   */\n      dup2\n        /* \"#utility.yul\":796:829   */\n      tag_66\n      jump\t// in\n    tag_113:\n        /* \"#utility.yul\":696:835   */\n      swap3\n      swap2\n      pop\n      pop\n      jump\t// out\n        /* \"#utility.yul\":841:1170   */\n    tag_8:\n        /* \"#utility.yul\":900:906   */\n      0x00\n        /* \"#utility.yul\":949:951   */\n      0x20\n        /* \"#utility.yul\":937:946   */\n      dup3\n        /* \"#utility.yul\":928:935   */\n      dup5\n        /* \"#utility.yul\":924:947   */\n      sub\n        /* \"#utility.yul\":920:952   */\n      slt\n        /* \"#utility.yul\":917:1036   */\n      iszero\n      tag_115\n      jumpi\n        /* \"#utility.yul\":955:1034   */\n      tag_116\n      tag_62\n      jump\t// in\n    tag_116:\n        /* \"#utility.yul\":917:1036   */\n    tag_115:\n        /* \"#utility.yul\":1075:1076   */\n      0x00\n        /* \"#utility.yul\":1100:1153   */\n      tag_117\n        /* \"#utility.yul\":1145:1152   */\n      dup5\n        /* \"#utility.yul\":1136:1142   */\n      dup3\n        /* \"#utility.yul\":1125:1134   */\n      dup6\n        /* \"#utility.yul\":1121:1143   */\n      add\n        /* \"#utility.yul\":1100:1153   */\n      tag_67\n      jump\t// in\n    tag_117:\n        /* \"#utility.yul\":1090:1153   */\n      swap2\n      pop\n        /* \"#utility.yul\":1046:1163   */\n      pop\n        /* \"#utility.yul\":841:1170   */\n      swap3\n      swap2\n      pop\n      pop\n      jump\t// out\n        /* \"#utility.yul\":1176:1253   */\n    tag_68:\n        /* \"#utility.yul\":1213:1220   */\n      0x00\n        /* \"#utility.yul\":1242:1247   */\n      dup2\n        /* \"#utility.yul\":1231:1247   */\n      swap1\n      pop\n        /* \"#utility.yul\":1176:1253   */\n      swap2\n      swap1\n      pop\n      jump\t// out\n        /* \"#utility.yul\":1259:1381   */\n    tag_69:\n        /* \"#utility.yul\":1332:1356   */\n      tag_120\n        /* \"#utility.yul\":1350:1355   */\n      dup2\n        /* \"#utility.yul\":1332:1356   */\n      tag_68\n      jump\t// in\n    tag_120:\n        /* \"#utility.yul\":1325:1330   */\n      dup2\n        /* \"#utility.yul\":1322:1357   */\n      eq\n        /* \"#utility.yul\":1312:1375   */\n      tag_121\n      jumpi\n        /* \"#utility.yul\":1371:1372   */\n      0x00\n        /* \"#utility.yul\":1368:1369   */\n      0x00\n        /* \"#utility.yul\":1361:1373   */\n      revert\n        /* \"#utility.yul\":1312:1375   */\n    tag_121:\n        /* \"#utility.yul\":1259:1381   */\n      pop\n      jump\t// out\n        /* \"#utility.yul\":1387:1526   */\n    tag_70:\n        /* \"#utility.yul\":1433:1438   */\n      0x00\n        /* \"#utility.yul\":1471:1477   */\n      dup2\n        /* \"#utility.yul\":1458:1478   */\n      calldataload\n        /* \"#utility.yul\":1449:1478   */\n      swap1\n      pop\n        /* \"#utility.yul\":1487:1520   */\n      tag_123\n        /* \"#utility.yul\":1514:1519   */\n      dup2\n        /* \"#utility.yul\":1487:1520   */\n      tag_69\n      jump\t// in\n    tag_123:\n        /* \"#utility.yul\":1387:1526   */\n      swap3\n      swap2\n      pop\n      pop\n      jump\t// out\n        /* \"#utility.yul\":1532:1861   */\n    tag_12:\n        /* \"#utility.yul\":1591:1597   */\n      0x00\n        /* \"#utility.yul\":1640:1642   */\n      0x20\n        /* \"#utility.yul\":1628:1637   */\n      dup3\n        /* \"#utility.yul\":1619:1626   */\n      dup5\n        /* \"#utility.yul\":1615:1638   */\n      sub\n        /* \"#utility.yul\":1611:1643   */\n      slt\n        /* \"#utility.yul\":1608:1727   */\n      iszero\n      tag_125\n      jumpi\n        /* \"#utility.yul\":1646:1725   */\n      tag_126\n      tag_62\n      jump\t// in\n    tag_126:\n        /* \"#utility.yul\":1608:1727   */\n    tag_125:\n        /* \"#utility.yul\":1766:1767   */\n      0x00\n        /* \"#utility.yul\":1791:1844   */\n      tag_127\n        /* \"#utility.yul\":1836:1843   */\n      dup5\n        /* \"#utility.yul\":1827:1833   */\n      dup3\n        /* \"#utility.yul\":1816:1825   */\n      dup6\n        /* \"#utility.yul\":1812:1834   */\n      add\n        /* \"#utility.yul\":1791:1844   */\n      tag_70\n      jump\t// in\n    tag_127:\n        /* \"#utility.yul\":1781:1844   */\n      swap2\n      pop\n        /* \"#utility.yul\":1737:1854   */\n      pop\n        /* \"#utility.yul\":1532:1861   */\n      swap3\n      swap2\n      pop\n      pop\n      jump\t// out\n        /* \"#utility.yul\":1867:1927   */\n    tag_71:\n        /* \"#utility.yul\":1895:1898   */\n      0x00\n        /* \"#utility.yul\":1916:1921   */\n      dup2\n        /* \"#utility.yul\":1909:1921   */\n      swap1\n      pop\n        /* \"#utility.yul\":1867:1927   */\n      swap2\n      swap1\n      pop\n      jump\t// out\n        /* \"#utility.yul\":1933:2075   */\n    tag_72:\n        /* \"#utility.yul\":1983:1992   */\n      0x00\n        /* \"#utility.yul\":2016:2069   */\n      tag_130\n        /* \"#utility.yul\":2034:2068   */\n      tag_131\n        /* \"#utility.yul\":2043:2067   */\n      tag_132\n        /* \"#utility.yul\":2061:2066   */\n      dup5\n        /* \"#utility.yul\":2043:2067   */\n      tag_64\n      jump\t// in\n    tag_132:\n        /* \"#utility.yul\":2034:2068   */\n      tag_71\n      jump\t// in\n    tag_131:\n        /* \"#utility.yul\":2016:2069   */\n      tag_64\n      jump\t// in\n    tag_130:\n        /* \"#utility.yul\":2003:2069   */\n      swap1\n      pop\n        /* \"#utility.yul\":1933:2075   */\n      swap2\n      swap1\n      pop\n      jump\t// out\n        /* \"#utility.yul\":2081:2207   */\n    tag_73:\n        /* \"#utility.yul\":2131:2140   */\n      0x00\n        /* \"#utility.yul\":2164:2201   */\n      tag_134\n        /* \"#utility.yul\":2195:2200   */\n      dup3\n        /* \"#utility.yul\":2164:2201   */\n      tag_72\n      jump\t// in\n    tag_134:\n        /* \"#utility.yul\":2151:2201   */\n      swap1\n      pop\n        /* \"#utility.yul\":2081:2207   */\n      swap2\n      swap1\n      pop\n      jump\t// out\n        /* \"#utility.yul\":2213:2349   */\n    tag_74:\n        /* \"#utility.yul\":2273:2282   */\n      0x00\n        /* \"#utility.yul\":2306:2343   */\n      tag_136\n        /* \"#utility.yul\":2337:2342   */\n      dup3\n        /* \"#utility.yul\":2306:2343   */\n      tag_73\n      jump\t// in\n    tag_136:\n        /* \"#utility.yul\":2293:2343   */\n      swap1\n      pop\n        /* \"#utility.yul\":2213:2349   */\n      swap2\n      swap1\n      pop\n      jump\t// out\n        /* \"#utility.yul\":2355:2506   */\n    tag_75:\n        /* \"#utility.yul\":2452:2499   */\n      tag_138\n        /* \"#utility.yul\":2493:2498   */\n      dup2\n        /* \"#utility.yul\":2452:2499   */\n      tag_74\n      jump\t// in\n    tag_138:\n        /* \"#utility.yul\":2447:2450   */\n      dup3\n        /* \"#utility.yul\":2440:2500   */\n      mstore\n        /* \"#utility.yul\":2355:2506   */\n      pop\n      pop\n      jump\t// out\n        /* \"#utility.yul\":2512:2754   */\n    tag_17:\n        /* \"#utility.yul\":2615:2619   */\n      0x00\n        /* \"#utility.yul\":2653:2655   */\n      0x20\n        /* \"#utility.yul\":2642:2651   */\n      dup3\n        /* \"#utility.yul\":2638:2656   */\n      add\n        /* \"#utility.yul\":2630:2656   */\n      swap1\n      pop\n        /* \"#utility.yul\":2666:2747   */\n      tag_140\n        /* \"#utility.yul\":2744:2745   */\n      0x00\n        /* \"#utility.yul\":2733:2742   */\n      dup4\n        /* \"#utility.yul\":2729:2746   */\n      add\n        /* \"#utility.yul\":2720:2726   */\n      dup5\n        /* \"#utility.yul\":2666:2747   */\n      tag_75\n      jump\t// in\n    tag_140:\n        /* \"#utility.yul\":2512:2754   */\n      swap3\n      swap2\n      pop\n      pop\n      jump\t// out\n        /* \"#utility.yul\":2760:2878   */\n    tag_76:\n        /* \"#utility.yul\":2847:2871   */\n      tag_142\n        /* \"#utility.yul\":2865:2870   */\n      dup2\n        /* \"#utility.yul\":2847:2871   */\n      tag_65\n      jump\t// in\n    tag_142:\n        /* \"#utility.yul\":2842:2845   */\n      dup3\n        /* \"#utility.yul\":2835:2872   */\n      mstore\n        /* \"#utility.yul\":2760:2878   */\n      pop\n      pop\n      jump\t// out\n        /* \"#utility.yul\":2884:3106   */\n    tag_22:\n        /* \"#utility.yul\":2977:2981   */\n      0x00\n        /* \"#utility.yul\":3015:3017   */\n      0x20\n        /* \"#utility.yul\":3004:3013   */\n      dup3\n        /* \"#utility.yul\":3000:3018   */\n      add\n        /* \"#utility.yul\":2992:3018   */\n      swap1\n      pop\n        /* \"#utility.yul\":3028:3099   */\n      tag_144\n        /* \"#utility.yul\":3096:3097   */\n      0x00\n        /* \"#utility.yul\":3085:3094   */\n      dup4\n        /* \"#utility.yul\":3081:3098   */\n      add\n        /* \"#utility.yul\":3072:3078   */\n      dup5\n        /* \"#utility.yul\":3028:3099   */\n      tag_76\n      jump\t// in\n    tag_144:\n        /* \"#utility.yul\":2884:3106   */\n      swap3\n      swap2\n      pop\n      pop\n      jump\t// out\n        /* \"#utility.yul\":3112:3218   */\n    tag_77:\n        /* \"#utility.yul\":3156:3164   */\n      0x00\n        /* \"#utility.yul\":3205:3210   */\n      dup2\n        /* \"#utility.yul\":3200:3203   */\n      0xe0\n        /* \"#utility.yul\":3196:3211   */\n      shr\n        /* \"#utility.yul\":3175:3211   */\n      swap1\n      pop\n        /* \"#utility.yul\":3112:3218   */\n      swap2\n      swap1\n      pop\n      jump\t// out\n        /* \"#utility.yul\":3224:3407   */\n    tag_29:\n        /* \"#utility.yul\":3259:3262   */\n      0x00\n        /* \"#utility.yul\":3297:3298   */\n      0x03\n        /* \"#utility.yul\":3279:3295   */\n      returndatasize\n        /* \"#utility.yul\":3276:3299   */\n      gt\n        /* \"#utility.yul\":3273:3401   */\n      iszero\n      tag_147\n      jumpi\n        /* \"#utility.yul\":3335:3336   */\n      0x04\n        /* \"#utility.yul\":3332:3333   */\n      0x00\n        /* \"#utility.yul\":3329:3330   */\n      0x00\n        /* \"#utility.yul\":3314:3337   */\n      returndatacopy\n        /* \"#utility.yul\":3357:3391   */\n      tag_148\n        /* \"#utility.yul\":3388:3389   */\n      0x00\n        /* \"#utility.yul\":3382:3390   */\n      mload\n        /* \"#utility.yul\":3357:3391   */\n      tag_77\n      jump\t// in\n    tag_148:\n        /* \"#utility.yul\":3350:3391   */\n      swap1\n      pop\n        /* \"#utility.yul\":3273:3401   */\n    tag_147:\n        /* \"#utility.yul\":3224:3407   */\n      swap1\n      jump\t// out\n        /* \"#utility.yul\":3413:3515   */\n    tag_78:\n        /* \"#utility.yul\":3454:3460   */\n      0x00\n        /* \"#utility.yul\":3505:3507   */\n      0x1f\n        /* \"#utility.yul\":3501:3508   */\n      not\n        /* \"#utility.yul\":3496:3498   */\n      0x1f\n        /* \"#utility.yul\":3489:3494   */\n      dup4\n        /* \"#utility.yul\":3485:3499   */\n      add\n        /* \"#utility.yul\":3481:3509   */\n      and\n        /* \"#utility.yul\":3471:3509   */\n      swap1\n      pop\n        /* \"#utility.yul\":3413:3515   */\n      swap2\n      swap1\n      pop\n      jump\t// out\n        /* \"#utility.yul\":3521:3701   */\n    tag_79:\n        /* \"#utility.yul\":3569:3646   */\n      0x4e487b7100000000000000000000000000000000000000000000000000000000\n        /* \"#utility.yul\":3566:3567   */\n      0x00\n        /* \"#utility.yul\":3559:3647   */\n      mstore\n        /* \"#utility.yul\":3666:3670   */\n      0x41\n        /* \"#utility.yul\":3663:3664   */\n      0x04\n        /* \"#utility.yul\":3656:3671   */\n      mstore\n        /* \"#utility.yul\":3690:3694   */\n      0x24\n        /* \"#utility.yul\":3687:3688   */\n      0x00\n        /* \"#utility.yul\":3680:3695   */\n      revert\n        /* \"#utility.yul\":3707:3988   */\n    tag_80:\n        /* \"#utility.yul\":3790:3817   */\n      tag_152\n        /* \"#utility.yul\":3812:3816   */\n      dup3\n        /* \"#utility.yul\":3790:3817   */\n      tag_78\n      jump\t// in\n    tag_152:\n        /* \"#utility.yul\":3782:3788   */\n      dup2\n        /* \"#utility.yul\":3778:3818   */\n      add\n        /* \"#utility.yul\":3920:3926   */\n      dup2\n        /* \"#utility.yul\":3908:3918   */\n      dup2\n        /* \"#utility.yul\":3905:3927   */\n      lt\n        /* \"#utility.yul\":3884:3902   */\n      0xffffffffffffffff\n        /* \"#utility.yul\":3872:3882   */\n      dup3\n        /* \"#utility.yul\":3869:3903   */\n      gt\n        /* \"#utility.yul\":3866:3928   */\n      or\n        /* \"#utility.yul\":3863:3951   */\n      iszero\n      tag_153\n      jumpi\n        /* \"#utility.yul\":3931:3949   */\n      tag_154\n      tag_79\n      jump\t// in\n    tag_154:\n        /* \"#utility.yul\":3863:3951   */\n    tag_153:\n        /* \"#utility.yul\":3971:3981   */\n      dup1\n        /* \"#utility.yul\":3967:3969   */\n      0x40\n        /* \"#utility.yul\":3960:3982   */\n      mstore\n        /* \"#utility.yul\":3750:3988   */\n      pop\n        /* \"#utility.yul\":3707:3988   */\n      pop\n      pop\n      jump\t// out\n        /* \"#utility.yul\":3994:4705   */\n    tag_31:\n        /* \"#utility.yul\":4033:4036   */\n      0x00\n        /* \"#utility.yul\":4071:4075   */\n      0x44\n        /* \"#utility.yul\":4053:4069   */\n      returndatasize\n        /* \"#utility.yul\":4050:4076   */\n      lt\n        /* \"#utility.yul\":4079:4084   */\n      tag_155\n        /* \"#utility.yul\":4047:4086   */\n      jumpi\n        /* \"#utility.yul\":4108:4128   */\n      tag_157\n      tag_61\n      jump\t// in\n    tag_157:\n        /* \"#utility.yul\":4183:4184   */\n      0x04\n        /* \"#utility.yul\":4165:4181   */\n      returndatasize\n        /* \"#utility.yul\":4161:4185   */\n      sub\n        /* \"#utility.yul\":4158:4159   */\n      0x04\n        /* \"#utility.yul\":4152:4156   */\n      dup3\n        /* \"#utility.yul\":4137:4186   */\n      returndatacopy\n        /* \"#utility.yul\":4216:4220   */\n      dup1\n        /* \"#utility.yul\":4210:4221   */\n      mload\n        /* \"#utility.yul\":4315:4331   */\n      returndatasize\n        /* \"#utility.yul\":4308:4312   */\n      0x24\n        /* \"#utility.yul\":4300:4306   */\n      dup3\n        /* \"#utility.yul\":4296:4313   */\n      add\n        /* \"#utility.yul\":4293:4332   */\n      gt\n        /* \"#utility.yul\":4260:4278   */\n      0xffffffffffffffff\n        /* \"#utility.yul\":4252:4258   */\n      dup3\n        /* \"#utility.yul\":4249:4279   */\n      gt\n        /* \"#utility.yul\":4233:4346   */\n      or\n        /* \"#utility.yul\":4230:4376   */\n      iszero\n      tag_158\n      jumpi\n        /* \"#utility.yul\":4361:4366   */\n      pop\n      pop\n      jump(tag_155)\n        /* \"#utility.yul\":4230:4376   */\n    tag_158:\n        /* \"#utility.yul\":4407:4413   */\n      dup1\n        /* \"#utility.yul\":4401:4405   */\n      dup3\n        /* \"#utility.yul\":4397:4414   */\n      add\n        /* \"#utility.yul\":4443:4446   */\n      dup1\n        /* \"#utility.yul\":4437:4447   */\n      mload\n        /* \"#utility.yul\":4470:4488   */\n      0xffffffffffffffff\n        /* \"#utility.yul\":4462:4468   */\n      dup2\n        /* \"#utility.yul\":4459:4489   */\n      gt\n        /* \"#utility.yul\":4456:4499   */\n      iszero\n      tag_159\n      jumpi\n        /* \"#utility.yul\":4492:4497   */\n      pop\n      pop\n      pop\n      pop\n      jump(tag_155)\n        /* \"#utility.yul\":4456:4499   */\n    tag_159:\n        /* \"#utility.yul\":4540:4546   */\n      dup1\n        /* \"#utility.yul\":4533:4537   */\n      0x20\n        /* \"#utility.yul\":4528:4531   */\n      dup4\n        /* \"#utility.yul\":4524:4538   */\n      add\n        /* \"#utility.yul\":4520:4547   */\n      add\n        /* \"#utility.yul\":4599:4600   */\n      0x04\n        /* \"#utility.yul\":4581:4597   */\n      returndatasize\n        /* \"#utility.yul\":4577:4601   */\n      sub\n        /* \"#utility.yul\":4571:4575   */\n      dup6\n        /* \"#utility.yul\":4567:4602   */\n      add\n        /* \"#utility.yul\":4562:4565   */\n      dup2\n        /* \"#utility.yul\":4559:4603   */\n      gt\n        /* \"#utility.yul\":4556:4613   */\n      iszero\n      tag_160\n      jumpi\n        /* \"#utility.yul\":4606:4611   */\n      pop\n      pop\n      pop\n      pop\n      pop\n      jump(tag_155)\n        /* \"#utility.yul\":4556:4613   */\n    tag_160:\n        /* \"#utility.yul\":4623:4680   */\n      tag_161\n        /* \"#utility.yul\":4671:4677   */\n      dup3\n        /* \"#utility.yul\":4665:4669   */\n      0x20\n        /* \"#utility.yul\":4661:4678   */\n      add\n        /* \"#utility.yul\":4653:4659   */\n      dup6\n        /* \"#utility.yul\":4649:4679   */\n      add\n        /* \"#utility.yul\":4643:4647   */\n      dup7\n        /* \"#utility.yul\":4623:4680   */\n      tag_80\n      jump\t// in\n    tag_161:\n        /* \"#utility.yul\":4696:4699   */\n      dup3\n        /* \"#utility.yul\":4689:4699   */\n      swap6\n      pop\n        /* \"#utility.yul\":4037:4705   */\n      pop\n      pop\n      pop\n      pop\n      pop\n        /* \"#utility.yul\":3994:4705   */\n    tag_155:\n      swap1\n      jump\t// out\n        /* \"#utility.yul\":4711:4810   */\n    tag_81:\n        /* \"#utility.yul\":4763:4769   */\n      0x00\n        /* \"#utility.yul\":4797:4802   */\n      dup2\n        /* \"#utility.yul\":4791:4803   */\n      mload\n        /* \"#utility.yul\":4781:4803   */\n      swap1\n      pop\n        /* \"#utility.yul\":4711:4810   */\n      swap2\n      swap1\n      pop\n      jump\t// out\n        /* \"#utility.yul\":4816:4985   */\n    tag_82:\n        /* \"#utility.yul\":4900:4911   */\n      0x00\n        /* \"#utility.yul\":4934:4940   */\n      dup3\n        /* \"#utility.yul\":4929:4932   */\n      dup3\n        /* \"#utility.yul\":4922:4941   */\n      mstore\n        /* \"#utility.yul\":4974:4978   */\n      0x20\n        /* \"#utility.yul\":4969:4972   */\n      dup3\n        /* \"#utility.yul\":4965:4979   */\n      add\n        /* \"#utility.yul\":4950:4979   */\n      swap1\n      pop\n        /* \"#utility.yul\":4816:4985   */\n      swap3\n      swap2\n      pop\n      pop\n      jump\t// out\n        /* \"#utility.yul\":4991:5130   */\n    tag_83:\n        /* \"#utility.yul\":5080:5086   */\n      dup3\n        /* \"#utility.yul\":5075:5078   */\n      dup2\n        /* \"#utility.yul\":5070:5073   */\n      dup4\n        /* \"#utility.yul\":5064:5087   */\n      mcopy\n        /* \"#utility.yul\":5121:5122   */\n      0x00\n        /* \"#utility.yul\":5112:5118   */\n      dup4\n        /* \"#utility.yul\":5107:5110   */\n      dup4\n        /* \"#utility.yul\":5103:5119   */\n      add\n        /* \"#utility.yul\":5096:5123   */\n      mstore\n        /* \"#utility.yul\":4991:5130   */\n      pop\n      pop\n      pop\n      jump\t// out\n        /* \"#utility.yul\":5136:5513   */\n    tag_84:\n        /* \"#utility.yul\":5224:5227   */\n      0x00\n        /* \"#utility.yul\":5252:5291   */\n      tag_166\n        /* \"#utility.yul\":5285:5290   */\n      dup3\n        /* \"#utility.yul\":5252:5291   */\n      tag_81\n      jump\t// in\n    tag_166:\n        /* \"#utility.yul\":5307:5378   */\n      tag_167\n        /* \"#utility.yul\":5371:5377   */\n      dup2\n        /* \"#utility.yul\":5366:5369   */\n      dup6\n        /* \"#utility.yul\":5307:5378   */\n      tag_82\n      jump\t// in\n    tag_167:\n        /* \"#utility.yul\":5300:5378   */\n      swap4\n      pop\n        /* \"#utility.yul\":5387:5452   */\n      tag_168\n        /* \"#utility.yul\":5445:5451   */\n      dup2\n        /* \"#utility.yul\":5440:5443   */\n      dup6\n        /* \"#utility.yul\":5433:5437   */\n      0x20\n        /* \"#utility.yul\":5426:5431   */\n      dup7\n        /* \"#utility.yul\":5422:5438   */\n      add\n        /* \"#utility.yul\":5387:5452   */\n      tag_83\n      jump\t// in\n    tag_168:\n        /* \"#utility.yul\":5477:5506   */\n      tag_169\n        /* \"#utility.yul\":5499:5505   */\n      dup2\n        /* \"#utility.yul\":5477:5506   */\n      tag_78\n      jump\t// in\n    tag_169:\n        /* \"#utility.yul\":5472:5475   */\n      dup5\n        /* \"#utility.yul\":5468:5507   */\n      add\n        /* \"#utility.yul\":5461:5507   */\n      swap2\n      pop\n        /* \"#utility.yul\":5228:5513   */\n      pop\n        /* \"#utility.yul\":5136:5513   */\n      swap3\n      swap2\n      pop\n      pop\n      jump\t// out\n        /* \"#utility.yul\":5519:5832   */\n    tag_34:\n        /* \"#utility.yul\":5632:5636   */\n      0x00\n        /* \"#utility.yul\":5670:5672   */\n      0x20\n        /* \"#utility.yul\":5659:5668   */\n      dup3\n        /* \"#utility.yul\":5655:5673   */\n      add\n        /* \"#utility.yul\":5647:5673   */\n      swap1\n      pop\n        /* \"#utility.yul\":5719:5728   */\n      dup2\n        /* \"#utility.yul\":5713:5717   */\n      dup2\n        /* \"#utility.yul\":5709:5729   */\n      sub\n        /* \"#utility.yul\":5705:5706   */\n      0x00\n        /* \"#utility.yul\":5694:5703   */\n      dup4\n        /* \"#utility.yul\":5690:5707   */\n      add\n        /* \"#utility.yul\":5683:5730   */\n      mstore\n        /* \"#utility.yul\":5747:5825   */\n      tag_171\n        /* \"#utility.yul\":5820:5824   */\n      dup2\n        /* \"#utility.yul\":5811:5817   */\n      dup5\n        /* \"#utility.yul\":5747:5825   */\n      tag_84\n      jump\t// in\n    tag_171:\n        /* \"#utility.yul\":5739:5825   */\n      swap1\n      pop\n        /* \"#utility.yul\":5519:5832   */\n      swap3\n      swap2\n      pop\n      pop\n      jump\t// out\n        /* \"#utility.yul\":5838:5936   */\n    tag_85:\n        /* \"#utility.yul\":5889:5895   */\n      0x00\n        /* \"#utility.yul\":5923:5928   */\n      dup2\n        /* \"#utility.yul\":5917:5929   */\n      mload\n        /* \"#utility.yul\":5907:5929   */\n      swap1\n      pop\n        /* \"#utility.yul\":5838:5936   */\n      swap2\n      swap1\n      pop\n      jump\t// out\n        /* \"#utility.yul\":5942:6110   */\n    tag_86:\n        /* \"#utility.yul\":6025:6036   */\n      0x00\n        /* \"#utility.yul\":6059:6065   */\n      dup3\n        /* \"#utility.yul\":6054:6057   */\n      dup3\n        /* \"#utility.yul\":6047:6066   */\n      mstore\n        /* \"#utility.yul\":6099:6103   */\n      0x20\n        /* \"#utility.yul\":6094:6097   */\n      dup3\n        /* \"#utility.yul\":6090:6104   */\n      add\n        /* \"#utility.yul\":6075:6104   */\n      swap1\n      pop\n        /* \"#utility.yul\":5942:6110   */\n      swap3\n      swap2\n      pop\n      pop\n      jump\t// out\n        /* \"#utility.yul\":6116:6489   */\n    tag_87:\n        /* \"#utility.yul\":6202:6205   */\n      0x00\n        /* \"#utility.yul\":6230:6268   */\n      tag_175\n        /* \"#utility.yul\":6262:6267   */\n      dup3\n        /* \"#utility.yul\":6230:6268   */\n      tag_85\n      jump\t// in\n    tag_175:\n        /* \"#utility.yul\":6284:6354   */\n      tag_176\n        /* \"#utility.yul\":6347:6353   */\n      dup2\n        /* \"#utility.yul\":6342:6345   */\n      dup6\n        /* \"#utility.yul\":6284:6354   */\n      tag_86\n      jump\t// in\n    tag_176:\n        /* \"#utility.yul\":6277:6354   */\n      swap4\n      pop\n        /* \"#utility.yul\":6363:6428   */\n      tag_177\n        /* \"#utility.yul\":6421:6427   */\n      dup2\n        /* \"#utility.yul\":6416:6419   */\n      dup6\n        /* \"#utility.yul\":6409:6413   */\n      0x20\n        /* \"#utility.yul\":6402:6407   */\n      dup7\n        /* \"#utility.yul\":6398:6414   */\n      add\n        /* \"#utility.yul\":6363:6428   */\n      tag_83\n      jump\t// in\n    tag_177:\n        /* \"#utility.yul\":6453:6482   */\n      tag_178\n        /* \"#utility.yul\":6475:6481   */\n      dup2\n        /* \"#utility.yul\":6453:6482   */\n      tag_78\n      jump\t// in\n    tag_178:\n        /* \"#utility.yul\":6448:6451   */\n      dup5\n        /* \"#utility.yul\":6444:6483   */\n      add\n        /* \"#utility.yul\":6437:6483   */\n      swap2\n      pop\n        /* \"#utility.yul\":6206:6489   */\n      pop\n        /* \"#utility.yul\":6116:6489   */\n      swap3\n      swap2\n      pop\n      pop\n      jump\t// out\n        /* \"#utility.yul\":6495:6804   */\n    tag_38:\n        /* \"#utility.yul\":6606:6610   */\n      0x00\n        /* \"#utility.yul\":6644:6646   */\n      0x20\n        /* \"#utility.yul\":6633:6642   */\n      dup3\n        /* \"#utility.yul\":6629:6647   */\n      add\n        /* \"#utility.yul\":6621:6647   */\n      swap1\n      pop\n        /* \"#utility.yul\":6693:6702   */\n      dup2\n        /* \"#utility.yul\":6687:6691   */\n      dup2\n        /* \"#utility.yul\":6683:6703   */\n      sub\n        /* \"#utility.yul\":6679:6680   */\n      0x00\n        /* \"#utility.yul\":6668:6677   */\n      dup4\n        /* \"#utility.yul\":6664:6681   */\n      add\n        /* \"#utility.yul\":6657:6704   */\n      mstore\n        /* \"#utility.yul\":6721:6797   */\n      tag_180\n        /* \"#utility.yul\":6792:6796   */\n      dup2\n        /* \"#utility.yul\":6783:6789   */\n      dup5\n        /* \"#utility.yul\":6721:6797   */\n      tag_87\n      jump\t// in\n    tag_180:\n        /* \"#utility.yul\":6713:6797   */\n      swap1\n      pop\n        /* \"#utility.yul\":6495:6804   */\n      swap3\n      swap2\n      pop\n      pop\n      jump\t// out\n        /* \"#utility.yul\":6810:6897   */\n    tag_88:\n        /* \"#utility.yul\":6857:6864   */\n      0x00\n        /* \"#utility.yul\":6886:6891   */\n      dup2\n        /* \"#utility.yul\":6875:6891   */\n      swap1\n      pop\n        /* \"#utility.yul\":6810:6897   */\n      swap2\n      swap1\n      pop\n      jump\t// out\n        /* \"#utility.yul\":6903:7065   */\n    tag_89:\n        /* \"#utility.yul\":6963:6972   */\n      0x00\n        /* \"#utility.yul\":6996:7059   */\n      tag_183\n        /* \"#utility.yul\":7014:7058   */\n      tag_184\n        /* \"#utility.yul\":7023:7057   */\n      tag_185\n        /* \"#utility.yul\":7051:7056   */\n      dup5\n        /* \"#utility.yul\":7023:7057   */\n      tag_88\n      jump\t// in\n    tag_185:\n        /* \"#utility.yul\":7014:7058   */\n      tag_71\n      jump\t// in\n    tag_184:\n        /* \"#utility.yul\":6996:7059   */\n      tag_68\n      jump\t// in\n    tag_183:\n        /* \"#utility.yul\":6983:7059   */\n      swap1\n      pop\n        /* \"#utility.yul\":6903:7065   */\n      swap2\n      swap1\n      pop\n      jump\t// out\n        /* \"#utility.yul\":7071:7222   */\n    tag_90:\n        /* \"#utility.yul\":7168:7215   */\n      tag_187\n        /* \"#utility.yul\":7209:7214   */\n      dup2\n        /* \"#utility.yul\":7168:7215   */\n      tag_89\n      jump\t// in\n    tag_187:\n        /* \"#utility.yul\":7163:7166   */\n      dup3\n        /* \"#utility.yul\":7156:7216   */\n      mstore\n        /* \"#utility.yul\":7071:7222   */\n      pop\n      pop\n      jump\t// out\n        /* \"#utility.yul\":7228:7470   */\n    tag_41:\n        /* \"#utility.yul\":7331:7335   */\n      0x00\n        /* \"#utility.yul\":7369:7371   */\n      0x20\n        /* \"#utility.yul\":7358:7367   */\n      dup3\n        /* \"#utility.yul\":7354:7372   */\n      add\n        /* \"#utility.yul\":7346:7372   */\n      swap1\n      pop\n        /* \"#utility.yul\":7382:7463   */\n      tag_189\n        /* \"#utility.yul\":7460:7461   */\n      0x00\n        /* \"#utility.yul\":7449:7458   */\n      dup4\n        /* \"#utility.yul\":7445:7462   */\n      add\n        /* \"#utility.yul\":7436:7442   */\n      dup5\n        /* \"#utility.yul\":7382:7463   */\n      tag_90\n      jump\t// in\n    tag_189:\n        /* \"#utility.yul\":7228:7470   */\n      swap3\n      swap2\n      pop\n      pop\n      jump\t// out\n        /* \"#utility.yul\":7476:7637   */\n    tag_91:\n        /* \"#utility.yul\":7616:7629   */\n      0x466f6f2063726561746564000000000000000000000000000000000000000000\n        /* \"#utility.yul\":7612:7613   */\n      0x00\n        /* \"#utility.yul\":7604:7610   */\n      dup3\n        /* \"#utility.yul\":7600:7614   */\n      add\n        /* \"#utility.yul\":7593:7630   */\n      mstore\n        /* \"#utility.yul\":7476:7637   */\n      pop\n      jump\t// out\n        /* \"#utility.yul\":7643:8009   */\n    tag_92:\n        /* \"#utility.yul\":7785:7788   */\n      0x00\n        /* \"#utility.yul\":7806:7873   */\n      tag_192\n        /* \"#utility.yul\":7870:7872   */\n      0x0b\n        /* \"#utility.yul\":7865:7868   */\n      dup4\n        /* \"#utility.yul\":7806:7873   */\n      tag_82\n      jump\t// in\n    tag_192:\n        /* \"#utility.yul\":7799:7873   */\n      swap2\n      pop\n        /* \"#utility.yul\":7882:7975   */\n      tag_193\n        /* \"#utility.yul\":7971:7974   */\n      dup3\n        /* \"#utility.yul\":7882:7975   */\n      tag_91\n      jump\t// in\n    tag_193:\n        /* \"#utility.yul\":8000:8002   */\n      0x20\n        /* \"#utility.yul\":7995:7998   */\n      dup3\n        /* \"#utility.yul\":7991:8003   */\n      add\n        /* \"#utility.yul\":7984:8003   */\n      swap1\n      pop\n        /* \"#utility.yul\":7643:8009   */\n      swap2\n      swap1\n      pop\n      jump\t// out\n        /* \"#utility.yul\":8015:8434   */\n    tag_46:\n        /* \"#utility.yul\":8181:8185   */\n      0x00\n        /* \"#utility.yul\":8219:8221   */\n      0x20\n        /* \"#utility.yul\":8208:8217   */\n      dup3\n        /* \"#utility.yul\":8204:8222   */\n      add\n        /* \"#utility.yul\":8196:8222   */\n      swap1\n      pop\n        /* \"#utility.yul\":8268:8277   */\n      dup2\n        /* \"#utility.yul\":8262:8266   */\n      dup2\n        /* \"#utility.yul\":8258:8278   */\n      sub\n        /* \"#utility.yul\":8254:8255   */\n      0x00\n        /* \"#utility.yul\":8243:8252   */\n      dup4\n        /* \"#utility.yul\":8239:8256   */\n      add\n        /* \"#utility.yul\":8232:8279   */\n      mstore\n        /* \"#utility.yul\":8296:8427   */\n      tag_195\n        /* \"#utility.yul\":8422:8426   */\n      dup2\n        /* \"#utility.yul\":8296:8427   */\n      tag_92\n      jump\t// in\n    tag_195:\n        /* \"#utility.yul\":8288:8427   */\n      swap1\n      pop\n        /* \"#utility.yul\":8015:8434   */\n      swap2\n      swap1\n      pop\n      jump\t// out\n        /* \"#utility.yul\":8440:8558   */\n    tag_93:\n        /* \"#utility.yul\":8527:8551   */\n      tag_197\n        /* \"#utility.yul\":8545:8550   */\n      dup2\n        /* \"#utility.yul\":8527:8551   */\n      tag_68\n      jump\t// in\n    tag_197:\n        /* \"#utility.yul\":8522:8525   */\n      dup3\n        /* \"#utility.yul\":8515:8552   */\n      mstore\n        /* \"#utility.yul\":8440:8558   */\n      pop\n      pop\n      jump\t// out\n        /* \"#utility.yul\":8564:8786   */\n    tag_49:\n        /* \"#utility.yul\":8657:8661   */\n      0x00\n        /* \"#utility.yul\":8695:8697   */\n      0x20\n        /* \"#utility.yul\":8684:8693   */\n      dup3\n        /* \"#utility.yul\":8680:8698   */\n      add\n        /* \"#utility.yul\":8672:8698   */\n      swap1\n      pop\n        /* \"#utility.yul\":8708:8779   */\n      tag_199\n        /* \"#utility.yul\":8776:8777   */\n      0x00\n        /* \"#utility.yul\":8765:8774   */\n      dup4\n        /* \"#utility.yul\":8761:8778   */\n      add\n        /* \"#utility.yul\":8752:8758   */\n      dup5\n        /* \"#utility.yul\":8708:8779   */\n      tag_93\n      jump\t// in\n    tag_199:\n        /* \"#utility.yul\":8564:8786   */\n      swap3\n      swap2\n      pop\n      pop\n      jump\t// out\n        /* \"#utility.yul\":8792:8909   */\n    tag_94:\n        /* \"#utility.yul\":8901:8902   */\n      0x00\n        /* \"#utility.yul\":8898:8899   */\n      0x00\n        /* \"#utility.yul\":8891:8903   */\n      revert\n        /* \"#utility.yul\":8915:9032   */\n    tag_95:\n        /* \"#utility.yul\":9024:9025   */\n      0x00\n        /* \"#utility.yul\":9021:9022   */\n      0x00\n        /* \"#utility.yul\":9014:9026   */\n      revert\n        /* \"#utility.yul\":9038:9167   */\n    tag_96:\n        /* \"#utility.yul\":9072:9078   */\n      0x00\n        /* \"#utility.yul\":9099:9119   */\n      tag_203\n      tag_61\n      jump\t// in\n    tag_203:\n        /* \"#utility.yul\":9089:9119   */\n      swap1\n      pop\n        /* \"#utility.yul\":9128:9161   */\n      tag_204\n        /* \"#utility.yul\":9156:9160   */\n      dup3\n        /* \"#utility.yul\":9148:9154   */\n      dup3\n        /* \"#utility.yul\":9128:9161   */\n      tag_80\n      jump\t// in\n    tag_204:\n        /* \"#utility.yul\":9038:9167   */\n      swap2\n      swap1\n      pop\n      jump\t// out\n        /* \"#utility.yul\":9173:9481   */\n    tag_97:\n        /* \"#utility.yul\":9235:9239   */\n      0x00\n        /* \"#utility.yul\":9325:9343   */\n      0xffffffffffffffff\n        /* \"#utility.yul\":9317:9323   */\n      dup3\n        /* \"#utility.yul\":9314:9344   */\n      gt\n        /* \"#utility.yul\":9311:9367   */\n      iszero\n      tag_206\n      jumpi\n        /* \"#utility.yul\":9347:9365   */\n      tag_207\n      tag_79\n      jump\t// in\n    tag_207:\n        /* \"#utility.yul\":9311:9367   */\n    tag_206:\n        /* \"#utility.yul\":9385:9414   */\n      tag_208\n        /* \"#utility.yul\":9407:9413   */\n      dup3\n        /* \"#utility.yul\":9385:9414   */\n      tag_78\n      jump\t// in\n    tag_208:\n        /* \"#utility.yul\":9377:9414   */\n      swap1\n      pop\n        /* \"#utility.yul\":9469:9473   */\n      0x20\n        /* \"#utility.yul\":9463:9467   */\n      dup2\n        /* \"#utility.yul\":9459:9474   */\n      add\n        /* \"#utility.yul\":9451:9474   */\n      swap1\n      pop\n        /* \"#utility.yul\":9173:9481   */\n      swap2\n      swap1\n      pop\n      jump\t// out\n        /* \"#utility.yul\":9487:9921   */\n    tag_98:\n        /* \"#utility.yul\":9576:9581   */\n      0x00\n        /* \"#utility.yul\":9601:9667   */\n      tag_210\n        /* \"#utility.yul\":9617:9666   */\n      tag_211\n        /* \"#utility.yul\":9659:9665   */\n      dup5\n        /* \"#utility.yul\":9617:9666   */\n      tag_97\n      jump\t// in\n    tag_211:\n        /* \"#utility.yul\":9601:9667   */\n      tag_96\n      jump\t// in\n    tag_210:\n        /* \"#utility.yul\":9592:9667   */\n      swap1\n      pop\n        /* \"#utility.yul\":9690:9696   */\n      dup3\n        /* \"#utility.yul\":9683:9688   */\n      dup2\n        /* \"#utility.yul\":9676:9697   */\n      mstore\n        /* \"#utility.yul\":9728:9732   */\n      0x20\n        /* \"#utility.yul\":9721:9726   */\n      dup2\n        /* \"#utility.yul\":9717:9733   */\n      add\n        /* \"#utility.yul\":9766:9769   */\n      dup5\n        /* \"#utility.yul\":9757:9763   */\n      dup5\n        /* \"#utility.yul\":9752:9755   */\n      dup5\n        /* \"#utility.yul\":9748:9764   */\n      add\n        /* \"#utility.yul\":9745:9770   */\n      gt\n        /* \"#utility.yul\":9742:9854   */\n      iszero\n      tag_212\n      jumpi\n        /* \"#utility.yul\":9773:9852   */\n      tag_213\n      tag_95\n      jump\t// in\n    tag_213:\n        /* \"#utility.yul\":9742:9854   */\n    tag_212:\n        /* \"#utility.yul\":9863:9915   */\n      tag_214\n        /* \"#utility.yul\":9908:9914   */\n      dup5\n        /* \"#utility.yul\":9903:9906   */\n      dup3\n        /* \"#utility.yul\":9898:9901   */\n      dup6\n        /* \"#utility.yul\":9863:9915   */\n      tag_83\n      jump\t// in\n    tag_214:\n        /* \"#utility.yul\":9582:9921   */\n      pop\n        /* \"#utility.yul\":9487:9921   */\n      swap4\n      swap3\n      pop\n      pop\n      pop\n      jump\t// out\n        /* \"#utility.yul\":9941:10296   */\n    tag_99:\n        /* \"#utility.yul\":10008:10013   */\n      0x00\n        /* \"#utility.yul\":10057:10060   */\n      dup3\n        /* \"#utility.yul\":10050:10054   */\n      0x1f\n        /* \"#utility.yul\":10042:10048   */\n      dup4\n        /* \"#utility.yul\":10038:10055   */\n      add\n        /* \"#utility.yul\":10034:10061   */\n      slt\n        /* \"#utility.yul\":10024:10146   */\n      tag_216\n      jumpi\n        /* \"#utility.yul\":10065:10144   */\n      tag_217\n      tag_94\n      jump\t// in\n    tag_217:\n        /* \"#utility.yul\":10024:10146   */\n    tag_216:\n        /* \"#utility.yul\":10175:10181   */\n      dup2\n        /* \"#utility.yul\":10169:10182   */\n      mload\n        /* \"#utility.yul\":10200:10290   */\n      tag_218\n        /* \"#utility.yul\":10286:10289   */\n      dup5\n        /* \"#utility.yul\":10278:10284   */\n      dup3\n        /* \"#utility.yul\":10271:10275   */\n      0x20\n        /* \"#utility.yul\":10263:10269   */\n      dup7\n        /* \"#utility.yul\":10259:10276   */\n      add\n        /* \"#utility.yul\":10200:10290   */\n      tag_98\n      jump\t// in\n    tag_218:\n        /* \"#utility.yul\":10191:10290   */\n      swap2\n      pop\n        /* \"#utility.yul\":10014:10296   */\n      pop\n        /* \"#utility.yul\":9941:10296   */\n      swap3\n      swap2\n      pop\n      pop\n      jump\t// out\n        /* \"#utility.yul\":10302:10826   */\n    tag_52:\n        /* \"#utility.yul\":10382:10388   */\n      0x00\n        /* \"#utility.yul\":10431:10433   */\n      0x20\n        /* \"#utility.yul\":10419:10428   */\n      dup3\n        /* \"#utility.yul\":10410:10417   */\n      dup5\n        /* \"#utility.yul\":10406:10429   */\n      sub\n        /* \"#utility.yul\":10402:10434   */\n      slt\n        /* \"#utility.yul\":10399:10518   */\n      iszero\n      tag_220\n      jumpi\n        /* \"#utility.yul\":10437:10516   */\n      tag_221\n      tag_62\n      jump\t// in\n    tag_221:\n        /* \"#utility.yul\":10399:10518   */\n    tag_220:\n        /* \"#utility.yul\":10578:10579   */\n      0x00\n        /* \"#utility.yul\":10567:10576   */\n      dup3\n        /* \"#utility.yul\":10563:10580   */\n      add\n        /* \"#utility.yul\":10557:10581   */\n      mload\n        /* \"#utility.yul\":10608:10626   */\n      0xffffffffffffffff\n        /* \"#utility.yul\":10600:10606   */\n      dup2\n        /* \"#utility.yul\":10597:10627   */\n      gt\n        /* \"#utility.yul\":10594:10711   */\n      iszero\n      tag_222\n      jumpi\n        /* \"#utility.yul\":10630:10709   */\n      tag_223\n      tag_63\n      jump\t// in\n    tag_223:\n        /* \"#utility.yul\":10594:10711   */\n    tag_222:\n        /* \"#utility.yul\":10735:10809   */\n      tag_224\n        /* \"#utility.yul\":10801:10808   */\n      dup5\n        /* \"#utility.yul\":10792:10798   */\n      dup3\n        /* \"#utility.yul\":10781:10790   */\n      dup6\n        /* \"#utility.yul\":10777:10799   */\n      add\n        /* \"#utility.yul\":10735:10809   */\n      tag_99\n      jump\t// in\n    tag_224:\n        /* \"#utility.yul\":10725:10809   */\n      swap2\n      pop\n        /* \"#utility.yul\":10528:10819   */\n      pop\n        /* \"#utility.yul\":10302:10826   */\n      swap3\n      swap2\n      pop\n      pop\n      jump\t// out\n        /* \"#utility.yul\":10832:11002   */\n    tag_100:\n        /* \"#utility.yul\":10972:10994   */\n      0x65787465726e616c2063616c6c206661696c6564000000000000000000000000\n        /* \"#utility.yul\":10968:10969   */\n      0x00\n        /* \"#utility.yul\":10960:10966   */\n      dup3\n        /* \"#utility.yul\":10956:10970   */\n      add\n        /* \"#utility.yul\":10949:10995   */\n      mstore\n        /* \"#utility.yul\":10832:11002   */\n      pop\n      jump\t// out\n        /* \"#utility.yul\":11008:11374   */\n    tag_101:\n        /* \"#utility.yul\":11150:11153   */\n      0x00\n        /* \"#utility.yul\":11171:11238   */\n      tag_227\n        /* \"#utility.yul\":11235:11237   */\n      0x14\n        /* \"#utility.yul\":11230:11233   */\n      dup4\n        /* \"#utility.yul\":11171:11238   */\n      tag_82\n      jump\t// in\n    tag_227:\n        /* \"#utility.yul\":11164:11238   */\n      swap2\n      pop\n        /* \"#utility.yul\":11247:11340   */\n      tag_228\n        /* \"#utility.yul\":11336:11339   */\n      dup3\n        /* \"#utility.yul\":11247:11340   */\n      tag_100\n      jump\t// in\n    tag_228:\n        /* \"#utility.yul\":11365:11367   */\n      0x20\n        /* \"#utility.yul\":11360:11363   */\n      dup3\n        /* \"#utility.yul\":11356:11368   */\n      add\n        /* \"#utility.yul\":11349:11368   */\n      swap1\n      pop\n        /* \"#utility.yul\":11008:11374   */\n      swap2\n      swap1\n      pop\n      jump\t// out\n        /* \"#utility.yul\":11380:11799   */\n    tag_58:\n        /* \"#utility.yul\":11546:11550   */\n      0x00\n        /* \"#utility.yul\":11584:11586   */\n      0x20\n        /* \"#utility.yul\":11573:11582   */\n      dup3\n        /* \"#utility.yul\":11569:11587   */\n      add\n        /* \"#utility.yul\":11561:11587   */\n      swap1\n      pop\n        /* \"#utility.yul\":11633:11642   */\n      dup2\n        /* \"#utility.yul\":11627:11631   */\n      dup2\n        /* \"#utility.yul\":11623:11643   */\n      sub\n        /* \"#utility.yul\":11619:11620   */\n      0x00\n        /* \"#utility.yul\":11608:11617   */\n      dup4\n        /* \"#utility.yul\":11604:11621   */\n      add\n        /* \"#utility.yul\":11597:11644   */\n      mstore\n        /* \"#utility.yul\":11661:11792   */\n      tag_230\n        /* \"#utility.yul\":11787:11791   */\n      dup2\n        /* \"#utility.yul\":11661:11792   */\n      tag_101\n      jump\t// in\n    tag_230:\n        /* \"#utility.yul\":11653:11792   */\n      swap1\n      pop\n        /* \"#utility.yul\":11380:11799   */\n      swap2\n      swap1\n      pop\n      jump\t// out\n    stop\n\n    sub_0: assembly {\n            /* \"Sol_by_Example/Basics/31.TryAndCatch.sol\":203:714  contract Foo {... */\n          mstore(0x40, 0x80)\n            /* \"Sol_by_Example/Basics/31.TryAndCatch.sol\":268:455  constructor(address _owner) {... */\n          callvalue\n          dup1\n          iszero\n          tag_1\n          jumpi\n          revert(0x00, 0x00)\n        tag_1:\n          pop\n          mload(0x40)\n          sub(codesize, bytecodeSize)\n          dup1\n          bytecodeSize\n          dup4\n          codecopy\n          dup2\n          dup2\n          add\n          0x40\n          mstore\n          dup2\n          add\n          swap1\n          tag_2\n          swap2\n          swap1\n          tag_3\n          jump\t// in\n        tag_2:\n            /* \"Sol_by_Example/Basics/31.TryAndCatch.sol\":332:333  0 */\n          0x00\n            /* \"Sol_by_Example/Basics/31.TryAndCatch.sol\":314:334  _owner != address(0) */\n          0xffffffffffffffffffffffffffffffffffffffff\n          and\n            /* \"Sol_by_Example/Basics/31.TryAndCatch.sol\":314:320  _owner */\n          dup2\n            /* \"Sol_by_Example/Basics/31.TryAndCatch.sol\":314:334  _owner != address(0) */\n          0xffffffffffffffffffffffffffffffffffffffff\n          and\n          sub\n            /* \"Sol_by_Example/Basics/31.TryAndCatch.sol\":306:354  require(_owner != address(0), \"invalid address\") */\n          tag_6\n          jumpi\n          mload(0x40)\n          0x08c379a000000000000000000000000000000000000000000000000000000000\n          dup2\n          mstore\n          0x04\n          add\n          tag_7\n          swap1\n          tag_8\n          jump\t// in\n        tag_7:\n          mload(0x40)\n          dup1\n          swap2\n          sub\n          swap1\n          revert\n        tag_6:\n            /* \"Sol_by_Example/Basics/31.TryAndCatch.sol\":381:423  0x0000000000000000000000000000000000000001 */\n          0x01\n            /* \"Sol_by_Example/Basics/31.TryAndCatch.sol\":371:423  _owner != 0x0000000000000000000000000000000000000001 */\n          0xffffffffffffffffffffffffffffffffffffffff\n          and\n            /* \"Sol_by_Example/Basics/31.TryAndCatch.sol\":371:377  _owner */\n          dup2\n            /* \"Sol_by_Example/Basics/31.TryAndCatch.sol\":371:423  _owner != 0x0000000000000000000000000000000000000001 */\n          0xffffffffffffffffffffffffffffffffffffffff\n          and\n          sub\n            /* \"Sol_by_Example/Basics/31.TryAndCatch.sol\":364:424  assert(_owner != 0x0000000000000000000000000000000000000001) */\n          tag_9\n          jumpi\n          tag_10\n          tag_11\n          jump\t// in\n        tag_10:\n        tag_9:\n            /* \"Sol_by_Example/Basics/31.TryAndCatch.sol\":442:448  _owner */\n          dup1\n            /* \"Sol_by_Example/Basics/31.TryAndCatch.sol\":434:439  owner */\n          0x00\n          0x00\n            /* \"Sol_by_Example/Basics/31.TryAndCatch.sol\":434:448  owner = _owner */\n          0x0100\n          exp\n          dup2\n          sload\n          dup2\n          0xffffffffffffffffffffffffffffffffffffffff\n          mul\n          not\n          and\n          swap1\n          dup4\n          0xffffffffffffffffffffffffffffffffffffffff\n          and\n          mul\n          or\n          swap1\n          sstore\n          pop\n            /* \"Sol_by_Example/Basics/31.TryAndCatch.sol\":268:455  constructor(address _owner) {... */\n          pop\n            /* \"Sol_by_Example/Basics/31.TryAndCatch.sol\":203:714  contract Foo {... */\n          jump(tag_12)\n            /* \"#utility.yul\":88:205   */\n        tag_14:\n            /* \"#utility.yul\":197:198   */\n          0x00\n            /* \"#utility.yul\":194:195   */\n          0x00\n            /* \"#utility.yul\":187:199   */\n          revert\n            /* \"#utility.yul\":334:460   */\n        tag_16:\n            /* \"#utility.yul\":371:378   */\n          0x00\n            /* \"#utility.yul\":411:453   */\n          0xffffffffffffffffffffffffffffffffffffffff\n            /* \"#utility.yul\":404:409   */\n          dup3\n            /* \"#utility.yul\":400:454   */\n          and\n            /* \"#utility.yul\":389:454   */\n          swap1\n          pop\n            /* \"#utility.yul\":334:460   */\n          swap2\n          swap1\n          pop\n          jump\t// out\n            /* \"#utility.yul\":466:562   */\n        tag_17:\n            /* \"#utility.yul\":503:510   */\n          0x00\n            /* \"#utility.yul\":532:556   */\n          tag_29\n            /* \"#utility.yul\":550:555   */\n          dup3\n            /* \"#utility.yul\":532:556   */\n          tag_16\n          jump\t// in\n        tag_29:\n            /* \"#utility.yul\":521:556   */\n          swap1\n          pop\n            /* \"#utility.yul\":466:562   */\n          swap2\n          swap1\n          pop\n          jump\t// out\n            /* \"#utility.yul\":568:690   */\n        tag_18:\n            /* \"#utility.yul\":641:665   */\n          tag_31\n            /* \"#utility.yul\":659:664   */\n          dup2\n            /* \"#utility.yul\":641:665   */\n          tag_17\n          jump\t// in\n        tag_31:\n            /* \"#utility.yul\":634:639   */\n          dup2\n            /* \"#utility.yul\":631:666   */\n          eq\n            /* \"#utility.yul\":621:684   */\n          tag_32\n          jumpi\n            /* \"#utility.yul\":680:681   */\n          0x00\n            /* \"#utility.yul\":677:678   */\n          0x00\n            /* \"#utility.yul\":670:682   */\n          revert\n            /* \"#utility.yul\":621:684   */\n        tag_32:\n            /* \"#utility.yul\":568:690   */\n          pop\n          jump\t// out\n            /* \"#utility.yul\":696:839   */\n        tag_19:\n            /* \"#utility.yul\":753:758   */\n          0x00\n            /* \"#utility.yul\":784:790   */\n          dup2\n            /* \"#utility.yul\":778:791   */\n          mload\n            /* \"#utility.yul\":769:791   */\n          swap1\n          pop\n            /* \"#utility.yul\":800:833   */\n          tag_34\n            /* \"#utility.yul\":827:832   */\n          dup2\n            /* \"#utility.yul\":800:833   */\n          tag_18\n          jump\t// in\n        tag_34:\n            /* \"#utility.yul\":696:839   */\n          swap3\n          swap2\n          pop\n          pop\n          jump\t// out\n            /* \"#utility.yul\":845:1196   */\n        tag_3:\n            /* \"#utility.yul\":915:921   */\n          0x00\n            /* \"#utility.yul\":964:966   */\n          0x20\n            /* \"#utility.yul\":952:961   */\n          dup3\n            /* \"#utility.yul\":943:950   */\n          dup5\n            /* \"#utility.yul\":939:962   */\n          sub\n            /* \"#utility.yul\":935:967   */\n          slt\n            /* \"#utility.yul\":932:1051   */\n          iszero\n          tag_36\n          jumpi\n            /* \"#utility.yul\":970:1049   */\n          tag_37\n          tag_14\n          jump\t// in\n        tag_37:\n            /* \"#utility.yul\":932:1051   */\n        tag_36:\n            /* \"#utility.yul\":1090:1091   */\n          0x00\n            /* \"#utility.yul\":1115:1179   */\n          tag_38\n            /* \"#utility.yul\":1171:1178   */\n          dup5\n            /* \"#utility.yul\":1162:1168   */\n          dup3\n            /* \"#utility.yul\":1151:1160   */\n          dup6\n            /* \"#utility.yul\":1147:1169   */\n          add\n            /* \"#utility.yul\":1115:1179   */\n          tag_19\n          jump\t// in\n        tag_38:\n            /* \"#utility.yul\":1105:1179   */\n          swap2\n          pop\n            /* \"#utility.yul\":1061:1189   */\n          pop\n            /* \"#utility.yul\":845:1196   */\n          swap3\n          swap2\n          pop\n          pop\n          jump\t// out\n            /* \"#utility.yul\":1202:1371   */\n        tag_20:\n            /* \"#utility.yul\":1286:1297   */\n          0x00\n            /* \"#utility.yul\":1320:1326   */\n          dup3\n            /* \"#utility.yul\":1315:1318   */\n          dup3\n            /* \"#utility.yul\":1308:1327   */\n          mstore\n            /* \"#utility.yul\":1360:1364   */\n          0x20\n            /* \"#utility.yul\":1355:1358   */\n          dup3\n            /* \"#utility.yul\":1351:1365   */\n          add\n            /* \"#utility.yul\":1336:1365   */\n          swap1\n          pop\n            /* \"#utility.yul\":1202:1371   */\n          swap3\n          swap2\n          pop\n          pop\n          jump\t// out\n            /* \"#utility.yul\":1377:1542   */\n        tag_21:\n            /* \"#utility.yul\":1517:1534   */\n          0x696e76616c696420616464726573730000000000000000000000000000000000\n            /* \"#utility.yul\":1513:1514   */\n          0x00\n            /* \"#utility.yul\":1505:1511   */\n          dup3\n            /* \"#utility.yul\":1501:1515   */\n          add\n            /* \"#utility.yul\":1494:1535   */\n          mstore\n            /* \"#utility.yul\":1377:1542   */\n          pop\n          jump\t// out\n            /* \"#utility.yul\":1548:1914   */\n        tag_22:\n            /* \"#utility.yul\":1690:1693   */\n          0x00\n            /* \"#utility.yul\":1711:1778   */\n          tag_42\n            /* \"#utility.yul\":1775:1777   */\n          0x0f\n            /* \"#utility.yul\":1770:1773   */\n          dup4\n            /* \"#utility.yul\":1711:1778   */\n          tag_20\n          jump\t// in\n        tag_42:\n            /* \"#utility.yul\":1704:1778   */\n          swap2\n          pop\n            /* \"#utility.yul\":1787:1880   */\n          tag_43\n            /* \"#utility.yul\":1876:1879   */\n          dup3\n            /* \"#utility.yul\":1787:1880   */\n          tag_21\n          jump\t// in\n        tag_43:\n            /* \"#utility.yul\":1905:1907   */\n          0x20\n            /* \"#utility.yul\":1900:1903   */\n          dup3\n            /* \"#utility.yul\":1896:1908   */\n          add\n            /* \"#utility.yul\":1889:1908   */\n          swap1\n          pop\n            /* \"#utility.yul\":1548:1914   */\n          swap2\n          swap1\n          pop\n          jump\t// out\n            /* \"#utility.yul\":1920:2339   */\n        tag_8:\n            /* \"#utility.yul\":2086:2090   */\n          0x00\n            /* \"#utility.yul\":2124:2126   */\n          0x20\n            /* \"#utility.yul\":2113:2122   */\n          dup3\n            /* \"#utility.yul\":2109:2127   */\n          add\n            /* \"#utility.yul\":2101:2127   */\n          swap1\n          pop\n            /* \"#utility.yul\":2173:2182   */\n          dup2\n            /* \"#utility.yul\":2167:2171   */\n          dup2\n            /* \"#utility.yul\":2163:2183   */\n          sub\n            /* \"#utility.yul\":2159:2160   */\n          0x00\n            /* \"#utility.yul\":2148:2157   */\n          dup4\n            /* \"#utility.yul\":2144:2161   */\n          add\n            /* \"#utility.yul\":2137:2184   */\n          mstore\n            /* \"#utility.yul\":2201:2332   */\n          tag_45\n            /* \"#utility.yul\":2327:2331   */\n          dup2\n            /* \"#utility.yul\":2201:2332   */\n          tag_22\n          jump\t// in\n        tag_45:\n            /* \"#utility.yul\":2193:2332   */\n          swap1\n          pop\n            /* \"#utility.yul\":1920:2339   */\n          swap2\n          swap1\n          pop\n          jump\t// out\n            /* \"#utility.yul\":2345:2525   */\n        tag_11:\n            /* \"#utility.yul\":2393:2470   */\n          0x4e487b7100000000000000000000000000000000000000000000000000000000\n            /* \"#utility.yul\":2390:2391   */\n          0x00\n            /* \"#utility.yul\":2383:2471   */\n          mstore\n            /* \"#utility.yul\":2490:2494   */\n          0x01\n            /* \"#utility.yul\":2487:2488   */\n          0x04\n            /* \"#utility.yul\":2480:2495   */\n          mstore\n            /* \"#utility.yul\":2514:2518   */\n          0x24\n            /* \"#utility.yul\":2511:2512   */\n          0x00\n            /* \"#utility.yul\":2504:2519   */\n          revert\n            /* \"Sol_by_Example/Basics/31.TryAndCatch.sol\":203:714  contract Foo {... */\n        tag_12:\n          dataSize(sub_0)\n          dup1\n          dataOffset(sub_0)\n          0x00\n          codecopy\n          0x00\n          return\n        stop\n\n        sub_0: assembly {\n                /* \"Sol_by_Example/Basics/31.TryAndCatch.sol\":203:714  contract Foo {... */\n              mstore(0x40, 0x80)\n              callvalue\n              dup1\n              iszero\n              tag_1\n              jumpi\n              revert(0x00, 0x00)\n            tag_1:\n              pop\n              jumpi(tag_2, lt(calldatasize, 0x04))\n              shr(0xe0, calldataload(0x00))\n              dup1\n              0x0c55699c\n              eq\n              tag_3\n              jumpi\n              dup1\n              0x4018d9aa\n              eq\n              tag_4\n              jumpi\n              dup1\n              0x8da5cb5b\n              eq\n              tag_5\n              jumpi\n              dup1\n              0xa9bf5633\n              eq\n              tag_6\n              jumpi\n            tag_2:\n              revert(0x00, 0x00)\n                /* \"Sol_by_Example/Basics/31.TryAndCatch.sol\":248:261  uint public x */\n            tag_3:\n              tag_7\n              tag_8\n              jump\t// in\n            tag_7:\n              mload(0x40)\n              tag_9\n              swap2\n              swap1\n              tag_10\n              jump\t// in\n            tag_9:\n              mload(0x40)\n              dup1\n              swap2\n              sub\n              swap1\n              return\n                /* \"Sol_by_Example/Basics/31.TryAndCatch.sol\":461:557  function setX(uint _x) public {... */\n            tag_4:\n              tag_11\n              0x04\n              dup1\n              calldatasize\n              sub\n              dup2\n              add\n              swap1\n              tag_12\n              swap2\n              swap1\n              tag_13\n              jump\t// in\n            tag_12:\n              tag_14\n              jump\t// in\n            tag_11:\n              stop\n                /* \"Sol_by_Example/Basics/31.TryAndCatch.sol\":222:242  address public owner */\n            tag_5:\n              tag_15\n              tag_16\n              jump\t// in\n            tag_15:\n              mload(0x40)\n              tag_17\n              swap2\n              swap1\n              tag_18\n              jump\t// in\n            tag_17:\n              mload(0x40)\n              dup1\n              swap2\n              sub\n              swap1\n              return\n                /* \"Sol_by_Example/Basics/31.TryAndCatch.sol\":563:712  function myFunc(uint _x) public pure returns (string memory) {... */\n            tag_6:\n              tag_19\n              0x04\n              dup1\n              calldatasize\n              sub\n              dup2\n              add\n              swap1\n              tag_20\n              swap2\n              swap1\n              tag_13\n              jump\t// in\n            tag_20:\n              tag_21\n              jump\t// in\n            tag_19:\n              mload(0x40)\n              tag_22\n              swap2\n              swap1\n              tag_23\n              jump\t// in\n            tag_22:\n              mload(0x40)\n              dup1\n              swap2\n              sub\n              swap1\n              return\n                /* \"Sol_by_Example/Basics/31.TryAndCatch.sol\":248:261  uint public x */\n            tag_8:\n              sload(0x01)\n              dup2\n              jump\t// out\n                /* \"Sol_by_Example/Basics/31.TryAndCatch.sol\":461:557  function setX(uint _x) public {... */\n            tag_14:\n                /* \"Sol_by_Example/Basics/31.TryAndCatch.sol\":514:516  10 */\n              0x0a\n                /* \"Sol_by_Example/Basics/31.TryAndCatch.sol\":509:511  _x */\n              dup2\n                /* \"Sol_by_Example/Basics/31.TryAndCatch.sol\":509:516  _x > 10 */\n              gt\n                /* \"Sol_by_Example/Basics/31.TryAndCatch.sol\":501:534  require(_x > 10, \"invalid value\") */\n              tag_25\n              jumpi\n              mload(0x40)\n              0x08c379a000000000000000000000000000000000000000000000000000000000\n              dup2\n              mstore\n              0x04\n              add\n              tag_26\n              swap1\n              tag_27\n              jump\t// in\n            tag_26:\n              mload(0x40)\n              dup1\n              swap2\n              sub\n              swap1\n              revert\n            tag_25:\n                /* \"Sol_by_Example/Basics/31.TryAndCatch.sol\":548:550  _x */\n              dup1\n                /* \"Sol_by_Example/Basics/31.TryAndCatch.sol\":544:545  x */\n              0x01\n                /* \"Sol_by_Example/Basics/31.TryAndCatch.sol\":544:550  x = _x */\n              dup2\n              swap1\n              sstore\n              pop\n                /* \"Sol_by_Example/Basics/31.TryAndCatch.sol\":461:557  function setX(uint _x) public {... */\n              pop\n              jump\t// out\n                /* \"Sol_by_Example/Basics/31.TryAndCatch.sol\":222:242  address public owner */\n            tag_16:\n              0x00\n              0x00\n              swap1\n              sload\n              swap1\n              0x0100\n              exp\n              swap1\n              div\n              0xffffffffffffffffffffffffffffffffffffffff\n              and\n              dup2\n              jump\t// out\n                /* \"Sol_by_Example/Basics/31.TryAndCatch.sol\":563:712  function myFunc(uint _x) public pure returns (string memory) {... */\n            tag_21:\n                /* \"Sol_by_Example/Basics/31.TryAndCatch.sol\":609:622  string memory */\n              0x60\n                /* \"Sol_by_Example/Basics/31.TryAndCatch.sol\":648:649  0 */\n              0x00\n                /* \"Sol_by_Example/Basics/31.TryAndCatch.sol\":642:644  _x */\n              dup3\n                /* \"Sol_by_Example/Basics/31.TryAndCatch.sol\":642:649  _x != 0 */\n              sub\n                /* \"Sol_by_Example/Basics/31.TryAndCatch.sol\":634:668  require(_x != 0, \"require failed\") */\n              tag_29\n              jumpi\n              mload(0x40)\n              0x08c379a000000000000000000000000000000000000000000000000000000000\n              dup2\n              mstore\n              0x04\n              add\n              tag_30\n              swap1\n              tag_31\n              jump\t// in\n            tag_30:\n              mload(0x40)\n              dup1\n              swap2\n              sub\n              swap1\n              revert\n            tag_29:\n                /* \"Sol_by_Example/Basics/31.TryAndCatch.sol\":678:705  return \"myFunc was called!\" */\n              mload(0x40)\n              dup1\n              0x40\n              add\n              0x40\n              mstore\n              dup1\n              0x12\n              dup2\n              mstore\n              0x20\n              add\n              0x6d7946756e63207761732063616c6c6564210000000000000000000000000000\n              dup2\n              mstore\n              pop\n              swap1\n              pop\n                /* \"Sol_by_Example/Basics/31.TryAndCatch.sol\":563:712  function myFunc(uint _x) public pure returns (string memory) {... */\n              swap2\n              swap1\n              pop\n              jump\t// out\n                /* \"#utility.yul\":7:84   */\n            tag_32:\n                /* \"#utility.yul\":44:51   */\n              0x00\n                /* \"#utility.yul\":73:78   */\n              dup2\n                /* \"#utility.yul\":62:78   */\n              swap1\n              pop\n                /* \"#utility.yul\":7:84   */\n              swap2\n              swap1\n              pop\n              jump\t// out\n                /* \"#utility.yul\":90:208   */\n            tag_33:\n                /* \"#utility.yul\":177:201   */\n              tag_54\n                /* \"#utility.yul\":195:200   */\n              dup2\n                /* \"#utility.yul\":177:201   */\n              tag_32\n              jump\t// in\n            tag_54:\n                /* \"#utility.yul\":172:175   */\n              dup3\n                /* \"#utility.yul\":165:202   */\n              mstore\n                /* \"#utility.yul\":90:208   */\n              pop\n              pop\n              jump\t// out\n                /* \"#utility.yul\":214:436   */\n            tag_10:\n                /* \"#utility.yul\":307:311   */\n              0x00\n                /* \"#utility.yul\":345:347   */\n              0x20\n                /* \"#utility.yul\":334:343   */\n              dup3\n                /* \"#utility.yul\":330:348   */\n              add\n                /* \"#utility.yul\":322:348   */\n              swap1\n              pop\n                /* \"#utility.yul\":358:429   */\n              tag_56\n                /* \"#utility.yul\":426:427   */\n              0x00\n                /* \"#utility.yul\":415:424   */\n              dup4\n                /* \"#utility.yul\":411:428   */\n              add\n                /* \"#utility.yul\":402:408   */\n              dup5\n                /* \"#utility.yul\":358:429   */\n              tag_33\n              jump\t// in\n            tag_56:\n                /* \"#utility.yul\":214:436   */\n              swap3\n              swap2\n              pop\n              pop\n              jump\t// out\n                /* \"#utility.yul\":523:640   */\n            tag_35:\n                /* \"#utility.yul\":632:633   */\n              0x00\n                /* \"#utility.yul\":629:630   */\n              0x00\n                /* \"#utility.yul\":622:634   */\n              revert\n                /* \"#utility.yul\":769:891   */\n            tag_37:\n                /* \"#utility.yul\":842:866   */\n              tag_61\n                /* \"#utility.yul\":860:865   */\n              dup2\n                /* \"#utility.yul\":842:866   */\n              tag_32\n              jump\t// in\n            tag_61:\n                /* \"#utility.yul\":835:840   */\n              dup2\n                /* \"#utility.yul\":832:867   */\n              eq\n                /* \"#utility.yul\":822:885   */\n              tag_62\n              jumpi\n                /* \"#utility.yul\":881:882   */\n              0x00\n                /* \"#utility.yul\":878:879   */\n              0x00\n                /* \"#utility.yul\":871:883   */\n              revert\n                /* \"#utility.yul\":822:885   */\n            tag_62:\n                /* \"#utility.yul\":769:891   */\n              pop\n              jump\t// out\n                /* \"#utility.yul\":897:1036   */\n            tag_38:\n                /* \"#utility.yul\":943:948   */\n              0x00\n                /* \"#utility.yul\":981:987   */\n              dup2\n                /* \"#utility.yul\":968:988   */\n              calldataload\n                /* \"#utility.yul\":959:988   */\n              swap1\n              pop\n                /* \"#utility.yul\":997:1030   */\n              tag_64\n                /* \"#utility.yul\":1024:1029   */\n              dup2\n                /* \"#utility.yul\":997:1030   */\n              tag_37\n              jump\t// in\n            tag_64:\n                /* \"#utility.yul\":897:1036   */\n              swap3\n              swap2\n              pop\n              pop\n              jump\t// out\n                /* \"#utility.yul\":1042:1371   */\n            tag_13:\n                /* \"#utility.yul\":1101:1107   */\n              0x00\n                /* \"#utility.yul\":1150:1152   */\n              0x20\n                /* \"#utility.yul\":1138:1147   */\n              dup3\n                /* \"#utility.yul\":1129:1136   */\n              dup5\n                /* \"#utility.yul\":1125:1148   */\n              sub\n                /* \"#utility.yul\":1121:1153   */\n              slt\n                /* \"#utility.yul\":1118:1237   */\n              iszero\n              tag_66\n              jumpi\n                /* \"#utility.yul\":1156:1235   */\n              tag_67\n              tag_35\n              jump\t// in\n            tag_67:\n                /* \"#utility.yul\":1118:1237   */\n            tag_66:\n                /* \"#utility.yul\":1276:1277   */\n              0x00\n                /* \"#utility.yul\":1301:1354   */\n              tag_68\n                /* \"#utility.yul\":1346:1353   */\n              dup5\n                /* \"#utility.yul\":1337:1343   */\n              dup3\n                /* \"#utility.yul\":1326:1335   */\n              dup6\n                /* \"#utility.yul\":1322:1344   */\n              add\n                /* \"#utility.yul\":1301:1354   */\n              tag_38\n              jump\t// in\n            tag_68:\n                /* \"#utility.yul\":1291:1354   */\n              swap2\n              pop\n                /* \"#utility.yul\":1247:1364   */\n              pop\n                /* \"#utility.yul\":1042:1371   */\n              swap3\n              swap2\n              pop\n              pop\n              jump\t// out\n                /* \"#utility.yul\":1377:1503   */\n            tag_39:\n                /* \"#utility.yul\":1414:1421   */\n              0x00\n                /* \"#utility.yul\":1454:1496   */\n              0xffffffffffffffffffffffffffffffffffffffff\n                /* \"#utility.yul\":1447:1452   */\n              dup3\n                /* \"#utility.yul\":1443:1497   */\n              and\n                /* \"#utility.yul\":1432:1497   */\n              swap1\n              pop\n                /* \"#utility.yul\":1377:1503   */\n              swap2\n              swap1\n              pop\n              jump\t// out\n                /* \"#utility.yul\":1509:1605   */\n            tag_40:\n                /* \"#utility.yul\":1546:1553   */\n              0x00\n                /* \"#utility.yul\":1575:1599   */\n              tag_71\n                /* \"#utility.yul\":1593:1598   */\n              dup3\n                /* \"#utility.yul\":1575:1599   */\n              tag_39\n              jump\t// in\n            tag_71:\n                /* \"#utility.yul\":1564:1599   */\n              swap1\n              pop\n                /* \"#utility.yul\":1509:1605   */\n              swap2\n              swap1\n              pop\n              jump\t// out\n                /* \"#utility.yul\":1611:1729   */\n            tag_41:\n                /* \"#utility.yul\":1698:1722   */\n              tag_73\n                /* \"#utility.yul\":1716:1721   */\n              dup2\n                /* \"#utility.yul\":1698:1722   */\n              tag_40\n              jump\t// in\n            tag_73:\n                /* \"#utility.yul\":1693:1696   */\n              dup3\n                /* \"#utility.yul\":1686:1723   */\n              mstore\n                /* \"#utility.yul\":1611:1729   */\n              pop\n              pop\n              jump\t// out\n                /* \"#utility.yul\":1735:1957   */\n            tag_18:\n                /* \"#utility.yul\":1828:1832   */\n              0x00\n                /* \"#utility.yul\":1866:1868   */\n              0x20\n                /* \"#utility.yul\":1855:1864   */\n              dup3\n                /* \"#utility.yul\":1851:1869   */\n              add\n                /* \"#utility.yul\":1843:1869   */\n              swap1\n              pop\n                /* \"#utility.yul\":1879:1950   */\n              tag_75\n                /* \"#utility.yul\":1947:1948   */\n              0x00\n                /* \"#utility.yul\":1936:1945   */\n              dup4\n                /* \"#utility.yul\":1932:1949   */\n              add\n                /* \"#utility.yul\":1923:1929   */\n              dup5\n                /* \"#utility.yul\":1879:1950   */\n              tag_41\n              jump\t// in\n            tag_75:\n                /* \"#utility.yul\":1735:1957   */\n              swap3\n              swap2\n              pop\n              pop\n              jump\t// out\n                /* \"#utility.yul\":1963:2062   */\n            tag_42:\n                /* \"#utility.yul\":2015:2021   */\n              0x00\n                /* \"#utility.yul\":2049:2054   */\n              dup2\n                /* \"#utility.yul\":2043:2055   */\n              mload\n                /* \"#utility.yul\":2033:2055   */\n              swap1\n              pop\n                /* \"#utility.yul\":1963:2062   */\n              swap2\n              swap1\n              pop\n              jump\t// out\n                /* \"#utility.yul\":2068:2237   */\n            tag_43:\n                /* \"#utility.yul\":2152:2163   */\n              0x00\n                /* \"#utility.yul\":2186:2192   */\n              dup3\n                /* \"#utility.yul\":2181:2184   */\n              dup3\n                /* \"#utility.yul\":2174:2193   */\n              mstore\n                /* \"#utility.yul\":2226:2230   */\n              0x20\n                /* \"#utility.yul\":2221:2224   */\n              dup3\n                /* \"#utility.yul\":2217:2231   */\n              add\n                /* \"#utility.yul\":2202:2231   */\n              swap1\n              pop\n                /* \"#utility.yul\":2068:2237   */\n              swap3\n              swap2\n              pop\n              pop\n              jump\t// out\n                /* \"#utility.yul\":2243:2382   */\n            tag_44:\n                /* \"#utility.yul\":2332:2338   */\n              dup3\n                /* \"#utility.yul\":2327:2330   */\n              dup2\n                /* \"#utility.yul\":2322:2325   */\n              dup4\n                /* \"#utility.yul\":2316:2339   */\n              mcopy\n                /* \"#utility.yul\":2373:2374   */\n              0x00\n                /* \"#utility.yul\":2364:2370   */\n              dup4\n                /* \"#utility.yul\":2359:2362   */\n              dup4\n                /* \"#utility.yul\":2355:2371   */\n              add\n                /* \"#utility.yul\":2348:2375   */\n              mstore\n                /* \"#utility.yul\":2243:2382   */\n              pop\n              pop\n              pop\n              jump\t// out\n                /* \"#utility.yul\":2388:2490   */\n            tag_45:\n                /* \"#utility.yul\":2429:2435   */\n              0x00\n                /* \"#utility.yul\":2480:2482   */\n              0x1f\n                /* \"#utility.yul\":2476:2483   */\n              not\n                /* \"#utility.yul\":2471:2473   */\n              0x1f\n                /* \"#utility.yul\":2464:2469   */\n              dup4\n                /* \"#utility.yul\":2460:2474   */\n              add\n                /* \"#utility.yul\":2456:2484   */\n              and\n                /* \"#utility.yul\":2446:2484   */\n              swap1\n              pop\n                /* \"#utility.yul\":2388:2490   */\n              swap2\n              swap1\n              pop\n              jump\t// out\n                /* \"#utility.yul\":2496:2873   */\n            tag_46:\n                /* \"#utility.yul\":2584:2587   */\n              0x00\n                /* \"#utility.yul\":2612:2651   */\n              tag_81\n                /* \"#utility.yul\":2645:2650   */\n              dup3\n                /* \"#utility.yul\":2612:2651   */\n              tag_42\n              jump\t// in\n            tag_81:\n                /* \"#utility.yul\":2667:2738   */\n              tag_82\n                /* \"#utility.yul\":2731:2737   */\n              dup2\n                /* \"#utility.yul\":2726:2729   */\n              dup6\n                /* \"#utility.yul\":2667:2738   */\n              tag_43\n              jump\t// in\n            tag_82:\n                /* \"#utility.yul\":2660:2738   */\n              swap4\n              pop\n                /* \"#utility.yul\":2747:2812   */\n              tag_83\n                /* \"#utility.yul\":2805:2811   */\n              dup2\n                /* \"#utility.yul\":2800:2803   */\n              dup6\n                /* \"#utility.yul\":2793:2797   */\n              0x20\n                /* \"#utility.yul\":2786:2791   */\n              dup7\n                /* \"#utility.yul\":2782:2798   */\n              add\n                /* \"#utility.yul\":2747:2812   */\n              tag_44\n              jump\t// in\n            tag_83:\n                /* \"#utility.yul\":2837:2866   */\n              tag_84\n                /* \"#utility.yul\":2859:2865   */\n              dup2\n                /* \"#utility.yul\":2837:2866   */\n              tag_45\n              jump\t// in\n            tag_84:\n                /* \"#utility.yul\":2832:2835   */\n              dup5\n                /* \"#utility.yul\":2828:2867   */\n              add\n                /* \"#utility.yul\":2821:2867   */\n              swap2\n              pop\n                /* \"#utility.yul\":2588:2873   */\n              pop\n                /* \"#utility.yul\":2496:2873   */\n              swap3\n              swap2\n              pop\n              pop\n              jump\t// out\n                /* \"#utility.yul\":2879:3192   */\n            tag_23:\n                /* \"#utility.yul\":2992:2996   */\n              0x00\n                /* \"#utility.yul\":3030:3032   */\n              0x20\n                /* \"#utility.yul\":3019:3028   */\n              dup3\n                /* \"#utility.yul\":3015:3033   */\n              add\n                /* \"#utility.yul\":3007:3033   */\n              swap1\n              pop\n                /* \"#utility.yul\":3079:3088   */\n              dup2\n                /* \"#utility.yul\":3073:3077   */\n              dup2\n                /* \"#utility.yul\":3069:3089   */\n              sub\n                /* \"#utility.yul\":3065:3066   */\n              0x00\n                /* \"#utility.yul\":3054:3063   */\n              dup4\n                /* \"#utility.yul\":3050:3067   */\n              add\n                /* \"#utility.yul\":3043:3090   */\n              mstore\n                /* \"#utility.yul\":3107:3185   */\n              tag_86\n                /* \"#utility.yul\":3180:3184   */\n              dup2\n                /* \"#utility.yul\":3171:3177   */\n              dup5\n                /* \"#utility.yul\":3107:3185   */\n              tag_46\n              jump\t// in\n            tag_86:\n                /* \"#utility.yul\":3099:3185   */\n              swap1\n              pop\n                /* \"#utility.yul\":2879:3192   */\n              swap3\n              swap2\n              pop\n              pop\n              jump\t// out\n                /* \"#utility.yul\":3198:3361   */\n            tag_47:\n                /* \"#utility.yul\":3338:3353   */\n              0x696e76616c69642076616c756500000000000000000000000000000000000000\n                /* \"#utility.yul\":3334:3335   */\n              0x00\n                /* \"#utility.yul\":3326:3332   */\n              dup3\n                /* \"#utility.yul\":3322:3336   */\n              add\n                /* \"#utility.yul\":3315:3354   */\n              mstore\n                /* \"#utility.yul\":3198:3361   */\n              pop\n              jump\t// out\n                /* \"#utility.yul\":3367:3733   */\n            tag_48:\n                /* \"#utility.yul\":3509:3512   */\n              0x00\n                /* \"#utility.yul\":3530:3597   */\n              tag_89\n                /* \"#utility.yul\":3594:3596   */\n              0x0d\n                /* \"#utility.yul\":3589:3592   */\n              dup4\n                /* \"#utility.yul\":3530:3597   */\n              tag_43\n              jump\t// in\n            tag_89:\n                /* \"#utility.yul\":3523:3597   */\n              swap2\n              pop\n                /* \"#utility.yul\":3606:3699   */\n              tag_90\n                /* \"#utility.yul\":3695:3698   */\n              dup3\n                /* \"#utility.yul\":3606:3699   */\n              tag_47\n              jump\t// in\n            tag_90:\n                /* \"#utility.yul\":3724:3726   */\n              0x20\n                /* \"#utility.yul\":3719:3722   */\n              dup3\n                /* \"#utility.yul\":3715:3727   */\n              add\n                /* \"#utility.yul\":3708:3727   */\n              swap1\n              pop\n                /* \"#utility.yul\":3367:3733   */\n              swap2\n              swap1\n              pop\n              jump\t// out\n                /* \"#utility.yul\":3739:4158   */\n            tag_27:\n                /* \"#utility.yul\":3905:3909   */\n              0x00\n                /* \"#utility.yul\":3943:3945   */\n              0x20\n                /* \"#utility.yul\":3932:3941   */\n              dup3\n                /* \"#utility.yul\":3928:3946   */\n              add\n                /* \"#utility.yul\":3920:3946   */\n              swap1\n              pop\n                /* \"#utility.yul\":3992:4001   */\n              dup2\n                /* \"#utility.yul\":3986:3990   */\n              dup2\n                /* \"#utility.yul\":3982:4002   */\n              sub\n                /* \"#utility.yul\":3978:3979   */\n              0x00\n                /* \"#utility.yul\":3967:3976   */\n              dup4\n                /* \"#utility.yul\":3963:3980   */\n              add\n                /* \"#utility.yul\":3956:4003   */\n              mstore\n                /* \"#utility.yul\":4020:4151   */\n              tag_92\n                /* \"#utility.yul\":4146:4150   */\n              dup2\n                /* \"#utility.yul\":4020:4151   */\n              tag_48\n              jump\t// in\n            tag_92:\n                /* \"#utility.yul\":4012:4151   */\n              swap1\n              pop\n                /* \"#utility.yul\":3739:4158   */\n              swap2\n              swap1\n              pop\n              jump\t// out\n                /* \"#utility.yul\":4164:4328   */\n            tag_49:\n                /* \"#utility.yul\":4304:4320   */\n              0x72657175697265206661696c6564000000000000000000000000000000000000\n                /* \"#utility.yul\":4300:4301   */\n              0x00\n                /* \"#utility.yul\":4292:4298   */\n              dup3\n                /* \"#utility.yul\":4288:4302   */\n              add\n                /* \"#utility.yul\":4281:4321   */\n              mstore\n                /* \"#utility.yul\":4164:4328   */\n              pop\n              jump\t// out\n                /* \"#utility.yul\":4334:4700   */\n            tag_50:\n                /* \"#utility.yul\":4476:4479   */\n              0x00\n                /* \"#utility.yul\":4497:4564   */\n              tag_95\n                /* \"#utility.yul\":4561:4563   */\n              0x0e\n                /* \"#utility.yul\":4556:4559   */\n              dup4\n                /* \"#utility.yul\":4497:4564   */\n              tag_43\n              jump\t// in\n            tag_95:\n                /* \"#utility.yul\":4490:4564   */\n              swap2\n              pop\n                /* \"#utility.yul\":4573:4666   */\n              tag_96\n                /* \"#utility.yul\":4662:4665   */\n              dup3\n                /* \"#utility.yul\":4573:4666   */\n              tag_49\n              jump\t// in\n            tag_96:\n                /* \"#utility.yul\":4691:4693   */\n              0x20\n                /* \"#utility.yul\":4686:4689   */\n              dup3\n                /* \"#utility.yul\":4682:4694   */\n              add\n                /* \"#utility.yul\":4675:4694   */\n              swap1\n              pop\n                /* \"#utility.yul\":4334:4700   */\n              swap2\n              swap1\n              pop\n              jump\t// out\n                /* \"#utility.yul\":4706:5125   */\n            tag_31:\n                /* \"#utility.yul\":4872:4876   */\n              0x00\n                /* \"#utility.yul\":4910:4912   */\n              0x20\n                /* \"#utility.yul\":4899:4908   */\n              dup3\n                /* \"#utility.yul\":4895:4913   */\n              add\n                /* \"#utility.yul\":4887:4913   */\n              swap1\n              pop\n                /* \"#utility.yul\":4959:4968   */\n              dup2\n                /* \"#utility.yul\":4953:4957   */\n              dup2\n                /* \"#utility.yul\":4949:4969   */\n              sub\n                /* \"#utility.yul\":4945:4946   */\n              0x00\n                /* \"#utility.yul\":4934:4943   */\n              dup4\n                /* \"#utility.yul\":4930:4947   */\n              add\n                /* \"#utility.yul\":4923:4970   */\n              mstore\n                /* \"#utility.yul\":4987:5118   */\n              tag_98\n                /* \"#utility.yul\":5113:5117   */\n              dup2\n                /* \"#utility.yul\":4987:5118   */\n              tag_50\n              jump\t// in\n            tag_98:\n                /* \"#utility.yul\":4979:5118   */\n              swap1\n              pop\n                /* \"#utility.yul\":4706:5125   */\n              swap2\n              swap1\n              pop\n              jump\t// out\n\n            auxdata: 0xa26469706673582212205da2848370b47e921722266649f3d043f5b4c36d4cedfaff67e79ced3caaf18d64736f6c634300081f0033\n        }\n    }\n\n    auxdata: 0xa2646970667358221220c93d3342779c0e3c368f844d0cc07dcaadd8c30c86e7a28d6376d4a34405b84b64736f6c634300081f0033\n}\n\nsub_1: assembly {\n        /* \"Sol_by_Example/Basics/31.TryAndCatch.sol\":203:714  contract Foo {... */\n      mstore(0x40, 0x80)\n        /* \"Sol_by_Example/Basics/31.TryAndCatch.sol\":268:455  constructor(address _owner) {... */\n      callvalue\n      dup1\n      iszero\n      tag_1\n      jumpi\n      revert(0x00, 0x00)\n    tag_1:\n      pop\n      mload(0x40)\n      sub(codesize, bytecodeSize)\n      dup1\n      bytecodeSize\n      dup4\n      codecopy\n      dup2\n      dup2\n      add\n      0x40\n      mstore\n      dup2\n      add\n      swap1\n      tag_2\n      swap2\n      swap1\n      tag_3\n      jump\t// in\n    tag_2:\n        /* \"Sol_by_Example/Basics/31.TryAndCatch.sol\":332:333  0 */\n      0x00\n        /* \"Sol_by_Example/Basics/31.TryAndCatch.sol\":314:334  _owner != address(0) */\n      0xffffffffffffffffffffffffffffffffffffffff\n      and\n        /* \"Sol_by_Example/Basics/31.TryAndCatch.sol\":314:320  _owner */\n      dup2\n        /* \"Sol_by_Example/Basics/31.TryAndCatch.sol\":314:334  _owner != address(0) */\n      0xffffffffffffffffffffffffffffffffffffffff\n      and\n      sub\n        /* \"Sol_by_Example/Basics/31.TryAndCatch.sol\":306:354  require(_owner != address(0), \"invalid address\") */\n      tag_6\n      jumpi\n      mload(0x40)\n      0x08c379a000000000000000000000000000000000000000000000000000000000\n      dup2\n      mstore\n      0x04\n      add\n      tag_7\n      swap1\n      tag_8\n      jump\t// in\n    tag_7:\n      mload(0x40)\n      dup1\n      swap2\n      sub\n      swap1\n      revert\n    tag_6:\n        /* \"Sol_by_Example/Basics/31.TryAndCatch.sol\":381:423  0x0000000000000000000000000000000000000001 */\n      0x01\n        /* \"Sol_by_Example/Basics/31.TryAndCatch.sol\":371:423  _owner != 0x0000000000000000000000000000000000000001 */\n      0xffffffffffffffffffffffffffffffffffffffff\n      and\n        /* \"Sol_by_Example/Basics/31.TryAndCatch.sol\":371:377  _owner */\n      dup2\n        /* \"Sol_by_Example/Basics/31.TryAndCatch.sol\":371:423  _owner != 0x0000000000000000000000000000000000000001 */\n      0xffffffffffffffffffffffffffffffffffffffff\n      and\n      sub\n        /* \"Sol_by_Example/Basics/31.TryAndCatch.sol\":364:424  assert(_owner != 0x0000000000000000000000000000000000000001) */\n      tag_9\n      jumpi\n      tag_10\n      tag_11\n      jump\t// in\n    tag_10:\n    tag_9:\n        /* \"Sol_by_Example/Basics/31.TryAndCatch.sol\":442:448  _owner */\n      dup1\n        /* \"Sol_by_Example/Basics/31.TryAndCatch.sol\":434:439  owner */\n      0x00\n      0x00\n        /* \"Sol_by_Example/Basics/31.TryAndCatch.sol\":434:448  owner = _owner */\n      0x0100\n      exp\n      dup2\n      sload\n      dup2\n      0xffffffffffffffffffffffffffffffffffffffff\n      mul\n      not\n      and\n      swap1\n      dup4\n      0xffffffffffffffffffffffffffffffffffffffff\n      and\n      mul\n      or\n      swap1\n      sstore\n      pop\n        /* \"Sol_by_Example/Basics/31.TryAndCatch.sol\":268:455  constructor(address _owner) {... */\n      pop\n        /* \"Sol_by_Example/Basics/31.TryAndCatch.sol\":203:714  contract Foo {... */\n      jump(tag_12)\n        /* \"#utility.yul\":88:205   */\n    tag_14:\n        /* \"#utility.yul\":197:198   */\n      0x00\n        /* \"#utility.yul\":194:195   */\n      0x00\n        /* \"#utility.yul\":187:199   */\n      revert\n        /* \"#utility.yul\":334:460   */\n    tag_16:\n        /* \"#utility.yul\":371:378   */\n      0x00\n        /* \"#utility.yul\":411:453   */\n      0xffffffffffffffffffffffffffffffffffffffff\n        /* \"#utility.yul\":404:409   */\n      dup3\n        /* \"#utility.yul\":400:454   */\n      and\n        /* \"#utility.yul\":389:454   */\n      swap1\n      pop\n        /* \"#utility.yul\":334:460   */\n      swap2\n      swap1\n      pop\n      jump\t// out\n        /* \"#utility.yul\":466:562   */\n    tag_17:\n        /* \"#utility.yul\":503:510   */\n      0x00\n        /* \"#utility.yul\":532:556   */\n      tag_29\n        /* \"#utility.yul\":550:555   */\n      dup3\n        /* \"#utility.yul\":532:556   */\n      tag_16\n      jump\t// in\n    tag_29:\n        /* \"#utility.yul\":521:556   */\n      swap1\n      pop\n        /* \"#utility.yul\":466:562   */\n      swap2\n      swap1\n      pop\n      jump\t// out\n        /* \"#utility.yul\":568:690   */\n    tag_18:\n        /* \"#utility.yul\":641:665   */\n      tag_31\n        /* \"#utility.yul\":659:664   */\n      dup2\n        /* \"#utility.yul\":641:665   */\n      tag_17\n      jump\t// in\n    tag_31:\n        /* \"#utility.yul\":634:639   */\n      dup2\n        /* \"#utility.yul\":631:666   */\n      eq\n        /* \"#utility.yul\":621:684   */\n      tag_32\n      jumpi\n        /* \"#utility.yul\":680:681   */\n      0x00\n        /* \"#utility.yul\":677:678   */\n      0x00\n        /* \"#utility.yul\":670:682   */\n      revert\n        /* \"#utility.yul\":621:684   */\n    tag_32:\n        /* \"#utility.yul\":568:690   */\n      pop\n      jump\t// out\n        /* \"#utility.yul\":696:839   */\n    tag_19:\n        /* \"#utility.yul\":753:758   */\n      0x00\n        /* \"#utility.yul\":784:790   */\n      dup2\n        /* \"#utility.yul\":778:791   */\n      mload\n        /* \"#utility.yul\":769:791   */\n      swap1\n      pop\n        /* \"#utility.yul\":800:833   */\n      tag_34\n        /* \"#utility.yul\":827:832   */\n      dup2\n        /* \"#utility.yul\":800:833   */\n      tag_18\n      jump\t// in\n    tag_34:\n        /* \"#utility.yul\":696:839   */\n      swap3\n      swap2\n      pop\n      pop\n      jump\t// out\n        /* \"#utility.yul\":845:1196   */\n    tag_3:\n        /* \"#utility.yul\":915:921   */\n      0x00\n        /* \"#utility.yul\":964:966   */\n      0x20\n        /* \"#utility.yul\":952:961   */\n      dup3\n        /* \"#utility.yul\":943:950   */\n      dup5\n        /* \"#utility.yul\":939:962   */\n      sub\n        /* \"#utility.yul\":935:967   */\n      slt\n        /* \"#utility.yul\":932:1051   */\n      iszero\n      tag_36\n      jumpi\n        /* \"#utility.yul\":970:1049   */\n      tag_37\n      tag_14\n      jump\t// in\n    tag_37:\n        /* \"#utility.yul\":932:1051   */\n    tag_36:\n        /* \"#utility.yul\":1090:1091   */\n      0x00\n        /* \"#utility.yul\":1115:1179   */\n      tag_38\n        /* \"#utility.yul\":1171:1178   */\n      dup5\n        /* \"#utility.yul\":1162:1168   */\n      dup3\n        /* \"#utility.yul\":1151:1160   */\n      dup6\n        /* \"#utility.yul\":1147:1169   */\n      add\n        /* \"#utility.yul\":1115:1179   */\n      tag_19\n      jump\t// in\n    tag_38:\n        /* \"#utility.yul\":1105:1179   */\n      swap2\n      pop\n        /* \"#utility.yul\":1061:1189   */\n      pop\n        /* \"#utility.yul\":845:1196   */\n      swap3\n      swap2\n      pop\n      pop\n      jump\t// out\n        /* \"#utility.yul\":1202:1371   */\n    tag_20:\n        /* \"#utility.yul\":1286:1297   */\n      0x00\n        /* \"#utility.yul\":1320:1326   */\n      dup3\n        /* \"#utility.yul\":1315:1318   */\n      dup3\n        /* \"#utility.yul\":1308:1327   */\n      mstore\n        /* \"#utility.yul\":1360:1364   */\n      0x20\n        /* \"#utility.yul\":1355:1358   */\n      dup3\n        /* \"#utility.yul\":1351:1365   */\n      add\n        /* \"#utility.yul\":1336:1365   */\n      swap1\n      pop\n        /* \"#utility.yul\":1202:1371   */\n      swap3\n      swap2\n      pop\n      pop\n      jump\t// out\n        /* \"#utility.yul\":1377:1542   */\n    tag_21:\n        /* \"#utility.yul\":1517:1534   */\n      0x696e76616c696420616464726573730000000000000000000000000000000000\n        /* \"#utility.yul\":1513:1514   */\n      0x00\n        /* \"#utility.yul\":1505:1511   */\n      dup3\n        /* \"#utility.yul\":1501:1515   */\n      add\n        /* \"#utility.yul\":1494:1535   */\n      mstore\n        /* \"#utility.yul\":1377:1542   */\n      pop\n      jump\t// out\n        /* \"#utility.yul\":1548:1914   */\n    tag_22:\n        /* \"#utility.yul\":1690:1693   */\n      0x00\n        /* \"#utility.yul\":1711:1778   */\n      tag_42\n        /* \"#utility.yul\":1775:1777   */\n      0x0f\n        /* \"#utility.yul\":1770:1773   */\n      dup4\n        /* \"#utility.yul\":1711:1778   */\n      tag_20\n      jump\t// in\n    tag_42:\n        /* \"#utility.yul\":1704:1778   */\n      swap2\n      pop\n        /* \"#utility.yul\":1787:1880   */\n      tag_43\n        /* \"#utility.yul\":1876:1879   */\n      dup3\n        /* \"#utility.yul\":1787:1880   */\n      tag_21\n      jump\t// in\n    tag_43:\n        /* \"#utility.yul\":1905:1907   */\n      0x20\n        /* \"#utility.yul\":1900:1903   */\n      dup3\n        /* \"#utility.yul\":1896:1908   */\n      add\n        /* \"#utility.yul\":1889:1908   */\n      swap1\n      pop\n        /* \"#utility.yul\":1548:1914   */\n      swap2\n      swap1\n      pop\n      jump\t// out\n        /* \"#utility.yul\":1920:2339   */\n    tag_8:\n        /* \"#utility.yul\":2086:2090   */\n      0x00\n        /* \"#utility.yul\":2124:2126   */\n      0x20\n        /* \"#utility.yul\":2113:2122   */\n      dup3\n        /* \"#utility.yul\":2109:2127   */\n      add\n        /* \"#utility.yul\":2101:2127   */\n      swap1\n      pop\n        /* \"#utility.yul\":2173:2182   */\n      dup2\n        /* \"#utility.yul\":2167:2171   */\n      dup2\n        /* \"#utility.yul\":2163:2183   */\n      sub\n        /* \"#utility.yul\":2159:2160   */\n      0x00\n        /* \"#utility.yul\":2148:2157   */\n      dup4\n        /* \"#utility.yul\":2144:2161   */\n      add\n        /* \"#utility.yul\":2137:2184   */\n      mstore\n        /* \"#utility.yul\":2201:2332   */\n      tag_45\n        /* \"#utility.yul\":2327:2331   */\n      dup2\n        /* \"#utility.yul\":2201:2332   */\n      tag_22\n      jump\t// in\n    tag_45:\n        /* \"#utility.yul\":2193:2332   */\n      swap1\n      pop\n        /* \"#utility.yul\":1920:2339   */\n      swap2\n      swap1\n      pop\n      jump\t// out\n        /* \"#utility.yul\":2345:2525   */\n    tag_11:\n        /* \"#utility.yul\":2393:2470   */\n      0x4e487b7100000000000000000000000000000000000000000000000000000000\n        /* \"#utility.yul\":2390:2391   */\n      0x00\n        /* \"#utility.yul\":2383:2471   */\n      mstore\n        /* \"#utility.yul\":2490:2494   */\n      0x01\n        /* \"#utility.yul\":2487:2488   */\n      0x04\n        /* \"#utility.yul\":2480:2495   */\n      mstore\n        /* \"#utility.yul\":2514:2518   */\n      0x24\n        /* \"#utility.yul\":2511:2512   */\n      0x00\n        /* \"#utility.yul\":2504:2519   */\n      revert\n        /* \"Sol_by_Example/Basics/31.TryAndCatch.sol\":203:714  contract Foo {... */\n    tag_12:\n      dataSize(sub_0)\n      dup1\n      dataOffset(sub_0)\n      0x00\n      codecopy\n      0x00\n      return\n    stop\n\n    sub_0: assembly {\n            /* \"Sol_by_Example/Basics/31.TryAndCatch.sol\":203:714  contract Foo {... */\n          mstore(0x40, 0x80)\n          callvalue\n          dup1\n          iszero\n          tag_1\n          jumpi\n          revert(0x00, 0x00)\n        tag_1:\n          pop\n          jumpi(tag_2, lt(calldatasize, 0x04))\n          shr(0xe0, calldataload(0x00))\n          dup1\n          0x0c55699c\n          eq\n          tag_3\n          jumpi\n          dup1\n          0x4018d9aa\n          eq\n          tag_4\n          jumpi\n          dup1\n          0x8da5cb5b\n          eq\n          tag_5\n          jumpi\n          dup1\n          0xa9bf5633\n          eq\n          tag_6\n          jumpi\n        tag_2:\n          revert(0x00, 0x00)\n            /* \"Sol_by_Example/Basics/31.TryAndCatch.sol\":248:261  uint public x */\n        tag_3:\n          tag_7\n          tag_8\n          jump\t// in\n        tag_7:\n          mload(0x40)\n          tag_9\n          swap2\n          swap1\n          tag_10\n          jump\t// in\n        tag_9:\n          mload(0x40)\n          dup1\n          swap2\n          sub\n          swap1\n          return\n            /* \"Sol_by_Example/Basics/31.TryAndCatch.sol\":461:557  function setX(uint _x) public {... */\n        tag_4:\n          tag_11\n          0x04\n          dup1\n          calldatasize\n          sub\n          dup2\n          add\n          swap1\n          tag_12\n          swap2\n          swap1\n          tag_13\n          jump\t// in\n        tag_12:\n          tag_14\n          jump\t// in\n        tag_11:\n          stop\n            /* \"Sol_by_Example/Basics/31.TryAndCatch.sol\":222:242  address public owner */\n        tag_5:\n          tag_15\n          tag_16\n          jump\t// in\n        tag_15:\n          mload(0x40)\n          tag_17\n          swap2\n          swap1\n          tag_18\n          jump\t// in\n        tag_17:\n          mload(0x40)\n          dup1\n          swap2\n          sub\n          swap1\n          return\n            /* \"Sol_by_Example/Basics/31.TryAndCatch.sol\":563:712  function myFunc(uint _x) public pure returns (string memory) {... */\n        tag_6:\n          tag_19\n          0x04\n          dup1\n          calldatasize\n          sub\n          dup2\n          add\n          swap1\n          tag_20\n          swap2\n          swap1\n          tag_13\n          jump\t// in\n        tag_20:\n          tag_21\n          jump\t// in\n        tag_19:\n          mload(0x40)\n          tag_22\n          swap2\n          swap1\n          tag_23\n          jump\t// in\n        tag_22:\n          mload(0x40)\n          dup1\n          swap2\n          sub\n          swap1\n          return\n            /* \"Sol_by_Example/Basics/31.TryAndCatch.sol\":248:261  uint public x */\n        tag_8:\n          sload(0x01)\n          dup2\n          jump\t// out\n            /* \"Sol_by_Example/Basics/31.TryAndCatch.sol\":461:557  function setX(uint _x) public {... */\n        tag_14:\n            /* \"Sol_by_Example/Basics/31.TryAndCatch.sol\":514:516  10 */\n          0x0a\n            /* \"Sol_by_Example/Basics/31.TryAndCatch.sol\":509:511  _x */\n          dup2\n            /* \"Sol_by_Example/Basics/31.TryAndCatch.sol\":509:516  _x > 10 */\n          gt\n            /* \"Sol_by_Example/Basics/31.TryAndCatch.sol\":501:534  require(_x > 10, \"invalid value\") */\n          tag_25\n          jumpi\n          mload(0x40)\n          0x08c379a000000000000000000000000000000000000000000000000000000000\n          dup2\n          mstore\n          0x04\n          add\n          tag_26\n          swap1\n          tag_27\n          jump\t// in\n        tag_26:\n          mload(0x40)\n          dup1\n          swap2\n          sub\n          swap1\n          revert\n        tag_25:\n            /* \"Sol_by_Example/Basics/31.TryAndCatch.sol\":548:550  _x */\n          dup1\n            /* \"Sol_by_Example/Basics/31.TryAndCatch.sol\":544:545  x */\n          0x01\n            /* \"Sol_by_Example/Basics/31.TryAndCatch.sol\":544:550  x = _x */\n          dup2\n          swap1\n          sstore\n          pop\n            /* \"Sol_by_Example/Basics/31.TryAndCatch.sol\":461:557  function setX(uint _x) public {... */\n          pop\n          jump\t// out\n            /* \"Sol_by_Example/Basics/31.TryAndCatch.sol\":222:242  address public owner */\n        tag_16:\n          0x00\n          0x00\n          swap1\n          sload\n          swap1\n          0x0100\n          exp\n          swap1\n          div\n          0xffffffffffffffffffffffffffffffffffffffff\n          and\n          dup2\n          jump\t// out\n            /* \"Sol_by_Example/Basics/31.TryAndCatch.sol\":563:712  function myFunc(uint _x) public pure returns (string memory) {... */\n        tag_21:\n            /* \"Sol_by_Example/Basics/31.TryAndCatch.sol\":609:622  string memory */\n          0x60\n            /* \"Sol_by_Example/Basics/31.TryAndCatch.sol\":648:649  0 */\n          0x00\n            /* \"Sol_by_Example/Basics/31.TryAndCatch.sol\":642:644  _x */\n          dup3\n            /* \"Sol_by_Example/Basics/31.TryAndCatch.sol\":642:649  _x != 0 */\n          sub\n            /* \"Sol_by_Example/Basics/31.TryAndCatch.sol\":634:668  require(_x != 0, \"require failed\") */\n          tag_29\n          jumpi\n          mload(0x40)\n          0x08c379a000000000000000000000000000000000000000000000000000000000\n          dup2\n          mstore\n          0x04\n          add\n          tag_30\n          swap1\n          tag_31\n          jump\t// in\n        tag_30:\n          mload(0x40)\n          dup1\n          swap2\n          sub\n          swap1\n          revert\n        tag_29:\n            /* \"Sol_by_Example/Basics/31.TryAndCatch.sol\":678:705  return \"myFunc was called!\" */\n          mload(0x40)\n          dup1\n          0x40\n          add\n          0x40\n          mstore\n          dup1\n          0x12\n          dup2\n          mstore\n          0x20\n          add\n          0x6d7946756e63207761732063616c6c6564210000000000000000000000000000\n          dup2\n          mstore\n          pop\n          swap1\n          pop\n            /* \"Sol_by_Example/Basics/31.TryAndCatch.sol\":563:712  function myFunc(uint _x) public pure returns (string memory) {... */\n          swap2\n          swap1\n          pop\n          jump\t// out\n            /* \"#utility.yul\":7:84   */\n        tag_32:\n            /* \"#utility.yul\":44:51   */\n          0x00\n            /* \"#utility.yul\":73:78   */\n          dup2\n            /* \"#utility.yul\":62:78   */\n          swap1\n          pop\n            /* \"#utility.yul\":7:84   */\n          swap2\n          swap1\n          pop\n          jump\t// out\n            /* \"#utility.yul\":90:208   */\n        tag_33:\n            /* \"#utility.yul\":177:201   */\n          tag_54\n            /* \"#utility.yul\":195:200   */\n          dup2\n            /* \"#utility.yul\":177:201   */\n          tag_32\n          jump\t// in\n        tag_54:\n            /* \"#utility.yul\":172:175   */\n          dup3\n            /* \"#utility.yul\":165:202   */\n          mstore\n            /* \"#utility.yul\":90:208   */\n          pop\n          pop\n          jump\t// out\n            /* \"#utility.yul\":214:436   */\n        tag_10:\n            /* \"#utility.yul\":307:311   */\n          0x00\n            /* \"#utility.yul\":345:347   */\n          0x20\n            /* \"#utility.yul\":334:343   */\n          dup3\n            /* \"#utility.yul\":330:348   */\n          add\n            /* \"#utility.yul\":322:348   */\n          swap1\n          pop\n            /* \"#utility.yul\":358:429   */\n          tag_56\n            /* \"#utility.yul\":426:427   */\n          0x00\n            /* \"#utility.yul\":415:424   */\n          dup4\n            /* \"#utility.yul\":411:428   */\n          add\n            /* \"#utility.yul\":402:408   */\n          dup5\n            /* \"#utility.yul\":358:429   */\n          tag_33\n          jump\t// in\n        tag_56:\n            /* \"#utility.yul\":214:436   */\n          swap3\n          swap2\n          pop\n          pop\n          jump\t// out\n            /* \"#utility.yul\":523:640   */\n        tag_35:\n            /* \"#utility.yul\":632:633   */\n          0x00\n            /* \"#utility.yul\":629:630   */\n          0x00\n            /* \"#utility.yul\":622:634   */\n          revert\n            /* \"#utility.yul\":769:891   */\n        tag_37:\n            /* \"#utility.yul\":842:866   */\n          tag_61\n            /* \"#utility.yul\":860:865   */\n          dup2\n            /* \"#utility.yul\":842:866   */\n          tag_32\n          jump\t// in\n        tag_61:\n            /* \"#utility.yul\":835:840   */\n          dup2\n            /* \"#utility.yul\":832:867   */\n          eq\n            /* \"#utility.yul\":822:885   */\n          tag_62\n          jumpi\n            /* \"#utility.yul\":881:882   */\n          0x00\n            /* \"#utility.yul\":878:879   */\n          0x00\n            /* \"#utility.yul\":871:883   */\n          revert\n            /* \"#utility.yul\":822:885   */\n        tag_62:\n            /* \"#utility.yul\":769:891   */\n          pop\n          jump\t// out\n            /* \"#utility.yul\":897:1036   */\n        tag_38:\n            /* \"#utility.yul\":943:948   */\n          0x00\n            /* \"#utility.yul\":981:987   */\n          dup2\n            /* \"#utility.yul\":968:988   */\n          calldataload\n            /* \"#utility.yul\":959:988   */\n          swap1\n          pop\n            /* \"#utility.yul\":997:1030   */\n          tag_64\n            /* \"#utility.yul\":1024:1029   */\n          dup2\n            /* \"#utility.yul\":997:1030   */\n          tag_37\n          jump\t// in\n        tag_64:\n            /* \"#utility.yul\":897:1036   */\n          swap3\n          swap2\n          pop\n          pop\n          jump\t// out\n            /* \"#utility.yul\":1042:1371   */\n        tag_13:\n            /* \"#utility.yul\":1101:1107   */\n          0x00\n            /* \"#utility.yul\":1150:1152   */\n          0x20\n            /* \"#utility.yul\":1138:1147   */\n          dup3\n            /* \"#utility.yul\":1129:1136   */\n          dup5\n            /* \"#utility.yul\":1125:1148   */\n          sub\n            /* \"#utility.yul\":1121:1153   */\n          slt\n            /* \"#utility.yul\":1118:1237   */\n          iszero\n          tag_66\n          jumpi\n            /* \"#utility.yul\":1156:1235   */\n          tag_67\n          tag_35\n          jump\t// in\n        tag_67:\n            /* \"#utility.yul\":1118:1237   */\n        tag_66:\n            /* \"#utility.yul\":1276:1277   */\n          0x00\n            /* \"#utility.yul\":1301:1354   */\n          tag_68\n            /* \"#utility.yul\":1346:1353   */\n          dup5\n            /* \"#utility.yul\":1337:1343   */\n          dup3\n            /* \"#utility.yul\":1326:1335   */\n          dup6\n            /* \"#utility.yul\":1322:1344   */\n          add\n            /* \"#utility.yul\":1301:1354   */\n          tag_38\n          jump\t// in\n        tag_68:\n            /* \"#utility.yul\":1291:1354   */\n          swap2\n          pop\n            /* \"#utility.yul\":1247:1364   */\n          pop\n            /* \"#utility.yul\":1042:1371   */\n          swap3\n          swap2\n          pop\n          pop\n          jump\t// out\n            /* \"#utility.yul\":1377:1503   */\n        tag_39:\n            /* \"#utility.yul\":1414:1421   */\n          0x00\n            /* \"#utility.yul\":1454:1496   */\n          0xffffffffffffffffffffffffffffffffffffffff\n            /* \"#utility.yul\":1447:1452   */\n          dup3\n            /* \"#utility.yul\":1443:1497   */\n          and\n            /* \"#utility.yul\":1432:1497   */\n          swap1\n          pop\n            /* \"#utility.yul\":1377:1503   */\n          swap2\n          swap1\n          pop\n          jump\t// out\n            /* \"#utility.yul\":1509:1605   */\n        tag_40:\n            /* \"#utility.yul\":1546:1553   */\n          0x00\n            /* \"#utility.yul\":1575:1599   */\n          tag_71\n            /* \"#utility.yul\":1593:1598   */\n          dup3\n            /* \"#utility.yul\":1575:1599   */\n          tag_39\n          jump\t// in\n        tag_71:\n            /* \"#utility.yul\":1564:1599   */\n          swap1\n          pop\n            /* \"#utility.yul\":1509:1605   */\n          swap2\n          swap1\n          pop\n          jump\t// out\n            /* \"#utility.yul\":1611:1729   */\n        tag_41:\n            /* \"#utility.yul\":1698:1722   */\n          tag_73\n            /* \"#utility.yul\":1716:1721   */\n          dup2\n            /* \"#utility.yul\":1698:1722   */\n          tag_40\n          jump\t// in\n        tag_73:\n            /* \"#utility.yul\":1693:1696   */\n          dup3\n            /* \"#utility.yul\":1686:1723   */\n          mstore\n            /* \"#utility.yul\":1611:1729   */\n          pop\n          pop\n          jump\t// out\n            /* \"#utility.yul\":1735:1957   */\n        tag_18:\n            /* \"#utility.yul\":1828:1832   */\n          0x00\n            /* \"#utility.yul\":1866:1868   */\n          0x20\n            /* \"#utility.yul\":1855:1864   */\n          dup3\n            /* \"#utility.yul\":1851:1869   */\n          add\n            /* \"#utility.yul\":1843:1869   */\n          swap1\n          pop\n            /* \"#utility.yul\":1879:1950   */\n          tag_75\n            /* \"#utility.yul\":1947:1948   */\n          0x00\n            /* \"#utility.yul\":1936:1945   */\n          dup4\n            /* \"#utility.yul\":1932:1949   */\n          add\n            /* \"#utility.yul\":1923:1929   */\n          dup5\n            /* \"#utility.yul\":1879:1950   */\n          tag_41\n          jump\t// in\n        tag_75:\n            /* \"#utility.yul\":1735:1957   */\n          swap3\n          swap2\n          pop\n          pop\n          jump\t// out\n            /* \"#utility.yul\":1963:2062   */\n        tag_42:\n            /* \"#utility.yul\":2015:2021   */\n          0x00\n            /* \"#utility.yul\":2049:2054   */\n          dup2\n            /* \"#utility.yul\":2043:2055   */\n          mload\n            /* \"#utility.yul\":2033:2055   */\n          swap1\n          pop\n            /* \"#utility.yul\":1963:2062   */\n          swap2\n          swap1\n          pop\n          jump\t// out\n            /* \"#utility.yul\":2068:2237   */\n        tag_43:\n            /* \"#utility.yul\":2152:2163   */\n          0x00\n            /* \"#utility.yul\":2186:2192   */\n          dup3\n            /* \"#utility.yul\":2181:2184   */\n          dup3\n            /* \"#utility.yul\":2174:2193   */\n          mstore\n            /* \"#utility.yul\":2226:2230   */\n          0x20\n            /* \"#utility.yul\":2221:2224   */\n          dup3\n            /* \"#utility.yul\":2217:2231   */\n          add\n            /* \"#utility.yul\":2202:2231   */\n          swap1\n          pop\n            /* \"#utility.yul\":2068:2237   */\n          swap3\n          swap2\n          pop\n          pop\n          jump\t// out\n            /* \"#utility.yul\":2243:2382   */\n        tag_44:\n            /* \"#utility.yul\":2332:2338   */\n          dup3\n            /* \"#utility.yul\":2327:2330   */\n          dup2\n            /* \"#utility.yul\":2322:2325   */\n          dup4\n            /* \"#utility.yul\":2316:2339   */\n          mcopy\n            /* \"#utility.yul\":2373:2374   */\n          0x00\n            /* \"#utility.yul\":2364:2370   */\n          dup4\n            /* \"#utility.yul\":2359:2362   */\n          dup4\n            /* \"#utility.yul\":2355:2371   */\n          add\n            /* \"#utility.yul\":2348:2375   */\n          mstore\n            /* \"#utility.yul\":2243:2382   */\n          pop\n          pop\n          pop\n          jump\t// out\n            /* \"#utility.yul\":2388:2490   */\n        tag_45:\n            /* \"#utility.yul\":2429:2435   */\n          0x00\n            /* \"#utility.yul\":2480:2482   */\n          0x1f\n            /* \"#utility.yul\":2476:2483   */\n          not\n            /* \"#utility.yul\":2471:2473   */\n          0x1f\n            /* \"#utility.yul\":2464:2469   */\n          dup4\n            /* \"#utility.yul\":2460:2474   */\n          add\n            /* \"#utility.yul\":2456:2484   */\n          and\n            /* \"#utility.yul\":2446:2484   */\n          swap1\n          pop\n            /* \"#utility.yul\":2388:2490   */\n          swap2\n          swap1\n          pop\n          jump\t// out\n            /* \"#utility.yul\":2496:2873   */\n        tag_46:\n            /* \"#utility.yul\":2584:2587   */\n          0x00\n            /* \"#utility.yul\":2612:2651   */\n          tag_81\n            /* \"#utility.yul\":2645:2650   */\n          dup3\n            /* \"#utility.yul\":2612:2651   */\n          tag_42\n          jump\t// in\n        tag_81:\n            /* \"#utility.yul\":2667:2738   */\n          tag_82\n            /* \"#utility.yul\":2731:2737   */\n          dup2\n            /* \"#utility.yul\":2726:2729   */\n          dup6\n            /* \"#utility.yul\":2667:2738   */\n          tag_43\n          jump\t// in\n        tag_82:\n            /* \"#utility.yul\":2660:2738   */\n          swap4\n          pop\n            /* \"#utility.yul\":2747:2812   */\n          tag_83\n            /* \"#utility.yul\":2805:2811   */\n          dup2\n            /* \"#utility.yul\":2800:2803   */\n          dup6\n            /* \"#utility.yul\":2793:2797   */\n          0x20\n            /* \"#utility.yul\":2786:2791   */\n          dup7\n            /* \"#utility.yul\":2782:2798   */\n          add\n            /* \"#utility.yul\":2747:2812   */\n          tag_44\n          jump\t// in\n        tag_83:\n            /* \"#utility.yul\":2837:2866   */\n          tag_84\n            /* \"#utility.yul\":2859:2865   */\n          dup2\n            /* \"#utility.yul\":2837:2866   */\n          tag_45\n          jump\t// in\n        tag_84:\n            /* \"#utility.yul\":2832:2835   */\n          dup5\n            /* \"#utility.yul\":2828:2867   */\n          add\n            /* \"#utility.yul\":2821:2867   */\n          swap2\n          pop\n            /* \"#utility.yul\":2588:2873   */\n          pop\n            /* \"#utility.yul\":2496:2873   */\n          swap3\n          swap2\n          pop\n          pop\n          jump\t// out\n            /* \"#utility.yul\":2879:3192   */\n        tag_23:\n            /* \"#utility.yul\":2992:2996   */\n          0x00\n            /* \"#utility.yul\":3030:3032   */\n          0x20\n            /* \"#utility.yul\":3019:3028   */\n          dup3\n            /* \"#utility.yul\":3015:3033   */\n          add\n            /* \"#utility.yul\":3007:3033   */\n          swap1\n          pop\n            /* \"#utility.yul\":3079:3088   */\n          dup2\n            /* \"#utility.yul\":3073:3077   */\n          dup2\n            /* \"#utility.yul\":3069:3089   */\n          sub\n            /* \"#utility.yul\":3065:3066   */\n          0x00\n            /* \"#utility.yul\":3054:3063   */\n          dup4\n            /* \"#utility.yul\":3050:3067   */\n          add\n            /* \"#utility.yul\":3043:3090   */\n          mstore\n            /* \"#utility.yul\":3107:3185   */\n          tag_86\n            /* \"#utility.yul\":3180:3184   */\n          dup2\n            /* \"#utility.yul\":3171:3177   */\n          dup5\n            /* \"#utility.yul\":3107:3185   */\n          tag_46\n          jump\t// in\n        tag_86:\n            /* \"#utility.yul\":3099:3185   */\n          swap1\n          pop\n            /* \"#utility.yul\":2879:3192   */\n          swap3\n          swap2\n          pop\n          pop\n          jump\t// out\n            /* \"#utility.yul\":3198:3361   */\n        tag_47:\n            /* \"#utility.yul\":3338:3353   */\n          0x696e76616c69642076616c756500000000000000000000000000000000000000\n            /* \"#utility.yul\":3334:3335   */\n          0x00\n            /* \"#utility.yul\":3326:3332   */\n          dup3\n            /* \"#utility.yul\":3322:3336   */\n          add\n            /* \"#utility.yul\":3315:3354   */\n          mstore\n            /* \"#utility.yul\":3198:3361   */\n          pop\n          jump\t// out\n            /* \"#utility.yul\":3367:3733   */\n        tag_48:\n            /* \"#utility.yul\":3509:3512   */\n          0x00\n            /* \"#utility.yul\":3530:3597   */\n          tag_89\n            /* \"#utility.yul\":3594:3596   */\n          0x0d\n            /* \"#utility.yul\":3589:3592   */\n          dup4\n            /* \"#utility.yul\":3530:3597   */\n          tag_43\n          jump\t// in\n        tag_89:\n            /* \"#utility.yul\":3523:3597   */\n          swap2\n          pop\n            /* \"#utility.yul\":3606:3699   */\n          tag_90\n            /* \"#utility.yul\":3695:3698   */\n          dup3\n            /* \"#utility.yul\":3606:3699   */\n          tag_47\n          jump\t// in\n        tag_90:\n            /* \"#utility.yul\":3724:3726   */\n          0x20\n            /* \"#utility.yul\":3719:3722   */\n          dup3\n            /* \"#utility.yul\":3715:3727   */\n          add\n            /* \"#utility.yul\":3708:3727   */\n          swap1\n          pop\n            /* \"#utility.yul\":3367:3733   */\n          swap2\n          swap1\n          pop\n          jump\t// out\n            /* \"#utility.yul\":3739:4158   */\n        tag_27:\n            /* \"#utility.yul\":3905:3909   */\n          0x00\n            /* \"#utility.yul\":3943:3945   */\n          0x20\n            /* \"#utility.yul\":3932:3941   */\n          dup3\n            /* \"#utility.yul\":3928:3946   */\n          add\n            /* \"#utility.yul\":3920:3946   */\n          swap1\n          pop\n            /* \"#utility.yul\":3992:4001   */\n          dup2\n            /* \"#utility.yul\":3986:3990   */\n          dup2\n            /* \"#utility.yul\":3982:4002   */\n          sub\n            /* \"#utility.yul\":3978:3979   */\n          0x00\n            /* \"#utility.yul\":3967:3976   */\n          dup4\n            /* \"#utility.yul\":3963:3980   */\n          add\n            /* \"#utility.yul\":3956:4003   */\n          mstore\n            /* \"#utility.yul\":4020:4151   */\n          tag_92\n            /* \"#utility.yul\":4146:4150   */\n          dup2\n            /* \"#utility.yul\":4020:4151   */\n          tag_48\n          jump\t// in\n        tag_92:\n            /* \"#utility.yul\":4012:4151   */\n          swap1\n          pop\n            /* \"#utility.yul\":3739:4158   */\n          swap2\n          swap1\n          pop\n          jump\t// out\n            /* \"#utility.yul\":4164:4328   */\n        tag_49:\n            /* \"#utility.yul\":4304:4320   */\n          0x72657175697265206661696c6564000000000000000000000000000000000000\n            /* \"#utility.yul\":4300:4301   */\n          0x00\n            /* \"#utility.yul\":4292:4298   */\n          dup3\n            /* \"#utility.yul\":4288:4302   */\n          add\n            /* \"#utility.yul\":4281:4321   */\n          mstore\n            /* \"#utility.yul\":4164:4328   */\n          pop\n          jump\t// out\n            /* \"#utility.yul\":4334:4700   */\n        tag_50:\n            /* \"#utility.yul\":4476:4479   */\n          0x00\n            /* \"#utility.yul\":4497:4564   */\n          tag_95\n            /* \"#utility.yul\":4561:4563   */\n          0x0e\n            /* \"#utility.yul\":4556:4559   */\n          dup4\n            /* \"#utility.yul\":4497:4564   */\n          tag_43\n          jump\t// in\n        tag_95:\n            /* \"#utility.yul\":4490:4564   */\n          swap2\n          pop\n            /* \"#utility.yul\":4573:4666   */\n          tag_96\n            /* \"#utility.yul\":4662:4665   */\n          dup3\n            /* \"#utility.yul\":4573:4666   */\n          tag_49\n          jump\t// in\n        tag_96:\n            /* \"#utility.yul\":4691:4693   */\n          0x20\n            /* \"#utility.yul\":4686:4689   */\n          dup3\n            /* \"#utility.yul\":4682:4694   */\n          add\n            /* \"#utility.yul\":4675:4694   */\n          swap1\n          pop\n            /* \"#utility.yul\":4334:4700   */\n          swap2\n          swap1\n          pop\n          jump\t// out\n            /* \"#utility.yul\":4706:5125   */\n        tag_31:\n            /* \"#utility.yul\":4872:4876   */\n          0x00\n            /* \"#utility.yul\":4910:4912   */\n          0x20\n            /* \"#utility.yul\":4899:4908   */\n          dup3\n            /* \"#utility.yul\":4895:4913   */\n          add\n            /* \"#utility.yul\":4887:4913   */\n          swap1\n          pop\n            /* \"#utility.yul\":4959:4968   */\n          dup2\n            /* \"#utility.yul\":4953:4957   */\n          dup2\n            /* \"#utility.yul\":4949:4969   */\n          sub\n            /* \"#utility.yul\":4945:4946   */\n          0x00\n            /* \"#utility.yul\":4934:4943   */\n          dup4\n            /* \"#utility.yul\":4930:4947   */\n          add\n            /* \"#utility.yul\":4923:4970   */\n          mstore\n            /* \"#utility.yul\":4987:5118   */\n          tag_98\n            /* \"#utility.yul\":5113:5117   */\n          dup2\n            /* \"#utility.yul\":4987:5118   */\n          tag_50\n          jump\t// in\n        tag_98:\n            /* \"#utility.yul\":4979:5118   */\n          swap1\n          pop\n            /* \"#utility.yul\":4706:5125   */\n          swap2\n          swap1\n          pop\n          jump\t// out\n\n        auxdata: 0xa26469706673582212205da2848370b47e921722266649f3d043f5b4c36d4cedfaff67e79ced3caaf18d64736f6c634300081f0033\n    }\n}\n",
				"bytecode": {
					"linkReferences": {},
					"object": "6080604052348015600e575f5ffd5b5033604051601a90607d565b6022919060c5565b604051809103905ff080158015603a573d5f5f3e3d5ffd5b505f5f6101000a81548173ffffffffffffffffffffffffffffffffffffffff021916908373ffffffffffffffffffffffffffffffffffffffff16021790555060dc565b6106a28061113883390190565b5f73ffffffffffffffffffffffffffffffffffffffff82169050919050565b5f60b182608a565b9050919050565b60bf8160a9565b82525050565b5f60208201905060d65f83018460b8565b92915050565b61104f806100e95f395ff3fe608060405234801561000f575f5ffd5b506004361061003f575f3560e01c806377bdab8314610043578063933ac0841461005f578063c29855781461007b575b5f5ffd5b61005d600480360381019061005891906103e7565b610099565b005b61007960048036038101906100749190610445565b61023b565b005b61008361034b565b60405161009091906104cb565b60405180910390f35b806040516100a69061036f565b6100b091906104f3565b604051809103905ff080156100c25760015b61019a576100ce610518565b806308c379a00361012a57506100e26105a5565b806100ed575061012c565b7fcf34ef537ac33ee1ac626ca1587a0a7e8e51561e5514f8cb36afa1c5102b3bab8160405161011c9190610694565b60405180910390a150610195565b505b3d805f8114610156576040519150601f19603f3d011682016040523d82523d5f602084013e61015b565b606091505b507f532fd6ea96cfb78bb46e09279a26828b8b493de1a2b8b1ee1face527978a15a58160405161018b9190610706565b60405180910390a1505b610238565b8073ffffffffffffffffffffffffffffffffffffffff16634018d9aa60646040518263ffffffff1660e01b81526004016101d4919061075f565b5f604051808303815f87803b1580156101eb575f5ffd5b505af11580156101fd573d5f5f3e3d5ffd5b505050507fcf34ef537ac33ee1ac626ca1587a0a7e8e51561e5514f8cb36afa1c5102b3bab60405161022e906107c2565b60405180910390a1505b50565b5f5f9054906101000a900473ffffffffffffffffffffffffffffffffffffffff1673ffffffffffffffffffffffffffffffffffffffff1663a9bf5633826040518263ffffffff1660e01b815260040161029491906107ef565b5f60405180830381865afa9250505080156102d157506040513d5f823e3d601f19601f820116820180604052508101906102ce91906108c8565b60015b61030f577fcf34ef537ac33ee1ac626ca1587a0a7e8e51561e5514f8cb36afa1c5102b3bab60405161030290610959565b60405180910390a1610348565b7fcf34ef537ac33ee1ac626ca1587a0a7e8e51561e5514f8cb36afa1c5102b3bab8160405161033e9190610694565b60405180910390a1505b50565b5f5f9054906101000a900473ffffffffffffffffffffffffffffffffffffffff1681565b6106a28061097883390190565b5f604051905090565b5f5ffd5b5f5ffd5b5f73ffffffffffffffffffffffffffffffffffffffff82169050919050565b5f6103b68261038d565b9050919050565b6103c6816103ac565b81146103d0575f5ffd5b50565b5f813590506103e1816103bd565b92915050565b5f602082840312156103fc576103fb610385565b5b5f610409848285016103d3565b91505092915050565b5f819050919050565b61042481610412565b811461042e575f5ffd5b50565b5f8135905061043f8161041b565b92915050565b5f6020828403121561045a57610459610385565b5b5f61046784828501610431565b91505092915050565b5f819050919050565b5f61049361048e6104898461038d565b610470565b61038d565b9050919050565b5f6104a482610479565b9050919050565b5f6104b58261049a565b9050919050565b6104c5816104ab565b82525050565b5f6020820190506104de5f8301846104bc565b92915050565b6104ed816103ac565b82525050565b5f6020820190506105065f8301846104e4565b92915050565b5f8160e01c9050919050565b5f60033d11156105345760045f5f3e6105315f5161050c565b90505b90565b5f601f19601f8301169050919050565b7f4e487b71000000000000000000000000000000000000000000000000000000005f52604160045260245ffd5b61057d82610537565b810181811067ffffffffffffffff8211171561059c5761059b610547565b5b80604052505050565b5f60443d10610631576105b661037c565b60043d036004823e80513d602482011167ffffffffffffffff821117156105de575050610631565b808201805167ffffffffffffffff8111156105fc5750505050610631565b80602083010160043d038501811115610619575050505050610631565b61062882602001850186610574565b82955050505050505b90565b5f81519050919050565b5f82825260208201905092915050565b8281835e5f83830152505050565b5f61066682610634565b610670818561063e565b935061068081856020860161064e565b61068981610537565b840191505092915050565b5f6020820190508181035f8301526106ac818461065c565b905092915050565b5f81519050919050565b5f82825260208201905092915050565b5f6106d8826106b4565b6106e281856106be565b93506106f281856020860161064e565b6106fb81610537565b840191505092915050565b5f6020820190508181035f83015261071e81846106ce565b905092915050565b5f819050919050565b5f61074961074461073f84610726565b610470565b610412565b9050919050565b6107598161072f565b82525050565b5f6020820190506107725f830184610750565b92915050565b7f466f6f20637265617465640000000000000000000000000000000000000000005f82015250565b5f6107ac600b8361063e565b91506107b782610778565b602082019050919050565b5f6020820190508181035f8301526107d9816107a0565b9050919050565b6107e981610412565b82525050565b5f6020820190506108025f8301846107e0565b92915050565b5f5ffd5b5f5ffd5b5f61081961037c565b90506108258282610574565b919050565b5f67ffffffffffffffff82111561084457610843610547565b5b61084d82610537565b9050602081019050919050565b5f61086c6108678461082a565b610810565b9050828152602081018484840111156108885761088761080c565b5b61089384828561064e565b509392505050565b5f82601f8301126108af576108ae610808565b5b81516108bf84826020860161085a565b91505092915050565b5f602082840312156108dd576108dc610385565b5b5f82015167ffffffffffffffff8111156108fa576108f9610389565b5b6109068482850161089b565b91505092915050565b7f65787465726e616c2063616c6c206661696c65640000000000000000000000005f82015250565b5f61094360148361063e565b915061094e8261090f565b602082019050919050565b5f6020820190508181035f83015261097081610937565b905091905056fe608060405234801561000f575f5ffd5b506040516106a23803806106a28339818101604052810190610031919061017f565b5f73ffffffffffffffffffffffffffffffffffffffff168173ffffffffffffffffffffffffffffffffffffffff160361009f576040517f08c379a000000000000000000000000000000000000000000000000000000000815260040161009690610204565b60405180910390fd5b600173ffffffffffffffffffffffffffffffffffffffff168173ffffffffffffffffffffffffffffffffffffffff16036100dc576100db610222565b5b805f5f6101000a81548173ffffffffffffffffffffffffffffffffffffffff021916908373ffffffffffffffffffffffffffffffffffffffff1602179055505061024f565b5f5ffd5b5f73ffffffffffffffffffffffffffffffffffffffff82169050919050565b5f61014e82610125565b9050919050565b61015e81610144565b8114610168575f5ffd5b50565b5f8151905061017981610155565b92915050565b5f6020828403121561019457610193610121565b5b5f6101a18482850161016b565b91505092915050565b5f82825260208201905092915050565b7f696e76616c6964206164647265737300000000000000000000000000000000005f82015250565b5f6101ee600f836101aa565b91506101f9826101ba565b602082019050919050565b5f6020820190508181035f83015261021b816101e2565b9050919050565b7f4e487b71000000000000000000000000000000000000000000000000000000005f52600160045260245ffd5b6104468061025c5f395ff3fe608060405234801561000f575f5ffd5b506004361061004a575f3560e01c80630c55699c1461004e5780634018d9aa1461006c5780638da5cb5b14610088578063a9bf5633146100a6575b5f5ffd5b6100566100d6565b60405161006391906101e6565b60405180910390f35b6100866004803603810190610081919061022d565b6100dc565b005b610090610129565b60405161009d9190610297565b60405180910390f35b6100c060048036038101906100bb919061022d565b61014d565b6040516100cd9190610320565b60405180910390f35b60015481565b600a811161011f576040517f08c379a00000000000000000000000000000000000000000000000000000000081526004016101169061038a565b60405180910390fd5b8060018190555050565b5f5f9054906101000a900473ffffffffffffffffffffffffffffffffffffffff1681565b60605f8203610191576040517f08c379a0000000000000000000000000000000000000000000000000000000008152600401610188906103f2565b60405180910390fd5b6040518060400160405280601281526020017f6d7946756e63207761732063616c6c65642100000000000000000000000000008152509050919050565b5f819050919050565b6101e0816101ce565b82525050565b5f6020820190506101f95f8301846101d7565b92915050565b5f5ffd5b61020c816101ce565b8114610216575f5ffd5b50565b5f8135905061022781610203565b92915050565b5f60208284031215610242576102416101ff565b5b5f61024f84828501610219565b91505092915050565b5f73ffffffffffffffffffffffffffffffffffffffff82169050919050565b5f61028182610258565b9050919050565b61029181610277565b82525050565b5f6020820190506102aa5f830184610288565b92915050565b5f81519050919050565b5f82825260208201905092915050565b8281835e5f83830152505050565b5f601f19601f8301169050919050565b5f6102f2826102b0565b6102fc81856102ba565b935061030c8185602086016102ca565b610315816102d8565b840191505092915050565b5f6020820190508181035f83015261033881846102e8565b905092915050565b7f696e76616c69642076616c7565000000000000000000000000000000000000005f82015250565b5f610374600d836102ba565b915061037f82610340565b602082019050919050565b5f6020820190508181035f8301526103a181610368565b9050919050565b7f72657175697265206661696c65640000000000000000000000000000000000005f82015250565b5f6103dc600e836102ba565b91506103e7826103a8565b602082019050919050565b5f6020820190508181035f830152610409816103d0565b905091905056fea26469706673582212205da2848370b47e921722266649f3d043f5b4c36d4cedfaff67e79ced3caaf18d64736f6c634300081f0033a2646970667358221220c93d3342779c0e3c368f844d0cc07dcaadd8c30c86e7a28d6376d4a34405b84b64736f6c634300081f0033608060405234801561000f575f5ffd5b506040516106a23803806106a28339818101604052810190610031919061017f565b5f73ffffffffffffffffffffffffffffffffffffffff168173ffffffffffffffffffffffffffffffffffffffff160361009f576040517f08c379a000000000000000000000000000000000000000000000000000000000815260040161009690610204565b60405180910390fd5b600173ffffffffffffffffffffffffffffffffffffffff168173ffffffffffffffffffffffffffffffffffffffff16036100dc576100db610222565b5b805f5f6101000a81548173ffffffffffffffffffffffffffffffffffffffff021916908373ffffffffffffffffffffffffffffffffffffffff1602179055505061024f565b5f5ffd5b5f73ffffffffffffffffffffffffffffffffffffffff82169050919050565b5f61014e82610125565b9050919050565b61015e81610144565b8114610168575f5ffd5b50565b5f8151905061017981610155565b92915050565b5f6020828403121561019457610193610121565b5b5f6101a18482850161016b565b91505092915050565b5f82825260208201905092915050565b7f696e76616c6964206164647265737300000000000000000000000000000000005f82015250565b5f6101ee600f836101aa565b91506101f9826101ba565b602082019050919050565b5f6020820190508181035f83015261021b816101e2565b9050919050565b7f4e487b71000000000000000000000000000000000000000000000000000000005f52600160045260245ffd5b6104468061025c5f395ff3fe608060405234801561000f575f5ffd5b506004361061004a575f3560e01c80630c55699c1461004e5780634018d9aa1461006c5780638da5cb5b14610088578063a9bf5633146100a6575b5f5ffd5b6100566100d6565b60405161006391906101e6565b60405180910390f35b6100866004803603810190610081919061022d565b6100dc565b005b610090610129565b60405161009d9190610297565b60405180910390f35b6100c060048036038101906100bb919061022d565b61014d565b6040516100cd9190610320565b60405180910390f35b60015481565b600a811161011f576040517f08c379a00000000000000000000000000000000000000000000000000000000081526004016101169061038a565b60405180910390fd5b8060018190555050565b5f5f9054906101000a900473ffffffffffffffffffffffffffffffffffffffff1681565b60605f8203610191576040517f08c379a0000000000000000000000000000000000000000000000000000000008152600401610188906103f2565b60405180910390fd5b6040518060400160405280601281526020017f6d7946756e63207761732063616c6c65642100000000000000000000000000008152509050919050565b5f819050919050565b6101e0816101ce565b82525050565b5f6020820190506101f95f8301846101d7565b92915050565b5f5ffd5b61020c816101ce565b8114610216575f5ffd5b50565b5f8135905061022781610203565b92915050565b5f60208284031215610242576102416101ff565b5b5f61024f84828501610219565b91505092915050565b5f73ffffffffffffffffffffffffffffffffffffffff82169050919050565b5f61028182610258565b9050919050565b61029181610277565b82525050565b5f6020820190506102aa5f830184610288565b92915050565b5f81519050919050565b5f82825260208201905092915050565b8281835e5f83830152505050565b5f601f19601f8301169050919050565b5f6102f2826102b0565b6102fc81856102ba565b935061030c8185602086016102ca565b610315816102d8565b840191505092915050565b5f6020820190508181035f83015261033881846102e8565b905092915050565b7f696e76616c69642076616c7565000000000000000000000000000000000000005f82015250565b5f610374600d836102ba565b915061037f82610340565b602082019050919050565b5f6020820190508181035f8301526103a181610368565b9050919050565b7f72657175697265206661696c65640000000000000000000000000000000000005f82015250565b5f6103dc600e836102ba565b91506103e7826103a8565b602082019050919050565b5f6020820190508181035f830152610409816103d0565b905091905056fea26469706673582212205da2848370b47e921722266649f3d043f5b4c36d4cedfaff67e79ced3caaf18d64736f6c634300081f0033",
					"opcodes": "PUSH1 0x80 PUSH1 0x40 MSTORE CALLVALUE DUP1 ISZERO PUSH1 0xE JUMPI PUSH0 PUSH0 REVERT JUMPDEST POP CALLER PUSH1 0x40 MLOAD PUSH1 0x1A SWAP1 PUSH1 0x7D JUMP JUMPDEST PUSH1 0x22 SWAP2 SWAP1 PUSH1 0xC5 JUMP JUMPDEST PUSH1 0x40 MLOAD DUP1 SWAP2 SUB SWAP1 PUSH0 CREATE DUP1 ISZERO DUP1 ISZERO PUSH1 0x3A JUMPI RETURNDATASIZE PUSH0 PUSH0 RETURNDATACOPY RETURNDATASIZE PUSH0 REVERT JUMPDEST POP PUSH0 PUSH0 PUSH2 0x100 EXP DUP2 SLOAD DUP2 PUSH20 0xFFFFFFFFFFFFFFFFFFFFFFFFFFFFFFFFFFFFFFFF MUL NOT AND SWAP1 DUP4 PUSH20 0xFFFFFFFFFFFFFFFFFFFFFFFFFFFFFFFFFFFFFFFF AND MUL OR SWAP1 SSTORE POP PUSH1 0xDC JUMP JUMPDEST PUSH2 0x6A2 DUP1 PUSH2 0x1138 DUP4 CODECOPY ADD SWAP1 JUMP JUMPDEST PUSH0 PUSH20 0xFFFFFFFFFFFFFFFFFFFFFFFFFFFFFFFFFFFFFFFF DUP3 AND SWAP1 POP SWAP2 SWAP1 POP JUMP JUMPDEST PUSH0 PUSH1 0xB1 DUP3 PUSH1 0x8A JUMP JUMPDEST SWAP1 POP SWAP2 SWAP1 POP JUMP JUMPDEST PUSH1 0xBF DUP2 PUSH1 0xA9 JUMP JUMPDEST DUP3 MSTORE POP POP JUMP JUMPDEST PUSH0 PUSH1 0x20 DUP3 ADD SWAP1 POP PUSH1 0xD6 PUSH0 DUP4 ADD DUP5 PUSH1 0xB8 JUMP JUMPDEST SWAP3 SWAP2 POP POP JUMP JUMPDEST PUSH2 0x104F DUP1 PUSH2 0xE9 PUSH0 CODECOPY PUSH0 RETURN INVALID PUSH1 0x80 PUSH1 0x40 MSTORE CALLVALUE DUP1 ISZERO PUSH2 0xF JUMPI PUSH0 PUSH0 REVERT JUMPDEST POP PUSH1 0x4 CALLDATASIZE LT PUSH2 0x3F JUMPI PUSH0 CALLDATALOAD PUSH1 0xE0 SHR DUP1 PUSH4 0x77BDAB83 EQ PUSH2 0x43 JUMPI DUP1 PUSH4 0x933AC084 EQ PUSH2 0x5F JUMPI DUP1 PUSH4 0xC2985578 EQ PUSH2 0x7B JUMPI JUMPDEST PUSH0 PUSH0 REVERT JUMPDEST PUSH2 0x5D PUSH1 0x4 DUP1 CALLDATASIZE SUB DUP2 ADD SWAP1 PUSH2 0x58 SWAP2 SWAP1 PUSH2 0x3E7 JUMP JUMPDEST PUSH2 0x99 JUMP JUMPDEST STOP JUMPDEST PUSH2 0x79 PUSH1 0x4 DUP1 CALLDATASIZE SUB DUP2 ADD SWAP1 PUSH2 0x74 SWAP2 SWAP1 PUSH2 0x445 JUMP JUMPDEST PUSH2 0x23B JUMP JUMPDEST STOP JUMPDEST PUSH2 0x83 PUSH2 0x34B JUMP JUMPDEST PUSH1 0x40 MLOAD PUSH2 0x90 SWAP2 SWAP1 PUSH2 0x4CB JUMP JUMPDEST PUSH1 0x40 MLOAD DUP1 SWAP2 SUB SWAP1 RETURN JUMPDEST DUP1 PUSH1 0x40 MLOAD PUSH2 0xA6 SWAP1 PUSH2 0x36F JUMP JUMPDEST PUSH2 0xB0 SWAP2 SWAP1 PUSH2 0x4F3 JUMP JUMPDEST PUSH1 0x40 MLOAD DUP1 SWAP2 SUB SWAP1 PUSH0 CREATE DUP1 ISZERO PUSH2 0xC2 JUMPI PUSH1 0x1 JUMPDEST PUSH2 0x19A JUMPI PUSH2 0xCE PUSH2 0x518 JUMP JUMPDEST DUP1 PUSH4 0x8C379A0 SUB PUSH2 0x12A JUMPI POP PUSH2 0xE2 PUSH2 0x5A5 JUMP JUMPDEST DUP1 PUSH2 0xED JUMPI POP PUSH2 0x12C JUMP JUMPDEST PUSH32 0xCF34EF537AC33EE1AC626CA1587A0A7E8E51561E5514F8CB36AFA1C5102B3BAB DUP2 PUSH1 0x40 MLOAD PUSH2 0x11C SWAP2 SWAP1 PUSH2 0x694 JUMP JUMPDEST PUSH1 0x40 MLOAD DUP1 SWAP2 SUB SWAP1 LOG1 POP PUSH2 0x195 JUMP JUMPDEST POP JUMPDEST RETURNDATASIZE DUP1 PUSH0 DUP2 EQ PUSH2 0x156 JUMPI PUSH1 0x40 MLOAD SWAP2 POP PUSH1 0x1F NOT PUSH1 0x3F RETURNDATASIZE ADD AND DUP3 ADD PUSH1 0x40 MSTORE RETURNDATASIZE DUP3 MSTORE RETURNDATASIZE PUSH0 PUSH1 0x20 DUP5 ADD RETURNDATACOPY PUSH2 0x15B JUMP JUMPDEST PUSH1 0x60 SWAP2 POP JUMPDEST POP PUSH32 0x532FD6EA96CFB78BB46E09279A26828B8B493DE1A2B8B1EE1FACE527978A15A5 DUP2 PUSH1 0x40 MLOAD PUSH2 0x18B SWAP2 SWAP1 PUSH2 0x706 JUMP JUMPDEST PUSH1 0x40 MLOAD DUP1 SWAP2 SUB SWAP1 LOG1 POP JUMPDEST PUSH2 0x238 JUMP JUMPDEST DUP1 PUSH20 0xFFFFFFFFFFFFFFFFFFFFFFFFFFFFFFFFFFFFFFFF AND PUSH4 0x4018D9AA PUSH1 0x64 PUSH1 0x40 MLOAD DUP3 PUSH4 0xFFFFFFFF AND PUSH1 0xE0 SHL DUP2 MSTORE PUSH1 0x4 ADD PUSH2 0x1D4 SWAP2 SWAP1 PUSH2 0x75F JUMP JUMPDEST PUSH0 PUSH1 0x40 MLOAD DUP1 DUP4 SUB DUP2 PUSH0 DUP8 DUP1 EXTCODESIZE ISZERO DUP1 ISZERO PUSH2 0x1EB JUMPI PUSH0 PUSH0 REVERT JUMPDEST POP GAS CALL ISZERO DUP1 ISZERO PUSH2 0x1FD JUMPI RETURNDATASIZE PUSH0 PUSH0 RETURNDATACOPY RETURNDATASIZE PUSH0 REVERT JUMPDEST POP POP POP POP PUSH32 0xCF34EF537AC33EE1AC626CA1587A0A7E8E51561E5514F8CB36AFA1C5102B3BAB PUSH1 0x40 MLOAD PUSH2 0x22E SWAP1 PUSH2 0x7C2 JUMP JUMPDEST PUSH1 0x40 MLOAD DUP1 SWAP2 SUB SWAP1 LOG1 POP JUMPDEST POP JUMP JUMPDEST PUSH0 PUSH0 SWAP1 SLOAD SWAP1 PUSH2 0x100 EXP SWAP1 DIV PUSH20 0xFFFFFFFFFFFFFFFFFFFFFFFFFFFFFFFFFFFFFFFF AND PUSH20 0xFFFFFFFFFFFFFFFFFFFFFFFFFFFFFFFFFFFFFFFF AND PUSH4 0xA9BF5633 DUP3 PUSH1 0x40 MLOAD DUP3 PUSH4 0xFFFFFFFF AND PUSH1 0xE0 SHL DUP2 MSTORE PUSH1 0x4 ADD PUSH2 0x294 SWAP2 SWAP1 PUSH2 0x7EF JUMP JUMPDEST PUSH0 PUSH1 0x40 MLOAD DUP1 DUP4 SUB DUP2 DUP7 GAS STATICCALL SWAP3 POP POP POP DUP1 ISZERO PUSH2 0x2D1 JUMPI POP PUSH1 0x40 MLOAD RETURNDATASIZE PUSH0 DUP3 RETURNDATACOPY RETURNDATASIZE PUSH1 0x1F NOT PUSH1 0x1F DUP3 ADD AND DUP3 ADD DUP1 PUSH1 0x40 MSTORE POP DUP2 ADD SWAP1 PUSH2 0x2CE SWAP2 SWAP1 PUSH2 0x8C8 JUMP JUMPDEST PUSH1 0x1 JUMPDEST PUSH2 0x30F JUMPI PUSH32 0xCF34EF537AC33EE1AC626CA1587A0A7E8E51561E5514F8CB36AFA1C5102B3BAB PUSH1 0x40 MLOAD PUSH2 0x302 SWAP1 PUSH2 0x959 JUMP JUMPDEST PUSH1 0x40 MLOAD DUP1 SWAP2 SUB SWAP1 LOG1 PUSH2 0x348 JUMP JUMPDEST PUSH32 0xCF34EF537AC33EE1AC626CA1587A0A7E8E51561E5514F8CB36AFA1C5102B3BAB DUP2 PUSH1 0x40 MLOAD PUSH2 0x33E SWAP2 SWAP1 PUSH2 0x694 JUMP JUMPDEST PUSH1 0x40 MLOAD DUP1 SWAP2 SUB SWAP1 LOG1 POP JUMPDEST POP JUMP JUMPDEST PUSH0 PUSH0 SWAP1 SLOAD SWAP1 PUSH2 0x100 EXP SWAP1 DIV PUSH20 0xFFFFFFFFFFFFFFFFFFFFFFFFFFFFFFFFFFFFFFFF AND DUP2 JUMP JUMPDEST PUSH2 0x6A2 DUP1 PUSH2 0x978 DUP4 CODECOPY ADD SWAP1 JUMP JUMPDEST PUSH0 PUSH1 0x40 MLOAD SWAP1 POP SWAP1 JUMP JUMPDEST PUSH0 PUSH0 REVERT JUMPDEST PUSH0 PUSH0 REVERT JUMPDEST PUSH0 PUSH20 0xFFFFFFFFFFFFFFFFFFFFFFFFFFFFFFFFFFFFFFFF DUP3 AND SWAP1 POP SWAP2 SWAP1 POP JUMP JUMPDEST PUSH0 PUSH2 0x3B6 DUP3 PUSH2 0x38D JUMP JUMPDEST SWAP1 POP SWAP2 SWAP1 POP JUMP JUMPDEST PUSH2 0x3C6 DUP2 PUSH2 0x3AC JUMP JUMPDEST DUP2 EQ PUSH2 0x3D0 JUMPI PUSH0 PUSH0 REVERT JUMPDEST POP JUMP JUMPDEST PUSH0 DUP2 CALLDATALOAD SWAP1 POP PUSH2 0x3E1 DUP2 PUSH2 0x3BD JUMP JUMPDEST SWAP3 SWAP2 POP POP JUMP JUMPDEST PUSH0 PUSH1 0x20 DUP3 DUP5 SUB SLT ISZERO PUSH2 0x3FC JUMPI PUSH2 0x3FB PUSH2 0x385 JUMP JUMPDEST JUMPDEST PUSH0 PUSH2 0x409 DUP5 DUP3 DUP6 ADD PUSH2 0x3D3 JUMP JUMPDEST SWAP2 POP POP SWAP3 SWAP2 POP POP JUMP JUMPDEST PUSH0 DUP2 SWAP1 POP SWAP2 SWAP1 POP JUMP JUMPDEST PUSH2 0x424 DUP2 PUSH2 0x412 JUMP JUMPDEST DUP2 EQ PUSH2 0x42E JUMPI PUSH0 PUSH0 REVERT JUMPDEST POP JUMP JUMPDEST PUSH0 DUP2 CALLDATALOAD SWAP1 POP PUSH2 0x43F DUP2 PUSH2 0x41B JUMP JUMPDEST SWAP3 SWAP2 POP POP JUMP JUMPDEST PUSH0 PUSH1 0x20 DUP3 DUP5 SUB SLT ISZERO PUSH2 0x45A JUMPI PUSH2 0x459 PUSH2 0x385 JUMP JUMPDEST JUMPDEST PUSH0 PUSH2 0x467 DUP5 DUP3 DUP6 ADD PUSH2 0x431 JUMP JUMPDEST SWAP2 POP POP SWAP3 SWAP2 POP POP JUMP JUMPDEST PUSH0 DUP2 SWAP1 POP SWAP2 SWAP1 POP JUMP JUMPDEST PUSH0 PUSH2 0x493 PUSH2 0x48E PUSH2 0x489 DUP5 PUSH2 0x38D JUMP JUMPDEST PUSH2 0x470 JUMP JUMPDEST PUSH2 0x38D JUMP JUMPDEST SWAP1 POP SWAP2 SWAP1 POP JUMP JUMPDEST PUSH0 PUSH2 0x4A4 DUP3 PUSH2 0x479 JUMP JUMPDEST SWAP1 POP SWAP2 SWAP1 POP JUMP JUMPDEST PUSH0 PUSH2 0x4B5 DUP3 PUSH2 0x49A JUMP JUMPDEST SWAP1 POP SWAP2 SWAP1 POP JUMP JUMPDEST PUSH2 0x4C5 DUP2 PUSH2 0x4AB JUMP JUMPDEST DUP3 MSTORE POP POP JUMP JUMPDEST PUSH0 PUSH1 0x20 DUP3 ADD SWAP1 POP PUSH2 0x4DE PUSH0 DUP4 ADD DUP5 PUSH2 0x4BC JUMP JUMPDEST SWAP3 SWAP2 POP POP JUMP JUMPDEST PUSH2 0x4ED DUP2 PUSH2 0x3AC JUMP JUMPDEST DUP3 MSTORE POP POP JUMP JUMPDEST PUSH0 PUSH1 0x20 DUP3 ADD SWAP1 POP PUSH2 0x506 PUSH0 DUP4 ADD DUP5 PUSH2 0x4E4 JUMP JUMPDEST SWAP3 SWAP2 POP POP JUMP JUMPDEST PUSH0 DUP2 PUSH1 0xE0 SHR SWAP1 POP SWAP2 SWAP1 POP JUMP JUMPDEST PUSH0 PUSH1 0x3 RETURNDATASIZE GT ISZERO PUSH2 0x534 JUMPI PUSH1 0x4 PUSH0 PUSH0 RETURNDATACOPY PUSH2 0x531 PUSH0 MLOAD PUSH2 0x50C JUMP JUMPDEST SWAP1 POP JUMPDEST SWAP1 JUMP JUMPDEST PUSH0 PUSH1 0x1F NOT PUSH1 0x1F DUP4 ADD AND SWAP1 POP SWAP2 SWAP1 POP JUMP JUMPDEST PUSH32 0x4E487B7100000000000000000000000000000000000000000000000000000000 PUSH0 MSTORE PUSH1 0x41 PUSH1 0x4 MSTORE PUSH1 0x24 PUSH0 REVERT JUMPDEST PUSH2 0x57D DUP3 PUSH2 0x537 JUMP JUMPDEST DUP2 ADD DUP2 DUP2 LT PUSH8 0xFFFFFFFFFFFFFFFF DUP3 GT OR ISZERO PUSH2 0x59C JUMPI PUSH2 0x59B PUSH2 0x547 JUMP JUMPDEST JUMPDEST DUP1 PUSH1 0x40 MSTORE POP POP POP JUMP JUMPDEST PUSH0 PUSH1 0x44 RETURNDATASIZE LT PUSH2 0x631 JUMPI PUSH2 0x5B6 PUSH2 0x37C JUMP JUMPDEST PUSH1 0x4 RETURNDATASIZE SUB PUSH1 0x4 DUP3 RETURNDATACOPY DUP1 MLOAD RETURNDATASIZE PUSH1 0x24 DUP3 ADD GT PUSH8 0xFFFFFFFFFFFFFFFF DUP3 GT OR ISZERO PUSH2 0x5DE JUMPI POP POP PUSH2 0x631 JUMP JUMPDEST DUP1 DUP3 ADD DUP1 MLOAD PUSH8 0xFFFFFFFFFFFFFFFF DUP2 GT ISZERO PUSH2 0x5FC JUMPI POP POP POP POP PUSH2 0x631 JUMP JUMPDEST DUP1 PUSH1 0x20 DUP4 ADD ADD PUSH1 0x4 RETURNDATASIZE SUB DUP6 ADD DUP2 GT ISZERO PUSH2 0x619 JUMPI POP POP POP POP POP PUSH2 0x631 JUMP JUMPDEST PUSH2 0x628 DUP3 PUSH1 0x20 ADD DUP6 ADD DUP7 PUSH2 0x574 JUMP JUMPDEST DUP3 SWAP6 POP POP POP POP POP POP JUMPDEST SWAP1 JUMP JUMPDEST PUSH0 DUP2 MLOAD SWAP1 POP SWAP2 SWAP1 POP JUMP JUMPDEST PUSH0 DUP3 DUP3 MSTORE PUSH1 0x20 DUP3 ADD SWAP1 POP SWAP3 SWAP2 POP POP JUMP JUMPDEST DUP3 DUP2 DUP4 MCOPY PUSH0 DUP4 DUP4 ADD MSTORE POP POP POP JUMP JUMPDEST PUSH0 PUSH2 0x666 DUP3 PUSH2 0x634 JUMP JUMPDEST PUSH2 0x670 DUP2 DUP6 PUSH2 0x63E JUMP JUMPDEST SWAP4 POP PUSH2 0x680 DUP2 DUP6 PUSH1 0x20 DUP7 ADD PUSH2 0x64E JUMP JUMPDEST PUSH2 0x689 DUP2 PUSH2 0x537 JUMP JUMPDEST DUP5 ADD SWAP2 POP POP SWAP3 SWAP2 POP POP JUMP JUMPDEST PUSH0 PUSH1 0x20 DUP3 ADD SWAP1 POP DUP2 DUP2 SUB PUSH0 DUP4 ADD MSTORE PUSH2 0x6AC DUP2 DUP5 PUSH2 0x65C JUMP JUMPDEST SWAP1 POP SWAP3 SWAP2 POP POP JUMP JUMPDEST PUSH0 DUP2 MLOAD SWAP1 POP SWAP2 SWAP1 POP JUMP JUMPDEST PUSH0 DUP3 DUP3 MSTORE PUSH1 0x20 DUP3 ADD SWAP1 POP SWAP3 SWAP2 POP POP JUMP JUMPDEST PUSH0 PUSH2 0x6D8 DUP3 PUSH2 0x6B4 JUMP JUMPDEST PUSH2 0x6E2 DUP2 DUP6 PUSH2 0x6BE JUMP JUMPDEST SWAP4 POP PUSH2 0x6F2 DUP2 DUP6 PUSH1 0x20 DUP7 ADD PUSH2 0x64E JUMP JUMPDEST PUSH2 0x6FB DUP2 PUSH2 0x537 JUMP JUMPDEST DUP5 ADD SWAP2 POP POP SWAP3 SWAP2 POP POP JUMP JUMPDEST PUSH0 PUSH1 0x20 DUP3 ADD SWAP1 POP DUP2 DUP2 SUB PUSH0 DUP4 ADD MSTORE PUSH2 0x71E DUP2 DUP5 PUSH2 0x6CE JUMP JUMPDEST SWAP1 POP SWAP3 SWAP2 POP POP JUMP JUMPDEST PUSH0 DUP2 SWAP1 POP SWAP2 SWAP1 POP JUMP JUMPDEST PUSH0 PUSH2 0x749 PUSH2 0x744 PUSH2 0x73F DUP5 PUSH2 0x726 JUMP JUMPDEST PUSH2 0x470 JUMP JUMPDEST PUSH2 0x412 JUMP JUMPDEST SWAP1 POP SWAP2 SWAP1 POP JUMP JUMPDEST PUSH2 0x759 DUP2 PUSH2 0x72F JUMP JUMPDEST DUP3 MSTORE POP POP JUMP JUMPDEST PUSH0 PUSH1 0x20 DUP3 ADD SWAP1 POP PUSH2 0x772 PUSH0 DUP4 ADD DUP5 PUSH2 0x750 JUMP JUMPDEST SWAP3 SWAP2 POP POP JUMP JUMPDEST PUSH32 0x466F6F2063726561746564000000000000000000000000000000000000000000 PUSH0 DUP3 ADD MSTORE POP JUMP JUMPDEST PUSH0 PUSH2 0x7AC PUSH1 0xB DUP4 PUSH2 0x63E JUMP JUMPDEST SWAP2 POP PUSH2 0x7B7 DUP3 PUSH2 0x778 JUMP JUMPDEST PUSH1 0x20 DUP3 ADD SWAP1 POP SWAP2 SWAP1 POP JUMP JUMPDEST PUSH0 PUSH1 0x20 DUP3 ADD SWAP1 POP DUP2 DUP2 SUB PUSH0 DUP4 ADD MSTORE PUSH2 0x7D9 DUP2 PUSH2 0x7A0 JUMP JUMPDEST SWAP1 POP SWAP2 SWAP1 POP JUMP JUMPDEST PUSH2 0x7E9 DUP2 PUSH2 0x412 JUMP JUMPDEST DUP3 MSTORE POP POP JUMP JUMPDEST PUSH0 PUSH1 0x20 DUP3 ADD SWAP1 POP PUSH2 0x802 PUSH0 DUP4 ADD DUP5 PUSH2 0x7E0 JUMP JUMPDEST SWAP3 SWAP2 POP POP JUMP JUMPDEST PUSH0 PUSH0 REVERT JUMPDEST PUSH0 PUSH0 REVERT JUMPDEST PUSH0 PUSH2 0x819 PUSH2 0x37C JUMP JUMPDEST SWAP1 POP PUSH2 0x825 DUP3 DUP3 PUSH2 0x574 JUMP JUMPDEST SWAP2 SWAP1 POP JUMP JUMPDEST PUSH0 PUSH8 0xFFFFFFFFFFFFFFFF DUP3 GT ISZERO PUSH2 0x844 JUMPI PUSH2 0x843 PUSH2 0x547 JUMP JUMPDEST JUMPDEST PUSH2 0x84D DUP3 PUSH2 0x537 JUMP JUMPDEST SWAP1 POP PUSH1 0x20 DUP2 ADD SWAP1 POP SWAP2 SWAP1 POP JUMP JUMPDEST PUSH0 PUSH2 0x86C PUSH2 0x867 DUP5 PUSH2 0x82A JUMP JUMPDEST PUSH2 0x810 JUMP JUMPDEST SWAP1 POP DUP3 DUP2 MSTORE PUSH1 0x20 DUP2 ADD DUP5 DUP5 DUP5 ADD GT ISZERO PUSH2 0x888 JUMPI PUSH2 0x887 PUSH2 0x80C JUMP JUMPDEST JUMPDEST PUSH2 0x893 DUP5 DUP3 DUP6 PUSH2 0x64E JUMP JUMPDEST POP SWAP4 SWAP3 POP POP POP JUMP JUMPDEST PUSH0 DUP3 PUSH1 0x1F DUP4 ADD SLT PUSH2 0x8AF JUMPI PUSH2 0x8AE PUSH2 0x808 JUMP JUMPDEST JUMPDEST DUP2 MLOAD PUSH2 0x8BF DUP5 DUP3 PUSH1 0x20 DUP7 ADD PUSH2 0x85A JUMP JUMPDEST SWAP2 POP POP SWAP3 SWAP2 POP POP JUMP JUMPDEST PUSH0 PUSH1 0x20 DUP3 DUP5 SUB SLT ISZERO PUSH2 0x8DD JUMPI PUSH2 0x8DC PUSH2 0x385 JUMP JUMPDEST JUMPDEST PUSH0 DUP3 ADD MLOAD PUSH8 0xFFFFFFFFFFFFFFFF DUP2 GT ISZERO PUSH2 0x8FA JUMPI PUSH2 0x8F9 PUSH2 0x389 JUMP JUMPDEST JUMPDEST PUSH2 0x906 DUP5 DUP3 DUP6 ADD PUSH2 0x89B JUMP JUMPDEST SWAP2 POP POP SWAP3 SWAP2 POP POP JUMP JUMPDEST PUSH32 0x65787465726E616C2063616C6C206661696C6564000000000000000000000000 PUSH0 DUP3 ADD MSTORE POP JUMP JUMPDEST PUSH0 PUSH2 0x943 PUSH1 0x14 DUP4 PUSH2 0x63E JUMP JUMPDEST SWAP2 POP PUSH2 0x94E DUP3 PUSH2 0x90F JUMP JUMPDEST PUSH1 0x20 DUP3 ADD SWAP1 POP SWAP2 SWAP1 POP JUMP JUMPDEST PUSH0 PUSH1 0x20 DUP3 ADD SWAP1 POP DUP2 DUP2 SUB PUSH0 DUP4 ADD MSTORE PUSH2 0x970 DUP2 PUSH2 0x937 JUMP JUMPDEST SWAP1 POP SWAP2 SWAP1 POP JUMP INVALID PUSH1 0x80 PUSH1 0x40 MSTORE CALLVALUE DUP1 ISZERO PUSH2 0xF JUMPI PUSH0 PUSH0 REVERT JUMPDEST POP PUSH1 0x40 MLOAD PUSH2 0x6A2 CODESIZE SUB DUP1 PUSH2 0x6A2 DUP4 CODECOPY DUP2 DUP2 ADD PUSH1 0x40 MSTORE DUP2 ADD SWAP1 PUSH2 0x31 SWAP2 SWAP1 PUSH2 0x17F JUMP JUMPDEST PUSH0 PUSH20 0xFFFFFFFFFFFFFFFFFFFFFFFFFFFFFFFFFFFFFFFF AND DUP2 PUSH20 0xFFFFFFFFFFFFFFFFFFFFFFFFFFFFFFFFFFFFFFFF AND SUB PUSH2 0x9F JUMPI PUSH1 0x40 MLOAD PUSH32 0x8C379A000000000000000000000000000000000000000000000000000000000 DUP2 MSTORE PUSH1 0x4 ADD PUSH2 0x96 SWAP1 PUSH2 0x204 JUMP JUMPDEST PUSH1 0x40 MLOAD DUP1 SWAP2 SUB SWAP1 REVERT JUMPDEST PUSH1 0x1 PUSH20 0xFFFFFFFFFFFFFFFFFFFFFFFFFFFFFFFFFFFFFFFF AND DUP2 PUSH20 0xFFFFFFFFFFFFFFFFFFFFFFFFFFFFFFFFFFFFFFFF AND SUB PUSH2 0xDC JUMPI PUSH2 0xDB PUSH2 0x222 JUMP JUMPDEST JUMPDEST DUP1 PUSH0 PUSH0 PUSH2 0x100 EXP DUP2 SLOAD DUP2 PUSH20 0xFFFFFFFFFFFFFFFFFFFFFFFFFFFFFFFFFFFFFFFF MUL NOT AND SWAP1 DUP4 PUSH20 0xFFFFFFFFFFFFFFFFFFFFFFFFFFFFFFFFFFFFFFFF AND MUL OR SWAP1 SSTORE POP POP PUSH2 0x24F JUMP JUMPDEST PUSH0 PUSH0 REVERT JUMPDEST PUSH0 PUSH20 0xFFFFFFFFFFFFFFFFFFFFFFFFFFFFFFFFFFFFFFFF DUP3 AND SWAP1 POP SWAP2 SWAP1 POP JUMP JUMPDEST PUSH0 PUSH2 0x14E DUP3 PUSH2 0x125 JUMP JUMPDEST SWAP1 POP SWAP2 SWAP1 POP JUMP JUMPDEST PUSH2 0x15E DUP2 PUSH2 0x144 JUMP JUMPDEST DUP2 EQ PUSH2 0x168 JUMPI PUSH0 PUSH0 REVERT JUMPDEST POP JUMP JUMPDEST PUSH0 DUP2 MLOAD SWAP1 POP PUSH2 0x179 DUP2 PUSH2 0x155 JUMP JUMPDEST SWAP3 SWAP2 POP POP JUMP JUMPDEST PUSH0 PUSH1 0x20 DUP3 DUP5 SUB SLT ISZERO PUSH2 0x194 JUMPI PUSH2 0x193 PUSH2 0x121 JUMP JUMPDEST JUMPDEST PUSH0 PUSH2 0x1A1 DUP5 DUP3 DUP6 ADD PUSH2 0x16B JUMP JUMPDEST SWAP2 POP POP SWAP3 SWAP2 POP POP JUMP JUMPDEST PUSH0 DUP3 DUP3 MSTORE PUSH1 0x20 DUP3 ADD SWAP1 POP SWAP3 SWAP2 POP POP JUMP JUMPDEST PUSH32 0x696E76616C696420616464726573730000000000000000000000000000000000 PUSH0 DUP3 ADD MSTORE POP JUMP JUMPDEST PUSH0 PUSH2 0x1EE PUSH1 0xF DUP4 PUSH2 0x1AA JUMP JUMPDEST SWAP2 POP PUSH2 0x1F9 DUP3 PUSH2 0x1BA JUMP JUMPDEST PUSH1 0x20 DUP3 ADD SWAP1 POP SWAP2 SWAP1 POP JUMP JUMPDEST PUSH0 PUSH1 0x20 DUP3 ADD SWAP1 POP DUP2 DUP2 SUB PUSH0 DUP4 ADD MSTORE PUSH2 0x21B DUP2 PUSH2 0x1E2 JUMP JUMPDEST SWAP1 POP SWAP2 SWAP1 POP JUMP JUMPDEST PUSH32 0x4E487B7100000000000000000000000000000000000000000000000000000000 PUSH0 MSTORE PUSH1 0x1 PUSH1 0x4 MSTORE PUSH1 0x24 PUSH0 REVERT JUMPDEST PUSH2 0x446 DUP1 PUSH2 0x25C PUSH0 CODECOPY PUSH0 RETURN INVALID PUSH1 0x80 PUSH1 0x40 MSTORE CALLVALUE DUP1 ISZERO PUSH2 0xF JUMPI PUSH0 PUSH0 REVERT JUMPDEST POP PUSH1 0x4 CALLDATASIZE LT PUSH2 0x4A JUMPI PUSH0 CALLDATALOAD PUSH1 0xE0 SHR DUP1 PUSH4 0xC55699C EQ PUSH2 0x4E JUMPI DUP1 PUSH4 0x4018D9AA EQ PUSH2 0x6C JUMPI DUP1 PUSH4 0x8DA5CB5B EQ PUSH2 0x88 JUMPI DUP1 PUSH4 0xA9BF5633 EQ PUSH2 0xA6 JUMPI JUMPDEST PUSH0 PUSH0 REVERT JUMPDEST PUSH2 0x56 PUSH2 0xD6 JUMP JUMPDEST PUSH1 0x40 MLOAD PUSH2 0x63 SWAP2 SWAP1 PUSH2 0x1E6 JUMP JUMPDEST PUSH1 0x40 MLOAD DUP1 SWAP2 SUB SWAP1 RETURN JUMPDEST PUSH2 0x86 PUSH1 0x4 DUP1 CALLDATASIZE SUB DUP2 ADD SWAP1 PUSH2 0x81 SWAP2 SWAP1 PUSH2 0x22D JUMP JUMPDEST PUSH2 0xDC JUMP JUMPDEST STOP JUMPDEST PUSH2 0x90 PUSH2 0x129 JUMP JUMPDEST PUSH1 0x40 MLOAD PUSH2 0x9D SWAP2 SWAP1 PUSH2 0x297 JUMP JUMPDEST PUSH1 0x40 MLOAD DUP1 SWAP2 SUB SWAP1 RETURN JUMPDEST PUSH2 0xC0 PUSH1 0x4 DUP1 CALLDATASIZE SUB DUP2 ADD SWAP1 PUSH2 0xBB SWAP2 SWAP1 PUSH2 0x22D JUMP JUMPDEST PUSH2 0x14D JUMP JUMPDEST PUSH1 0x40 MLOAD PUSH2 0xCD SWAP2 SWAP1 PUSH2 0x320 JUMP JUMPDEST PUSH1 0x40 MLOAD DUP1 SWAP2 SUB SWAP1 RETURN JUMPDEST PUSH1 0x1 SLOAD DUP2 JUMP JUMPDEST PUSH1 0xA DUP2 GT PUSH2 0x11F JUMPI PUSH1 0x40 MLOAD PUSH32 0x8C379A000000000000000000000000000000000000000000000000000000000 DUP2 MSTORE PUSH1 0x4 ADD PUSH2 0x116 SWAP1 PUSH2 0x38A JUMP JUMPDEST PUSH1 0x40 MLOAD DUP1 SWAP2 SUB SWAP1 REVERT JUMPDEST DUP1 PUSH1 0x1 DUP2 SWAP1 SSTORE POP POP JUMP JUMPDEST PUSH0 PUSH0 SWAP1 SLOAD SWAP1 PUSH2 0x100 EXP SWAP1 DIV PUSH20 0xFFFFFFFFFFFFFFFFFFFFFFFFFFFFFFFFFFFFFFFF AND DUP2 JUMP JUMPDEST PUSH1 0x60 PUSH0 DUP3 SUB PUSH2 0x191 JUMPI PUSH1 0x40 MLOAD PUSH32 0x8C379A000000000000000000000000000000000000000000000000000000000 DUP2 MSTORE PUSH1 0x4 ADD PUSH2 0x188 SWAP1 PUSH2 0x3F2 JUMP JUMPDEST PUSH1 0x40 MLOAD DUP1 SWAP2 SUB SWAP1 REVERT JUMPDEST PUSH1 0x40 MLOAD DUP1 PUSH1 0x40 ADD PUSH1 0x40 MSTORE DUP1 PUSH1 0x12 DUP2 MSTORE PUSH1 0x20 ADD PUSH32 0x6D7946756E63207761732063616C6C6564210000000000000000000000000000 DUP2 MSTORE POP SWAP1 POP SWAP2 SWAP1 POP JUMP JUMPDEST PUSH0 DUP2 SWAP1 POP SWAP2 SWAP1 POP JUMP JUMPDEST PUSH2 0x1E0 DUP2 PUSH2 0x1CE JUMP JUMPDEST DUP3 MSTORE POP POP JUMP JUMPDEST PUSH0 PUSH1 0x20 DUP3 ADD SWAP1 POP PUSH2 0x1F9 PUSH0 DUP4 ADD DUP5 PUSH2 0x1D7 JUMP JUMPDEST SWAP3 SWAP2 POP POP JUMP JUMPDEST PUSH0 PUSH0 REVERT JUMPDEST PUSH2 0x20C DUP2 PUSH2 0x1CE JUMP JUMPDEST DUP2 EQ PUSH2 0x216 JUMPI PUSH0 PUSH0 REVERT JUMPDEST POP JUMP JUMPDEST PUSH0 DUP2 CALLDATALOAD SWAP1 POP PUSH2 0x227 DUP2 PUSH2 0x203 JUMP JUMPDEST SWAP3 SWAP2 POP POP JUMP JUMPDEST PUSH0 PUSH1 0x20 DUP3 DUP5 SUB SLT ISZERO PUSH2 0x242 JUMPI PUSH2 0x241 PUSH2 0x1FF JUMP JUMPDEST JUMPDEST PUSH0 PUSH2 0x24F DUP5 DUP3 DUP6 ADD PUSH2 0x219 JUMP JUMPDEST SWAP2 POP POP SWAP3 SWAP2 POP POP JUMP JUMPDEST PUSH0 PUSH20 0xFFFFFFFFFFFFFFFFFFFFFFFFFFFFFFFFFFFFFFFF DUP3 AND SWAP1 POP SWAP2 SWAP1 POP JUMP JUMPDEST PUSH0 PUSH2 0x281 DUP3 PUSH2 0x258 JUMP JUMPDEST SWAP1 POP SWAP2 SWAP1 POP JUMP JUMPDEST PUSH2 0x291 DUP2 PUSH2 0x277 JUMP JUMPDEST DUP3 MSTORE POP POP JUMP JUMPDEST PUSH0 PUSH1 0x20 DUP3 ADD SWAP1 POP PUSH2 0x2AA PUSH0 DUP4 ADD DUP5 PUSH2 0x288 JUMP JUMPDEST SWAP3 SWAP2 POP POP JUMP JUMPDEST PUSH0 DUP2 MLOAD SWAP1 POP SWAP2 SWAP1 POP JUMP JUMPDEST PUSH0 DUP3 DUP3 MSTORE PUSH1 0x20 DUP3 ADD SWAP1 POP SWAP3 SWAP2 POP POP JUMP JUMPDEST DUP3 DUP2 DUP4 MCOPY PUSH0 DUP4 DUP4 ADD MSTORE POP POP POP JUMP JUMPDEST PUSH0 PUSH1 0x1F NOT PUSH1 0x1F DUP4 ADD AND SWAP1 POP SWAP2 SWAP1 POP JUMP JUMPDEST PUSH0 PUSH2 0x2F2 DUP3 PUSH2 0x2B0 JUMP JUMPDEST PUSH2 0x2FC DUP2 DUP6 PUSH2 0x2BA JUMP JUMPDEST SWAP4 POP PUSH2 0x30C DUP2 DUP6 PUSH1 0x20 DUP7 ADD PUSH2 0x2CA JUMP JUMPDEST PUSH2 0x315 DUP2 PUSH2 0x2D8 JUMP JUMPDEST DUP5 ADD SWAP2 POP POP SWAP3 SWAP2 POP POP JUMP JUMPDEST PUSH0 PUSH1 0x20 DUP3 ADD SWAP1 POP DUP2 DUP2 SUB PUSH0 DUP4 ADD MSTORE PUSH2 0x338 DUP2 DUP5 PUSH2 0x2E8 JUMP JUMPDEST SWAP1 POP SWAP3 SWAP2 POP POP JUMP JUMPDEST PUSH32 0x696E76616C69642076616C756500000000000000000000000000000000000000 PUSH0 DUP3 ADD MSTORE POP JUMP JUMPDEST PUSH0 PUSH2 0x374 PUSH1 0xD DUP4 PUSH2 0x2BA JUMP JUMPDEST SWAP2 POP PUSH2 0x37F DUP3 PUSH2 0x340 JUMP JUMPDEST PUSH1 0x20 DUP3 ADD SWAP1 POP SWAP2 SWAP1 POP JUMP JUMPDEST PUSH0 PUSH1 0x20 DUP3 ADD SWAP1 POP DUP2 DUP2 SUB PUSH0 DUP4 ADD MSTORE PUSH2 0x3A1 DUP2 PUSH2 0x368 JUMP JUMPDEST SWAP1 POP SWAP2 SWAP1 POP JUMP JUMPDEST PUSH32 0x72657175697265206661696C6564000000000000000000000000000000000000 PUSH0 DUP3 ADD MSTORE POP JUMP JUMPDEST PUSH0 PUSH2 0x3DC PUSH1 0xE DUP4 PUSH2 0x2BA JUMP JUMPDEST SWAP2 POP PUSH2 0x3E7 DUP3 PUSH2 0x3A8 JUMP JUMPDEST PUSH1 0x20 DUP3 ADD SWAP1 POP SWAP2 SWAP1 POP JUMP JUMPDEST PUSH0 PUSH1 0x20 DUP3 ADD SWAP1 POP DUP2 DUP2 SUB PUSH0 DUP4 ADD MSTORE PUSH2 0x409 DUP2 PUSH2 0x3D0 JUMP JUMPDEST SWAP1 POP SWAP2 SWAP1 POP JUMP INVALID LOG2 PUSH5 0x6970667358 0x22 SLT KECCAK256 TSTORE LOG2 DUP5 DUP4 PUSH17 0xB47E921722266649F3D043F5B4C36D4CED STATICCALL SELFDESTRUCT PUSH8 0xE79CED3CAAF18D64 PUSH20 0x6F6C634300081F0033A2646970667358221220C9 RETURNDATASIZE CALLER TIMESTAMP PUSH24 0x9C0E3C368F844D0CC07DCAADD8C30C86E7A28D6376D4A344 SDIV 0xB8 0x4B PUSH5 0x736F6C6343 STOP ADDMOD 0x1F STOP CALLER PUSH1 0x80 PUSH1 0x40 MSTORE CALLVALUE DUP1 ISZERO PUSH2 0xF JUMPI PUSH0 PUSH0 REVERT JUMPDEST POP PUSH1 0x40 MLOAD PUSH2 0x6A2 CODESIZE SUB DUP1 PUSH2 0x6A2 DUP4 CODECOPY DUP2 DUP2 ADD PUSH1 0x40 MSTORE DUP2 ADD SWAP1 PUSH2 0x31 SWAP2 SWAP1 PUSH2 0x17F JUMP JUMPDEST PUSH0 PUSH20 0xFFFFFFFFFFFFFFFFFFFFFFFFFFFFFFFFFFFFFFFF AND DUP2 PUSH20 0xFFFFFFFFFFFFFFFFFFFFFFFFFFFFFFFFFFFFFFFF AND SUB PUSH2 0x9F JUMPI PUSH1 0x40 MLOAD PUSH32 0x8C379A000000000000000000000000000000000000000000000000000000000 DUP2 MSTORE PUSH1 0x4 ADD PUSH2 0x96 SWAP1 PUSH2 0x204 JUMP JUMPDEST PUSH1 0x40 MLOAD DUP1 SWAP2 SUB SWAP1 REVERT JUMPDEST PUSH1 0x1 PUSH20 0xFFFFFFFFFFFFFFFFFFFFFFFFFFFFFFFFFFFFFFFF AND DUP2 PUSH20 0xFFFFFFFFFFFFFFFFFFFFFFFFFFFFFFFFFFFFFFFF AND SUB PUSH2 0xDC JUMPI PUSH2 0xDB PUSH2 0x222 JUMP JUMPDEST JUMPDEST DUP1 PUSH0 PUSH0 PUSH2 0x100 EXP DUP2 SLOAD DUP2 PUSH20 0xFFFFFFFFFFFFFFFFFFFFFFFFFFFFFFFFFFFFFFFF MUL NOT AND SWAP1 DUP4 PUSH20 0xFFFFFFFFFFFFFFFFFFFFFFFFFFFFFFFFFFFFFFFF AND MUL OR SWAP1 SSTORE POP POP PUSH2 0x24F JUMP JUMPDEST PUSH0 PUSH0 REVERT JUMPDEST PUSH0 PUSH20 0xFFFFFFFFFFFFFFFFFFFFFFFFFFFFFFFFFFFFFFFF DUP3 AND SWAP1 POP SWAP2 SWAP1 POP JUMP JUMPDEST PUSH0 PUSH2 0x14E DUP3 PUSH2 0x125 JUMP JUMPDEST SWAP1 POP SWAP2 SWAP1 POP JUMP JUMPDEST PUSH2 0x15E DUP2 PUSH2 0x144 JUMP JUMPDEST DUP2 EQ PUSH2 0x168 JUMPI PUSH0 PUSH0 REVERT JUMPDEST POP JUMP JUMPDEST PUSH0 DUP2 MLOAD SWAP1 POP PUSH2 0x179 DUP2 PUSH2 0x155 JUMP JUMPDEST SWAP3 SWAP2 POP POP JUMP JUMPDEST PUSH0 PUSH1 0x20 DUP3 DUP5 SUB SLT ISZERO PUSH2 0x194 JUMPI PUSH2 0x193 PUSH2 0x121 JUMP JUMPDEST JUMPDEST PUSH0 PUSH2 0x1A1 DUP5 DUP3 DUP6 ADD PUSH2 0x16B JUMP JUMPDEST SWAP2 POP POP SWAP3 SWAP2 POP POP JUMP JUMPDEST PUSH0 DUP3 DUP3 MSTORE PUSH1 0x20 DUP3 ADD SWAP1 POP SWAP3 SWAP2 POP POP JUMP JUMPDEST PUSH32 0x696E76616C696420616464726573730000000000000000000000000000000000 PUSH0 DUP3 ADD MSTORE POP JUMP JUMPDEST PUSH0 PUSH2 0x1EE PUSH1 0xF DUP4 PUSH2 0x1AA JUMP JUMPDEST SWAP2 POP PUSH2 0x1F9 DUP3 PUSH2 0x1BA JUMP JUMPDEST PUSH1 0x20 DUP3 ADD SWAP1 POP SWAP2 SWAP1 POP JUMP JUMPDEST PUSH0 PUSH1 0x20 DUP3 ADD SWAP1 POP DUP2 DUP2 SUB PUSH0 DUP4 ADD MSTORE PUSH2 0x21B DUP2 PUSH2 0x1E2 JUMP JUMPDEST SWAP1 POP SWAP2 SWAP1 POP JUMP JUMPDEST PUSH32 0x4E487B7100000000000000000000000000000000000000000000000000000000 PUSH0 MSTORE PUSH1 0x1 PUSH1 0x4 MSTORE PUSH1 0x24 PUSH0 REVERT JUMPDEST PUSH2 0x446 DUP1 PUSH2 0x25C PUSH0 CODECOPY PUSH0 RETURN INVALID PUSH1 0x80 PUSH1 0x40 MSTORE CALLVALUE DUP1 ISZERO PUSH2 0xF JUMPI PUSH0 PUSH0 REVERT JUMPDEST POP PUSH1 0x4 CALLDATASIZE LT PUSH2 0x4A JUMPI PUSH0 CALLDATALOAD PUSH1 0xE0 SHR DUP1 PUSH4 0xC55699C EQ PUSH2 0x4E JUMPI DUP1 PUSH4 0x4018D9AA EQ PUSH2 0x6C JUMPI DUP1 PUSH4 0x8DA5CB5B EQ PUSH2 0x88 JUMPI DUP1 PUSH4 0xA9BF5633 EQ PUSH2 0xA6 JUMPI JUMPDEST PUSH0 PUSH0 REVERT JUMPDEST PUSH2 0x56 PUSH2 0xD6 JUMP JUMPDEST PUSH1 0x40 MLOAD PUSH2 0x63 SWAP2 SWAP1 PUSH2 0x1E6 JUMP JUMPDEST PUSH1 0x40 MLOAD DUP1 SWAP2 SUB SWAP1 RETURN JUMPDEST PUSH2 0x86 PUSH1 0x4 DUP1 CALLDATASIZE SUB DUP2 ADD SWAP1 PUSH2 0x81 SWAP2 SWAP1 PUSH2 0x22D JUMP JUMPDEST PUSH2 0xDC JUMP JUMPDEST STOP JUMPDEST PUSH2 0x90 PUSH2 0x129 JUMP JUMPDEST PUSH1 0x40 MLOAD PUSH2 0x9D SWAP2 SWAP1 PUSH2 0x297 JUMP JUMPDEST PUSH1 0x40 MLOAD DUP1 SWAP2 SUB SWAP1 RETURN JUMPDEST PUSH2 0xC0 PUSH1 0x4 DUP1 CALLDATASIZE SUB DUP2 ADD SWAP1 PUSH2 0xBB SWAP2 SWAP1 PUSH2 0x22D JUMP JUMPDEST PUSH2 0x14D JUMP JUMPDEST PUSH1 0x40 MLOAD PUSH2 0xCD SWAP2 SWAP1 PUSH2 0x320 JUMP JUMPDEST PUSH1 0x40 MLOAD DUP1 SWAP2 SUB SWAP1 RETURN JUMPDEST PUSH1 0x1 SLOAD DUP2 JUMP JUMPDEST PUSH1 0xA DUP2 GT PUSH2 0x11F JUMPI PUSH1 0x40 MLOAD PUSH32 0x8C379A000000000000000000000000000000000000000000000000000000000 DUP2 MSTORE PUSH1 0x4 ADD PUSH2 0x116 SWAP1 PUSH2 0x38A JUMP JUMPDEST PUSH1 0x40 MLOAD DUP1 SWAP2 SUB SWAP1 REVERT JUMPDEST DUP1 PUSH1 0x1 DUP2 SWAP1 SSTORE POP POP JUMP JUMPDEST PUSH0 PUSH0 SWAP1 SLOAD SWAP1 PUSH2 0x100 EXP SWAP1 DIV PUSH20 0xFFFFFFFFFFFFFFFFFFFFFFFFFFFFFFFFFFFFFFFF AND DUP2 JUMP JUMPDEST PUSH1 0x60 PUSH0 DUP3 SUB PUSH2 0x191 JUMPI PUSH1 0x40 MLOAD PUSH32 0x8C379A000000000000000000000000000000000000000000000000000000000 DUP2 MSTORE PUSH1 0x4 ADD PUSH2 0x188 SWAP1 PUSH2 0x3F2 JUMP JUMPDEST PUSH1 0x40 MLOAD DUP1 SWAP2 SUB SWAP1 REVERT JUMPDEST PUSH1 0x40 MLOAD DUP1 PUSH1 0x40 ADD PUSH1 0x40 MSTORE DUP1 PUSH1 0x12 DUP2 MSTORE PUSH1 0x20 ADD PUSH32 0x6D7946756E63207761732063616C6C6564210000000000000000000000000000 DUP2 MSTORE POP SWAP1 POP SWAP2 SWAP1 POP JUMP JUMPDEST PUSH0 DUP2 SWAP1 POP SWAP2 SWAP1 POP JUMP JUMPDEST PUSH2 0x1E0 DUP2 PUSH2 0x1CE JUMP JUMPDEST DUP3 MSTORE POP POP JUMP JUMPDEST PUSH0 PUSH1 0x20 DUP3 ADD SWAP1 POP PUSH2 0x1F9 PUSH0 DUP4 ADD DUP5 PUSH2 0x1D7 JUMP JUMPDEST SWAP3 SWAP2 POP POP JUMP JUMPDEST PUSH0 PUSH0 REVERT JUMPDEST PUSH2 0x20C DUP2 PUSH2 0x1CE JUMP JUMPDEST DUP2 EQ PUSH2 0x216 JUMPI PUSH0 PUSH0 REVERT JUMPDEST POP JUMP JUMPDEST PUSH0 DUP2 CALLDATALOAD SWAP1 POP PUSH2 0x227 DUP2 PUSH2 0x203 JUMP JUMPDEST SWAP3 SWAP2 POP POP JUMP JUMPDEST PUSH0 PUSH1 0x20 DUP3 DUP5 SUB SLT ISZERO PUSH2 0x242 JUMPI PUSH2 0x241 PUSH2 0x1FF JUMP JUMPDEST JUMPDEST PUSH0 PUSH2 0x24F DUP5 DUP3 DUP6 ADD PUSH2 0x219 JUMP JUMPDEST SWAP2 POP POP SWAP3 SWAP2 POP POP JUMP JUMPDEST PUSH0 PUSH20 0xFFFFFFFFFFFFFFFFFFFFFFFFFFFFFFFFFFFFFFFF DUP3 AND SWAP1 POP SWAP2 SWAP1 POP JUMP JUMPDEST PUSH0 PUSH2 0x281 DUP3 PUSH2 0x258 JUMP JUMPDEST SWAP1 POP SWAP2 SWAP1 POP JUMP JUMPDEST PUSH2 0x291 DUP2 PUSH2 0x277 JUMP JUMPDEST DUP3 MSTORE POP POP JUMP JUMPDEST PUSH0 PUSH1 0x20 DUP3 ADD SWAP1 POP PUSH2 0x2AA PUSH0 DUP4 ADD DUP5 PUSH2 0x288 JUMP JUMPDEST SWAP3 SWAP2 POP POP JUMP JUMPDEST PUSH0 DUP2 MLOAD SWAP1 POP SWAP2 SWAP1 POP JUMP JUMPDEST PUSH0 DUP3 DUP3 MSTORE PUSH1 0x20 DUP3 ADD SWAP1 POP SWAP3 SWAP2 POP POP JUMP JUMPDEST DUP3 DUP2 DUP4 MCOPY PUSH0 DUP4 DUP4 ADD MSTORE POP POP POP JUMP JUMPDEST PUSH0 PUSH1 0x1F NOT PUSH1 0x1F DUP4 ADD AND SWAP1 POP SWAP2 SWAP1 POP JUMP JUMPDEST PUSH0 PUSH2 0x2F2 DUP3 PUSH2 0x2B0 JUMP JUMPDEST PUSH2 0x2FC DUP2 DUP6 PUSH2 0x2BA JUMP JUMPDEST SWAP4 POP PUSH2 0x30C DUP2 DUP6 PUSH1 0x20 DUP7 ADD PUSH2 0x2CA JUMP JUMPDEST PUSH2 0x315 DUP2 PUSH2 0x2D8 JUMP JUMPDEST DUP5 ADD SWAP2 POP POP SWAP3 SWAP2 POP POP JUMP JUMPDEST PUSH0 PUSH1 0x20 DUP3 ADD SWAP1 POP DUP2 DUP2 SUB PUSH0 DUP4 ADD MSTORE PUSH2 0x338 DUP2 DUP5 PUSH2 0x2E8 JUMP JUMPDEST SWAP1 POP SWAP3 SWAP2 POP POP JUMP JUMPDEST PUSH32 0x696E76616C69642076616C756500000000000000000000000000000000000000 PUSH0 DUP3 ADD MSTORE POP JUMP JUMPDEST PUSH0 PUSH2 0x374 PUSH1 0xD DUP4 PUSH2 0x2BA JUMP JUMPDEST SWAP2 POP PUSH2 0x37F DUP3 PUSH2 0x340 JUMP JUMPDEST PUSH1 0x20 DUP3 ADD SWAP1 POP SWAP2 SWAP1 POP JUMP JUMPDEST PUSH0 PUSH1 0x20 DUP3 ADD SWAP1 POP DUP2 DUP2 SUB PUSH0 DUP4 ADD MSTORE PUSH2 0x3A1 DUP2 PUSH2 0x368 JUMP JUMPDEST SWAP1 POP SWAP2 SWAP1 POP JUMP JUMPDEST PUSH32 0x72657175697265206661696C6564000000000000000000000000000000000000 PUSH0 DUP3 ADD MSTORE POP JUMP JUMPDEST PUSH0 PUSH2 0x3DC PUSH1 0xE DUP4 PUSH2 0x2BA JUMP JUMPDEST SWAP2 POP PUSH2 0x3E7 DUP3 PUSH2 0x3A8 JUMP JUMPDEST PUSH1 0x20 DUP3 ADD SWAP1 POP SWAP2 SWAP1 POP JUMP JUMPDEST PUSH0 PUSH1 0x20 DUP3 ADD SWAP1 POP DUP2 DUP2 SUB PUSH0 DUP4 ADD MSTORE PUSH2 0x409 DUP2 PUSH2 0x3D0 JUMP JUMPDEST SWAP1 POP SWAP2 SWAP1 POP JUMP INVALID LOG2 PUSH5 0x6970667358 0x22 SLT KECCAK256 TSTORE LOG2 DUP5 DUP4 PUSH17 0xB47E921722266649F3D043F5B4C36D4CED STATICCALL SELFDESTRUCT PUSH8 0xE79CED3CAAF18D64 PUSH20 0x6F6C634300081F00330000000000000000000000 "
				},
				"gasEstimates": {
					"creation": {
						"codeDepositCost": "835000",
						"executionCost": "infinite",
						"totalCost": "infinite"
					},
					"external": {
						"foo()": "infinite",
						"tryCatchExternalCall(uint256)": "infinite",
						"tryCatchNewContract(address)": "infinite"
					}
				},
				"methodIdentifiers": {
					"foo()": "c2985578",
					"tryCatchExternalCall(uint256)": "933ac084",
					"tryCatchNewContract(address)": "77bdab83"
				}
			},
			"storageLayout": {
				"storage": [
					{
						"astId": 77,
						"contract": "Sol_by_Example/Basics/31.TryAndCatch.sol:Bar",
						"label": "foo",
						"offset": 0,
						"slot": "0",
						"type": "t_contract(Foo)66"
					}
				],
				"types": {
					"t_contract(Foo)66": {
						"encoding": "inplace",
						"label": "contract Foo",
						"numberOfBytes": "20"
					}
				}
			},
			"userdoc": {
				"kind": "user",
				"methods": {},
				"version": 1
			}
		}
	}
}