{
	"Sol_by_Example/Applications/testCall.sol": {
		"TestCallToContract": {
			"abi": [
				{
					"inputs": [
						{
							"internalType": "address payable",
							"name": "_to",
							"type": "address"
						},
						{
							"internalType": "uint256",
							"name": "_amount",
							"type": "uint256"
						}
					],
					"name": "adminWithdraw",
					"outputs": [],
					"stateMutability": "payable",
					"type": "function"
				},
				{
					"inputs": [],
					"name": "getContactBalance",
					"outputs": [
						{
							"internalType": "uint256",
							"name": "",
							"type": "uint256"
						}
					],
					"stateMutability": "view",
					"type": "function"
				},
				{
					"inputs": [
						{
							"internalType": "address payable",
							"name": "_to",
							"type": "address"
						}
					],
					"name": "sendEtherToAccount",
					"outputs": [],
					"stateMutability": "payable",
					"type": "function"
				},
				{
					"inputs": [],
					"name": "withdraw",
					"outputs": [],
					"stateMutability": "payable",
					"type": "function"
				},
				{
					"stateMutability": "payable",
					"type": "receive"
				}
			],
			"devdoc": {
				"kind": "dev",
				"methods": {},
				"version": 1
			},
			"evm": {
				"assembly": "    /* \"Sol_by_Example/Applications/testCall.sol\":58:1046  contract TestCallToContract {... */\n  mstore(0x40, 0x80)\n  callvalue\n  dup1\n  iszero\n  tag_1\n  jumpi\n  revert(0x00, 0x00)\ntag_1:\n  pop\n  dataSize(sub_0)\n  dup1\n  dataOffset(sub_0)\n  0x00\n  codecopy\n  0x00\n  return\nstop\n\nsub_0: assembly {\n        /* \"Sol_by_Example/Applications/testCall.sol\":58:1046  contract TestCallToContract {... */\n      mstore(0x40, 0x80)\n      jumpi(tag_1, lt(calldatasize, 0x04))\n      shr(0xe0, calldataload(0x00))\n      dup1\n      0x3ccfd60b\n      eq\n      tag_3\n      jumpi\n      dup1\n      0x401d4482\n      eq\n      tag_4\n      jumpi\n      dup1\n      0xc7a7b3a6\n      eq\n      tag_5\n      jumpi\n      dup1\n      0xe48aabd5\n      eq\n      tag_6\n      jumpi\n      jump(tag_2)\n    tag_1:\n      jumpi(tag_2, calldatasize)\n      stop\n    tag_2:\n      revert(0x00, 0x00)\n        /* \"Sol_by_Example/Applications/testCall.sol\":402:651  function withdraw() public payable {... */\n    tag_3:\n      tag_9\n      tag_10\n      jump\t// in\n    tag_9:\n      stop\n        /* \"Sol_by_Example/Applications/testCall.sol\":129:396  function adminWithdraw(address payable _to, uint256 _amount) public payable {... */\n    tag_4:\n      tag_11\n      0x04\n      dup1\n      calldatasize\n      sub\n      dup2\n      add\n      swap1\n      tag_12\n      swap2\n      swap1\n      tag_13\n      jump\t// in\n    tag_12:\n      tag_14\n      jump\t// in\n    tag_11:\n      stop\n        /* \"Sol_by_Example/Applications/testCall.sol\":657:924  function sendEtherToAccount(address payable _to) public payable {... */\n    tag_5:\n      tag_15\n      0x04\n      dup1\n      calldatasize\n      sub\n      dup2\n      add\n      swap1\n      tag_16\n      swap2\n      swap1\n      tag_17\n      jump\t// in\n    tag_16:\n      tag_18\n      jump\t// in\n    tag_15:\n      stop\n        /* \"Sol_by_Example/Applications/testCall.sol\":930:1044  function getContactBalance() public view returns (uint256) {... */\n    tag_6:\n      callvalue\n      dup1\n      iszero\n      tag_19\n      jumpi\n      revert(0x00, 0x00)\n    tag_19:\n      pop\n      tag_20\n      tag_21\n      jump\t// in\n    tag_20:\n      mload(0x40)\n      tag_22\n      swap2\n      swap1\n      tag_23\n      jump\t// in\n    tag_22:\n      mload(0x40)\n      dup1\n      swap2\n      sub\n      swap1\n      return\n        /* \"Sol_by_Example/Applications/testCall.sol\":402:651  function withdraw() public payable {... */\n    tag_10:\n        /* \"Sol_by_Example/Applications/testCall.sol\":448:460  bool success */\n      0x00\n        /* \"Sol_by_Example/Applications/testCall.sol\":473:483  msg.sender */\n      caller\n        /* \"Sol_by_Example/Applications/testCall.sol\":465:489  payable(msg.sender).call */\n      0xffffffffffffffffffffffffffffffffffffffff\n      and\n        /* \"Sol_by_Example/Applications/testCall.sol\":497:518  address(this).balance */\n      selfbalance\n        /* \"Sol_by_Example/Applications/testCall.sol\":465:523  payable(msg.sender).call{value: address(this).balance}(\"\") */\n      mload(0x40)\n      tag_25\n      swap1\n      tag_26\n      jump\t// in\n    tag_25:\n      0x00\n      mload(0x40)\n      dup1\n      dup4\n      sub\n      dup2\n      dup6\n      dup8\n      gas\n      call\n      swap3\n      pop\n      pop\n      pop\n      returndatasize\n      dup1\n      0x00\n      dup2\n      eq\n      tag_29\n      jumpi\n      mload(0x40)\n      swap2\n      pop\n      and(add(returndatasize, 0x3f), not(0x1f))\n      dup3\n      add\n      0x40\n      mstore\n      returndatasize\n      dup3\n      mstore\n      returndatasize\n      0x00\n      0x20\n      dup5\n      add\n      returndatacopy\n      jump(tag_28)\n    tag_29:\n      0x60\n      swap2\n      pop\n    tag_28:\n      pop\n        /* \"Sol_by_Example/Applications/testCall.sol\":447:523  (bool success,) = payable(msg.sender).call{value: address(this).balance}(\"\") */\n      pop\n      swap1\n      pop\n        /* \"Sol_by_Example/Applications/testCall.sol\":618:625  success */\n      dup1\n        /* \"Sol_by_Example/Applications/testCall.sol\":610:644  require(success,\"withdraw failed\") */\n      tag_30\n      jumpi\n      mload(0x40)\n      0x08c379a000000000000000000000000000000000000000000000000000000000\n      dup2\n      mstore\n      0x04\n      add\n      tag_31\n      swap1\n      tag_32\n      jump\t// in\n    tag_31:\n      mload(0x40)\n      dup1\n      swap2\n      sub\n      swap1\n      revert\n    tag_30:\n        /* \"Sol_by_Example/Applications/testCall.sol\":437:651  {... */\n      pop\n        /* \"Sol_by_Example/Applications/testCall.sol\":402:651  function withdraw() public payable {... */\n      jump\t// out\n        /* \"Sol_by_Example/Applications/testCall.sol\":129:396  function adminWithdraw(address payable _to, uint256 _amount) public payable {... */\n    tag_14:\n        /* \"Sol_by_Example/Applications/testCall.sol\":234:255  address(this).balance */\n      selfbalance\n        /* \"Sol_by_Example/Applications/testCall.sol\":223:230  _amount */\n      dup2\n        /* \"Sol_by_Example/Applications/testCall.sol\":223:255  _amount <= address(this).balance */\n      gt\n      iszero\n        /* \"Sol_by_Example/Applications/testCall.sol\":215:280  require(_amount <= address(this).balance, \"Insufficient balance\") */\n      tag_34\n      jumpi\n      mload(0x40)\n      0x08c379a000000000000000000000000000000000000000000000000000000000\n      dup2\n      mstore\n      0x04\n      add\n      tag_35\n      swap1\n      tag_36\n      jump\t// in\n    tag_35:\n      mload(0x40)\n      dup1\n      swap2\n      sub\n      swap1\n      revert\n    tag_34:\n        /* \"Sol_by_Example/Applications/testCall.sol\":292:304  bool success */\n      0x00\n        /* \"Sol_by_Example/Applications/testCall.sol\":310:313  _to */\n      dup3\n        /* \"Sol_by_Example/Applications/testCall.sol\":310:318  _to.call */\n      0xffffffffffffffffffffffffffffffffffffffff\n      and\n        /* \"Sol_by_Example/Applications/testCall.sol\":326:333  _amount */\n      dup3\n        /* \"Sol_by_Example/Applications/testCall.sol\":310:338  _to.call{value: _amount}(\"\") */\n      mload(0x40)\n      tag_37\n      swap1\n      tag_26\n      jump\t// in\n    tag_37:\n      0x00\n      mload(0x40)\n      dup1\n      dup4\n      sub\n      dup2\n      dup6\n      dup8\n      gas\n      call\n      swap3\n      pop\n      pop\n      pop\n      returndatasize\n      dup1\n      0x00\n      dup2\n      eq\n      tag_40\n      jumpi\n      mload(0x40)\n      swap2\n      pop\n      and(add(returndatasize, 0x3f), not(0x1f))\n      dup3\n      add\n      0x40\n      mstore\n      returndatasize\n      dup3\n      mstore\n      returndatasize\n      0x00\n      0x20\n      dup5\n      add\n      returndatacopy\n      jump(tag_39)\n    tag_40:\n      0x60\n      swap2\n      pop\n    tag_39:\n      pop\n        /* \"Sol_by_Example/Applications/testCall.sol\":291:338  (bool success, ) = _to.call{value: _amount}(\"\") */\n      pop\n      swap1\n      pop\n        /* \"Sol_by_Example/Applications/testCall.sol\":356:363  success */\n      dup1\n        /* \"Sol_by_Example/Applications/testCall.sol\":348:389  require(success, \"Admin withdraw failed\") */\n      tag_41\n      jumpi\n      mload(0x40)\n      0x08c379a000000000000000000000000000000000000000000000000000000000\n      dup2\n      mstore\n      0x04\n      add\n      tag_42\n      swap1\n      tag_43\n      jump\t// in\n    tag_42:\n      mload(0x40)\n      dup1\n      swap2\n      sub\n      swap1\n      revert\n    tag_41:\n        /* \"Sol_by_Example/Applications/testCall.sol\":205:396  {... */\n      pop\n        /* \"Sol_by_Example/Applications/testCall.sol\":129:396  function adminWithdraw(address payable _to, uint256 _amount) public payable {... */\n      pop\n      pop\n      jump\t// out\n        /* \"Sol_by_Example/Applications/testCall.sol\":657:924  function sendEtherToAccount(address payable _to) public payable {... */\n    tag_18:\n        /* \"Sol_by_Example/Applications/testCall.sol\":732:744  bool success */\n      0x00\n        /* \"Sol_by_Example/Applications/testCall.sol\":749:752  _to */\n      dup2\n        /* \"Sol_by_Example/Applications/testCall.sol\":749:757  _to.call */\n      0xffffffffffffffffffffffffffffffffffffffff\n      and\n        /* \"Sol_by_Example/Applications/testCall.sol\":765:786  address(this).balance */\n      selfbalance\n        /* \"Sol_by_Example/Applications/testCall.sol\":749:791  _to.call{value: address(this).balance}(\"\") */\n      mload(0x40)\n      tag_45\n      swap1\n      tag_26\n      jump\t// in\n    tag_45:\n      0x00\n      mload(0x40)\n      dup1\n      dup4\n      sub\n      dup2\n      dup6\n      dup8\n      gas\n      call\n      swap3\n      pop\n      pop\n      pop\n      returndatasize\n      dup1\n      0x00\n      dup2\n      eq\n      tag_48\n      jumpi\n      mload(0x40)\n      swap2\n      pop\n      and(add(returndatasize, 0x3f), not(0x1f))\n      dup3\n      add\n      0x40\n      mstore\n      returndatasize\n      dup3\n      mstore\n      returndatasize\n      0x00\n      0x20\n      dup5\n      add\n      returndatacopy\n      jump(tag_47)\n    tag_48:\n      0x60\n      swap2\n      pop\n    tag_47:\n      pop\n        /* \"Sol_by_Example/Applications/testCall.sol\":731:791  (bool success,) = _to.call{value: address(this).balance}(\"\") */\n      pop\n      swap1\n      pop\n        /* \"Sol_by_Example/Applications/testCall.sol\":886:893  success */\n      dup1\n        /* \"Sol_by_Example/Applications/testCall.sol\":878:917  require(success,\"failed to send ether\") */\n      tag_49\n      jumpi\n      mload(0x40)\n      0x08c379a000000000000000000000000000000000000000000000000000000000\n      dup2\n      mstore\n      0x04\n      add\n      tag_50\n      swap1\n      tag_51\n      jump\t// in\n    tag_50:\n      mload(0x40)\n      dup1\n      swap2\n      sub\n      swap1\n      revert\n    tag_49:\n        /* \"Sol_by_Example/Applications/testCall.sol\":721:924  {... */\n      pop\n        /* \"Sol_by_Example/Applications/testCall.sol\":657:924  function sendEtherToAccount(address payable _to) public payable {... */\n      pop\n      jump\t// out\n        /* \"Sol_by_Example/Applications/testCall.sol\":930:1044  function getContactBalance() public view returns (uint256) {... */\n    tag_21:\n        /* \"Sol_by_Example/Applications/testCall.sol\":980:987  uint256 */\n      0x00\n        /* \"Sol_by_Example/Applications/testCall.sol\":1030:1037  1 ether */\n      0x0de0b6b3a7640000\n        /* \"Sol_by_Example/Applications/testCall.sol\":1006:1027  address(this).balance */\n      selfbalance\n        /* \"Sol_by_Example/Applications/testCall.sol\":1006:1037  address(this).balance / 1 ether */\n      tag_53\n      swap2\n      swap1\n      tag_54\n      jump\t// in\n    tag_53:\n        /* \"Sol_by_Example/Applications/testCall.sol\":999:1037  return address(this).balance / 1 ether */\n      swap1\n      pop\n        /* \"Sol_by_Example/Applications/testCall.sol\":930:1044  function getContactBalance() public view returns (uint256) {... */\n      swap1\n      jump\t// out\n        /* \"#utility.yul\":88:205   */\n    tag_56:\n        /* \"#utility.yul\":197:198   */\n      0x00\n        /* \"#utility.yul\":194:195   */\n      0x00\n        /* \"#utility.yul\":187:199   */\n      revert\n        /* \"#utility.yul\":334:460   */\n    tag_58:\n        /* \"#utility.yul\":371:378   */\n      0x00\n        /* \"#utility.yul\":411:453   */\n      0xffffffffffffffffffffffffffffffffffffffff\n        /* \"#utility.yul\":404:409   */\n      dup3\n        /* \"#utility.yul\":400:454   */\n      and\n        /* \"#utility.yul\":389:454   */\n      swap1\n      pop\n        /* \"#utility.yul\":334:460   */\n      swap2\n      swap1\n      pop\n      jump\t// out\n        /* \"#utility.yul\":466:570   */\n    tag_59:\n        /* \"#utility.yul\":511:518   */\n      0x00\n        /* \"#utility.yul\":540:564   */\n      tag_86\n        /* \"#utility.yul\":558:563   */\n      dup3\n        /* \"#utility.yul\":540:564   */\n      tag_58\n      jump\t// in\n    tag_86:\n        /* \"#utility.yul\":529:564   */\n      swap1\n      pop\n        /* \"#utility.yul\":466:570   */\n      swap2\n      swap1\n      pop\n      jump\t// out\n        /* \"#utility.yul\":576:714   */\n    tag_60:\n        /* \"#utility.yul\":657:689   */\n      tag_88\n        /* \"#utility.yul\":683:688   */\n      dup2\n        /* \"#utility.yul\":657:689   */\n      tag_59\n      jump\t// in\n    tag_88:\n        /* \"#utility.yul\":650:655   */\n      dup2\n        /* \"#utility.yul\":647:690   */\n      eq\n        /* \"#utility.yul\":637:708   */\n      tag_89\n      jumpi\n        /* \"#utility.yul\":704:705   */\n      0x00\n        /* \"#utility.yul\":701:702   */\n      0x00\n        /* \"#utility.yul\":694:706   */\n      revert\n        /* \"#utility.yul\":637:708   */\n    tag_89:\n        /* \"#utility.yul\":576:714   */\n      pop\n      jump\t// out\n        /* \"#utility.yul\":720:875   */\n    tag_61:\n        /* \"#utility.yul\":774:779   */\n      0x00\n        /* \"#utility.yul\":812:818   */\n      dup2\n        /* \"#utility.yul\":799:819   */\n      calldataload\n        /* \"#utility.yul\":790:819   */\n      swap1\n      pop\n        /* \"#utility.yul\":828:869   */\n      tag_91\n        /* \"#utility.yul\":863:868   */\n      dup2\n        /* \"#utility.yul\":828:869   */\n      tag_60\n      jump\t// in\n    tag_91:\n        /* \"#utility.yul\":720:875   */\n      swap3\n      swap2\n      pop\n      pop\n      jump\t// out\n        /* \"#utility.yul\":881:958   */\n    tag_62:\n        /* \"#utility.yul\":918:925   */\n      0x00\n        /* \"#utility.yul\":947:952   */\n      dup2\n        /* \"#utility.yul\":936:952   */\n      swap1\n      pop\n        /* \"#utility.yul\":881:958   */\n      swap2\n      swap1\n      pop\n      jump\t// out\n        /* \"#utility.yul\":964:1086   */\n    tag_63:\n        /* \"#utility.yul\":1037:1061   */\n      tag_94\n        /* \"#utility.yul\":1055:1060   */\n      dup2\n        /* \"#utility.yul\":1037:1061   */\n      tag_62\n      jump\t// in\n    tag_94:\n        /* \"#utility.yul\":1030:1035   */\n      dup2\n        /* \"#utility.yul\":1027:1062   */\n      eq\n        /* \"#utility.yul\":1017:1080   */\n      tag_95\n      jumpi\n        /* \"#utility.yul\":1076:1077   */\n      0x00\n        /* \"#utility.yul\":1073:1074   */\n      0x00\n        /* \"#utility.yul\":1066:1078   */\n      revert\n        /* \"#utility.yul\":1017:1080   */\n    tag_95:\n        /* \"#utility.yul\":964:1086   */\n      pop\n      jump\t// out\n        /* \"#utility.yul\":1092:1231   */\n    tag_64:\n        /* \"#utility.yul\":1138:1143   */\n      0x00\n        /* \"#utility.yul\":1176:1182   */\n      dup2\n        /* \"#utility.yul\":1163:1183   */\n      calldataload\n        /* \"#utility.yul\":1154:1183   */\n      swap1\n      pop\n        /* \"#utility.yul\":1192:1225   */\n      tag_97\n        /* \"#utility.yul\":1219:1224   */\n      dup2\n        /* \"#utility.yul\":1192:1225   */\n      tag_63\n      jump\t// in\n    tag_97:\n        /* \"#utility.yul\":1092:1231   */\n      swap3\n      swap2\n      pop\n      pop\n      jump\t// out\n        /* \"#utility.yul\":1237:1727   */\n    tag_13:\n        /* \"#utility.yul\":1313:1319   */\n      0x00\n        /* \"#utility.yul\":1321:1327   */\n      0x00\n        /* \"#utility.yul\":1370:1372   */\n      0x40\n        /* \"#utility.yul\":1358:1367   */\n      dup4\n        /* \"#utility.yul\":1349:1356   */\n      dup6\n        /* \"#utility.yul\":1345:1368   */\n      sub\n        /* \"#utility.yul\":1341:1373   */\n      slt\n        /* \"#utility.yul\":1338:1457   */\n      iszero\n      tag_99\n      jumpi\n        /* \"#utility.yul\":1376:1455   */\n      tag_100\n      tag_56\n      jump\t// in\n    tag_100:\n        /* \"#utility.yul\":1338:1457   */\n    tag_99:\n        /* \"#utility.yul\":1496:1497   */\n      0x00\n        /* \"#utility.yul\":1521:1582   */\n      tag_101\n        /* \"#utility.yul\":1574:1581   */\n      dup6\n        /* \"#utility.yul\":1565:1571   */\n      dup3\n        /* \"#utility.yul\":1554:1563   */\n      dup7\n        /* \"#utility.yul\":1550:1572   */\n      add\n        /* \"#utility.yul\":1521:1582   */\n      tag_61\n      jump\t// in\n    tag_101:\n        /* \"#utility.yul\":1511:1582   */\n      swap3\n      pop\n        /* \"#utility.yul\":1467:1592   */\n      pop\n        /* \"#utility.yul\":1631:1633   */\n      0x20\n        /* \"#utility.yul\":1657:1710   */\n      tag_102\n        /* \"#utility.yul\":1702:1709   */\n      dup6\n        /* \"#utility.yul\":1693:1699   */\n      dup3\n        /* \"#utility.yul\":1682:1691   */\n      dup7\n        /* \"#utility.yul\":1678:1700   */\n      add\n        /* \"#utility.yul\":1657:1710   */\n      tag_64\n      jump\t// in\n    tag_102:\n        /* \"#utility.yul\":1647:1710   */\n      swap2\n      pop\n        /* \"#utility.yul\":1602:1720   */\n      pop\n        /* \"#utility.yul\":1237:1727   */\n      swap3\n      pop\n      swap3\n      swap1\n      pop\n      jump\t// out\n        /* \"#utility.yul\":1733:2078   */\n    tag_17:\n        /* \"#utility.yul\":1800:1806   */\n      0x00\n        /* \"#utility.yul\":1849:1851   */\n      0x20\n        /* \"#utility.yul\":1837:1846   */\n      dup3\n        /* \"#utility.yul\":1828:1835   */\n      dup5\n        /* \"#utility.yul\":1824:1847   */\n      sub\n        /* \"#utility.yul\":1820:1852   */\n      slt\n        /* \"#utility.yul\":1817:1936   */\n      iszero\n      tag_104\n      jumpi\n        /* \"#utility.yul\":1855:1934   */\n      tag_105\n      tag_56\n      jump\t// in\n    tag_105:\n        /* \"#utility.yul\":1817:1936   */\n    tag_104:\n        /* \"#utility.yul\":1975:1976   */\n      0x00\n        /* \"#utility.yul\":2000:2061   */\n      tag_106\n        /* \"#utility.yul\":2053:2060   */\n      dup5\n        /* \"#utility.yul\":2044:2050   */\n      dup3\n        /* \"#utility.yul\":2033:2042   */\n      dup6\n        /* \"#utility.yul\":2029:2051   */\n      add\n        /* \"#utility.yul\":2000:2061   */\n      tag_61\n      jump\t// in\n    tag_106:\n        /* \"#utility.yul\":1990:2061   */\n      swap2\n      pop\n        /* \"#utility.yul\":1946:2071   */\n      pop\n        /* \"#utility.yul\":1733:2078   */\n      swap3\n      swap2\n      pop\n      pop\n      jump\t// out\n        /* \"#utility.yul\":2084:2202   */\n    tag_65:\n        /* \"#utility.yul\":2171:2195   */\n      tag_108\n        /* \"#utility.yul\":2189:2194   */\n      dup2\n        /* \"#utility.yul\":2171:2195   */\n      tag_62\n      jump\t// in\n    tag_108:\n        /* \"#utility.yul\":2166:2169   */\n      dup3\n        /* \"#utility.yul\":2159:2196   */\n      mstore\n        /* \"#utility.yul\":2084:2202   */\n      pop\n      pop\n      jump\t// out\n        /* \"#utility.yul\":2208:2430   */\n    tag_23:\n        /* \"#utility.yul\":2301:2305   */\n      0x00\n        /* \"#utility.yul\":2339:2341   */\n      0x20\n        /* \"#utility.yul\":2328:2337   */\n      dup3\n        /* \"#utility.yul\":2324:2342   */\n      add\n        /* \"#utility.yul\":2316:2342   */\n      swap1\n      pop\n        /* \"#utility.yul\":2352:2423   */\n      tag_110\n        /* \"#utility.yul\":2420:2421   */\n      0x00\n        /* \"#utility.yul\":2409:2418   */\n      dup4\n        /* \"#utility.yul\":2405:2422   */\n      add\n        /* \"#utility.yul\":2396:2402   */\n      dup5\n        /* \"#utility.yul\":2352:2423   */\n      tag_65\n      jump\t// in\n    tag_110:\n        /* \"#utility.yul\":2208:2430   */\n      swap3\n      swap2\n      pop\n      pop\n      jump\t// out\n        /* \"#utility.yul\":2436:2583   */\n    tag_66:\n        /* \"#utility.yul\":2537:2548   */\n      0x00\n        /* \"#utility.yul\":2574:2577   */\n      dup2\n        /* \"#utility.yul\":2559:2577   */\n      swap1\n      pop\n        /* \"#utility.yul\":2436:2583   */\n      swap3\n      swap2\n      pop\n      pop\n      jump\t// out\n        /* \"#utility.yul\":2589:2703   */\n    tag_67:\n      pop\n      jump\t// out\n        /* \"#utility.yul\":2709:3107   */\n    tag_68:\n        /* \"#utility.yul\":2868:2871   */\n      0x00\n        /* \"#utility.yul\":2889:2972   */\n      tag_114\n        /* \"#utility.yul\":2970:2971   */\n      0x00\n        /* \"#utility.yul\":2965:2968   */\n      dup4\n        /* \"#utility.yul\":2889:2972   */\n      tag_66\n      jump\t// in\n    tag_114:\n        /* \"#utility.yul\":2882:2972   */\n      swap2\n      pop\n        /* \"#utility.yul\":2981:3074   */\n      tag_115\n        /* \"#utility.yul\":3070:3073   */\n      dup3\n        /* \"#utility.yul\":2981:3074   */\n      tag_67\n      jump\t// in\n    tag_115:\n        /* \"#utility.yul\":3099:3100   */\n      0x00\n        /* \"#utility.yul\":3094:3097   */\n      dup3\n        /* \"#utility.yul\":3090:3101   */\n      add\n        /* \"#utility.yul\":3083:3101   */\n      swap1\n      pop\n        /* \"#utility.yul\":2709:3107   */\n      swap2\n      swap1\n      pop\n      jump\t// out\n        /* \"#utility.yul\":3113:3492   */\n    tag_26:\n        /* \"#utility.yul\":3297:3300   */\n      0x00\n        /* \"#utility.yul\":3319:3466   */\n      tag_117\n        /* \"#utility.yul\":3462:3465   */\n      dup3\n        /* \"#utility.yul\":3319:3466   */\n      tag_68\n      jump\t// in\n    tag_117:\n        /* \"#utility.yul\":3312:3466   */\n      swap2\n      pop\n        /* \"#utility.yul\":3483:3486   */\n      dup2\n        /* \"#utility.yul\":3476:3486   */\n      swap1\n      pop\n        /* \"#utility.yul\":3113:3492   */\n      swap2\n      swap1\n      pop\n      jump\t// out\n        /* \"#utility.yul\":3498:3667   */\n    tag_69:\n        /* \"#utility.yul\":3582:3593   */\n      0x00\n        /* \"#utility.yul\":3616:3622   */\n      dup3\n        /* \"#utility.yul\":3611:3614   */\n      dup3\n        /* \"#utility.yul\":3604:3623   */\n      mstore\n        /* \"#utility.yul\":3656:3660   */\n      0x20\n        /* \"#utility.yul\":3651:3654   */\n      dup3\n        /* \"#utility.yul\":3647:3661   */\n      add\n        /* \"#utility.yul\":3632:3661   */\n      swap1\n      pop\n        /* \"#utility.yul\":3498:3667   */\n      swap3\n      swap2\n      pop\n      pop\n      jump\t// out\n        /* \"#utility.yul\":3673:3838   */\n    tag_70:\n        /* \"#utility.yul\":3813:3830   */\n      0x7769746864726177206661696c65640000000000000000000000000000000000\n        /* \"#utility.yul\":3809:3810   */\n      0x00\n        /* \"#utility.yul\":3801:3807   */\n      dup3\n        /* \"#utility.yul\":3797:3811   */\n      add\n        /* \"#utility.yul\":3790:3831   */\n      mstore\n        /* \"#utility.yul\":3673:3838   */\n      pop\n      jump\t// out\n        /* \"#utility.yul\":3844:4210   */\n    tag_71:\n        /* \"#utility.yul\":3986:3989   */\n      0x00\n        /* \"#utility.yul\":4007:4074   */\n      tag_121\n        /* \"#utility.yul\":4071:4073   */\n      0x0f\n        /* \"#utility.yul\":4066:4069   */\n      dup4\n        /* \"#utility.yul\":4007:4074   */\n      tag_69\n      jump\t// in\n    tag_121:\n        /* \"#utility.yul\":4000:4074   */\n      swap2\n      pop\n        /* \"#utility.yul\":4083:4176   */\n      tag_122\n        /* \"#utility.yul\":4172:4175   */\n      dup3\n        /* \"#utility.yul\":4083:4176   */\n      tag_70\n      jump\t// in\n    tag_122:\n        /* \"#utility.yul\":4201:4203   */\n      0x20\n        /* \"#utility.yul\":4196:4199   */\n      dup3\n        /* \"#utility.yul\":4192:4204   */\n      add\n        /* \"#utility.yul\":4185:4204   */\n      swap1\n      pop\n        /* \"#utility.yul\":3844:4210   */\n      swap2\n      swap1\n      pop\n      jump\t// out\n        /* \"#utility.yul\":4216:4635   */\n    tag_32:\n        /* \"#utility.yul\":4382:4386   */\n      0x00\n        /* \"#utility.yul\":4420:4422   */\n      0x20\n        /* \"#utility.yul\":4409:4418   */\n      dup3\n        /* \"#utility.yul\":4405:4423   */\n      add\n        /* \"#utility.yul\":4397:4423   */\n      swap1\n      pop\n        /* \"#utility.yul\":4469:4478   */\n      dup2\n        /* \"#utility.yul\":4463:4467   */\n      dup2\n        /* \"#utility.yul\":4459:4479   */\n      sub\n        /* \"#utility.yul\":4455:4456   */\n      0x00\n        /* \"#utility.yul\":4444:4453   */\n      dup4\n        /* \"#utility.yul\":4440:4457   */\n      add\n        /* \"#utility.yul\":4433:4480   */\n      mstore\n        /* \"#utility.yul\":4497:4628   */\n      tag_124\n        /* \"#utility.yul\":4623:4627   */\n      dup2\n        /* \"#utility.yul\":4497:4628   */\n      tag_71\n      jump\t// in\n    tag_124:\n        /* \"#utility.yul\":4489:4628   */\n      swap1\n      pop\n        /* \"#utility.yul\":4216:4635   */\n      swap2\n      swap1\n      pop\n      jump\t// out\n        /* \"#utility.yul\":4641:4811   */\n    tag_72:\n        /* \"#utility.yul\":4781:4803   */\n      0x496e73756666696369656e742062616c616e6365000000000000000000000000\n        /* \"#utility.yul\":4777:4778   */\n      0x00\n        /* \"#utility.yul\":4769:4775   */\n      dup3\n        /* \"#utility.yul\":4765:4779   */\n      add\n        /* \"#utility.yul\":4758:4804   */\n      mstore\n        /* \"#utility.yul\":4641:4811   */\n      pop\n      jump\t// out\n        /* \"#utility.yul\":4817:5183   */\n    tag_73:\n        /* \"#utility.yul\":4959:4962   */\n      0x00\n        /* \"#utility.yul\":4980:5047   */\n      tag_127\n        /* \"#utility.yul\":5044:5046   */\n      0x14\n        /* \"#utility.yul\":5039:5042   */\n      dup4\n        /* \"#utility.yul\":4980:5047   */\n      tag_69\n      jump\t// in\n    tag_127:\n        /* \"#utility.yul\":4973:5047   */\n      swap2\n      pop\n        /* \"#utility.yul\":5056:5149   */\n      tag_128\n        /* \"#utility.yul\":5145:5148   */\n      dup3\n        /* \"#utility.yul\":5056:5149   */\n      tag_72\n      jump\t// in\n    tag_128:\n        /* \"#utility.yul\":5174:5176   */\n      0x20\n        /* \"#utility.yul\":5169:5172   */\n      dup3\n        /* \"#utility.yul\":5165:5177   */\n      add\n        /* \"#utility.yul\":5158:5177   */\n      swap1\n      pop\n        /* \"#utility.yul\":4817:5183   */\n      swap2\n      swap1\n      pop\n      jump\t// out\n        /* \"#utility.yul\":5189:5608   */\n    tag_36:\n        /* \"#utility.yul\":5355:5359   */\n      0x00\n        /* \"#utility.yul\":5393:5395   */\n      0x20\n        /* \"#utility.yul\":5382:5391   */\n      dup3\n        /* \"#utility.yul\":5378:5396   */\n      add\n        /* \"#utility.yul\":5370:5396   */\n      swap1\n      pop\n        /* \"#utility.yul\":5442:5451   */\n      dup2\n        /* \"#utility.yul\":5436:5440   */\n      dup2\n        /* \"#utility.yul\":5432:5452   */\n      sub\n        /* \"#utility.yul\":5428:5429   */\n      0x00\n        /* \"#utility.yul\":5417:5426   */\n      dup4\n        /* \"#utility.yul\":5413:5430   */\n      add\n        /* \"#utility.yul\":5406:5453   */\n      mstore\n        /* \"#utility.yul\":5470:5601   */\n      tag_130\n        /* \"#utility.yul\":5596:5600   */\n      dup2\n        /* \"#utility.yul\":5470:5601   */\n      tag_73\n      jump\t// in\n    tag_130:\n        /* \"#utility.yul\":5462:5601   */\n      swap1\n      pop\n        /* \"#utility.yul\":5189:5608   */\n      swap2\n      swap1\n      pop\n      jump\t// out\n        /* \"#utility.yul\":5614:5785   */\n    tag_74:\n        /* \"#utility.yul\":5754:5777   */\n      0x41646d696e207769746864726177206661696c65640000000000000000000000\n        /* \"#utility.yul\":5750:5751   */\n      0x00\n        /* \"#utility.yul\":5742:5748   */\n      dup3\n        /* \"#utility.yul\":5738:5752   */\n      add\n        /* \"#utility.yul\":5731:5778   */\n      mstore\n        /* \"#utility.yul\":5614:5785   */\n      pop\n      jump\t// out\n        /* \"#utility.yul\":5791:6157   */\n    tag_75:\n        /* \"#utility.yul\":5933:5936   */\n      0x00\n        /* \"#utility.yul\":5954:6021   */\n      tag_133\n        /* \"#utility.yul\":6018:6020   */\n      0x15\n        /* \"#utility.yul\":6013:6016   */\n      dup4\n        /* \"#utility.yul\":5954:6021   */\n      tag_69\n      jump\t// in\n    tag_133:\n        /* \"#utility.yul\":5947:6021   */\n      swap2\n      pop\n        /* \"#utility.yul\":6030:6123   */\n      tag_134\n        /* \"#utility.yul\":6119:6122   */\n      dup3\n        /* \"#utility.yul\":6030:6123   */\n      tag_74\n      jump\t// in\n    tag_134:\n        /* \"#utility.yul\":6148:6150   */\n      0x20\n        /* \"#utility.yul\":6143:6146   */\n      dup3\n        /* \"#utility.yul\":6139:6151   */\n      add\n        /* \"#utility.yul\":6132:6151   */\n      swap1\n      pop\n        /* \"#utility.yul\":5791:6157   */\n      swap2\n      swap1\n      pop\n      jump\t// out\n        /* \"#utility.yul\":6163:6582   */\n    tag_43:\n        /* \"#utility.yul\":6329:6333   */\n      0x00\n        /* \"#utility.yul\":6367:6369   */\n      0x20\n        /* \"#utility.yul\":6356:6365   */\n      dup3\n        /* \"#utility.yul\":6352:6370   */\n      add\n        /* \"#utility.yul\":6344:6370   */\n      swap1\n      pop\n        /* \"#utility.yul\":6416:6425   */\n      dup2\n        /* \"#utility.yul\":6410:6414   */\n      dup2\n        /* \"#utility.yul\":6406:6426   */\n      sub\n        /* \"#utility.yul\":6402:6403   */\n      0x00\n        /* \"#utility.yul\":6391:6400   */\n      dup4\n        /* \"#utility.yul\":6387:6404   */\n      add\n        /* \"#utility.yul\":6380:6427   */\n      mstore\n        /* \"#utility.yul\":6444:6575   */\n      tag_136\n        /* \"#utility.yul\":6570:6574   */\n      dup2\n        /* \"#utility.yul\":6444:6575   */\n      tag_75\n      jump\t// in\n    tag_136:\n        /* \"#utility.yul\":6436:6575   */\n      swap1\n      pop\n        /* \"#utility.yul\":6163:6582   */\n      swap2\n      swap1\n      pop\n      jump\t// out\n        /* \"#utility.yul\":6588:6758   */\n    tag_76:\n        /* \"#utility.yul\":6728:6750   */\n      0x6661696c656420746f2073656e64206574686572000000000000000000000000\n        /* \"#utility.yul\":6724:6725   */\n      0x00\n        /* \"#utility.yul\":6716:6722   */\n      dup3\n        /* \"#utility.yul\":6712:6726   */\n      add\n        /* \"#utility.yul\":6705:6751   */\n      mstore\n        /* \"#utility.yul\":6588:6758   */\n      pop\n      jump\t// out\n        /* \"#utility.yul\":6764:7130   */\n    tag_77:\n        /* \"#utility.yul\":6906:6909   */\n      0x00\n        /* \"#utility.yul\":6927:6994   */\n      tag_139\n        /* \"#utility.yul\":6991:6993   */\n      0x14\n        /* \"#utility.yul\":6986:6989   */\n      dup4\n        /* \"#utility.yul\":6927:6994   */\n      tag_69\n      jump\t// in\n    tag_139:\n        /* \"#utility.yul\":6920:6994   */\n      swap2\n      pop\n        /* \"#utility.yul\":7003:7096   */\n      tag_140\n        /* \"#utility.yul\":7092:7095   */\n      dup3\n        /* \"#utility.yul\":7003:7096   */\n      tag_76\n      jump\t// in\n    tag_140:\n        /* \"#utility.yul\":7121:7123   */\n      0x20\n        /* \"#utility.yul\":7116:7119   */\n      dup3\n        /* \"#utility.yul\":7112:7124   */\n      add\n        /* \"#utility.yul\":7105:7124   */\n      swap1\n      pop\n        /* \"#utility.yul\":6764:7130   */\n      swap2\n      swap1\n      pop\n      jump\t// out\n        /* \"#utility.yul\":7136:7555   */\n    tag_51:\n        /* \"#utility.yul\":7302:7306   */\n      0x00\n        /* \"#utility.yul\":7340:7342   */\n      0x20\n        /* \"#utility.yul\":7329:7338   */\n      dup3\n        /* \"#utility.yul\":7325:7343   */\n      add\n        /* \"#utility.yul\":7317:7343   */\n      swap1\n      pop\n        /* \"#utility.yul\":7389:7398   */\n      dup2\n        /* \"#utility.yul\":7383:7387   */\n      dup2\n        /* \"#utility.yul\":7379:7399   */\n      sub\n        /* \"#utility.yul\":7375:7376   */\n      0x00\n        /* \"#utility.yul\":7364:7373   */\n      dup4\n        /* \"#utility.yul\":7360:7377   */\n      add\n        /* \"#utility.yul\":7353:7400   */\n      mstore\n        /* \"#utility.yul\":7417:7548   */\n      tag_142\n        /* \"#utility.yul\":7543:7547   */\n      dup2\n        /* \"#utility.yul\":7417:7548   */\n      tag_77\n      jump\t// in\n    tag_142:\n        /* \"#utility.yul\":7409:7548   */\n      swap1\n      pop\n        /* \"#utility.yul\":7136:7555   */\n      swap2\n      swap1\n      pop\n      jump\t// out\n        /* \"#utility.yul\":7561:7741   */\n    tag_78:\n        /* \"#utility.yul\":7609:7686   */\n      0x4e487b7100000000000000000000000000000000000000000000000000000000\n        /* \"#utility.yul\":7606:7607   */\n      0x00\n        /* \"#utility.yul\":7599:7687   */\n      mstore\n        /* \"#utility.yul\":7706:7710   */\n      0x12\n        /* \"#utility.yul\":7703:7704   */\n      0x04\n        /* \"#utility.yul\":7696:7711   */\n      mstore\n        /* \"#utility.yul\":7730:7734   */\n      0x24\n        /* \"#utility.yul\":7727:7728   */\n      0x00\n        /* \"#utility.yul\":7720:7735   */\n      revert\n        /* \"#utility.yul\":7933:8118   */\n    tag_54:\n        /* \"#utility.yul\":7973:7974   */\n      0x00\n        /* \"#utility.yul\":7990:8010   */\n      tag_146\n        /* \"#utility.yul\":8008:8009   */\n      dup3\n        /* \"#utility.yul\":7990:8010   */\n      tag_62\n      jump\t// in\n    tag_146:\n        /* \"#utility.yul\":7985:8010   */\n      swap2\n      pop\n        /* \"#utility.yul\":8024:8044   */\n      tag_147\n        /* \"#utility.yul\":8042:8043   */\n      dup4\n        /* \"#utility.yul\":8024:8044   */\n      tag_62\n      jump\t// in\n    tag_147:\n        /* \"#utility.yul\":8019:8044   */\n      swap3\n      pop\n        /* \"#utility.yul\":8063:8064   */\n      dup3\n        /* \"#utility.yul\":8053:8088   */\n      tag_148\n      jumpi\n        /* \"#utility.yul\":8068:8086   */\n      tag_149\n      tag_78\n      jump\t// in\n    tag_149:\n        /* \"#utility.yul\":8053:8088   */\n    tag_148:\n        /* \"#utility.yul\":8110:8111   */\n      dup3\n        /* \"#utility.yul\":8107:8108   */\n      dup3\n        /* \"#utility.yul\":8103:8112   */\n      div\n        /* \"#utility.yul\":8098:8112   */\n      swap1\n      pop\n        /* \"#utility.yul\":7933:8118   */\n      swap3\n      swap2\n      pop\n      pop\n      jump\t// out\n\n    auxdata: 0xa2646970667358221220ff2ca02130f31b8346de78ec5bac5bcdef10f201d22025925a406d8db1fdc36264736f6c634300081f0033\n}\n",
				"bytecode": {
					"linkReferences": {},
					"object": "6080604052348015600e575f5ffd5b506106c08061001c5f395ff3fe608060405260043610610042575f3560e01c80633ccfd60b1461004d578063401d448214610057578063c7a7b3a614610073578063e48aabd51461008f57610049565b3661004957005b5f5ffd5b6100556100b9565b005b610071600480360381019061006c91906103ab565b610164565b005b61008d600480360381019061008891906103e9565b610254565b005b34801561009a575f5ffd5b506100a3610300565b6040516100b09190610423565b60405180910390f35b5f3373ffffffffffffffffffffffffffffffffffffffff16476040516100de90610469565b5f6040518083038185875af1925050503d805f8114610118576040519150601f19603f3d011682016040523d82523d5f602084013e61011d565b606091505b5050905080610161576040517f08c379a0000000000000000000000000000000000000000000000000000000008152600401610158906104d7565b60405180910390fd5b50565b478111156101a7576040517f08c379a000000000000000000000000000000000000000000000000000000000815260040161019e9061053f565b60405180910390fd5b5f8273ffffffffffffffffffffffffffffffffffffffff16826040516101cc90610469565b5f6040518083038185875af1925050503d805f8114610206576040519150601f19603f3d011682016040523d82523d5f602084013e61020b565b606091505b505090508061024f576040517f08c379a0000000000000000000000000000000000000000000000000000000008152600401610246906105a7565b60405180910390fd5b505050565b5f8173ffffffffffffffffffffffffffffffffffffffff164760405161027990610469565b5f6040518083038185875af1925050503d805f81146102b3576040519150601f19603f3d011682016040523d82523d5f602084013e6102b8565b606091505b50509050806102fc576040517f08c379a00000000000000000000000000000000000000000000000000000000081526004016102f39061060f565b60405180910390fd5b5050565b5f670de0b6b3a764000047610315919061065a565b905090565b5f5ffd5b5f73ffffffffffffffffffffffffffffffffffffffff82169050919050565b5f6103478261031e565b9050919050565b6103578161033d565b8114610361575f5ffd5b50565b5f813590506103728161034e565b92915050565b5f819050919050565b61038a81610378565b8114610394575f5ffd5b50565b5f813590506103a581610381565b92915050565b5f5f604083850312156103c1576103c061031a565b5b5f6103ce85828601610364565b92505060206103df85828601610397565b9150509250929050565b5f602082840312156103fe576103fd61031a565b5b5f61040b84828501610364565b91505092915050565b61041d81610378565b82525050565b5f6020820190506104365f830184610414565b92915050565b5f81905092915050565b50565b5f6104545f8361043c565b915061045f82610446565b5f82019050919050565b5f61047382610449565b9150819050919050565b5f82825260208201905092915050565b7f7769746864726177206661696c656400000000000000000000000000000000005f82015250565b5f6104c1600f8361047d565b91506104cc8261048d565b602082019050919050565b5f6020820190508181035f8301526104ee816104b5565b9050919050565b7f496e73756666696369656e742062616c616e63650000000000000000000000005f82015250565b5f61052960148361047d565b9150610534826104f5565b602082019050919050565b5f6020820190508181035f8301526105568161051d565b9050919050565b7f41646d696e207769746864726177206661696c656400000000000000000000005f82015250565b5f61059160158361047d565b915061059c8261055d565b602082019050919050565b5f6020820190508181035f8301526105be81610585565b9050919050565b7f6661696c656420746f2073656e642065746865720000000000000000000000005f82015250565b5f6105f960148361047d565b9150610604826105c5565b602082019050919050565b5f6020820190508181035f830152610626816105ed565b9050919050565b7f4e487b71000000000000000000000000000000000000000000000000000000005f52601260045260245ffd5b5f61066482610378565b915061066f83610378565b92508261067f5761067e61062d565b5b82820490509291505056fea2646970667358221220ff2ca02130f31b8346de78ec5bac5bcdef10f201d22025925a406d8db1fdc36264736f6c634300081f0033",
					"opcodes": "PUSH1 0x80 PUSH1 0x40 MSTORE CALLVALUE DUP1 ISZERO PUSH1 0xE JUMPI PUSH0 PUSH0 REVERT JUMPDEST POP PUSH2 0x6C0 DUP1 PUSH2 0x1C PUSH0 CODECOPY PUSH0 RETURN INVALID PUSH1 0x80 PUSH1 0x40 MSTORE PUSH1 0x4 CALLDATASIZE LT PUSH2 0x42 JUMPI PUSH0 CALLDATALOAD PUSH1 0xE0 SHR DUP1 PUSH4 0x3CCFD60B EQ PUSH2 0x4D JUMPI DUP1 PUSH4 0x401D4482 EQ PUSH2 0x57 JUMPI DUP1 PUSH4 0xC7A7B3A6 EQ PUSH2 0x73 JUMPI DUP1 PUSH4 0xE48AABD5 EQ PUSH2 0x8F JUMPI PUSH2 0x49 JUMP JUMPDEST CALLDATASIZE PUSH2 0x49 JUMPI STOP JUMPDEST PUSH0 PUSH0 REVERT JUMPDEST PUSH2 0x55 PUSH2 0xB9 JUMP JUMPDEST STOP JUMPDEST PUSH2 0x71 PUSH1 0x4 DUP1 CALLDATASIZE SUB DUP2 ADD SWAP1 PUSH2 0x6C SWAP2 SWAP1 PUSH2 0x3AB JUMP JUMPDEST PUSH2 0x164 JUMP JUMPDEST STOP JUMPDEST PUSH2 0x8D PUSH1 0x4 DUP1 CALLDATASIZE SUB DUP2 ADD SWAP1 PUSH2 0x88 SWAP2 SWAP1 PUSH2 0x3E9 JUMP JUMPDEST PUSH2 0x254 JUMP JUMPDEST STOP JUMPDEST CALLVALUE DUP1 ISZERO PUSH2 0x9A JUMPI PUSH0 PUSH0 REVERT JUMPDEST POP PUSH2 0xA3 PUSH2 0x300 JUMP JUMPDEST PUSH1 0x40 MLOAD PUSH2 0xB0 SWAP2 SWAP1 PUSH2 0x423 JUMP JUMPDEST PUSH1 0x40 MLOAD DUP1 SWAP2 SUB SWAP1 RETURN JUMPDEST PUSH0 CALLER PUSH20 0xFFFFFFFFFFFFFFFFFFFFFFFFFFFFFFFFFFFFFFFF AND SELFBALANCE PUSH1 0x40 MLOAD PUSH2 0xDE SWAP1 PUSH2 0x469 JUMP JUMPDEST PUSH0 PUSH1 0x40 MLOAD DUP1 DUP4 SUB DUP2 DUP6 DUP8 GAS CALL SWAP3 POP POP POP RETURNDATASIZE DUP1 PUSH0 DUP2 EQ PUSH2 0x118 JUMPI PUSH1 0x40 MLOAD SWAP2 POP PUSH1 0x1F NOT PUSH1 0x3F RETURNDATASIZE ADD AND DUP3 ADD PUSH1 0x40 MSTORE RETURNDATASIZE DUP3 MSTORE RETURNDATASIZE PUSH0 PUSH1 0x20 DUP5 ADD RETURNDATACOPY PUSH2 0x11D JUMP JUMPDEST PUSH1 0x60 SWAP2 POP JUMPDEST POP POP SWAP1 POP DUP1 PUSH2 0x161 JUMPI PUSH1 0x40 MLOAD PUSH32 0x8C379A000000000000000000000000000000000000000000000000000000000 DUP2 MSTORE PUSH1 0x4 ADD PUSH2 0x158 SWAP1 PUSH2 0x4D7 JUMP JUMPDEST PUSH1 0x40 MLOAD DUP1 SWAP2 SUB SWAP1 REVERT JUMPDEST POP JUMP JUMPDEST SELFBALANCE DUP2 GT ISZERO PUSH2 0x1A7 JUMPI PUSH1 0x40 MLOAD PUSH32 0x8C379A000000000000000000000000000000000000000000000000000000000 DUP2 MSTORE PUSH1 0x4 ADD PUSH2 0x19E SWAP1 PUSH2 0x53F JUMP JUMPDEST PUSH1 0x40 MLOAD DUP1 SWAP2 SUB SWAP1 REVERT JUMPDEST PUSH0 DUP3 PUSH20 0xFFFFFFFFFFFFFFFFFFFFFFFFFFFFFFFFFFFFFFFF AND DUP3 PUSH1 0x40 MLOAD PUSH2 0x1CC SWAP1 PUSH2 0x469 JUMP JUMPDEST PUSH0 PUSH1 0x40 MLOAD DUP1 DUP4 SUB DUP2 DUP6 DUP8 GAS CALL SWAP3 POP POP POP RETURNDATASIZE DUP1 PUSH0 DUP2 EQ PUSH2 0x206 JUMPI PUSH1 0x40 MLOAD SWAP2 POP PUSH1 0x1F NOT PUSH1 0x3F RETURNDATASIZE ADD AND DUP3 ADD PUSH1 0x40 MSTORE RETURNDATASIZE DUP3 MSTORE RETURNDATASIZE PUSH0 PUSH1 0x20 DUP5 ADD RETURNDATACOPY PUSH2 0x20B JUMP JUMPDEST PUSH1 0x60 SWAP2 POP JUMPDEST POP POP SWAP1 POP DUP1 PUSH2 0x24F JUMPI PUSH1 0x40 MLOAD PUSH32 0x8C379A000000000000000000000000000000000000000000000000000000000 DUP2 MSTORE PUSH1 0x4 ADD PUSH2 0x246 SWAP1 PUSH2 0x5A7 JUMP JUMPDEST PUSH1 0x40 MLOAD DUP1 SWAP2 SUB SWAP1 REVERT JUMPDEST POP POP POP JUMP JUMPDEST PUSH0 DUP2 PUSH20 0xFFFFFFFFFFFFFFFFFFFFFFFFFFFFFFFFFFFFFFFF AND SELFBALANCE PUSH1 0x40 MLOAD PUSH2 0x279 SWAP1 PUSH2 0x469 JUMP JUMPDEST PUSH0 PUSH1 0x40 MLOAD DUP1 DUP4 SUB DUP2 DUP6 DUP8 GAS CALL SWAP3 POP POP POP RETURNDATASIZE DUP1 PUSH0 DUP2 EQ PUSH2 0x2B3 JUMPI PUSH1 0x40 MLOAD SWAP2 POP PUSH1 0x1F NOT PUSH1 0x3F RETURNDATASIZE ADD AND DUP3 ADD PUSH1 0x40 MSTORE RETURNDATASIZE DUP3 MSTORE RETURNDATASIZE PUSH0 PUSH1 0x20 DUP5 ADD RETURNDATACOPY PUSH2 0x2B8 JUMP JUMPDEST PUSH1 0x60 SWAP2 POP JUMPDEST POP POP SWAP1 POP DUP1 PUSH2 0x2FC JUMPI PUSH1 0x40 MLOAD PUSH32 0x8C379A000000000000000000000000000000000000000000000000000000000 DUP2 MSTORE PUSH1 0x4 ADD PUSH2 0x2F3 SWAP1 PUSH2 0x60F JUMP JUMPDEST PUSH1 0x40 MLOAD DUP1 SWAP2 SUB SWAP1 REVERT JUMPDEST POP POP JUMP JUMPDEST PUSH0 PUSH8 0xDE0B6B3A7640000 SELFBALANCE PUSH2 0x315 SWAP2 SWAP1 PUSH2 0x65A JUMP JUMPDEST SWAP1 POP SWAP1 JUMP JUMPDEST PUSH0 PUSH0 REVERT JUMPDEST PUSH0 PUSH20 0xFFFFFFFFFFFFFFFFFFFFFFFFFFFFFFFFFFFFFFFF DUP3 AND SWAP1 POP SWAP2 SWAP1 POP JUMP JUMPDEST PUSH0 PUSH2 0x347 DUP3 PUSH2 0x31E JUMP JUMPDEST SWAP1 POP SWAP2 SWAP1 POP JUMP JUMPDEST PUSH2 0x357 DUP2 PUSH2 0x33D JUMP JUMPDEST DUP2 EQ PUSH2 0x361 JUMPI PUSH0 PUSH0 REVERT JUMPDEST POP JUMP JUMPDEST PUSH0 DUP2 CALLDATALOAD SWAP1 POP PUSH2 0x372 DUP2 PUSH2 0x34E JUMP JUMPDEST SWAP3 SWAP2 POP POP JUMP JUMPDEST PUSH0 DUP2 SWAP1 POP SWAP2 SWAP1 POP JUMP JUMPDEST PUSH2 0x38A DUP2 PUSH2 0x378 JUMP JUMPDEST DUP2 EQ PUSH2 0x394 JUMPI PUSH0 PUSH0 REVERT JUMPDEST POP JUMP JUMPDEST PUSH0 DUP2 CALLDATALOAD SWAP1 POP PUSH2 0x3A5 DUP2 PUSH2 0x381 JUMP JUMPDEST SWAP3 SWAP2 POP POP JUMP JUMPDEST PUSH0 PUSH0 PUSH1 0x40 DUP4 DUP6 SUB SLT ISZERO PUSH2 0x3C1 JUMPI PUSH2 0x3C0 PUSH2 0x31A JUMP JUMPDEST JUMPDEST PUSH0 PUSH2 0x3CE DUP6 DUP3 DUP7 ADD PUSH2 0x364 JUMP JUMPDEST SWAP3 POP POP PUSH1 0x20 PUSH2 0x3DF DUP6 DUP3 DUP7 ADD PUSH2 0x397 JUMP JUMPDEST SWAP2 POP POP SWAP3 POP SWAP3 SWAP1 POP JUMP JUMPDEST PUSH0 PUSH1 0x20 DUP3 DUP5 SUB SLT ISZERO PUSH2 0x3FE JUMPI PUSH2 0x3FD PUSH2 0x31A JUMP JUMPDEST JUMPDEST PUSH0 PUSH2 0x40B DUP5 DUP3 DUP6 ADD PUSH2 0x364 JUMP JUMPDEST SWAP2 POP POP SWAP3 SWAP2 POP POP JUMP JUMPDEST PUSH2 0x41D DUP2 PUSH2 0x378 JUMP JUMPDEST DUP3 MSTORE POP POP JUMP JUMPDEST PUSH0 PUSH1 0x20 DUP3 ADD SWAP1 POP PUSH2 0x436 PUSH0 DUP4 ADD DUP5 PUSH2 0x414 JUMP JUMPDEST SWAP3 SWAP2 POP POP JUMP JUMPDEST PUSH0 DUP2 SWAP1 POP SWAP3 SWAP2 POP POP JUMP JUMPDEST POP JUMP JUMPDEST PUSH0 PUSH2 0x454 PUSH0 DUP4 PUSH2 0x43C JUMP JUMPDEST SWAP2 POP PUSH2 0x45F DUP3 PUSH2 0x446 JUMP JUMPDEST PUSH0 DUP3 ADD SWAP1 POP SWAP2 SWAP1 POP JUMP JUMPDEST PUSH0 PUSH2 0x473 DUP3 PUSH2 0x449 JUMP JUMPDEST SWAP2 POP DUP2 SWAP1 POP SWAP2 SWAP1 POP JUMP JUMPDEST PUSH0 DUP3 DUP3 MSTORE PUSH1 0x20 DUP3 ADD SWAP1 POP SWAP3 SWAP2 POP POP JUMP JUMPDEST PUSH32 0x7769746864726177206661696C65640000000000000000000000000000000000 PUSH0 DUP3 ADD MSTORE POP JUMP JUMPDEST PUSH0 PUSH2 0x4C1 PUSH1 0xF DUP4 PUSH2 0x47D JUMP JUMPDEST SWAP2 POP PUSH2 0x4CC DUP3 PUSH2 0x48D JUMP JUMPDEST PUSH1 0x20 DUP3 ADD SWAP1 POP SWAP2 SWAP1 POP JUMP JUMPDEST PUSH0 PUSH1 0x20 DUP3 ADD SWAP1 POP DUP2 DUP2 SUB PUSH0 DUP4 ADD MSTORE PUSH2 0x4EE DUP2 PUSH2 0x4B5 JUMP JUMPDEST SWAP1 POP SWAP2 SWAP1 POP JUMP JUMPDEST PUSH32 0x496E73756666696369656E742062616C616E6365000000000000000000000000 PUSH0 DUP3 ADD MSTORE POP JUMP JUMPDEST PUSH0 PUSH2 0x529 PUSH1 0x14 DUP4 PUSH2 0x47D JUMP JUMPDEST SWAP2 POP PUSH2 0x534 DUP3 PUSH2 0x4F5 JUMP JUMPDEST PUSH1 0x20 DUP3 ADD SWAP1 POP SWAP2 SWAP1 POP JUMP JUMPDEST PUSH0 PUSH1 0x20 DUP3 ADD SWAP1 POP DUP2 DUP2 SUB PUSH0 DUP4 ADD MSTORE PUSH2 0x556 DUP2 PUSH2 0x51D JUMP JUMPDEST SWAP1 POP SWAP2 SWAP1 POP JUMP JUMPDEST PUSH32 0x41646D696E207769746864726177206661696C65640000000000000000000000 PUSH0 DUP3 ADD MSTORE POP JUMP JUMPDEST PUSH0 PUSH2 0x591 PUSH1 0x15 DUP4 PUSH2 0x47D JUMP JUMPDEST SWAP2 POP PUSH2 0x59C DUP3 PUSH2 0x55D JUMP JUMPDEST PUSH1 0x20 DUP3 ADD SWAP1 POP SWAP2 SWAP1 POP JUMP JUMPDEST PUSH0 PUSH1 0x20 DUP3 ADD SWAP1 POP DUP2 DUP2 SUB PUSH0 DUP4 ADD MSTORE PUSH2 0x5BE DUP2 PUSH2 0x585 JUMP JUMPDEST SWAP1 POP SWAP2 SWAP1 POP JUMP JUMPDEST PUSH32 0x6661696C656420746F2073656E64206574686572000000000000000000000000 PUSH0 DUP3 ADD MSTORE POP JUMP JUMPDEST PUSH0 PUSH2 0x5F9 PUSH1 0x14 DUP4 PUSH2 0x47D JUMP JUMPDEST SWAP2 POP PUSH2 0x604 DUP3 PUSH2 0x5C5 JUMP JUMPDEST PUSH1 0x20 DUP3 ADD SWAP1 POP SWAP2 SWAP1 POP JUMP JUMPDEST PUSH0 PUSH1 0x20 DUP3 ADD SWAP1 POP DUP2 DUP2 SUB PUSH0 DUP4 ADD MSTORE PUSH2 0x626 DUP2 PUSH2 0x5ED JUMP JUMPDEST SWAP1 POP SWAP2 SWAP1 POP JUMP JUMPDEST PUSH32 0x4E487B7100000000000000000000000000000000000000000000000000000000 PUSH0 MSTORE PUSH1 0x12 PUSH1 0x4 MSTORE PUSH1 0x24 PUSH0 REVERT JUMPDEST PUSH0 PUSH2 0x664 DUP3 PUSH2 0x378 JUMP JUMPDEST SWAP2 POP PUSH2 0x66F DUP4 PUSH2 0x378 JUMP JUMPDEST SWAP3 POP DUP3 PUSH2 0x67F JUMPI PUSH2 0x67E PUSH2 0x62D JUMP JUMPDEST JUMPDEST DUP3 DUP3 DIV SWAP1 POP SWAP3 SWAP2 POP POP JUMP INVALID LOG2 PUSH5 0x6970667358 0x22 SLT KECCAK256 SELFDESTRUCT 0x2C LOG0 0x21 ADDRESS RETURN SHL DUP4 CHAINID 0xDE PUSH25 0xEC5BAC5BCDEF10F201D22025925A406D8DB1FDC36264736F6C PUSH4 0x4300081F STOP CALLER "
				},
				"gasEstimates": {
					"creation": {
						"codeDepositCost": "345600",
						"executionCost": "378",
						"totalCost": "345978"
					},
					"external": {
						"adminWithdraw(address,uint256)": "infinite",
						"getContactBalance()": "infinite",
						"sendEtherToAccount(address)": "infinite",
						"withdraw()": "infinite"
					}
				},
				"methodIdentifiers": {
					"adminWithdraw(address,uint256)": "401d4482",
					"getContactBalance()": "e48aabd5",
					"sendEtherToAccount(address)": "c7a7b3a6",
					"withdraw()": "3ccfd60b"
				}
			},
			"storageLayout": {
				"storage": [],
				"types": null
			},
			"userdoc": {
				"kind": "user",
				"methods": {},
				"version": 1
			}
		}
	}
}