{
	"new/MarketplaceEscrow_test/MockArbitrator.sol": {
		"MockArbitrator": {
			"abi": [
				{
					"anonymous": false,
					"inputs": [
						{
							"indexed": true,
							"internalType": "uint256",
							"name": "orderId",
							"type": "uint256"
						},
						{
							"indexed": false,
							"internalType": "address",
							"name": "buyer",
							"type": "address"
						},
						{
							"indexed": false,
							"internalType": "address",
							"name": "seller",
							"type": "address"
						},
						{
							"indexed": false,
							"internalType": "uint256",
							"name": "amount",
							"type": "uint256"
						}
					],
					"name": "DisputeNotified",
					"type": "event"
				},
				{
					"inputs": [],
					"name": "disputeCount",
					"outputs": [
						{
							"internalType": "uint256",
							"name": "",
							"type": "uint256"
						}
					],
					"stateMutability": "view",
					"type": "function"
				},
				{
					"inputs": [
						{
							"internalType": "uint256",
							"name": "",
							"type": "uint256"
						}
					],
					"name": "disputes",
					"outputs": [
						{
							"internalType": "uint256",
							"name": "orderId",
							"type": "uint256"
						},
						{
							"internalType": "address",
							"name": "buyer",
							"type": "address"
						},
						{
							"internalType": "address",
							"name": "seller",
							"type": "address"
						},
						{
							"internalType": "uint256",
							"name": "amount",
							"type": "uint256"
						}
					],
					"stateMutability": "view",
					"type": "function"
				},
				{
					"inputs": [
						{
							"internalType": "uint256",
							"name": "index",
							"type": "uint256"
						}
					],
					"name": "getDispute",
					"outputs": [
						{
							"components": [
								{
									"internalType": "uint256",
									"name": "orderId",
									"type": "uint256"
								},
								{
									"internalType": "address",
									"name": "buyer",
									"type": "address"
								},
								{
									"internalType": "address",
									"name": "seller",
									"type": "address"
								},
								{
									"internalType": "uint256",
									"name": "amount",
									"type": "uint256"
								}
							],
							"internalType": "struct MockArbitrator.DisputeRecord",
							"name": "",
							"type": "tuple"
						}
					],
					"stateMutability": "view",
					"type": "function"
				},
				{
					"inputs": [
						{
							"internalType": "uint256",
							"name": "orderId",
							"type": "uint256"
						},
						{
							"internalType": "address",
							"name": "buyer",
							"type": "address"
						},
						{
							"internalType": "address",
							"name": "seller",
							"type": "address"
						},
						{
							"internalType": "uint256",
							"name": "amount",
							"type": "uint256"
						}
					],
					"name": "notifyDispute",
					"outputs": [],
					"stateMutability": "nonpayable",
					"type": "function"
				}
			],
			"devdoc": {
				"kind": "dev",
				"methods": {},
				"version": 1
			},
			"evm": {
				"assembly": "    /* \"new/MarketplaceEscrow_test/MockArbitrator.sol\":90:1029  contract MockArbitrator is IArbitrator {... */\n  mstore(0x40, 0x80)\n  callvalue\n  dup1\n  iszero\n  tag_1\n  jumpi\n  revert(0x00, 0x00)\ntag_1:\n  pop\n  dataSize(sub_0)\n  dup1\n  dataOffset(sub_0)\n  0x00\n  codecopy\n  0x00\n  return\nstop\n\nsub_0: assembly {\n        /* \"new/MarketplaceEscrow_test/MockArbitrator.sol\":90:1029  contract MockArbitrator is IArbitrator {... */\n      mstore(0x40, 0x80)\n      callvalue\n      dup1\n      iszero\n      tag_1\n      jumpi\n      revert(0x00, 0x00)\n    tag_1:\n      pop\n      jumpi(tag_2, lt(calldatasize, 0x04))\n      shr(0xe0, calldataload(0x00))\n      dup1\n      0x564a565d\n      eq\n      tag_3\n      jumpi\n      dup1\n      0xa28889e1\n      eq\n      tag_4\n      jumpi\n      dup1\n      0xa4adcdd0\n      eq\n      tag_5\n      jumpi\n      dup1\n      0xe3a96cbd\n      eq\n      tag_6\n      jumpi\n    tag_2:\n      revert(0x00, 0x00)\n        /* \"new/MarketplaceEscrow_test/MockArbitrator.sol\":320:351  DisputeRecord[] public disputes */\n    tag_3:\n      tag_7\n      0x04\n      dup1\n      calldatasize\n      sub\n      dup2\n      add\n      swap1\n      tag_8\n      swap2\n      swap1\n      tag_9\n      jump\t// in\n    tag_8:\n      tag_10\n      jump\t// in\n    tag_7:\n      mload(0x40)\n      tag_11\n      swap5\n      swap4\n      swap3\n      swap2\n      swap1\n      tag_12\n      jump\t// in\n    tag_11:\n      mload(0x40)\n      dup1\n      swap2\n      sub\n      swap1\n      return\n        /* \"new/MarketplaceEscrow_test/MockArbitrator.sol\":806:901  function disputeCount() external view returns (uint256) {... */\n    tag_4:\n      tag_13\n      tag_14\n      jump\t// in\n    tag_13:\n      mload(0x40)\n      tag_15\n      swap2\n      swap1\n      tag_16\n      jump\t// in\n    tag_15:\n      mload(0x40)\n      dup1\n      swap2\n      sub\n      swap1\n      return\n        /* \"new/MarketplaceEscrow_test/MockArbitrator.sol\":458:799  function notifyDispute(uint256 orderId, address buyer, address seller, uint256 amount) ... */\n    tag_5:\n      tag_17\n      0x04\n      dup1\n      calldatasize\n      sub\n      dup2\n      add\n      swap1\n      tag_18\n      swap2\n      swap1\n      tag_19\n      jump\t// in\n    tag_18:\n      tag_20\n      jump\t// in\n    tag_17:\n      stop\n        /* \"new/MarketplaceEscrow_test/MockArbitrator.sol\":907:1026  function getDispute(uint256 index) external view returns (DisputeRecord memory) {... */\n    tag_6:\n      tag_21\n      0x04\n      dup1\n      calldatasize\n      sub\n      dup2\n      add\n      swap1\n      tag_22\n      swap2\n      swap1\n      tag_9\n      jump\t// in\n    tag_22:\n      tag_23\n      jump\t// in\n    tag_21:\n      mload(0x40)\n      tag_24\n      swap2\n      swap1\n      tag_25\n      jump\t// in\n    tag_24:\n      mload(0x40)\n      dup1\n      swap2\n      sub\n      swap1\n      return\n        /* \"new/MarketplaceEscrow_test/MockArbitrator.sol\":320:351  DisputeRecord[] public disputes */\n    tag_10:\n      0x00\n      dup2\n      dup2\n      sload\n      dup2\n      lt\n      tag_26\n      jumpi\n      0x00\n      dup1\n      revert\n    tag_26:\n      swap1\n      0x00\n      mstore\n      keccak256(0x00, 0x20)\n      swap1\n      0x04\n      mul\n      add\n      0x00\n      swap2\n      pop\n      swap1\n      pop\n      dup1\n      0x00\n      add\n      sload\n      swap1\n      dup1\n      0x01\n      add\n      0x00\n      swap1\n      sload\n      swap1\n      0x0100\n      exp\n      swap1\n      div\n      0xffffffffffffffffffffffffffffffffffffffff\n      and\n      swap1\n      dup1\n      0x02\n      add\n      0x00\n      swap1\n      sload\n      swap1\n      0x0100\n      exp\n      swap1\n      div\n      0xffffffffffffffffffffffffffffffffffffffff\n      and\n      swap1\n      dup1\n      0x03\n      add\n      sload\n      swap1\n      pop\n      dup5\n      jump\t// out\n        /* \"new/MarketplaceEscrow_test/MockArbitrator.sol\":806:901  function disputeCount() external view returns (uint256) {... */\n    tag_14:\n        /* \"new/MarketplaceEscrow_test/MockArbitrator.sol\":853:860  uint256 */\n      0x00\n        /* \"new/MarketplaceEscrow_test/MockArbitrator.sol\":879:887  disputes */\n      0x00\n        /* \"new/MarketplaceEscrow_test/MockArbitrator.sol\":879:894  disputes.length */\n      dup1\n      sload\n      swap1\n      pop\n        /* \"new/MarketplaceEscrow_test/MockArbitrator.sol\":872:894  return disputes.length */\n      swap1\n      pop\n        /* \"new/MarketplaceEscrow_test/MockArbitrator.sol\":806:901  function disputeCount() external view returns (uint256) {... */\n      swap1\n      jump\t// out\n        /* \"new/MarketplaceEscrow_test/MockArbitrator.sol\":458:799  function notifyDispute(uint256 orderId, address buyer, address seller, uint256 amount) ... */\n    tag_20:\n        /* \"new/MarketplaceEscrow_test/MockArbitrator.sol\":659:667  disputes */\n      0x00\n        /* \"new/MarketplaceEscrow_test/MockArbitrator.sol\":673:718  DisputeRecord(orderId, buyer, seller, amount) */\n      mload(0x40)\n      dup1\n      0x80\n      add\n      0x40\n      mstore\n      dup1\n        /* \"new/MarketplaceEscrow_test/MockArbitrator.sol\":687:694  orderId */\n      dup7\n        /* \"new/MarketplaceEscrow_test/MockArbitrator.sol\":673:718  DisputeRecord(orderId, buyer, seller, amount) */\n      dup2\n      mstore\n      0x20\n      add\n        /* \"new/MarketplaceEscrow_test/MockArbitrator.sol\":696:701  buyer */\n      dup6\n        /* \"new/MarketplaceEscrow_test/MockArbitrator.sol\":673:718  DisputeRecord(orderId, buyer, seller, amount) */\n      0xffffffffffffffffffffffffffffffffffffffff\n      and\n      dup2\n      mstore\n      0x20\n      add\n        /* \"new/MarketplaceEscrow_test/MockArbitrator.sol\":703:709  seller */\n      dup5\n        /* \"new/MarketplaceEscrow_test/MockArbitrator.sol\":673:718  DisputeRecord(orderId, buyer, seller, amount) */\n      0xffffffffffffffffffffffffffffffffffffffff\n      and\n      dup2\n      mstore\n      0x20\n      add\n        /* \"new/MarketplaceEscrow_test/MockArbitrator.sol\":711:717  amount */\n      dup4\n        /* \"new/MarketplaceEscrow_test/MockArbitrator.sol\":673:718  DisputeRecord(orderId, buyer, seller, amount) */\n      dup2\n      mstore\n      pop\n        /* \"new/MarketplaceEscrow_test/MockArbitrator.sol\":659:719  disputes.push(DisputeRecord(orderId, buyer, seller, amount)) */\n      swap1\n      dup1\n      0x01\n      dup2\n      sload\n      add\n      dup1\n      dup3\n      sstore\n      dup1\n      swap2\n      pop\n      pop\n      0x01\n      swap1\n      sub\n      swap1\n      0x00\n      mstore\n      keccak256(0x00, 0x20)\n      swap1\n      0x04\n      mul\n      add\n      0x00\n      swap1\n      swap2\n      swap1\n      swap2\n      swap1\n      swap2\n      pop\n      0x00\n      dup3\n      add\n      mload\n      dup2\n      0x00\n      add\n      sstore\n      0x20\n      dup3\n      add\n      mload\n      dup2\n      0x01\n      add\n      exp(0x0100, 0x00)\n      dup2\n      sload\n      dup2\n      0xffffffffffffffffffffffffffffffffffffffff\n      mul\n      not\n      and\n      swap1\n      dup4\n      0xffffffffffffffffffffffffffffffffffffffff\n      and\n      mul\n      or\n      swap1\n      sstore\n      pop\n      0x40\n      dup3\n      add\n      mload\n      dup2\n      0x02\n      add\n      exp(0x0100, 0x00)\n      dup2\n      sload\n      dup2\n      0xffffffffffffffffffffffffffffffffffffffff\n      mul\n      not\n      and\n      swap1\n      dup4\n      0xffffffffffffffffffffffffffffffffffffffff\n      and\n      mul\n      or\n      swap1\n      sstore\n      pop\n      0x60\n      dup3\n      add\n      mload\n      dup2\n      0x03\n      add\n      sstore\n      pop\n      pop\n        /* \"new/MarketplaceEscrow_test/MockArbitrator.sol\":754:761  orderId */\n      dup4\n        /* \"new/MarketplaceEscrow_test/MockArbitrator.sol\":738:785  DisputeNotified(orderId, buyer, seller, amount) */\n      0x7e94fb614cc4ed5916a25a22168ffaadfa006821b90b2e586d91ca30c3f32adb\n        /* \"new/MarketplaceEscrow_test/MockArbitrator.sol\":763:768  buyer */\n      dup5\n        /* \"new/MarketplaceEscrow_test/MockArbitrator.sol\":770:776  seller */\n      dup5\n        /* \"new/MarketplaceEscrow_test/MockArbitrator.sol\":778:784  amount */\n      dup5\n        /* \"new/MarketplaceEscrow_test/MockArbitrator.sol\":738:785  DisputeNotified(orderId, buyer, seller, amount) */\n      mload(0x40)\n      tag_31\n      swap4\n      swap3\n      swap2\n      swap1\n      tag_32\n      jump\t// in\n    tag_31:\n      mload(0x40)\n      dup1\n      swap2\n      sub\n      swap1\n      log2\n        /* \"new/MarketplaceEscrow_test/MockArbitrator.sol\":458:799  function notifyDispute(uint256 orderId, address buyer, address seller, uint256 amount) ... */\n      pop\n      pop\n      pop\n      pop\n      jump\t// out\n        /* \"new/MarketplaceEscrow_test/MockArbitrator.sol\":907:1026  function getDispute(uint256 index) external view returns (DisputeRecord memory) {... */\n    tag_23:\n        /* \"new/MarketplaceEscrow_test/MockArbitrator.sol\":965:985  DisputeRecord memory */\n      tag_33\n      tag_34\n      jump\t// in\n    tag_33:\n        /* \"new/MarketplaceEscrow_test/MockArbitrator.sol\":1004:1012  disputes */\n      0x00\n        /* \"new/MarketplaceEscrow_test/MockArbitrator.sol\":1013:1018  index */\n      dup3\n        /* \"new/MarketplaceEscrow_test/MockArbitrator.sol\":1004:1019  disputes[index] */\n      dup2\n      sload\n      dup2\n      lt\n      tag_36\n      jumpi\n      tag_37\n      tag_38\n      jump\t// in\n    tag_37:\n    tag_36:\n      swap1\n      0x00\n      mstore\n      keccak256(0x00, 0x20)\n      swap1\n      0x04\n      mul\n      add\n        /* \"new/MarketplaceEscrow_test/MockArbitrator.sol\":997:1019  return disputes[index] */\n      mload(0x40)\n      dup1\n      0x80\n      add\n      0x40\n      mstore\n      swap1\n      dup2\n      0x00\n      dup3\n      add\n      sload\n      dup2\n      mstore\n      0x20\n      add\n      0x01\n      dup3\n      add\n      0x00\n      swap1\n      sload\n      swap1\n      0x0100\n      exp\n      swap1\n      div\n      0xffffffffffffffffffffffffffffffffffffffff\n      and\n      0xffffffffffffffffffffffffffffffffffffffff\n      and\n      0xffffffffffffffffffffffffffffffffffffffff\n      and\n      dup2\n      mstore\n      0x20\n      add\n      0x02\n      dup3\n      add\n      0x00\n      swap1\n      sload\n      swap1\n      0x0100\n      exp\n      swap1\n      div\n      0xffffffffffffffffffffffffffffffffffffffff\n      and\n      0xffffffffffffffffffffffffffffffffffffffff\n      and\n      0xffffffffffffffffffffffffffffffffffffffff\n      and\n      dup2\n      mstore\n      0x20\n      add\n      0x03\n      dup3\n      add\n      sload\n      dup2\n      mstore\n      pop\n      pop\n      swap1\n      pop\n        /* \"new/MarketplaceEscrow_test/MockArbitrator.sol\":907:1026  function getDispute(uint256 index) external view returns (DisputeRecord memory) {... */\n      swap2\n      swap1\n      pop\n      jump\t// out\n    tag_34:\n      mload(0x40)\n      dup1\n      0x80\n      add\n      0x40\n      mstore\n      dup1\n      0x00\n      dup2\n      mstore\n      0x20\n      add\n      and(0xffffffffffffffffffffffffffffffffffffffff, 0x00)\n      dup2\n      mstore\n      0x20\n      add\n      and(0xffffffffffffffffffffffffffffffffffffffff, 0x00)\n      dup2\n      mstore\n      0x20\n      add\n      0x00\n      dup2\n      mstore\n      pop\n      swap1\n      jump\t// out\n        /* \"#utility.yul\":88:205   */\n    tag_41:\n        /* \"#utility.yul\":197:198   */\n      0x00\n        /* \"#utility.yul\":194:195   */\n      0x00\n        /* \"#utility.yul\":187:199   */\n      revert\n        /* \"#utility.yul\":334:411   */\n    tag_43:\n        /* \"#utility.yul\":371:378   */\n      0x00\n        /* \"#utility.yul\":400:405   */\n      dup2\n        /* \"#utility.yul\":389:405   */\n      swap1\n      pop\n        /* \"#utility.yul\":334:411   */\n      swap2\n      swap1\n      pop\n      jump\t// out\n        /* \"#utility.yul\":417:539   */\n    tag_44:\n        /* \"#utility.yul\":490:514   */\n      tag_61\n        /* \"#utility.yul\":508:513   */\n      dup2\n        /* \"#utility.yul\":490:514   */\n      tag_43\n      jump\t// in\n    tag_61:\n        /* \"#utility.yul\":483:488   */\n      dup2\n        /* \"#utility.yul\":480:515   */\n      eq\n        /* \"#utility.yul\":470:533   */\n      tag_62\n      jumpi\n        /* \"#utility.yul\":529:530   */\n      0x00\n        /* \"#utility.yul\":526:527   */\n      0x00\n        /* \"#utility.yul\":519:531   */\n      revert\n        /* \"#utility.yul\":470:533   */\n    tag_62:\n        /* \"#utility.yul\":417:539   */\n      pop\n      jump\t// out\n        /* \"#utility.yul\":545:684   */\n    tag_45:\n        /* \"#utility.yul\":591:596   */\n      0x00\n        /* \"#utility.yul\":629:635   */\n      dup2\n        /* \"#utility.yul\":616:636   */\n      calldataload\n        /* \"#utility.yul\":607:636   */\n      swap1\n      pop\n        /* \"#utility.yul\":645:678   */\n      tag_64\n        /* \"#utility.yul\":672:677   */\n      dup2\n        /* \"#utility.yul\":645:678   */\n      tag_44\n      jump\t// in\n    tag_64:\n        /* \"#utility.yul\":545:684   */\n      swap3\n      swap2\n      pop\n      pop\n      jump\t// out\n        /* \"#utility.yul\":690:1019   */\n    tag_9:\n        /* \"#utility.yul\":749:755   */\n      0x00\n        /* \"#utility.yul\":798:800   */\n      0x20\n        /* \"#utility.yul\":786:795   */\n      dup3\n        /* \"#utility.yul\":777:784   */\n      dup5\n        /* \"#utility.yul\":773:796   */\n      sub\n        /* \"#utility.yul\":769:801   */\n      slt\n        /* \"#utility.yul\":766:885   */\n      iszero\n      tag_66\n      jumpi\n        /* \"#utility.yul\":804:883   */\n      tag_67\n      tag_41\n      jump\t// in\n    tag_67:\n        /* \"#utility.yul\":766:885   */\n    tag_66:\n        /* \"#utility.yul\":924:925   */\n      0x00\n        /* \"#utility.yul\":949:1002   */\n      tag_68\n        /* \"#utility.yul\":994:1001   */\n      dup5\n        /* \"#utility.yul\":985:991   */\n      dup3\n        /* \"#utility.yul\":974:983   */\n      dup6\n        /* \"#utility.yul\":970:992   */\n      add\n        /* \"#utility.yul\":949:1002   */\n      tag_45\n      jump\t// in\n    tag_68:\n        /* \"#utility.yul\":939:1002   */\n      swap2\n      pop\n        /* \"#utility.yul\":895:1012   */\n      pop\n        /* \"#utility.yul\":690:1019   */\n      swap3\n      swap2\n      pop\n      pop\n      jump\t// out\n        /* \"#utility.yul\":1025:1143   */\n    tag_46:\n        /* \"#utility.yul\":1112:1136   */\n      tag_70\n        /* \"#utility.yul\":1130:1135   */\n      dup2\n        /* \"#utility.yul\":1112:1136   */\n      tag_43\n      jump\t// in\n    tag_70:\n        /* \"#utility.yul\":1107:1110   */\n      dup3\n        /* \"#utility.yul\":1100:1137   */\n      mstore\n        /* \"#utility.yul\":1025:1143   */\n      pop\n      pop\n      jump\t// out\n        /* \"#utility.yul\":1149:1275   */\n    tag_47:\n        /* \"#utility.yul\":1186:1193   */\n      0x00\n        /* \"#utility.yul\":1226:1268   */\n      0xffffffffffffffffffffffffffffffffffffffff\n        /* \"#utility.yul\":1219:1224   */\n      dup3\n        /* \"#utility.yul\":1215:1269   */\n      and\n        /* \"#utility.yul\":1204:1269   */\n      swap1\n      pop\n        /* \"#utility.yul\":1149:1275   */\n      swap2\n      swap1\n      pop\n      jump\t// out\n        /* \"#utility.yul\":1281:1377   */\n    tag_48:\n        /* \"#utility.yul\":1318:1325   */\n      0x00\n        /* \"#utility.yul\":1347:1371   */\n      tag_73\n        /* \"#utility.yul\":1365:1370   */\n      dup3\n        /* \"#utility.yul\":1347:1371   */\n      tag_47\n      jump\t// in\n    tag_73:\n        /* \"#utility.yul\":1336:1371   */\n      swap1\n      pop\n        /* \"#utility.yul\":1281:1377   */\n      swap2\n      swap1\n      pop\n      jump\t// out\n        /* \"#utility.yul\":1383:1501   */\n    tag_49:\n        /* \"#utility.yul\":1470:1494   */\n      tag_75\n        /* \"#utility.yul\":1488:1493   */\n      dup2\n        /* \"#utility.yul\":1470:1494   */\n      tag_48\n      jump\t// in\n    tag_75:\n        /* \"#utility.yul\":1465:1468   */\n      dup3\n        /* \"#utility.yul\":1458:1495   */\n      mstore\n        /* \"#utility.yul\":1383:1501   */\n      pop\n      pop\n      jump\t// out\n        /* \"#utility.yul\":1507:2060   */\n    tag_12:\n        /* \"#utility.yul\":1684:1688   */\n      0x00\n        /* \"#utility.yul\":1722:1725   */\n      0x80\n        /* \"#utility.yul\":1711:1720   */\n      dup3\n        /* \"#utility.yul\":1707:1726   */\n      add\n        /* \"#utility.yul\":1699:1726   */\n      swap1\n      pop\n        /* \"#utility.yul\":1736:1807   */\n      tag_77\n        /* \"#utility.yul\":1804:1805   */\n      0x00\n        /* \"#utility.yul\":1793:1802   */\n      dup4\n        /* \"#utility.yul\":1789:1806   */\n      add\n        /* \"#utility.yul\":1780:1786   */\n      dup8\n        /* \"#utility.yul\":1736:1807   */\n      tag_46\n      jump\t// in\n    tag_77:\n        /* \"#utility.yul\":1817:1889   */\n      tag_78\n        /* \"#utility.yul\":1885:1887   */\n      0x20\n        /* \"#utility.yul\":1874:1883   */\n      dup4\n        /* \"#utility.yul\":1870:1888   */\n      add\n        /* \"#utility.yul\":1861:1867   */\n      dup7\n        /* \"#utility.yul\":1817:1889   */\n      tag_49\n      jump\t// in\n    tag_78:\n        /* \"#utility.yul\":1899:1971   */\n      tag_79\n        /* \"#utility.yul\":1967:1969   */\n      0x40\n        /* \"#utility.yul\":1956:1965   */\n      dup4\n        /* \"#utility.yul\":1952:1970   */\n      add\n        /* \"#utility.yul\":1943:1949   */\n      dup6\n        /* \"#utility.yul\":1899:1971   */\n      tag_49\n      jump\t// in\n    tag_79:\n        /* \"#utility.yul\":1981:2053   */\n      tag_80\n        /* \"#utility.yul\":2049:2051   */\n      0x60\n        /* \"#utility.yul\":2038:2047   */\n      dup4\n        /* \"#utility.yul\":2034:2052   */\n      add\n        /* \"#utility.yul\":2025:2031   */\n      dup5\n        /* \"#utility.yul\":1981:2053   */\n      tag_46\n      jump\t// in\n    tag_80:\n        /* \"#utility.yul\":1507:2060   */\n      swap6\n      swap5\n      pop\n      pop\n      pop\n      pop\n      pop\n      jump\t// out\n        /* \"#utility.yul\":2066:2288   */\n    tag_16:\n        /* \"#utility.yul\":2159:2163   */\n      0x00\n        /* \"#utility.yul\":2197:2199   */\n      0x20\n        /* \"#utility.yul\":2186:2195   */\n      dup3\n        /* \"#utility.yul\":2182:2200   */\n      add\n        /* \"#utility.yul\":2174:2200   */\n      swap1\n      pop\n        /* \"#utility.yul\":2210:2281   */\n      tag_82\n        /* \"#utility.yul\":2278:2279   */\n      0x00\n        /* \"#utility.yul\":2267:2276   */\n      dup4\n        /* \"#utility.yul\":2263:2280   */\n      add\n        /* \"#utility.yul\":2254:2260   */\n      dup5\n        /* \"#utility.yul\":2210:2281   */\n      tag_46\n      jump\t// in\n    tag_82:\n        /* \"#utility.yul\":2066:2288   */\n      swap3\n      swap2\n      pop\n      pop\n      jump\t// out\n        /* \"#utility.yul\":2294:2416   */\n    tag_50:\n        /* \"#utility.yul\":2367:2391   */\n      tag_84\n        /* \"#utility.yul\":2385:2390   */\n      dup2\n        /* \"#utility.yul\":2367:2391   */\n      tag_48\n      jump\t// in\n    tag_84:\n        /* \"#utility.yul\":2360:2365   */\n      dup2\n        /* \"#utility.yul\":2357:2392   */\n      eq\n        /* \"#utility.yul\":2347:2410   */\n      tag_85\n      jumpi\n        /* \"#utility.yul\":2406:2407   */\n      0x00\n        /* \"#utility.yul\":2403:2404   */\n      0x00\n        /* \"#utility.yul\":2396:2408   */\n      revert\n        /* \"#utility.yul\":2347:2410   */\n    tag_85:\n        /* \"#utility.yul\":2294:2416   */\n      pop\n      jump\t// out\n        /* \"#utility.yul\":2422:2561   */\n    tag_51:\n        /* \"#utility.yul\":2468:2473   */\n      0x00\n        /* \"#utility.yul\":2506:2512   */\n      dup2\n        /* \"#utility.yul\":2493:2513   */\n      calldataload\n        /* \"#utility.yul\":2484:2513   */\n      swap1\n      pop\n        /* \"#utility.yul\":2522:2555   */\n      tag_87\n        /* \"#utility.yul\":2549:2554   */\n      dup2\n        /* \"#utility.yul\":2522:2555   */\n      tag_50\n      jump\t// in\n    tag_87:\n        /* \"#utility.yul\":2422:2561   */\n      swap3\n      swap2\n      pop\n      pop\n      jump\t// out\n        /* \"#utility.yul\":2567:3332   */\n    tag_19:\n        /* \"#utility.yul\":2653:2659   */\n      0x00\n        /* \"#utility.yul\":2661:2667   */\n      0x00\n        /* \"#utility.yul\":2669:2675   */\n      0x00\n        /* \"#utility.yul\":2677:2683   */\n      0x00\n        /* \"#utility.yul\":2726:2729   */\n      0x80\n        /* \"#utility.yul\":2714:2723   */\n      dup6\n        /* \"#utility.yul\":2705:2712   */\n      dup8\n        /* \"#utility.yul\":2701:2724   */\n      sub\n        /* \"#utility.yul\":2697:2730   */\n      slt\n        /* \"#utility.yul\":2694:2814   */\n      iszero\n      tag_89\n      jumpi\n        /* \"#utility.yul\":2733:2812   */\n      tag_90\n      tag_41\n      jump\t// in\n    tag_90:\n        /* \"#utility.yul\":2694:2814   */\n    tag_89:\n        /* \"#utility.yul\":2853:2854   */\n      0x00\n        /* \"#utility.yul\":2878:2931   */\n      tag_91\n        /* \"#utility.yul\":2923:2930   */\n      dup8\n        /* \"#utility.yul\":2914:2920   */\n      dup3\n        /* \"#utility.yul\":2903:2912   */\n      dup9\n        /* \"#utility.yul\":2899:2921   */\n      add\n        /* \"#utility.yul\":2878:2931   */\n      tag_45\n      jump\t// in\n    tag_91:\n        /* \"#utility.yul\":2868:2931   */\n      swap5\n      pop\n        /* \"#utility.yul\":2824:2941   */\n      pop\n        /* \"#utility.yul\":2980:2982   */\n      0x20\n        /* \"#utility.yul\":3006:3059   */\n      tag_92\n        /* \"#utility.yul\":3051:3058   */\n      dup8\n        /* \"#utility.yul\":3042:3048   */\n      dup3\n        /* \"#utility.yul\":3031:3040   */\n      dup9\n        /* \"#utility.yul\":3027:3049   */\n      add\n        /* \"#utility.yul\":3006:3059   */\n      tag_51\n      jump\t// in\n    tag_92:\n        /* \"#utility.yul\":2996:3059   */\n      swap4\n      pop\n        /* \"#utility.yul\":2951:3069   */\n      pop\n        /* \"#utility.yul\":3108:3110   */\n      0x40\n        /* \"#utility.yul\":3134:3187   */\n      tag_93\n        /* \"#utility.yul\":3179:3186   */\n      dup8\n        /* \"#utility.yul\":3170:3176   */\n      dup3\n        /* \"#utility.yul\":3159:3168   */\n      dup9\n        /* \"#utility.yul\":3155:3177   */\n      add\n        /* \"#utility.yul\":3134:3187   */\n      tag_51\n      jump\t// in\n    tag_93:\n        /* \"#utility.yul\":3124:3187   */\n      swap3\n      pop\n        /* \"#utility.yul\":3079:3197   */\n      pop\n        /* \"#utility.yul\":3236:3238   */\n      0x60\n        /* \"#utility.yul\":3262:3315   */\n      tag_94\n        /* \"#utility.yul\":3307:3314   */\n      dup8\n        /* \"#utility.yul\":3298:3304   */\n      dup3\n        /* \"#utility.yul\":3287:3296   */\n      dup9\n        /* \"#utility.yul\":3283:3305   */\n      add\n        /* \"#utility.yul\":3262:3315   */\n      tag_45\n      jump\t// in\n    tag_94:\n        /* \"#utility.yul\":3252:3315   */\n      swap2\n      pop\n        /* \"#utility.yul\":3207:3325   */\n      pop\n        /* \"#utility.yul\":2567:3332   */\n      swap3\n      swap6\n      swap2\n      swap5\n      pop\n      swap3\n      pop\n      jump\t// out\n        /* \"#utility.yul\":3338:3446   */\n    tag_52:\n        /* \"#utility.yul\":3415:3439   */\n      tag_96\n        /* \"#utility.yul\":3433:3438   */\n      dup2\n        /* \"#utility.yul\":3415:3439   */\n      tag_43\n      jump\t// in\n    tag_96:\n        /* \"#utility.yul\":3410:3413   */\n      dup3\n        /* \"#utility.yul\":3403:3440   */\n      mstore\n        /* \"#utility.yul\":3338:3446   */\n      pop\n      pop\n      jump\t// out\n        /* \"#utility.yul\":3452:3560   */\n    tag_53:\n        /* \"#utility.yul\":3529:3553   */\n      tag_98\n        /* \"#utility.yul\":3547:3552   */\n      dup2\n        /* \"#utility.yul\":3529:3553   */\n      tag_48\n      jump\t// in\n    tag_98:\n        /* \"#utility.yul\":3524:3527   */\n      dup3\n        /* \"#utility.yul\":3517:3554   */\n      mstore\n        /* \"#utility.yul\":3452:3560   */\n      pop\n      pop\n      jump\t// out\n        /* \"#utility.yul\":3648:4519   */\n    tag_54:\n        /* \"#utility.yul\":3803:3807   */\n      0x80\n        /* \"#utility.yul\":3798:3801   */\n      dup3\n        /* \"#utility.yul\":3794:3808   */\n      add\n        /* \"#utility.yul\":3893:3897   */\n      0x00\n        /* \"#utility.yul\":3886:3891   */\n      dup3\n        /* \"#utility.yul\":3882:3898   */\n      add\n        /* \"#utility.yul\":3876:3899   */\n      mload\n        /* \"#utility.yul\":3912:3975   */\n      tag_100\n        /* \"#utility.yul\":3969:3973   */\n      0x00\n        /* \"#utility.yul\":3964:3967   */\n      dup6\n        /* \"#utility.yul\":3960:3974   */\n      add\n        /* \"#utility.yul\":3946:3958   */\n      dup3\n        /* \"#utility.yul\":3912:3975   */\n      tag_52\n      jump\t// in\n    tag_100:\n        /* \"#utility.yul\":3818:3985   */\n      pop\n        /* \"#utility.yul\":4068:4072   */\n      0x20\n        /* \"#utility.yul\":4061:4066   */\n      dup3\n        /* \"#utility.yul\":4057:4073   */\n      add\n        /* \"#utility.yul\":4051:4074   */\n      mload\n        /* \"#utility.yul\":4087:4150   */\n      tag_101\n        /* \"#utility.yul\":4144:4148   */\n      0x20\n        /* \"#utility.yul\":4139:4142   */\n      dup6\n        /* \"#utility.yul\":4135:4149   */\n      add\n        /* \"#utility.yul\":4121:4133   */\n      dup3\n        /* \"#utility.yul\":4087:4150   */\n      tag_53\n      jump\t// in\n    tag_101:\n        /* \"#utility.yul\":3995:4160   */\n      pop\n        /* \"#utility.yul\":4244:4248   */\n      0x40\n        /* \"#utility.yul\":4237:4242   */\n      dup3\n        /* \"#utility.yul\":4233:4249   */\n      add\n        /* \"#utility.yul\":4227:4250   */\n      mload\n        /* \"#utility.yul\":4263:4326   */\n      tag_102\n        /* \"#utility.yul\":4320:4324   */\n      0x40\n        /* \"#utility.yul\":4315:4318   */\n      dup6\n        /* \"#utility.yul\":4311:4325   */\n      add\n        /* \"#utility.yul\":4297:4309   */\n      dup3\n        /* \"#utility.yul\":4263:4326   */\n      tag_53\n      jump\t// in\n    tag_102:\n        /* \"#utility.yul\":4170:4336   */\n      pop\n        /* \"#utility.yul\":4420:4424   */\n      0x60\n        /* \"#utility.yul\":4413:4418   */\n      dup3\n        /* \"#utility.yul\":4409:4425   */\n      add\n        /* \"#utility.yul\":4403:4426   */\n      mload\n        /* \"#utility.yul\":4439:4502   */\n      tag_103\n        /* \"#utility.yul\":4496:4500   */\n      0x60\n        /* \"#utility.yul\":4491:4494   */\n      dup6\n        /* \"#utility.yul\":4487:4501   */\n      add\n        /* \"#utility.yul\":4473:4485   */\n      dup3\n        /* \"#utility.yul\":4439:4502   */\n      tag_52\n      jump\t// in\n    tag_103:\n        /* \"#utility.yul\":4346:4512   */\n      pop\n        /* \"#utility.yul\":3772:4519   */\n      pop\n        /* \"#utility.yul\":3648:4519   */\n      pop\n      pop\n      jump\t// out\n        /* \"#utility.yul\":4525:4864   */\n    tag_25:\n        /* \"#utility.yul\":4676:4680   */\n      0x00\n        /* \"#utility.yul\":4714:4717   */\n      0x80\n        /* \"#utility.yul\":4703:4712   */\n      dup3\n        /* \"#utility.yul\":4699:4718   */\n      add\n        /* \"#utility.yul\":4691:4718   */\n      swap1\n      pop\n        /* \"#utility.yul\":4728:4857   */\n      tag_105\n        /* \"#utility.yul\":4854:4855   */\n      0x00\n        /* \"#utility.yul\":4843:4852   */\n      dup4\n        /* \"#utility.yul\":4839:4856   */\n      add\n        /* \"#utility.yul\":4830:4836   */\n      dup5\n        /* \"#utility.yul\":4728:4857   */\n      tag_54\n      jump\t// in\n    tag_105:\n        /* \"#utility.yul\":4525:4864   */\n      swap3\n      swap2\n      pop\n      pop\n      jump\t// out\n        /* \"#utility.yul\":4870:5312   */\n    tag_32:\n        /* \"#utility.yul\":5019:5023   */\n      0x00\n        /* \"#utility.yul\":5057:5059   */\n      0x60\n        /* \"#utility.yul\":5046:5055   */\n      dup3\n        /* \"#utility.yul\":5042:5060   */\n      add\n        /* \"#utility.yul\":5034:5060   */\n      swap1\n      pop\n        /* \"#utility.yul\":5070:5141   */\n      tag_107\n        /* \"#utility.yul\":5138:5139   */\n      0x00\n        /* \"#utility.yul\":5127:5136   */\n      dup4\n        /* \"#utility.yul\":5123:5140   */\n      add\n        /* \"#utility.yul\":5114:5120   */\n      dup7\n        /* \"#utility.yul\":5070:5141   */\n      tag_49\n      jump\t// in\n    tag_107:\n        /* \"#utility.yul\":5151:5223   */\n      tag_108\n        /* \"#utility.yul\":5219:5221   */\n      0x20\n        /* \"#utility.yul\":5208:5217   */\n      dup4\n        /* \"#utility.yul\":5204:5222   */\n      add\n        /* \"#utility.yul\":5195:5201   */\n      dup6\n        /* \"#utility.yul\":5151:5223   */\n      tag_49\n      jump\t// in\n    tag_108:\n        /* \"#utility.yul\":5233:5305   */\n      tag_109\n        /* \"#utility.yul\":5301:5303   */\n      0x40\n        /* \"#utility.yul\":5290:5299   */\n      dup4\n        /* \"#utility.yul\":5286:5304   */\n      add\n        /* \"#utility.yul\":5277:5283   */\n      dup5\n        /* \"#utility.yul\":5233:5305   */\n      tag_46\n      jump\t// in\n    tag_109:\n        /* \"#utility.yul\":4870:5312   */\n      swap5\n      swap4\n      pop\n      pop\n      pop\n      pop\n      jump\t// out\n        /* \"#utility.yul\":5318:5498   */\n    tag_38:\n        /* \"#utility.yul\":5366:5443   */\n      0x4e487b7100000000000000000000000000000000000000000000000000000000\n        /* \"#utility.yul\":5363:5364   */\n      0x00\n        /* \"#utility.yul\":5356:5444   */\n      mstore\n        /* \"#utility.yul\":5463:5467   */\n      0x32\n        /* \"#utility.yul\":5460:5461   */\n      0x04\n        /* \"#utility.yul\":5453:5468   */\n      mstore\n        /* \"#utility.yul\":5487:5491   */\n      0x24\n        /* \"#utility.yul\":5484:5485   */\n      0x00\n        /* \"#utility.yul\":5477:5492   */\n      revert\n\n    auxdata: 0xa2646970667358221220d6d0a2087b4fa64eaa72f6ed0800efed070bf2a064033014afc8bfb8062505a464736f6c634300081f0033\n}\n",
				"bytecode": {
					"linkReferences": {},
					"object": "6080604052348015600e575f5ffd5b506106c68061001c5f395ff3fe608060405234801561000f575f5ffd5b506004361061004a575f3560e01c8063564a565d1461004e578063a28889e114610081578063a4adcdd01461009f578063e3a96cbd146100bb575b5f5ffd5b61006860048036038101906100639190610441565b6100eb565b60405161007894939291906104ba565b60405180910390f35b610089610163565b60405161009691906104fd565b60405180910390f35b6100b960048036038101906100b49190610540565b61016e565b005b6100d560048036038101906100d09190610441565b6102c4565b6040516100e29190610615565b60405180910390f35b5f81815481106100f9575f80fd5b905f5260205f2090600402015f91509050805f015490806001015f9054906101000a900473ffffffffffffffffffffffffffffffffffffffff1690806002015f9054906101000a900473ffffffffffffffffffffffffffffffffffffffff16908060030154905084565b5f5f80549050905090565b5f60405180608001604052808681526020018573ffffffffffffffffffffffffffffffffffffffff1681526020018473ffffffffffffffffffffffffffffffffffffffff16815260200183815250908060018154018082558091505060019003905f5260205f2090600402015f909190919091505f820151815f01556020820151816001015f6101000a81548173ffffffffffffffffffffffffffffffffffffffff021916908373ffffffffffffffffffffffffffffffffffffffff1602179055506040820151816002015f6101000a81548173ffffffffffffffffffffffffffffffffffffffff021916908373ffffffffffffffffffffffffffffffffffffffff160217905550606082015181600301555050837f7e94fb614cc4ed5916a25a22168ffaadfa006821b90b2e586d91ca30c3f32adb8484846040516102b69392919061062e565b60405180910390a250505050565b6102cc6103ba565b5f82815481106102df576102de610663565b5b905f5260205f2090600402016040518060800160405290815f8201548152602001600182015f9054906101000a900473ffffffffffffffffffffffffffffffffffffffff1673ffffffffffffffffffffffffffffffffffffffff1673ffffffffffffffffffffffffffffffffffffffff168152602001600282015f9054906101000a900473ffffffffffffffffffffffffffffffffffffffff1673ffffffffffffffffffffffffffffffffffffffff1673ffffffffffffffffffffffffffffffffffffffff1681526020016003820154815250509050919050565b60405180608001604052805f81526020015f73ffffffffffffffffffffffffffffffffffffffff1681526020015f73ffffffffffffffffffffffffffffffffffffffff1681526020015f81525090565b5f5ffd5b5f819050919050565b6104208161040e565b811461042a575f5ffd5b50565b5f8135905061043b81610417565b92915050565b5f602082840312156104565761045561040a565b5b5f6104638482850161042d565b91505092915050565b6104758161040e565b82525050565b5f73ffffffffffffffffffffffffffffffffffffffff82169050919050565b5f6104a48261047b565b9050919050565b6104b48161049a565b82525050565b5f6080820190506104cd5f83018761046c565b6104da60208301866104ab565b6104e760408301856104ab565b6104f4606083018461046c565b95945050505050565b5f6020820190506105105f83018461046c565b92915050565b61051f8161049a565b8114610529575f5ffd5b50565b5f8135905061053a81610516565b92915050565b5f5f5f5f608085870312156105585761055761040a565b5b5f6105658782880161042d565b94505060206105768782880161052c565b93505060406105878782880161052c565b92505060606105988782880161042d565b91505092959194509250565b6105ad8161040e565b82525050565b6105bc8161049a565b82525050565b608082015f8201516105d65f8501826105a4565b5060208201516105e960208501826105b3565b5060408201516105fc60408501826105b3565b50606082015161060f60608501826105a4565b50505050565b5f6080820190506106285f8301846105c2565b92915050565b5f6060820190506106415f8301866104ab565b61064e60208301856104ab565b61065b604083018461046c565b949350505050565b7f4e487b71000000000000000000000000000000000000000000000000000000005f52603260045260245ffdfea2646970667358221220d6d0a2087b4fa64eaa72f6ed0800efed070bf2a064033014afc8bfb8062505a464736f6c634300081f0033",
					"opcodes": "PUSH1 0x80 PUSH1 0x40 MSTORE CALLVALUE DUP1 ISZERO PUSH1 0xE JUMPI PUSH0 PUSH0 REVERT JUMPDEST POP PUSH2 0x6C6 DUP1 PUSH2 0x1C PUSH0 CODECOPY PUSH0 RETURN INVALID PUSH1 0x80 PUSH1 0x40 MSTORE CALLVALUE DUP1 ISZERO PUSH2 0xF JUMPI PUSH0 PUSH0 REVERT JUMPDEST POP PUSH1 0x4 CALLDATASIZE LT PUSH2 0x4A JUMPI PUSH0 CALLDATALOAD PUSH1 0xE0 SHR DUP1 PUSH4 0x564A565D EQ PUSH2 0x4E JUMPI DUP1 PUSH4 0xA28889E1 EQ PUSH2 0x81 JUMPI DUP1 PUSH4 0xA4ADCDD0 EQ PUSH2 0x9F JUMPI DUP1 PUSH4 0xE3A96CBD EQ PUSH2 0xBB JUMPI JUMPDEST PUSH0 PUSH0 REVERT JUMPDEST PUSH2 0x68 PUSH1 0x4 DUP1 CALLDATASIZE SUB DUP2 ADD SWAP1 PUSH2 0x63 SWAP2 SWAP1 PUSH2 0x441 JUMP JUMPDEST PUSH2 0xEB JUMP JUMPDEST PUSH1 0x40 MLOAD PUSH2 0x78 SWAP5 SWAP4 SWAP3 SWAP2 SWAP1 PUSH2 0x4BA JUMP JUMPDEST PUSH1 0x40 MLOAD DUP1 SWAP2 SUB SWAP1 RETURN JUMPDEST PUSH2 0x89 PUSH2 0x163 JUMP JUMPDEST PUSH1 0x40 MLOAD PUSH2 0x96 SWAP2 SWAP1 PUSH2 0x4FD JUMP JUMPDEST PUSH1 0x40 MLOAD DUP1 SWAP2 SUB SWAP1 RETURN JUMPDEST PUSH2 0xB9 PUSH1 0x4 DUP1 CALLDATASIZE SUB DUP2 ADD SWAP1 PUSH2 0xB4 SWAP2 SWAP1 PUSH2 0x540 JUMP JUMPDEST PUSH2 0x16E JUMP JUMPDEST STOP JUMPDEST PUSH2 0xD5 PUSH1 0x4 DUP1 CALLDATASIZE SUB DUP2 ADD SWAP1 PUSH2 0xD0 SWAP2 SWAP1 PUSH2 0x441 JUMP JUMPDEST PUSH2 0x2C4 JUMP JUMPDEST PUSH1 0x40 MLOAD PUSH2 0xE2 SWAP2 SWAP1 PUSH2 0x615 JUMP JUMPDEST PUSH1 0x40 MLOAD DUP1 SWAP2 SUB SWAP1 RETURN JUMPDEST PUSH0 DUP2 DUP2 SLOAD DUP2 LT PUSH2 0xF9 JUMPI PUSH0 DUP1 REVERT JUMPDEST SWAP1 PUSH0 MSTORE PUSH1 0x20 PUSH0 KECCAK256 SWAP1 PUSH1 0x4 MUL ADD PUSH0 SWAP2 POP SWAP1 POP DUP1 PUSH0 ADD SLOAD SWAP1 DUP1 PUSH1 0x1 ADD PUSH0 SWAP1 SLOAD SWAP1 PUSH2 0x100 EXP SWAP1 DIV PUSH20 0xFFFFFFFFFFFFFFFFFFFFFFFFFFFFFFFFFFFFFFFF AND SWAP1 DUP1 PUSH1 0x2 ADD PUSH0 SWAP1 SLOAD SWAP1 PUSH2 0x100 EXP SWAP1 DIV PUSH20 0xFFFFFFFFFFFFFFFFFFFFFFFFFFFFFFFFFFFFFFFF AND SWAP1 DUP1 PUSH1 0x3 ADD SLOAD SWAP1 POP DUP5 JUMP JUMPDEST PUSH0 PUSH0 DUP1 SLOAD SWAP1 POP SWAP1 POP SWAP1 JUMP JUMPDEST PUSH0 PUSH1 0x40 MLOAD DUP1 PUSH1 0x80 ADD PUSH1 0x40 MSTORE DUP1 DUP7 DUP2 MSTORE PUSH1 0x20 ADD DUP6 PUSH20 0xFFFFFFFFFFFFFFFFFFFFFFFFFFFFFFFFFFFFFFFF AND DUP2 MSTORE PUSH1 0x20 ADD DUP5 PUSH20 0xFFFFFFFFFFFFFFFFFFFFFFFFFFFFFFFFFFFFFFFF AND DUP2 MSTORE PUSH1 0x20 ADD DUP4 DUP2 MSTORE POP SWAP1 DUP1 PUSH1 0x1 DUP2 SLOAD ADD DUP1 DUP3 SSTORE DUP1 SWAP2 POP POP PUSH1 0x1 SWAP1 SUB SWAP1 PUSH0 MSTORE PUSH1 0x20 PUSH0 KECCAK256 SWAP1 PUSH1 0x4 MUL ADD PUSH0 SWAP1 SWAP2 SWAP1 SWAP2 SWAP1 SWAP2 POP PUSH0 DUP3 ADD MLOAD DUP2 PUSH0 ADD SSTORE PUSH1 0x20 DUP3 ADD MLOAD DUP2 PUSH1 0x1 ADD PUSH0 PUSH2 0x100 EXP DUP2 SLOAD DUP2 PUSH20 0xFFFFFFFFFFFFFFFFFFFFFFFFFFFFFFFFFFFFFFFF MUL NOT AND SWAP1 DUP4 PUSH20 0xFFFFFFFFFFFFFFFFFFFFFFFFFFFFFFFFFFFFFFFF AND MUL OR SWAP1 SSTORE POP PUSH1 0x40 DUP3 ADD MLOAD DUP2 PUSH1 0x2 ADD PUSH0 PUSH2 0x100 EXP DUP2 SLOAD DUP2 PUSH20 0xFFFFFFFFFFFFFFFFFFFFFFFFFFFFFFFFFFFFFFFF MUL NOT AND SWAP1 DUP4 PUSH20 0xFFFFFFFFFFFFFFFFFFFFFFFFFFFFFFFFFFFFFFFF AND MUL OR SWAP1 SSTORE POP PUSH1 0x60 DUP3 ADD MLOAD DUP2 PUSH1 0x3 ADD SSTORE POP POP DUP4 PUSH32 0x7E94FB614CC4ED5916A25A22168FFAADFA006821B90B2E586D91CA30C3F32ADB DUP5 DUP5 DUP5 PUSH1 0x40 MLOAD PUSH2 0x2B6 SWAP4 SWAP3 SWAP2 SWAP1 PUSH2 0x62E JUMP JUMPDEST PUSH1 0x40 MLOAD DUP1 SWAP2 SUB SWAP1 LOG2 POP POP POP POP JUMP JUMPDEST PUSH2 0x2CC PUSH2 0x3BA JUMP JUMPDEST PUSH0 DUP3 DUP2 SLOAD DUP2 LT PUSH2 0x2DF JUMPI PUSH2 0x2DE PUSH2 0x663 JUMP JUMPDEST JUMPDEST SWAP1 PUSH0 MSTORE PUSH1 0x20 PUSH0 KECCAK256 SWAP1 PUSH1 0x4 MUL ADD PUSH1 0x40 MLOAD DUP1 PUSH1 0x80 ADD PUSH1 0x40 MSTORE SWAP1 DUP2 PUSH0 DUP3 ADD SLOAD DUP2 MSTORE PUSH1 0x20 ADD PUSH1 0x1 DUP3 ADD PUSH0 SWAP1 SLOAD SWAP1 PUSH2 0x100 EXP SWAP1 DIV PUSH20 0xFFFFFFFFFFFFFFFFFFFFFFFFFFFFFFFFFFFFFFFF AND PUSH20 0xFFFFFFFFFFFFFFFFFFFFFFFFFFFFFFFFFFFFFFFF AND PUSH20 0xFFFFFFFFFFFFFFFFFFFFFFFFFFFFFFFFFFFFFFFF AND DUP2 MSTORE PUSH1 0x20 ADD PUSH1 0x2 DUP3 ADD PUSH0 SWAP1 SLOAD SWAP1 PUSH2 0x100 EXP SWAP1 DIV PUSH20 0xFFFFFFFFFFFFFFFFFFFFFFFFFFFFFFFFFFFFFFFF AND PUSH20 0xFFFFFFFFFFFFFFFFFFFFFFFFFFFFFFFFFFFFFFFF AND PUSH20 0xFFFFFFFFFFFFFFFFFFFFFFFFFFFFFFFFFFFFFFFF AND DUP2 MSTORE PUSH1 0x20 ADD PUSH1 0x3 DUP3 ADD SLOAD DUP2 MSTORE POP POP SWAP1 POP SWAP2 SWAP1 POP JUMP JUMPDEST PUSH1 0x40 MLOAD DUP1 PUSH1 0x80 ADD PUSH1 0x40 MSTORE DUP1 PUSH0 DUP2 MSTORE PUSH1 0x20 ADD PUSH0 PUSH20 0xFFFFFFFFFFFFFFFFFFFFFFFFFFFFFFFFFFFFFFFF AND DUP2 MSTORE PUSH1 0x20 ADD PUSH0 PUSH20 0xFFFFFFFFFFFFFFFFFFFFFFFFFFFFFFFFFFFFFFFF AND DUP2 MSTORE PUSH1 0x20 ADD PUSH0 DUP2 MSTORE POP SWAP1 JUMP JUMPDEST PUSH0 PUSH0 REVERT JUMPDEST PUSH0 DUP2 SWAP1 POP SWAP2 SWAP1 POP JUMP JUMPDEST PUSH2 0x420 DUP2 PUSH2 0x40E JUMP JUMPDEST DUP2 EQ PUSH2 0x42A JUMPI PUSH0 PUSH0 REVERT JUMPDEST POP JUMP JUMPDEST PUSH0 DUP2 CALLDATALOAD SWAP1 POP PUSH2 0x43B DUP2 PUSH2 0x417 JUMP JUMPDEST SWAP3 SWAP2 POP POP JUMP JUMPDEST PUSH0 PUSH1 0x20 DUP3 DUP5 SUB SLT ISZERO PUSH2 0x456 JUMPI PUSH2 0x455 PUSH2 0x40A JUMP JUMPDEST JUMPDEST PUSH0 PUSH2 0x463 DUP5 DUP3 DUP6 ADD PUSH2 0x42D JUMP JUMPDEST SWAP2 POP POP SWAP3 SWAP2 POP POP JUMP JUMPDEST PUSH2 0x475 DUP2 PUSH2 0x40E JUMP JUMPDEST DUP3 MSTORE POP POP JUMP JUMPDEST PUSH0 PUSH20 0xFFFFFFFFFFFFFFFFFFFFFFFFFFFFFFFFFFFFFFFF DUP3 AND SWAP1 POP SWAP2 SWAP1 POP JUMP JUMPDEST PUSH0 PUSH2 0x4A4 DUP3 PUSH2 0x47B JUMP JUMPDEST SWAP1 POP SWAP2 SWAP1 POP JUMP JUMPDEST PUSH2 0x4B4 DUP2 PUSH2 0x49A JUMP JUMPDEST DUP3 MSTORE POP POP JUMP JUMPDEST PUSH0 PUSH1 0x80 DUP3 ADD SWAP1 POP PUSH2 0x4CD PUSH0 DUP4 ADD DUP8 PUSH2 0x46C JUMP JUMPDEST PUSH2 0x4DA PUSH1 0x20 DUP4 ADD DUP7 PUSH2 0x4AB JUMP JUMPDEST PUSH2 0x4E7 PUSH1 0x40 DUP4 ADD DUP6 PUSH2 0x4AB JUMP JUMPDEST PUSH2 0x4F4 PUSH1 0x60 DUP4 ADD DUP5 PUSH2 0x46C JUMP JUMPDEST SWAP6 SWAP5 POP POP POP POP POP JUMP JUMPDEST PUSH0 PUSH1 0x20 DUP3 ADD SWAP1 POP PUSH2 0x510 PUSH0 DUP4 ADD DUP5 PUSH2 0x46C JUMP JUMPDEST SWAP3 SWAP2 POP POP JUMP JUMPDEST PUSH2 0x51F DUP2 PUSH2 0x49A JUMP JUMPDEST DUP2 EQ PUSH2 0x529 JUMPI PUSH0 PUSH0 REVERT JUMPDEST POP JUMP JUMPDEST PUSH0 DUP2 CALLDATALOAD SWAP1 POP PUSH2 0x53A DUP2 PUSH2 0x516 JUMP JUMPDEST SWAP3 SWAP2 POP POP JUMP JUMPDEST PUSH0 PUSH0 PUSH0 PUSH0 PUSH1 0x80 DUP6 DUP8 SUB SLT ISZERO PUSH2 0x558 JUMPI PUSH2 0x557 PUSH2 0x40A JUMP JUMPDEST JUMPDEST PUSH0 PUSH2 0x565 DUP8 DUP3 DUP9 ADD PUSH2 0x42D JUMP JUMPDEST SWAP5 POP POP PUSH1 0x20 PUSH2 0x576 DUP8 DUP3 DUP9 ADD PUSH2 0x52C JUMP JUMPDEST SWAP4 POP POP PUSH1 0x40 PUSH2 0x587 DUP8 DUP3 DUP9 ADD PUSH2 0x52C JUMP JUMPDEST SWAP3 POP POP PUSH1 0x60 PUSH2 0x598 DUP8 DUP3 DUP9 ADD PUSH2 0x42D JUMP JUMPDEST SWAP2 POP POP SWAP3 SWAP6 SWAP2 SWAP5 POP SWAP3 POP JUMP JUMPDEST PUSH2 0x5AD DUP2 PUSH2 0x40E JUMP JUMPDEST DUP3 MSTORE POP POP JUMP JUMPDEST PUSH2 0x5BC DUP2 PUSH2 0x49A JUMP JUMPDEST DUP3 MSTORE POP POP JUMP JUMPDEST PUSH1 0x80 DUP3 ADD PUSH0 DUP3 ADD MLOAD PUSH2 0x5D6 PUSH0 DUP6 ADD DUP3 PUSH2 0x5A4 JUMP JUMPDEST POP PUSH1 0x20 DUP3 ADD MLOAD PUSH2 0x5E9 PUSH1 0x20 DUP6 ADD DUP3 PUSH2 0x5B3 JUMP JUMPDEST POP PUSH1 0x40 DUP3 ADD MLOAD PUSH2 0x5FC PUSH1 0x40 DUP6 ADD DUP3 PUSH2 0x5B3 JUMP JUMPDEST POP PUSH1 0x60 DUP3 ADD MLOAD PUSH2 0x60F PUSH1 0x60 DUP6 ADD DUP3 PUSH2 0x5A4 JUMP JUMPDEST POP POP POP POP JUMP JUMPDEST PUSH0 PUSH1 0x80 DUP3 ADD SWAP1 POP PUSH2 0x628 PUSH0 DUP4 ADD DUP5 PUSH2 0x5C2 JUMP JUMPDEST SWAP3 SWAP2 POP POP JUMP JUMPDEST PUSH0 PUSH1 0x60 DUP3 ADD SWAP1 POP PUSH2 0x641 PUSH0 DUP4 ADD DUP7 PUSH2 0x4AB JUMP JUMPDEST PUSH2 0x64E PUSH1 0x20 DUP4 ADD DUP6 PUSH2 0x4AB JUMP JUMPDEST PUSH2 0x65B PUSH1 0x40 DUP4 ADD DUP5 PUSH2 0x46C JUMP JUMPDEST SWAP5 SWAP4 POP POP POP POP JUMP JUMPDEST PUSH32 0x4E487B7100000000000000000000000000000000000000000000000000000000 PUSH0 MSTORE PUSH1 0x32 PUSH1 0x4 MSTORE PUSH1 0x24 PUSH0 REVERT INVALID LOG2 PUSH5 0x6970667358 0x22 SLT KECCAK256 0xD6 0xD0 LOG2 ADDMOD PUSH28 0x4FA64EAA72F6ED0800EFED070BF2A064033014AFC8BFB8062505A464 PUSH20 0x6F6C634300081F00330000000000000000000000 "
				},
				"gasEstimates": {
					"creation": {
						"codeDepositCost": "346800",
						"executionCost": "384",
						"totalCost": "347184"
					},
					"external": {
						"disputeCount()": "2439",
						"disputes(uint256)": "infinite",
						"getDispute(uint256)": "infinite",
						"notifyDispute(uint256,address,address,uint256)": "infinite"
					}
				},
				"methodIdentifiers": {
					"disputeCount()": "a28889e1",
					"disputes(uint256)": "564a565d",
					"getDispute(uint256)": "e3a96cbd",
					"notifyDispute(uint256,address,address,uint256)": "a4adcdd0"
				}
			},
			"storageLayout": {
				"storage": [
					{
						"astId": 31,
						"contract": "new/MarketplaceEscrow_test/MockArbitrator.sol:MockArbitrator",
						"label": "disputes",
						"offset": 0,
						"slot": "0",
						"type": "t_array(t_struct(DisputeRecord)27_storage)dyn_storage"
					}
				],
				"types": {
					"t_address": {
						"encoding": "inplace",
						"label": "address",
						"numberOfBytes": "20"
					},
					"t_array(t_struct(DisputeRecord)27_storage)dyn_storage": {
						"base": "t_struct(DisputeRecord)27_storage",
						"encoding": "dynamic_array",
						"label": "struct MockArbitrator.DisputeRecord[]",
						"numberOfBytes": "32"
					},
					"t_struct(DisputeRecord)27_storage": {
						"encoding": "inplace",
						"label": "struct MockArbitrator.DisputeRecord",
						"members": [
							{
								"astId": 20,
								"contract": "new/MarketplaceEscrow_test/MockArbitrator.sol:MockArbitrator",
								"label": "orderId",
								"offset": 0,
								"slot": "0",
								"type": "t_uint256"
							},
							{
								"astId": 22,
								"contract": "new/MarketplaceEscrow_test/MockArbitrator.sol:MockArbitrator",
								"label": "buyer",
								"offset": 0,
								"slot": "1",
								"type": "t_address"
							},
							{
								"astId": 24,
								"contract": "new/MarketplaceEscrow_test/MockArbitrator.sol:MockArbitrator",
								"label": "seller",
								"offset": 0,
								"slot": "2",
								"type": "t_address"
							},
							{
								"astId": 26,
								"contract": "new/MarketplaceEscrow_test/MockArbitrator.sol:MockArbitrator",
								"label": "amount",
								"offset": 0,
								"slot": "3",
								"type": "t_uint256"
							}
						],
						"numberOfBytes": "128"
					},
					"t_uint256": {
						"encoding": "inplace",
						"label": "uint256",
						"numberOfBytes": "32"
					}
				}
			},
			"userdoc": {
				"kind": "user",
				"methods": {},
				"version": 1
			}
		}
	}
}