{
	"Sol_by_Example/Basics/Assembly/02.AssemblyConditional.sol": {
		"AssemblyIf": {
			"abi": [
				{
					"inputs": [
						{
							"internalType": "uint256",
							"name": "x",
							"type": "uint256"
						}
					],
					"name": "yul_if",
					"outputs": [
						{
							"internalType": "uint256",
							"name": "z",
							"type": "uint256"
						}
					],
					"stateMutability": "pure",
					"type": "function"
				},
				{
					"inputs": [
						{
							"internalType": "uint256",
							"name": "x",
							"type": "uint256"
						}
					],
					"name": "yul_switch",
					"outputs": [
						{
							"internalType": "uint256",
							"name": "z",
							"type": "uint256"
						}
					],
					"stateMutability": "pure",
					"type": "function"
				}
			],
			"devdoc": {
				"kind": "dev",
				"methods": {},
				"version": 1
			},
			"evm": {
				"assembly": "    /* \"Sol_by_Example/Basics/Assembly/02.AssemblyConditional.sol\":58:565  contract AssemblyIf {... */\n  mstore(0x40, 0x80)\n  callvalue\n  dup1\n  iszero\n  tag_1\n  jumpi\n  revert(0x00, 0x00)\ntag_1:\n  pop\n  dataSize(sub_0)\n  dup1\n  dataOffset(sub_0)\n  0x00\n  codecopy\n  0x00\n  return\nstop\n\nsub_0: assembly {\n        /* \"Sol_by_Example/Basics/Assembly/02.AssemblyConditional.sol\":58:565  contract AssemblyIf {... */\n      mstore(0x40, 0x80)\n      callvalue\n      dup1\n      iszero\n      tag_1\n      jumpi\n      revert(0x00, 0x00)\n    tag_1:\n      pop\n      jumpi(tag_2, lt(calldatasize, 0x04))\n      shr(0xe0, calldataload(0x00))\n      dup1\n      0xa917238b\n      eq\n      tag_3\n      jumpi\n      dup1\n      0xf42a728d\n      eq\n      tag_4\n      jumpi\n    tag_2:\n      revert(0x00, 0x00)\n        /* \"Sol_by_Example/Basics/Assembly/02.AssemblyConditional.sol\":350:563  function yul_switch(uint256 x) public pure returns (uint256 z) {... */\n    tag_3:\n      tag_5\n      0x04\n      dup1\n      calldatasize\n      sub\n      dup2\n      add\n      swap1\n      tag_6\n      swap2\n      swap1\n      tag_7\n      jump\t// in\n    tag_6:\n      tag_8\n      jump\t// in\n    tag_5:\n      mload(0x40)\n      tag_9\n      swap2\n      swap1\n      tag_10\n      jump\t// in\n    tag_9:\n      mload(0x40)\n      dup1\n      swap2\n      sub\n      swap1\n      return\n        /* \"Sol_by_Example/Basics/Assembly/02.AssemblyConditional.sol\":84:344  function yul_if(uint256 x) public pure returns (uint256 z) {... */\n    tag_4:\n      tag_11\n      0x04\n      dup1\n      calldatasize\n      sub\n      dup2\n      add\n      swap1\n      tag_12\n      swap2\n      swap1\n      tag_7\n      jump\t// in\n    tag_12:\n      tag_13\n      jump\t// in\n    tag_11:\n      mload(0x40)\n      tag_14\n      swap2\n      swap1\n      tag_10\n      jump\t// in\n    tag_14:\n      mload(0x40)\n      dup1\n      swap2\n      sub\n      swap1\n      return\n        /* \"Sol_by_Example/Basics/Assembly/02.AssemblyConditional.sol\":350:563  function yul_switch(uint256 x) public pure returns (uint256 z) {... */\n    tag_8:\n        /* \"Sol_by_Example/Basics/Assembly/02.AssemblyConditional.sol\":402:411  uint256 z */\n      0x00\n        /* \"Sol_by_Example/Basics/Assembly/02.AssemblyConditional.sol\":453:454  x */\n      dup2\n        /* \"Sol_by_Example/Basics/Assembly/02.AssemblyConditional.sol\":472:473  1 */\n      0x01\n        /* \"Sol_by_Example/Basics/Assembly/02.AssemblyConditional.sol\":467:485  case 1 { z := 10 } */\n      dup2\n      eq\n      tag_17\n      jumpi\n        /* \"Sol_by_Example/Basics/Assembly/02.AssemblyConditional.sol\":503:504  2 */\n      0x02\n        /* \"Sol_by_Example/Basics/Assembly/02.AssemblyConditional.sol\":498:516  case 2 { z := 20 } */\n      dup2\n      eq\n      tag_18\n      jumpi\n        /* \"Sol_by_Example/Basics/Assembly/02.AssemblyConditional.sol\":544:545  0 */\n      0x00\n        /* \"Sol_by_Example/Basics/Assembly/02.AssemblyConditional.sol\":539:545  z := 0 */\n      swap2\n      pop\n        /* \"Sol_by_Example/Basics/Assembly/02.AssemblyConditional.sol\":446:547  switch x... */\n      jump(tag_16)\n        /* \"Sol_by_Example/Basics/Assembly/02.AssemblyConditional.sol\":467:485  case 1 { z := 10 } */\n    tag_17:\n        /* \"Sol_by_Example/Basics/Assembly/02.AssemblyConditional.sol\":481:483  10 */\n      0x0a\n        /* \"Sol_by_Example/Basics/Assembly/02.AssemblyConditional.sol\":476:483  z := 10 */\n      swap2\n      pop\n        /* \"Sol_by_Example/Basics/Assembly/02.AssemblyConditional.sol\":467:485  case 1 { z := 10 } */\n      jump(tag_16)\n        /* \"Sol_by_Example/Basics/Assembly/02.AssemblyConditional.sol\":498:516  case 2 { z := 20 } */\n    tag_18:\n        /* \"Sol_by_Example/Basics/Assembly/02.AssemblyConditional.sol\":512:514  20 */\n      0x14\n        /* \"Sol_by_Example/Basics/Assembly/02.AssemblyConditional.sol\":507:514  z := 20 */\n      swap2\n      pop\n        /* \"Sol_by_Example/Basics/Assembly/02.AssemblyConditional.sol\":446:547  switch x... */\n    tag_16:\n      pop\n        /* \"Sol_by_Example/Basics/Assembly/02.AssemblyConditional.sol\":350:563  function yul_switch(uint256 x) public pure returns (uint256 z) {... */\n      swap2\n      swap1\n      pop\n      jump\t// out\n        /* \"Sol_by_Example/Basics/Assembly/02.AssemblyConditional.sol\":84:344  function yul_if(uint256 x) public pure returns (uint256 z) {... */\n    tag_13:\n        /* \"Sol_by_Example/Basics/Assembly/02.AssemblyConditional.sol\":132:141  uint256 z */\n      0x00\n        /* \"Sol_by_Example/Basics/Assembly/02.AssemblyConditional.sol\":313:315  10 */\n      0x0a\n        /* \"Sol_by_Example/Basics/Assembly/02.AssemblyConditional.sol\":310:311  x */\n      dup3\n        /* \"Sol_by_Example/Basics/Assembly/02.AssemblyConditional.sol\":307:316  lt(x, 10) */\n      lt\n        /* \"Sol_by_Example/Basics/Assembly/02.AssemblyConditional.sol\":304:328  if lt(x, 10) { z := 99 } */\n      iszero\n      tag_20\n      jumpi\n        /* \"Sol_by_Example/Basics/Assembly/02.AssemblyConditional.sol\":324:326  99 */\n      0x63\n        /* \"Sol_by_Example/Basics/Assembly/02.AssemblyConditional.sol\":319:326  z := 99 */\n      swap1\n      pop\n        /* \"Sol_by_Example/Basics/Assembly/02.AssemblyConditional.sol\":304:328  if lt(x, 10) { z := 99 } */\n    tag_20:\n        /* \"Sol_by_Example/Basics/Assembly/02.AssemblyConditional.sol\":84:344  function yul_if(uint256 x) public pure returns (uint256 z) {... */\n      swap2\n      swap1\n      pop\n      jump\t// out\n        /* \"#utility.yul\":88:205   */\n    tag_22:\n        /* \"#utility.yul\":197:198   */\n      0x00\n        /* \"#utility.yul\":194:195   */\n      0x00\n        /* \"#utility.yul\":187:199   */\n      revert\n        /* \"#utility.yul\":334:411   */\n    tag_24:\n        /* \"#utility.yul\":371:378   */\n      0x00\n        /* \"#utility.yul\":400:405   */\n      dup2\n        /* \"#utility.yul\":389:405   */\n      swap1\n      pop\n        /* \"#utility.yul\":334:411   */\n      swap2\n      swap1\n      pop\n      jump\t// out\n        /* \"#utility.yul\":417:539   */\n    tag_25:\n        /* \"#utility.yul\":490:514   */\n      tag_34\n        /* \"#utility.yul\":508:513   */\n      dup2\n        /* \"#utility.yul\":490:514   */\n      tag_24\n      jump\t// in\n    tag_34:\n        /* \"#utility.yul\":483:488   */\n      dup2\n        /* \"#utility.yul\":480:515   */\n      eq\n        /* \"#utility.yul\":470:533   */\n      tag_35\n      jumpi\n        /* \"#utility.yul\":529:530   */\n      0x00\n        /* \"#utility.yul\":526:527   */\n      0x00\n        /* \"#utility.yul\":519:531   */\n      revert\n        /* \"#utility.yul\":470:533   */\n    tag_35:\n        /* \"#utility.yul\":417:539   */\n      pop\n      jump\t// out\n        /* \"#utility.yul\":545:684   */\n    tag_26:\n        /* \"#utility.yul\":591:596   */\n      0x00\n        /* \"#utility.yul\":629:635   */\n      dup2\n        /* \"#utility.yul\":616:636   */\n      calldataload\n        /* \"#utility.yul\":607:636   */\n      swap1\n      pop\n        /* \"#utility.yul\":645:678   */\n      tag_37\n        /* \"#utility.yul\":672:677   */\n      dup2\n        /* \"#utility.yul\":645:678   */\n      tag_25\n      jump\t// in\n    tag_37:\n        /* \"#utility.yul\":545:684   */\n      swap3\n      swap2\n      pop\n      pop\n      jump\t// out\n        /* \"#utility.yul\":690:1019   */\n    tag_7:\n        /* \"#utility.yul\":749:755   */\n      0x00\n        /* \"#utility.yul\":798:800   */\n      0x20\n        /* \"#utility.yul\":786:795   */\n      dup3\n        /* \"#utility.yul\":777:784   */\n      dup5\n        /* \"#utility.yul\":773:796   */\n      sub\n        /* \"#utility.yul\":769:801   */\n      slt\n        /* \"#utility.yul\":766:885   */\n      iszero\n      tag_39\n      jumpi\n        /* \"#utility.yul\":804:883   */\n      tag_40\n      tag_22\n      jump\t// in\n    tag_40:\n        /* \"#utility.yul\":766:885   */\n    tag_39:\n        /* \"#utility.yul\":924:925   */\n      0x00\n        /* \"#utility.yul\":949:1002   */\n      tag_41\n        /* \"#utility.yul\":994:1001   */\n      dup5\n        /* \"#utility.yul\":985:991   */\n      dup3\n        /* \"#utility.yul\":974:983   */\n      dup6\n        /* \"#utility.yul\":970:992   */\n      add\n        /* \"#utility.yul\":949:1002   */\n      tag_26\n      jump\t// in\n    tag_41:\n        /* \"#utility.yul\":939:1002   */\n      swap2\n      pop\n        /* \"#utility.yul\":895:1012   */\n      pop\n        /* \"#utility.yul\":690:1019   */\n      swap3\n      swap2\n      pop\n      pop\n      jump\t// out\n        /* \"#utility.yul\":1025:1143   */\n    tag_27:\n        /* \"#utility.yul\":1112:1136   */\n      tag_43\n        /* \"#utility.yul\":1130:1135   */\n      dup2\n        /* \"#utility.yul\":1112:1136   */\n      tag_24\n      jump\t// in\n    tag_43:\n        /* \"#utility.yul\":1107:1110   */\n      dup3\n        /* \"#utility.yul\":1100:1137   */\n      mstore\n        /* \"#utility.yul\":1025:1143   */\n      pop\n      pop\n      jump\t// out\n        /* \"#utility.yul\":1149:1371   */\n    tag_10:\n        /* \"#utility.yul\":1242:1246   */\n      0x00\n        /* \"#utility.yul\":1280:1282   */\n      0x20\n        /* \"#utility.yul\":1269:1278   */\n      dup3\n        /* \"#utility.yul\":1265:1283   */\n      add\n        /* \"#utility.yul\":1257:1283   */\n      swap1\n      pop\n        /* \"#utility.yul\":1293:1364   */\n      tag_45\n        /* \"#utility.yul\":1361:1362   */\n      0x00\n        /* \"#utility.yul\":1350:1359   */\n      dup4\n        /* \"#utility.yul\":1346:1363   */\n      add\n        /* \"#utility.yul\":1337:1343   */\n      dup5\n        /* \"#utility.yul\":1293:1364   */\n      tag_27\n      jump\t// in\n    tag_45:\n        /* \"#utility.yul\":1149:1371   */\n      swap3\n      swap2\n      pop\n      pop\n      jump\t// out\n\n    auxdata: 0xa26469706673582212205e6e5df5706e609259490543ab3b15938ddc5e7d15440c7bda6045cb99ef218964736f6c634300081f0033\n}\n",
				"bytecode": {
					"linkReferences": {},
					"object": "6080604052348015600e575f5ffd5b5061019a8061001c5f395ff3fe608060405234801561000f575f5ffd5b5060043610610034575f3560e01c8063a917238b14610038578063f42a728d14610068575b5f5ffd5b610052600480360381019061004d9190610111565b610098565b60405161005f919061014b565b60405180910390f35b610082600480360381019061007d9190610111565b6100c6565b60405161008f919061014b565b60405180910390f35b5f81600181146100b257600281146100bb575f91506100c0565b600a91506100c0565b601491505b50919050565b5f600a8210156100d557606390505b919050565b5f5ffd5b5f819050919050565b6100f0816100de565b81146100fa575f5ffd5b50565b5f8135905061010b816100e7565b92915050565b5f60208284031215610126576101256100da565b5b5f610133848285016100fd565b91505092915050565b610145816100de565b82525050565b5f60208201905061015e5f83018461013c565b9291505056fea26469706673582212205e6e5df5706e609259490543ab3b15938ddc5e7d15440c7bda6045cb99ef218964736f6c634300081f0033",
					"opcodes": "PUSH1 0x80 PUSH1 0x40 MSTORE CALLVALUE DUP1 ISZERO PUSH1 0xE JUMPI PUSH0 PUSH0 REVERT JUMPDEST POP PUSH2 0x19A DUP1 PUSH2 0x1C PUSH0 CODECOPY PUSH0 RETURN INVALID PUSH1 0x80 PUSH1 0x40 MSTORE CALLVALUE DUP1 ISZERO PUSH2 0xF JUMPI PUSH0 PUSH0 REVERT JUMPDEST POP PUSH1 0x4 CALLDATASIZE LT PUSH2 0x34 JUMPI PUSH0 CALLDATALOAD PUSH1 0xE0 SHR DUP1 PUSH4 0xA917238B EQ PUSH2 0x38 JUMPI DUP1 PUSH4 0xF42A728D EQ PUSH2 0x68 JUMPI JUMPDEST PUSH0 PUSH0 REVERT JUMPDEST PUSH2 0x52 PUSH1 0x4 DUP1 CALLDATASIZE SUB DUP2 ADD SWAP1 PUSH2 0x4D SWAP2 SWAP1 PUSH2 0x111 JUMP JUMPDEST PUSH2 0x98 JUMP JUMPDEST PUSH1 0x40 MLOAD PUSH2 0x5F SWAP2 SWAP1 PUSH2 0x14B JUMP JUMPDEST PUSH1 0x40 MLOAD DUP1 SWAP2 SUB SWAP1 RETURN JUMPDEST PUSH2 0x82 PUSH1 0x4 DUP1 CALLDATASIZE SUB DUP2 ADD SWAP1 PUSH2 0x7D SWAP2 SWAP1 PUSH2 0x111 JUMP JUMPDEST PUSH2 0xC6 JUMP JUMPDEST PUSH1 0x40 MLOAD PUSH2 0x8F SWAP2 SWAP1 PUSH2 0x14B JUMP JUMPDEST PUSH1 0x40 MLOAD DUP1 SWAP2 SUB SWAP1 RETURN JUMPDEST PUSH0 DUP2 PUSH1 0x1 DUP2 EQ PUSH2 0xB2 JUMPI PUSH1 0x2 DUP2 EQ PUSH2 0xBB JUMPI PUSH0 SWAP2 POP PUSH2 0xC0 JUMP JUMPDEST PUSH1 0xA SWAP2 POP PUSH2 0xC0 JUMP JUMPDEST PUSH1 0x14 SWAP2 POP JUMPDEST POP SWAP2 SWAP1 POP JUMP JUMPDEST PUSH0 PUSH1 0xA DUP3 LT ISZERO PUSH2 0xD5 JUMPI PUSH1 0x63 SWAP1 POP JUMPDEST SWAP2 SWAP1 POP JUMP JUMPDEST PUSH0 PUSH0 REVERT JUMPDEST PUSH0 DUP2 SWAP1 POP SWAP2 SWAP1 POP JUMP JUMPDEST PUSH2 0xF0 DUP2 PUSH2 0xDE JUMP JUMPDEST DUP2 EQ PUSH2 0xFA JUMPI PUSH0 PUSH0 REVERT JUMPDEST POP JUMP JUMPDEST PUSH0 DUP2 CALLDATALOAD SWAP1 POP PUSH2 0x10B DUP2 PUSH2 0xE7 JUMP JUMPDEST SWAP3 SWAP2 POP POP JUMP JUMPDEST PUSH0 PUSH1 0x20 DUP3 DUP5 SUB SLT ISZERO PUSH2 0x126 JUMPI PUSH2 0x125 PUSH2 0xDA JUMP JUMPDEST JUMPDEST PUSH0 PUSH2 0x133 DUP5 DUP3 DUP6 ADD PUSH2 0xFD JUMP JUMPDEST SWAP2 POP POP SWAP3 SWAP2 POP POP JUMP JUMPDEST PUSH2 0x145 DUP2 PUSH2 0xDE JUMP JUMPDEST DUP3 MSTORE POP POP JUMP JUMPDEST PUSH0 PUSH1 0x20 DUP3 ADD SWAP1 POP PUSH2 0x15E PUSH0 DUP4 ADD DUP5 PUSH2 0x13C JUMP JUMPDEST SWAP3 SWAP2 POP POP JUMP INVALID LOG2 PUSH5 0x6970667358 0x22 SLT KECCAK256 MCOPY PUSH15 0x5DF5706E609259490543AB3B15938D 0xDC MCOPY PUSH30 0x15440C7BDA6045CB99EF218964736F6C634300081F003300000000000000 "
				},
				"gasEstimates": {
					"creation": {
						"codeDepositCost": "82000",
						"executionCost": "127",
						"totalCost": "82127"
					},
					"external": {
						"yul_if(uint256)": "infinite",
						"yul_switch(uint256)": "infinite"
					}
				},
				"methodIdentifiers": {
					"yul_if(uint256)": "f42a728d",
					"yul_switch(uint256)": "a917238b"
				}
			},
			"storageLayout": {
				"storage": [],
				"types": null
			},
			"userdoc": {
				"kind": "user",
				"methods": {},
				"version": 1
			}
		}
	}
}