{
	"Sol_by_Example/Basics/Assembly/05.AssemblyMath.sol": {
		"AssemblyMath": {
			"abi": [
				{
					"inputs": [
						{
							"internalType": "uint256",
							"name": "x",
							"type": "uint256"
						},
						{
							"internalType": "uint256",
							"name": "y",
							"type": "uint256"
						}
					],
					"name": "yul_add",
					"outputs": [
						{
							"internalType": "uint256",
							"name": "z",
							"type": "uint256"
						}
					],
					"stateMutability": "pure",
					"type": "function"
				},
				{
					"inputs": [
						{
							"internalType": "uint256",
							"name": "x",
							"type": "uint256"
						},
						{
							"internalType": "uint256",
							"name": "b",
							"type": "uint256"
						}
					],
					"name": "yul_fixed_point_round",
					"outputs": [
						{
							"internalType": "uint256",
							"name": "z",
							"type": "uint256"
						}
					],
					"stateMutability": "pure",
					"type": "function"
				},
				{
					"inputs": [
						{
							"internalType": "uint256",
							"name": "x",
							"type": "uint256"
						},
						{
							"internalType": "uint256",
							"name": "y",
							"type": "uint256"
						}
					],
					"name": "yul_mul",
					"outputs": [
						{
							"internalType": "uint256",
							"name": "z",
							"type": "uint256"
						}
					],
					"stateMutability": "pure",
					"type": "function"
				}
			],
			"devdoc": {
				"kind": "dev",
				"methods": {},
				"version": 1
			},
			"evm": {
				"assembly": "    /* \"Sol_by_Example/Basics/Assembly/05.AssemblyMath.sol\":58:1104  contract AssemblyMath {... */\n  mstore(0x40, 0x80)\n  callvalue\n  dup1\n  iszero\n  tag_1\n  jumpi\n  revert(0x00, 0x00)\ntag_1:\n  pop\n  dataSize(sub_0)\n  dup1\n  dataOffset(sub_0)\n  0x00\n  codecopy\n  0x00\n  return\nstop\n\nsub_0: assembly {\n        /* \"Sol_by_Example/Basics/Assembly/05.AssemblyMath.sol\":58:1104  contract AssemblyMath {... */\n      mstore(0x40, 0x80)\n      callvalue\n      dup1\n      iszero\n      tag_1\n      jumpi\n      revert(0x00, 0x00)\n    tag_1:\n      pop\n      jumpi(tag_2, lt(calldatasize, 0x04))\n      shr(0xe0, calldataload(0x00))\n      dup1\n      0x1ddb78a7\n      eq\n      tag_3\n      jumpi\n      dup1\n      0x7ad2c242\n      eq\n      tag_4\n      jumpi\n      dup1\n      0xe888b165\n      eq\n      tag_5\n      jumpi\n    tag_2:\n      revert(0x00, 0x00)\n        /* \"Sol_by_Example/Basics/Assembly/05.AssemblyMath.sol\":86:261  function yul_add(uint256 x, uint256 y) public pure returns (uint256 z) {... */\n    tag_3:\n      tag_6\n      0x04\n      dup1\n      calldatasize\n      sub\n      dup2\n      add\n      swap1\n      tag_7\n      swap2\n      swap1\n      tag_8\n      jump\t// in\n    tag_7:\n      tag_9\n      jump\t// in\n    tag_6:\n      mload(0x40)\n      tag_10\n      swap2\n      swap1\n      tag_11\n      jump\t// in\n    tag_10:\n      mload(0x40)\n      dup1\n      swap2\n      sub\n      swap1\n      return\n        /* \"Sol_by_Example/Basics/Assembly/05.AssemblyMath.sol\":597:1102  function yul_fixed_point_round(uint256 x, uint256 b)... */\n    tag_4:\n      tag_12\n      0x04\n      dup1\n      calldatasize\n      sub\n      dup2\n      add\n      swap1\n      tag_13\n      swap2\n      swap1\n      tag_8\n      jump\t// in\n    tag_13:\n      tag_14\n      jump\t// in\n    tag_12:\n      mload(0x40)\n      tag_15\n      swap2\n      swap1\n      tag_11\n      jump\t// in\n    tag_15:\n      mload(0x40)\n      dup1\n      swap2\n      sub\n      swap1\n      return\n        /* \"Sol_by_Example/Basics/Assembly/05.AssemblyMath.sol\":267:553  function yul_mul(uint256 x, uint256 y) public pure returns (uint256 z) {... */\n    tag_5:\n      tag_16\n      0x04\n      dup1\n      calldatasize\n      sub\n      dup2\n      add\n      swap1\n      tag_17\n      swap2\n      swap1\n      tag_8\n      jump\t// in\n    tag_17:\n      tag_18\n      jump\t// in\n    tag_16:\n      mload(0x40)\n      tag_19\n      swap2\n      swap1\n      tag_11\n      jump\t// in\n    tag_19:\n      mload(0x40)\n      dup1\n      swap2\n      sub\n      swap1\n      return\n        /* \"Sol_by_Example/Basics/Assembly/05.AssemblyMath.sol\":86:261  function yul_add(uint256 x, uint256 y) public pure returns (uint256 z) {... */\n    tag_9:\n        /* \"Sol_by_Example/Basics/Assembly/05.AssemblyMath.sol\":146:155  uint256 z */\n      0x00\n        /* \"Sol_by_Example/Basics/Assembly/05.AssemblyMath.sol\":202:203  y */\n      dup2\n        /* \"Sol_by_Example/Basics/Assembly/05.AssemblyMath.sol\":199:200  x */\n      dup4\n        /* \"Sol_by_Example/Basics/Assembly/05.AssemblyMath.sol\":195:204  add(x, y) */\n      add\n        /* \"Sol_by_Example/Basics/Assembly/05.AssemblyMath.sol\":190:204  z := add(x, y) */\n      swap1\n      pop\n        /* \"Sol_by_Example/Basics/Assembly/05.AssemblyMath.sol\":226:227  x */\n      dup3\n        /* \"Sol_by_Example/Basics/Assembly/05.AssemblyMath.sol\":223:224  z */\n      dup2\n        /* \"Sol_by_Example/Basics/Assembly/05.AssemblyMath.sol\":220:228  lt(z, x) */\n      lt\n        /* \"Sol_by_Example/Basics/Assembly/05.AssemblyMath.sol\":217:245  if lt(z, x) { revert(0, 0) } */\n      iszero\n      tag_21\n      jumpi\n        /* \"Sol_by_Example/Basics/Assembly/05.AssemblyMath.sol\":241:242  0 */\n      0x00\n        /* \"Sol_by_Example/Basics/Assembly/05.AssemblyMath.sol\":238:239  0 */\n      0x00\n        /* \"Sol_by_Example/Basics/Assembly/05.AssemblyMath.sol\":231:243  revert(0, 0) */\n      revert\n        /* \"Sol_by_Example/Basics/Assembly/05.AssemblyMath.sol\":217:245  if lt(z, x) { revert(0, 0) } */\n    tag_21:\n        /* \"Sol_by_Example/Basics/Assembly/05.AssemblyMath.sol\":86:261  function yul_add(uint256 x, uint256 y) public pure returns (uint256 z) {... */\n      swap3\n      swap2\n      pop\n      pop\n      jump\t// out\n        /* \"Sol_by_Example/Basics/Assembly/05.AssemblyMath.sol\":597:1102  function yul_fixed_point_round(uint256 x, uint256 b)... */\n    tag_14:\n        /* \"Sol_by_Example/Basics/Assembly/05.AssemblyMath.sol\":695:704  uint256 z */\n      0x00\n        /* \"Sol_by_Example/Basics/Assembly/05.AssemblyMath.sol\":898:899  2 */\n      0x02\n        /* \"Sol_by_Example/Basics/Assembly/05.AssemblyMath.sol\":895:896  b */\n      dup3\n        /* \"Sol_by_Example/Basics/Assembly/05.AssemblyMath.sol\":891:900  div(b, 2) */\n      div\n        /* \"Sol_by_Example/Basics/Assembly/05.AssemblyMath.sol\":925:929  half */\n      dup1\n        /* \"Sol_by_Example/Basics/Assembly/05.AssemblyMath.sol\":922:923  x */\n      dup5\n        /* \"Sol_by_Example/Basics/Assembly/05.AssemblyMath.sol\":918:930  add(x, half) */\n      add\n        /* \"Sol_by_Example/Basics/Assembly/05.AssemblyMath.sol\":913:930  z := add(x, half) */\n      swap2\n      pop\n        /* \"Sol_by_Example/Basics/Assembly/05.AssemblyMath.sol\":963:964  b */\n      dup3\n        /* \"Sol_by_Example/Basics/Assembly/05.AssemblyMath.sol\":959:960  b */\n      dup4\n        /* \"Sol_by_Example/Basics/Assembly/05.AssemblyMath.sol\":956:957  z */\n      dup4\n        /* \"Sol_by_Example/Basics/Assembly/05.AssemblyMath.sol\":952:961  div(z, b) */\n      div\n        /* \"Sol_by_Example/Basics/Assembly/05.AssemblyMath.sol\":948:965  mul(div(z, b), b) */\n      mul\n        /* \"Sol_by_Example/Basics/Assembly/05.AssemblyMath.sol\":943:965  z := mul(div(z, b), b) */\n      swap2\n      pop\n        /* \"Sol_by_Example/Basics/Assembly/05.AssemblyMath.sol\":729:1096  {... */\n      pop\n        /* \"Sol_by_Example/Basics/Assembly/05.AssemblyMath.sol\":597:1102  function yul_fixed_point_round(uint256 x, uint256 b)... */\n      swap3\n      swap2\n      pop\n      pop\n      jump\t// out\n        /* \"Sol_by_Example/Basics/Assembly/05.AssemblyMath.sol\":267:553  function yul_mul(uint256 x, uint256 y) public pure returns (uint256 z) {... */\n    tag_18:\n        /* \"Sol_by_Example/Basics/Assembly/05.AssemblyMath.sol\":327:336  uint256 z */\n      0x00\n        /* \"Sol_by_Example/Basics/Assembly/05.AssemblyMath.sol\":378:379  x */\n      dup3\n        /* \"Sol_by_Example/Basics/Assembly/05.AssemblyMath.sol\":397:398  0 */\n      0x00\n        /* \"Sol_by_Example/Basics/Assembly/05.AssemblyMath.sol\":392:409  case 0 { z := 0 } */\n      dup2\n      eq\n      tag_25\n      jumpi\n        /* \"Sol_by_Example/Basics/Assembly/05.AssemblyMath.sol\":460:461  y */\n      dup3\n        /* \"Sol_by_Example/Basics/Assembly/05.AssemblyMath.sol\":457:458  x */\n      dup5\n        /* \"Sol_by_Example/Basics/Assembly/05.AssemblyMath.sol\":453:462  mul(x, y) */\n      mul\n        /* \"Sol_by_Example/Basics/Assembly/05.AssemblyMath.sol\":448:462  z := mul(x, y) */\n      swap2\n      pop\n        /* \"Sol_by_Example/Basics/Assembly/05.AssemblyMath.sol\":503:504  y */\n      dup3\n        /* \"Sol_by_Example/Basics/Assembly/05.AssemblyMath.sol\":499:500  x */\n      dup5\n        /* \"Sol_by_Example/Basics/Assembly/05.AssemblyMath.sol\":496:497  z */\n      dup4\n        /* \"Sol_by_Example/Basics/Assembly/05.AssemblyMath.sol\":492:501  div(z, x) */\n      div\n        /* \"Sol_by_Example/Basics/Assembly/05.AssemblyMath.sol\":489:505  eq(div(z, x), y) */\n      eq\n        /* \"Sol_by_Example/Basics/Assembly/05.AssemblyMath.sol\":479:523  if iszero(eq(div(z, x), y)) { revert(0, 0) } */\n      tag_26\n      jumpi\n        /* \"Sol_by_Example/Basics/Assembly/05.AssemblyMath.sol\":519:520  0 */\n      0x00\n        /* \"Sol_by_Example/Basics/Assembly/05.AssemblyMath.sol\":516:517  0 */\n      0x00\n        /* \"Sol_by_Example/Basics/Assembly/05.AssemblyMath.sol\":509:521  revert(0, 0) */\n      revert\n        /* \"Sol_by_Example/Basics/Assembly/05.AssemblyMath.sol\":479:523  if iszero(eq(div(z, x), y)) { revert(0, 0) } */\n    tag_26:\n        /* \"Sol_by_Example/Basics/Assembly/05.AssemblyMath.sol\":371:537  switch x... */\n      jump(tag_24)\n        /* \"Sol_by_Example/Basics/Assembly/05.AssemblyMath.sol\":392:409  case 0 { z := 0 } */\n    tag_25:\n        /* \"Sol_by_Example/Basics/Assembly/05.AssemblyMath.sol\":406:407  0 */\n      0x00\n        /* \"Sol_by_Example/Basics/Assembly/05.AssemblyMath.sol\":401:407  z := 0 */\n      swap2\n      pop\n        /* \"Sol_by_Example/Basics/Assembly/05.AssemblyMath.sol\":371:537  switch x... */\n    tag_24:\n      pop\n        /* \"Sol_by_Example/Basics/Assembly/05.AssemblyMath.sol\":267:553  function yul_mul(uint256 x, uint256 y) public pure returns (uint256 z) {... */\n      swap3\n      swap2\n      pop\n      pop\n      jump\t// out\n        /* \"#utility.yul\":88:205   */\n    tag_28:\n        /* \"#utility.yul\":197:198   */\n      0x00\n        /* \"#utility.yul\":194:195   */\n      0x00\n        /* \"#utility.yul\":187:199   */\n      revert\n        /* \"#utility.yul\":334:411   */\n    tag_30:\n        /* \"#utility.yul\":371:378   */\n      0x00\n        /* \"#utility.yul\":400:405   */\n      dup2\n        /* \"#utility.yul\":389:405   */\n      swap1\n      pop\n        /* \"#utility.yul\":334:411   */\n      swap2\n      swap1\n      pop\n      jump\t// out\n        /* \"#utility.yul\":417:539   */\n    tag_31:\n        /* \"#utility.yul\":490:514   */\n      tag_40\n        /* \"#utility.yul\":508:513   */\n      dup2\n        /* \"#utility.yul\":490:514   */\n      tag_30\n      jump\t// in\n    tag_40:\n        /* \"#utility.yul\":483:488   */\n      dup2\n        /* \"#utility.yul\":480:515   */\n      eq\n        /* \"#utility.yul\":470:533   */\n      tag_41\n      jumpi\n        /* \"#utility.yul\":529:530   */\n      0x00\n        /* \"#utility.yul\":526:527   */\n      0x00\n        /* \"#utility.yul\":519:531   */\n      revert\n        /* \"#utility.yul\":470:533   */\n    tag_41:\n        /* \"#utility.yul\":417:539   */\n      pop\n      jump\t// out\n        /* \"#utility.yul\":545:684   */\n    tag_32:\n        /* \"#utility.yul\":591:596   */\n      0x00\n        /* \"#utility.yul\":629:635   */\n      dup2\n        /* \"#utility.yul\":616:636   */\n      calldataload\n        /* \"#utility.yul\":607:636   */\n      swap1\n      pop\n        /* \"#utility.yul\":645:678   */\n      tag_43\n        /* \"#utility.yul\":672:677   */\n      dup2\n        /* \"#utility.yul\":645:678   */\n      tag_31\n      jump\t// in\n    tag_43:\n        /* \"#utility.yul\":545:684   */\n      swap3\n      swap2\n      pop\n      pop\n      jump\t// out\n        /* \"#utility.yul\":690:1164   */\n    tag_8:\n        /* \"#utility.yul\":758:764   */\n      0x00\n        /* \"#utility.yul\":766:772   */\n      0x00\n        /* \"#utility.yul\":815:817   */\n      0x40\n        /* \"#utility.yul\":803:812   */\n      dup4\n        /* \"#utility.yul\":794:801   */\n      dup6\n        /* \"#utility.yul\":790:813   */\n      sub\n        /* \"#utility.yul\":786:818   */\n      slt\n        /* \"#utility.yul\":783:902   */\n      iszero\n      tag_45\n      jumpi\n        /* \"#utility.yul\":821:900   */\n      tag_46\n      tag_28\n      jump\t// in\n    tag_46:\n        /* \"#utility.yul\":783:902   */\n    tag_45:\n        /* \"#utility.yul\":941:942   */\n      0x00\n        /* \"#utility.yul\":966:1019   */\n      tag_47\n        /* \"#utility.yul\":1011:1018   */\n      dup6\n        /* \"#utility.yul\":1002:1008   */\n      dup3\n        /* \"#utility.yul\":991:1000   */\n      dup7\n        /* \"#utility.yul\":987:1009   */\n      add\n        /* \"#utility.yul\":966:1019   */\n      tag_32\n      jump\t// in\n    tag_47:\n        /* \"#utility.yul\":956:1019   */\n      swap3\n      pop\n        /* \"#utility.yul\":912:1029   */\n      pop\n        /* \"#utility.yul\":1068:1070   */\n      0x20\n        /* \"#utility.yul\":1094:1147   */\n      tag_48\n        /* \"#utility.yul\":1139:1146   */\n      dup6\n        /* \"#utility.yul\":1130:1136   */\n      dup3\n        /* \"#utility.yul\":1119:1128   */\n      dup7\n        /* \"#utility.yul\":1115:1137   */\n      add\n        /* \"#utility.yul\":1094:1147   */\n      tag_32\n      jump\t// in\n    tag_48:\n        /* \"#utility.yul\":1084:1147   */\n      swap2\n      pop\n        /* \"#utility.yul\":1039:1157   */\n      pop\n        /* \"#utility.yul\":690:1164   */\n      swap3\n      pop\n      swap3\n      swap1\n      pop\n      jump\t// out\n        /* \"#utility.yul\":1170:1288   */\n    tag_33:\n        /* \"#utility.yul\":1257:1281   */\n      tag_50\n        /* \"#utility.yul\":1275:1280   */\n      dup2\n        /* \"#utility.yul\":1257:1281   */\n      tag_30\n      jump\t// in\n    tag_50:\n        /* \"#utility.yul\":1252:1255   */\n      dup3\n        /* \"#utility.yul\":1245:1282   */\n      mstore\n        /* \"#utility.yul\":1170:1288   */\n      pop\n      pop\n      jump\t// out\n        /* \"#utility.yul\":1294:1516   */\n    tag_11:\n        /* \"#utility.yul\":1387:1391   */\n      0x00\n        /* \"#utility.yul\":1425:1427   */\n      0x20\n        /* \"#utility.yul\":1414:1423   */\n      dup3\n        /* \"#utility.yul\":1410:1428   */\n      add\n        /* \"#utility.yul\":1402:1428   */\n      swap1\n      pop\n        /* \"#utility.yul\":1438:1509   */\n      tag_52\n        /* \"#utility.yul\":1506:1507   */\n      0x00\n        /* \"#utility.yul\":1495:1504   */\n      dup4\n        /* \"#utility.yul\":1491:1508   */\n      add\n        /* \"#utility.yul\":1482:1488   */\n      dup5\n        /* \"#utility.yul\":1438:1509   */\n      tag_33\n      jump\t// in\n    tag_52:\n        /* \"#utility.yul\":1294:1516   */\n      swap3\n      swap2\n      pop\n      pop\n      jump\t// out\n\n    auxdata: 0xa264697066735822122071ac08de9190475798ac9ceefeef801ed1ddc5b87ac1510dbdba628a22b4391864736f6c634300081f0033\n}\n",
				"bytecode": {
					"linkReferences": {},
					"object": "6080604052348015600e575f5ffd5b506102018061001c5f395ff3fe608060405234801561000f575f5ffd5b506004361061003f575f3560e01c80631ddb78a7146100435780637ad2c24214610073578063e888b165146100a3575b5f5ffd5b61005d60048036038101906100589190610165565b6100d3565b60405161006a91906101b2565b60405180910390f35b61008d60048036038101906100889190610165565b6100eb565b60405161009a91906101b2565b60405180910390f35b6100bd60048036038101906100b89190610165565b610103565b6040516100ca91906101b2565b60405180910390f35b5f8183019050828110156100e5575f5ffd5b92915050565b5f600282048084019150828383040291505092915050565b5f825f8114610123578284029150828483041461011e575f5ffd5b610127565b5f91505b5092915050565b5f5ffd5b5f819050919050565b61014481610132565b811461014e575f5ffd5b50565b5f8135905061015f8161013b565b92915050565b5f5f6040838503121561017b5761017a61012e565b5b5f61018885828601610151565b925050602061019985828601610151565b9150509250929050565b6101ac81610132565b82525050565b5f6020820190506101c55f8301846101a3565b9291505056fea264697066735822122071ac08de9190475798ac9ceefeef801ed1ddc5b87ac1510dbdba628a22b4391864736f6c634300081f0033",
					"opcodes": "PUSH1 0x80 PUSH1 0x40 MSTORE CALLVALUE DUP1 ISZERO PUSH1 0xE JUMPI PUSH0 PUSH0 REVERT JUMPDEST POP PUSH2 0x201 DUP1 PUSH2 0x1C PUSH0 CODECOPY PUSH0 RETURN INVALID PUSH1 0x80 PUSH1 0x40 MSTORE CALLVALUE DUP1 ISZERO PUSH2 0xF JUMPI PUSH0 PUSH0 REVERT JUMPDEST POP PUSH1 0x4 CALLDATASIZE LT PUSH2 0x3F JUMPI PUSH0 CALLDATALOAD PUSH1 0xE0 SHR DUP1 PUSH4 0x1DDB78A7 EQ PUSH2 0x43 JUMPI DUP1 PUSH4 0x7AD2C242 EQ PUSH2 0x73 JUMPI DUP1 PUSH4 0xE888B165 EQ PUSH2 0xA3 JUMPI JUMPDEST PUSH0 PUSH0 REVERT JUMPDEST PUSH2 0x5D PUSH1 0x4 DUP1 CALLDATASIZE SUB DUP2 ADD SWAP1 PUSH2 0x58 SWAP2 SWAP1 PUSH2 0x165 JUMP JUMPDEST PUSH2 0xD3 JUMP JUMPDEST PUSH1 0x40 MLOAD PUSH2 0x6A SWAP2 SWAP1 PUSH2 0x1B2 JUMP JUMPDEST PUSH1 0x40 MLOAD DUP1 SWAP2 SUB SWAP1 RETURN JUMPDEST PUSH2 0x8D PUSH1 0x4 DUP1 CALLDATASIZE SUB DUP2 ADD SWAP1 PUSH2 0x88 SWAP2 SWAP1 PUSH2 0x165 JUMP JUMPDEST PUSH2 0xEB JUMP JUMPDEST PUSH1 0x40 MLOAD PUSH2 0x9A SWAP2 SWAP1 PUSH2 0x1B2 JUMP JUMPDEST PUSH1 0x40 MLOAD DUP1 SWAP2 SUB SWAP1 RETURN JUMPDEST PUSH2 0xBD PUSH1 0x4 DUP1 CALLDATASIZE SUB DUP2 ADD SWAP1 PUSH2 0xB8 SWAP2 SWAP1 PUSH2 0x165 JUMP JUMPDEST PUSH2 0x103 JUMP JUMPDEST PUSH1 0x40 MLOAD PUSH2 0xCA SWAP2 SWAP1 PUSH2 0x1B2 JUMP JUMPDEST PUSH1 0x40 MLOAD DUP1 SWAP2 SUB SWAP1 RETURN JUMPDEST PUSH0 DUP2 DUP4 ADD SWAP1 POP DUP3 DUP2 LT ISZERO PUSH2 0xE5 JUMPI PUSH0 PUSH0 REVERT JUMPDEST SWAP3 SWAP2 POP POP JUMP JUMPDEST PUSH0 PUSH1 0x2 DUP3 DIV DUP1 DUP5 ADD SWAP2 POP DUP3 DUP4 DUP4 DIV MUL SWAP2 POP POP SWAP3 SWAP2 POP POP JUMP JUMPDEST PUSH0 DUP3 PUSH0 DUP2 EQ PUSH2 0x123 JUMPI DUP3 DUP5 MUL SWAP2 POP DUP3 DUP5 DUP4 DIV EQ PUSH2 0x11E JUMPI PUSH0 PUSH0 REVERT JUMPDEST PUSH2 0x127 JUMP JUMPDEST PUSH0 SWAP2 POP JUMPDEST POP SWAP3 SWAP2 POP POP JUMP JUMPDEST PUSH0 PUSH0 REVERT JUMPDEST PUSH0 DUP2 SWAP1 POP SWAP2 SWAP1 POP JUMP JUMPDEST PUSH2 0x144 DUP2 PUSH2 0x132 JUMP JUMPDEST DUP2 EQ PUSH2 0x14E JUMPI PUSH0 PUSH0 REVERT JUMPDEST POP JUMP JUMPDEST PUSH0 DUP2 CALLDATALOAD SWAP1 POP PUSH2 0x15F DUP2 PUSH2 0x13B JUMP JUMPDEST SWAP3 SWAP2 POP POP JUMP JUMPDEST PUSH0 PUSH0 PUSH1 0x40 DUP4 DUP6 SUB SLT ISZERO PUSH2 0x17B JUMPI PUSH2 0x17A PUSH2 0x12E JUMP JUMPDEST JUMPDEST PUSH0 PUSH2 0x188 DUP6 DUP3 DUP7 ADD PUSH2 0x151 JUMP JUMPDEST SWAP3 POP POP PUSH1 0x20 PUSH2 0x199 DUP6 DUP3 DUP7 ADD PUSH2 0x151 JUMP JUMPDEST SWAP2 POP POP SWAP3 POP SWAP3 SWAP1 POP JUMP JUMPDEST PUSH2 0x1AC DUP2 PUSH2 0x132 JUMP JUMPDEST DUP3 MSTORE POP POP JUMP JUMPDEST PUSH0 PUSH1 0x20 DUP3 ADD SWAP1 POP PUSH2 0x1C5 PUSH0 DUP4 ADD DUP5 PUSH2 0x1A3 JUMP JUMPDEST SWAP3 SWAP2 POP POP JUMP INVALID LOG2 PUSH5 0x6970667358 0x22 SLT KECCAK256 PUSH18 0xAC08DE9190475798AC9CEEFEEF801ED1DDC5 0xB8 PUSH27 0xC1510DBDBA628A22B4391864736F6C634300081F00330000000000 "
				},
				"gasEstimates": {
					"creation": {
						"codeDepositCost": "102600",
						"executionCost": "151",
						"totalCost": "102751"
					},
					"external": {
						"yul_add(uint256,uint256)": "infinite",
						"yul_fixed_point_round(uint256,uint256)": "infinite",
						"yul_mul(uint256,uint256)": "infinite"
					}
				},
				"methodIdentifiers": {
					"yul_add(uint256,uint256)": "1ddb78a7",
					"yul_fixed_point_round(uint256,uint256)": "7ad2c242",
					"yul_mul(uint256,uint256)": "e888b165"
				}
			},
			"storageLayout": {
				"storage": [],
				"types": null
			},
			"userdoc": {
				"kind": "user",
				"methods": {},
				"version": 1
			}
		}
	}
}