{
	"Sol_by_Example/Basics/firstAppCounter.sol": {
		"Counter": {
			"abi": [
				{
					"inputs": [],
					"name": "dec",
					"outputs": [],
					"stateMutability": "nonpayable",
					"type": "function"
				},
				{
					"inputs": [],
					"name": "getCount",
					"outputs": [
						{
							"internalType": "int256",
							"name": "",
							"type": "int256"
						}
					],
					"stateMutability": "view",
					"type": "function"
				},
				{
					"inputs": [],
					"name": "inc",
					"outputs": [],
					"stateMutability": "nonpayable",
					"type": "function"
				}
			],
			"devdoc": {
				"kind": "dev",
				"methods": {},
				"version": 1
			},
			"evm": {
				"assembly": "    /* \"Sol_by_Example/Basics/firstAppCounter.sol\":92:506  contract Counter {... */\n  mstore(0x40, 0x80)\n  callvalue\n  dup1\n  iszero\n  tag_1\n  jumpi\n  revert(0x00, 0x00)\ntag_1:\n  pop\n  dataSize(sub_0)\n  dup1\n  dataOffset(sub_0)\n  0x00\n  codecopy\n  0x00\n  return\nstop\n\nsub_0: assembly {\n        /* \"Sol_by_Example/Basics/firstAppCounter.sol\":92:506  contract Counter {... */\n      mstore(0x40, 0x80)\n      callvalue\n      dup1\n      iszero\n      tag_1\n      jumpi\n      revert(0x00, 0x00)\n    tag_1:\n      pop\n      jumpi(tag_2, lt(calldatasize, 0x04))\n      shr(0xe0, calldataload(0x00))\n      dup1\n      0x371303c0\n      eq\n      tag_3\n      jumpi\n      dup1\n      0xa87d942c\n      eq\n      tag_4\n      jumpi\n      dup1\n      0xb3bcfa82\n      eq\n      tag_5\n      jumpi\n    tag_2:\n      revert(0x00, 0x00)\n        /* \"Sol_by_Example/Basics/firstAppCounter.sol\":156:205  function inc() public {... */\n    tag_3:\n      tag_6\n      tag_7\n      jump\t// in\n    tag_6:\n      stop\n        /* \"Sol_by_Example/Basics/firstAppCounter.sol\":360:504  function getCount() public view returns(int256) {... */\n    tag_4:\n      tag_8\n      tag_9\n      jump\t// in\n    tag_8:\n      mload(0x40)\n      tag_10\n      swap2\n      swap1\n      tag_11\n      jump\t// in\n    tag_10:\n      mload(0x40)\n      dup1\n      swap2\n      sub\n      swap1\n      return\n        /* \"Sol_by_Example/Basics/firstAppCounter.sol\":211:354  function dec() public {... */\n    tag_5:\n      tag_12\n      tag_13\n      jump\t// in\n    tag_12:\n      stop\n        /* \"Sol_by_Example/Basics/firstAppCounter.sol\":156:205  function inc() public {... */\n    tag_7:\n        /* \"Sol_by_Example/Basics/firstAppCounter.sol\":197:198  1 */\n      0x01\n        /* \"Sol_by_Example/Basics/firstAppCounter.sol\":188:193  count */\n      0x00\n      0x00\n        /* \"Sol_by_Example/Basics/firstAppCounter.sol\":188:198  count += 1 */\n      dup3\n      dup3\n      sload\n      tag_15\n      swap2\n      swap1\n      tag_16\n      jump\t// in\n    tag_15:\n      swap3\n      pop\n      pop\n      dup2\n      swap1\n      sstore\n      pop\n        /* \"Sol_by_Example/Basics/firstAppCounter.sol\":156:205  function inc() public {... */\n      jump\t// out\n        /* \"Sol_by_Example/Basics/firstAppCounter.sol\":360:504  function getCount() public view returns(int256) {... */\n    tag_9:\n        /* \"Sol_by_Example/Basics/firstAppCounter.sol\":400:406  int256 */\n      0x00\n        /* \"Sol_by_Example/Basics/firstAppCounter.sol\":492:497  count */\n      sload(0x00)\n        /* \"Sol_by_Example/Basics/firstAppCounter.sol\":485:497  return count */\n      swap1\n      pop\n        /* \"Sol_by_Example/Basics/firstAppCounter.sol\":360:504  function getCount() public view returns(int256) {... */\n      swap1\n      jump\t// out\n        /* \"Sol_by_Example/Basics/firstAppCounter.sol\":211:354  function dec() public {... */\n    tag_13:\n        /* \"Sol_by_Example/Basics/firstAppCounter.sol\":260:261  0 */\n      0x00\n        /* \"Sol_by_Example/Basics/firstAppCounter.sol\":252:257  count */\n      sload(0x00)\n        /* \"Sol_by_Example/Basics/firstAppCounter.sol\":252:261  count > 0 */\n      sgt\n        /* \"Sol_by_Example/Basics/firstAppCounter.sol\":243:290  require( count > 0, \"count cannot be negative\") */\n      tag_19\n      jumpi\n      mload(0x40)\n      0x08c379a000000000000000000000000000000000000000000000000000000000\n      dup2\n      mstore\n      0x04\n      add\n      tag_20\n      swap1\n      tag_21\n      jump\t// in\n    tag_20:\n      mload(0x40)\n      dup1\n      swap2\n      sub\n      swap1\n      revert\n    tag_19:\n        /* \"Sol_by_Example/Basics/firstAppCounter.sol\":346:347  1 */\n      0x01\n        /* \"Sol_by_Example/Basics/firstAppCounter.sol\":337:342  count */\n      0x00\n      0x00\n        /* \"Sol_by_Example/Basics/firstAppCounter.sol\":337:347  count -= 1 */\n      dup3\n      dup3\n      sload\n      tag_22\n      swap2\n      swap1\n      tag_23\n      jump\t// in\n    tag_22:\n      swap3\n      pop\n      pop\n      dup2\n      swap1\n      sstore\n      pop\n        /* \"Sol_by_Example/Basics/firstAppCounter.sol\":211:354  function dec() public {... */\n      jump\t// out\n        /* \"#utility.yul\":7:83   */\n    tag_24:\n        /* \"#utility.yul\":43:50   */\n      0x00\n        /* \"#utility.yul\":72:77   */\n      dup2\n        /* \"#utility.yul\":61:77   */\n      swap1\n      pop\n        /* \"#utility.yul\":7:83   */\n      swap2\n      swap1\n      pop\n      jump\t// out\n        /* \"#utility.yul\":89:204   */\n    tag_25:\n        /* \"#utility.yul\":174:197   */\n      tag_33\n        /* \"#utility.yul\":191:196   */\n      dup2\n        /* \"#utility.yul\":174:197   */\n      tag_24\n      jump\t// in\n    tag_33:\n        /* \"#utility.yul\":169:172   */\n      dup3\n        /* \"#utility.yul\":162:198   */\n      mstore\n        /* \"#utility.yul\":89:204   */\n      pop\n      pop\n      jump\t// out\n        /* \"#utility.yul\":210:428   */\n    tag_11:\n        /* \"#utility.yul\":301:305   */\n      0x00\n        /* \"#utility.yul\":339:341   */\n      0x20\n        /* \"#utility.yul\":328:337   */\n      dup3\n        /* \"#utility.yul\":324:342   */\n      add\n        /* \"#utility.yul\":316:342   */\n      swap1\n      pop\n        /* \"#utility.yul\":352:421   */\n      tag_35\n        /* \"#utility.yul\":418:419   */\n      0x00\n        /* \"#utility.yul\":407:416   */\n      dup4\n        /* \"#utility.yul\":403:420   */\n      add\n        /* \"#utility.yul\":394:400   */\n      dup5\n        /* \"#utility.yul\":352:421   */\n      tag_25\n      jump\t// in\n    tag_35:\n        /* \"#utility.yul\":210:428   */\n      swap3\n      swap2\n      pop\n      pop\n      jump\t// out\n        /* \"#utility.yul\":434:614   */\n    tag_26:\n        /* \"#utility.yul\":482:559   */\n      0x4e487b7100000000000000000000000000000000000000000000000000000000\n        /* \"#utility.yul\":479:480   */\n      0x00\n        /* \"#utility.yul\":472:560   */\n      mstore\n        /* \"#utility.yul\":579:583   */\n      0x11\n        /* \"#utility.yul\":576:577   */\n      0x04\n        /* \"#utility.yul\":569:584   */\n      mstore\n        /* \"#utility.yul\":603:607   */\n      0x24\n        /* \"#utility.yul\":600:601   */\n      0x00\n        /* \"#utility.yul\":593:608   */\n      revert\n        /* \"#utility.yul\":620:995   */\n    tag_16:\n        /* \"#utility.yul\":659:662   */\n      0x00\n        /* \"#utility.yul\":678:697   */\n      tag_38\n        /* \"#utility.yul\":695:696   */\n      dup3\n        /* \"#utility.yul\":678:697   */\n      tag_24\n      jump\t// in\n    tag_38:\n        /* \"#utility.yul\":673:697   */\n      swap2\n      pop\n        /* \"#utility.yul\":711:730   */\n      tag_39\n        /* \"#utility.yul\":728:729   */\n      dup4\n        /* \"#utility.yul\":711:730   */\n      tag_24\n      jump\t// in\n    tag_39:\n        /* \"#utility.yul\":706:730   */\n      swap3\n      pop\n        /* \"#utility.yul\":753:754   */\n      dup3\n        /* \"#utility.yul\":750:751   */\n      dup3\n        /* \"#utility.yul\":746:755   */\n      add\n        /* \"#utility.yul\":739:755   */\n      swap1\n      pop\n        /* \"#utility.yul\":951:952   */\n      dup3\n        /* \"#utility.yul\":946:949   */\n      dup2\n        /* \"#utility.yul\":942:953   */\n      slt\n        /* \"#utility.yul\":935:954   */\n      iszero\n        /* \"#utility.yul\":931:932   */\n      0x00\n        /* \"#utility.yul\":928:929   */\n      dup4\n        /* \"#utility.yul\":924:933   */\n      slt\n        /* \"#utility.yul\":920:955   */\n      and\n        /* \"#utility.yul\":903:904   */\n      dup4\n        /* \"#utility.yul\":898:901   */\n      dup3\n        /* \"#utility.yul\":894:905   */\n      slt\n        /* \"#utility.yul\":889:890   */\n      0x00\n        /* \"#utility.yul\":886:887   */\n      dup5\n        /* \"#utility.yul\":882:891   */\n      slt\n        /* \"#utility.yul\":875:892   */\n      iszero\n        /* \"#utility.yul\":871:906   */\n      and\n        /* \"#utility.yul\":855:965   */\n      or\n        /* \"#utility.yul\":852:988   */\n      iszero\n      tag_40\n      jumpi\n        /* \"#utility.yul\":968:986   */\n      tag_41\n      tag_26\n      jump\t// in\n    tag_41:\n        /* \"#utility.yul\":852:988   */\n    tag_40:\n        /* \"#utility.yul\":620:995   */\n      swap3\n      swap2\n      pop\n      pop\n      jump\t// out\n        /* \"#utility.yul\":1001:1170   */\n    tag_27:\n        /* \"#utility.yul\":1085:1096   */\n      0x00\n        /* \"#utility.yul\":1119:1125   */\n      dup3\n        /* \"#utility.yul\":1114:1117   */\n      dup3\n        /* \"#utility.yul\":1107:1126   */\n      mstore\n        /* \"#utility.yul\":1159:1163   */\n      0x20\n        /* \"#utility.yul\":1154:1157   */\n      dup3\n        /* \"#utility.yul\":1150:1164   */\n      add\n        /* \"#utility.yul\":1135:1164   */\n      swap1\n      pop\n        /* \"#utility.yul\":1001:1170   */\n      swap3\n      swap2\n      pop\n      pop\n      jump\t// out\n        /* \"#utility.yul\":1176:1350   */\n    tag_28:\n        /* \"#utility.yul\":1316:1342   */\n      0x636f756e742063616e6e6f74206265206e656761746976650000000000000000\n        /* \"#utility.yul\":1312:1313   */\n      0x00\n        /* \"#utility.yul\":1304:1310   */\n      dup3\n        /* \"#utility.yul\":1300:1314   */\n      add\n        /* \"#utility.yul\":1293:1343   */\n      mstore\n        /* \"#utility.yul\":1176:1350   */\n      pop\n      jump\t// out\n        /* \"#utility.yul\":1356:1722   */\n    tag_29:\n        /* \"#utility.yul\":1498:1501   */\n      0x00\n        /* \"#utility.yul\":1519:1586   */\n      tag_45\n        /* \"#utility.yul\":1583:1585   */\n      0x18\n        /* \"#utility.yul\":1578:1581   */\n      dup4\n        /* \"#utility.yul\":1519:1586   */\n      tag_27\n      jump\t// in\n    tag_45:\n        /* \"#utility.yul\":1512:1586   */\n      swap2\n      pop\n        /* \"#utility.yul\":1595:1688   */\n      tag_46\n        /* \"#utility.yul\":1684:1687   */\n      dup3\n        /* \"#utility.yul\":1595:1688   */\n      tag_28\n      jump\t// in\n    tag_46:\n        /* \"#utility.yul\":1713:1715   */\n      0x20\n        /* \"#utility.yul\":1708:1711   */\n      dup3\n        /* \"#utility.yul\":1704:1716   */\n      add\n        /* \"#utility.yul\":1697:1716   */\n      swap1\n      pop\n        /* \"#utility.yul\":1356:1722   */\n      swap2\n      swap1\n      pop\n      jump\t// out\n        /* \"#utility.yul\":1728:2147   */\n    tag_21:\n        /* \"#utility.yul\":1894:1898   */\n      0x00\n        /* \"#utility.yul\":1932:1934   */\n      0x20\n        /* \"#utility.yul\":1921:1930   */\n      dup3\n        /* \"#utility.yul\":1917:1935   */\n      add\n        /* \"#utility.yul\":1909:1935   */\n      swap1\n      pop\n        /* \"#utility.yul\":1981:1990   */\n      dup2\n        /* \"#utility.yul\":1975:1979   */\n      dup2\n        /* \"#utility.yul\":1971:1991   */\n      sub\n        /* \"#utility.yul\":1967:1968   */\n      0x00\n        /* \"#utility.yul\":1956:1965   */\n      dup4\n        /* \"#utility.yul\":1952:1969   */\n      add\n        /* \"#utility.yul\":1945:1992   */\n      mstore\n        /* \"#utility.yul\":2009:2140   */\n      tag_48\n        /* \"#utility.yul\":2135:2139   */\n      dup2\n        /* \"#utility.yul\":2009:2140   */\n      tag_29\n      jump\t// in\n    tag_48:\n        /* \"#utility.yul\":2001:2140   */\n      swap1\n      pop\n        /* \"#utility.yul\":1728:2147   */\n      swap2\n      swap1\n      pop\n      jump\t// out\n        /* \"#utility.yul\":2153:2525   */\n    tag_23:\n        /* \"#utility.yul\":2192:2196   */\n      0x00\n        /* \"#utility.yul\":2212:2231   */\n      tag_50\n        /* \"#utility.yul\":2229:2230   */\n      dup3\n        /* \"#utility.yul\":2212:2231   */\n      tag_24\n      jump\t// in\n    tag_50:\n        /* \"#utility.yul\":2207:2231   */\n      swap2\n      pop\n        /* \"#utility.yul\":2245:2264   */\n      tag_51\n        /* \"#utility.yul\":2262:2263   */\n      dup4\n        /* \"#utility.yul\":2245:2264   */\n      tag_24\n      jump\t// in\n    tag_51:\n        /* \"#utility.yul\":2240:2264   */\n      swap3\n      pop\n        /* \"#utility.yul\":2288:2289   */\n      dup3\n        /* \"#utility.yul\":2285:2286   */\n      dup3\n        /* \"#utility.yul\":2281:2290   */\n      sub\n        /* \"#utility.yul\":2273:2290   */\n      swap1\n      pop\n        /* \"#utility.yul\":2482:2483   */\n      dup2\n        /* \"#utility.yul\":2476:2480   */\n      dup2\n        /* \"#utility.yul\":2472:2484   */\n      slt\n        /* \"#utility.yul\":2468:2469   */\n      0x00\n        /* \"#utility.yul\":2465:2466   */\n      dup5\n        /* \"#utility.yul\":2461:2470   */\n      slt\n        /* \"#utility.yul\":2457:2485   */\n      and\n        /* \"#utility.yul\":2440:2441   */\n      dup3\n        /* \"#utility.yul\":2434:2438   */\n      dup3\n        /* \"#utility.yul\":2430:2442   */\n      sgt\n        /* \"#utility.yul\":2425:2426   */\n      0x00\n        /* \"#utility.yul\":2422:2423   */\n      dup6\n        /* \"#utility.yul\":2418:2427   */\n      slt\n        /* \"#utility.yul\":2411:2428   */\n      iszero\n        /* \"#utility.yul\":2407:2443   */\n      and\n        /* \"#utility.yul\":2391:2495   */\n      or\n        /* \"#utility.yul\":2388:2518   */\n      iszero\n      tag_52\n      jumpi\n        /* \"#utility.yul\":2498:2516   */\n      tag_53\n      tag_26\n      jump\t// in\n    tag_53:\n        /* \"#utility.yul\":2388:2518   */\n    tag_52:\n        /* \"#utility.yul\":2153:2525   */\n      swap3\n      swap2\n      pop\n      pop\n      jump\t// out\n\n    auxdata: 0xa26469706673582212205b14727559c04cff8135c10b18abf09586fabc827ccc56353fdf3c3efd4d74dc64736f6c634300081f0033\n}\n",
				"bytecode": {
					"linkReferences": {},
					"object": "6080604052348015600e575f5ffd5b506102818061001c5f395ff3fe608060405234801561000f575f5ffd5b506004361061003f575f3560e01c8063371303c014610043578063a87d942c1461004d578063b3bcfa821461006b575b5f5ffd5b61004b610075565b005b61005561008f565b604051610062919061010c565b60405180910390f35b610073610097565b005b60015f5f8282546100869190610152565b92505081905550565b5f5f54905090565b5f5f54136100da576040517f08c379a00000000000000000000000000000000000000000000000000000000081526004016100d1906101ed565b60405180910390fd5b60015f5f8282546100eb919061020b565b92505081905550565b5f819050919050565b610106816100f4565b82525050565b5f60208201905061011f5f8301846100fd565b92915050565b7f4e487b71000000000000000000000000000000000000000000000000000000005f52601160045260245ffd5b5f61015c826100f4565b9150610167836100f4565b92508282019050828112155f8312168382125f84121516171561018d5761018c610125565b5b92915050565b5f82825260208201905092915050565b7f636f756e742063616e6e6f74206265206e6567617469766500000000000000005f82015250565b5f6101d7601883610193565b91506101e2826101a3565b602082019050919050565b5f6020820190508181035f830152610204816101cb565b9050919050565b5f610215826100f4565b9150610220836100f4565b925082820390508181125f8412168282135f85121516171561024557610244610125565b5b9291505056fea26469706673582212205b14727559c04cff8135c10b18abf09586fabc827ccc56353fdf3c3efd4d74dc64736f6c634300081f0033",
					"opcodes": "PUSH1 0x80 PUSH1 0x40 MSTORE CALLVALUE DUP1 ISZERO PUSH1 0xE JUMPI PUSH0 PUSH0 REVERT JUMPDEST POP PUSH2 0x281 DUP1 PUSH2 0x1C PUSH0 CODECOPY PUSH0 RETURN INVALID PUSH1 0x80 PUSH1 0x40 MSTORE CALLVALUE DUP1 ISZERO PUSH2 0xF JUMPI PUSH0 PUSH0 REVERT JUMPDEST POP PUSH1 0x4 CALLDATASIZE LT PUSH2 0x3F JUMPI PUSH0 CALLDATALOAD PUSH1 0xE0 SHR DUP1 PUSH4 0x371303C0 EQ PUSH2 0x43 JUMPI DUP1 PUSH4 0xA87D942C EQ PUSH2 0x4D JUMPI DUP1 PUSH4 0xB3BCFA82 EQ PUSH2 0x6B JUMPI JUMPDEST PUSH0 PUSH0 REVERT JUMPDEST PUSH2 0x4B PUSH2 0x75 JUMP JUMPDEST STOP JUMPDEST PUSH2 0x55 PUSH2 0x8F JUMP JUMPDEST PUSH1 0x40 MLOAD PUSH2 0x62 SWAP2 SWAP1 PUSH2 0x10C JUMP JUMPDEST PUSH1 0x40 MLOAD DUP1 SWAP2 SUB SWAP1 RETURN JUMPDEST PUSH2 0x73 PUSH2 0x97 JUMP JUMPDEST STOP JUMPDEST PUSH1 0x1 PUSH0 PUSH0 DUP3 DUP3 SLOAD PUSH2 0x86 SWAP2 SWAP1 PUSH2 0x152 JUMP JUMPDEST SWAP3 POP POP DUP2 SWAP1 SSTORE POP JUMP JUMPDEST PUSH0 PUSH0 SLOAD SWAP1 POP SWAP1 JUMP JUMPDEST PUSH0 PUSH0 SLOAD SGT PUSH2 0xDA JUMPI PUSH1 0x40 MLOAD PUSH32 0x8C379A000000000000000000000000000000000000000000000000000000000 DUP2 MSTORE PUSH1 0x4 ADD PUSH2 0xD1 SWAP1 PUSH2 0x1ED JUMP JUMPDEST PUSH1 0x40 MLOAD DUP1 SWAP2 SUB SWAP1 REVERT JUMPDEST PUSH1 0x1 PUSH0 PUSH0 DUP3 DUP3 SLOAD PUSH2 0xEB SWAP2 SWAP1 PUSH2 0x20B JUMP JUMPDEST SWAP3 POP POP DUP2 SWAP1 SSTORE POP JUMP JUMPDEST PUSH0 DUP2 SWAP1 POP SWAP2 SWAP1 POP JUMP JUMPDEST PUSH2 0x106 DUP2 PUSH2 0xF4 JUMP JUMPDEST DUP3 MSTORE POP POP JUMP JUMPDEST PUSH0 PUSH1 0x20 DUP3 ADD SWAP1 POP PUSH2 0x11F PUSH0 DUP4 ADD DUP5 PUSH2 0xFD JUMP JUMPDEST SWAP3 SWAP2 POP POP JUMP JUMPDEST PUSH32 0x4E487B7100000000000000000000000000000000000000000000000000000000 PUSH0 MSTORE PUSH1 0x11 PUSH1 0x4 MSTORE PUSH1 0x24 PUSH0 REVERT JUMPDEST PUSH0 PUSH2 0x15C DUP3 PUSH2 0xF4 JUMP JUMPDEST SWAP2 POP PUSH2 0x167 DUP4 PUSH2 0xF4 JUMP JUMPDEST SWAP3 POP DUP3 DUP3 ADD SWAP1 POP DUP3 DUP2 SLT ISZERO PUSH0 DUP4 SLT AND DUP4 DUP3 SLT PUSH0 DUP5 SLT ISZERO AND OR ISZERO PUSH2 0x18D JUMPI PUSH2 0x18C PUSH2 0x125 JUMP JUMPDEST JUMPDEST SWAP3 SWAP2 POP POP JUMP JUMPDEST PUSH0 DUP3 DUP3 MSTORE PUSH1 0x20 DUP3 ADD SWAP1 POP SWAP3 SWAP2 POP POP JUMP JUMPDEST PUSH32 0x636F756E742063616E6E6F74206265206E656761746976650000000000000000 PUSH0 DUP3 ADD MSTORE POP JUMP JUMPDEST PUSH0 PUSH2 0x1D7 PUSH1 0x18 DUP4 PUSH2 0x193 JUMP JUMPDEST SWAP2 POP PUSH2 0x1E2 DUP3 PUSH2 0x1A3 JUMP JUMPDEST PUSH1 0x20 DUP3 ADD SWAP1 POP SWAP2 SWAP1 POP JUMP JUMPDEST PUSH0 PUSH1 0x20 DUP3 ADD SWAP1 POP DUP2 DUP2 SUB PUSH0 DUP4 ADD MSTORE PUSH2 0x204 DUP2 PUSH2 0x1CB JUMP JUMPDEST SWAP1 POP SWAP2 SWAP1 POP JUMP JUMPDEST PUSH0 PUSH2 0x215 DUP3 PUSH2 0xF4 JUMP JUMPDEST SWAP2 POP PUSH2 0x220 DUP4 PUSH2 0xF4 JUMP JUMPDEST SWAP3 POP DUP3 DUP3 SUB SWAP1 POP DUP2 DUP2 SLT PUSH0 DUP5 SLT AND DUP3 DUP3 SGT PUSH0 DUP6 SLT ISZERO AND OR ISZERO PUSH2 0x245 JUMPI PUSH2 0x244 PUSH2 0x125 JUMP JUMPDEST JUMPDEST SWAP3 SWAP2 POP POP JUMP INVALID LOG2 PUSH5 0x6970667358 0x22 SLT KECCAK256 JUMPDEST EQ PUSH19 0x7559C04CFF8135C10B18ABF09586FABC827CCC JUMP CALLDATALOAD EXTCODEHASH 0xDF EXTCODECOPY RETURNDATACOPY REVERT 0x4D PUSH21 0xDC64736F6C634300081F0033000000000000000000 "
				},
				"gasEstimates": {
					"creation": {
						"codeDepositCost": "128200",
						"executionCost": "175",
						"totalCost": "128375"
					},
					"external": {
						"dec()": "infinite",
						"getCount()": "2431",
						"inc()": "infinite"
					}
				},
				"methodIdentifiers": {
					"dec()": "b3bcfa82",
					"getCount()": "a87d942c",
					"inc()": "371303c0"
				}
			},
			"storageLayout": {
				"storage": [
					{
						"astId": 3,
						"contract": "Sol_by_Example/Basics/firstAppCounter.sol:Counter",
						"label": "count",
						"offset": 0,
						"slot": "0",
						"type": "t_int256"
					}
				],
				"types": {
					"t_int256": {
						"encoding": "inplace",
						"label": "int256",
						"numberOfBytes": "32"
					}
				}
			},
			"userdoc": {
				"kind": "user",
				"methods": {},
				"version": 1
			}
		}
	}
}