{
	"Sol_by_Example/Basics/39.BitwiseOperations.sol": {
		"MostSignificantBitAssembly": {
			"abi": [
				{
					"inputs": [
						{
							"internalType": "uint256",
							"name": "x",
							"type": "uint256"
						}
					],
					"name": "mostSignificantBit",
					"outputs": [
						{
							"internalType": "uint256",
							"name": "msb",
							"type": "uint256"
						}
					],
					"stateMutability": "pure",
					"type": "function"
				}
			],
			"devdoc": {
				"kind": "dev",
				"methods": {},
				"version": 1
			},
			"evm": {
				"assembly": "    /* \"Sol_by_Example/Basics/39.BitwiseOperations.sol\":4060:5287  contract MostSignificantBitAssembly {... */\n  mstore(0x40, 0x80)\n  callvalue\n  dup1\n  iszero\n  tag_1\n  jumpi\n  revert(0x00, 0x00)\ntag_1:\n  pop\n  dataSize(sub_0)\n  dup1\n  dataOffset(sub_0)\n  0x00\n  codecopy\n  0x00\n  return\nstop\n\nsub_0: assembly {\n        /* \"Sol_by_Example/Basics/39.BitwiseOperations.sol\":4060:5287  contract MostSignificantBitAssembly {... */\n      mstore(0x40, 0x80)\n      callvalue\n      dup1\n      iszero\n      tag_1\n      jumpi\n      revert(0x00, 0x00)\n    tag_1:\n      pop\n      jumpi(tag_2, lt(calldatasize, 0x04))\n      shr(0xe0, calldataload(0x00))\n      dup1\n      0xe6bcbc65\n      eq\n      tag_3\n      jumpi\n    tag_2:\n      revert(0x00, 0x00)\n        /* \"Sol_by_Example/Basics/39.BitwiseOperations.sol\":4102:5285  function mostSignificantBit(uint256 x)... */\n    tag_3:\n      tag_4\n      0x04\n      dup1\n      calldatasize\n      sub\n      dup2\n      add\n      swap1\n      tag_5\n      swap2\n      swap1\n      tag_6\n      jump\t// in\n    tag_5:\n      tag_7\n      jump\t// in\n    tag_4:\n      mload(0x40)\n      tag_8\n      swap2\n      swap1\n      tag_9\n      jump\t// in\n    tag_8:\n      mload(0x40)\n      dup1\n      swap2\n      sub\n      swap1\n      return\n    tag_7:\n        /* \"Sol_by_Example/Basics/39.BitwiseOperations.sol\":4188:4199  uint256 msb */\n      0x00\n        /* \"Sol_by_Example/Basics/39.BitwiseOperations.sol\":4260:4294  0xFFFFFFFFFFFFFFFFFFFFFFFFFFFFFFFF */\n      0xffffffffffffffffffffffffffffffff\n        /* \"Sol_by_Example/Basics/39.BitwiseOperations.sol\":4257:4258  x */\n      dup3\n        /* \"Sol_by_Example/Basics/39.BitwiseOperations.sol\":4254:4295  gt(x, 0xFFFFFFFFFFFFFFFFFFFFFFFFFFFFFFFF) */\n      gt\n        /* \"Sol_by_Example/Basics/39.BitwiseOperations.sol\":4251:4252  7 */\n      0x07\n        /* \"Sol_by_Example/Basics/39.BitwiseOperations.sol\":4247:4296  shl(7, gt(x, 0xFFFFFFFFFFFFFFFFFFFFFFFFFFFFFFFF)) */\n      shl\n        /* \"Sol_by_Example/Basics/39.BitwiseOperations.sol\":4321:4322  x */\n      dup3\n        /* \"Sol_by_Example/Basics/39.BitwiseOperations.sol\":4318:4319  f */\n      dup2\n        /* \"Sol_by_Example/Basics/39.BitwiseOperations.sol\":4314:4323  shr(f, x) */\n      shr\n        /* \"Sol_by_Example/Basics/39.BitwiseOperations.sol\":4309:4323  x := shr(f, x) */\n      swap3\n      pop\n        /* \"Sol_by_Example/Basics/39.BitwiseOperations.sol\":4394:4395  f */\n      dup1\n        /* \"Sol_by_Example/Basics/39.BitwiseOperations.sol\":4389:4392  msb */\n      dup3\n        /* \"Sol_by_Example/Basics/39.BitwiseOperations.sol\":4386:4396  or(msb, f) */\n      or\n        /* \"Sol_by_Example/Basics/39.BitwiseOperations.sol\":4379:4396  msb := or(msb, f) */\n      swap2\n      pop\n        /* \"Sol_by_Example/Basics/39.BitwiseOperations.sol\":4224:4406  {... */\n      pop\n        /* \"Sol_by_Example/Basics/39.BitwiseOperations.sol\":4460:4478  0xFFFFFFFFFFFFFFFF */\n      0xffffffffffffffff\n        /* \"Sol_by_Example/Basics/39.BitwiseOperations.sol\":4457:4458  x */\n      dup3\n        /* \"Sol_by_Example/Basics/39.BitwiseOperations.sol\":4454:4479  gt(x, 0xFFFFFFFFFFFFFFFF) */\n      gt\n        /* \"Sol_by_Example/Basics/39.BitwiseOperations.sol\":4451:4452  6 */\n      0x06\n        /* \"Sol_by_Example/Basics/39.BitwiseOperations.sol\":4447:4480  shl(6, gt(x, 0xFFFFFFFFFFFFFFFF)) */\n      shl\n        /* \"Sol_by_Example/Basics/39.BitwiseOperations.sol\":4505:4506  x */\n      dup3\n        /* \"Sol_by_Example/Basics/39.BitwiseOperations.sol\":4502:4503  f */\n      dup2\n        /* \"Sol_by_Example/Basics/39.BitwiseOperations.sol\":4498:4507  shr(f, x) */\n      shr\n        /* \"Sol_by_Example/Basics/39.BitwiseOperations.sol\":4493:4507  x := shr(f, x) */\n      swap3\n      pop\n        /* \"Sol_by_Example/Basics/39.BitwiseOperations.sol\":4535:4536  f */\n      dup1\n        /* \"Sol_by_Example/Basics/39.BitwiseOperations.sol\":4530:4533  msb */\n      dup3\n        /* \"Sol_by_Example/Basics/39.BitwiseOperations.sol\":4527:4537  or(msb, f) */\n      or\n        /* \"Sol_by_Example/Basics/39.BitwiseOperations.sol\":4520:4537  msb := or(msb, f) */\n      swap2\n      pop\n        /* \"Sol_by_Example/Basics/39.BitwiseOperations.sol\":4424:4547  {... */\n      pop\n        /* \"Sol_by_Example/Basics/39.BitwiseOperations.sol\":4601:4611  0xFFFFFFFF */\n      0xffffffff\n        /* \"Sol_by_Example/Basics/39.BitwiseOperations.sol\":4598:4599  x */\n      dup3\n        /* \"Sol_by_Example/Basics/39.BitwiseOperations.sol\":4595:4612  gt(x, 0xFFFFFFFF) */\n      gt\n        /* \"Sol_by_Example/Basics/39.BitwiseOperations.sol\":4592:4593  5 */\n      0x05\n        /* \"Sol_by_Example/Basics/39.BitwiseOperations.sol\":4588:4613  shl(5, gt(x, 0xFFFFFFFF)) */\n      shl\n        /* \"Sol_by_Example/Basics/39.BitwiseOperations.sol\":4638:4639  x */\n      dup3\n        /* \"Sol_by_Example/Basics/39.BitwiseOperations.sol\":4635:4636  f */\n      dup2\n        /* \"Sol_by_Example/Basics/39.BitwiseOperations.sol\":4631:4640  shr(f, x) */\n      shr\n        /* \"Sol_by_Example/Basics/39.BitwiseOperations.sol\":4626:4640  x := shr(f, x) */\n      swap3\n      pop\n        /* \"Sol_by_Example/Basics/39.BitwiseOperations.sol\":4668:4669  f */\n      dup1\n        /* \"Sol_by_Example/Basics/39.BitwiseOperations.sol\":4663:4666  msb */\n      dup3\n        /* \"Sol_by_Example/Basics/39.BitwiseOperations.sol\":4660:4670  or(msb, f) */\n      or\n        /* \"Sol_by_Example/Basics/39.BitwiseOperations.sol\":4653:4670  msb := or(msb, f) */\n      swap2\n      pop\n        /* \"Sol_by_Example/Basics/39.BitwiseOperations.sol\":4565:4680  {... */\n      pop\n        /* \"Sol_by_Example/Basics/39.BitwiseOperations.sol\":4734:4740  0xFFFF */\n      0xffff\n        /* \"Sol_by_Example/Basics/39.BitwiseOperations.sol\":4731:4732  x */\n      dup3\n        /* \"Sol_by_Example/Basics/39.BitwiseOperations.sol\":4728:4741  gt(x, 0xFFFF) */\n      gt\n        /* \"Sol_by_Example/Basics/39.BitwiseOperations.sol\":4725:4726  4 */\n      0x04\n        /* \"Sol_by_Example/Basics/39.BitwiseOperations.sol\":4721:4742  shl(4, gt(x, 0xFFFF)) */\n      shl\n        /* \"Sol_by_Example/Basics/39.BitwiseOperations.sol\":4767:4768  x */\n      dup3\n        /* \"Sol_by_Example/Basics/39.BitwiseOperations.sol\":4764:4765  f */\n      dup2\n        /* \"Sol_by_Example/Basics/39.BitwiseOperations.sol\":4760:4769  shr(f, x) */\n      shr\n        /* \"Sol_by_Example/Basics/39.BitwiseOperations.sol\":4755:4769  x := shr(f, x) */\n      swap3\n      pop\n        /* \"Sol_by_Example/Basics/39.BitwiseOperations.sol\":4797:4798  f */\n      dup1\n        /* \"Sol_by_Example/Basics/39.BitwiseOperations.sol\":4792:4795  msb */\n      dup3\n        /* \"Sol_by_Example/Basics/39.BitwiseOperations.sol\":4789:4799  or(msb, f) */\n      or\n        /* \"Sol_by_Example/Basics/39.BitwiseOperations.sol\":4782:4799  msb := or(msb, f) */\n      swap2\n      pop\n        /* \"Sol_by_Example/Basics/39.BitwiseOperations.sol\":4698:4809  {... */\n      pop\n        /* \"Sol_by_Example/Basics/39.BitwiseOperations.sol\":4863:4867  0xFF */\n      0xff\n        /* \"Sol_by_Example/Basics/39.BitwiseOperations.sol\":4860:4861  x */\n      dup3\n        /* \"Sol_by_Example/Basics/39.BitwiseOperations.sol\":4857:4868  gt(x, 0xFF) */\n      gt\n        /* \"Sol_by_Example/Basics/39.BitwiseOperations.sol\":4854:4855  3 */\n      0x03\n        /* \"Sol_by_Example/Basics/39.BitwiseOperations.sol\":4850:4869  shl(3, gt(x, 0xFF)) */\n      shl\n        /* \"Sol_by_Example/Basics/39.BitwiseOperations.sol\":4894:4895  x */\n      dup3\n        /* \"Sol_by_Example/Basics/39.BitwiseOperations.sol\":4891:4892  f */\n      dup2\n        /* \"Sol_by_Example/Basics/39.BitwiseOperations.sol\":4887:4896  shr(f, x) */\n      shr\n        /* \"Sol_by_Example/Basics/39.BitwiseOperations.sol\":4882:4896  x := shr(f, x) */\n      swap3\n      pop\n        /* \"Sol_by_Example/Basics/39.BitwiseOperations.sol\":4924:4925  f */\n      dup1\n        /* \"Sol_by_Example/Basics/39.BitwiseOperations.sol\":4919:4922  msb */\n      dup3\n        /* \"Sol_by_Example/Basics/39.BitwiseOperations.sol\":4916:4926  or(msb, f) */\n      or\n        /* \"Sol_by_Example/Basics/39.BitwiseOperations.sol\":4909:4926  msb := or(msb, f) */\n      swap2\n      pop\n        /* \"Sol_by_Example/Basics/39.BitwiseOperations.sol\":4827:4936  {... */\n      pop\n        /* \"Sol_by_Example/Basics/39.BitwiseOperations.sol\":4990:4993  0xF */\n      0x0f\n        /* \"Sol_by_Example/Basics/39.BitwiseOperations.sol\":4987:4988  x */\n      dup3\n        /* \"Sol_by_Example/Basics/39.BitwiseOperations.sol\":4984:4994  gt(x, 0xF) */\n      gt\n        /* \"Sol_by_Example/Basics/39.BitwiseOperations.sol\":4981:4982  2 */\n      0x02\n        /* \"Sol_by_Example/Basics/39.BitwiseOperations.sol\":4977:4995  shl(2, gt(x, 0xF)) */\n      shl\n        /* \"Sol_by_Example/Basics/39.BitwiseOperations.sol\":5020:5021  x */\n      dup3\n        /* \"Sol_by_Example/Basics/39.BitwiseOperations.sol\":5017:5018  f */\n      dup2\n        /* \"Sol_by_Example/Basics/39.BitwiseOperations.sol\":5013:5022  shr(f, x) */\n      shr\n        /* \"Sol_by_Example/Basics/39.BitwiseOperations.sol\":5008:5022  x := shr(f, x) */\n      swap3\n      pop\n        /* \"Sol_by_Example/Basics/39.BitwiseOperations.sol\":5050:5051  f */\n      dup1\n        /* \"Sol_by_Example/Basics/39.BitwiseOperations.sol\":5045:5048  msb */\n      dup3\n        /* \"Sol_by_Example/Basics/39.BitwiseOperations.sol\":5042:5052  or(msb, f) */\n      or\n        /* \"Sol_by_Example/Basics/39.BitwiseOperations.sol\":5035:5052  msb := or(msb, f) */\n      swap2\n      pop\n        /* \"Sol_by_Example/Basics/39.BitwiseOperations.sol\":4954:5062  {... */\n      pop\n        /* \"Sol_by_Example/Basics/39.BitwiseOperations.sol\":5116:5119  0x3 */\n      0x03\n        /* \"Sol_by_Example/Basics/39.BitwiseOperations.sol\":5113:5114  x */\n      dup3\n        /* \"Sol_by_Example/Basics/39.BitwiseOperations.sol\":5110:5120  gt(x, 0x3) */\n      gt\n        /* \"Sol_by_Example/Basics/39.BitwiseOperations.sol\":5107:5108  1 */\n      0x01\n        /* \"Sol_by_Example/Basics/39.BitwiseOperations.sol\":5103:5121  shl(1, gt(x, 0x3)) */\n      shl\n        /* \"Sol_by_Example/Basics/39.BitwiseOperations.sol\":5146:5147  x */\n      dup3\n        /* \"Sol_by_Example/Basics/39.BitwiseOperations.sol\":5143:5144  f */\n      dup2\n        /* \"Sol_by_Example/Basics/39.BitwiseOperations.sol\":5139:5148  shr(f, x) */\n      shr\n        /* \"Sol_by_Example/Basics/39.BitwiseOperations.sol\":5134:5148  x := shr(f, x) */\n      swap3\n      pop\n        /* \"Sol_by_Example/Basics/39.BitwiseOperations.sol\":5176:5177  f */\n      dup1\n        /* \"Sol_by_Example/Basics/39.BitwiseOperations.sol\":5171:5174  msb */\n      dup3\n        /* \"Sol_by_Example/Basics/39.BitwiseOperations.sol\":5168:5178  or(msb, f) */\n      or\n        /* \"Sol_by_Example/Basics/39.BitwiseOperations.sol\":5161:5178  msb := or(msb, f) */\n      swap2\n      pop\n        /* \"Sol_by_Example/Basics/39.BitwiseOperations.sol\":5080:5188  {... */\n      pop\n        /* \"Sol_by_Example/Basics/39.BitwiseOperations.sol\":5235:5238  0x1 */\n      0x01\n        /* \"Sol_by_Example/Basics/39.BitwiseOperations.sol\":5232:5233  x */\n      dup3\n        /* \"Sol_by_Example/Basics/39.BitwiseOperations.sol\":5229:5239  gt(x, 0x1) */\n      gt\n        /* \"Sol_by_Example/Basics/39.BitwiseOperations.sol\":5267:5268  f */\n      dup1\n        /* \"Sol_by_Example/Basics/39.BitwiseOperations.sol\":5262:5265  msb */\n      dup3\n        /* \"Sol_by_Example/Basics/39.BitwiseOperations.sol\":5259:5269  or(msb, f) */\n      or\n        /* \"Sol_by_Example/Basics/39.BitwiseOperations.sol\":5252:5269  msb := or(msb, f) */\n      swap2\n      pop\n        /* \"Sol_by_Example/Basics/39.BitwiseOperations.sol\":5206:5279  {... */\n      pop\n        /* \"Sol_by_Example/Basics/39.BitwiseOperations.sol\":4102:5285  function mostSignificantBit(uint256 x)... */\n      swap2\n      swap1\n      pop\n      jump\t// out\n        /* \"#utility.yul\":88:205   */\n    tag_12:\n        /* \"#utility.yul\":197:198   */\n      0x00\n        /* \"#utility.yul\":194:195   */\n      0x00\n        /* \"#utility.yul\":187:199   */\n      revert\n        /* \"#utility.yul\":334:411   */\n    tag_14:\n        /* \"#utility.yul\":371:378   */\n      0x00\n        /* \"#utility.yul\":400:405   */\n      dup2\n        /* \"#utility.yul\":389:405   */\n      swap1\n      pop\n        /* \"#utility.yul\":334:411   */\n      swap2\n      swap1\n      pop\n      jump\t// out\n        /* \"#utility.yul\":417:539   */\n    tag_15:\n        /* \"#utility.yul\":490:514   */\n      tag_24\n        /* \"#utility.yul\":508:513   */\n      dup2\n        /* \"#utility.yul\":490:514   */\n      tag_14\n      jump\t// in\n    tag_24:\n        /* \"#utility.yul\":483:488   */\n      dup2\n        /* \"#utility.yul\":480:515   */\n      eq\n        /* \"#utility.yul\":470:533   */\n      tag_25\n      jumpi\n        /* \"#utility.yul\":529:530   */\n      0x00\n        /* \"#utility.yul\":526:527   */\n      0x00\n        /* \"#utility.yul\":519:531   */\n      revert\n        /* \"#utility.yul\":470:533   */\n    tag_25:\n        /* \"#utility.yul\":417:539   */\n      pop\n      jump\t// out\n        /* \"#utility.yul\":545:684   */\n    tag_16:\n        /* \"#utility.yul\":591:596   */\n      0x00\n        /* \"#utility.yul\":629:635   */\n      dup2\n        /* \"#utility.yul\":616:636   */\n      calldataload\n        /* \"#utility.yul\":607:636   */\n      swap1\n      pop\n        /* \"#utility.yul\":645:678   */\n      tag_27\n        /* \"#utility.yul\":672:677   */\n      dup2\n        /* \"#utility.yul\":645:678   */\n      tag_15\n      jump\t// in\n    tag_27:\n        /* \"#utility.yul\":545:684   */\n      swap3\n      swap2\n      pop\n      pop\n      jump\t// out\n        /* \"#utility.yul\":690:1019   */\n    tag_6:\n        /* \"#utility.yul\":749:755   */\n      0x00\n        /* \"#utility.yul\":798:800   */\n      0x20\n        /* \"#utility.yul\":786:795   */\n      dup3\n        /* \"#utility.yul\":777:784   */\n      dup5\n        /* \"#utility.yul\":773:796   */\n      sub\n        /* \"#utility.yul\":769:801   */\n      slt\n        /* \"#utility.yul\":766:885   */\n      iszero\n      tag_29\n      jumpi\n        /* \"#utility.yul\":804:883   */\n      tag_30\n      tag_12\n      jump\t// in\n    tag_30:\n        /* \"#utility.yul\":766:885   */\n    tag_29:\n        /* \"#utility.yul\":924:925   */\n      0x00\n        /* \"#utility.yul\":949:1002   */\n      tag_31\n        /* \"#utility.yul\":994:1001   */\n      dup5\n        /* \"#utility.yul\":985:991   */\n      dup3\n        /* \"#utility.yul\":974:983   */\n      dup6\n        /* \"#utility.yul\":970:992   */\n      add\n        /* \"#utility.yul\":949:1002   */\n      tag_16\n      jump\t// in\n    tag_31:\n        /* \"#utility.yul\":939:1002   */\n      swap2\n      pop\n        /* \"#utility.yul\":895:1012   */\n      pop\n        /* \"#utility.yul\":690:1019   */\n      swap3\n      swap2\n      pop\n      pop\n      jump\t// out\n        /* \"#utility.yul\":1025:1143   */\n    tag_17:\n        /* \"#utility.yul\":1112:1136   */\n      tag_33\n        /* \"#utility.yul\":1130:1135   */\n      dup2\n        /* \"#utility.yul\":1112:1136   */\n      tag_14\n      jump\t// in\n    tag_33:\n        /* \"#utility.yul\":1107:1110   */\n      dup3\n        /* \"#utility.yul\":1100:1137   */\n      mstore\n        /* \"#utility.yul\":1025:1143   */\n      pop\n      pop\n      jump\t// out\n        /* \"#utility.yul\":1149:1371   */\n    tag_9:\n        /* \"#utility.yul\":1242:1246   */\n      0x00\n        /* \"#utility.yul\":1280:1282   */\n      0x20\n        /* \"#utility.yul\":1269:1278   */\n      dup3\n        /* \"#utility.yul\":1265:1283   */\n      add\n        /* \"#utility.yul\":1257:1283   */\n      swap1\n      pop\n        /* \"#utility.yul\":1293:1364   */\n      tag_35\n        /* \"#utility.yul\":1361:1362   */\n      0x00\n        /* \"#utility.yul\":1350:1359   */\n      dup4\n        /* \"#utility.yul\":1346:1363   */\n      add\n        /* \"#utility.yul\":1337:1343   */\n      dup5\n        /* \"#utility.yul\":1293:1364   */\n      tag_17\n      jump\t// in\n    tag_35:\n        /* \"#utility.yul\":1149:1371   */\n      swap3\n      swap2\n      pop\n      pop\n      jump\t// out\n\n    auxdata: 0xa26469706673582212209ca08297903e31fe2cddefad4bb14cfae65b8f32c89734dd4ba3794300549ed864736f6c634300081f0033\n}\n",
				"bytecode": {
					"linkReferences": {},
					"object": "6080604052348015600e575f5ffd5b506101c58061001c5f395ff3fe608060405234801561000f575f5ffd5b5060043610610029575f3560e01c8063e6bcbc651461002d575b5f5ffd5b6100476004803603810190610042919061013c565b61005d565b6040516100549190610176565b60405180910390f35b5f6fffffffffffffffffffffffffffffffff821160071b82811c925080821791505067ffffffffffffffff821160061b82811c925080821791505063ffffffff821160051b82811c925080821791505061ffff821160041b82811c925080821791505060ff821160031b82811c9250808217915050600f821160021b82811c92508082179150506003821160011b82811c925080821791505060018211808217915050919050565b5f5ffd5b5f819050919050565b61011b81610109565b8114610125575f5ffd5b50565b5f8135905061013681610112565b92915050565b5f6020828403121561015157610150610105565b5b5f61015e84828501610128565b91505092915050565b61017081610109565b82525050565b5f6020820190506101895f830184610167565b9291505056fea26469706673582212209ca08297903e31fe2cddefad4bb14cfae65b8f32c89734dd4ba3794300549ed864736f6c634300081f0033",
					"opcodes": "PUSH1 0x80 PUSH1 0x40 MSTORE CALLVALUE DUP1 ISZERO PUSH1 0xE JUMPI PUSH0 PUSH0 REVERT JUMPDEST POP PUSH2 0x1C5 DUP1 PUSH2 0x1C PUSH0 CODECOPY PUSH0 RETURN INVALID PUSH1 0x80 PUSH1 0x40 MSTORE CALLVALUE DUP1 ISZERO PUSH2 0xF JUMPI PUSH0 PUSH0 REVERT JUMPDEST POP PUSH1 0x4 CALLDATASIZE LT PUSH2 0x29 JUMPI PUSH0 CALLDATALOAD PUSH1 0xE0 SHR DUP1 PUSH4 0xE6BCBC65 EQ PUSH2 0x2D JUMPI JUMPDEST PUSH0 PUSH0 REVERT JUMPDEST PUSH2 0x47 PUSH1 0x4 DUP1 CALLDATASIZE SUB DUP2 ADD SWAP1 PUSH2 0x42 SWAP2 SWAP1 PUSH2 0x13C JUMP JUMPDEST PUSH2 0x5D JUMP JUMPDEST PUSH1 0x40 MLOAD PUSH2 0x54 SWAP2 SWAP1 PUSH2 0x176 JUMP JUMPDEST PUSH1 0x40 MLOAD DUP1 SWAP2 SUB SWAP1 RETURN JUMPDEST PUSH0 PUSH16 0xFFFFFFFFFFFFFFFFFFFFFFFFFFFFFFFF DUP3 GT PUSH1 0x7 SHL DUP3 DUP2 SHR SWAP3 POP DUP1 DUP3 OR SWAP2 POP POP PUSH8 0xFFFFFFFFFFFFFFFF DUP3 GT PUSH1 0x6 SHL DUP3 DUP2 SHR SWAP3 POP DUP1 DUP3 OR SWAP2 POP POP PUSH4 0xFFFFFFFF DUP3 GT PUSH1 0x5 SHL DUP3 DUP2 SHR SWAP3 POP DUP1 DUP3 OR SWAP2 POP POP PUSH2 0xFFFF DUP3 GT PUSH1 0x4 SHL DUP3 DUP2 SHR SWAP3 POP DUP1 DUP3 OR SWAP2 POP POP PUSH1 0xFF DUP3 GT PUSH1 0x3 SHL DUP3 DUP2 SHR SWAP3 POP DUP1 DUP3 OR SWAP2 POP POP PUSH1 0xF DUP3 GT PUSH1 0x2 SHL DUP3 DUP2 SHR SWAP3 POP DUP1 DUP3 OR SWAP2 POP POP PUSH1 0x3 DUP3 GT PUSH1 0x1 SHL DUP3 DUP2 SHR SWAP3 POP DUP1 DUP3 OR SWAP2 POP POP PUSH1 0x1 DUP3 GT DUP1 DUP3 OR SWAP2 POP POP SWAP2 SWAP1 POP JUMP JUMPDEST PUSH0 PUSH0 REVERT JUMPDEST PUSH0 DUP2 SWAP1 POP SWAP2 SWAP1 POP JUMP JUMPDEST PUSH2 0x11B DUP2 PUSH2 0x109 JUMP JUMPDEST DUP2 EQ PUSH2 0x125 JUMPI PUSH0 PUSH0 REVERT JUMPDEST POP JUMP JUMPDEST PUSH0 DUP2 CALLDATALOAD SWAP1 POP PUSH2 0x136 DUP2 PUSH2 0x112 JUMP JUMPDEST SWAP3 SWAP2 POP POP JUMP JUMPDEST PUSH0 PUSH1 0x20 DUP3 DUP5 SUB SLT ISZERO PUSH2 0x151 JUMPI PUSH2 0x150 PUSH2 0x105 JUMP JUMPDEST JUMPDEST PUSH0 PUSH2 0x15E DUP5 DUP3 DUP6 ADD PUSH2 0x128 JUMP JUMPDEST SWAP2 POP POP SWAP3 SWAP2 POP POP JUMP JUMPDEST PUSH2 0x170 DUP2 PUSH2 0x109 JUMP JUMPDEST DUP3 MSTORE POP POP JUMP JUMPDEST PUSH0 PUSH1 0x20 DUP3 ADD SWAP1 POP PUSH2 0x189 PUSH0 DUP4 ADD DUP5 PUSH2 0x167 JUMP JUMPDEST SWAP3 SWAP2 POP POP JUMP INVALID LOG2 PUSH5 0x6970667358 0x22 SLT KECCAK256 SWAP13 LOG0 DUP3 SWAP8 SWAP1 RETURNDATACOPY BALANCE INVALID 0x2C 0xDD 0xEF 0xAD 0x4B 0xB1 0x4C STATICCALL DUPN 0x5B DUP16 ORIGIN 0xC8 SWAP8 CALLVALUE 0xDD 0x4B LOG3 PUSH26 0x4300549ED864736F6C634300081F003300000000000000000000 "
				},
				"gasEstimates": {
					"creation": {
						"codeDepositCost": "90600",
						"executionCost": "139",
						"totalCost": "90739"
					},
					"external": {
						"mostSignificantBit(uint256)": "infinite"
					}
				},
				"methodIdentifiers": {
					"mostSignificantBit(uint256)": "e6bcbc65"
				}
			},
			"storageLayout": {
				"storage": [],
				"types": null
			},
			"userdoc": {
				"kind": "user",
				"methods": {},
				"version": 1
			}
		}
	}
}