{
	"Sol_by_Example/Basics/transientStorage.sol": {
		"Callback": {
			"abi": [
				{
					"stateMutability": "nonpayable",
					"type": "fallback"
				},
				{
					"inputs": [
						{
							"internalType": "address",
							"name": "target",
							"type": "address"
						}
					],
					"name": "test",
					"outputs": [],
					"stateMutability": "nonpayable",
					"type": "function"
				},
				{
					"inputs": [],
					"name": "val",
					"outputs": [
						{
							"internalType": "uint256",
							"name": "",
							"type": "uint256"
						}
					],
					"stateMutability": "view",
					"type": "function"
				}
			],
			"devdoc": {
				"kind": "dev",
				"methods": {},
				"version": 1
			},
			"evm": {
				"assembly": "    /* \"Sol_by_Example/Basics/transientStorage.sol\":300:501  contract Callback {... */\n  mstore(0x40, 0x80)\n  callvalue\n  dup1\n  iszero\n  tag_1\n  jumpi\n  revert(0x00, 0x00)\ntag_1:\n  pop\n  dataSize(sub_0)\n  dup1\n  dataOffset(sub_0)\n  0x00\n  codecopy\n  0x00\n  return\nstop\n\nsub_0: assembly {\n        /* \"Sol_by_Example/Basics/transientStorage.sol\":300:501  contract Callback {... */\n      mstore(0x40, 0x80)\n      callvalue\n      dup1\n      iszero\n      tag_1\n      jumpi\n      revert(0x00, 0x00)\n    tag_1:\n      pop\n      jumpi(tag_2, lt(calldatasize, 0x04))\n      shr(0xe0, calldataload(0x00))\n      dup1\n      0x3c6bb436\n      eq\n      tag_4\n      jumpi\n      dup1\n      0xbb29998e\n      eq\n      tag_5\n      jumpi\n      jump(tag_3)\n    tag_2:\n    tag_3:\n        /* \"Sol_by_Example/Basics/transientStorage.sol\":389:399  msg.sender */\n      caller\n        /* \"Sol_by_Example/Basics/transientStorage.sol\":383:404  ITest(msg.sender).val */\n      0xffffffffffffffffffffffffffffffffffffffff\n      and\n      0x3c6bb436\n        /* \"Sol_by_Example/Basics/transientStorage.sol\":383:406  ITest(msg.sender).val() */\n      mload(0x40)\n      dup2\n      0xffffffff\n      and\n      0xe0\n      shl\n      dup2\n      mstore\n      0x04\n      add\n      0x20\n      mload(0x40)\n      dup1\n      dup4\n      sub\n      dup2\n      dup7\n      gas\n      staticcall\n      iszero\n      dup1\n      iszero\n      tag_9\n      jumpi\n      returndatacopy(0x00, 0x00, returndatasize)\n      revert(0x00, returndatasize)\n    tag_9:\n      pop\n      pop\n      pop\n      pop\n      mload(0x40)\n      returndatasize\n      not(0x1f)\n      0x1f\n      dup3\n      add\n      and\n      dup3\n      add\n      dup1\n      0x40\n      mstore\n      pop\n      dup2\n      add\n      swap1\n      tag_10\n      swap2\n      swap1\n      tag_11\n      jump\t// in\n    tag_10:\n        /* \"Sol_by_Example/Basics/transientStorage.sol\":377:380  val */\n      0x00\n        /* \"Sol_by_Example/Basics/transientStorage.sol\":377:406  val = ITest(msg.sender).val() */\n      dup2\n      swap1\n      sstore\n      stop\n        /* \"Sol_by_Example/Basics/transientStorage.sol\":324:339  uint public val */\n    tag_4:\n      tag_12\n      tag_13\n      jump\t// in\n    tag_12:\n      mload(0x40)\n      tag_14\n      swap2\n      swap1\n      tag_15\n      jump\t// in\n    tag_14:\n      mload(0x40)\n      dup1\n      swap2\n      sub\n      swap1\n      return\n        /* \"Sol_by_Example/Basics/transientStorage.sol\":423:499  function test(address target) external {... */\n    tag_5:\n      tag_16\n      0x04\n      dup1\n      calldatasize\n      sub\n      dup2\n      add\n      swap1\n      tag_17\n      swap2\n      swap1\n      tag_18\n      jump\t// in\n    tag_17:\n      tag_19\n      jump\t// in\n    tag_16:\n      stop\n        /* \"Sol_by_Example/Basics/transientStorage.sol\":324:339  uint public val */\n    tag_13:\n      sload(0x00)\n      dup2\n      jump\t// out\n        /* \"Sol_by_Example/Basics/transientStorage.sol\":423:499  function test(address target) external {... */\n    tag_19:\n        /* \"Sol_by_Example/Basics/transientStorage.sol\":478:484  target */\n      dup1\n        /* \"Sol_by_Example/Basics/transientStorage.sol\":472:490  ITest(target).test */\n      0xffffffffffffffffffffffffffffffffffffffff\n      and\n      0xf8a8fd6d\n        /* \"Sol_by_Example/Basics/transientStorage.sol\":472:492  ITest(target).test() */\n      mload(0x40)\n      dup2\n      0xffffffff\n      and\n      0xe0\n      shl\n      dup2\n      mstore\n      0x04\n      add\n      0x00\n      mload(0x40)\n      dup1\n      dup4\n      sub\n      dup2\n      0x00\n      dup8\n      dup1\n      extcodesize\n      iszero\n      dup1\n      iszero\n      tag_21\n      jumpi\n      revert(0x00, 0x00)\n    tag_21:\n      pop\n      gas\n      call\n      iszero\n      dup1\n      iszero\n      tag_23\n      jumpi\n      returndatacopy(0x00, 0x00, returndatasize)\n      revert(0x00, returndatasize)\n    tag_23:\n      pop\n      pop\n      pop\n      pop\n        /* \"Sol_by_Example/Basics/transientStorage.sol\":423:499  function test(address target) external {... */\n      pop\n      jump\t// out\n        /* \"#utility.yul\":88:205   */\n    tag_25:\n        /* \"#utility.yul\":197:198   */\n      0x00\n        /* \"#utility.yul\":194:195   */\n      0x00\n        /* \"#utility.yul\":187:199   */\n      revert\n        /* \"#utility.yul\":334:411   */\n    tag_27:\n        /* \"#utility.yul\":371:378   */\n      0x00\n        /* \"#utility.yul\":400:405   */\n      dup2\n        /* \"#utility.yul\":389:405   */\n      swap1\n      pop\n        /* \"#utility.yul\":334:411   */\n      swap2\n      swap1\n      pop\n      jump\t// out\n        /* \"#utility.yul\":417:539   */\n    tag_28:\n        /* \"#utility.yul\":490:514   */\n      tag_41\n        /* \"#utility.yul\":508:513   */\n      dup2\n        /* \"#utility.yul\":490:514   */\n      tag_27\n      jump\t// in\n    tag_41:\n        /* \"#utility.yul\":483:488   */\n      dup2\n        /* \"#utility.yul\":480:515   */\n      eq\n        /* \"#utility.yul\":470:533   */\n      tag_42\n      jumpi\n        /* \"#utility.yul\":529:530   */\n      0x00\n        /* \"#utility.yul\":526:527   */\n      0x00\n        /* \"#utility.yul\":519:531   */\n      revert\n        /* \"#utility.yul\":470:533   */\n    tag_42:\n        /* \"#utility.yul\":417:539   */\n      pop\n      jump\t// out\n        /* \"#utility.yul\":545:688   */\n    tag_29:\n        /* \"#utility.yul\":602:607   */\n      0x00\n        /* \"#utility.yul\":633:639   */\n      dup2\n        /* \"#utility.yul\":627:640   */\n      mload\n        /* \"#utility.yul\":618:640   */\n      swap1\n      pop\n        /* \"#utility.yul\":649:682   */\n      tag_44\n        /* \"#utility.yul\":676:681   */\n      dup2\n        /* \"#utility.yul\":649:682   */\n      tag_28\n      jump\t// in\n    tag_44:\n        /* \"#utility.yul\":545:688   */\n      swap3\n      swap2\n      pop\n      pop\n      jump\t// out\n        /* \"#utility.yul\":694:1045   */\n    tag_11:\n        /* \"#utility.yul\":764:770   */\n      0x00\n        /* \"#utility.yul\":813:815   */\n      0x20\n        /* \"#utility.yul\":801:810   */\n      dup3\n        /* \"#utility.yul\":792:799   */\n      dup5\n        /* \"#utility.yul\":788:811   */\n      sub\n        /* \"#utility.yul\":784:816   */\n      slt\n        /* \"#utility.yul\":781:900   */\n      iszero\n      tag_46\n      jumpi\n        /* \"#utility.yul\":819:898   */\n      tag_47\n      tag_25\n      jump\t// in\n    tag_47:\n        /* \"#utility.yul\":781:900   */\n    tag_46:\n        /* \"#utility.yul\":939:940   */\n      0x00\n        /* \"#utility.yul\":964:1028   */\n      tag_48\n        /* \"#utility.yul\":1020:1027   */\n      dup5\n        /* \"#utility.yul\":1011:1017   */\n      dup3\n        /* \"#utility.yul\":1000:1009   */\n      dup6\n        /* \"#utility.yul\":996:1018   */\n      add\n        /* \"#utility.yul\":964:1028   */\n      tag_29\n      jump\t// in\n    tag_48:\n        /* \"#utility.yul\":954:1028   */\n      swap2\n      pop\n        /* \"#utility.yul\":910:1038   */\n      pop\n        /* \"#utility.yul\":694:1045   */\n      swap3\n      swap2\n      pop\n      pop\n      jump\t// out\n        /* \"#utility.yul\":1051:1169   */\n    tag_30:\n        /* \"#utility.yul\":1138:1162   */\n      tag_50\n        /* \"#utility.yul\":1156:1161   */\n      dup2\n        /* \"#utility.yul\":1138:1162   */\n      tag_27\n      jump\t// in\n    tag_50:\n        /* \"#utility.yul\":1133:1136   */\n      dup3\n        /* \"#utility.yul\":1126:1163   */\n      mstore\n        /* \"#utility.yul\":1051:1169   */\n      pop\n      pop\n      jump\t// out\n        /* \"#utility.yul\":1175:1397   */\n    tag_15:\n        /* \"#utility.yul\":1268:1272   */\n      0x00\n        /* \"#utility.yul\":1306:1308   */\n      0x20\n        /* \"#utility.yul\":1295:1304   */\n      dup3\n        /* \"#utility.yul\":1291:1309   */\n      add\n        /* \"#utility.yul\":1283:1309   */\n      swap1\n      pop\n        /* \"#utility.yul\":1319:1390   */\n      tag_52\n        /* \"#utility.yul\":1387:1388   */\n      0x00\n        /* \"#utility.yul\":1376:1385   */\n      dup4\n        /* \"#utility.yul\":1372:1389   */\n      add\n        /* \"#utility.yul\":1363:1369   */\n      dup5\n        /* \"#utility.yul\":1319:1390   */\n      tag_30\n      jump\t// in\n    tag_52:\n        /* \"#utility.yul\":1175:1397   */\n      swap3\n      swap2\n      pop\n      pop\n      jump\t// out\n        /* \"#utility.yul\":1403:1529   */\n    tag_31:\n        /* \"#utility.yul\":1440:1447   */\n      0x00\n        /* \"#utility.yul\":1480:1522   */\n      0xffffffffffffffffffffffffffffffffffffffff\n        /* \"#utility.yul\":1473:1478   */\n      dup3\n        /* \"#utility.yul\":1469:1523   */\n      and\n        /* \"#utility.yul\":1458:1523   */\n      swap1\n      pop\n        /* \"#utility.yul\":1403:1529   */\n      swap2\n      swap1\n      pop\n      jump\t// out\n        /* \"#utility.yul\":1535:1631   */\n    tag_32:\n        /* \"#utility.yul\":1572:1579   */\n      0x00\n        /* \"#utility.yul\":1601:1625   */\n      tag_55\n        /* \"#utility.yul\":1619:1624   */\n      dup3\n        /* \"#utility.yul\":1601:1625   */\n      tag_31\n      jump\t// in\n    tag_55:\n        /* \"#utility.yul\":1590:1625   */\n      swap1\n      pop\n        /* \"#utility.yul\":1535:1631   */\n      swap2\n      swap1\n      pop\n      jump\t// out\n        /* \"#utility.yul\":1637:1759   */\n    tag_33:\n        /* \"#utility.yul\":1710:1734   */\n      tag_57\n        /* \"#utility.yul\":1728:1733   */\n      dup2\n        /* \"#utility.yul\":1710:1734   */\n      tag_32\n      jump\t// in\n    tag_57:\n        /* \"#utility.yul\":1703:1708   */\n      dup2\n        /* \"#utility.yul\":1700:1735   */\n      eq\n        /* \"#utility.yul\":1690:1753   */\n      tag_58\n      jumpi\n        /* \"#utility.yul\":1749:1750   */\n      0x00\n        /* \"#utility.yul\":1746:1747   */\n      0x00\n        /* \"#utility.yul\":1739:1751   */\n      revert\n        /* \"#utility.yul\":1690:1753   */\n    tag_58:\n        /* \"#utility.yul\":1637:1759   */\n      pop\n      jump\t// out\n        /* \"#utility.yul\":1765:1904   */\n    tag_34:\n        /* \"#utility.yul\":1811:1816   */\n      0x00\n        /* \"#utility.yul\":1849:1855   */\n      dup2\n        /* \"#utility.yul\":1836:1856   */\n      calldataload\n        /* \"#utility.yul\":1827:1856   */\n      swap1\n      pop\n        /* \"#utility.yul\":1865:1898   */\n      tag_60\n        /* \"#utility.yul\":1892:1897   */\n      dup2\n        /* \"#utility.yul\":1865:1898   */\n      tag_33\n      jump\t// in\n    tag_60:\n        /* \"#utility.yul\":1765:1904   */\n      swap3\n      swap2\n      pop\n      pop\n      jump\t// out\n        /* \"#utility.yul\":1910:2239   */\n    tag_18:\n        /* \"#utility.yul\":1969:1975   */\n      0x00\n        /* \"#utility.yul\":2018:2020   */\n      0x20\n        /* \"#utility.yul\":2006:2015   */\n      dup3\n        /* \"#utility.yul\":1997:2004   */\n      dup5\n        /* \"#utility.yul\":1993:2016   */\n      sub\n        /* \"#utility.yul\":1989:2021   */\n      slt\n        /* \"#utility.yul\":1986:2105   */\n      iszero\n      tag_62\n      jumpi\n        /* \"#utility.yul\":2024:2103   */\n      tag_63\n      tag_25\n      jump\t// in\n    tag_63:\n        /* \"#utility.yul\":1986:2105   */\n    tag_62:\n        /* \"#utility.yul\":2144:2145   */\n      0x00\n        /* \"#utility.yul\":2169:2222   */\n      tag_64\n        /* \"#utility.yul\":2214:2221   */\n      dup5\n        /* \"#utility.yul\":2205:2211   */\n      dup3\n        /* \"#utility.yul\":2194:2203   */\n      dup6\n        /* \"#utility.yul\":2190:2212   */\n      add\n        /* \"#utility.yul\":2169:2222   */\n      tag_34\n      jump\t// in\n    tag_64:\n        /* \"#utility.yul\":2159:2222   */\n      swap2\n      pop\n        /* \"#utility.yul\":2115:2232   */\n      pop\n        /* \"#utility.yul\":1910:2239   */\n      swap3\n      swap2\n      pop\n      pop\n      jump\t// out\n\n    auxdata: 0xa2646970667358221220bb392b3833c76d44c3a442683e3d7dbd168f3d331c2212fc7bed0ba3f2e407e264736f6c634300081f0033\n}\n",
				"bytecode": {
					"linkReferences": {},
					"object": "6080604052348015600e575f5ffd5b5061028e8061001c5f395ff3fe608060405234801561000f575f5ffd5b5060043610610038575f3560e01c80633c6bb436146100ac578063bb29998e146100ca57610039565b5b3373ffffffffffffffffffffffffffffffffffffffff16633c6bb4366040518163ffffffff1660e01b8152600401602060405180830381865afa158015610082573d5f5f3e3d5ffd5b505050506040513d601f19601f820116820180604052508101906100a69190610180565b5f819055005b6100b46100e6565b6040516100c191906101ba565b60405180910390f35b6100e460048036038101906100df919061022d565b6100eb565b005b5f5481565b8073ffffffffffffffffffffffffffffffffffffffff1663f8a8fd6d6040518163ffffffff1660e01b81526004015f604051808303815f87803b158015610130575f5ffd5b505af1158015610142573d5f5f3e3d5ffd5b5050505050565b5f5ffd5b5f819050919050565b61015f8161014d565b8114610169575f5ffd5b50565b5f8151905061017a81610156565b92915050565b5f6020828403121561019557610194610149565b5b5f6101a28482850161016c565b91505092915050565b6101b48161014d565b82525050565b5f6020820190506101cd5f8301846101ab565b92915050565b5f73ffffffffffffffffffffffffffffffffffffffff82169050919050565b5f6101fc826101d3565b9050919050565b61020c816101f2565b8114610216575f5ffd5b50565b5f8135905061022781610203565b92915050565b5f6020828403121561024257610241610149565b5b5f61024f84828501610219565b9150509291505056fea2646970667358221220bb392b3833c76d44c3a442683e3d7dbd168f3d331c2212fc7bed0ba3f2e407e264736f6c634300081f0033",
					"opcodes": "PUSH1 0x80 PUSH1 0x40 MSTORE CALLVALUE DUP1 ISZERO PUSH1 0xE JUMPI PUSH0 PUSH0 REVERT JUMPDEST POP PUSH2 0x28E DUP1 PUSH2 0x1C PUSH0 CODECOPY PUSH0 RETURN INVALID PUSH1 0x80 PUSH1 0x40 MSTORE CALLVALUE DUP1 ISZERO PUSH2 0xF JUMPI PUSH0 PUSH0 REVERT JUMPDEST POP PUSH1 0x4 CALLDATASIZE LT PUSH2 0x38 JUMPI PUSH0 CALLDATALOAD PUSH1 0xE0 SHR DUP1 PUSH4 0x3C6BB436 EQ PUSH2 0xAC JUMPI DUP1 PUSH4 0xBB29998E EQ PUSH2 0xCA JUMPI PUSH2 0x39 JUMP JUMPDEST JUMPDEST CALLER PUSH20 0xFFFFFFFFFFFFFFFFFFFFFFFFFFFFFFFFFFFFFFFF AND PUSH4 0x3C6BB436 PUSH1 0x40 MLOAD DUP2 PUSH4 0xFFFFFFFF AND PUSH1 0xE0 SHL DUP2 MSTORE PUSH1 0x4 ADD PUSH1 0x20 PUSH1 0x40 MLOAD DUP1 DUP4 SUB DUP2 DUP7 GAS STATICCALL ISZERO DUP1 ISZERO PUSH2 0x82 JUMPI RETURNDATASIZE PUSH0 PUSH0 RETURNDATACOPY RETURNDATASIZE PUSH0 REVERT JUMPDEST POP POP POP POP PUSH1 0x40 MLOAD RETURNDATASIZE PUSH1 0x1F NOT PUSH1 0x1F DUP3 ADD AND DUP3 ADD DUP1 PUSH1 0x40 MSTORE POP DUP2 ADD SWAP1 PUSH2 0xA6 SWAP2 SWAP1 PUSH2 0x180 JUMP JUMPDEST PUSH0 DUP2 SWAP1 SSTORE STOP JUMPDEST PUSH2 0xB4 PUSH2 0xE6 JUMP JUMPDEST PUSH1 0x40 MLOAD PUSH2 0xC1 SWAP2 SWAP1 PUSH2 0x1BA JUMP JUMPDEST PUSH1 0x40 MLOAD DUP1 SWAP2 SUB SWAP1 RETURN JUMPDEST PUSH2 0xE4 PUSH1 0x4 DUP1 CALLDATASIZE SUB DUP2 ADD SWAP1 PUSH2 0xDF SWAP2 SWAP1 PUSH2 0x22D JUMP JUMPDEST PUSH2 0xEB JUMP JUMPDEST STOP JUMPDEST PUSH0 SLOAD DUP2 JUMP JUMPDEST DUP1 PUSH20 0xFFFFFFFFFFFFFFFFFFFFFFFFFFFFFFFFFFFFFFFF AND PUSH4 0xF8A8FD6D PUSH1 0x40 MLOAD DUP2 PUSH4 0xFFFFFFFF AND PUSH1 0xE0 SHL DUP2 MSTORE PUSH1 0x4 ADD PUSH0 PUSH1 0x40 MLOAD DUP1 DUP4 SUB DUP2 PUSH0 DUP8 DUP1 EXTCODESIZE ISZERO DUP1 ISZERO PUSH2 0x130 JUMPI PUSH0 PUSH0 REVERT JUMPDEST POP GAS CALL ISZERO DUP1 ISZERO PUSH2 0x142 JUMPI RETURNDATASIZE PUSH0 PUSH0 RETURNDATACOPY RETURNDATASIZE PUSH0 REVERT JUMPDEST POP POP POP POP POP JUMP JUMPDEST PUSH0 PUSH0 REVERT JUMPDEST PUSH0 DUP2 SWAP1 POP SWAP2 SWAP1 POP JUMP JUMPDEST PUSH2 0x15F DUP2 PUSH2 0x14D JUMP JUMPDEST DUP2 EQ PUSH2 0x169 JUMPI PUSH0 PUSH0 REVERT JUMPDEST POP JUMP JUMPDEST PUSH0 DUP2 MLOAD SWAP1 POP PUSH2 0x17A DUP2 PUSH2 0x156 JUMP JUMPDEST SWAP3 SWAP2 POP POP JUMP JUMPDEST PUSH0 PUSH1 0x20 DUP3 DUP5 SUB SLT ISZERO PUSH2 0x195 JUMPI PUSH2 0x194 PUSH2 0x149 JUMP JUMPDEST JUMPDEST PUSH0 PUSH2 0x1A2 DUP5 DUP3 DUP6 ADD PUSH2 0x16C JUMP JUMPDEST SWAP2 POP POP SWAP3 SWAP2 POP POP JUMP JUMPDEST PUSH2 0x1B4 DUP2 PUSH2 0x14D JUMP JUMPDEST DUP3 MSTORE POP POP JUMP JUMPDEST PUSH0 PUSH1 0x20 DUP3 ADD SWAP1 POP PUSH2 0x1CD PUSH0 DUP4 ADD DUP5 PUSH2 0x1AB JUMP JUMPDEST SWAP3 SWAP2 POP POP JUMP JUMPDEST PUSH0 PUSH20 0xFFFFFFFFFFFFFFFFFFFFFFFFFFFFFFFFFFFFFFFF DUP3 AND SWAP1 POP SWAP2 SWAP1 POP JUMP JUMPDEST PUSH0 PUSH2 0x1FC DUP3 PUSH2 0x1D3 JUMP JUMPDEST SWAP1 POP SWAP2 SWAP1 POP JUMP JUMPDEST PUSH2 0x20C DUP2 PUSH2 0x1F2 JUMP JUMPDEST DUP2 EQ PUSH2 0x216 JUMPI PUSH0 PUSH0 REVERT JUMPDEST POP JUMP JUMPDEST PUSH0 DUP2 CALLDATALOAD SWAP1 POP PUSH2 0x227 DUP2 PUSH2 0x203 JUMP JUMPDEST SWAP3 SWAP2 POP POP JUMP JUMPDEST PUSH0 PUSH1 0x20 DUP3 DUP5 SUB SLT ISZERO PUSH2 0x242 JUMPI PUSH2 0x241 PUSH2 0x149 JUMP JUMPDEST JUMPDEST PUSH0 PUSH2 0x24F DUP5 DUP3 DUP6 ADD PUSH2 0x219 JUMP JUMPDEST SWAP2 POP POP SWAP3 SWAP2 POP POP JUMP INVALID LOG2 PUSH5 0x6970667358 0x22 SLT KECCAK256 0xBB CODECOPY 0x2B CODESIZE CALLER 0xC7 PUSH14 0x44C3A442683E3D7DBD168F3D331C 0x22 SLT 0xFC PUSH28 0xED0BA3F2E407E264736F6C634300081F003300000000000000000000 "
				},
				"gasEstimates": {
					"creation": {
						"codeDepositCost": "130800",
						"executionCost": "175",
						"totalCost": "130975"
					},
					"external": {
						"": "infinite",
						"test(address)": "infinite",
						"val()": "2402"
					}
				},
				"methodIdentifiers": {
					"test(address)": "bb29998e",
					"val()": "3c6bb436"
				}
			},
			"storageLayout": {
				"storage": [
					{
						"astId": 12,
						"contract": "Sol_by_Example/Basics/transientStorage.sol:Callback",
						"label": "val",
						"offset": 0,
						"slot": "0",
						"type": "t_uint256"
					}
				],
				"types": {
					"t_uint256": {
						"encoding": "inplace",
						"label": "uint256",
						"numberOfBytes": "32"
					}
				}
			},
			"userdoc": {
				"kind": "user",
				"methods": {},
				"version": 1
			}
		}
	}
}