{
	"Sol_by_Example/Applications/IterableMapping.sol": {
		"TestMapping": {
			"abi": [
				{
					"inputs": [],
					"name": "getFromMap",
					"outputs": [
						{
							"internalType": "uint256",
							"name": "",
							"type": "uint256"
						}
					],
					"stateMutability": "view",
					"type": "function"
				},
				{
					"inputs": [
						{
							"internalType": "uint256",
							"name": "index",
							"type": "uint256"
						}
					],
					"name": "getKeyAtIndex",
					"outputs": [
						{
							"internalType": "address",
							"name": "",
							"type": "address"
						}
					],
					"stateMutability": "view",
					"type": "function"
				},
				{
					"inputs": [],
					"name": "removeFromMapping",
					"outputs": [],
					"stateMutability": "nonpayable",
					"type": "function"
				},
				{
					"inputs": [
						{
							"internalType": "uint256",
							"name": "val",
							"type": "uint256"
						}
					],
					"name": "setInMapping",
					"outputs": [],
					"stateMutability": "nonpayable",
					"type": "function"
				},
				{
					"inputs": [],
					"name": "sizeOfMapping",
					"outputs": [
						{
							"internalType": "uint256",
							"name": "",
							"type": "uint256"
						}
					],
					"stateMutability": "view",
					"type": "function"
				}
			],
			"devdoc": {
				"kind": "dev",
				"methods": {},
				"version": 1
			},
			"evm": {
				"assembly": "    /* \"Sol_by_Example/Applications/IterableMapping.sol\":1597:2197  contract TestMapping {... */\n  mstore(0x40, 0x80)\n  callvalue\n  dup1\n  iszero\n  tag_1\n  jumpi\n  revert(0x00, 0x00)\ntag_1:\n  pop\n  dataSize(sub_0)\n  dup1\n  dataOffset(sub_0)\n  0x00\n  codecopy\n  0x00\n  return\nstop\n\nsub_0: assembly {\n        /* \"Sol_by_Example/Applications/IterableMapping.sol\":1597:2197  contract TestMapping {... */\n      mstore(0x40, 0x80)\n      callvalue\n      dup1\n      iszero\n      tag_1\n      jumpi\n      revert(0x00, 0x00)\n    tag_1:\n      pop\n      jumpi(tag_2, lt(calldatasize, 0x04))\n      shr(0xe0, calldataload(0x00))\n      dup1\n      0x40e2def4\n      eq\n      tag_3\n      jumpi\n      dup1\n      0x663037ac\n      eq\n      tag_4\n      jumpi\n      dup1\n      0x71bdd5ab\n      eq\n      tag_5\n      jumpi\n      dup1\n      0x76fd3dac\n      eq\n      tag_6\n      jumpi\n      dup1\n      0x8b9c7dca\n      eq\n      tag_7\n      jumpi\n    tag_2:\n      revert(0x00, 0x00)\n        /* \"Sol_by_Example/Applications/IterableMapping.sol\":1803:1897  function getFromMap() public view returns(uint256) {... */\n    tag_3:\n      tag_8\n      tag_9\n      jump\t// in\n    tag_8:\n      mload(0x40)\n      tag_10\n      swap2\n      swap1\n      tag_11\n      jump\t// in\n    tag_10:\n      mload(0x40)\n      dup1\n      swap2\n      sub\n      swap1\n      return\n        /* \"Sol_by_Example/Applications/IterableMapping.sol\":1903:2019  function getKeyAtIndex(uint256 index) public view returns (address) {... */\n    tag_4:\n      tag_12\n      0x04\n      dup1\n      calldatasize\n      sub\n      dup2\n      add\n      swap1\n      tag_13\n      swap2\n      swap1\n      tag_14\n      jump\t// in\n    tag_13:\n      tag_15\n      jump\t// in\n    tag_12:\n      mload(0x40)\n      tag_16\n      swap2\n      swap1\n      tag_17\n      jump\t// in\n    tag_16:\n      mload(0x40)\n      dup1\n      swap2\n      sub\n      swap1\n      return\n        /* \"Sol_by_Example/Applications/IterableMapping.sol\":1714:1797  function setInMapping(uint256 val) public {... */\n    tag_5:\n      tag_18\n      0x04\n      dup1\n      calldatasize\n      sub\n      dup2\n      add\n      swap1\n      tag_19\n      swap2\n      swap1\n      tag_14\n      jump\t// in\n    tag_19:\n      tag_20\n      jump\t// in\n    tag_18:\n      stop\n        /* \"Sol_by_Example/Applications/IterableMapping.sol\":2025:2114  function sizeOfMapping() public view returns (uint256) {... */\n    tag_6:\n      tag_21\n      tag_22\n      jump\t// in\n    tag_21:\n      mload(0x40)\n      tag_23\n      swap2\n      swap1\n      tag_11\n      jump\t// in\n    tag_23:\n      mload(0x40)\n      dup1\n      swap2\n      sub\n      swap1\n      return\n        /* \"Sol_by_Example/Applications/IterableMapping.sol\":2120:2195  function removeFromMapping() public {... */\n    tag_7:\n      tag_24\n      tag_25\n      jump\t// in\n    tag_24:\n      stop\n        /* \"Sol_by_Example/Applications/IterableMapping.sol\":1803:1897  function getFromMap() public view returns(uint256) {... */\n    tag_9:\n        /* \"Sol_by_Example/Applications/IterableMapping.sol\":1845:1852  uint256 */\n      0x00\n        /* \"Sol_by_Example/Applications/IterableMapping.sol\":1871:1874  map */\n      0x00\n        /* \"Sol_by_Example/Applications/IterableMapping.sol\":1871:1878  map.get */\n      linkerSymbol(\"f4ef424eefd639c60a85c1446b4dbe3862eb57fdde50ce253bd78357c761fb4e\")\n      0x732a2ccf\n      swap1\n      swap2\n        /* \"Sol_by_Example/Applications/IterableMapping.sol\":1879:1889  msg.sender */\n      caller\n        /* \"Sol_by_Example/Applications/IterableMapping.sol\":1871:1890  map.get(msg.sender) */\n      mload(0x40)\n      dup4\n      0xffffffff\n      and\n      0xe0\n      shl\n      dup2\n      mstore\n      0x04\n      add\n      tag_27\n      swap3\n      swap2\n      swap1\n      tag_28\n      jump\t// in\n    tag_27:\n      0x20\n      mload(0x40)\n      dup1\n      dup4\n      sub\n      dup2\n      dup7\n      gas\n      delegatecall\n      iszero\n      dup1\n      iszero\n      tag_30\n      jumpi\n      returndatacopy(0x00, 0x00, returndatasize)\n      revert(0x00, returndatasize)\n    tag_30:\n      pop\n      pop\n      pop\n      pop\n      mload(0x40)\n      returndatasize\n      not(0x1f)\n      0x1f\n      dup3\n      add\n      and\n      dup3\n      add\n      dup1\n      0x40\n      mstore\n      pop\n      dup2\n      add\n      swap1\n      tag_31\n      swap2\n      swap1\n      tag_32\n      jump\t// in\n    tag_31:\n        /* \"Sol_by_Example/Applications/IterableMapping.sol\":1864:1890  return map.get(msg.sender) */\n      swap1\n      pop\n        /* \"Sol_by_Example/Applications/IterableMapping.sol\":1803:1897  function getFromMap() public view returns(uint256) {... */\n      swap1\n      jump\t// out\n        /* \"Sol_by_Example/Applications/IterableMapping.sol\":1903:2019  function getKeyAtIndex(uint256 index) public view returns (address) {... */\n    tag_15:\n        /* \"Sol_by_Example/Applications/IterableMapping.sol\":1962:1969  address */\n      0x00\n        /* \"Sol_by_Example/Applications/IterableMapping.sol\":1988:1991  map */\n      0x00\n        /* \"Sol_by_Example/Applications/IterableMapping.sol\":1988:2005  map.getKeyAtIndex */\n      linkerSymbol(\"f4ef424eefd639c60a85c1446b4dbe3862eb57fdde50ce253bd78357c761fb4e\")\n      0xd1aa9e7e\n      swap1\n      swap2\n        /* \"Sol_by_Example/Applications/IterableMapping.sol\":2006:2011  index */\n      dup5\n        /* \"Sol_by_Example/Applications/IterableMapping.sol\":1988:2012  map.getKeyAtIndex(index) */\n      mload(0x40)\n      dup4\n      0xffffffff\n      and\n      0xe0\n      shl\n      dup2\n      mstore\n      0x04\n      add\n      tag_34\n      swap3\n      swap2\n      swap1\n      tag_35\n      jump\t// in\n    tag_34:\n      0x20\n      mload(0x40)\n      dup1\n      dup4\n      sub\n      dup2\n      dup7\n      gas\n      delegatecall\n      iszero\n      dup1\n      iszero\n      tag_37\n      jumpi\n      returndatacopy(0x00, 0x00, returndatasize)\n      revert(0x00, returndatasize)\n    tag_37:\n      pop\n      pop\n      pop\n      pop\n      mload(0x40)\n      returndatasize\n      not(0x1f)\n      0x1f\n      dup3\n      add\n      and\n      dup3\n      add\n      dup1\n      0x40\n      mstore\n      pop\n      dup2\n      add\n      swap1\n      tag_38\n      swap2\n      swap1\n      tag_39\n      jump\t// in\n    tag_38:\n        /* \"Sol_by_Example/Applications/IterableMapping.sol\":1981:2012  return map.getKeyAtIndex(index) */\n      swap1\n      pop\n        /* \"Sol_by_Example/Applications/IterableMapping.sol\":1903:2019  function getKeyAtIndex(uint256 index) public view returns (address) {... */\n      swap2\n      swap1\n      pop\n      jump\t// out\n        /* \"Sol_by_Example/Applications/IterableMapping.sol\":1714:1797  function setInMapping(uint256 val) public {... */\n    tag_20:\n        /* \"Sol_by_Example/Applications/IterableMapping.sol\":1766:1769  map */\n      0x00\n        /* \"Sol_by_Example/Applications/IterableMapping.sol\":1766:1773  map.set */\n      linkerSymbol(\"f4ef424eefd639c60a85c1446b4dbe3862eb57fdde50ce253bd78357c761fb4e\")\n      0xbc2b405c\n      swap1\n      swap2\n        /* \"Sol_by_Example/Applications/IterableMapping.sol\":1774:1784  msg.sender */\n      caller\n        /* \"Sol_by_Example/Applications/IterableMapping.sol\":1786:1789  val */\n      dup5\n        /* \"Sol_by_Example/Applications/IterableMapping.sol\":1766:1790  map.set(msg.sender, val) */\n      mload(0x40)\n      dup5\n      0xffffffff\n      and\n      0xe0\n      shl\n      dup2\n      mstore\n      0x04\n      add\n      tag_41\n      swap4\n      swap3\n      swap2\n      swap1\n      tag_42\n      jump\t// in\n    tag_41:\n      0x00\n      mload(0x40)\n      dup1\n      dup4\n      sub\n      dup2\n      dup7\n      dup1\n      extcodesize\n      iszero\n      dup1\n      iszero\n      tag_43\n      jumpi\n      revert(0x00, 0x00)\n    tag_43:\n      pop\n      gas\n      delegatecall\n      iszero\n      dup1\n      iszero\n      tag_45\n      jumpi\n      returndatacopy(0x00, 0x00, returndatasize)\n      revert(0x00, returndatasize)\n    tag_45:\n      pop\n      pop\n      pop\n      pop\n        /* \"Sol_by_Example/Applications/IterableMapping.sol\":1714:1797  function setInMapping(uint256 val) public {... */\n      pop\n      jump\t// out\n        /* \"Sol_by_Example/Applications/IterableMapping.sol\":2025:2114  function sizeOfMapping() public view returns (uint256) {... */\n    tag_22:\n        /* \"Sol_by_Example/Applications/IterableMapping.sol\":2071:2078  uint256 */\n      0x00\n        /* \"Sol_by_Example/Applications/IterableMapping.sol\":2097:2100  map */\n      0x00\n        /* \"Sol_by_Example/Applications/IterableMapping.sol\":2097:2105  map.size */\n      linkerSymbol(\"f4ef424eefd639c60a85c1446b4dbe3862eb57fdde50ce253bd78357c761fb4e\")\n      0xdeb3d896\n      swap1\n      swap2\n        /* \"Sol_by_Example/Applications/IterableMapping.sol\":2097:2107  map.size() */\n      mload(0x40)\n      dup3\n      0xffffffff\n      and\n      0xe0\n      shl\n      dup2\n      mstore\n      0x04\n      add\n      tag_47\n      swap2\n      swap1\n      tag_48\n      jump\t// in\n    tag_47:\n      0x20\n      mload(0x40)\n      dup1\n      dup4\n      sub\n      dup2\n      dup7\n      gas\n      delegatecall\n      iszero\n      dup1\n      iszero\n      tag_50\n      jumpi\n      returndatacopy(0x00, 0x00, returndatasize)\n      revert(0x00, returndatasize)\n    tag_50:\n      pop\n      pop\n      pop\n      pop\n      mload(0x40)\n      returndatasize\n      not(0x1f)\n      0x1f\n      dup3\n      add\n      and\n      dup3\n      add\n      dup1\n      0x40\n      mstore\n      pop\n      dup2\n      add\n      swap1\n      tag_51\n      swap2\n      swap1\n      tag_32\n      jump\t// in\n    tag_51:\n        /* \"Sol_by_Example/Applications/IterableMapping.sol\":2090:2107  return map.size() */\n      swap1\n      pop\n        /* \"Sol_by_Example/Applications/IterableMapping.sol\":2025:2114  function sizeOfMapping() public view returns (uint256) {... */\n      swap1\n      jump\t// out\n        /* \"Sol_by_Example/Applications/IterableMapping.sol\":2120:2195  function removeFromMapping() public {... */\n    tag_25:\n        /* \"Sol_by_Example/Applications/IterableMapping.sol\":2166:2169  map */\n      0x00\n        /* \"Sol_by_Example/Applications/IterableMapping.sol\":2166:2176  map.remove */\n      linkerSymbol(\"f4ef424eefd639c60a85c1446b4dbe3862eb57fdde50ce253bd78357c761fb4e\")\n      0x4c60db9c\n      swap1\n      swap2\n        /* \"Sol_by_Example/Applications/IterableMapping.sol\":2177:2187  msg.sender */\n      caller\n        /* \"Sol_by_Example/Applications/IterableMapping.sol\":2166:2188  map.remove(msg.sender) */\n      mload(0x40)\n      dup4\n      0xffffffff\n      and\n      0xe0\n      shl\n      dup2\n      mstore\n      0x04\n      add\n      tag_53\n      swap3\n      swap2\n      swap1\n      tag_28\n      jump\t// in\n    tag_53:\n      0x00\n      mload(0x40)\n      dup1\n      dup4\n      sub\n      dup2\n      dup7\n      dup1\n      extcodesize\n      iszero\n      dup1\n      iszero\n      tag_54\n      jumpi\n      revert(0x00, 0x00)\n    tag_54:\n      pop\n      gas\n      delegatecall\n      iszero\n      dup1\n      iszero\n      tag_56\n      jumpi\n      returndatacopy(0x00, 0x00, returndatasize)\n      revert(0x00, returndatasize)\n    tag_56:\n      pop\n      pop\n      pop\n      pop\n        /* \"Sol_by_Example/Applications/IterableMapping.sol\":2120:2195  function removeFromMapping() public {... */\n      jump\t// out\n        /* \"#utility.yul\":7:84   */\n    tag_57:\n        /* \"#utility.yul\":44:51   */\n      0x00\n        /* \"#utility.yul\":73:78   */\n      dup2\n        /* \"#utility.yul\":62:78   */\n      swap1\n      pop\n        /* \"#utility.yul\":7:84   */\n      swap2\n      swap1\n      pop\n      jump\t// out\n        /* \"#utility.yul\":90:208   */\n    tag_58:\n        /* \"#utility.yul\":177:201   */\n      tag_76\n        /* \"#utility.yul\":195:200   */\n      dup2\n        /* \"#utility.yul\":177:201   */\n      tag_57\n      jump\t// in\n    tag_76:\n        /* \"#utility.yul\":172:175   */\n      dup3\n        /* \"#utility.yul\":165:202   */\n      mstore\n        /* \"#utility.yul\":90:208   */\n      pop\n      pop\n      jump\t// out\n        /* \"#utility.yul\":214:436   */\n    tag_11:\n        /* \"#utility.yul\":307:311   */\n      0x00\n        /* \"#utility.yul\":345:347   */\n      0x20\n        /* \"#utility.yul\":334:343   */\n      dup3\n        /* \"#utility.yul\":330:348   */\n      add\n        /* \"#utility.yul\":322:348   */\n      swap1\n      pop\n        /* \"#utility.yul\":358:429   */\n      tag_78\n        /* \"#utility.yul\":426:427   */\n      0x00\n        /* \"#utility.yul\":415:424   */\n      dup4\n        /* \"#utility.yul\":411:428   */\n      add\n        /* \"#utility.yul\":402:408   */\n      dup5\n        /* \"#utility.yul\":358:429   */\n      tag_58\n      jump\t// in\n    tag_78:\n        /* \"#utility.yul\":214:436   */\n      swap3\n      swap2\n      pop\n      pop\n      jump\t// out\n        /* \"#utility.yul\":523:640   */\n    tag_60:\n        /* \"#utility.yul\":632:633   */\n      0x00\n        /* \"#utility.yul\":629:630   */\n      0x00\n        /* \"#utility.yul\":622:634   */\n      revert\n        /* \"#utility.yul\":769:891   */\n    tag_62:\n        /* \"#utility.yul\":842:866   */\n      tag_83\n        /* \"#utility.yul\":860:865   */\n      dup2\n        /* \"#utility.yul\":842:866   */\n      tag_57\n      jump\t// in\n    tag_83:\n        /* \"#utility.yul\":835:840   */\n      dup2\n        /* \"#utility.yul\":832:867   */\n      eq\n        /* \"#utility.yul\":822:885   */\n      tag_84\n      jumpi\n        /* \"#utility.yul\":881:882   */\n      0x00\n        /* \"#utility.yul\":878:879   */\n      0x00\n        /* \"#utility.yul\":871:883   */\n      revert\n        /* \"#utility.yul\":822:885   */\n    tag_84:\n        /* \"#utility.yul\":769:891   */\n      pop\n      jump\t// out\n        /* \"#utility.yul\":897:1036   */\n    tag_63:\n        /* \"#utility.yul\":943:948   */\n      0x00\n        /* \"#utility.yul\":981:987   */\n      dup2\n        /* \"#utility.yul\":968:988   */\n      calldataload\n        /* \"#utility.yul\":959:988   */\n      swap1\n      pop\n        /* \"#utility.yul\":997:1030   */\n      tag_86\n        /* \"#utility.yul\":1024:1029   */\n      dup2\n        /* \"#utility.yul\":997:1030   */\n      tag_62\n      jump\t// in\n    tag_86:\n        /* \"#utility.yul\":897:1036   */\n      swap3\n      swap2\n      pop\n      pop\n      jump\t// out\n        /* \"#utility.yul\":1042:1371   */\n    tag_14:\n        /* \"#utility.yul\":1101:1107   */\n      0x00\n        /* \"#utility.yul\":1150:1152   */\n      0x20\n        /* \"#utility.yul\":1138:1147   */\n      dup3\n        /* \"#utility.yul\":1129:1136   */\n      dup5\n        /* \"#utility.yul\":1125:1148   */\n      sub\n        /* \"#utility.yul\":1121:1153   */\n      slt\n        /* \"#utility.yul\":1118:1237   */\n      iszero\n      tag_88\n      jumpi\n        /* \"#utility.yul\":1156:1235   */\n      tag_89\n      tag_60\n      jump\t// in\n    tag_89:\n        /* \"#utility.yul\":1118:1237   */\n    tag_88:\n        /* \"#utility.yul\":1276:1277   */\n      0x00\n        /* \"#utility.yul\":1301:1354   */\n      tag_90\n        /* \"#utility.yul\":1346:1353   */\n      dup5\n        /* \"#utility.yul\":1337:1343   */\n      dup3\n        /* \"#utility.yul\":1326:1335   */\n      dup6\n        /* \"#utility.yul\":1322:1344   */\n      add\n        /* \"#utility.yul\":1301:1354   */\n      tag_63\n      jump\t// in\n    tag_90:\n        /* \"#utility.yul\":1291:1354   */\n      swap2\n      pop\n        /* \"#utility.yul\":1247:1364   */\n      pop\n        /* \"#utility.yul\":1042:1371   */\n      swap3\n      swap2\n      pop\n      pop\n      jump\t// out\n        /* \"#utility.yul\":1377:1503   */\n    tag_64:\n        /* \"#utility.yul\":1414:1421   */\n      0x00\n        /* \"#utility.yul\":1454:1496   */\n      0xffffffffffffffffffffffffffffffffffffffff\n        /* \"#utility.yul\":1447:1452   */\n      dup3\n        /* \"#utility.yul\":1443:1497   */\n      and\n        /* \"#utility.yul\":1432:1497   */\n      swap1\n      pop\n        /* \"#utility.yul\":1377:1503   */\n      swap2\n      swap1\n      pop\n      jump\t// out\n        /* \"#utility.yul\":1509:1605   */\n    tag_65:\n        /* \"#utility.yul\":1546:1553   */\n      0x00\n        /* \"#utility.yul\":1575:1599   */\n      tag_93\n        /* \"#utility.yul\":1593:1598   */\n      dup3\n        /* \"#utility.yul\":1575:1599   */\n      tag_64\n      jump\t// in\n    tag_93:\n        /* \"#utility.yul\":1564:1599   */\n      swap1\n      pop\n        /* \"#utility.yul\":1509:1605   */\n      swap2\n      swap1\n      pop\n      jump\t// out\n        /* \"#utility.yul\":1611:1729   */\n    tag_66:\n        /* \"#utility.yul\":1698:1722   */\n      tag_95\n        /* \"#utility.yul\":1716:1721   */\n      dup2\n        /* \"#utility.yul\":1698:1722   */\n      tag_65\n      jump\t// in\n    tag_95:\n        /* \"#utility.yul\":1693:1696   */\n      dup3\n        /* \"#utility.yul\":1686:1723   */\n      mstore\n        /* \"#utility.yul\":1611:1729   */\n      pop\n      pop\n      jump\t// out\n        /* \"#utility.yul\":1735:1957   */\n    tag_17:\n        /* \"#utility.yul\":1828:1832   */\n      0x00\n        /* \"#utility.yul\":1866:1868   */\n      0x20\n        /* \"#utility.yul\":1855:1864   */\n      dup3\n        /* \"#utility.yul\":1851:1869   */\n      add\n        /* \"#utility.yul\":1843:1869   */\n      swap1\n      pop\n        /* \"#utility.yul\":1879:1950   */\n      tag_97\n        /* \"#utility.yul\":1947:1948   */\n      0x00\n        /* \"#utility.yul\":1936:1945   */\n      dup4\n        /* \"#utility.yul\":1932:1949   */\n      add\n        /* \"#utility.yul\":1923:1929   */\n      dup5\n        /* \"#utility.yul\":1879:1950   */\n      tag_66\n      jump\t// in\n    tag_97:\n        /* \"#utility.yul\":1735:1957   */\n      swap3\n      swap2\n      pop\n      pop\n      jump\t// out\n        /* \"#utility.yul\":1963:2090   */\n    tag_67:\n        /* \"#utility.yul\":2078:2083   */\n      dup1\n        /* \"#utility.yul\":2073:2076   */\n      dup3\n        /* \"#utility.yul\":2066:2084   */\n      mstore\n        /* \"#utility.yul\":1963:2090   */\n      pop\n      pop\n      jump\t// out\n        /* \"#utility.yul\":2096:2222   */\n    tag_68:\n        /* \"#utility.yul\":2191:2215   */\n      tag_100\n        /* \"#utility.yul\":2209:2214   */\n      dup2\n        /* \"#utility.yul\":2191:2215   */\n      tag_65\n      jump\t// in\n    tag_100:\n        /* \"#utility.yul\":2186:2189   */\n      dup3\n        /* \"#utility.yul\":2179:2216   */\n      mstore\n        /* \"#utility.yul\":2096:2222   */\n      pop\n      pop\n      jump\t// out\n        /* \"#utility.yul\":2228:2624   */\n    tag_28:\n        /* \"#utility.yul\":2377:2381   */\n      0x00\n        /* \"#utility.yul\":2415:2417   */\n      0x40\n        /* \"#utility.yul\":2404:2413   */\n      dup3\n        /* \"#utility.yul\":2400:2418   */\n      add\n        /* \"#utility.yul\":2392:2418   */\n      swap1\n      pop\n        /* \"#utility.yul\":2428:2527   */\n      tag_102\n        /* \"#utility.yul\":2524:2525   */\n      0x00\n        /* \"#utility.yul\":2513:2522   */\n      dup4\n        /* \"#utility.yul\":2509:2526   */\n      add\n        /* \"#utility.yul\":2500:2506   */\n      dup6\n        /* \"#utility.yul\":2428:2527   */\n      tag_67\n      jump\t// in\n    tag_102:\n        /* \"#utility.yul\":2537:2617   */\n      tag_103\n        /* \"#utility.yul\":2613:2615   */\n      0x20\n        /* \"#utility.yul\":2602:2611   */\n      dup4\n        /* \"#utility.yul\":2598:2616   */\n      add\n        /* \"#utility.yul\":2589:2595   */\n      dup5\n        /* \"#utility.yul\":2537:2617   */\n      tag_68\n      jump\t// in\n    tag_103:\n        /* \"#utility.yul\":2228:2624   */\n      swap4\n      swap3\n      pop\n      pop\n      pop\n      jump\t// out\n        /* \"#utility.yul\":2630:2773   */\n    tag_69:\n        /* \"#utility.yul\":2687:2692   */\n      0x00\n        /* \"#utility.yul\":2718:2724   */\n      dup2\n        /* \"#utility.yul\":2712:2725   */\n      mload\n        /* \"#utility.yul\":2703:2725   */\n      swap1\n      pop\n        /* \"#utility.yul\":2734:2767   */\n      tag_105\n        /* \"#utility.yul\":2761:2766   */\n      dup2\n        /* \"#utility.yul\":2734:2767   */\n      tag_62\n      jump\t// in\n    tag_105:\n        /* \"#utility.yul\":2630:2773   */\n      swap3\n      swap2\n      pop\n      pop\n      jump\t// out\n        /* \"#utility.yul\":2779:3130   */\n    tag_32:\n        /* \"#utility.yul\":2849:2855   */\n      0x00\n        /* \"#utility.yul\":2898:2900   */\n      0x20\n        /* \"#utility.yul\":2886:2895   */\n      dup3\n        /* \"#utility.yul\":2877:2884   */\n      dup5\n        /* \"#utility.yul\":2873:2896   */\n      sub\n        /* \"#utility.yul\":2869:2901   */\n      slt\n        /* \"#utility.yul\":2866:2985   */\n      iszero\n      tag_107\n      jumpi\n        /* \"#utility.yul\":2904:2983   */\n      tag_108\n      tag_60\n      jump\t// in\n    tag_108:\n        /* \"#utility.yul\":2866:2985   */\n    tag_107:\n        /* \"#utility.yul\":3024:3025   */\n      0x00\n        /* \"#utility.yul\":3049:3113   */\n      tag_109\n        /* \"#utility.yul\":3105:3112   */\n      dup5\n        /* \"#utility.yul\":3096:3102   */\n      dup3\n        /* \"#utility.yul\":3085:3094   */\n      dup6\n        /* \"#utility.yul\":3081:3103   */\n      add\n        /* \"#utility.yul\":3049:3113   */\n      tag_69\n      jump\t// in\n    tag_109:\n        /* \"#utility.yul\":3039:3113   */\n      swap2\n      pop\n        /* \"#utility.yul\":2995:3123   */\n      pop\n        /* \"#utility.yul\":2779:3130   */\n      swap3\n      swap2\n      pop\n      pop\n      jump\t// out\n        /* \"#utility.yul\":3136:3262   */\n    tag_70:\n        /* \"#utility.yul\":3231:3255   */\n      tag_111\n        /* \"#utility.yul\":3249:3254   */\n      dup2\n        /* \"#utility.yul\":3231:3255   */\n      tag_57\n      jump\t// in\n    tag_111:\n        /* \"#utility.yul\":3226:3229   */\n      dup3\n        /* \"#utility.yul\":3219:3256   */\n      mstore\n        /* \"#utility.yul\":3136:3262   */\n      pop\n      pop\n      jump\t// out\n        /* \"#utility.yul\":3268:3664   */\n    tag_35:\n        /* \"#utility.yul\":3417:3421   */\n      0x00\n        /* \"#utility.yul\":3455:3457   */\n      0x40\n        /* \"#utility.yul\":3444:3453   */\n      dup3\n        /* \"#utility.yul\":3440:3458   */\n      add\n        /* \"#utility.yul\":3432:3458   */\n      swap1\n      pop\n        /* \"#utility.yul\":3468:3567   */\n      tag_113\n        /* \"#utility.yul\":3564:3565   */\n      0x00\n        /* \"#utility.yul\":3553:3562   */\n      dup4\n        /* \"#utility.yul\":3549:3566   */\n      add\n        /* \"#utility.yul\":3540:3546   */\n      dup6\n        /* \"#utility.yul\":3468:3567   */\n      tag_67\n      jump\t// in\n    tag_113:\n        /* \"#utility.yul\":3577:3657   */\n      tag_114\n        /* \"#utility.yul\":3653:3655   */\n      0x20\n        /* \"#utility.yul\":3642:3651   */\n      dup4\n        /* \"#utility.yul\":3638:3656   */\n      add\n        /* \"#utility.yul\":3629:3635   */\n      dup5\n        /* \"#utility.yul\":3577:3657   */\n      tag_70\n      jump\t// in\n    tag_114:\n        /* \"#utility.yul\":3268:3664   */\n      swap4\n      swap3\n      pop\n      pop\n      pop\n      jump\t// out\n        /* \"#utility.yul\":3670:3792   */\n    tag_71:\n        /* \"#utility.yul\":3743:3767   */\n      tag_116\n        /* \"#utility.yul\":3761:3766   */\n      dup2\n        /* \"#utility.yul\":3743:3767   */\n      tag_65\n      jump\t// in\n    tag_116:\n        /* \"#utility.yul\":3736:3741   */\n      dup2\n        /* \"#utility.yul\":3733:3768   */\n      eq\n        /* \"#utility.yul\":3723:3786   */\n      tag_117\n      jumpi\n        /* \"#utility.yul\":3782:3783   */\n      0x00\n        /* \"#utility.yul\":3779:3780   */\n      0x00\n        /* \"#utility.yul\":3772:3784   */\n      revert\n        /* \"#utility.yul\":3723:3786   */\n    tag_117:\n        /* \"#utility.yul\":3670:3792   */\n      pop\n      jump\t// out\n        /* \"#utility.yul\":3798:3941   */\n    tag_72:\n        /* \"#utility.yul\":3855:3860   */\n      0x00\n        /* \"#utility.yul\":3886:3892   */\n      dup2\n        /* \"#utility.yul\":3880:3893   */\n      mload\n        /* \"#utility.yul\":3871:3893   */\n      swap1\n      pop\n        /* \"#utility.yul\":3902:3935   */\n      tag_119\n        /* \"#utility.yul\":3929:3934   */\n      dup2\n        /* \"#utility.yul\":3902:3935   */\n      tag_71\n      jump\t// in\n    tag_119:\n        /* \"#utility.yul\":3798:3941   */\n      swap3\n      swap2\n      pop\n      pop\n      jump\t// out\n        /* \"#utility.yul\":3947:4298   */\n    tag_39:\n        /* \"#utility.yul\":4017:4023   */\n      0x00\n        /* \"#utility.yul\":4066:4068   */\n      0x20\n        /* \"#utility.yul\":4054:4063   */\n      dup3\n        /* \"#utility.yul\":4045:4052   */\n      dup5\n        /* \"#utility.yul\":4041:4064   */\n      sub\n        /* \"#utility.yul\":4037:4069   */\n      slt\n        /* \"#utility.yul\":4034:4153   */\n      iszero\n      tag_121\n      jumpi\n        /* \"#utility.yul\":4072:4151   */\n      tag_122\n      tag_60\n      jump\t// in\n    tag_122:\n        /* \"#utility.yul\":4034:4153   */\n    tag_121:\n        /* \"#utility.yul\":4192:4193   */\n      0x00\n        /* \"#utility.yul\":4217:4281   */\n      tag_123\n        /* \"#utility.yul\":4273:4280   */\n      dup5\n        /* \"#utility.yul\":4264:4270   */\n      dup3\n        /* \"#utility.yul\":4253:4262   */\n      dup6\n        /* \"#utility.yul\":4249:4271   */\n      add\n        /* \"#utility.yul\":4217:4281   */\n      tag_72\n      jump\t// in\n    tag_123:\n        /* \"#utility.yul\":4207:4281   */\n      swap2\n      pop\n        /* \"#utility.yul\":4163:4291   */\n      pop\n        /* \"#utility.yul\":3947:4298   */\n      swap3\n      swap2\n      pop\n      pop\n      jump\t// out\n        /* \"#utility.yul\":4304:4818   */\n    tag_42:\n        /* \"#utility.yul\":4481:4485   */\n      0x00\n        /* \"#utility.yul\":4519:4521   */\n      0x60\n        /* \"#utility.yul\":4508:4517   */\n      dup3\n        /* \"#utility.yul\":4504:4522   */\n      add\n        /* \"#utility.yul\":4496:4522   */\n      swap1\n      pop\n        /* \"#utility.yul\":4532:4631   */\n      tag_125\n        /* \"#utility.yul\":4628:4629   */\n      0x00\n        /* \"#utility.yul\":4617:4626   */\n      dup4\n        /* \"#utility.yul\":4613:4630   */\n      add\n        /* \"#utility.yul\":4604:4610   */\n      dup7\n        /* \"#utility.yul\":4532:4631   */\n      tag_67\n      jump\t// in\n    tag_125:\n        /* \"#utility.yul\":4641:4721   */\n      tag_126\n        /* \"#utility.yul\":4717:4719   */\n      0x20\n        /* \"#utility.yul\":4706:4715   */\n      dup4\n        /* \"#utility.yul\":4702:4720   */\n      add\n        /* \"#utility.yul\":4693:4699   */\n      dup6\n        /* \"#utility.yul\":4641:4721   */\n      tag_68\n      jump\t// in\n    tag_126:\n        /* \"#utility.yul\":4731:4811   */\n      tag_127\n        /* \"#utility.yul\":4807:4809   */\n      0x40\n        /* \"#utility.yul\":4796:4805   */\n      dup4\n        /* \"#utility.yul\":4792:4810   */\n      add\n        /* \"#utility.yul\":4783:4789   */\n      dup5\n        /* \"#utility.yul\":4731:4811   */\n      tag_70\n      jump\t// in\n    tag_127:\n        /* \"#utility.yul\":4304:4818   */\n      swap5\n      swap4\n      pop\n      pop\n      pop\n      pop\n      jump\t// out\n        /* \"#utility.yul\":4824:5102   */\n    tag_48:\n        /* \"#utility.yul\":4945:4949   */\n      0x00\n        /* \"#utility.yul\":4983:4985   */\n      0x20\n        /* \"#utility.yul\":4972:4981   */\n      dup3\n        /* \"#utility.yul\":4968:4986   */\n      add\n        /* \"#utility.yul\":4960:4986   */\n      swap1\n      pop\n        /* \"#utility.yul\":4996:5095   */\n      tag_129\n        /* \"#utility.yul\":5092:5093   */\n      0x00\n        /* \"#utility.yul\":5081:5090   */\n      dup4\n        /* \"#utility.yul\":5077:5094   */\n      add\n        /* \"#utility.yul\":5068:5074   */\n      dup5\n        /* \"#utility.yul\":4996:5095   */\n      tag_67\n      jump\t// in\n    tag_129:\n        /* \"#utility.yul\":4824:5102   */\n      swap3\n      swap2\n      pop\n      pop\n      jump\t// out\n\n    auxdata: 0xa26469706673582212203c6c5cff8c8ecb09e4fb06747a136d04257013c2b5df2aedbd07dc86600907d764736f6c634300081f0033\n}\n",
				"bytecode": {
					"linkReferences": {
						"Sol_by_Example/Applications/IterableMapping.sol": {
							"IterableMapping": [
								{
									"length": 20,
									"start": 267
								},
								{
									"length": 20,
									"start": 395
								},
								{
									"length": 20,
									"start": 524
								},
								{
									"length": 20,
									"start": 633
								},
								{
									"length": 20,
									"start": 758
								}
							]
						}
					},
					"object": "6080604052348015600e575f5ffd5b506105ad8061001c5f395ff3fe608060405234801561000f575f5ffd5b5060043610610055575f3560e01c806340e2def414610059578063663037ac1461007757806371bdd5ab146100a757806376fd3dac146100c35780638b9c7dca146100e1575b5f5ffd5b6100616100eb565b60405161006e9190610358565b60405180910390f35b610091600480360381019061008c919061039f565b61016b565b60405161009e9190610409565b60405180910390f35b6100c160048036038101906100bc919061039f565b6101ed565b005b6100cb610259565b6040516100d89190610358565b60405180910390f35b6100e96102d7565b005b5f5f73__$f4ef424eefd639c60a85c1446b4dbe3862$__63732a2ccf9091336040518363ffffffff1660e01b8152600401610127929190610438565b602060405180830381865af4158015610142573d5f5f3e3d5ffd5b505050506040513d601f19601f820116820180604052508101906101669190610473565b905090565b5f5f73__$f4ef424eefd639c60a85c1446b4dbe3862$__63d1aa9e7e9091846040518363ffffffff1660e01b81526004016101a79291906104ad565b602060405180830381865af41580156101c2573d5f5f3e3d5ffd5b505050506040513d601f19601f820116820180604052508101906101e691906104fe565b9050919050565b5f73__$f4ef424eefd639c60a85c1446b4dbe3862$__63bc2b405c909133846040518463ffffffff1660e01b815260040161022a93929190610529565b5f6040518083038186803b158015610240575f5ffd5b505af4158015610252573d5f5f3e3d5ffd5b5050505050565b5f5f73__$f4ef424eefd639c60a85c1446b4dbe3862$__63deb3d89690916040518263ffffffff1660e01b8152600401610293919061055e565b602060405180830381865af41580156102ae573d5f5f3e3d5ffd5b505050506040513d601f19601f820116820180604052508101906102d29190610473565b905090565b5f73__$f4ef424eefd639c60a85c1446b4dbe3862$__634c60db9c9091336040518363ffffffff1660e01b8152600401610312929190610438565b5f6040518083038186803b158015610328575f5ffd5b505af415801561033a573d5f5f3e3d5ffd5b50505050565b5f819050919050565b61035281610340565b82525050565b5f60208201905061036b5f830184610349565b92915050565b5f5ffd5b61037e81610340565b8114610388575f5ffd5b50565b5f8135905061039981610375565b92915050565b5f602082840312156103b4576103b3610371565b5b5f6103c18482850161038b565b91505092915050565b5f73ffffffffffffffffffffffffffffffffffffffff82169050919050565b5f6103f3826103ca565b9050919050565b610403816103e9565b82525050565b5f60208201905061041c5f8301846103fa565b92915050565b8082525050565b610432816103e9565b82525050565b5f60408201905061044b5f830185610422565b6104586020830184610429565b9392505050565b5f8151905061046d81610375565b92915050565b5f6020828403121561048857610487610371565b5b5f6104958482850161045f565b91505092915050565b6104a781610340565b82525050565b5f6040820190506104c05f830185610422565b6104cd602083018461049e565b9392505050565b6104dd816103e9565b81146104e7575f5ffd5b50565b5f815190506104f8816104d4565b92915050565b5f6020828403121561051357610512610371565b5b5f610520848285016104ea565b91505092915050565b5f60608201905061053c5f830186610422565b6105496020830185610429565b610556604083018461049e565b949350505050565b5f6020820190506105715f830184610422565b9291505056fea26469706673582212203c6c5cff8c8ecb09e4fb06747a136d04257013c2b5df2aedbd07dc86600907d764736f6c634300081f0033",
					"opcodes": "PUSH1 0x80 PUSH1 0x40 MSTORE CALLVALUE DUP1 ISZERO PUSH1 0xE JUMPI PUSH0 PUSH0 REVERT JUMPDEST POP PUSH2 0x5AD DUP1 PUSH2 0x1C PUSH0 CODECOPY PUSH0 RETURN INVALID PUSH1 0x80 PUSH1 0x40 MSTORE CALLVALUE DUP1 ISZERO PUSH2 0xF JUMPI PUSH0 PUSH0 REVERT JUMPDEST POP PUSH1 0x4 CALLDATASIZE LT PUSH2 0x55 JUMPI PUSH0 CALLDATALOAD PUSH1 0xE0 SHR DUP1 PUSH4 0x40E2DEF4 EQ PUSH2 0x59 JUMPI DUP1 PUSH4 0x663037AC EQ PUSH2 0x77 JUMPI DUP1 PUSH4 0x71BDD5AB EQ PUSH2 0xA7 JUMPI DUP1 PUSH4 0x76FD3DAC EQ PUSH2 0xC3 JUMPI DUP1 PUSH4 0x8B9C7DCA EQ PUSH2 0xE1 JUMPI JUMPDEST PUSH0 PUSH0 REVERT JUMPDEST PUSH2 0x61 PUSH2 0xEB JUMP JUMPDEST PUSH1 0x40 MLOAD PUSH2 0x6E SWAP2 SWAP1 PUSH2 0x358 JUMP JUMPDEST PUSH1 0x40 MLOAD DUP1 SWAP2 SUB SWAP1 RETURN JUMPDEST PUSH2 0x91 PUSH1 0x4 DUP1 CALLDATASIZE SUB DUP2 ADD SWAP1 PUSH2 0x8C SWAP2 SWAP1 PUSH2 0x39F JUMP JUMPDEST PUSH2 0x16B JUMP JUMPDEST PUSH1 0x40 MLOAD PUSH2 0x9E SWAP2 SWAP1 PUSH2 0x409 JUMP JUMPDEST PUSH1 0x40 MLOAD DUP1 SWAP2 SUB SWAP1 RETURN JUMPDEST PUSH2 0xC1 PUSH1 0x4 DUP1 CALLDATASIZE SUB DUP2 ADD SWAP1 PUSH2 0xBC SWAP2 SWAP1 PUSH2 0x39F JUMP JUMPDEST PUSH2 0x1ED JUMP JUMPDEST STOP JUMPDEST PUSH2 0xCB PUSH2 0x259 JUMP JUMPDEST PUSH1 0x40 MLOAD PUSH2 0xD8 SWAP2 SWAP1 PUSH2 0x358 JUMP JUMPDEST PUSH1 0x40 MLOAD DUP1 SWAP2 SUB SWAP1 RETURN JUMPDEST PUSH2 0xE9 PUSH2 0x2D7 JUMP JUMPDEST STOP JUMPDEST PUSH0 PUSH0 PUSH20 0x0 PUSH4 0x732A2CCF SWAP1 SWAP2 CALLER PUSH1 0x40 MLOAD DUP4 PUSH4 0xFFFFFFFF AND PUSH1 0xE0 SHL DUP2 MSTORE PUSH1 0x4 ADD PUSH2 0x127 SWAP3 SWAP2 SWAP1 PUSH2 0x438 JUMP JUMPDEST PUSH1 0x20 PUSH1 0x40 MLOAD DUP1 DUP4 SUB DUP2 DUP7 GAS DELEGATECALL ISZERO DUP1 ISZERO PUSH2 0x142 JUMPI RETURNDATASIZE PUSH0 PUSH0 RETURNDATACOPY RETURNDATASIZE PUSH0 REVERT JUMPDEST POP POP POP POP PUSH1 0x40 MLOAD RETURNDATASIZE PUSH1 0x1F NOT PUSH1 0x1F DUP3 ADD AND DUP3 ADD DUP1 PUSH1 0x40 MSTORE POP DUP2 ADD SWAP1 PUSH2 0x166 SWAP2 SWAP1 PUSH2 0x473 JUMP JUMPDEST SWAP1 POP SWAP1 JUMP JUMPDEST PUSH0 PUSH0 PUSH20 0x0 PUSH4 0xD1AA9E7E SWAP1 SWAP2 DUP5 PUSH1 0x40 MLOAD DUP4 PUSH4 0xFFFFFFFF AND PUSH1 0xE0 SHL DUP2 MSTORE PUSH1 0x4 ADD PUSH2 0x1A7 SWAP3 SWAP2 SWAP1 PUSH2 0x4AD JUMP JUMPDEST PUSH1 0x20 PUSH1 0x40 MLOAD DUP1 DUP4 SUB DUP2 DUP7 GAS DELEGATECALL ISZERO DUP1 ISZERO PUSH2 0x1C2 JUMPI RETURNDATASIZE PUSH0 PUSH0 RETURNDATACOPY RETURNDATASIZE PUSH0 REVERT JUMPDEST POP POP POP POP PUSH1 0x40 MLOAD RETURNDATASIZE PUSH1 0x1F NOT PUSH1 0x1F DUP3 ADD AND DUP3 ADD DUP1 PUSH1 0x40 MSTORE POP DUP2 ADD SWAP1 PUSH2 0x1E6 SWAP2 SWAP1 PUSH2 0x4FE JUMP JUMPDEST SWAP1 POP SWAP2 SWAP1 POP JUMP JUMPDEST PUSH0 PUSH20 0x0 PUSH4 0xBC2B405C SWAP1 SWAP2 CALLER DUP5 PUSH1 0x40 MLOAD DUP5 PUSH4 0xFFFFFFFF AND PUSH1 0xE0 SHL DUP2 MSTORE PUSH1 0x4 ADD PUSH2 0x22A SWAP4 SWAP3 SWAP2 SWAP1 PUSH2 0x529 JUMP JUMPDEST PUSH0 PUSH1 0x40 MLOAD DUP1 DUP4 SUB DUP2 DUP7 DUP1 EXTCODESIZE ISZERO DUP1 ISZERO PUSH2 0x240 JUMPI PUSH0 PUSH0 REVERT JUMPDEST POP GAS DELEGATECALL ISZERO DUP1 ISZERO PUSH2 0x252 JUMPI RETURNDATASIZE PUSH0 PUSH0 RETURNDATACOPY RETURNDATASIZE PUSH0 REVERT JUMPDEST POP POP POP POP POP JUMP JUMPDEST PUSH0 PUSH0 PUSH20 0x0 PUSH4 0xDEB3D896 SWAP1 SWAP2 PUSH1 0x40 MLOAD DUP3 PUSH4 0xFFFFFFFF AND PUSH1 0xE0 SHL DUP2 MSTORE PUSH1 0x4 ADD PUSH2 0x293 SWAP2 SWAP1 PUSH2 0x55E JUMP JUMPDEST PUSH1 0x20 PUSH1 0x40 MLOAD DUP1 DUP4 SUB DUP2 DUP7 GAS DELEGATECALL ISZERO DUP1 ISZERO PUSH2 0x2AE JUMPI RETURNDATASIZE PUSH0 PUSH0 RETURNDATACOPY RETURNDATASIZE PUSH0 REVERT JUMPDEST POP POP POP POP PUSH1 0x40 MLOAD RETURNDATASIZE PUSH1 0x1F NOT PUSH1 0x1F DUP3 ADD AND DUP3 ADD DUP1 PUSH1 0x40 MSTORE POP DUP2 ADD SWAP1 PUSH2 0x2D2 SWAP2 SWAP1 PUSH2 0x473 JUMP JUMPDEST SWAP1 POP SWAP1 JUMP JUMPDEST PUSH0 PUSH20 0x0 PUSH4 0x4C60DB9C SWAP1 SWAP2 CALLER PUSH1 0x40 MLOAD DUP4 PUSH4 0xFFFFFFFF AND PUSH1 0xE0 SHL DUP2 MSTORE PUSH1 0x4 ADD PUSH2 0x312 SWAP3 SWAP2 SWAP1 PUSH2 0x438 JUMP JUMPDEST PUSH0 PUSH1 0x40 MLOAD DUP1 DUP4 SUB DUP2 DUP7 DUP1 EXTCODESIZE ISZERO DUP1 ISZERO PUSH2 0x328 JUMPI PUSH0 PUSH0 REVERT JUMPDEST POP GAS DELEGATECALL ISZERO DUP1 ISZERO PUSH2 0x33A JUMPI RETURNDATASIZE PUSH0 PUSH0 RETURNDATACOPY RETURNDATASIZE PUSH0 REVERT JUMPDEST POP POP POP POP JUMP JUMPDEST PUSH0 DUP2 SWAP1 POP SWAP2 SWAP1 POP JUMP JUMPDEST PUSH2 0x352 DUP2 PUSH2 0x340 JUMP JUMPDEST DUP3 MSTORE POP POP JUMP JUMPDEST PUSH0 PUSH1 0x20 DUP3 ADD SWAP1 POP PUSH2 0x36B PUSH0 DUP4 ADD DUP5 PUSH2 0x349 JUMP JUMPDEST SWAP3 SWAP2 POP POP JUMP JUMPDEST PUSH0 PUSH0 REVERT JUMPDEST PUSH2 0x37E DUP2 PUSH2 0x340 JUMP JUMPDEST DUP2 EQ PUSH2 0x388 JUMPI PUSH0 PUSH0 REVERT JUMPDEST POP JUMP JUMPDEST PUSH0 DUP2 CALLDATALOAD SWAP1 POP PUSH2 0x399 DUP2 PUSH2 0x375 JUMP JUMPDEST SWAP3 SWAP2 POP POP JUMP JUMPDEST PUSH0 PUSH1 0x20 DUP3 DUP5 SUB SLT ISZERO PUSH2 0x3B4 JUMPI PUSH2 0x3B3 PUSH2 0x371 JUMP JUMPDEST JUMPDEST PUSH0 PUSH2 0x3C1 DUP5 DUP3 DUP6 ADD PUSH2 0x38B JUMP JUMPDEST SWAP2 POP POP SWAP3 SWAP2 POP POP JUMP JUMPDEST PUSH0 PUSH20 0xFFFFFFFFFFFFFFFFFFFFFFFFFFFFFFFFFFFFFFFF DUP3 AND SWAP1 POP SWAP2 SWAP1 POP JUMP JUMPDEST PUSH0 PUSH2 0x3F3 DUP3 PUSH2 0x3CA JUMP JUMPDEST SWAP1 POP SWAP2 SWAP1 POP JUMP JUMPDEST PUSH2 0x403 DUP2 PUSH2 0x3E9 JUMP JUMPDEST DUP3 MSTORE POP POP JUMP JUMPDEST PUSH0 PUSH1 0x20 DUP3 ADD SWAP1 POP PUSH2 0x41C PUSH0 DUP4 ADD DUP5 PUSH2 0x3FA JUMP JUMPDEST SWAP3 SWAP2 POP POP JUMP JUMPDEST DUP1 DUP3 MSTORE POP POP JUMP JUMPDEST PUSH2 0x432 DUP2 PUSH2 0x3E9 JUMP JUMPDEST DUP3 MSTORE POP POP JUMP JUMPDEST PUSH0 PUSH1 0x40 DUP3 ADD SWAP1 POP PUSH2 0x44B PUSH0 DUP4 ADD DUP6 PUSH2 0x422 JUMP JUMPDEST PUSH2 0x458 PUSH1 0x20 DUP4 ADD DUP5 PUSH2 0x429 JUMP JUMPDEST SWAP4 SWAP3 POP POP POP JUMP JUMPDEST PUSH0 DUP2 MLOAD SWAP1 POP PUSH2 0x46D DUP2 PUSH2 0x375 JUMP JUMPDEST SWAP3 SWAP2 POP POP JUMP JUMPDEST PUSH0 PUSH1 0x20 DUP3 DUP5 SUB SLT ISZERO PUSH2 0x488 JUMPI PUSH2 0x487 PUSH2 0x371 JUMP JUMPDEST JUMPDEST PUSH0 PUSH2 0x495 DUP5 DUP3 DUP6 ADD PUSH2 0x45F JUMP JUMPDEST SWAP2 POP POP SWAP3 SWAP2 POP POP JUMP JUMPDEST PUSH2 0x4A7 DUP2 PUSH2 0x340 JUMP JUMPDEST DUP3 MSTORE POP POP JUMP JUMPDEST PUSH0 PUSH1 0x40 DUP3 ADD SWAP1 POP PUSH2 0x4C0 PUSH0 DUP4 ADD DUP6 PUSH2 0x422 JUMP JUMPDEST PUSH2 0x4CD PUSH1 0x20 DUP4 ADD DUP5 PUSH2 0x49E JUMP JUMPDEST SWAP4 SWAP3 POP POP POP JUMP JUMPDEST PUSH2 0x4DD DUP2 PUSH2 0x3E9 JUMP JUMPDEST DUP2 EQ PUSH2 0x4E7 JUMPI PUSH0 PUSH0 REVERT JUMPDEST POP JUMP JUMPDEST PUSH0 DUP2 MLOAD SWAP1 POP PUSH2 0x4F8 DUP2 PUSH2 0x4D4 JUMP JUMPDEST SWAP3 SWAP2 POP POP JUMP JUMPDEST PUSH0 PUSH1 0x20 DUP3 DUP5 SUB SLT ISZERO PUSH2 0x513 JUMPI PUSH2 0x512 PUSH2 0x371 JUMP JUMPDEST JUMPDEST PUSH0 PUSH2 0x520 DUP5 DUP3 DUP6 ADD PUSH2 0x4EA JUMP JUMPDEST SWAP2 POP POP SWAP3 SWAP2 POP POP JUMP JUMPDEST PUSH0 PUSH1 0x60 DUP3 ADD SWAP1 POP PUSH2 0x53C PUSH0 DUP4 ADD DUP7 PUSH2 0x422 JUMP JUMPDEST PUSH2 0x549 PUSH1 0x20 DUP4 ADD DUP6 PUSH2 0x429 JUMP JUMPDEST PUSH2 0x556 PUSH1 0x40 DUP4 ADD DUP5 PUSH2 0x49E JUMP JUMPDEST SWAP5 SWAP4 POP POP POP POP JUMP JUMPDEST PUSH0 PUSH1 0x20 DUP3 ADD SWAP1 POP PUSH2 0x571 PUSH0 DUP4 ADD DUP5 PUSH2 0x422 JUMP JUMPDEST SWAP3 SWAP2 POP POP JUMP INVALID LOG2 PUSH5 0x6970667358 0x22 SLT KECCAK256 EXTCODECOPY PUSH13 0x5CFF8C8ECB09E4FB06747A136D DIV 0x25 PUSH17 0x13C2B5DF2AEDBD07DC86600907D764736F PUSH13 0x634300081F0033000000000000 "
				},
				"gasEstimates": {
					"creation": {
						"codeDepositCost": "290600",
						"executionCost": "329",
						"totalCost": "290929"
					},
					"external": {
						"getFromMap()": "infinite",
						"getKeyAtIndex(uint256)": "infinite",
						"removeFromMapping()": "infinite",
						"setInMapping(uint256)": "infinite",
						"sizeOfMapping()": "infinite"
					}
				},
				"methodIdentifiers": {
					"getFromMap()": "40e2def4",
					"getKeyAtIndex(uint256)": "663037ac",
					"removeFromMapping()": "8b9c7dca",
					"setInMapping(uint256)": "71bdd5ab",
					"sizeOfMapping()": "76fd3dac"
				}
			},
			"storageLayout": {
				"storage": [
					{
						"astId": 206,
						"contract": "Sol_by_Example/Applications/IterableMapping.sol:TestMapping",
						"label": "map",
						"offset": 0,
						"slot": "0",
						"type": "t_struct(Map)17_storage"
					}
				],
				"types": {
					"t_address": {
						"encoding": "inplace",
						"label": "address",
						"numberOfBytes": "20"
					},
					"t_array(t_address)dyn_storage": {
						"base": "t_address",
						"encoding": "dynamic_array",
						"label": "address[]",
						"numberOfBytes": "32"
					},
					"t_bool": {
						"encoding": "inplace",
						"label": "bool",
						"numberOfBytes": "1"
					},
					"t_mapping(t_address,t_bool)": {
						"encoding": "mapping",
						"key": "t_address",
						"label": "mapping(address => bool)",
						"numberOfBytes": "32",
						"value": "t_bool"
					},
					"t_mapping(t_address,t_uint256)": {
						"encoding": "mapping",
						"key": "t_address",
						"label": "mapping(address => uint256)",
						"numberOfBytes": "32",
						"value": "t_uint256"
					},
					"t_struct(Map)17_storage": {
						"encoding": "inplace",
						"label": "struct IterableMapping.Map",
						"members": [
							{
								"astId": 4,
								"contract": "Sol_by_Example/Applications/IterableMapping.sol:TestMapping",
								"label": "keys",
								"offset": 0,
								"slot": "0",
								"type": "t_array(t_address)dyn_storage"
							},
							{
								"astId": 8,
								"contract": "Sol_by_Example/Applications/IterableMapping.sol:TestMapping",
								"label": "values",
								"offset": 0,
								"slot": "1",
								"type": "t_mapping(t_address,t_uint256)"
							},
							{
								"astId": 12,
								"contract": "Sol_by_Example/Applications/IterableMapping.sol:TestMapping",
								"label": "indexOf",
								"offset": 0,
								"slot": "2",
								"type": "t_mapping(t_address,t_uint256)"
							},
							{
								"astId": 16,
								"contract": "Sol_by_Example/Applications/IterableMapping.sol:TestMapping",
								"label": "inserted",
								"offset": 0,
								"slot": "3",
								"type": "t_mapping(t_address,t_bool)"
							}
						],
						"numberOfBytes": "128"
					},
					"t_uint256": {
						"encoding": "inplace",
						"label": "uint256",
						"numberOfBytes": "32"
					}
				}
			},
			"userdoc": {
				"kind": "user",
				"methods": {},
				"version": 1
			}
		}
	}
}