{
	"Sol_by_Example/Basics/ether_wei_gas.sol": {
		"Sample": {
			"abi": [
				{
					"inputs": [
						{
							"internalType": "uint256",
							"name": "x",
							"type": "uint256"
						}
					],
					"name": "foo",
					"outputs": [
						{
							"internalType": "uint256",
							"name": "",
							"type": "uint256"
						}
					],
					"stateMutability": "pure",
					"type": "function"
				},
				{
					"inputs": [],
					"name": "get",
					"outputs": [
						{
							"internalType": "uint256",
							"name": "",
							"type": "uint256"
						}
					],
					"stateMutability": "view",
					"type": "function"
				},
				{
					"inputs": [],
					"name": "isOneEther",
					"outputs": [
						{
							"internalType": "bool",
							"name": "",
							"type": "bool"
						}
					],
					"stateMutability": "view",
					"type": "function"
				},
				{
					"inputs": [],
					"name": "loop",
					"outputs": [],
					"stateMutability": "pure",
					"type": "function"
				},
				{
					"inputs": [],
					"name": "num",
					"outputs": [
						{
							"internalType": "uint256",
							"name": "",
							"type": "uint256"
						}
					],
					"stateMutability": "view",
					"type": "function"
				},
				{
					"inputs": [],
					"name": "oneEther",
					"outputs": [
						{
							"internalType": "uint256",
							"name": "",
							"type": "uint256"
						}
					],
					"stateMutability": "view",
					"type": "function"
				},
				{
					"inputs": [],
					"name": "oneGwei",
					"outputs": [
						{
							"internalType": "uint256",
							"name": "",
							"type": "uint256"
						}
					],
					"stateMutability": "view",
					"type": "function"
				},
				{
					"inputs": [],
					"name": "oneWei",
					"outputs": [
						{
							"internalType": "uint256",
							"name": "",
							"type": "uint256"
						}
					],
					"stateMutability": "view",
					"type": "function"
				},
				{
					"inputs": [
						{
							"internalType": "uint256",
							"name": "_num",
							"type": "uint256"
						}
					],
					"name": "set",
					"outputs": [],
					"stateMutability": "nonpayable",
					"type": "function"
				},
				{
					"inputs": [
						{
							"internalType": "uint256",
							"name": "_x",
							"type": "uint256"
						}
					],
					"name": "ternary",
					"outputs": [
						{
							"internalType": "uint256",
							"name": "",
							"type": "uint256"
						}
					],
					"stateMutability": "pure",
					"type": "function"
				}
			],
			"devdoc": {
				"kind": "dev",
				"methods": {},
				"version": 1
			},
			"evm": {
				"assembly": "    /* \"Sol_by_Example/Basics/ether_wei_gas.sol\":58:1688  contract Sample {... */\n  mstore(0x40, 0x80)\n    /* \"Sol_by_Example/Basics/ether_wei_gas.sol\":437:442  1 wei */\n  0x01\n    /* \"Sol_by_Example/Basics/ether_wei_gas.sol\":416:442  uint public oneWei = 1 wei */\n  dup1\n  sstore\n    /* \"Sol_by_Example/Basics/ether_wei_gas.sol\":497:503  1 gwei */\n  0x3b9aca00\n    /* \"Sol_by_Example/Basics/ether_wei_gas.sol\":475:503  uint public oneGwei = 1 gwei */\n  0x02\n  sstore\n    /* \"Sol_by_Example/Basics/ether_wei_gas.sol\":563:570  1 ether */\n  0x0de0b6b3a7640000\n    /* \"Sol_by_Example/Basics/ether_wei_gas.sol\":540:570  uint public oneEther = 1 ether */\n  0x03\n  sstore\n    /* \"Sol_by_Example/Basics/ether_wei_gas.sol\":615:619  1e18 */\n  0x0de0b6b3a7640000\n    /* \"Sol_by_Example/Basics/ether_wei_gas.sol\":603:611  oneEther */\n  sload(0x03)\n    /* \"Sol_by_Example/Basics/ether_wei_gas.sol\":603:619  oneEther == 1e18 */\n  eq\n    /* \"Sol_by_Example/Basics/ether_wei_gas.sol\":577:620  bool public isOneEther = (oneEther == 1e18) */\n  0x04\n  exp(0x0100, 0x00)\n  dup2\n  sload\n  dup2\n  0xff\n  mul\n  not\n  and\n  swap1\n  dup4\n  iszero\n  iszero\n  mul\n  or\n  swap1\n  sstore\n  pop\n    /* \"Sol_by_Example/Basics/ether_wei_gas.sol\":58:1688  contract Sample {... */\n  callvalue\n  dup1\n  iszero\n  tag_1\n  jumpi\n  revert(0x00, 0x00)\ntag_1:\n  pop\n  dataSize(sub_0)\n  dup1\n  dataOffset(sub_0)\n  0x00\n  codecopy\n  0x00\n  return\nstop\n\nsub_0: assembly {\n        /* \"Sol_by_Example/Basics/ether_wei_gas.sol\":58:1688  contract Sample {... */\n      mstore(0x40, 0x80)\n      callvalue\n      dup1\n      iszero\n      tag_1\n      jumpi\n      revert(0x00, 0x00)\n    tag_1:\n      pop\n      jumpi(tag_2, lt(calldatasize, 0x04))\n      shr(0xe0, calldataload(0x00))\n      dup1\n      0x6d4ce63c\n      gt\n      tag_13\n      jumpi\n      dup1\n      0x6d4ce63c\n      eq\n      tag_8\n      jumpi\n      dup1\n      0x8e50b65c\n      eq\n      tag_9\n      jumpi\n      dup1\n      0xa92100cb\n      eq\n      tag_10\n      jumpi\n      dup1\n      0xcf0f5d29\n      eq\n      tag_11\n      jumpi\n      dup1\n      0xd297a89f\n      eq\n      tag_12\n      jumpi\n      jump(tag_2)\n    tag_13:\n      dup1\n      0x2fbebd38\n      eq\n      tag_3\n      jumpi\n      dup1\n      0x4e70b1dc\n      eq\n      tag_4\n      jumpi\n      dup1\n      0x4fb2e0be\n      eq\n      tag_5\n      jumpi\n      dup1\n      0x55278c5b\n      eq\n      tag_6\n      jumpi\n      dup1\n      0x60fe47b1\n      eq\n      tag_7\n      jumpi\n    tag_2:\n      revert(0x00, 0x00)\n        /* \"Sol_by_Example/Basics/ether_wei_gas.sol\":962:1171  function foo(uint x) public pure returns (uint) {... */\n    tag_3:\n      tag_14\n      0x04\n      dup1\n      calldatasize\n      sub\n      dup2\n      add\n      swap1\n      tag_15\n      swap2\n      swap1\n      tag_16\n      jump\t// in\n    tag_15:\n      tag_17\n      jump\t// in\n    tag_14:\n      mload(0x40)\n      tag_18\n      swap2\n      swap1\n      tag_19\n      jump\t// in\n    tag_18:\n      mload(0x40)\n      dup1\n      swap2\n      sub\n      swap1\n      return\n        /* \"Sol_by_Example/Basics/ether_wei_gas.sol\":80:95  uint public num */\n    tag_4:\n      tag_20\n      tag_21\n      jump\t// in\n    tag_20:\n      mload(0x40)\n      tag_22\n      swap2\n      swap1\n      tag_19\n      jump\t// in\n    tag_22:\n      mload(0x40)\n      dup1\n      swap2\n      sub\n      swap1\n      return\n        /* \"Sol_by_Example/Basics/ether_wei_gas.sol\":416:442  uint public oneWei = 1 wei */\n    tag_5:\n      tag_23\n      tag_24\n      jump\t// in\n    tag_23:\n      mload(0x40)\n      tag_25\n      swap2\n      swap1\n      tag_19\n      jump\t// in\n    tag_25:\n      mload(0x40)\n      dup1\n      swap2\n      sub\n      swap1\n      return\n        /* \"Sol_by_Example/Basics/ether_wei_gas.sol\":1177:1269  function ternary(uint _x) public pure returns (uint) {... */\n    tag_6:\n      tag_26\n      0x04\n      dup1\n      calldatasize\n      sub\n      dup2\n      add\n      swap1\n      tag_27\n      swap2\n      swap1\n      tag_16\n      jump\t// in\n    tag_27:\n      tag_28\n      jump\t// in\n    tag_26:\n      mload(0x40)\n      tag_29\n      swap2\n      swap1\n      tag_19\n      jump\t// in\n    tag_29:\n      mload(0x40)\n      dup1\n      swap2\n      sub\n      swap1\n      return\n        /* \"Sol_by_Example/Basics/ether_wei_gas.sol\":125:232  function set(uint _num ) public {... */\n    tag_7:\n      tag_30\n      0x04\n      dup1\n      calldatasize\n      sub\n      dup2\n      add\n      swap1\n      tag_31\n      swap2\n      swap1\n      tag_16\n      jump\t// in\n    tag_31:\n      tag_32\n      jump\t// in\n    tag_30:\n      stop\n        /* \"Sol_by_Example/Basics/ether_wei_gas.sol\":238:307  function get() public view returns (uint) {... */\n    tag_8:\n      tag_33\n      tag_34\n      jump\t// in\n    tag_33:\n      mload(0x40)\n      tag_35\n      swap2\n      swap1\n      tag_19\n      jump\t// in\n    tag_35:\n      mload(0x40)\n      dup1\n      swap2\n      sub\n      swap1\n      return\n        /* \"Sol_by_Example/Basics/ether_wei_gas.sol\":475:503  uint public oneGwei = 1 gwei */\n    tag_9:\n      tag_36\n      tag_37\n      jump\t// in\n    tag_36:\n      mload(0x40)\n      tag_38\n      swap2\n      swap1\n      tag_19\n      jump\t// in\n    tag_38:\n      mload(0x40)\n      dup1\n      swap2\n      sub\n      swap1\n      return\n        /* \"Sol_by_Example/Basics/ether_wei_gas.sol\":1404:1684  function loop() public pure {... */\n    tag_10:\n      tag_39\n      tag_40\n      jump\t// in\n    tag_39:\n      stop\n        /* \"Sol_by_Example/Basics/ether_wei_gas.sol\":577:620  bool public isOneEther = (oneEther == 1e18) */\n    tag_11:\n      tag_41\n      tag_42\n      jump\t// in\n    tag_41:\n      mload(0x40)\n      tag_43\n      swap2\n      swap1\n      tag_44\n      jump\t// in\n    tag_43:\n      mload(0x40)\n      dup1\n      swap2\n      sub\n      swap1\n      return\n        /* \"Sol_by_Example/Basics/ether_wei_gas.sol\":540:570  uint public oneEther = 1 ether */\n    tag_12:\n      tag_45\n      tag_46\n      jump\t// in\n    tag_45:\n      mload(0x40)\n      tag_47\n      swap2\n      swap1\n      tag_19\n      jump\t// in\n    tag_47:\n      mload(0x40)\n      dup1\n      swap2\n      sub\n      swap1\n      return\n        /* \"Sol_by_Example/Basics/ether_wei_gas.sol\":962:1171  function foo(uint x) public pure returns (uint) {... */\n    tag_17:\n        /* \"Sol_by_Example/Basics/ether_wei_gas.sol\":1004:1008  uint */\n      0x00\n        /* \"Sol_by_Example/Basics/ether_wei_gas.sol\":1026:1028  10 */\n      0x0a\n        /* \"Sol_by_Example/Basics/ether_wei_gas.sol\":1024:1025  x */\n      dup3\n        /* \"Sol_by_Example/Basics/ether_wei_gas.sol\":1024:1028  x<10 */\n      lt\n        /* \"Sol_by_Example/Basics/ether_wei_gas.sol\":1020:1165  if (x<10){... */\n      iszero\n      tag_49\n      jumpi\n        /* \"Sol_by_Example/Basics/ether_wei_gas.sol\":1050:1051  0 */\n      0x00\n        /* \"Sol_by_Example/Basics/ether_wei_gas.sol\":1043:1051  return 0 */\n      swap1\n      pop\n      jump(tag_48)\n        /* \"Sol_by_Example/Basics/ether_wei_gas.sol\":1020:1165  if (x<10){... */\n    tag_49:\n        /* \"Sol_by_Example/Basics/ether_wei_gas.sol\":1082:1084  20 */\n      0x14\n        /* \"Sol_by_Example/Basics/ether_wei_gas.sol\":1080:1081  x */\n      dup3\n        /* \"Sol_by_Example/Basics/ether_wei_gas.sol\":1080:1084  x<20 */\n      lt\n        /* \"Sol_by_Example/Basics/ether_wei_gas.sol\":1076:1165  if (x<20){... */\n      iszero\n      tag_51\n      jumpi\n        /* \"Sol_by_Example/Basics/ether_wei_gas.sol\":1106:1107  1 */\n      0x01\n        /* \"Sol_by_Example/Basics/ether_wei_gas.sol\":1099:1107  return 1 */\n      swap1\n      pop\n      jump(tag_48)\n        /* \"Sol_by_Example/Basics/ether_wei_gas.sol\":1076:1165  if (x<20){... */\n    tag_51:\n        /* \"Sol_by_Example/Basics/ether_wei_gas.sol\":1153:1154  2 */\n      0x02\n        /* \"Sol_by_Example/Basics/ether_wei_gas.sol\":1146:1154  return 2 */\n      swap1\n      pop\n        /* \"Sol_by_Example/Basics/ether_wei_gas.sol\":962:1171  function foo(uint x) public pure returns (uint) {... */\n    tag_48:\n      swap2\n      swap1\n      pop\n      jump\t// out\n        /* \"Sol_by_Example/Basics/ether_wei_gas.sol\":80:95  uint public num */\n    tag_21:\n      sload(0x00)\n      dup2\n      jump\t// out\n        /* \"Sol_by_Example/Basics/ether_wei_gas.sol\":416:442  uint public oneWei = 1 wei */\n    tag_24:\n      sload(0x01)\n      dup2\n      jump\t// out\n        /* \"Sol_by_Example/Basics/ether_wei_gas.sol\":1177:1269  function ternary(uint _x) public pure returns (uint) {... */\n    tag_28:\n        /* \"Sol_by_Example/Basics/ether_wei_gas.sol\":1224:1228  uint */\n      0x00\n        /* \"Sol_by_Example/Basics/ether_wei_gas.sol\":1252:1254  10 */\n      0x0a\n        /* \"Sol_by_Example/Basics/ether_wei_gas.sol\":1247:1249  _x */\n      dup3\n        /* \"Sol_by_Example/Basics/ether_wei_gas.sol\":1247:1254  _x < 10 */\n      lt\n        /* \"Sol_by_Example/Basics/ether_wei_gas.sol\":1247:1262  _x < 10 ? 1 : 2 */\n      tag_54\n      jumpi\n        /* \"Sol_by_Example/Basics/ether_wei_gas.sol\":1261:1262  2 */\n      0x02\n        /* \"Sol_by_Example/Basics/ether_wei_gas.sol\":1247:1262  _x < 10 ? 1 : 2 */\n      jump(tag_55)\n    tag_54:\n        /* \"Sol_by_Example/Basics/ether_wei_gas.sol\":1257:1258  1 */\n      0x01\n        /* \"Sol_by_Example/Basics/ether_wei_gas.sol\":1247:1262  _x < 10 ? 1 : 2 */\n    tag_55:\n        /* \"Sol_by_Example/Basics/ether_wei_gas.sol\":1240:1262  return _x < 10 ? 1 : 2 */\n      0xff\n      and\n      swap1\n      pop\n        /* \"Sol_by_Example/Basics/ether_wei_gas.sol\":1177:1269  function ternary(uint _x) public pure returns (uint) {... */\n      swap2\n      swap1\n      pop\n      jump\t// out\n        /* \"Sol_by_Example/Basics/ether_wei_gas.sol\":125:232  function set(uint _num ) public {... */\n    tag_32:\n        /* \"Sol_by_Example/Basics/ether_wei_gas.sol\":173:177  _num */\n      dup1\n        /* \"Sol_by_Example/Basics/ether_wei_gas.sol\":167:170  num */\n      0x00\n        /* \"Sol_by_Example/Basics/ether_wei_gas.sol\":167:177  num = _num */\n      dup2\n      swap1\n      sstore\n      pop\n        /* \"Sol_by_Example/Basics/ether_wei_gas.sol\":125:232  function set(uint _num ) public {... */\n      pop\n      jump\t// out\n        /* \"Sol_by_Example/Basics/ether_wei_gas.sol\":238:307  function get() public view returns (uint) {... */\n    tag_34:\n        /* \"Sol_by_Example/Basics/ether_wei_gas.sol\":274:278  uint */\n      0x00\n        /* \"Sol_by_Example/Basics/ether_wei_gas.sol\":297:300  num */\n      sload(0x00)\n        /* \"Sol_by_Example/Basics/ether_wei_gas.sol\":290:300  return num */\n      swap1\n      pop\n        /* \"Sol_by_Example/Basics/ether_wei_gas.sol\":238:307  function get() public view returns (uint) {... */\n      swap1\n      jump\t// out\n        /* \"Sol_by_Example/Basics/ether_wei_gas.sol\":475:503  uint public oneGwei = 1 gwei */\n    tag_37:\n      sload(0x02)\n      dup2\n      jump\t// out\n        /* \"Sol_by_Example/Basics/ether_wei_gas.sol\":1404:1684  function loop() public pure {... */\n    tag_40:\n        /* \"Sol_by_Example/Basics/ether_wei_gas.sol\":1447:1453  uint i */\n      0x00\n        /* \"Sol_by_Example/Basics/ether_wei_gas.sol\":1454:1455  0 */\n      0x00\n        /* \"Sol_by_Example/Basics/ether_wei_gas.sol\":1447:1455  uint i=0 */\n      swap1\n      pop\n        /* \"Sol_by_Example/Basics/ether_wei_gas.sol\":1442:1611  for( uint i=0; i<10 ; i++) {... */\n    tag_59:\n        /* \"Sol_by_Example/Basics/ether_wei_gas.sol\":1459:1461  10 */\n      0x0a\n        /* \"Sol_by_Example/Basics/ether_wei_gas.sol\":1457:1458  i */\n      dup2\n        /* \"Sol_by_Example/Basics/ether_wei_gas.sol\":1457:1461  i<10 */\n      lt\n        /* \"Sol_by_Example/Basics/ether_wei_gas.sol\":1442:1611  for( uint i=0; i<10 ; i++) {... */\n      iszero\n      tag_60\n      jumpi\n        /* \"Sol_by_Example/Basics/ether_wei_gas.sol\":1494:1495  0 */\n      0x00\n        /* \"Sol_by_Example/Basics/ether_wei_gas.sol\":1489:1490  2 */\n      0x02\n        /* \"Sol_by_Example/Basics/ether_wei_gas.sol\":1487:1488  i */\n      dup3\n        /* \"Sol_by_Example/Basics/ether_wei_gas.sol\":1487:1490  i%2 */\n      tag_62\n      swap2\n      swap1\n      tag_63\n      jump\t// in\n    tag_62:\n        /* \"Sol_by_Example/Basics/ether_wei_gas.sol\":1487:1495  i%2 == 0 */\n      sub\n        /* \"Sol_by_Example/Basics/ether_wei_gas.sol\":1483:1539  if (i%2 == 0) {... */\n      iszero\n        /* \"Sol_by_Example/Basics/ether_wei_gas.sol\":1515:1523  continue */\n      tag_61\n        /* \"Sol_by_Example/Basics/ether_wei_gas.sol\":1483:1539  if (i%2 == 0) {... */\n      jumpi\n        /* \"Sol_by_Example/Basics/ether_wei_gas.sol\":1560:1561  7 */\n      0x07\n        /* \"Sol_by_Example/Basics/ether_wei_gas.sol\":1557:1558  i */\n      dup2\n        /* \"Sol_by_Example/Basics/ether_wei_gas.sol\":1557:1561  i==7 */\n      sub\n        /* \"Sol_by_Example/Basics/ether_wei_gas.sol\":1552:1601  if ( i==7) {... */\n      iszero\n        /* \"Sol_by_Example/Basics/ether_wei_gas.sol\":1581:1586  break */\n      tag_60\n        /* \"Sol_by_Example/Basics/ether_wei_gas.sol\":1552:1601  if ( i==7) {... */\n      jumpi\n        /* \"Sol_by_Example/Basics/ether_wei_gas.sol\":1442:1611  for( uint i=0; i<10 ; i++) {... */\n    tag_61:\n        /* \"Sol_by_Example/Basics/ether_wei_gas.sol\":1464:1467  i++ */\n      dup1\n      dup1\n      0x01\n      add\n      swap2\n      pop\n      pop\n        /* \"Sol_by_Example/Basics/ether_wei_gas.sol\":1442:1611  for( uint i=0; i<10 ; i++) {... */\n      jump(tag_59)\n    tag_60:\n      pop\n        /* \"Sol_by_Example/Basics/ether_wei_gas.sol\":1620:1626  uint j */\n      0x00\n        /* \"Sol_by_Example/Basics/ether_wei_gas.sol\":1636:1678  while ( j<10 ){... */\n    tag_66:\n        /* \"Sol_by_Example/Basics/ether_wei_gas.sol\":1646:1648  10 */\n      0x0a\n        /* \"Sol_by_Example/Basics/ether_wei_gas.sol\":1644:1645  j */\n      dup2\n        /* \"Sol_by_Example/Basics/ether_wei_gas.sol\":1644:1648  j<10 */\n      lt\n        /* \"Sol_by_Example/Basics/ether_wei_gas.sol\":1636:1678  while ( j<10 ){... */\n      iszero\n      tag_67\n      jumpi\n        /* \"Sol_by_Example/Basics/ether_wei_gas.sol\":1664:1667  j++ */\n      dup1\n      dup1\n      tag_68\n      swap1\n      tag_69\n      jump\t// in\n    tag_68:\n      swap2\n      pop\n      pop\n        /* \"Sol_by_Example/Basics/ether_wei_gas.sol\":1636:1678  while ( j<10 ){... */\n      jump(tag_66)\n    tag_67:\n        /* \"Sol_by_Example/Basics/ether_wei_gas.sol\":1432:1684  {... */\n      pop\n        /* \"Sol_by_Example/Basics/ether_wei_gas.sol\":1404:1684  function loop() public pure {... */\n      jump\t// out\n        /* \"Sol_by_Example/Basics/ether_wei_gas.sol\":577:620  bool public isOneEther = (oneEther == 1e18) */\n    tag_42:\n      0x04\n      0x00\n      swap1\n      sload\n      swap1\n      0x0100\n      exp\n      swap1\n      div\n      0xff\n      and\n      dup2\n      jump\t// out\n        /* \"Sol_by_Example/Basics/ether_wei_gas.sol\":540:570  uint public oneEther = 1 ether */\n    tag_46:\n      sload(0x03)\n      dup2\n      jump\t// out\n        /* \"#utility.yul\":88:205   */\n    tag_71:\n        /* \"#utility.yul\":197:198   */\n      0x00\n        /* \"#utility.yul\":194:195   */\n      0x00\n        /* \"#utility.yul\":187:199   */\n      revert\n        /* \"#utility.yul\":334:411   */\n    tag_73:\n        /* \"#utility.yul\":371:378   */\n      0x00\n        /* \"#utility.yul\":400:405   */\n      dup2\n        /* \"#utility.yul\":389:405   */\n      swap1\n      pop\n        /* \"#utility.yul\":334:411   */\n      swap2\n      swap1\n      pop\n      jump\t// out\n        /* \"#utility.yul\":417:539   */\n    tag_74:\n        /* \"#utility.yul\":490:514   */\n      tag_87\n        /* \"#utility.yul\":508:513   */\n      dup2\n        /* \"#utility.yul\":490:514   */\n      tag_73\n      jump\t// in\n    tag_87:\n        /* \"#utility.yul\":483:488   */\n      dup2\n        /* \"#utility.yul\":480:515   */\n      eq\n        /* \"#utility.yul\":470:533   */\n      tag_88\n      jumpi\n        /* \"#utility.yul\":529:530   */\n      0x00\n        /* \"#utility.yul\":526:527   */\n      0x00\n        /* \"#utility.yul\":519:531   */\n      revert\n        /* \"#utility.yul\":470:533   */\n    tag_88:\n        /* \"#utility.yul\":417:539   */\n      pop\n      jump\t// out\n        /* \"#utility.yul\":545:684   */\n    tag_75:\n        /* \"#utility.yul\":591:596   */\n      0x00\n        /* \"#utility.yul\":629:635   */\n      dup2\n        /* \"#utility.yul\":616:636   */\n      calldataload\n        /* \"#utility.yul\":607:636   */\n      swap1\n      pop\n        /* \"#utility.yul\":645:678   */\n      tag_90\n        /* \"#utility.yul\":672:677   */\n      dup2\n        /* \"#utility.yul\":645:678   */\n      tag_74\n      jump\t// in\n    tag_90:\n        /* \"#utility.yul\":545:684   */\n      swap3\n      swap2\n      pop\n      pop\n      jump\t// out\n        /* \"#utility.yul\":690:1019   */\n    tag_16:\n        /* \"#utility.yul\":749:755   */\n      0x00\n        /* \"#utility.yul\":798:800   */\n      0x20\n        /* \"#utility.yul\":786:795   */\n      dup3\n        /* \"#utility.yul\":777:784   */\n      dup5\n        /* \"#utility.yul\":773:796   */\n      sub\n        /* \"#utility.yul\":769:801   */\n      slt\n        /* \"#utility.yul\":766:885   */\n      iszero\n      tag_92\n      jumpi\n        /* \"#utility.yul\":804:883   */\n      tag_93\n      tag_71\n      jump\t// in\n    tag_93:\n        /* \"#utility.yul\":766:885   */\n    tag_92:\n        /* \"#utility.yul\":924:925   */\n      0x00\n        /* \"#utility.yul\":949:1002   */\n      tag_94\n        /* \"#utility.yul\":994:1001   */\n      dup5\n        /* \"#utility.yul\":985:991   */\n      dup3\n        /* \"#utility.yul\":974:983   */\n      dup6\n        /* \"#utility.yul\":970:992   */\n      add\n        /* \"#utility.yul\":949:1002   */\n      tag_75\n      jump\t// in\n    tag_94:\n        /* \"#utility.yul\":939:1002   */\n      swap2\n      pop\n        /* \"#utility.yul\":895:1012   */\n      pop\n        /* \"#utility.yul\":690:1019   */\n      swap3\n      swap2\n      pop\n      pop\n      jump\t// out\n        /* \"#utility.yul\":1025:1143   */\n    tag_76:\n        /* \"#utility.yul\":1112:1136   */\n      tag_96\n        /* \"#utility.yul\":1130:1135   */\n      dup2\n        /* \"#utility.yul\":1112:1136   */\n      tag_73\n      jump\t// in\n    tag_96:\n        /* \"#utility.yul\":1107:1110   */\n      dup3\n        /* \"#utility.yul\":1100:1137   */\n      mstore\n        /* \"#utility.yul\":1025:1143   */\n      pop\n      pop\n      jump\t// out\n        /* \"#utility.yul\":1149:1371   */\n    tag_19:\n        /* \"#utility.yul\":1242:1246   */\n      0x00\n        /* \"#utility.yul\":1280:1282   */\n      0x20\n        /* \"#utility.yul\":1269:1278   */\n      dup3\n        /* \"#utility.yul\":1265:1283   */\n      add\n        /* \"#utility.yul\":1257:1283   */\n      swap1\n      pop\n        /* \"#utility.yul\":1293:1364   */\n      tag_98\n        /* \"#utility.yul\":1361:1362   */\n      0x00\n        /* \"#utility.yul\":1350:1359   */\n      dup4\n        /* \"#utility.yul\":1346:1363   */\n      add\n        /* \"#utility.yul\":1337:1343   */\n      dup5\n        /* \"#utility.yul\":1293:1364   */\n      tag_76\n      jump\t// in\n    tag_98:\n        /* \"#utility.yul\":1149:1371   */\n      swap3\n      swap2\n      pop\n      pop\n      jump\t// out\n        /* \"#utility.yul\":1377:1467   */\n    tag_77:\n        /* \"#utility.yul\":1411:1418   */\n      0x00\n        /* \"#utility.yul\":1454:1459   */\n      dup2\n        /* \"#utility.yul\":1447:1460   */\n      iszero\n        /* \"#utility.yul\":1440:1461   */\n      iszero\n        /* \"#utility.yul\":1429:1461   */\n      swap1\n      pop\n        /* \"#utility.yul\":1377:1467   */\n      swap2\n      swap1\n      pop\n      jump\t// out\n        /* \"#utility.yul\":1473:1582   */\n    tag_78:\n        /* \"#utility.yul\":1554:1575   */\n      tag_101\n        /* \"#utility.yul\":1569:1574   */\n      dup2\n        /* \"#utility.yul\":1554:1575   */\n      tag_77\n      jump\t// in\n    tag_101:\n        /* \"#utility.yul\":1549:1552   */\n      dup3\n        /* \"#utility.yul\":1542:1576   */\n      mstore\n        /* \"#utility.yul\":1473:1582   */\n      pop\n      pop\n      jump\t// out\n        /* \"#utility.yul\":1588:1798   */\n    tag_44:\n        /* \"#utility.yul\":1675:1679   */\n      0x00\n        /* \"#utility.yul\":1713:1715   */\n      0x20\n        /* \"#utility.yul\":1702:1711   */\n      dup3\n        /* \"#utility.yul\":1698:1716   */\n      add\n        /* \"#utility.yul\":1690:1716   */\n      swap1\n      pop\n        /* \"#utility.yul\":1726:1791   */\n      tag_103\n        /* \"#utility.yul\":1788:1789   */\n      0x00\n        /* \"#utility.yul\":1777:1786   */\n      dup4\n        /* \"#utility.yul\":1773:1790   */\n      add\n        /* \"#utility.yul\":1764:1770   */\n      dup5\n        /* \"#utility.yul\":1726:1791   */\n      tag_78\n      jump\t// in\n    tag_103:\n        /* \"#utility.yul\":1588:1798   */\n      swap3\n      swap2\n      pop\n      pop\n      jump\t// out\n        /* \"#utility.yul\":1804:1984   */\n    tag_79:\n        /* \"#utility.yul\":1852:1929   */\n      0x4e487b7100000000000000000000000000000000000000000000000000000000\n        /* \"#utility.yul\":1849:1850   */\n      0x00\n        /* \"#utility.yul\":1842:1930   */\n      mstore\n        /* \"#utility.yul\":1949:1953   */\n      0x12\n        /* \"#utility.yul\":1946:1947   */\n      0x04\n        /* \"#utility.yul\":1939:1954   */\n      mstore\n        /* \"#utility.yul\":1973:1977   */\n      0x24\n        /* \"#utility.yul\":1970:1971   */\n      0x00\n        /* \"#utility.yul\":1963:1978   */\n      revert\n        /* \"#utility.yul\":1990:2166   */\n    tag_63:\n        /* \"#utility.yul\":2022:2023   */\n      0x00\n        /* \"#utility.yul\":2039:2059   */\n      tag_106\n        /* \"#utility.yul\":2057:2058   */\n      dup3\n        /* \"#utility.yul\":2039:2059   */\n      tag_73\n      jump\t// in\n    tag_106:\n        /* \"#utility.yul\":2034:2059   */\n      swap2\n      pop\n        /* \"#utility.yul\":2073:2093   */\n      tag_107\n        /* \"#utility.yul\":2091:2092   */\n      dup4\n        /* \"#utility.yul\":2073:2093   */\n      tag_73\n      jump\t// in\n    tag_107:\n        /* \"#utility.yul\":2068:2093   */\n      swap3\n      pop\n        /* \"#utility.yul\":2112:2113   */\n      dup3\n        /* \"#utility.yul\":2102:2137   */\n      tag_108\n      jumpi\n        /* \"#utility.yul\":2117:2135   */\n      tag_109\n      tag_79\n      jump\t// in\n    tag_109:\n        /* \"#utility.yul\":2102:2137   */\n    tag_108:\n        /* \"#utility.yul\":2158:2159   */\n      dup3\n        /* \"#utility.yul\":2155:2156   */\n      dup3\n        /* \"#utility.yul\":2151:2160   */\n      mod\n        /* \"#utility.yul\":2146:2160   */\n      swap1\n      pop\n        /* \"#utility.yul\":1990:2166   */\n      swap3\n      swap2\n      pop\n      pop\n      jump\t// out\n        /* \"#utility.yul\":2172:2352   */\n    tag_80:\n        /* \"#utility.yul\":2220:2297   */\n      0x4e487b7100000000000000000000000000000000000000000000000000000000\n        /* \"#utility.yul\":2217:2218   */\n      0x00\n        /* \"#utility.yul\":2210:2298   */\n      mstore\n        /* \"#utility.yul\":2317:2321   */\n      0x11\n        /* \"#utility.yul\":2314:2315   */\n      0x04\n        /* \"#utility.yul\":2307:2322   */\n      mstore\n        /* \"#utility.yul\":2341:2345   */\n      0x24\n        /* \"#utility.yul\":2338:2339   */\n      0x00\n        /* \"#utility.yul\":2331:2346   */\n      revert\n        /* \"#utility.yul\":2358:2591   */\n    tag_69:\n        /* \"#utility.yul\":2397:2400   */\n      0x00\n        /* \"#utility.yul\":2420:2444   */\n      tag_112\n        /* \"#utility.yul\":2438:2443   */\n      dup3\n        /* \"#utility.yul\":2420:2444   */\n      tag_73\n      jump\t// in\n    tag_112:\n        /* \"#utility.yul\":2411:2444   */\n      swap2\n      pop\n        /* \"#utility.yul\":2466:2532   */\n      0xffffffffffffffffffffffffffffffffffffffffffffffffffffffffffffffff\n        /* \"#utility.yul\":2459:2464   */\n      dup3\n        /* \"#utility.yul\":2456:2533   */\n      sub\n        /* \"#utility.yul\":2453:2556   */\n      tag_113\n      jumpi\n        /* \"#utility.yul\":2536:2554   */\n      tag_114\n      tag_80\n      jump\t// in\n    tag_114:\n        /* \"#utility.yul\":2453:2556   */\n    tag_113:\n        /* \"#utility.yul\":2583:2584   */\n      0x01\n        /* \"#utility.yul\":2576:2581   */\n      dup3\n        /* \"#utility.yul\":2572:2585   */\n      add\n        /* \"#utility.yul\":2565:2585   */\n      swap1\n      pop\n        /* \"#utility.yul\":2358:2591   */\n      swap2\n      swap1\n      pop\n      jump\t// out\n\n    auxdata: 0xa2646970667358221220c73c38943472f08f457411e0ee5734c42fd7324eb9adff1df0e965d0696cf2e264736f6c634300081f0033\n}\n",
				"bytecode": {
					"linkReferences": {},
					"object": "608060405260018055633b9aca00600255670de0b6b3a7640000600355670de0b6b3a76400006003541460045f6101000a81548160ff021916908315150217905550348015604b575f5ffd5b5061047e806100595f395ff3fe608060405234801561000f575f5ffd5b506004361061009c575f3560e01c80636d4ce63c116100645780636d4ce63c146101585780638e50b65c14610176578063a92100cb14610194578063cf0f5d291461019e578063d297a89f146101bc5761009c565b80632fbebd38146100a05780634e70b1dc146100d05780634fb2e0be146100ee57806355278c5b1461010c57806360fe47b11461013c575b5f5ffd5b6100ba60048036038101906100b591906102f1565b6101da565b6040516100c7919061032b565b60405180910390f35b6100d8610208565b6040516100e5919061032b565b60405180910390f35b6100f661020d565b604051610103919061032b565b60405180910390f35b610126600480360381019061012191906102f1565b610213565b604051610133919061032b565b60405180910390f35b610156600480360381019061015191906102f1565b610230565b005b610160610239565b60405161016d919061032b565b60405180910390f35b61017e610241565b60405161018b919061032b565b60405180910390f35b61019c610247565b005b6101a66102a2565b6040516101b3919061035e565b60405180910390f35b6101c46102b4565b6040516101d1919061032b565b60405180910390f35b5f600a8210156101ec575f9050610203565b60148210156101fe5760019050610203565b600290505b919050565b5f5481565b60015481565b5f600a8210610223576002610226565b60015b60ff169050919050565b805f8190555050565b5f5f54905090565b60025481565b5f5f90505b600a811015610280575f60028261026391906103a4565b0315610273576007810315610280575b808060010191505061024c565b505f5b600a81101561029f57808061029790610401565b915050610283565b50565b60045f9054906101000a900460ff1681565b60035481565b5f5ffd5b5f819050919050565b6102d0816102be565b81146102da575f5ffd5b50565b5f813590506102eb816102c7565b92915050565b5f60208284031215610306576103056102ba565b5b5f610313848285016102dd565b91505092915050565b610325816102be565b82525050565b5f60208201905061033e5f83018461031c565b92915050565b5f8115159050919050565b61035881610344565b82525050565b5f6020820190506103715f83018461034f565b92915050565b7f4e487b71000000000000000000000000000000000000000000000000000000005f52601260045260245ffd5b5f6103ae826102be565b91506103b9836102be565b9250826103c9576103c8610377565b5b828206905092915050565b7f4e487b71000000000000000000000000000000000000000000000000000000005f52601160045260245ffd5b5f61040b826102be565b91507fffffffffffffffffffffffffffffffffffffffffffffffffffffffffffffffff820361043d5761043c6103d4565b5b60018201905091905056fea2646970667358221220c73c38943472f08f457411e0ee5734c42fd7324eb9adff1df0e965d0696cf2e264736f6c634300081f0033",
					"opcodes": "PUSH1 0x80 PUSH1 0x40 MSTORE PUSH1 0x1 DUP1 SSTORE PUSH4 0x3B9ACA00 PUSH1 0x2 SSTORE PUSH8 0xDE0B6B3A7640000 PUSH1 0x3 SSTORE PUSH8 0xDE0B6B3A7640000 PUSH1 0x3 SLOAD EQ PUSH1 0x4 PUSH0 PUSH2 0x100 EXP DUP2 SLOAD DUP2 PUSH1 0xFF MUL NOT AND SWAP1 DUP4 ISZERO ISZERO MUL OR SWAP1 SSTORE POP CALLVALUE DUP1 ISZERO PUSH1 0x4B JUMPI PUSH0 PUSH0 REVERT JUMPDEST POP PUSH2 0x47E DUP1 PUSH2 0x59 PUSH0 CODECOPY PUSH0 RETURN INVALID PUSH1 0x80 PUSH1 0x40 MSTORE CALLVALUE DUP1 ISZERO PUSH2 0xF JUMPI PUSH0 PUSH0 REVERT JUMPDEST POP PUSH1 0x4 CALLDATASIZE LT PUSH2 0x9C JUMPI PUSH0 CALLDATALOAD PUSH1 0xE0 SHR DUP1 PUSH4 0x6D4CE63C GT PUSH2 0x64 JUMPI DUP1 PUSH4 0x6D4CE63C EQ PUSH2 0x158 JUMPI DUP1 PUSH4 0x8E50B65C EQ PUSH2 0x176 JUMPI DUP1 PUSH4 0xA92100CB EQ PUSH2 0x194 JUMPI DUP1 PUSH4 0xCF0F5D29 EQ PUSH2 0x19E JUMPI DUP1 PUSH4 0xD297A89F EQ PUSH2 0x1BC JUMPI PUSH2 0x9C JUMP JUMPDEST DUP1 PUSH4 0x2FBEBD38 EQ PUSH2 0xA0 JUMPI DUP1 PUSH4 0x4E70B1DC EQ PUSH2 0xD0 JUMPI DUP1 PUSH4 0x4FB2E0BE EQ PUSH2 0xEE JUMPI DUP1 PUSH4 0x55278C5B EQ PUSH2 0x10C JUMPI DUP1 PUSH4 0x60FE47B1 EQ PUSH2 0x13C JUMPI JUMPDEST PUSH0 PUSH0 REVERT JUMPDEST PUSH2 0xBA PUSH1 0x4 DUP1 CALLDATASIZE SUB DUP2 ADD SWAP1 PUSH2 0xB5 SWAP2 SWAP1 PUSH2 0x2F1 JUMP JUMPDEST PUSH2 0x1DA JUMP JUMPDEST PUSH1 0x40 MLOAD PUSH2 0xC7 SWAP2 SWAP1 PUSH2 0x32B JUMP JUMPDEST PUSH1 0x40 MLOAD DUP1 SWAP2 SUB SWAP1 RETURN JUMPDEST PUSH2 0xD8 PUSH2 0x208 JUMP JUMPDEST PUSH1 0x40 MLOAD PUSH2 0xE5 SWAP2 SWAP1 PUSH2 0x32B JUMP JUMPDEST PUSH1 0x40 MLOAD DUP1 SWAP2 SUB SWAP1 RETURN JUMPDEST PUSH2 0xF6 PUSH2 0x20D JUMP JUMPDEST PUSH1 0x40 MLOAD PUSH2 0x103 SWAP2 SWAP1 PUSH2 0x32B JUMP JUMPDEST PUSH1 0x40 MLOAD DUP1 SWAP2 SUB SWAP1 RETURN JUMPDEST PUSH2 0x126 PUSH1 0x4 DUP1 CALLDATASIZE SUB DUP2 ADD SWAP1 PUSH2 0x121 SWAP2 SWAP1 PUSH2 0x2F1 JUMP JUMPDEST PUSH2 0x213 JUMP JUMPDEST PUSH1 0x40 MLOAD PUSH2 0x133 SWAP2 SWAP1 PUSH2 0x32B JUMP JUMPDEST PUSH1 0x40 MLOAD DUP1 SWAP2 SUB SWAP1 RETURN JUMPDEST PUSH2 0x156 PUSH1 0x4 DUP1 CALLDATASIZE SUB DUP2 ADD SWAP1 PUSH2 0x151 SWAP2 SWAP1 PUSH2 0x2F1 JUMP JUMPDEST PUSH2 0x230 JUMP JUMPDEST STOP JUMPDEST PUSH2 0x160 PUSH2 0x239 JUMP JUMPDEST PUSH1 0x40 MLOAD PUSH2 0x16D SWAP2 SWAP1 PUSH2 0x32B JUMP JUMPDEST PUSH1 0x40 MLOAD DUP1 SWAP2 SUB SWAP1 RETURN JUMPDEST PUSH2 0x17E PUSH2 0x241 JUMP JUMPDEST PUSH1 0x40 MLOAD PUSH2 0x18B SWAP2 SWAP1 PUSH2 0x32B JUMP JUMPDEST PUSH1 0x40 MLOAD DUP1 SWAP2 SUB SWAP1 RETURN JUMPDEST PUSH2 0x19C PUSH2 0x247 JUMP JUMPDEST STOP JUMPDEST PUSH2 0x1A6 PUSH2 0x2A2 JUMP JUMPDEST PUSH1 0x40 MLOAD PUSH2 0x1B3 SWAP2 SWAP1 PUSH2 0x35E JUMP JUMPDEST PUSH1 0x40 MLOAD DUP1 SWAP2 SUB SWAP1 RETURN JUMPDEST PUSH2 0x1C4 PUSH2 0x2B4 JUMP JUMPDEST PUSH1 0x40 MLOAD PUSH2 0x1D1 SWAP2 SWAP1 PUSH2 0x32B JUMP JUMPDEST PUSH1 0x40 MLOAD DUP1 SWAP2 SUB SWAP1 RETURN JUMPDEST PUSH0 PUSH1 0xA DUP3 LT ISZERO PUSH2 0x1EC JUMPI PUSH0 SWAP1 POP PUSH2 0x203 JUMP JUMPDEST PUSH1 0x14 DUP3 LT ISZERO PUSH2 0x1FE JUMPI PUSH1 0x1 SWAP1 POP PUSH2 0x203 JUMP JUMPDEST PUSH1 0x2 SWAP1 POP JUMPDEST SWAP2 SWAP1 POP JUMP JUMPDEST PUSH0 SLOAD DUP2 JUMP JUMPDEST PUSH1 0x1 SLOAD DUP2 JUMP JUMPDEST PUSH0 PUSH1 0xA DUP3 LT PUSH2 0x223 JUMPI PUSH1 0x2 PUSH2 0x226 JUMP JUMPDEST PUSH1 0x1 JUMPDEST PUSH1 0xFF AND SWAP1 POP SWAP2 SWAP1 POP JUMP JUMPDEST DUP1 PUSH0 DUP2 SWAP1 SSTORE POP POP JUMP JUMPDEST PUSH0 PUSH0 SLOAD SWAP1 POP SWAP1 JUMP JUMPDEST PUSH1 0x2 SLOAD DUP2 JUMP JUMPDEST PUSH0 PUSH0 SWAP1 POP JUMPDEST PUSH1 0xA DUP2 LT ISZERO PUSH2 0x280 JUMPI PUSH0 PUSH1 0x2 DUP3 PUSH2 0x263 SWAP2 SWAP1 PUSH2 0x3A4 JUMP JUMPDEST SUB ISZERO PUSH2 0x273 JUMPI PUSH1 0x7 DUP2 SUB ISZERO PUSH2 0x280 JUMPI JUMPDEST DUP1 DUP1 PUSH1 0x1 ADD SWAP2 POP POP PUSH2 0x24C JUMP JUMPDEST POP PUSH0 JUMPDEST PUSH1 0xA DUP2 LT ISZERO PUSH2 0x29F JUMPI DUP1 DUP1 PUSH2 0x297 SWAP1 PUSH2 0x401 JUMP JUMPDEST SWAP2 POP POP PUSH2 0x283 JUMP JUMPDEST POP JUMP JUMPDEST PUSH1 0x4 PUSH0 SWAP1 SLOAD SWAP1 PUSH2 0x100 EXP SWAP1 DIV PUSH1 0xFF AND DUP2 JUMP JUMPDEST PUSH1 0x3 SLOAD DUP2 JUMP JUMPDEST PUSH0 PUSH0 REVERT JUMPDEST PUSH0 DUP2 SWAP1 POP SWAP2 SWAP1 POP JUMP JUMPDEST PUSH2 0x2D0 DUP2 PUSH2 0x2BE JUMP JUMPDEST DUP2 EQ PUSH2 0x2DA JUMPI PUSH0 PUSH0 REVERT JUMPDEST POP JUMP JUMPDEST PUSH0 DUP2 CALLDATALOAD SWAP1 POP PUSH2 0x2EB DUP2 PUSH2 0x2C7 JUMP JUMPDEST SWAP3 SWAP2 POP POP JUMP JUMPDEST PUSH0 PUSH1 0x20 DUP3 DUP5 SUB SLT ISZERO PUSH2 0x306 JUMPI PUSH2 0x305 PUSH2 0x2BA JUMP JUMPDEST JUMPDEST PUSH0 PUSH2 0x313 DUP5 DUP3 DUP6 ADD PUSH2 0x2DD JUMP JUMPDEST SWAP2 POP POP SWAP3 SWAP2 POP POP JUMP JUMPDEST PUSH2 0x325 DUP2 PUSH2 0x2BE JUMP JUMPDEST DUP3 MSTORE POP POP JUMP JUMPDEST PUSH0 PUSH1 0x20 DUP3 ADD SWAP1 POP PUSH2 0x33E PUSH0 DUP4 ADD DUP5 PUSH2 0x31C JUMP JUMPDEST SWAP3 SWAP2 POP POP JUMP JUMPDEST PUSH0 DUP2 ISZERO ISZERO SWAP1 POP SWAP2 SWAP1 POP JUMP JUMPDEST PUSH2 0x358 DUP2 PUSH2 0x344 JUMP JUMPDEST DUP3 MSTORE POP POP JUMP JUMPDEST PUSH0 PUSH1 0x20 DUP3 ADD SWAP1 POP PUSH2 0x371 PUSH0 DUP4 ADD DUP5 PUSH2 0x34F JUMP JUMPDEST SWAP3 SWAP2 POP POP JUMP JUMPDEST PUSH32 0x4E487B7100000000000000000000000000000000000000000000000000000000 PUSH0 MSTORE PUSH1 0x12 PUSH1 0x4 MSTORE PUSH1 0x24 PUSH0 REVERT JUMPDEST PUSH0 PUSH2 0x3AE DUP3 PUSH2 0x2BE JUMP JUMPDEST SWAP2 POP PUSH2 0x3B9 DUP4 PUSH2 0x2BE JUMP JUMPDEST SWAP3 POP DUP3 PUSH2 0x3C9 JUMPI PUSH2 0x3C8 PUSH2 0x377 JUMP JUMPDEST JUMPDEST DUP3 DUP3 MOD SWAP1 POP SWAP3 SWAP2 POP POP JUMP JUMPDEST PUSH32 0x4E487B7100000000000000000000000000000000000000000000000000000000 PUSH0 MSTORE PUSH1 0x11 PUSH1 0x4 MSTORE PUSH1 0x24 PUSH0 REVERT JUMPDEST PUSH0 PUSH2 0x40B DUP3 PUSH2 0x2BE JUMP JUMPDEST SWAP2 POP PUSH32 0xFFFFFFFFFFFFFFFFFFFFFFFFFFFFFFFFFFFFFFFFFFFFFFFFFFFFFFFFFFFFFFFF DUP3 SUB PUSH2 0x43D JUMPI PUSH2 0x43C PUSH2 0x3D4 JUMP JUMPDEST JUMPDEST PUSH1 0x1 DUP3 ADD SWAP1 POP SWAP2 SWAP1 POP JUMP INVALID LOG2 PUSH5 0x6970667358 0x22 SLT KECCAK256 0xC7 EXTCODECOPY CODESIZE SWAP5 CALLVALUE PUSH19 0xF08F457411E0EE5734C42FD7324EB9ADFF1DF0 0xE9 PUSH6 0xD0696CF2E264 PUSH20 0x6F6C634300081F00330000000000000000000000 "
				},
				"gasEstimates": {
					"creation": {
						"codeDepositCost": "230000",
						"executionCost": "92957",
						"totalCost": "322957"
					},
					"external": {
						"foo(uint256)": "infinite",
						"get()": "2431",
						"isOneEther()": "2532",
						"loop()": "infinite",
						"num()": "2447",
						"oneEther()": "2513",
						"oneGwei()": "2447",
						"oneWei()": "2470",
						"set(uint256)": "22603",
						"ternary(uint256)": "infinite"
					}
				},
				"methodIdentifiers": {
					"foo(uint256)": "2fbebd38",
					"get()": "6d4ce63c",
					"isOneEther()": "cf0f5d29",
					"loop()": "a92100cb",
					"num()": "4e70b1dc",
					"oneEther()": "d297a89f",
					"oneGwei()": "8e50b65c",
					"oneWei()": "4fb2e0be",
					"set(uint256)": "60fe47b1",
					"ternary(uint256)": "55278c5b"
				}
			},
			"storageLayout": {
				"storage": [
					{
						"astId": 3,
						"contract": "Sol_by_Example/Basics/ether_wei_gas.sol:Sample",
						"label": "num",
						"offset": 0,
						"slot": "0",
						"type": "t_uint256"
					},
					{
						"astId": 24,
						"contract": "Sol_by_Example/Basics/ether_wei_gas.sol:Sample",
						"label": "oneWei",
						"offset": 0,
						"slot": "1",
						"type": "t_uint256"
					},
					{
						"astId": 27,
						"contract": "Sol_by_Example/Basics/ether_wei_gas.sol:Sample",
						"label": "oneGwei",
						"offset": 0,
						"slot": "2",
						"type": "t_uint256"
					},
					{
						"astId": 30,
						"contract": "Sol_by_Example/Basics/ether_wei_gas.sol:Sample",
						"label": "oneEther",
						"offset": 0,
						"slot": "3",
						"type": "t_uint256"
					},
					{
						"astId": 36,
						"contract": "Sol_by_Example/Basics/ether_wei_gas.sol:Sample",
						"label": "isOneEther",
						"offset": 0,
						"slot": "4",
						"type": "t_bool"
					}
				],
				"types": {
					"t_bool": {
						"encoding": "inplace",
						"label": "bool",
						"numberOfBytes": "1"
					},
					"t_uint256": {
						"encoding": "inplace",
						"label": "uint256",
						"numberOfBytes": "32"
					}
				}
			},
			"userdoc": {
				"kind": "user",
				"methods": {},
				"version": 1
			}
		}
	}
}