{
	"Sol_by_Example/Applications/02.MultiSigWallet.sol": {
		"MultiSigWallet": {
			"abi": [
				{
					"inputs": [
						{
							"internalType": "address[]",
							"name": "_owners",
							"type": "address[]"
						},
						{
							"internalType": "uint256",
							"name": "_numConfirmationsRequired",
							"type": "uint256"
						}
					],
					"stateMutability": "nonpayable",
					"type": "constructor"
				},
				{
					"anonymous": false,
					"inputs": [
						{
							"indexed": true,
							"internalType": "address",
							"name": "owner",
							"type": "address"
						},
						{
							"indexed": true,
							"internalType": "uint256",
							"name": "txIndex",
							"type": "uint256"
						}
					],
					"name": "ConfirmTransaction",
					"type": "event"
				},
				{
					"anonymous": false,
					"inputs": [
						{
							"indexed": true,
							"internalType": "address",
							"name": "sender",
							"type": "address"
						},
						{
							"indexed": false,
							"internalType": "uint256",
							"name": "value",
							"type": "uint256"
						},
						{
							"indexed": false,
							"internalType": "uint256",
							"name": "balance",
							"type": "uint256"
						}
					],
					"name": "Deposit",
					"type": "event"
				},
				{
					"anonymous": false,
					"inputs": [
						{
							"indexed": true,
							"internalType": "address",
							"name": "owner",
							"type": "address"
						},
						{
							"indexed": true,
							"internalType": "uint256",
							"name": "txIndex",
							"type": "uint256"
						}
					],
					"name": "ExecuteTransaction",
					"type": "event"
				},
				{
					"anonymous": false,
					"inputs": [
						{
							"indexed": true,
							"internalType": "address",
							"name": "owner",
							"type": "address"
						},
						{
							"indexed": true,
							"internalType": "uint256",
							"name": "txIndex",
							"type": "uint256"
						}
					],
					"name": "RevokeConfirmation",
					"type": "event"
				},
				{
					"anonymous": false,
					"inputs": [
						{
							"indexed": true,
							"internalType": "address",
							"name": "owner",
							"type": "address"
						},
						{
							"indexed": true,
							"internalType": "uint256",
							"name": "txIndex",
							"type": "uint256"
						},
						{
							"indexed": true,
							"internalType": "address",
							"name": "to",
							"type": "address"
						},
						{
							"indexed": false,
							"internalType": "uint256",
							"name": "value",
							"type": "uint256"
						},
						{
							"indexed": false,
							"internalType": "bytes",
							"name": "data",
							"type": "bytes"
						}
					],
					"name": "SubmitTransaction",
					"type": "event"
				},
				{
					"inputs": [
						{
							"internalType": "uint256",
							"name": "_txIndex",
							"type": "uint256"
						}
					],
					"name": "confirmTransaction",
					"outputs": [],
					"stateMutability": "nonpayable",
					"type": "function"
				},
				{
					"inputs": [
						{
							"internalType": "uint256",
							"name": "_txIndex",
							"type": "uint256"
						}
					],
					"name": "executeTransaction",
					"outputs": [],
					"stateMutability": "nonpayable",
					"type": "function"
				},
				{
					"inputs": [],
					"name": "getBalanceOfContract",
					"outputs": [
						{
							"internalType": "uint256",
							"name": "",
							"type": "uint256"
						}
					],
					"stateMutability": "view",
					"type": "function"
				},
				{
					"inputs": [],
					"name": "getOwners",
					"outputs": [
						{
							"internalType": "address[]",
							"name": "",
							"type": "address[]"
						}
					],
					"stateMutability": "view",
					"type": "function"
				},
				{
					"inputs": [
						{
							"internalType": "uint256",
							"name": "_txIndex",
							"type": "uint256"
						}
					],
					"name": "getTransaction",
					"outputs": [
						{
							"internalType": "address",
							"name": "to",
							"type": "address"
						},
						{
							"internalType": "uint256",
							"name": "value",
							"type": "uint256"
						},
						{
							"internalType": "bytes",
							"name": "data",
							"type": "bytes"
						},
						{
							"internalType": "bool",
							"name": "executed",
							"type": "bool"
						},
						{
							"internalType": "uint256",
							"name": "numConfirmations",
							"type": "uint256"
						}
					],
					"stateMutability": "view",
					"type": "function"
				},
				{
					"inputs": [],
					"name": "getTransactionCount",
					"outputs": [
						{
							"internalType": "uint256",
							"name": "",
							"type": "uint256"
						}
					],
					"stateMutability": "view",
					"type": "function"
				},
				{
					"inputs": [
						{
							"internalType": "uint256",
							"name": "",
							"type": "uint256"
						},
						{
							"internalType": "address",
							"name": "",
							"type": "address"
						}
					],
					"name": "isConfirmed",
					"outputs": [
						{
							"internalType": "bool",
							"name": "",
							"type": "bool"
						}
					],
					"stateMutability": "view",
					"type": "function"
				},
				{
					"inputs": [
						{
							"internalType": "address",
							"name": "",
							"type": "address"
						}
					],
					"name": "isOwner",
					"outputs": [
						{
							"internalType": "bool",
							"name": "",
							"type": "bool"
						}
					],
					"stateMutability": "view",
					"type": "function"
				},
				{
					"inputs": [],
					"name": "numConfirmationsRequired",
					"outputs": [
						{
							"internalType": "uint256",
							"name": "",
							"type": "uint256"
						}
					],
					"stateMutability": "view",
					"type": "function"
				},
				{
					"inputs": [
						{
							"internalType": "uint256",
							"name": "",
							"type": "uint256"
						}
					],
					"name": "owners",
					"outputs": [
						{
							"internalType": "address",
							"name": "",
							"type": "address"
						}
					],
					"stateMutability": "view",
					"type": "function"
				},
				{
					"inputs": [
						{
							"internalType": "uint256",
							"name": "_txIndex",
							"type": "uint256"
						}
					],
					"name": "revokeConfirmation",
					"outputs": [],
					"stateMutability": "nonpayable",
					"type": "function"
				},
				{
					"inputs": [
						{
							"internalType": "address",
							"name": "_to",
							"type": "address"
						},
						{
							"internalType": "uint256",
							"name": "_value",
							"type": "uint256"
						},
						{
							"internalType": "bytes",
							"name": "_data",
							"type": "bytes"
						}
					],
					"name": "submitTransaction",
					"outputs": [],
					"stateMutability": "nonpayable",
					"type": "function"
				},
				{
					"inputs": [
						{
							"internalType": "uint256",
							"name": "",
							"type": "uint256"
						}
					],
					"name": "transactions",
					"outputs": [
						{
							"internalType": "address",
							"name": "to",
							"type": "address"
						},
						{
							"internalType": "uint256",
							"name": "value",
							"type": "uint256"
						},
						{
							"internalType": "bytes",
							"name": "data",
							"type": "bytes"
						},
						{
							"internalType": "bool",
							"name": "executed",
							"type": "bool"
						},
						{
							"internalType": "uint256",
							"name": "numConfirmations",
							"type": "uint256"
						}
					],
					"stateMutability": "view",
					"type": "function"
				},
				{
					"stateMutability": "payable",
					"type": "receive"
				}
			],
			"devdoc": {
				"kind": "dev",
				"methods": {},
				"version": 1
			},
			"evm": {
				"assembly": "    /* \"Sol_by_Example/Applications/02.MultiSigWallet.sol\":58:5246  contract MultiSigWallet {... */\n  mstore(0x40, 0x80)\n    /* \"Sol_by_Example/Applications/02.MultiSigWallet.sol\":1501:2161  constructor(address[] memory _owners, uint256 _numConfirmationsRequired) {... */\n  callvalue\n  dup1\n  iszero\n  tag_1\n  jumpi\n  revert(0x00, 0x00)\ntag_1:\n  pop\n  mload(0x40)\n  sub(codesize, bytecodeSize)\n  dup1\n  bytecodeSize\n  dup4\n  codecopy\n  dup2\n  dup2\n  add\n  0x40\n  mstore\n  dup2\n  add\n  swap1\n  tag_2\n  swap2\n  swap1\n  tag_3\n  jump\t// in\ntag_2:\n    /* \"Sol_by_Example/Applications/02.MultiSigWallet.sol\":1609:1610  0 */\n  0x00\n    /* \"Sol_by_Example/Applications/02.MultiSigWallet.sol\":1592:1599  _owners */\n  dup3\n    /* \"Sol_by_Example/Applications/02.MultiSigWallet.sol\":1592:1606  _owners.length */\n  mload\n    /* \"Sol_by_Example/Applications/02.MultiSigWallet.sol\":1592:1610  _owners.length > 0 */\n  gt\n    /* \"Sol_by_Example/Applications/02.MultiSigWallet.sol\":1584:1630  require(_owners.length > 0, \"owners required\") */\n  tag_6\n  jumpi\n  mload(0x40)\n  0x08c379a000000000000000000000000000000000000000000000000000000000\n  dup2\n  mstore\n  0x04\n  add\n  tag_7\n  swap1\n  tag_8\n  jump\t// in\ntag_7:\n  mload(0x40)\n  dup1\n  swap2\n  sub\n  swap1\n  revert\ntag_6:\n    /* \"Sol_by_Example/Applications/02.MultiSigWallet.sol\":1689:1690  0 */\n  0x00\n    /* \"Sol_by_Example/Applications/02.MultiSigWallet.sol\":1661:1686  _numConfirmationsRequired */\n  dup2\n    /* \"Sol_by_Example/Applications/02.MultiSigWallet.sol\":1661:1690  _numConfirmationsRequired > 0 */\n  gt\n    /* \"Sol_by_Example/Applications/02.MultiSigWallet.sol\":1661:1734  _numConfirmationsRequired > 0 && _numConfirmationsRequired<_owners.length */\n  dup1\n  iszero\n  tag_9\n  jumpi\n  pop\n    /* \"Sol_by_Example/Applications/02.MultiSigWallet.sol\":1720:1727  _owners */\n  dup2\n    /* \"Sol_by_Example/Applications/02.MultiSigWallet.sol\":1720:1734  _owners.length */\n  mload\n    /* \"Sol_by_Example/Applications/02.MultiSigWallet.sol\":1694:1719  _numConfirmationsRequired */\n  dup2\n    /* \"Sol_by_Example/Applications/02.MultiSigWallet.sol\":1694:1734  _numConfirmationsRequired<_owners.length */\n  lt\n    /* \"Sol_by_Example/Applications/02.MultiSigWallet.sol\":1661:1734  _numConfirmationsRequired > 0 && _numConfirmationsRequired<_owners.length */\ntag_9:\n    /* \"Sol_by_Example/Applications/02.MultiSigWallet.sol\":1640:1800  require(... */\n  tag_10\n  jumpi\n  mload(0x40)\n  0x08c379a000000000000000000000000000000000000000000000000000000000\n  dup2\n  mstore\n  0x04\n  add\n  tag_11\n  swap1\n  tag_12\n  jump\t// in\ntag_11:\n  mload(0x40)\n  dup1\n  swap2\n  sub\n  swap1\n  revert\ntag_10:\n    /* \"Sol_by_Example/Applications/02.MultiSigWallet.sol\":1816:1825  uint256 i */\n  0x00\n    /* \"Sol_by_Example/Applications/02.MultiSigWallet.sol\":1828:1829  0 */\n  0x00\n    /* \"Sol_by_Example/Applications/02.MultiSigWallet.sol\":1816:1829  uint256 i = 0 */\n  swap1\n  pop\n    /* \"Sol_by_Example/Applications/02.MultiSigWallet.sol\":1811:2092  for( uint256 i = 0; i < _owners.length; i++ ){... */\ntag_13:\n    /* \"Sol_by_Example/Applications/02.MultiSigWallet.sol\":1835:1842  _owners */\n  dup3\n    /* \"Sol_by_Example/Applications/02.MultiSigWallet.sol\":1835:1849  _owners.length */\n  mload\n    /* \"Sol_by_Example/Applications/02.MultiSigWallet.sol\":1831:1832  i */\n  dup2\n    /* \"Sol_by_Example/Applications/02.MultiSigWallet.sol\":1831:1849  i < _owners.length */\n  lt\n    /* \"Sol_by_Example/Applications/02.MultiSigWallet.sol\":1811:2092  for( uint256 i = 0; i < _owners.length; i++ ){... */\n  iszero\n  tag_14\n  jumpi\n    /* \"Sol_by_Example/Applications/02.MultiSigWallet.sol\":1870:1883  address owner */\n  0x00\n    /* \"Sol_by_Example/Applications/02.MultiSigWallet.sol\":1886:1893  _owners */\n  dup4\n    /* \"Sol_by_Example/Applications/02.MultiSigWallet.sol\":1894:1895  i */\n  dup3\n    /* \"Sol_by_Example/Applications/02.MultiSigWallet.sol\":1886:1896  _owners[i] */\n  dup2\n  mload\n  dup2\n  lt\n  tag_16\n  jumpi\n  tag_17\n  tag_18\n  jump\t// in\ntag_17:\ntag_16:\n  0x20\n  mul\n  0x20\n  add\n  add\n  mload\n    /* \"Sol_by_Example/Applications/02.MultiSigWallet.sol\":1870:1896  address owner = _owners[i] */\n  swap1\n  pop\n    /* \"Sol_by_Example/Applications/02.MultiSigWallet.sol\":1936:1937  0 */\n  0x00\n    /* \"Sol_by_Example/Applications/02.MultiSigWallet.sol\":1919:1938  owner != address(0) */\n  0xffffffffffffffffffffffffffffffffffffffff\n  and\n    /* \"Sol_by_Example/Applications/02.MultiSigWallet.sol\":1919:1924  owner */\n  dup2\n    /* \"Sol_by_Example/Applications/02.MultiSigWallet.sol\":1919:1938  owner != address(0) */\n  0xffffffffffffffffffffffffffffffffffffffff\n  and\n  sub\n    /* \"Sol_by_Example/Applications/02.MultiSigWallet.sol\":1911:1956  require(owner != address(0), \"invalid owner\") */\n  tag_19\n  jumpi\n  mload(0x40)\n  0x08c379a000000000000000000000000000000000000000000000000000000000\n  dup2\n  mstore\n  0x04\n  add\n  tag_20\n  swap1\n  tag_21\n  jump\t// in\ntag_20:\n  mload(0x40)\n  dup1\n  swap2\n  sub\n  swap1\n  revert\ntag_19:\n    /* \"Sol_by_Example/Applications/02.MultiSigWallet.sol\":1979:1986  isOwner */\n  0x01\n    /* \"Sol_by_Example/Applications/02.MultiSigWallet.sol\":1979:1993  isOwner[owner] */\n  0x00\n    /* \"Sol_by_Example/Applications/02.MultiSigWallet.sol\":1987:1992  owner */\n  dup3\n    /* \"Sol_by_Example/Applications/02.MultiSigWallet.sol\":1979:1993  isOwner[owner] */\n  0xffffffffffffffffffffffffffffffffffffffff\n  and\n  0xffffffffffffffffffffffffffffffffffffffff\n  and\n  dup2\n  mstore\n  0x20\n  add\n  swap1\n  dup2\n  mstore\n  0x20\n  add\n  0x00\n  keccak256\n  0x00\n  swap1\n  sload\n  swap1\n  0x0100\n  exp\n  swap1\n  div\n  0xff\n  and\n    /* \"Sol_by_Example/Applications/02.MultiSigWallet.sol\":1978:1993  !isOwner[owner] */\n  iszero\n    /* \"Sol_by_Example/Applications/02.MultiSigWallet.sol\":1970:2013  require(!isOwner[owner],\"owner not unique\") */\n  tag_22\n  jumpi\n  mload(0x40)\n  0x08c379a000000000000000000000000000000000000000000000000000000000\n  dup2\n  mstore\n  0x04\n  add\n  tag_23\n  swap1\n  tag_24\n  jump\t// in\ntag_23:\n  mload(0x40)\n  dup1\n  swap2\n  sub\n  swap1\n  revert\ntag_22:\n    /* \"Sol_by_Example/Applications/02.MultiSigWallet.sol\":2045:2049  true */\n  0x01\n    /* \"Sol_by_Example/Applications/02.MultiSigWallet.sol\":2028:2035  isOwner */\n  dup1\n    /* \"Sol_by_Example/Applications/02.MultiSigWallet.sol\":2028:2042  isOwner[owner] */\n  0x00\n    /* \"Sol_by_Example/Applications/02.MultiSigWallet.sol\":2036:2041  owner */\n  dup4\n    /* \"Sol_by_Example/Applications/02.MultiSigWallet.sol\":2028:2042  isOwner[owner] */\n  0xffffffffffffffffffffffffffffffffffffffff\n  and\n  0xffffffffffffffffffffffffffffffffffffffff\n  and\n  dup2\n  mstore\n  0x20\n  add\n  swap1\n  dup2\n  mstore\n  0x20\n  add\n  0x00\n  keccak256\n  0x00\n    /* \"Sol_by_Example/Applications/02.MultiSigWallet.sol\":2028:2049  isOwner[owner] = true */\n  0x0100\n  exp\n  dup2\n  sload\n  dup2\n  0xff\n  mul\n  not\n  and\n  swap1\n  dup4\n  iszero\n  iszero\n  mul\n  or\n  swap1\n  sstore\n  pop\n    /* \"Sol_by_Example/Applications/02.MultiSigWallet.sol\":2063:2069  owners */\n  0x00\n    /* \"Sol_by_Example/Applications/02.MultiSigWallet.sol\":2075:2080  owner */\n  dup2\n    /* \"Sol_by_Example/Applications/02.MultiSigWallet.sol\":2063:2081  owners.push(owner) */\n  swap1\n  dup1\n  0x01\n  dup2\n  sload\n  add\n  dup1\n  dup3\n  sstore\n  dup1\n  swap2\n  pop\n  pop\n  0x01\n  swap1\n  sub\n  swap1\n  0x00\n  mstore\n  keccak256(0x00, 0x20)\n  add\n  0x00\n  swap1\n  swap2\n  swap1\n  swap2\n  swap1\n  swap2\n  0x0100\n  exp\n  dup2\n  sload\n  dup2\n  0xffffffffffffffffffffffffffffffffffffffff\n  mul\n  not\n  and\n  swap1\n  dup4\n  0xffffffffffffffffffffffffffffffffffffffff\n  and\n  mul\n  or\n  swap1\n  sstore\n  pop\n    /* \"Sol_by_Example/Applications/02.MultiSigWallet.sol\":1856:2092  {... */\n  pop\n    /* \"Sol_by_Example/Applications/02.MultiSigWallet.sol\":1851:1854  i++ */\n  dup1\n  dup1\n  0x01\n  add\n  swap2\n  pop\n  pop\n    /* \"Sol_by_Example/Applications/02.MultiSigWallet.sol\":1811:2092  for( uint256 i = 0; i < _owners.length; i++ ){... */\n  jump(tag_13)\ntag_14:\n  pop\n    /* \"Sol_by_Example/Applications/02.MultiSigWallet.sol\":2129:2154  _numConfirmationsRequired */\n  dup1\n    /* \"Sol_by_Example/Applications/02.MultiSigWallet.sol\":2102:2126  numConfirmationsRequired */\n  0x02\n    /* \"Sol_by_Example/Applications/02.MultiSigWallet.sol\":2102:2154  numConfirmationsRequired = _numConfirmationsRequired */\n  dup2\n  swap1\n  sstore\n  pop\n    /* \"Sol_by_Example/Applications/02.MultiSigWallet.sol\":1501:2161  constructor(address[] memory _owners, uint256 _numConfirmationsRequired) {... */\n  pop\n  pop\n    /* \"Sol_by_Example/Applications/02.MultiSigWallet.sol\":58:5246  contract MultiSigWallet {... */\n  jump(tag_26)\n    /* \"#utility.yul\":7:82   */\ntag_27:\n    /* \"#utility.yul\":40:46   */\n  0x00\n    /* \"#utility.yul\":73:75   */\n  0x40\n    /* \"#utility.yul\":67:76   */\n  mload\n    /* \"#utility.yul\":57:76   */\n  swap1\n  pop\n    /* \"#utility.yul\":7:82   */\n  swap1\n  jump\t// out\n    /* \"#utility.yul\":88:205   */\ntag_28:\n    /* \"#utility.yul\":197:198   */\n  0x00\n    /* \"#utility.yul\":194:195   */\n  0x00\n    /* \"#utility.yul\":187:199   */\n  revert\n    /* \"#utility.yul\":211:328   */\ntag_29:\n    /* \"#utility.yul\":320:321   */\n  0x00\n    /* \"#utility.yul\":317:318   */\n  0x00\n    /* \"#utility.yul\":310:322   */\n  revert\n    /* \"#utility.yul\":334:451   */\ntag_30:\n    /* \"#utility.yul\":443:444   */\n  0x00\n    /* \"#utility.yul\":440:441   */\n  0x00\n    /* \"#utility.yul\":433:445   */\n  revert\n    /* \"#utility.yul\":457:559   */\ntag_31:\n    /* \"#utility.yul\":498:504   */\n  0x00\n    /* \"#utility.yul\":549:551   */\n  0x1f\n    /* \"#utility.yul\":545:552   */\n  not\n    /* \"#utility.yul\":540:542   */\n  0x1f\n    /* \"#utility.yul\":533:538   */\n  dup4\n    /* \"#utility.yul\":529:543   */\n  add\n    /* \"#utility.yul\":525:553   */\n  and\n    /* \"#utility.yul\":515:553   */\n  swap1\n  pop\n    /* \"#utility.yul\":457:559   */\n  swap2\n  swap1\n  pop\n  jump\t// out\n    /* \"#utility.yul\":565:745   */\ntag_32:\n    /* \"#utility.yul\":613:690   */\n  0x4e487b7100000000000000000000000000000000000000000000000000000000\n    /* \"#utility.yul\":610:611   */\n  0x00\n    /* \"#utility.yul\":603:691   */\n  mstore\n    /* \"#utility.yul\":710:714   */\n  0x41\n    /* \"#utility.yul\":707:708   */\n  0x04\n    /* \"#utility.yul\":700:715   */\n  mstore\n    /* \"#utility.yul\":734:738   */\n  0x24\n    /* \"#utility.yul\":731:732   */\n  0x00\n    /* \"#utility.yul\":724:739   */\n  revert\n    /* \"#utility.yul\":751:1032   */\ntag_33:\n    /* \"#utility.yul\":834:861   */\n  tag_63\n    /* \"#utility.yul\":856:860   */\n  dup3\n    /* \"#utility.yul\":834:861   */\n  tag_31\n  jump\t// in\ntag_63:\n    /* \"#utility.yul\":826:832   */\n  dup2\n    /* \"#utility.yul\":822:862   */\n  add\n    /* \"#utility.yul\":964:970   */\n  dup2\n    /* \"#utility.yul\":952:962   */\n  dup2\n    /* \"#utility.yul\":949:971   */\n  lt\n    /* \"#utility.yul\":928:946   */\n  0xffffffffffffffff\n    /* \"#utility.yul\":916:926   */\n  dup3\n    /* \"#utility.yul\":913:947   */\n  gt\n    /* \"#utility.yul\":910:972   */\n  or\n    /* \"#utility.yul\":907:995   */\n  iszero\n  tag_64\n  jumpi\n    /* \"#utility.yul\":975:993   */\n  tag_65\n  tag_32\n  jump\t// in\ntag_65:\n    /* \"#utility.yul\":907:995   */\ntag_64:\n    /* \"#utility.yul\":1015:1025   */\n  dup1\n    /* \"#utility.yul\":1011:1013   */\n  0x40\n    /* \"#utility.yul\":1004:1026   */\n  mstore\n    /* \"#utility.yul\":794:1032   */\n  pop\n    /* \"#utility.yul\":751:1032   */\n  pop\n  pop\n  jump\t// out\n    /* \"#utility.yul\":1038:1167   */\ntag_34:\n    /* \"#utility.yul\":1072:1078   */\n  0x00\n    /* \"#utility.yul\":1099:1119   */\n  tag_67\n  tag_27\n  jump\t// in\ntag_67:\n    /* \"#utility.yul\":1089:1119   */\n  swap1\n  pop\n    /* \"#utility.yul\":1128:1161   */\n  tag_68\n    /* \"#utility.yul\":1156:1160   */\n  dup3\n    /* \"#utility.yul\":1148:1154   */\n  dup3\n    /* \"#utility.yul\":1128:1161   */\n  tag_33\n  jump\t// in\ntag_68:\n    /* \"#utility.yul\":1038:1167   */\n  swap2\n  swap1\n  pop\n  jump\t// out\n    /* \"#utility.yul\":1173:1484   */\ntag_35:\n    /* \"#utility.yul\":1250:1254   */\n  0x00\n    /* \"#utility.yul\":1340:1358   */\n  0xffffffffffffffff\n    /* \"#utility.yul\":1332:1338   */\n  dup3\n    /* \"#utility.yul\":1329:1359   */\n  gt\n    /* \"#utility.yul\":1326:1382   */\n  iszero\n  tag_70\n  jumpi\n    /* \"#utility.yul\":1362:1380   */\n  tag_71\n  tag_32\n  jump\t// in\ntag_71:\n    /* \"#utility.yul\":1326:1382   */\ntag_70:\n    /* \"#utility.yul\":1412:1416   */\n  0x20\n    /* \"#utility.yul\":1404:1410   */\n  dup3\n    /* \"#utility.yul\":1400:1417   */\n  mul\n    /* \"#utility.yul\":1392:1417   */\n  swap1\n  pop\n    /* \"#utility.yul\":1472:1476   */\n  0x20\n    /* \"#utility.yul\":1466:1470   */\n  dup2\n    /* \"#utility.yul\":1462:1477   */\n  add\n    /* \"#utility.yul\":1454:1477   */\n  swap1\n  pop\n    /* \"#utility.yul\":1173:1484   */\n  swap2\n  swap1\n  pop\n  jump\t// out\n    /* \"#utility.yul\":1490:1607   */\ntag_36:\n    /* \"#utility.yul\":1599:1600   */\n  0x00\n    /* \"#utility.yul\":1596:1597   */\n  0x00\n    /* \"#utility.yul\":1589:1601   */\n  revert\n    /* \"#utility.yul\":1613:1739   */\ntag_37:\n    /* \"#utility.yul\":1650:1657   */\n  0x00\n    /* \"#utility.yul\":1690:1732   */\n  0xffffffffffffffffffffffffffffffffffffffff\n    /* \"#utility.yul\":1683:1688   */\n  dup3\n    /* \"#utility.yul\":1679:1733   */\n  and\n    /* \"#utility.yul\":1668:1733   */\n  swap1\n  pop\n    /* \"#utility.yul\":1613:1739   */\n  swap2\n  swap1\n  pop\n  jump\t// out\n    /* \"#utility.yul\":1745:1841   */\ntag_38:\n    /* \"#utility.yul\":1782:1789   */\n  0x00\n    /* \"#utility.yul\":1811:1835   */\n  tag_75\n    /* \"#utility.yul\":1829:1834   */\n  dup3\n    /* \"#utility.yul\":1811:1835   */\n  tag_37\n  jump\t// in\ntag_75:\n    /* \"#utility.yul\":1800:1835   */\n  swap1\n  pop\n    /* \"#utility.yul\":1745:1841   */\n  swap2\n  swap1\n  pop\n  jump\t// out\n    /* \"#utility.yul\":1847:1969   */\ntag_39:\n    /* \"#utility.yul\":1920:1944   */\n  tag_77\n    /* \"#utility.yul\":1938:1943   */\n  dup2\n    /* \"#utility.yul\":1920:1944   */\n  tag_38\n  jump\t// in\ntag_77:\n    /* \"#utility.yul\":1913:1918   */\n  dup2\n    /* \"#utility.yul\":1910:1945   */\n  eq\n    /* \"#utility.yul\":1900:1963   */\n  tag_78\n  jumpi\n    /* \"#utility.yul\":1959:1960   */\n  0x00\n    /* \"#utility.yul\":1956:1957   */\n  0x00\n    /* \"#utility.yul\":1949:1961   */\n  revert\n    /* \"#utility.yul\":1900:1963   */\ntag_78:\n    /* \"#utility.yul\":1847:1969   */\n  pop\n  jump\t// out\n    /* \"#utility.yul\":1975:2118   */\ntag_40:\n    /* \"#utility.yul\":2032:2037   */\n  0x00\n    /* \"#utility.yul\":2063:2069   */\n  dup2\n    /* \"#utility.yul\":2057:2070   */\n  mload\n    /* \"#utility.yul\":2048:2070   */\n  swap1\n  pop\n    /* \"#utility.yul\":2079:2112   */\n  tag_80\n    /* \"#utility.yul\":2106:2111   */\n  dup2\n    /* \"#utility.yul\":2079:2112   */\n  tag_39\n  jump\t// in\ntag_80:\n    /* \"#utility.yul\":1975:2118   */\n  swap3\n  swap2\n  pop\n  pop\n  jump\t// out\n    /* \"#utility.yul\":2141:2873   */\ntag_41:\n    /* \"#utility.yul\":2248:2253   */\n  0x00\n    /* \"#utility.yul\":2273:2354   */\n  tag_82\n    /* \"#utility.yul\":2289:2353   */\n  tag_83\n    /* \"#utility.yul\":2346:2352   */\n  dup5\n    /* \"#utility.yul\":2289:2353   */\n  tag_35\n  jump\t// in\ntag_83:\n    /* \"#utility.yul\":2273:2354   */\n  tag_34\n  jump\t// in\ntag_82:\n    /* \"#utility.yul\":2264:2354   */\n  swap1\n  pop\n    /* \"#utility.yul\":2374:2379   */\n  dup1\n    /* \"#utility.yul\":2403:2409   */\n  dup4\n    /* \"#utility.yul\":2396:2401   */\n  dup3\n    /* \"#utility.yul\":2389:2410   */\n  mstore\n    /* \"#utility.yul\":2437:2441   */\n  0x20\n    /* \"#utility.yul\":2430:2435   */\n  dup3\n    /* \"#utility.yul\":2426:2442   */\n  add\n    /* \"#utility.yul\":2419:2442   */\n  swap1\n  pop\n    /* \"#utility.yul\":2490:2494   */\n  0x20\n    /* \"#utility.yul\":2482:2488   */\n  dup5\n    /* \"#utility.yul\":2478:2495   */\n  mul\n    /* \"#utility.yul\":2470:2476   */\n  dup4\n    /* \"#utility.yul\":2466:2496   */\n  add\n    /* \"#utility.yul\":2519:2522   */\n  dup6\n    /* \"#utility.yul\":2511:2517   */\n  dup2\n    /* \"#utility.yul\":2508:2523   */\n  gt\n    /* \"#utility.yul\":2505:2627   */\n  iszero\n  tag_84\n  jumpi\n    /* \"#utility.yul\":2538:2617   */\n  tag_85\n  tag_36\n  jump\t// in\ntag_85:\n    /* \"#utility.yul\":2505:2627   */\ntag_84:\n    /* \"#utility.yul\":2653:2659   */\n  dup4\n    /* \"#utility.yul\":2636:2867   */\ntag_86:\n    /* \"#utility.yul\":2670:2676   */\n  dup2\n    /* \"#utility.yul\":2665:2668   */\n  dup2\n    /* \"#utility.yul\":2662:2677   */\n  lt\n    /* \"#utility.yul\":2636:2867   */\n  iszero\n  tag_88\n  jumpi\n    /* \"#utility.yul\":2745:2748   */\n  dup1\n    /* \"#utility.yul\":2774:2822   */\n  tag_89\n    /* \"#utility.yul\":2818:2821   */\n  dup9\n    /* \"#utility.yul\":2806:2816   */\n  dup3\n    /* \"#utility.yul\":2774:2822   */\n  tag_40\n  jump\t// in\ntag_89:\n    /* \"#utility.yul\":2769:2772   */\n  dup5\n    /* \"#utility.yul\":2762:2823   */\n  mstore\n    /* \"#utility.yul\":2852:2856   */\n  0x20\n    /* \"#utility.yul\":2847:2850   */\n  dup5\n    /* \"#utility.yul\":2843:2857   */\n  add\n    /* \"#utility.yul\":2836:2857   */\n  swap4\n  pop\n    /* \"#utility.yul\":2712:2867   */\n  pop\n    /* \"#utility.yul\":2696:2700   */\n  0x20\n    /* \"#utility.yul\":2691:2694   */\n  dup2\n    /* \"#utility.yul\":2687:2701   */\n  add\n    /* \"#utility.yul\":2680:2701   */\n  swap1\n  pop\n    /* \"#utility.yul\":2636:2867   */\n  jump(tag_86)\ntag_88:\n    /* \"#utility.yul\":2640:2661   */\n  pop\n    /* \"#utility.yul\":2254:2873   */\n  pop\n  pop\n    /* \"#utility.yul\":2141:2873   */\n  swap4\n  swap3\n  pop\n  pop\n  pop\n  jump\t// out\n    /* \"#utility.yul\":2896:3281   */\ntag_42:\n    /* \"#utility.yul\":2978:2983   */\n  0x00\n    /* \"#utility.yul\":3027:3030   */\n  dup3\n    /* \"#utility.yul\":3020:3024   */\n  0x1f\n    /* \"#utility.yul\":3012:3018   */\n  dup4\n    /* \"#utility.yul\":3008:3025   */\n  add\n    /* \"#utility.yul\":3004:3031   */\n  slt\n    /* \"#utility.yul\":2994:3116   */\n  tag_91\n  jumpi\n    /* \"#utility.yul\":3035:3114   */\n  tag_92\n  tag_30\n  jump\t// in\ntag_92:\n    /* \"#utility.yul\":2994:3116   */\ntag_91:\n    /* \"#utility.yul\":3145:3151   */\n  dup2\n    /* \"#utility.yul\":3139:3152   */\n  mload\n    /* \"#utility.yul\":3170:3275   */\n  tag_93\n    /* \"#utility.yul\":3271:3274   */\n  dup5\n    /* \"#utility.yul\":3263:3269   */\n  dup3\n    /* \"#utility.yul\":3256:3260   */\n  0x20\n    /* \"#utility.yul\":3248:3254   */\n  dup7\n    /* \"#utility.yul\":3244:3261   */\n  add\n    /* \"#utility.yul\":3170:3275   */\n  tag_41\n  jump\t// in\ntag_93:\n    /* \"#utility.yul\":3161:3275   */\n  swap2\n  pop\n    /* \"#utility.yul\":2984:3281   */\n  pop\n    /* \"#utility.yul\":2896:3281   */\n  swap3\n  swap2\n  pop\n  pop\n  jump\t// out\n    /* \"#utility.yul\":3287:3364   */\ntag_43:\n    /* \"#utility.yul\":3324:3331   */\n  0x00\n    /* \"#utility.yul\":3353:3358   */\n  dup2\n    /* \"#utility.yul\":3342:3358   */\n  swap1\n  pop\n    /* \"#utility.yul\":3287:3364   */\n  swap2\n  swap1\n  pop\n  jump\t// out\n    /* \"#utility.yul\":3370:3492   */\ntag_44:\n    /* \"#utility.yul\":3443:3467   */\n  tag_96\n    /* \"#utility.yul\":3461:3466   */\n  dup2\n    /* \"#utility.yul\":3443:3467   */\n  tag_43\n  jump\t// in\ntag_96:\n    /* \"#utility.yul\":3436:3441   */\n  dup2\n    /* \"#utility.yul\":3433:3468   */\n  eq\n    /* \"#utility.yul\":3423:3486   */\n  tag_97\n  jumpi\n    /* \"#utility.yul\":3482:3483   */\n  0x00\n    /* \"#utility.yul\":3479:3480   */\n  0x00\n    /* \"#utility.yul\":3472:3484   */\n  revert\n    /* \"#utility.yul\":3423:3486   */\ntag_97:\n    /* \"#utility.yul\":3370:3492   */\n  pop\n  jump\t// out\n    /* \"#utility.yul\":3498:3641   */\ntag_45:\n    /* \"#utility.yul\":3555:3560   */\n  0x00\n    /* \"#utility.yul\":3586:3592   */\n  dup2\n    /* \"#utility.yul\":3580:3593   */\n  mload\n    /* \"#utility.yul\":3571:3593   */\n  swap1\n  pop\n    /* \"#utility.yul\":3602:3635   */\n  tag_99\n    /* \"#utility.yul\":3629:3634   */\n  dup2\n    /* \"#utility.yul\":3602:3635   */\n  tag_44\n  jump\t// in\ntag_99:\n    /* \"#utility.yul\":3498:3641   */\n  swap3\n  swap2\n  pop\n  pop\n  jump\t// out\n    /* \"#utility.yul\":3647:4357   */\ntag_3:\n    /* \"#utility.yul\":3751:3757   */\n  0x00\n    /* \"#utility.yul\":3759:3765   */\n  0x00\n    /* \"#utility.yul\":3808:3810   */\n  0x40\n    /* \"#utility.yul\":3796:3805   */\n  dup4\n    /* \"#utility.yul\":3787:3794   */\n  dup6\n    /* \"#utility.yul\":3783:3806   */\n  sub\n    /* \"#utility.yul\":3779:3811   */\n  slt\n    /* \"#utility.yul\":3776:3895   */\n  iszero\n  tag_101\n  jumpi\n    /* \"#utility.yul\":3814:3893   */\n  tag_102\n  tag_28\n  jump\t// in\ntag_102:\n    /* \"#utility.yul\":3776:3895   */\ntag_101:\n    /* \"#utility.yul\":3955:3956   */\n  0x00\n    /* \"#utility.yul\":3944:3953   */\n  dup4\n    /* \"#utility.yul\":3940:3957   */\n  add\n    /* \"#utility.yul\":3934:3958   */\n  mload\n    /* \"#utility.yul\":3985:4003   */\n  0xffffffffffffffff\n    /* \"#utility.yul\":3977:3983   */\n  dup2\n    /* \"#utility.yul\":3974:4004   */\n  gt\n    /* \"#utility.yul\":3971:4088   */\n  iszero\n  tag_103\n  jumpi\n    /* \"#utility.yul\":4007:4086   */\n  tag_104\n  tag_29\n  jump\t// in\ntag_104:\n    /* \"#utility.yul\":3971:4088   */\ntag_103:\n    /* \"#utility.yul\":4112:4201   */\n  tag_105\n    /* \"#utility.yul\":4193:4200   */\n  dup6\n    /* \"#utility.yul\":4184:4190   */\n  dup3\n    /* \"#utility.yul\":4173:4182   */\n  dup7\n    /* \"#utility.yul\":4169:4191   */\n  add\n    /* \"#utility.yul\":4112:4201   */\n  tag_42\n  jump\t// in\ntag_105:\n    /* \"#utility.yul\":4102:4201   */\n  swap3\n  pop\n    /* \"#utility.yul\":3905:4211   */\n  pop\n    /* \"#utility.yul\":4250:4252   */\n  0x20\n    /* \"#utility.yul\":4276:4340   */\n  tag_106\n    /* \"#utility.yul\":4332:4339   */\n  dup6\n    /* \"#utility.yul\":4323:4329   */\n  dup3\n    /* \"#utility.yul\":4312:4321   */\n  dup7\n    /* \"#utility.yul\":4308:4330   */\n  add\n    /* \"#utility.yul\":4276:4340   */\n  tag_45\n  jump\t// in\ntag_106:\n    /* \"#utility.yul\":4266:4340   */\n  swap2\n  pop\n    /* \"#utility.yul\":4221:4350   */\n  pop\n    /* \"#utility.yul\":3647:4357   */\n  swap3\n  pop\n  swap3\n  swap1\n  pop\n  jump\t// out\n    /* \"#utility.yul\":4363:4532   */\ntag_46:\n    /* \"#utility.yul\":4447:4458   */\n  0x00\n    /* \"#utility.yul\":4481:4487   */\n  dup3\n    /* \"#utility.yul\":4476:4479   */\n  dup3\n    /* \"#utility.yul\":4469:4488   */\n  mstore\n    /* \"#utility.yul\":4521:4525   */\n  0x20\n    /* \"#utility.yul\":4516:4519   */\n  dup3\n    /* \"#utility.yul\":4512:4526   */\n  add\n    /* \"#utility.yul\":4497:4526   */\n  swap1\n  pop\n    /* \"#utility.yul\":4363:4532   */\n  swap3\n  swap2\n  pop\n  pop\n  jump\t// out\n    /* \"#utility.yul\":4538:4703   */\ntag_47:\n    /* \"#utility.yul\":4678:4695   */\n  0x6f776e6572732072657175697265640000000000000000000000000000000000\n    /* \"#utility.yul\":4674:4675   */\n  0x00\n    /* \"#utility.yul\":4666:4672   */\n  dup3\n    /* \"#utility.yul\":4662:4676   */\n  add\n    /* \"#utility.yul\":4655:4696   */\n  mstore\n    /* \"#utility.yul\":4538:4703   */\n  pop\n  jump\t// out\n    /* \"#utility.yul\":4709:5075   */\ntag_48:\n    /* \"#utility.yul\":4851:4854   */\n  0x00\n    /* \"#utility.yul\":4872:4939   */\n  tag_110\n    /* \"#utility.yul\":4936:4938   */\n  0x0f\n    /* \"#utility.yul\":4931:4934   */\n  dup4\n    /* \"#utility.yul\":4872:4939   */\n  tag_46\n  jump\t// in\ntag_110:\n    /* \"#utility.yul\":4865:4939   */\n  swap2\n  pop\n    /* \"#utility.yul\":4948:5041   */\n  tag_111\n    /* \"#utility.yul\":5037:5040   */\n  dup3\n    /* \"#utility.yul\":4948:5041   */\n  tag_47\n  jump\t// in\ntag_111:\n    /* \"#utility.yul\":5066:5068   */\n  0x20\n    /* \"#utility.yul\":5061:5064   */\n  dup3\n    /* \"#utility.yul\":5057:5069   */\n  add\n    /* \"#utility.yul\":5050:5069   */\n  swap1\n  pop\n    /* \"#utility.yul\":4709:5075   */\n  swap2\n  swap1\n  pop\n  jump\t// out\n    /* \"#utility.yul\":5081:5500   */\ntag_8:\n    /* \"#utility.yul\":5247:5251   */\n  0x00\n    /* \"#utility.yul\":5285:5287   */\n  0x20\n    /* \"#utility.yul\":5274:5283   */\n  dup3\n    /* \"#utility.yul\":5270:5288   */\n  add\n    /* \"#utility.yul\":5262:5288   */\n  swap1\n  pop\n    /* \"#utility.yul\":5334:5343   */\n  dup2\n    /* \"#utility.yul\":5328:5332   */\n  dup2\n    /* \"#utility.yul\":5324:5344   */\n  sub\n    /* \"#utility.yul\":5320:5321   */\n  0x00\n    /* \"#utility.yul\":5309:5318   */\n  dup4\n    /* \"#utility.yul\":5305:5322   */\n  add\n    /* \"#utility.yul\":5298:5345   */\n  mstore\n    /* \"#utility.yul\":5362:5493   */\n  tag_113\n    /* \"#utility.yul\":5488:5492   */\n  dup2\n    /* \"#utility.yul\":5362:5493   */\n  tag_48\n  jump\t// in\ntag_113:\n    /* \"#utility.yul\":5354:5493   */\n  swap1\n  pop\n    /* \"#utility.yul\":5081:5500   */\n  swap2\n  swap1\n  pop\n  jump\t// out\n    /* \"#utility.yul\":5506:5733   */\ntag_49:\n    /* \"#utility.yul\":5646:5680   */\n  0x696e76616c6964206e756d626572206f6620726571756972656420636f6e6669\n    /* \"#utility.yul\":5642:5643   */\n  0x00\n    /* \"#utility.yul\":5634:5640   */\n  dup3\n    /* \"#utility.yul\":5630:5644   */\n  add\n    /* \"#utility.yul\":5623:5681   */\n  mstore\n    /* \"#utility.yul\":5715:5725   */\n  0x726d6174696f6e73000000000000000000000000000000000000000000000000\n    /* \"#utility.yul\":5710:5712   */\n  0x20\n    /* \"#utility.yul\":5702:5708   */\n  dup3\n    /* \"#utility.yul\":5698:5713   */\n  add\n    /* \"#utility.yul\":5691:5726   */\n  mstore\n    /* \"#utility.yul\":5506:5733   */\n  pop\n  jump\t// out\n    /* \"#utility.yul\":5739:6105   */\ntag_50:\n    /* \"#utility.yul\":5881:5884   */\n  0x00\n    /* \"#utility.yul\":5902:5969   */\n  tag_116\n    /* \"#utility.yul\":5966:5968   */\n  0x28\n    /* \"#utility.yul\":5961:5964   */\n  dup4\n    /* \"#utility.yul\":5902:5969   */\n  tag_46\n  jump\t// in\ntag_116:\n    /* \"#utility.yul\":5895:5969   */\n  swap2\n  pop\n    /* \"#utility.yul\":5978:6071   */\n  tag_117\n    /* \"#utility.yul\":6067:6070   */\n  dup3\n    /* \"#utility.yul\":5978:6071   */\n  tag_49\n  jump\t// in\ntag_117:\n    /* \"#utility.yul\":6096:6098   */\n  0x40\n    /* \"#utility.yul\":6091:6094   */\n  dup3\n    /* \"#utility.yul\":6087:6099   */\n  add\n    /* \"#utility.yul\":6080:6099   */\n  swap1\n  pop\n    /* \"#utility.yul\":5739:6105   */\n  swap2\n  swap1\n  pop\n  jump\t// out\n    /* \"#utility.yul\":6111:6530   */\ntag_12:\n    /* \"#utility.yul\":6277:6281   */\n  0x00\n    /* \"#utility.yul\":6315:6317   */\n  0x20\n    /* \"#utility.yul\":6304:6313   */\n  dup3\n    /* \"#utility.yul\":6300:6318   */\n  add\n    /* \"#utility.yul\":6292:6318   */\n  swap1\n  pop\n    /* \"#utility.yul\":6364:6373   */\n  dup2\n    /* \"#utility.yul\":6358:6362   */\n  dup2\n    /* \"#utility.yul\":6354:6374   */\n  sub\n    /* \"#utility.yul\":6350:6351   */\n  0x00\n    /* \"#utility.yul\":6339:6348   */\n  dup4\n    /* \"#utility.yul\":6335:6352   */\n  add\n    /* \"#utility.yul\":6328:6375   */\n  mstore\n    /* \"#utility.yul\":6392:6523   */\n  tag_119\n    /* \"#utility.yul\":6518:6522   */\n  dup2\n    /* \"#utility.yul\":6392:6523   */\n  tag_50\n  jump\t// in\ntag_119:\n    /* \"#utility.yul\":6384:6523   */\n  swap1\n  pop\n    /* \"#utility.yul\":6111:6530   */\n  swap2\n  swap1\n  pop\n  jump\t// out\n    /* \"#utility.yul\":6536:6716   */\ntag_18:\n    /* \"#utility.yul\":6584:6661   */\n  0x4e487b7100000000000000000000000000000000000000000000000000000000\n    /* \"#utility.yul\":6581:6582   */\n  0x00\n    /* \"#utility.yul\":6574:6662   */\n  mstore\n    /* \"#utility.yul\":6681:6685   */\n  0x32\n    /* \"#utility.yul\":6678:6679   */\n  0x04\n    /* \"#utility.yul\":6671:6686   */\n  mstore\n    /* \"#utility.yul\":6705:6709   */\n  0x24\n    /* \"#utility.yul\":6702:6703   */\n  0x00\n    /* \"#utility.yul\":6695:6710   */\n  revert\n    /* \"#utility.yul\":6722:6885   */\ntag_51:\n    /* \"#utility.yul\":6862:6877   */\n  0x696e76616c6964206f776e657200000000000000000000000000000000000000\n    /* \"#utility.yul\":6858:6859   */\n  0x00\n    /* \"#utility.yul\":6850:6856   */\n  dup3\n    /* \"#utility.yul\":6846:6860   */\n  add\n    /* \"#utility.yul\":6839:6878   */\n  mstore\n    /* \"#utility.yul\":6722:6885   */\n  pop\n  jump\t// out\n    /* \"#utility.yul\":6891:7257   */\ntag_52:\n    /* \"#utility.yul\":7033:7036   */\n  0x00\n    /* \"#utility.yul\":7054:7121   */\n  tag_123\n    /* \"#utility.yul\":7118:7120   */\n  0x0d\n    /* \"#utility.yul\":7113:7116   */\n  dup4\n    /* \"#utility.yul\":7054:7121   */\n  tag_46\n  jump\t// in\ntag_123:\n    /* \"#utility.yul\":7047:7121   */\n  swap2\n  pop\n    /* \"#utility.yul\":7130:7223   */\n  tag_124\n    /* \"#utility.yul\":7219:7222   */\n  dup3\n    /* \"#utility.yul\":7130:7223   */\n  tag_51\n  jump\t// in\ntag_124:\n    /* \"#utility.yul\":7248:7250   */\n  0x20\n    /* \"#utility.yul\":7243:7246   */\n  dup3\n    /* \"#utility.yul\":7239:7251   */\n  add\n    /* \"#utility.yul\":7232:7251   */\n  swap1\n  pop\n    /* \"#utility.yul\":6891:7257   */\n  swap2\n  swap1\n  pop\n  jump\t// out\n    /* \"#utility.yul\":7263:7682   */\ntag_21:\n    /* \"#utility.yul\":7429:7433   */\n  0x00\n    /* \"#utility.yul\":7467:7469   */\n  0x20\n    /* \"#utility.yul\":7456:7465   */\n  dup3\n    /* \"#utility.yul\":7452:7470   */\n  add\n    /* \"#utility.yul\":7444:7470   */\n  swap1\n  pop\n    /* \"#utility.yul\":7516:7525   */\n  dup2\n    /* \"#utility.yul\":7510:7514   */\n  dup2\n    /* \"#utility.yul\":7506:7526   */\n  sub\n    /* \"#utility.yul\":7502:7503   */\n  0x00\n    /* \"#utility.yul\":7491:7500   */\n  dup4\n    /* \"#utility.yul\":7487:7504   */\n  add\n    /* \"#utility.yul\":7480:7527   */\n  mstore\n    /* \"#utility.yul\":7544:7675   */\n  tag_126\n    /* \"#utility.yul\":7670:7674   */\n  dup2\n    /* \"#utility.yul\":7544:7675   */\n  tag_52\n  jump\t// in\ntag_126:\n    /* \"#utility.yul\":7536:7675   */\n  swap1\n  pop\n    /* \"#utility.yul\":7263:7682   */\n  swap2\n  swap1\n  pop\n  jump\t// out\n    /* \"#utility.yul\":7688:7854   */\ntag_53:\n    /* \"#utility.yul\":7828:7846   */\n  0x6f776e6572206e6f7420756e6971756500000000000000000000000000000000\n    /* \"#utility.yul\":7824:7825   */\n  0x00\n    /* \"#utility.yul\":7816:7822   */\n  dup3\n    /* \"#utility.yul\":7812:7826   */\n  add\n    /* \"#utility.yul\":7805:7847   */\n  mstore\n    /* \"#utility.yul\":7688:7854   */\n  pop\n  jump\t// out\n    /* \"#utility.yul\":7860:8226   */\ntag_54:\n    /* \"#utility.yul\":8002:8005   */\n  0x00\n    /* \"#utility.yul\":8023:8090   */\n  tag_129\n    /* \"#utility.yul\":8087:8089   */\n  0x10\n    /* \"#utility.yul\":8082:8085   */\n  dup4\n    /* \"#utility.yul\":8023:8090   */\n  tag_46\n  jump\t// in\ntag_129:\n    /* \"#utility.yul\":8016:8090   */\n  swap2\n  pop\n    /* \"#utility.yul\":8099:8192   */\n  tag_130\n    /* \"#utility.yul\":8188:8191   */\n  dup3\n    /* \"#utility.yul\":8099:8192   */\n  tag_53\n  jump\t// in\ntag_130:\n    /* \"#utility.yul\":8217:8219   */\n  0x20\n    /* \"#utility.yul\":8212:8215   */\n  dup3\n    /* \"#utility.yul\":8208:8220   */\n  add\n    /* \"#utility.yul\":8201:8220   */\n  swap1\n  pop\n    /* \"#utility.yul\":7860:8226   */\n  swap2\n  swap1\n  pop\n  jump\t// out\n    /* \"#utility.yul\":8232:8651   */\ntag_24:\n    /* \"#utility.yul\":8398:8402   */\n  0x00\n    /* \"#utility.yul\":8436:8438   */\n  0x20\n    /* \"#utility.yul\":8425:8434   */\n  dup3\n    /* \"#utility.yul\":8421:8439   */\n  add\n    /* \"#utility.yul\":8413:8439   */\n  swap1\n  pop\n    /* \"#utility.yul\":8485:8494   */\n  dup2\n    /* \"#utility.yul\":8479:8483   */\n  dup2\n    /* \"#utility.yul\":8475:8495   */\n  sub\n    /* \"#utility.yul\":8471:8472   */\n  0x00\n    /* \"#utility.yul\":8460:8469   */\n  dup4\n    /* \"#utility.yul\":8456:8473   */\n  add\n    /* \"#utility.yul\":8449:8496   */\n  mstore\n    /* \"#utility.yul\":8513:8644   */\n  tag_132\n    /* \"#utility.yul\":8639:8643   */\n  dup2\n    /* \"#utility.yul\":8513:8644   */\n  tag_54\n  jump\t// in\ntag_132:\n    /* \"#utility.yul\":8505:8644   */\n  swap1\n  pop\n    /* \"#utility.yul\":8232:8651   */\n  swap2\n  swap1\n  pop\n  jump\t// out\n    /* \"Sol_by_Example/Applications/02.MultiSigWallet.sol\":58:5246  contract MultiSigWallet {... */\ntag_26:\n  dataSize(sub_0)\n  dup1\n  dataOffset(sub_0)\n  0x00\n  codecopy\n  0x00\n  return\nstop\n\nsub_0: assembly {\n        /* \"Sol_by_Example/Applications/02.MultiSigWallet.sol\":58:5246  contract MultiSigWallet {... */\n      mstore(0x40, 0x80)\n      jumpi(tag_1, lt(calldatasize, 0x04))\n      shr(0xe0, calldataload(0x00))\n      dup1\n      0x80f59a65\n      gt\n      tag_16\n      jumpi\n      dup1\n      0xc01a8c84\n      gt\n      tag_17\n      jumpi\n      dup1\n      0xc01a8c84\n      eq\n      tag_12\n      jumpi\n      dup1\n      0xc6427474\n      eq\n      tag_13\n      jumpi\n      dup1\n      0xd0549b85\n      eq\n      tag_14\n      jumpi\n      dup1\n      0xee22610b\n      eq\n      tag_15\n      jumpi\n      jump(tag_2)\n    tag_17:\n      dup1\n      0x80f59a65\n      eq\n      tag_9\n      jumpi\n      dup1\n      0x9ace38c2\n      eq\n      tag_10\n      jumpi\n      dup1\n      0xa0e67e2b\n      eq\n      tag_11\n      jumpi\n      jump(tag_2)\n    tag_16:\n      dup1\n      0x025e7c27\n      eq\n      tag_3\n      jumpi\n      dup1\n      0x20ea8d86\n      eq\n      tag_4\n      jumpi\n      dup1\n      0x22968885\n      eq\n      tag_5\n      jumpi\n      dup1\n      0x2e7700f0\n      eq\n      tag_6\n      jumpi\n      dup1\n      0x2f54bf6e\n      eq\n      tag_7\n      jumpi\n      dup1\n      0x33ea3dc8\n      eq\n      tag_8\n      jumpi\n      jump(tag_2)\n    tag_1:\n      jumpi(tag_2, calldatasize)\n        /* \"Sol_by_Example/Applications/02.MultiSigWallet.sol\":2222:2232  msg.sender */\n      caller\n        /* \"Sol_by_Example/Applications/02.MultiSigWallet.sol\":2214:2267  Deposit(msg.sender, msg.value, address(this).balance) */\n      0xffffffffffffffffffffffffffffffffffffffff\n      and\n      0x90890809c654f11d6e72a28fa60149770a0d11ec6c92319d6ceb2bb0a4ea1a15\n        /* \"Sol_by_Example/Applications/02.MultiSigWallet.sol\":2234:2243  msg.value */\n      callvalue\n        /* \"Sol_by_Example/Applications/02.MultiSigWallet.sol\":2245:2266  address(this).balance */\n      selfbalance\n        /* \"Sol_by_Example/Applications/02.MultiSigWallet.sol\":2214:2267  Deposit(msg.sender, msg.value, address(this).balance) */\n      mload(0x40)\n      tag_20\n      swap3\n      swap2\n      swap1\n      tag_21\n      jump\t// in\n    tag_20:\n      mload(0x40)\n      dup1\n      swap2\n      sub\n      swap1\n      log2\n        /* \"Sol_by_Example/Applications/02.MultiSigWallet.sol\":58:5246  contract MultiSigWallet {... */\n      stop\n    tag_2:\n      revert(0x00, 0x00)\n        /* \"Sol_by_Example/Applications/02.MultiSigWallet.sol\":569:592  address[] public owners */\n    tag_3:\n      callvalue\n      dup1\n      iszero\n      tag_22\n      jumpi\n      revert(0x00, 0x00)\n    tag_22:\n      pop\n      tag_23\n      0x04\n      dup1\n      calldatasize\n      sub\n      dup2\n      add\n      swap1\n      tag_24\n      swap2\n      swap1\n      tag_25\n      jump\t// in\n    tag_24:\n      tag_26\n      jump\t// in\n    tag_23:\n      mload(0x40)\n      tag_27\n      swap2\n      swap1\n      tag_28\n      jump\t// in\n    tag_27:\n      mload(0x40)\n      dup1\n      swap2\n      sub\n      swap1\n      return\n        /* \"Sol_by_Example/Applications/02.MultiSigWallet.sol\":3842:4281  function revokeConfirmation(uint256 _txIndex) ... */\n    tag_4:\n      callvalue\n      dup1\n      iszero\n      tag_29\n      jumpi\n      revert(0x00, 0x00)\n    tag_29:\n      pop\n      tag_30\n      0x04\n      dup1\n      calldatasize\n      sub\n      dup2\n      add\n      swap1\n      tag_31\n      swap2\n      swap1\n      tag_25\n      jump\t// in\n    tag_31:\n      tag_32\n      jump\t// in\n    tag_30:\n      stop\n        /* \"Sol_by_Example/Applications/02.MultiSigWallet.sol\":5136:5243  function getBalanceOfContract() public view returns (uint256) {... */\n    tag_5:\n      callvalue\n      dup1\n      iszero\n      tag_33\n      jumpi\n      revert(0x00, 0x00)\n    tag_33:\n      pop\n      tag_34\n      tag_35\n      jump\t// in\n    tag_34:\n      mload(0x40)\n      tag_36\n      swap2\n      swap1\n      tag_37\n      jump\t// in\n    tag_36:\n      mload(0x40)\n      dup1\n      swap2\n      sub\n      swap1\n      return\n        /* \"Sol_by_Example/Applications/02.MultiSigWallet.sol\":4382:4486  function getTransactionCount() public view returns (uint256) {... */\n    tag_6:\n      callvalue\n      dup1\n      iszero\n      tag_38\n      jumpi\n      revert(0x00, 0x00)\n    tag_38:\n      pop\n      tag_39\n      tag_40\n      jump\t// in\n    tag_39:\n      mload(0x40)\n      tag_41\n      swap2\n      swap1\n      tag_37\n      jump\t// in\n    tag_41:\n      mload(0x40)\n      dup1\n      swap2\n      sub\n      swap1\n      return\n        /* \"Sol_by_Example/Applications/02.MultiSigWallet.sol\":598:637  mapping(address => bool) public isOwner */\n    tag_7:\n      callvalue\n      dup1\n      iszero\n      tag_42\n      jumpi\n      revert(0x00, 0x00)\n    tag_42:\n      pop\n      tag_43\n      0x04\n      dup1\n      calldatasize\n      sub\n      dup2\n      add\n      swap1\n      tag_44\n      swap2\n      swap1\n      tag_45\n      jump\t// in\n    tag_44:\n      tag_46\n      jump\t// in\n    tag_43:\n      mload(0x40)\n      tag_47\n      swap2\n      swap1\n      tag_48\n      jump\t// in\n    tag_47:\n      mload(0x40)\n      dup1\n      swap2\n      sub\n      swap1\n      return\n        /* \"Sol_by_Example/Applications/02.MultiSigWallet.sol\":4612:5126  function getTransaction(uint _txIndex) ... */\n    tag_8:\n      callvalue\n      dup1\n      iszero\n      tag_49\n      jumpi\n      revert(0x00, 0x00)\n    tag_49:\n      pop\n      tag_50\n      0x04\n      dup1\n      calldatasize\n      sub\n      dup2\n      add\n      swap1\n      tag_51\n      swap2\n      swap1\n      tag_25\n      jump\t// in\n    tag_51:\n      tag_52\n      jump\t// in\n    tag_50:\n      mload(0x40)\n      tag_53\n      swap6\n      swap5\n      swap4\n      swap3\n      swap2\n      swap1\n      tag_54\n      jump\t// in\n    tag_53:\n      mload(0x40)\n      dup1\n      swap2\n      sub\n      swap1\n      return\n        /* \"Sol_by_Example/Applications/02.MultiSigWallet.sol\":886:950  mapping (uint256 => mapping(address => bool)) public isConfirmed */\n    tag_9:\n      callvalue\n      dup1\n      iszero\n      tag_55\n      jumpi\n      revert(0x00, 0x00)\n    tag_55:\n      pop\n      tag_56\n      0x04\n      dup1\n      calldatasize\n      sub\n      dup2\n      add\n      swap1\n      tag_57\n      swap2\n      swap1\n      tag_58\n      jump\t// in\n    tag_57:\n      tag_59\n      jump\t// in\n    tag_56:\n      mload(0x40)\n      tag_60\n      swap2\n      swap1\n      tag_48\n      jump\t// in\n    tag_60:\n      mload(0x40)\n      dup1\n      swap2\n      sub\n      swap1\n      return\n        /* \"Sol_by_Example/Applications/02.MultiSigWallet.sol\":957:990  Transaction[] public transactions */\n    tag_10:\n      callvalue\n      dup1\n      iszero\n      tag_61\n      jumpi\n      revert(0x00, 0x00)\n    tag_61:\n      pop\n      tag_62\n      0x04\n      dup1\n      calldatasize\n      sub\n      dup2\n      add\n      swap1\n      tag_63\n      swap2\n      swap1\n      tag_25\n      jump\t// in\n    tag_63:\n      tag_64\n      jump\t// in\n    tag_62:\n      mload(0x40)\n      tag_65\n      swap6\n      swap5\n      swap4\n      swap3\n      swap2\n      swap1\n      tag_54\n      jump\t// in\n    tag_65:\n      mload(0x40)\n      dup1\n      swap2\n      sub\n      swap1\n      return\n        /* \"Sol_by_Example/Applications/02.MultiSigWallet.sol\":4287:4376  function getOwners() public view returns(address[] memory) {... */\n    tag_11:\n      callvalue\n      dup1\n      iszero\n      tag_66\n      jumpi\n      revert(0x00, 0x00)\n    tag_66:\n      pop\n      tag_67\n      tag_68\n      jump\t// in\n    tag_67:\n      mload(0x40)\n      tag_69\n      swap2\n      swap1\n      tag_70\n      jump\t// in\n    tag_69:\n      mload(0x40)\n      dup1\n      swap2\n      sub\n      swap1\n      return\n        /* \"Sol_by_Example/Applications/02.MultiSigWallet.sol\":2766:3213  function confirmTransaction(uint256 _txIndex) ... */\n    tag_12:\n      callvalue\n      dup1\n      iszero\n      tag_71\n      jumpi\n      revert(0x00, 0x00)\n    tag_71:\n      pop\n      tag_72\n      0x04\n      dup1\n      calldatasize\n      sub\n      dup2\n      add\n      swap1\n      tag_73\n      swap2\n      swap1\n      tag_25\n      jump\t// in\n    tag_73:\n      tag_74\n      jump\t// in\n    tag_72:\n      stop\n        /* \"Sol_by_Example/Applications/02.MultiSigWallet.sol\":2280:2760  function submitTransaction(address _to, uint256 _value, bytes memory _data)... */\n    tag_13:\n      callvalue\n      dup1\n      iszero\n      tag_75\n      jumpi\n      revert(0x00, 0x00)\n    tag_75:\n      pop\n      tag_76\n      0x04\n      dup1\n      calldatasize\n      sub\n      dup2\n      add\n      swap1\n      tag_77\n      swap2\n      swap1\n      tag_78\n      jump\t// in\n    tag_77:\n      tag_79\n      jump\t// in\n    tag_76:\n      stop\n        /* \"Sol_by_Example/Applications/02.MultiSigWallet.sol\":643:682  uint256 public numConfirmationsRequired */\n    tag_14:\n      callvalue\n      dup1\n      iszero\n      tag_80\n      jumpi\n      revert(0x00, 0x00)\n    tag_80:\n      pop\n      tag_81\n      tag_82\n      jump\t// in\n    tag_81:\n      mload(0x40)\n      tag_83\n      swap2\n      swap1\n      tag_37\n      jump\t// in\n    tag_83:\n      mload(0x40)\n      dup1\n      swap2\n      sub\n      swap1\n      return\n        /* \"Sol_by_Example/Applications/02.MultiSigWallet.sol\":3219:3836  function executeTransaction(uint256 _txIndex) ... */\n    tag_15:\n      callvalue\n      dup1\n      iszero\n      tag_84\n      jumpi\n      revert(0x00, 0x00)\n    tag_84:\n      pop\n      tag_85\n      0x04\n      dup1\n      calldatasize\n      sub\n      dup2\n      add\n      swap1\n      tag_86\n      swap2\n      swap1\n      tag_25\n      jump\t// in\n    tag_86:\n      tag_87\n      jump\t// in\n    tag_85:\n      stop\n        /* \"Sol_by_Example/Applications/02.MultiSigWallet.sol\":569:592  address[] public owners */\n    tag_26:\n      0x00\n      dup2\n      dup2\n      sload\n      dup2\n      lt\n      tag_88\n      jumpi\n      0x00\n      dup1\n      revert\n    tag_88:\n      swap1\n      0x00\n      mstore\n      keccak256(0x00, 0x20)\n      add\n      0x00\n      swap2\n      pop\n      sload\n      swap1\n      0x0100\n      exp\n      swap1\n      div\n      0xffffffffffffffffffffffffffffffffffffffff\n      and\n      dup2\n      jump\t// out\n        /* \"Sol_by_Example/Applications/02.MultiSigWallet.sol\":3842:4281  function revokeConfirmation(uint256 _txIndex) ... */\n    tag_32:\n        /* \"Sol_by_Example/Applications/02.MultiSigWallet.sol\":1036:1043  isOwner */\n      0x01\n        /* \"Sol_by_Example/Applications/02.MultiSigWallet.sol\":1036:1055  isOwner[msg.sender] */\n      0x00\n        /* \"Sol_by_Example/Applications/02.MultiSigWallet.sol\":1044:1054  msg.sender */\n      caller\n        /* \"Sol_by_Example/Applications/02.MultiSigWallet.sol\":1036:1055  isOwner[msg.sender] */\n      0xffffffffffffffffffffffffffffffffffffffff\n      and\n      0xffffffffffffffffffffffffffffffffffffffff\n      and\n      dup2\n      mstore\n      0x20\n      add\n      swap1\n      dup2\n      mstore\n      0x20\n      add\n      0x00\n      keccak256\n      0x00\n      swap1\n      sload\n      swap1\n      0x0100\n      exp\n      swap1\n      div\n      0xff\n      and\n        /* \"Sol_by_Example/Applications/02.MultiSigWallet.sol\":1028:1069  require(isOwner[msg.sender], \"not owner\") */\n      tag_91\n      jumpi\n      mload(0x40)\n      0x08c379a000000000000000000000000000000000000000000000000000000000\n      dup2\n      mstore\n      0x04\n      add\n      tag_92\n      swap1\n      tag_93\n      jump\t// in\n    tag_92:\n      mload(0x40)\n      dup1\n      swap2\n      sub\n      swap1\n      revert\n    tag_91:\n        /* \"Sol_by_Example/Applications/02.MultiSigWallet.sol\":3940:3948  _txIndex */\n      dup1\n        /* \"Sol_by_Example/Applications/02.MultiSigWallet.sol\":1158:1170  transactions */\n      0x04\n        /* \"Sol_by_Example/Applications/02.MultiSigWallet.sol\":1158:1177  transactions.length */\n      dup1\n      sload\n      swap1\n      pop\n        /* \"Sol_by_Example/Applications/02.MultiSigWallet.sol\":1147:1155  _txIndex */\n      dup2\n        /* \"Sol_by_Example/Applications/02.MultiSigWallet.sol\":1147:1177  _txIndex < transactions.length */\n      lt\n        /* \"Sol_by_Example/Applications/02.MultiSigWallet.sol\":1139:1200  require(_txIndex < transactions.length, \"txn does not exist\") */\n      tag_95\n      jumpi\n      mload(0x40)\n      0x08c379a000000000000000000000000000000000000000000000000000000000\n      dup2\n      mstore\n      0x04\n      add\n      tag_96\n      swap1\n      tag_97\n      jump\t// in\n    tag_96:\n      mload(0x40)\n      dup1\n      swap2\n      sub\n      swap1\n      revert\n    tag_95:\n        /* \"Sol_by_Example/Applications/02.MultiSigWallet.sol\":3970:3978  _txIndex */\n      dup2\n        /* \"Sol_by_Example/Applications/02.MultiSigWallet.sol\":1282:1294  transactions */\n      0x04\n        /* \"Sol_by_Example/Applications/02.MultiSigWallet.sol\":1295:1303  _txIndex */\n      dup2\n        /* \"Sol_by_Example/Applications/02.MultiSigWallet.sol\":1282:1304  transactions[_txIndex] */\n      dup2\n      sload\n      dup2\n      lt\n      tag_99\n      jumpi\n      tag_100\n      tag_101\n      jump\t// in\n    tag_100:\n    tag_99:\n      swap1\n      0x00\n      mstore\n      keccak256(0x00, 0x20)\n      swap1\n      0x05\n      mul\n      add\n        /* \"Sol_by_Example/Applications/02.MultiSigWallet.sol\":1282:1313  transactions[_txIndex].executed */\n      0x03\n      add\n      0x00\n      swap1\n      sload\n      swap1\n      0x0100\n      exp\n      swap1\n      div\n      0xff\n      and\n        /* \"Sol_by_Example/Applications/02.MultiSigWallet.sol\":1281:1313  !transactions[_txIndex].executed */\n      iszero\n        /* \"Sol_by_Example/Applications/02.MultiSigWallet.sol\":1273:1337  require(!transactions[_txIndex].executed, \"tx already executed\") */\n      tag_103\n      jumpi\n      mload(0x40)\n      0x08c379a000000000000000000000000000000000000000000000000000000000\n      dup2\n      mstore\n      0x04\n      add\n      tag_104\n      swap1\n      tag_105\n      jump\t// in\n    tag_104:\n      mload(0x40)\n      dup1\n      swap2\n      sub\n      swap1\n      revert\n    tag_103:\n        /* \"Sol_by_Example/Applications/02.MultiSigWallet.sol\":3994:4025  Transaction storage transaction */\n      0x00\n        /* \"Sol_by_Example/Applications/02.MultiSigWallet.sol\":4028:4040  transactions */\n      0x04\n        /* \"Sol_by_Example/Applications/02.MultiSigWallet.sol\":4041:4049  _txIndex */\n      dup5\n        /* \"Sol_by_Example/Applications/02.MultiSigWallet.sol\":4028:4050  transactions[_txIndex] */\n      dup2\n      sload\n      dup2\n      lt\n      tag_107\n      jumpi\n      tag_108\n      tag_101\n      jump\t// in\n    tag_108:\n    tag_107:\n      swap1\n      0x00\n      mstore\n      keccak256(0x00, 0x20)\n      swap1\n      0x05\n      mul\n      add\n        /* \"Sol_by_Example/Applications/02.MultiSigWallet.sol\":3994:4050  Transaction storage transaction = transactions[_txIndex] */\n      swap1\n      pop\n        /* \"Sol_by_Example/Applications/02.MultiSigWallet.sol\":4069:4080  isConfirmed */\n      0x03\n        /* \"Sol_by_Example/Applications/02.MultiSigWallet.sol\":4069:4090  isConfirmed[_txIndex] */\n      0x00\n        /* \"Sol_by_Example/Applications/02.MultiSigWallet.sol\":4081:4089  _txIndex */\n      dup6\n        /* \"Sol_by_Example/Applications/02.MultiSigWallet.sol\":4069:4090  isConfirmed[_txIndex] */\n      dup2\n      mstore\n      0x20\n      add\n      swap1\n      dup2\n      mstore\n      0x20\n      add\n      0x00\n      keccak256\n        /* \"Sol_by_Example/Applications/02.MultiSigWallet.sol\":4069:4102  isConfirmed[_txIndex][msg.sender] */\n      0x00\n        /* \"Sol_by_Example/Applications/02.MultiSigWallet.sol\":4091:4101  msg.sender */\n      caller\n        /* \"Sol_by_Example/Applications/02.MultiSigWallet.sol\":4069:4102  isConfirmed[_txIndex][msg.sender] */\n      0xffffffffffffffffffffffffffffffffffffffff\n      and\n      0xffffffffffffffffffffffffffffffffffffffff\n      and\n      dup2\n      mstore\n      0x20\n      add\n      swap1\n      dup2\n      mstore\n      0x20\n      add\n      0x00\n      keccak256\n      0x00\n      swap1\n      sload\n      swap1\n      0x0100\n      exp\n      swap1\n      div\n      0xff\n      and\n        /* \"Sol_by_Example/Applications/02.MultiSigWallet.sol\":4061:4123  require(isConfirmed[_txIndex][msg.sender], \"tx not confimred\") */\n      tag_110\n      jumpi\n      mload(0x40)\n      0x08c379a000000000000000000000000000000000000000000000000000000000\n      dup2\n      mstore\n      0x04\n      add\n      tag_111\n      swap1\n      tag_112\n      jump\t// in\n    tag_111:\n      mload(0x40)\n      dup1\n      swap2\n      sub\n      swap1\n      revert\n    tag_110:\n        /* \"Sol_by_Example/Applications/02.MultiSigWallet.sol\":4166:4167  1 */\n      0x01\n        /* \"Sol_by_Example/Applications/02.MultiSigWallet.sol\":4134:4145  transaction */\n      dup2\n        /* \"Sol_by_Example/Applications/02.MultiSigWallet.sol\":4134:4162  transaction.numConfirmations */\n      0x04\n      add\n      0x00\n        /* \"Sol_by_Example/Applications/02.MultiSigWallet.sol\":4134:4167  transaction.numConfirmations -= 1 */\n      dup3\n      dup3\n      sload\n      tag_113\n      swap2\n      swap1\n      tag_114\n      jump\t// in\n    tag_113:\n      swap3\n      pop\n      pop\n      dup2\n      swap1\n      sstore\n      pop\n        /* \"Sol_by_Example/Applications/02.MultiSigWallet.sol\":4213:4218  false */\n      0x00\n        /* \"Sol_by_Example/Applications/02.MultiSigWallet.sol\":4177:4188  isConfirmed */\n      0x03\n        /* \"Sol_by_Example/Applications/02.MultiSigWallet.sol\":4177:4198  isConfirmed[_txIndex] */\n      0x00\n        /* \"Sol_by_Example/Applications/02.MultiSigWallet.sol\":4189:4197  _txIndex */\n      dup7\n        /* \"Sol_by_Example/Applications/02.MultiSigWallet.sol\":4177:4198  isConfirmed[_txIndex] */\n      dup2\n      mstore\n      0x20\n      add\n      swap1\n      dup2\n      mstore\n      0x20\n      add\n      0x00\n      keccak256\n        /* \"Sol_by_Example/Applications/02.MultiSigWallet.sol\":4177:4210  isConfirmed[_txIndex][msg.sender] */\n      0x00\n        /* \"Sol_by_Example/Applications/02.MultiSigWallet.sol\":4199:4209  msg.sender */\n      caller\n        /* \"Sol_by_Example/Applications/02.MultiSigWallet.sol\":4177:4210  isConfirmed[_txIndex][msg.sender] */\n      0xffffffffffffffffffffffffffffffffffffffff\n      and\n      0xffffffffffffffffffffffffffffffffffffffff\n      and\n      dup2\n      mstore\n      0x20\n      add\n      swap1\n      dup2\n      mstore\n      0x20\n      add\n      0x00\n      keccak256\n      0x00\n        /* \"Sol_by_Example/Applications/02.MultiSigWallet.sol\":4177:4218  isConfirmed[_txIndex][msg.sender] = false */\n      0x0100\n      exp\n      dup2\n      sload\n      dup2\n      0xff\n      mul\n      not\n      and\n      swap1\n      dup4\n      iszero\n      iszero\n      mul\n      or\n      swap1\n      sstore\n      pop\n        /* \"Sol_by_Example/Applications/02.MultiSigWallet.sol\":4265:4273  _txIndex */\n      dup4\n        /* \"Sol_by_Example/Applications/02.MultiSigWallet.sol\":4253:4263  msg.sender */\n      caller\n        /* \"Sol_by_Example/Applications/02.MultiSigWallet.sol\":4234:4274  RevokeConfirmation(msg.sender, _txIndex) */\n      0xffffffffffffffffffffffffffffffffffffffff\n      and\n      0xf0dca620e2e81f7841d07bcc105e1704fb01475b278a9d4c236e1c62945edd55\n      mload(0x40)\n      mload(0x40)\n      dup1\n      swap2\n      sub\n      swap1\n      log3\n        /* \"Sol_by_Example/Applications/02.MultiSigWallet.sol\":3984:4281  {... */\n      pop\n        /* \"Sol_by_Example/Applications/02.MultiSigWallet.sol\":1210:1211  _ */\n      pop\n        /* \"Sol_by_Example/Applications/02.MultiSigWallet.sol\":1079:1080  _ */\n      pop\n        /* \"Sol_by_Example/Applications/02.MultiSigWallet.sol\":3842:4281  function revokeConfirmation(uint256 _txIndex) ... */\n      pop\n      jump\t// out\n        /* \"Sol_by_Example/Applications/02.MultiSigWallet.sol\":5136:5243  function getBalanceOfContract() public view returns (uint256) {... */\n    tag_35:\n        /* \"Sol_by_Example/Applications/02.MultiSigWallet.sol\":5189:5196  uint256 */\n      0x00\n        /* \"Sol_by_Example/Applications/02.MultiSigWallet.sol\":5215:5236  address(this).balance */\n      selfbalance\n        /* \"Sol_by_Example/Applications/02.MultiSigWallet.sol\":5208:5236  return address(this).balance */\n      swap1\n      pop\n        /* \"Sol_by_Example/Applications/02.MultiSigWallet.sol\":5136:5243  function getBalanceOfContract() public view returns (uint256) {... */\n      swap1\n      jump\t// out\n        /* \"Sol_by_Example/Applications/02.MultiSigWallet.sol\":4382:4486  function getTransactionCount() public view returns (uint256) {... */\n    tag_40:\n        /* \"Sol_by_Example/Applications/02.MultiSigWallet.sol\":4434:4441  uint256 */\n      0x00\n        /* \"Sol_by_Example/Applications/02.MultiSigWallet.sol\":4460:4472  transactions */\n      0x04\n        /* \"Sol_by_Example/Applications/02.MultiSigWallet.sol\":4460:4479  transactions.length */\n      dup1\n      sload\n      swap1\n      pop\n        /* \"Sol_by_Example/Applications/02.MultiSigWallet.sol\":4453:4479  return transactions.length */\n      swap1\n      pop\n        /* \"Sol_by_Example/Applications/02.MultiSigWallet.sol\":4382:4486  function getTransactionCount() public view returns (uint256) {... */\n      swap1\n      jump\t// out\n        /* \"Sol_by_Example/Applications/02.MultiSigWallet.sol\":598:637  mapping(address => bool) public isOwner */\n    tag_46:\n      mstore(0x20, 0x01)\n      dup1\n      0x00\n      mstore\n      keccak256(0x00, 0x40)\n      0x00\n      swap2\n      pop\n      sload\n      swap1\n      0x0100\n      exp\n      swap1\n      div\n      0xff\n      and\n      dup2\n      jump\t// out\n        /* \"Sol_by_Example/Applications/02.MultiSigWallet.sol\":4612:5126  function getTransaction(uint _txIndex) ... */\n    tag_52:\n        /* \"Sol_by_Example/Applications/02.MultiSigWallet.sol\":4711:4721  address to */\n      0x00\n        /* \"Sol_by_Example/Applications/02.MultiSigWallet.sol\":4735:4748  uint256 value */\n      0x00\n        /* \"Sol_by_Example/Applications/02.MultiSigWallet.sol\":4762:4779  bytes memory data */\n      0x60\n        /* \"Sol_by_Example/Applications/02.MultiSigWallet.sol\":4793:4806  bool executed */\n      0x00\n        /* \"Sol_by_Example/Applications/02.MultiSigWallet.sol\":4820:4844  uint256 numConfirmations */\n      0x00\n        /* \"Sol_by_Example/Applications/02.MultiSigWallet.sol\":4870:4901  Transaction storage transaction */\n      0x00\n        /* \"Sol_by_Example/Applications/02.MultiSigWallet.sol\":4904:4916  transactions */\n      0x04\n        /* \"Sol_by_Example/Applications/02.MultiSigWallet.sol\":4917:4925  _txIndex */\n      dup8\n        /* \"Sol_by_Example/Applications/02.MultiSigWallet.sol\":4904:4926  transactions[_txIndex] */\n      dup2\n      sload\n      dup2\n      lt\n      tag_118\n      jumpi\n      tag_119\n      tag_101\n      jump\t// in\n    tag_119:\n    tag_118:\n      swap1\n      0x00\n      mstore\n      keccak256(0x00, 0x20)\n      swap1\n      0x05\n      mul\n      add\n        /* \"Sol_by_Example/Applications/02.MultiSigWallet.sol\":4870:4926  Transaction storage transaction = transactions[_txIndex] */\n      swap1\n      pop\n        /* \"Sol_by_Example/Applications/02.MultiSigWallet.sol\":4958:4969  transaction */\n      dup1\n        /* \"Sol_by_Example/Applications/02.MultiSigWallet.sol\":4958:4972  transaction.to */\n      0x00\n      add\n      0x00\n      swap1\n      sload\n      swap1\n      0x0100\n      exp\n      swap1\n      div\n      0xffffffffffffffffffffffffffffffffffffffff\n      and\n        /* \"Sol_by_Example/Applications/02.MultiSigWallet.sol\":4986:4997  transaction */\n      dup2\n        /* \"Sol_by_Example/Applications/02.MultiSigWallet.sol\":4986:5003  transaction.value */\n      0x01\n      add\n      sload\n        /* \"Sol_by_Example/Applications/02.MultiSigWallet.sol\":5017:5028  transaction */\n      dup3\n        /* \"Sol_by_Example/Applications/02.MultiSigWallet.sol\":5017:5033  transaction.data */\n      0x02\n      add\n        /* \"Sol_by_Example/Applications/02.MultiSigWallet.sol\":5047:5058  transaction */\n      dup4\n        /* \"Sol_by_Example/Applications/02.MultiSigWallet.sol\":5047:5067  transaction.executed */\n      0x03\n      add\n      0x00\n      swap1\n      sload\n      swap1\n      0x0100\n      exp\n      swap1\n      div\n      0xff\n      and\n        /* \"Sol_by_Example/Applications/02.MultiSigWallet.sol\":5081:5092  transaction */\n      dup5\n        /* \"Sol_by_Example/Applications/02.MultiSigWallet.sol\":5081:5109  transaction.numConfirmations */\n      0x04\n      add\n      sload\n        /* \"Sol_by_Example/Applications/02.MultiSigWallet.sol\":4937:5119  return (... */\n      dup3\n      dup1\n      sload\n      tag_121\n      swap1\n      tag_122\n      jump\t// in\n    tag_121:\n      dup1\n      0x1f\n      add\n      0x20\n      dup1\n      swap2\n      div\n      mul\n      0x20\n      add\n      mload(0x40)\n      swap1\n      dup2\n      add\n      0x40\n      mstore\n      dup1\n      swap3\n      swap2\n      swap1\n      dup2\n      dup2\n      mstore\n      0x20\n      add\n      dup3\n      dup1\n      sload\n      tag_123\n      swap1\n      tag_122\n      jump\t// in\n    tag_123:\n      dup1\n      iszero\n      tag_124\n      jumpi\n      dup1\n      0x1f\n      lt\n      tag_125\n      jumpi\n      0x0100\n      dup1\n      dup4\n      sload\n      div\n      mul\n      dup4\n      mstore\n      swap2\n      0x20\n      add\n      swap2\n      jump(tag_124)\n    tag_125:\n      dup3\n      add\n      swap2\n      swap1\n      0x00\n      mstore\n      keccak256(0x00, 0x20)\n      swap1\n    tag_126:\n      dup2\n      sload\n      dup2\n      mstore\n      swap1\n      0x01\n      add\n      swap1\n      0x20\n      add\n      dup1\n      dup4\n      gt\n      tag_126\n      jumpi\n      dup3\n      swap1\n      sub\n      0x1f\n      and\n      dup3\n      add\n      swap2\n    tag_124:\n      pop\n      pop\n      pop\n      pop\n      pop\n      swap3\n      pop\n      swap6\n      pop\n      swap6\n      pop\n      swap6\n      pop\n      swap6\n      pop\n      swap6\n      pop\n      pop\n        /* \"Sol_by_Example/Applications/02.MultiSigWallet.sol\":4612:5126  function getTransaction(uint _txIndex) ... */\n      swap2\n      swap4\n      swap6\n      swap1\n      swap3\n      swap5\n      pop\n      jump\t// out\n        /* \"Sol_by_Example/Applications/02.MultiSigWallet.sol\":886:950  mapping (uint256 => mapping(address => bool)) public isConfirmed */\n    tag_59:\n      mstore(0x20, 0x03)\n      dup2\n      0x00\n      mstore\n      mstore(0x20, keccak256(0x00, 0x40))\n      dup1\n      0x00\n      mstore\n      keccak256(0x00, 0x40)\n      0x00\n      swap2\n      pop\n      swap2\n      pop\n      swap1\n      sload\n      swap1\n      0x0100\n      exp\n      swap1\n      div\n      0xff\n      and\n      dup2\n      jump\t// out\n        /* \"Sol_by_Example/Applications/02.MultiSigWallet.sol\":957:990  Transaction[] public transactions */\n    tag_64:\n      0x04\n      dup2\n      dup2\n      sload\n      dup2\n      lt\n      tag_127\n      jumpi\n      0x00\n      dup1\n      revert\n    tag_127:\n      swap1\n      0x00\n      mstore\n      keccak256(0x00, 0x20)\n      swap1\n      0x05\n      mul\n      add\n      0x00\n      swap2\n      pop\n      swap1\n      pop\n      dup1\n      0x00\n      add\n      0x00\n      swap1\n      sload\n      swap1\n      0x0100\n      exp\n      swap1\n      div\n      0xffffffffffffffffffffffffffffffffffffffff\n      and\n      swap1\n      dup1\n      0x01\n      add\n      sload\n      swap1\n      dup1\n      0x02\n      add\n      dup1\n      sload\n      tag_129\n      swap1\n      tag_122\n      jump\t// in\n    tag_129:\n      dup1\n      0x1f\n      add\n      0x20\n      dup1\n      swap2\n      div\n      mul\n      0x20\n      add\n      mload(0x40)\n      swap1\n      dup2\n      add\n      0x40\n      mstore\n      dup1\n      swap3\n      swap2\n      swap1\n      dup2\n      dup2\n      mstore\n      0x20\n      add\n      dup3\n      dup1\n      sload\n      tag_130\n      swap1\n      tag_122\n      jump\t// in\n    tag_130:\n      dup1\n      iszero\n      tag_131\n      jumpi\n      dup1\n      0x1f\n      lt\n      tag_132\n      jumpi\n      0x0100\n      dup1\n      dup4\n      sload\n      div\n      mul\n      dup4\n      mstore\n      swap2\n      0x20\n      add\n      swap2\n      jump(tag_131)\n    tag_132:\n      dup3\n      add\n      swap2\n      swap1\n      0x00\n      mstore\n      keccak256(0x00, 0x20)\n      swap1\n    tag_133:\n      dup2\n      sload\n      dup2\n      mstore\n      swap1\n      0x01\n      add\n      swap1\n      0x20\n      add\n      dup1\n      dup4\n      gt\n      tag_133\n      jumpi\n      dup3\n      swap1\n      sub\n      0x1f\n      and\n      dup3\n      add\n      swap2\n    tag_131:\n      pop\n      pop\n      pop\n      pop\n      pop\n      swap1\n      dup1\n      0x03\n      add\n      0x00\n      swap1\n      sload\n      swap1\n      0x0100\n      exp\n      swap1\n      div\n      0xff\n      and\n      swap1\n      dup1\n      0x04\n      add\n      sload\n      swap1\n      pop\n      dup6\n      jump\t// out\n        /* \"Sol_by_Example/Applications/02.MultiSigWallet.sol\":4287:4376  function getOwners() public view returns(address[] memory) {... */\n    tag_68:\n        /* \"Sol_by_Example/Applications/02.MultiSigWallet.sol\":4328:4344  address[] memory */\n      0x60\n        /* \"Sol_by_Example/Applications/02.MultiSigWallet.sol\":4363:4369  owners */\n      0x00\n        /* \"Sol_by_Example/Applications/02.MultiSigWallet.sol\":4356:4369  return owners */\n      dup1\n      sload\n      dup1\n      0x20\n      mul\n      0x20\n      add\n      mload(0x40)\n      swap1\n      dup2\n      add\n      0x40\n      mstore\n      dup1\n      swap3\n      swap2\n      swap1\n      dup2\n      dup2\n      mstore\n      0x20\n      add\n      dup3\n      dup1\n      sload\n      dup1\n      iszero\n      tag_135\n      jumpi\n      0x20\n      mul\n      dup3\n      add\n      swap2\n      swap1\n      0x00\n      mstore\n      keccak256(0x00, 0x20)\n      swap1\n    tag_136:\n      dup2\n      0x00\n      swap1\n      sload\n      swap1\n      0x0100\n      exp\n      swap1\n      div\n      0xffffffffffffffffffffffffffffffffffffffff\n      and\n      0xffffffffffffffffffffffffffffffffffffffff\n      and\n      dup2\n      mstore\n      0x20\n      add\n      swap1\n      0x01\n      add\n      swap1\n      dup1\n      dup4\n      gt\n      tag_136\n      jumpi\n    tag_135:\n      pop\n      pop\n      pop\n      pop\n      pop\n      swap1\n      pop\n        /* \"Sol_by_Example/Applications/02.MultiSigWallet.sol\":4287:4376  function getOwners() public view returns(address[] memory) {... */\n      swap1\n      jump\t// out\n        /* \"Sol_by_Example/Applications/02.MultiSigWallet.sol\":2766:3213  function confirmTransaction(uint256 _txIndex) ... */\n    tag_74:\n        /* \"Sol_by_Example/Applications/02.MultiSigWallet.sol\":1036:1043  isOwner */\n      0x01\n        /* \"Sol_by_Example/Applications/02.MultiSigWallet.sol\":1036:1055  isOwner[msg.sender] */\n      0x00\n        /* \"Sol_by_Example/Applications/02.MultiSigWallet.sol\":1044:1054  msg.sender */\n      caller\n        /* \"Sol_by_Example/Applications/02.MultiSigWallet.sol\":1036:1055  isOwner[msg.sender] */\n      0xffffffffffffffffffffffffffffffffffffffff\n      and\n      0xffffffffffffffffffffffffffffffffffffffff\n      and\n      dup2\n      mstore\n      0x20\n      add\n      swap1\n      dup2\n      mstore\n      0x20\n      add\n      0x00\n      keccak256\n      0x00\n      swap1\n      sload\n      swap1\n      0x0100\n      exp\n      swap1\n      div\n      0xff\n      and\n        /* \"Sol_by_Example/Applications/02.MultiSigWallet.sol\":1028:1069  require(isOwner[msg.sender], \"not owner\") */\n      tag_138\n      jumpi\n      mload(0x40)\n      0x08c379a000000000000000000000000000000000000000000000000000000000\n      dup2\n      mstore\n      0x04\n      add\n      tag_139\n      swap1\n      tag_93\n      jump\t// in\n    tag_139:\n      mload(0x40)\n      dup1\n      swap2\n      sub\n      swap1\n      revert\n    tag_138:\n        /* \"Sol_by_Example/Applications/02.MultiSigWallet.sol\":2864:2872  _txIndex */\n      dup1\n        /* \"Sol_by_Example/Applications/02.MultiSigWallet.sol\":1158:1170  transactions */\n      0x04\n        /* \"Sol_by_Example/Applications/02.MultiSigWallet.sol\":1158:1177  transactions.length */\n      dup1\n      sload\n      swap1\n      pop\n        /* \"Sol_by_Example/Applications/02.MultiSigWallet.sol\":1147:1155  _txIndex */\n      dup2\n        /* \"Sol_by_Example/Applications/02.MultiSigWallet.sol\":1147:1177  _txIndex < transactions.length */\n      lt\n        /* \"Sol_by_Example/Applications/02.MultiSigWallet.sol\":1139:1200  require(_txIndex < transactions.length, \"txn does not exist\") */\n      tag_141\n      jumpi\n      mload(0x40)\n      0x08c379a000000000000000000000000000000000000000000000000000000000\n      dup2\n      mstore\n      0x04\n      add\n      tag_142\n      swap1\n      tag_97\n      jump\t// in\n    tag_142:\n      mload(0x40)\n      dup1\n      swap2\n      sub\n      swap1\n      revert\n    tag_141:\n        /* \"Sol_by_Example/Applications/02.MultiSigWallet.sol\":2894:2902  _txIndex */\n      dup2\n        /* \"Sol_by_Example/Applications/02.MultiSigWallet.sol\":1282:1294  transactions */\n      0x04\n        /* \"Sol_by_Example/Applications/02.MultiSigWallet.sol\":1295:1303  _txIndex */\n      dup2\n        /* \"Sol_by_Example/Applications/02.MultiSigWallet.sol\":1282:1304  transactions[_txIndex] */\n      dup2\n      sload\n      dup2\n      lt\n      tag_144\n      jumpi\n      tag_145\n      tag_101\n      jump\t// in\n    tag_145:\n    tag_144:\n      swap1\n      0x00\n      mstore\n      keccak256(0x00, 0x20)\n      swap1\n      0x05\n      mul\n      add\n        /* \"Sol_by_Example/Applications/02.MultiSigWallet.sol\":1282:1313  transactions[_txIndex].executed */\n      0x03\n      add\n      0x00\n      swap1\n      sload\n      swap1\n      0x0100\n      exp\n      swap1\n      div\n      0xff\n      and\n        /* \"Sol_by_Example/Applications/02.MultiSigWallet.sol\":1281:1313  !transactions[_txIndex].executed */\n      iszero\n        /* \"Sol_by_Example/Applications/02.MultiSigWallet.sol\":1273:1337  require(!transactions[_txIndex].executed, \"tx already executed\") */\n      tag_147\n      jumpi\n      mload(0x40)\n      0x08c379a000000000000000000000000000000000000000000000000000000000\n      dup2\n      mstore\n      0x04\n      add\n      tag_148\n      swap1\n      tag_105\n      jump\t// in\n    tag_148:\n      mload(0x40)\n      dup1\n      swap2\n      sub\n      swap1\n      revert\n    tag_147:\n        /* \"Sol_by_Example/Applications/02.MultiSigWallet.sol\":2925:2933  _txIndex */\n      dup3\n        /* \"Sol_by_Example/Applications/02.MultiSigWallet.sol\":1420:1431  isConfirmed */\n      0x03\n        /* \"Sol_by_Example/Applications/02.MultiSigWallet.sol\":1420:1441  isConfirmed[_txIndex] */\n      0x00\n        /* \"Sol_by_Example/Applications/02.MultiSigWallet.sol\":1432:1440  _txIndex */\n      dup3\n        /* \"Sol_by_Example/Applications/02.MultiSigWallet.sol\":1420:1441  isConfirmed[_txIndex] */\n      dup2\n      mstore\n      0x20\n      add\n      swap1\n      dup2\n      mstore\n      0x20\n      add\n      0x00\n      keccak256\n        /* \"Sol_by_Example/Applications/02.MultiSigWallet.sol\":1420:1453  isConfirmed[_txIndex][msg.sender] */\n      0x00\n        /* \"Sol_by_Example/Applications/02.MultiSigWallet.sol\":1442:1452  msg.sender */\n      caller\n        /* \"Sol_by_Example/Applications/02.MultiSigWallet.sol\":1420:1453  isConfirmed[_txIndex][msg.sender] */\n      0xffffffffffffffffffffffffffffffffffffffff\n      and\n      0xffffffffffffffffffffffffffffffffffffffff\n      and\n      dup2\n      mstore\n      0x20\n      add\n      swap1\n      dup2\n      mstore\n      0x20\n      add\n      0x00\n      keccak256\n      0x00\n      swap1\n      sload\n      swap1\n      0x0100\n      exp\n      swap1\n      div\n      0xff\n      and\n        /* \"Sol_by_Example/Applications/02.MultiSigWallet.sol\":1419:1453  !isConfirmed[_txIndex][msg.sender] */\n      iszero\n        /* \"Sol_by_Example/Applications/02.MultiSigWallet.sol\":1411:1477  require(!isConfirmed[_txIndex][msg.sender],\"tx already confirmed\") */\n      tag_150\n      jumpi\n      mload(0x40)\n      0x08c379a000000000000000000000000000000000000000000000000000000000\n      dup2\n      mstore\n      0x04\n      add\n      tag_151\n      swap1\n      tag_152\n      jump\t// in\n    tag_151:\n      mload(0x40)\n      dup1\n      swap2\n      sub\n      swap1\n      revert\n    tag_150:\n        /* \"Sol_by_Example/Applications/02.MultiSigWallet.sol\":2997:3028  Transaction storage transaction */\n      0x00\n        /* \"Sol_by_Example/Applications/02.MultiSigWallet.sol\":3031:3043  transactions */\n      0x04\n        /* \"Sol_by_Example/Applications/02.MultiSigWallet.sol\":3044:3052  _txIndex */\n      dup6\n        /* \"Sol_by_Example/Applications/02.MultiSigWallet.sol\":3031:3053  transactions[_txIndex] */\n      dup2\n      sload\n      dup2\n      lt\n      tag_154\n      jumpi\n      tag_155\n      tag_101\n      jump\t// in\n    tag_155:\n    tag_154:\n      swap1\n      0x00\n      mstore\n      keccak256(0x00, 0x20)\n      swap1\n      0x05\n      mul\n      add\n        /* \"Sol_by_Example/Applications/02.MultiSigWallet.sol\":2997:3053  Transaction storage transaction = transactions[_txIndex] */\n      swap1\n      pop\n        /* \"Sol_by_Example/Applications/02.MultiSigWallet.sol\":3095:3096  1 */\n      0x01\n        /* \"Sol_by_Example/Applications/02.MultiSigWallet.sol\":3063:3074  transaction */\n      dup2\n        /* \"Sol_by_Example/Applications/02.MultiSigWallet.sol\":3063:3091  transaction.numConfirmations */\n      0x04\n      add\n      0x00\n        /* \"Sol_by_Example/Applications/02.MultiSigWallet.sol\":3063:3096  transaction.numConfirmations += 1 */\n      dup3\n      dup3\n      sload\n      tag_157\n      swap2\n      swap1\n      tag_158\n      jump\t// in\n    tag_157:\n      swap3\n      pop\n      pop\n      dup2\n      swap1\n      sstore\n      pop\n        /* \"Sol_by_Example/Applications/02.MultiSigWallet.sol\":3142:3146  true */\n      0x01\n        /* \"Sol_by_Example/Applications/02.MultiSigWallet.sol\":3106:3117  isConfirmed */\n      0x03\n        /* \"Sol_by_Example/Applications/02.MultiSigWallet.sol\":3106:3127  isConfirmed[_txIndex] */\n      0x00\n        /* \"Sol_by_Example/Applications/02.MultiSigWallet.sol\":3118:3126  _txIndex */\n      dup8\n        /* \"Sol_by_Example/Applications/02.MultiSigWallet.sol\":3106:3127  isConfirmed[_txIndex] */\n      dup2\n      mstore\n      0x20\n      add\n      swap1\n      dup2\n      mstore\n      0x20\n      add\n      0x00\n      keccak256\n        /* \"Sol_by_Example/Applications/02.MultiSigWallet.sol\":3106:3139  isConfirmed[_txIndex][msg.sender] */\n      0x00\n        /* \"Sol_by_Example/Applications/02.MultiSigWallet.sol\":3128:3138  msg.sender */\n      caller\n        /* \"Sol_by_Example/Applications/02.MultiSigWallet.sol\":3106:3139  isConfirmed[_txIndex][msg.sender] */\n      0xffffffffffffffffffffffffffffffffffffffff\n      and\n      0xffffffffffffffffffffffffffffffffffffffff\n      and\n      dup2\n      mstore\n      0x20\n      add\n      swap1\n      dup2\n      mstore\n      0x20\n      add\n      0x00\n      keccak256\n      0x00\n        /* \"Sol_by_Example/Applications/02.MultiSigWallet.sol\":3106:3146  isConfirmed[_txIndex][msg.sender] = true */\n      0x0100\n      exp\n      dup2\n      sload\n      dup2\n      0xff\n      mul\n      not\n      and\n      swap1\n      dup4\n      iszero\n      iszero\n      mul\n      or\n      swap1\n      sstore\n      pop\n        /* \"Sol_by_Example/Applications/02.MultiSigWallet.sol\":3197:3205  _txIndex */\n      dup5\n        /* \"Sol_by_Example/Applications/02.MultiSigWallet.sol\":3185:3195  msg.sender */\n      caller\n        /* \"Sol_by_Example/Applications/02.MultiSigWallet.sol\":3166:3206  ConfirmTransaction(msg.sender, _txIndex) */\n      0xffffffffffffffffffffffffffffffffffffffff\n      and\n      0x5cbe105e36805f7820e291f799d5794ff948af2a5f664e580382defb63390041\n      mload(0x40)\n      mload(0x40)\n      dup1\n      swap2\n      sub\n      swap1\n      log3\n        /* \"Sol_by_Example/Applications/02.MultiSigWallet.sol\":2984:3213  {   ... */\n      pop\n        /* \"Sol_by_Example/Applications/02.MultiSigWallet.sol\":1347:1348  _ */\n      pop\n        /* \"Sol_by_Example/Applications/02.MultiSigWallet.sol\":1210:1211  _ */\n      pop\n        /* \"Sol_by_Example/Applications/02.MultiSigWallet.sol\":1079:1080  _ */\n      pop\n        /* \"Sol_by_Example/Applications/02.MultiSigWallet.sol\":2766:3213  function confirmTransaction(uint256 _txIndex) ... */\n      pop\n      jump\t// out\n        /* \"Sol_by_Example/Applications/02.MultiSigWallet.sol\":2280:2760  function submitTransaction(address _to, uint256 _value, bytes memory _data)... */\n    tag_79:\n        /* \"Sol_by_Example/Applications/02.MultiSigWallet.sol\":1036:1043  isOwner */\n      0x01\n        /* \"Sol_by_Example/Applications/02.MultiSigWallet.sol\":1036:1055  isOwner[msg.sender] */\n      0x00\n        /* \"Sol_by_Example/Applications/02.MultiSigWallet.sol\":1044:1054  msg.sender */\n      caller\n        /* \"Sol_by_Example/Applications/02.MultiSigWallet.sol\":1036:1055  isOwner[msg.sender] */\n      0xffffffffffffffffffffffffffffffffffffffff\n      and\n      0xffffffffffffffffffffffffffffffffffffffff\n      and\n      dup2\n      mstore\n      0x20\n      add\n      swap1\n      dup2\n      mstore\n      0x20\n      add\n      0x00\n      keccak256\n      0x00\n      swap1\n      sload\n      swap1\n      0x0100\n      exp\n      swap1\n      div\n      0xff\n      and\n        /* \"Sol_by_Example/Applications/02.MultiSigWallet.sol\":1028:1069  require(isOwner[msg.sender], \"not owner\") */\n      tag_160\n      jumpi\n      mload(0x40)\n      0x08c379a000000000000000000000000000000000000000000000000000000000\n      dup2\n      mstore\n      0x04\n      add\n      tag_161\n      swap1\n      tag_93\n      jump\t// in\n    tag_161:\n      mload(0x40)\n      dup1\n      swap2\n      sub\n      swap1\n      revert\n    tag_160:\n        /* \"Sol_by_Example/Applications/02.MultiSigWallet.sol\":2408:2423  uint256 txIndex */\n      0x00\n        /* \"Sol_by_Example/Applications/02.MultiSigWallet.sol\":2426:2438  transactions */\n      0x04\n        /* \"Sol_by_Example/Applications/02.MultiSigWallet.sol\":2426:2445  transactions.length */\n      dup1\n      sload\n      swap1\n      pop\n        /* \"Sol_by_Example/Applications/02.MultiSigWallet.sol\":2408:2445  uint256 txIndex = transactions.length */\n      swap1\n      pop\n        /* \"Sol_by_Example/Applications/02.MultiSigWallet.sol\":2456:2468  transactions */\n      0x04\n        /* \"Sol_by_Example/Applications/02.MultiSigWallet.sol\":2487:2669  Transaction({... */\n      mload(0x40)\n      dup1\n      0xa0\n      add\n      0x40\n      mstore\n      dup1\n        /* \"Sol_by_Example/Applications/02.MultiSigWallet.sol\":2521:2524  _to */\n      dup7\n        /* \"Sol_by_Example/Applications/02.MultiSigWallet.sol\":2487:2669  Transaction({... */\n      0xffffffffffffffffffffffffffffffffffffffff\n      and\n      dup2\n      mstore\n      0x20\n      add\n        /* \"Sol_by_Example/Applications/02.MultiSigWallet.sol\":2549:2555  _value */\n      dup6\n        /* \"Sol_by_Example/Applications/02.MultiSigWallet.sol\":2487:2669  Transaction({... */\n      dup2\n      mstore\n      0x20\n      add\n        /* \"Sol_by_Example/Applications/02.MultiSigWallet.sol\":2579:2584  _data */\n      dup5\n        /* \"Sol_by_Example/Applications/02.MultiSigWallet.sol\":2487:2669  Transaction({... */\n      dup2\n      mstore\n      0x20\n      add\n        /* \"Sol_by_Example/Applications/02.MultiSigWallet.sol\":2612:2617  false */\n      0x00\n        /* \"Sol_by_Example/Applications/02.MultiSigWallet.sol\":2487:2669  Transaction({... */\n      iszero\n      iszero\n      dup2\n      mstore\n      0x20\n      add\n        /* \"Sol_by_Example/Applications/02.MultiSigWallet.sol\":2653:2654  0 */\n      0x00\n        /* \"Sol_by_Example/Applications/02.MultiSigWallet.sol\":2487:2669  Transaction({... */\n      dup2\n      mstore\n      pop\n        /* \"Sol_by_Example/Applications/02.MultiSigWallet.sol\":2456:2679  transactions.push(... */\n      swap1\n      dup1\n      0x01\n      dup2\n      sload\n      add\n      dup1\n      dup3\n      sstore\n      dup1\n      swap2\n      pop\n      pop\n      0x01\n      swap1\n      sub\n      swap1\n      0x00\n      mstore\n      keccak256(0x00, 0x20)\n      swap1\n      0x05\n      mul\n      add\n      0x00\n      swap1\n      swap2\n      swap1\n      swap2\n      swap1\n      swap2\n      pop\n      0x00\n      dup3\n      add\n      mload\n      dup2\n      0x00\n      add\n      exp(0x0100, 0x00)\n      dup2\n      sload\n      dup2\n      0xffffffffffffffffffffffffffffffffffffffff\n      mul\n      not\n      and\n      swap1\n      dup4\n      0xffffffffffffffffffffffffffffffffffffffff\n      and\n      mul\n      or\n      swap1\n      sstore\n      pop\n      0x20\n      dup3\n      add\n      mload\n      dup2\n      0x01\n      add\n      sstore\n      0x40\n      dup3\n      add\n      mload\n      dup2\n      0x02\n      add\n      swap1\n      dup2\n      tag_164\n      swap2\n      swap1\n      tag_165\n      jump\t// in\n    tag_164:\n      pop\n      0x60\n      dup3\n      add\n      mload\n      dup2\n      0x03\n      add\n      exp(0x0100, 0x00)\n      dup2\n      sload\n      dup2\n      0xff\n      mul\n      not\n      and\n      swap1\n      dup4\n      iszero\n      iszero\n      mul\n      or\n      swap1\n      sstore\n      pop\n      0x80\n      dup3\n      add\n      mload\n      dup2\n      0x04\n      add\n      sstore\n      pop\n      pop\n        /* \"Sol_by_Example/Applications/02.MultiSigWallet.sol\":2734:2737  _to */\n      dup4\n        /* \"Sol_by_Example/Applications/02.MultiSigWallet.sol\":2695:2753  SubmitTransaction(msg.sender, txIndex, _to, _value, _data) */\n      0xffffffffffffffffffffffffffffffffffffffff\n      and\n        /* \"Sol_by_Example/Applications/02.MultiSigWallet.sol\":2725:2732  txIndex */\n      dup2\n        /* \"Sol_by_Example/Applications/02.MultiSigWallet.sol\":2713:2723  msg.sender */\n      caller\n        /* \"Sol_by_Example/Applications/02.MultiSigWallet.sol\":2695:2753  SubmitTransaction(msg.sender, txIndex, _to, _value, _data) */\n      0xffffffffffffffffffffffffffffffffffffffff\n      and\n      0xd5a05bf70715ad82a09a756320284a1b54c9ff74cd0f8cce6219e79b563fe59d\n        /* \"Sol_by_Example/Applications/02.MultiSigWallet.sol\":2739:2745  _value */\n      dup7\n        /* \"Sol_by_Example/Applications/02.MultiSigWallet.sol\":2747:2752  _data */\n      dup7\n        /* \"Sol_by_Example/Applications/02.MultiSigWallet.sol\":2695:2753  SubmitTransaction(msg.sender, txIndex, _to, _value, _data) */\n      mload(0x40)\n      tag_166\n      swap3\n      swap2\n      swap1\n      tag_167\n      jump\t// in\n    tag_166:\n      mload(0x40)\n      dup1\n      swap2\n      sub\n      swap1\n      log4\n        /* \"Sol_by_Example/Applications/02.MultiSigWallet.sol\":2398:2760  {... */\n      pop\n        /* \"Sol_by_Example/Applications/02.MultiSigWallet.sol\":2280:2760  function submitTransaction(address _to, uint256 _value, bytes memory _data)... */\n      pop\n      pop\n      pop\n      jump\t// out\n        /* \"Sol_by_Example/Applications/02.MultiSigWallet.sol\":643:682  uint256 public numConfirmationsRequired */\n    tag_82:\n      sload(0x02)\n      dup2\n      jump\t// out\n        /* \"Sol_by_Example/Applications/02.MultiSigWallet.sol\":3219:3836  function executeTransaction(uint256 _txIndex) ... */\n    tag_87:\n        /* \"Sol_by_Example/Applications/02.MultiSigWallet.sol\":1036:1043  isOwner */\n      0x01\n        /* \"Sol_by_Example/Applications/02.MultiSigWallet.sol\":1036:1055  isOwner[msg.sender] */\n      0x00\n        /* \"Sol_by_Example/Applications/02.MultiSigWallet.sol\":1044:1054  msg.sender */\n      caller\n        /* \"Sol_by_Example/Applications/02.MultiSigWallet.sol\":1036:1055  isOwner[msg.sender] */\n      0xffffffffffffffffffffffffffffffffffffffff\n      and\n      0xffffffffffffffffffffffffffffffffffffffff\n      and\n      dup2\n      mstore\n      0x20\n      add\n      swap1\n      dup2\n      mstore\n      0x20\n      add\n      0x00\n      keccak256\n      0x00\n      swap1\n      sload\n      swap1\n      0x0100\n      exp\n      swap1\n      div\n      0xff\n      and\n        /* \"Sol_by_Example/Applications/02.MultiSigWallet.sol\":1028:1069  require(isOwner[msg.sender], \"not owner\") */\n      tag_169\n      jumpi\n      mload(0x40)\n      0x08c379a000000000000000000000000000000000000000000000000000000000\n      dup2\n      mstore\n      0x04\n      add\n      tag_170\n      swap1\n      tag_93\n      jump\t// in\n    tag_170:\n      mload(0x40)\n      dup1\n      swap2\n      sub\n      swap1\n      revert\n    tag_169:\n        /* \"Sol_by_Example/Applications/02.MultiSigWallet.sol\":3317:3325  _txIndex */\n      dup1\n        /* \"Sol_by_Example/Applications/02.MultiSigWallet.sol\":1158:1170  transactions */\n      0x04\n        /* \"Sol_by_Example/Applications/02.MultiSigWallet.sol\":1158:1177  transactions.length */\n      dup1\n      sload\n      swap1\n      pop\n        /* \"Sol_by_Example/Applications/02.MultiSigWallet.sol\":1147:1155  _txIndex */\n      dup2\n        /* \"Sol_by_Example/Applications/02.MultiSigWallet.sol\":1147:1177  _txIndex < transactions.length */\n      lt\n        /* \"Sol_by_Example/Applications/02.MultiSigWallet.sol\":1139:1200  require(_txIndex < transactions.length, \"txn does not exist\") */\n      tag_172\n      jumpi\n      mload(0x40)\n      0x08c379a000000000000000000000000000000000000000000000000000000000\n      dup2\n      mstore\n      0x04\n      add\n      tag_173\n      swap1\n      tag_97\n      jump\t// in\n    tag_173:\n      mload(0x40)\n      dup1\n      swap2\n      sub\n      swap1\n      revert\n    tag_172:\n        /* \"Sol_by_Example/Applications/02.MultiSigWallet.sol\":3347:3355  _txIndex */\n      dup2\n        /* \"Sol_by_Example/Applications/02.MultiSigWallet.sol\":1282:1294  transactions */\n      0x04\n        /* \"Sol_by_Example/Applications/02.MultiSigWallet.sol\":1295:1303  _txIndex */\n      dup2\n        /* \"Sol_by_Example/Applications/02.MultiSigWallet.sol\":1282:1304  transactions[_txIndex] */\n      dup2\n      sload\n      dup2\n      lt\n      tag_175\n      jumpi\n      tag_176\n      tag_101\n      jump\t// in\n    tag_176:\n    tag_175:\n      swap1\n      0x00\n      mstore\n      keccak256(0x00, 0x20)\n      swap1\n      0x05\n      mul\n      add\n        /* \"Sol_by_Example/Applications/02.MultiSigWallet.sol\":1282:1313  transactions[_txIndex].executed */\n      0x03\n      add\n      0x00\n      swap1\n      sload\n      swap1\n      0x0100\n      exp\n      swap1\n      div\n      0xff\n      and\n        /* \"Sol_by_Example/Applications/02.MultiSigWallet.sol\":1281:1313  !transactions[_txIndex].executed */\n      iszero\n        /* \"Sol_by_Example/Applications/02.MultiSigWallet.sol\":1273:1337  require(!transactions[_txIndex].executed, \"tx already executed\") */\n      tag_178\n      jumpi\n      mload(0x40)\n      0x08c379a000000000000000000000000000000000000000000000000000000000\n      dup2\n      mstore\n      0x04\n      add\n      tag_179\n      swap1\n      tag_105\n      jump\t// in\n    tag_179:\n      mload(0x40)\n      dup1\n      swap2\n      sub\n      swap1\n      revert\n    tag_178:\n        /* \"Sol_by_Example/Applications/02.MultiSigWallet.sol\":3371:3402  Transaction storage transaction */\n      0x00\n        /* \"Sol_by_Example/Applications/02.MultiSigWallet.sol\":3405:3417  transactions */\n      0x04\n        /* \"Sol_by_Example/Applications/02.MultiSigWallet.sol\":3418:3426  _txIndex */\n      dup5\n        /* \"Sol_by_Example/Applications/02.MultiSigWallet.sol\":3405:3427  transactions[_txIndex] */\n      dup2\n      sload\n      dup2\n      lt\n      tag_181\n      jumpi\n      tag_182\n      tag_101\n      jump\t// in\n    tag_182:\n    tag_181:\n      swap1\n      0x00\n      mstore\n      keccak256(0x00, 0x20)\n      swap1\n      0x05\n      mul\n      add\n        /* \"Sol_by_Example/Applications/02.MultiSigWallet.sol\":3371:3427  Transaction storage transaction = transactions[_txIndex] */\n      swap1\n      pop\n        /* \"Sol_by_Example/Applications/02.MultiSigWallet.sol\":3491:3515  numConfirmationsRequired */\n      sload(0x02)\n        /* \"Sol_by_Example/Applications/02.MultiSigWallet.sol\":3459:3470  transaction */\n      dup2\n        /* \"Sol_by_Example/Applications/02.MultiSigWallet.sol\":3459:3487  transaction.numConfirmations */\n      0x04\n      add\n      sload\n        /* \"Sol_by_Example/Applications/02.MultiSigWallet.sol\":3459:3515  transaction.numConfirmations >= numConfirmationsRequired */\n      lt\n      iszero\n        /* \"Sol_by_Example/Applications/02.MultiSigWallet.sol\":3438:3585  require(... */\n      tag_184\n      jumpi\n      mload(0x40)\n      0x08c379a000000000000000000000000000000000000000000000000000000000\n      dup2\n      mstore\n      0x04\n      add\n      tag_185\n      swap1\n      tag_186\n      jump\t// in\n    tag_185:\n      mload(0x40)\n      dup1\n      swap2\n      sub\n      swap1\n      revert\n    tag_184:\n        /* \"Sol_by_Example/Applications/02.MultiSigWallet.sol\":3619:3623  true */\n      0x01\n        /* \"Sol_by_Example/Applications/02.MultiSigWallet.sol\":3596:3607  transaction */\n      dup2\n        /* \"Sol_by_Example/Applications/02.MultiSigWallet.sol\":3596:3616  transaction.executed */\n      0x03\n      add\n      0x00\n        /* \"Sol_by_Example/Applications/02.MultiSigWallet.sol\":3596:3623  transaction.executed = true */\n      0x0100\n      exp\n      dup2\n      sload\n      dup2\n      0xff\n      mul\n      not\n      and\n      swap1\n      dup4\n      iszero\n      iszero\n      mul\n      or\n      swap1\n      sstore\n      pop\n        /* \"Sol_by_Example/Applications/02.MultiSigWallet.sol\":3635:3647  bool success */\n      0x00\n        /* \"Sol_by_Example/Applications/02.MultiSigWallet.sol\":3652:3663  transaction */\n      dup2\n        /* \"Sol_by_Example/Applications/02.MultiSigWallet.sol\":3652:3666  transaction.to */\n      0x00\n      add\n      0x00\n      swap1\n      sload\n      swap1\n      0x0100\n      exp\n      swap1\n      div\n      0xffffffffffffffffffffffffffffffffffffffff\n      and\n        /* \"Sol_by_Example/Applications/02.MultiSigWallet.sol\":3652:3671  transaction.to.call */\n      0xffffffffffffffffffffffffffffffffffffffff\n      and\n        /* \"Sol_by_Example/Applications/02.MultiSigWallet.sol\":3679:3690  transaction */\n      dup3\n        /* \"Sol_by_Example/Applications/02.MultiSigWallet.sol\":3679:3696  transaction.value */\n      0x01\n      add\n      sload\n        /* \"Sol_by_Example/Applications/02.MultiSigWallet.sol\":3698:3709  transaction */\n      dup4\n        /* \"Sol_by_Example/Applications/02.MultiSigWallet.sol\":3698:3714  transaction.data */\n      0x02\n      add\n        /* \"Sol_by_Example/Applications/02.MultiSigWallet.sol\":3652:3715  transaction.to.call{value: transaction.value}(transaction.data) */\n      mload(0x40)\n      tag_187\n      swap2\n      swap1\n      tag_188\n      jump\t// in\n    tag_187:\n      0x00\n      mload(0x40)\n      dup1\n      dup4\n      sub\n      dup2\n      dup6\n      dup8\n      gas\n      call\n      swap3\n      pop\n      pop\n      pop\n      returndatasize\n      dup1\n      0x00\n      dup2\n      eq\n      tag_191\n      jumpi\n      mload(0x40)\n      swap2\n      pop\n      and(add(returndatasize, 0x3f), not(0x1f))\n      dup3\n      add\n      0x40\n      mstore\n      returndatasize\n      dup3\n      mstore\n      returndatasize\n      0x00\n      0x20\n      dup5\n      add\n      returndatacopy\n      jump(tag_190)\n    tag_191:\n      0x60\n      swap2\n      pop\n    tag_190:\n      pop\n        /* \"Sol_by_Example/Applications/02.MultiSigWallet.sol\":3634:3715  (bool success,) = transaction.to.call{value: transaction.value}(transaction.data) */\n      pop\n      swap1\n      pop\n        /* \"Sol_by_Example/Applications/02.MultiSigWallet.sol\":3752:3759  success */\n      dup1\n        /* \"Sol_by_Example/Applications/02.MultiSigWallet.sol\":3744:3773  require(success,\"txn failed\") */\n      tag_192\n      jumpi\n      mload(0x40)\n      0x08c379a000000000000000000000000000000000000000000000000000000000\n      dup2\n      mstore\n      0x04\n      add\n      tag_193\n      swap1\n      tag_194\n      jump\t// in\n    tag_193:\n      mload(0x40)\n      dup1\n      swap2\n      sub\n      swap1\n      revert\n    tag_192:\n        /* \"Sol_by_Example/Applications/02.MultiSigWallet.sol\":3820:3828  _txIndex */\n      dup5\n        /* \"Sol_by_Example/Applications/02.MultiSigWallet.sol\":3808:3818  msg.sender */\n      caller\n        /* \"Sol_by_Example/Applications/02.MultiSigWallet.sol\":3789:3829  ExecuteTransaction(msg.sender, _txIndex) */\n      0xffffffffffffffffffffffffffffffffffffffff\n      and\n      0x5445f318f4f5fcfb66592e68e0cc5822aa15664039bd5f0ffde24c5a8142b1ac\n      mload(0x40)\n      mload(0x40)\n      dup1\n      swap2\n      sub\n      swap1\n      log3\n        /* \"Sol_by_Example/Applications/02.MultiSigWallet.sol\":3361:3836  {... */\n      pop\n      pop\n        /* \"Sol_by_Example/Applications/02.MultiSigWallet.sol\":1210:1211  _ */\n      pop\n        /* \"Sol_by_Example/Applications/02.MultiSigWallet.sol\":1079:1080  _ */\n      pop\n        /* \"Sol_by_Example/Applications/02.MultiSigWallet.sol\":3219:3836  function executeTransaction(uint256 _txIndex) ... */\n      pop\n      jump\t// out\n        /* \"#utility.yul\":7:84   */\n    tag_195:\n        /* \"#utility.yul\":44:51   */\n      0x00\n        /* \"#utility.yul\":73:78   */\n      dup2\n        /* \"#utility.yul\":62:78   */\n      swap1\n      pop\n        /* \"#utility.yul\":7:84   */\n      swap2\n      swap1\n      pop\n      jump\t// out\n        /* \"#utility.yul\":90:208   */\n    tag_196:\n        /* \"#utility.yul\":177:201   */\n      tag_267\n        /* \"#utility.yul\":195:200   */\n      dup2\n        /* \"#utility.yul\":177:201   */\n      tag_195\n      jump\t// in\n    tag_267:\n        /* \"#utility.yul\":172:175   */\n      dup3\n        /* \"#utility.yul\":165:202   */\n      mstore\n        /* \"#utility.yul\":90:208   */\n      pop\n      pop\n      jump\t// out\n        /* \"#utility.yul\":214:546   */\n    tag_21:\n        /* \"#utility.yul\":335:339   */\n      0x00\n        /* \"#utility.yul\":373:375   */\n      0x40\n        /* \"#utility.yul\":362:371   */\n      dup3\n        /* \"#utility.yul\":358:376   */\n      add\n        /* \"#utility.yul\":350:376   */\n      swap1\n      pop\n        /* \"#utility.yul\":386:457   */\n      tag_269\n        /* \"#utility.yul\":454:455   */\n      0x00\n        /* \"#utility.yul\":443:452   */\n      dup4\n        /* \"#utility.yul\":439:456   */\n      add\n        /* \"#utility.yul\":430:436   */\n      dup6\n        /* \"#utility.yul\":386:457   */\n      tag_196\n      jump\t// in\n    tag_269:\n        /* \"#utility.yul\":467:539   */\n      tag_270\n        /* \"#utility.yul\":535:537   */\n      0x20\n        /* \"#utility.yul\":524:533   */\n      dup4\n        /* \"#utility.yul\":520:538   */\n      add\n        /* \"#utility.yul\":511:517   */\n      dup5\n        /* \"#utility.yul\":467:539   */\n      tag_196\n      jump\t// in\n    tag_270:\n        /* \"#utility.yul\":214:546   */\n      swap4\n      swap3\n      pop\n      pop\n      pop\n      jump\t// out\n        /* \"#utility.yul\":552:627   */\n    tag_197:\n        /* \"#utility.yul\":585:591   */\n      0x00\n        /* \"#utility.yul\":618:620   */\n      0x40\n        /* \"#utility.yul\":612:621   */\n      mload\n        /* \"#utility.yul\":602:621   */\n      swap1\n      pop\n        /* \"#utility.yul\":552:627   */\n      swap1\n      jump\t// out\n        /* \"#utility.yul\":633:750   */\n    tag_198:\n        /* \"#utility.yul\":742:743   */\n      0x00\n        /* \"#utility.yul\":739:740   */\n      0x00\n        /* \"#utility.yul\":732:744   */\n      revert\n        /* \"#utility.yul\":756:873   */\n    tag_199:\n        /* \"#utility.yul\":865:866   */\n      0x00\n        /* \"#utility.yul\":862:863   */\n      0x00\n        /* \"#utility.yul\":855:867   */\n      revert\n        /* \"#utility.yul\":879:1001   */\n    tag_200:\n        /* \"#utility.yul\":952:976   */\n      tag_275\n        /* \"#utility.yul\":970:975   */\n      dup2\n        /* \"#utility.yul\":952:976   */\n      tag_195\n      jump\t// in\n    tag_275:\n        /* \"#utility.yul\":945:950   */\n      dup2\n        /* \"#utility.yul\":942:977   */\n      eq\n        /* \"#utility.yul\":932:995   */\n      tag_276\n      jumpi\n        /* \"#utility.yul\":991:992   */\n      0x00\n        /* \"#utility.yul\":988:989   */\n      0x00\n        /* \"#utility.yul\":981:993   */\n      revert\n        /* \"#utility.yul\":932:995   */\n    tag_276:\n        /* \"#utility.yul\":879:1001   */\n      pop\n      jump\t// out\n        /* \"#utility.yul\":1007:1146   */\n    tag_201:\n        /* \"#utility.yul\":1053:1058   */\n      0x00\n        /* \"#utility.yul\":1091:1097   */\n      dup2\n        /* \"#utility.yul\":1078:1098   */\n      calldataload\n        /* \"#utility.yul\":1069:1098   */\n      swap1\n      pop\n        /* \"#utility.yul\":1107:1140   */\n      tag_278\n        /* \"#utility.yul\":1134:1139   */\n      dup2\n        /* \"#utility.yul\":1107:1140   */\n      tag_200\n      jump\t// in\n    tag_278:\n        /* \"#utility.yul\":1007:1146   */\n      swap3\n      swap2\n      pop\n      pop\n      jump\t// out\n        /* \"#utility.yul\":1152:1481   */\n    tag_25:\n        /* \"#utility.yul\":1211:1217   */\n      0x00\n        /* \"#utility.yul\":1260:1262   */\n      0x20\n        /* \"#utility.yul\":1248:1257   */\n      dup3\n        /* \"#utility.yul\":1239:1246   */\n      dup5\n        /* \"#utility.yul\":1235:1258   */\n      sub\n        /* \"#utility.yul\":1231:1263   */\n      slt\n        /* \"#utility.yul\":1228:1347   */\n      iszero\n      tag_280\n      jumpi\n        /* \"#utility.yul\":1266:1345   */\n      tag_281\n      tag_198\n      jump\t// in\n    tag_281:\n        /* \"#utility.yul\":1228:1347   */\n    tag_280:\n        /* \"#utility.yul\":1386:1387   */\n      0x00\n        /* \"#utility.yul\":1411:1464   */\n      tag_282\n        /* \"#utility.yul\":1456:1463   */\n      dup5\n        /* \"#utility.yul\":1447:1453   */\n      dup3\n        /* \"#utility.yul\":1436:1445   */\n      dup6\n        /* \"#utility.yul\":1432:1454   */\n      add\n        /* \"#utility.yul\":1411:1464   */\n      tag_201\n      jump\t// in\n    tag_282:\n        /* \"#utility.yul\":1401:1464   */\n      swap2\n      pop\n        /* \"#utility.yul\":1357:1474   */\n      pop\n        /* \"#utility.yul\":1152:1481   */\n      swap3\n      swap2\n      pop\n      pop\n      jump\t// out\n        /* \"#utility.yul\":1487:1613   */\n    tag_202:\n        /* \"#utility.yul\":1524:1531   */\n      0x00\n        /* \"#utility.yul\":1564:1606   */\n      0xffffffffffffffffffffffffffffffffffffffff\n        /* \"#utility.yul\":1557:1562   */\n      dup3\n        /* \"#utility.yul\":1553:1607   */\n      and\n        /* \"#utility.yul\":1542:1607   */\n      swap1\n      pop\n        /* \"#utility.yul\":1487:1613   */\n      swap2\n      swap1\n      pop\n      jump\t// out\n        /* \"#utility.yul\":1619:1715   */\n    tag_203:\n        /* \"#utility.yul\":1656:1663   */\n      0x00\n        /* \"#utility.yul\":1685:1709   */\n      tag_285\n        /* \"#utility.yul\":1703:1708   */\n      dup3\n        /* \"#utility.yul\":1685:1709   */\n      tag_202\n      jump\t// in\n    tag_285:\n        /* \"#utility.yul\":1674:1709   */\n      swap1\n      pop\n        /* \"#utility.yul\":1619:1715   */\n      swap2\n      swap1\n      pop\n      jump\t// out\n        /* \"#utility.yul\":1721:1839   */\n    tag_204:\n        /* \"#utility.yul\":1808:1832   */\n      tag_287\n        /* \"#utility.yul\":1826:1831   */\n      dup2\n        /* \"#utility.yul\":1808:1832   */\n      tag_203\n      jump\t// in\n    tag_287:\n        /* \"#utility.yul\":1803:1806   */\n      dup3\n        /* \"#utility.yul\":1796:1833   */\n      mstore\n        /* \"#utility.yul\":1721:1839   */\n      pop\n      pop\n      jump\t// out\n        /* \"#utility.yul\":1845:2067   */\n    tag_28:\n        /* \"#utility.yul\":1938:1942   */\n      0x00\n        /* \"#utility.yul\":1976:1978   */\n      0x20\n        /* \"#utility.yul\":1965:1974   */\n      dup3\n        /* \"#utility.yul\":1961:1979   */\n      add\n        /* \"#utility.yul\":1953:1979   */\n      swap1\n      pop\n        /* \"#utility.yul\":1989:2060   */\n      tag_289\n        /* \"#utility.yul\":2057:2058   */\n      0x00\n        /* \"#utility.yul\":2046:2055   */\n      dup4\n        /* \"#utility.yul\":2042:2059   */\n      add\n        /* \"#utility.yul\":2033:2039   */\n      dup5\n        /* \"#utility.yul\":1989:2060   */\n      tag_204\n      jump\t// in\n    tag_289:\n        /* \"#utility.yul\":1845:2067   */\n      swap3\n      swap2\n      pop\n      pop\n      jump\t// out\n        /* \"#utility.yul\":2073:2295   */\n    tag_37:\n        /* \"#utility.yul\":2166:2170   */\n      0x00\n        /* \"#utility.yul\":2204:2206   */\n      0x20\n        /* \"#utility.yul\":2193:2202   */\n      dup3\n        /* \"#utility.yul\":2189:2207   */\n      add\n        /* \"#utility.yul\":2181:2207   */\n      swap1\n      pop\n        /* \"#utility.yul\":2217:2288   */\n      tag_291\n        /* \"#utility.yul\":2285:2286   */\n      0x00\n        /* \"#utility.yul\":2274:2283   */\n      dup4\n        /* \"#utility.yul\":2270:2287   */\n      add\n        /* \"#utility.yul\":2261:2267   */\n      dup5\n        /* \"#utility.yul\":2217:2288   */\n      tag_196\n      jump\t// in\n    tag_291:\n        /* \"#utility.yul\":2073:2295   */\n      swap3\n      swap2\n      pop\n      pop\n      jump\t// out\n        /* \"#utility.yul\":2301:2423   */\n    tag_205:\n        /* \"#utility.yul\":2374:2398   */\n      tag_293\n        /* \"#utility.yul\":2392:2397   */\n      dup2\n        /* \"#utility.yul\":2374:2398   */\n      tag_203\n      jump\t// in\n    tag_293:\n        /* \"#utility.yul\":2367:2372   */\n      dup2\n        /* \"#utility.yul\":2364:2399   */\n      eq\n        /* \"#utility.yul\":2354:2417   */\n      tag_294\n      jumpi\n        /* \"#utility.yul\":2413:2414   */\n      0x00\n        /* \"#utility.yul\":2410:2411   */\n      0x00\n        /* \"#utility.yul\":2403:2415   */\n      revert\n        /* \"#utility.yul\":2354:2417   */\n    tag_294:\n        /* \"#utility.yul\":2301:2423   */\n      pop\n      jump\t// out\n        /* \"#utility.yul\":2429:2568   */\n    tag_206:\n        /* \"#utility.yul\":2475:2480   */\n      0x00\n        /* \"#utility.yul\":2513:2519   */\n      dup2\n        /* \"#utility.yul\":2500:2520   */\n      calldataload\n        /* \"#utility.yul\":2491:2520   */\n      swap1\n      pop\n        /* \"#utility.yul\":2529:2562   */\n      tag_296\n        /* \"#utility.yul\":2556:2561   */\n      dup2\n        /* \"#utility.yul\":2529:2562   */\n      tag_205\n      jump\t// in\n    tag_296:\n        /* \"#utility.yul\":2429:2568   */\n      swap3\n      swap2\n      pop\n      pop\n      jump\t// out\n        /* \"#utility.yul\":2574:2903   */\n    tag_45:\n        /* \"#utility.yul\":2633:2639   */\n      0x00\n        /* \"#utility.yul\":2682:2684   */\n      0x20\n        /* \"#utility.yul\":2670:2679   */\n      dup3\n        /* \"#utility.yul\":2661:2668   */\n      dup5\n        /* \"#utility.yul\":2657:2680   */\n      sub\n        /* \"#utility.yul\":2653:2685   */\n      slt\n        /* \"#utility.yul\":2650:2769   */\n      iszero\n      tag_298\n      jumpi\n        /* \"#utility.yul\":2688:2767   */\n      tag_299\n      tag_198\n      jump\t// in\n    tag_299:\n        /* \"#utility.yul\":2650:2769   */\n    tag_298:\n        /* \"#utility.yul\":2808:2809   */\n      0x00\n        /* \"#utility.yul\":2833:2886   */\n      tag_300\n        /* \"#utility.yul\":2878:2885   */\n      dup5\n        /* \"#utility.yul\":2869:2875   */\n      dup3\n        /* \"#utility.yul\":2858:2867   */\n      dup6\n        /* \"#utility.yul\":2854:2876   */\n      add\n        /* \"#utility.yul\":2833:2886   */\n      tag_206\n      jump\t// in\n    tag_300:\n        /* \"#utility.yul\":2823:2886   */\n      swap2\n      pop\n        /* \"#utility.yul\":2779:2896   */\n      pop\n        /* \"#utility.yul\":2574:2903   */\n      swap3\n      swap2\n      pop\n      pop\n      jump\t// out\n        /* \"#utility.yul\":2909:2999   */\n    tag_207:\n        /* \"#utility.yul\":2943:2950   */\n      0x00\n        /* \"#utility.yul\":2986:2991   */\n      dup2\n        /* \"#utility.yul\":2979:2992   */\n      iszero\n        /* \"#utility.yul\":2972:2993   */\n      iszero\n        /* \"#utility.yul\":2961:2993   */\n      swap1\n      pop\n        /* \"#utility.yul\":2909:2999   */\n      swap2\n      swap1\n      pop\n      jump\t// out\n        /* \"#utility.yul\":3005:3114   */\n    tag_208:\n        /* \"#utility.yul\":3086:3107   */\n      tag_303\n        /* \"#utility.yul\":3101:3106   */\n      dup2\n        /* \"#utility.yul\":3086:3107   */\n      tag_207\n      jump\t// in\n    tag_303:\n        /* \"#utility.yul\":3081:3084   */\n      dup3\n        /* \"#utility.yul\":3074:3108   */\n      mstore\n        /* \"#utility.yul\":3005:3114   */\n      pop\n      pop\n      jump\t// out\n        /* \"#utility.yul\":3120:3330   */\n    tag_48:\n        /* \"#utility.yul\":3207:3211   */\n      0x00\n        /* \"#utility.yul\":3245:3247   */\n      0x20\n        /* \"#utility.yul\":3234:3243   */\n      dup3\n        /* \"#utility.yul\":3230:3248   */\n      add\n        /* \"#utility.yul\":3222:3248   */\n      swap1\n      pop\n        /* \"#utility.yul\":3258:3323   */\n      tag_305\n        /* \"#utility.yul\":3320:3321   */\n      0x00\n        /* \"#utility.yul\":3309:3318   */\n      dup4\n        /* \"#utility.yul\":3305:3322   */\n      add\n        /* \"#utility.yul\":3296:3302   */\n      dup5\n        /* \"#utility.yul\":3258:3323   */\n      tag_208\n      jump\t// in\n    tag_305:\n        /* \"#utility.yul\":3120:3330   */\n      swap3\n      swap2\n      pop\n      pop\n      jump\t// out\n        /* \"#utility.yul\":3336:3434   */\n    tag_209:\n        /* \"#utility.yul\":3387:3393   */\n      0x00\n        /* \"#utility.yul\":3421:3426   */\n      dup2\n        /* \"#utility.yul\":3415:3427   */\n      mload\n        /* \"#utility.yul\":3405:3427   */\n      swap1\n      pop\n        /* \"#utility.yul\":3336:3434   */\n      swap2\n      swap1\n      pop\n      jump\t// out\n        /* \"#utility.yul\":3440:3608   */\n    tag_210:\n        /* \"#utility.yul\":3523:3534   */\n      0x00\n        /* \"#utility.yul\":3557:3563   */\n      dup3\n        /* \"#utility.yul\":3552:3555   */\n      dup3\n        /* \"#utility.yul\":3545:3564   */\n      mstore\n        /* \"#utility.yul\":3597:3601   */\n      0x20\n        /* \"#utility.yul\":3592:3595   */\n      dup3\n        /* \"#utility.yul\":3588:3602   */\n      add\n        /* \"#utility.yul\":3573:3602   */\n      swap1\n      pop\n        /* \"#utility.yul\":3440:3608   */\n      swap3\n      swap2\n      pop\n      pop\n      jump\t// out\n        /* \"#utility.yul\":3614:3753   */\n    tag_211:\n        /* \"#utility.yul\":3703:3709   */\n      dup3\n        /* \"#utility.yul\":3698:3701   */\n      dup2\n        /* \"#utility.yul\":3693:3696   */\n      dup4\n        /* \"#utility.yul\":3687:3710   */\n      mcopy\n        /* \"#utility.yul\":3744:3745   */\n      0x00\n        /* \"#utility.yul\":3735:3741   */\n      dup4\n        /* \"#utility.yul\":3730:3733   */\n      dup4\n        /* \"#utility.yul\":3726:3742   */\n      add\n        /* \"#utility.yul\":3719:3746   */\n      mstore\n        /* \"#utility.yul\":3614:3753   */\n      pop\n      pop\n      pop\n      jump\t// out\n        /* \"#utility.yul\":3759:3861   */\n    tag_212:\n        /* \"#utility.yul\":3800:3806   */\n      0x00\n        /* \"#utility.yul\":3851:3853   */\n      0x1f\n        /* \"#utility.yul\":3847:3854   */\n      not\n        /* \"#utility.yul\":3842:3844   */\n      0x1f\n        /* \"#utility.yul\":3835:3840   */\n      dup4\n        /* \"#utility.yul\":3831:3845   */\n      add\n        /* \"#utility.yul\":3827:3855   */\n      and\n        /* \"#utility.yul\":3817:3855   */\n      swap1\n      pop\n        /* \"#utility.yul\":3759:3861   */\n      swap2\n      swap1\n      pop\n      jump\t// out\n        /* \"#utility.yul\":3867:4240   */\n    tag_213:\n        /* \"#utility.yul\":3953:3956   */\n      0x00\n        /* \"#utility.yul\":3981:4019   */\n      tag_311\n        /* \"#utility.yul\":4013:4018   */\n      dup3\n        /* \"#utility.yul\":3981:4019   */\n      tag_209\n      jump\t// in\n    tag_311:\n        /* \"#utility.yul\":4035:4105   */\n      tag_312\n        /* \"#utility.yul\":4098:4104   */\n      dup2\n        /* \"#utility.yul\":4093:4096   */\n      dup6\n        /* \"#utility.yul\":4035:4105   */\n      tag_210\n      jump\t// in\n    tag_312:\n        /* \"#utility.yul\":4028:4105   */\n      swap4\n      pop\n        /* \"#utility.yul\":4114:4179   */\n      tag_313\n        /* \"#utility.yul\":4172:4178   */\n      dup2\n        /* \"#utility.yul\":4167:4170   */\n      dup6\n        /* \"#utility.yul\":4160:4164   */\n      0x20\n        /* \"#utility.yul\":4153:4158   */\n      dup7\n        /* \"#utility.yul\":4149:4165   */\n      add\n        /* \"#utility.yul\":4114:4179   */\n      tag_211\n      jump\t// in\n    tag_313:\n        /* \"#utility.yul\":4204:4233   */\n      tag_314\n        /* \"#utility.yul\":4226:4232   */\n      dup2\n        /* \"#utility.yul\":4204:4233   */\n      tag_212\n      jump\t// in\n    tag_314:\n        /* \"#utility.yul\":4199:4202   */\n      dup5\n        /* \"#utility.yul\":4195:4234   */\n      add\n        /* \"#utility.yul\":4188:4234   */\n      swap2\n      pop\n        /* \"#utility.yul\":3957:4240   */\n      pop\n        /* \"#utility.yul\":3867:4240   */\n      swap3\n      swap2\n      pop\n      pop\n      jump\t// out\n        /* \"#utility.yul\":4246:4985   */\n    tag_54:\n        /* \"#utility.yul\":4463:4467   */\n      0x00\n        /* \"#utility.yul\":4501:4504   */\n      0xa0\n        /* \"#utility.yul\":4490:4499   */\n      dup3\n        /* \"#utility.yul\":4486:4505   */\n      add\n        /* \"#utility.yul\":4478:4505   */\n      swap1\n      pop\n        /* \"#utility.yul\":4515:4586   */\n      tag_316\n        /* \"#utility.yul\":4583:4584   */\n      0x00\n        /* \"#utility.yul\":4572:4581   */\n      dup4\n        /* \"#utility.yul\":4568:4585   */\n      add\n        /* \"#utility.yul\":4559:4565   */\n      dup9\n        /* \"#utility.yul\":4515:4586   */\n      tag_204\n      jump\t// in\n    tag_316:\n        /* \"#utility.yul\":4596:4668   */\n      tag_317\n        /* \"#utility.yul\":4664:4666   */\n      0x20\n        /* \"#utility.yul\":4653:4662   */\n      dup4\n        /* \"#utility.yul\":4649:4667   */\n      add\n        /* \"#utility.yul\":4640:4646   */\n      dup8\n        /* \"#utility.yul\":4596:4668   */\n      tag_196\n      jump\t// in\n    tag_317:\n        /* \"#utility.yul\":4715:4724   */\n      dup2\n        /* \"#utility.yul\":4709:4713   */\n      dup2\n        /* \"#utility.yul\":4705:4725   */\n      sub\n        /* \"#utility.yul\":4700:4702   */\n      0x40\n        /* \"#utility.yul\":4689:4698   */\n      dup4\n        /* \"#utility.yul\":4685:4703   */\n      add\n        /* \"#utility.yul\":4678:4726   */\n      mstore\n        /* \"#utility.yul\":4743:4819   */\n      tag_318\n        /* \"#utility.yul\":4814:4818   */\n      dup2\n        /* \"#utility.yul\":4805:4811   */\n      dup7\n        /* \"#utility.yul\":4743:4819   */\n      tag_213\n      jump\t// in\n    tag_318:\n        /* \"#utility.yul\":4735:4819   */\n      swap1\n      pop\n        /* \"#utility.yul\":4829:4895   */\n      tag_319\n        /* \"#utility.yul\":4891:4893   */\n      0x60\n        /* \"#utility.yul\":4880:4889   */\n      dup4\n        /* \"#utility.yul\":4876:4894   */\n      add\n        /* \"#utility.yul\":4867:4873   */\n      dup6\n        /* \"#utility.yul\":4829:4895   */\n      tag_208\n      jump\t// in\n    tag_319:\n        /* \"#utility.yul\":4905:4978   */\n      tag_320\n        /* \"#utility.yul\":4973:4976   */\n      0x80\n        /* \"#utility.yul\":4962:4971   */\n      dup4\n        /* \"#utility.yul\":4958:4977   */\n      add\n        /* \"#utility.yul\":4949:4955   */\n      dup5\n        /* \"#utility.yul\":4905:4978   */\n      tag_196\n      jump\t// in\n    tag_320:\n        /* \"#utility.yul\":4246:4985   */\n      swap7\n      swap6\n      pop\n      pop\n      pop\n      pop\n      pop\n      pop\n      jump\t// out\n        /* \"#utility.yul\":4991:5465   */\n    tag_58:\n        /* \"#utility.yul\":5059:5065   */\n      0x00\n        /* \"#utility.yul\":5067:5073   */\n      0x00\n        /* \"#utility.yul\":5116:5118   */\n      0x40\n        /* \"#utility.yul\":5104:5113   */\n      dup4\n        /* \"#utility.yul\":5095:5102   */\n      dup6\n        /* \"#utility.yul\":5091:5114   */\n      sub\n        /* \"#utility.yul\":5087:5119   */\n      slt\n        /* \"#utility.yul\":5084:5203   */\n      iszero\n      tag_322\n      jumpi\n        /* \"#utility.yul\":5122:5201   */\n      tag_323\n      tag_198\n      jump\t// in\n    tag_323:\n        /* \"#utility.yul\":5084:5203   */\n    tag_322:\n        /* \"#utility.yul\":5242:5243   */\n      0x00\n        /* \"#utility.yul\":5267:5320   */\n      tag_324\n        /* \"#utility.yul\":5312:5319   */\n      dup6\n        /* \"#utility.yul\":5303:5309   */\n      dup3\n        /* \"#utility.yul\":5292:5301   */\n      dup7\n        /* \"#utility.yul\":5288:5310   */\n      add\n        /* \"#utility.yul\":5267:5320   */\n      tag_201\n      jump\t// in\n    tag_324:\n        /* \"#utility.yul\":5257:5320   */\n      swap3\n      pop\n        /* \"#utility.yul\":5213:5330   */\n      pop\n        /* \"#utility.yul\":5369:5371   */\n      0x20\n        /* \"#utility.yul\":5395:5448   */\n      tag_325\n        /* \"#utility.yul\":5440:5447   */\n      dup6\n        /* \"#utility.yul\":5431:5437   */\n      dup3\n        /* \"#utility.yul\":5420:5429   */\n      dup7\n        /* \"#utility.yul\":5416:5438   */\n      add\n        /* \"#utility.yul\":5395:5448   */\n      tag_206\n      jump\t// in\n    tag_325:\n        /* \"#utility.yul\":5385:5448   */\n      swap2\n      pop\n        /* \"#utility.yul\":5340:5458   */\n      pop\n        /* \"#utility.yul\":4991:5465   */\n      swap3\n      pop\n      swap3\n      swap1\n      pop\n      jump\t// out\n        /* \"#utility.yul\":5471:5585   */\n    tag_214:\n        /* \"#utility.yul\":5538:5544   */\n      0x00\n        /* \"#utility.yul\":5572:5577   */\n      dup2\n        /* \"#utility.yul\":5566:5578   */\n      mload\n        /* \"#utility.yul\":5556:5578   */\n      swap1\n      pop\n        /* \"#utility.yul\":5471:5585   */\n      swap2\n      swap1\n      pop\n      jump\t// out\n        /* \"#utility.yul\":5591:5775   */\n    tag_215:\n        /* \"#utility.yul\":5690:5701   */\n      0x00\n        /* \"#utility.yul\":5724:5730   */\n      dup3\n        /* \"#utility.yul\":5719:5722   */\n      dup3\n        /* \"#utility.yul\":5712:5731   */\n      mstore\n        /* \"#utility.yul\":5764:5768   */\n      0x20\n        /* \"#utility.yul\":5759:5762   */\n      dup3\n        /* \"#utility.yul\":5755:5769   */\n      add\n        /* \"#utility.yul\":5740:5769   */\n      swap1\n      pop\n        /* \"#utility.yul\":5591:5775   */\n      swap3\n      swap2\n      pop\n      pop\n      jump\t// out\n        /* \"#utility.yul\":5781:5913   */\n    tag_216:\n        /* \"#utility.yul\":5848:5852   */\n      0x00\n        /* \"#utility.yul\":5871:5874   */\n      dup2\n        /* \"#utility.yul\":5863:5874   */\n      swap1\n      pop\n        /* \"#utility.yul\":5901:5905   */\n      0x20\n        /* \"#utility.yul\":5896:5899   */\n      dup3\n        /* \"#utility.yul\":5892:5906   */\n      add\n        /* \"#utility.yul\":5884:5906   */\n      swap1\n      pop\n        /* \"#utility.yul\":5781:5913   */\n      swap2\n      swap1\n      pop\n      jump\t// out\n        /* \"#utility.yul\":5919:6027   */\n    tag_217:\n        /* \"#utility.yul\":5996:6020   */\n      tag_330\n        /* \"#utility.yul\":6014:6019   */\n      dup2\n        /* \"#utility.yul\":5996:6020   */\n      tag_203\n      jump\t// in\n    tag_330:\n        /* \"#utility.yul\":5991:5994   */\n      dup3\n        /* \"#utility.yul\":5984:6021   */\n      mstore\n        /* \"#utility.yul\":5919:6027   */\n      pop\n      pop\n      jump\t// out\n        /* \"#utility.yul\":6033:6212   */\n    tag_218:\n        /* \"#utility.yul\":6102:6112   */\n      0x00\n        /* \"#utility.yul\":6123:6169   */\n      tag_332\n        /* \"#utility.yul\":6165:6168   */\n      dup4\n        /* \"#utility.yul\":6157:6163   */\n      dup4\n        /* \"#utility.yul\":6123:6169   */\n      tag_217\n      jump\t// in\n    tag_332:\n        /* \"#utility.yul\":6201:6205   */\n      0x20\n        /* \"#utility.yul\":6196:6199   */\n      dup4\n        /* \"#utility.yul\":6192:6206   */\n      add\n        /* \"#utility.yul\":6178:6206   */\n      swap1\n      pop\n        /* \"#utility.yul\":6033:6212   */\n      swap3\n      swap2\n      pop\n      pop\n      jump\t// out\n        /* \"#utility.yul\":6218:6331   */\n    tag_219:\n        /* \"#utility.yul\":6288:6292   */\n      0x00\n        /* \"#utility.yul\":6320:6324   */\n      0x20\n        /* \"#utility.yul\":6315:6318   */\n      dup3\n        /* \"#utility.yul\":6311:6325   */\n      add\n        /* \"#utility.yul\":6303:6325   */\n      swap1\n      pop\n        /* \"#utility.yul\":6218:6331   */\n      swap2\n      swap1\n      pop\n      jump\t// out\n        /* \"#utility.yul\":6367:7099   */\n    tag_220:\n        /* \"#utility.yul\":6486:6489   */\n      0x00\n        /* \"#utility.yul\":6515:6569   */\n      tag_335\n        /* \"#utility.yul\":6563:6568   */\n      dup3\n        /* \"#utility.yul\":6515:6569   */\n      tag_214\n      jump\t// in\n    tag_335:\n        /* \"#utility.yul\":6585:6671   */\n      tag_336\n        /* \"#utility.yul\":6664:6670   */\n      dup2\n        /* \"#utility.yul\":6659:6662   */\n      dup6\n        /* \"#utility.yul\":6585:6671   */\n      tag_215\n      jump\t// in\n    tag_336:\n        /* \"#utility.yul\":6578:6671   */\n      swap4\n      pop\n        /* \"#utility.yul\":6695:6751   */\n      tag_337\n        /* \"#utility.yul\":6745:6750   */\n      dup4\n        /* \"#utility.yul\":6695:6751   */\n      tag_216\n      jump\t// in\n    tag_337:\n        /* \"#utility.yul\":6774:6781   */\n      dup1\n        /* \"#utility.yul\":6805:6806   */\n      0x00\n        /* \"#utility.yul\":6790:7074   */\n    tag_338:\n        /* \"#utility.yul\":6815:6821   */\n      dup4\n        /* \"#utility.yul\":6812:6813   */\n      dup2\n        /* \"#utility.yul\":6809:6822   */\n      lt\n        /* \"#utility.yul\":6790:7074   */\n      iszero\n      tag_340\n      jumpi\n        /* \"#utility.yul\":6891:6897   */\n      dup2\n        /* \"#utility.yul\":6885:6898   */\n      mload\n        /* \"#utility.yul\":6918:6981   */\n      tag_341\n        /* \"#utility.yul\":6977:6980   */\n      dup9\n        /* \"#utility.yul\":6962:6975   */\n      dup3\n        /* \"#utility.yul\":6918:6981   */\n      tag_218\n      jump\t// in\n    tag_341:\n        /* \"#utility.yul\":6911:6981   */\n      swap8\n      pop\n        /* \"#utility.yul\":7004:7064   */\n      tag_342\n        /* \"#utility.yul\":7057:7063   */\n      dup4\n        /* \"#utility.yul\":7004:7064   */\n      tag_219\n      jump\t// in\n    tag_342:\n        /* \"#utility.yul\":6994:7064   */\n      swap3\n      pop\n        /* \"#utility.yul\":6850:7074   */\n      pop\n        /* \"#utility.yul\":6837:6838   */\n      0x01\n        /* \"#utility.yul\":6834:6835   */\n      dup2\n        /* \"#utility.yul\":6830:6839   */\n      add\n        /* \"#utility.yul\":6825:6839   */\n      swap1\n      pop\n        /* \"#utility.yul\":6790:7074   */\n      jump(tag_338)\n    tag_340:\n        /* \"#utility.yul\":6794:6808   */\n      pop\n        /* \"#utility.yul\":7090:7093   */\n      dup6\n        /* \"#utility.yul\":7083:7093   */\n      swap4\n      pop\n        /* \"#utility.yul\":6491:7099   */\n      pop\n      pop\n      pop\n        /* \"#utility.yul\":6367:7099   */\n      swap3\n      swap2\n      pop\n      pop\n      jump\t// out\n        /* \"#utility.yul\":7105:7478   */\n    tag_70:\n        /* \"#utility.yul\":7248:7252   */\n      0x00\n        /* \"#utility.yul\":7286:7288   */\n      0x20\n        /* \"#utility.yul\":7275:7284   */\n      dup3\n        /* \"#utility.yul\":7271:7289   */\n      add\n        /* \"#utility.yul\":7263:7289   */\n      swap1\n      pop\n        /* \"#utility.yul\":7335:7344   */\n      dup2\n        /* \"#utility.yul\":7329:7333   */\n      dup2\n        /* \"#utility.yul\":7325:7345   */\n      sub\n        /* \"#utility.yul\":7321:7322   */\n      0x00\n        /* \"#utility.yul\":7310:7319   */\n      dup4\n        /* \"#utility.yul\":7306:7323   */\n      add\n        /* \"#utility.yul\":7299:7346   */\n      mstore\n        /* \"#utility.yul\":7363:7471   */\n      tag_344\n        /* \"#utility.yul\":7466:7470   */\n      dup2\n        /* \"#utility.yul\":7457:7463   */\n      dup5\n        /* \"#utility.yul\":7363:7471   */\n      tag_220\n      jump\t// in\n    tag_344:\n        /* \"#utility.yul\":7355:7471   */\n      swap1\n      pop\n        /* \"#utility.yul\":7105:7478   */\n      swap3\n      swap2\n      pop\n      pop\n      jump\t// out\n        /* \"#utility.yul\":7484:7601   */\n    tag_221:\n        /* \"#utility.yul\":7593:7594   */\n      0x00\n        /* \"#utility.yul\":7590:7591   */\n      0x00\n        /* \"#utility.yul\":7583:7595   */\n      revert\n        /* \"#utility.yul\":7607:7724   */\n    tag_222:\n        /* \"#utility.yul\":7716:7717   */\n      0x00\n        /* \"#utility.yul\":7713:7714   */\n      0x00\n        /* \"#utility.yul\":7706:7718   */\n      revert\n        /* \"#utility.yul\":7730:7910   */\n    tag_223:\n        /* \"#utility.yul\":7778:7855   */\n      0x4e487b7100000000000000000000000000000000000000000000000000000000\n        /* \"#utility.yul\":7775:7776   */\n      0x00\n        /* \"#utility.yul\":7768:7856   */\n      mstore\n        /* \"#utility.yul\":7875:7879   */\n      0x41\n        /* \"#utility.yul\":7872:7873   */\n      0x04\n        /* \"#utility.yul\":7865:7880   */\n      mstore\n        /* \"#utility.yul\":7899:7903   */\n      0x24\n        /* \"#utility.yul\":7896:7897   */\n      0x00\n        /* \"#utility.yul\":7889:7904   */\n      revert\n        /* \"#utility.yul\":7916:8197   */\n    tag_224:\n        /* \"#utility.yul\":7999:8026   */\n      tag_349\n        /* \"#utility.yul\":8021:8025   */\n      dup3\n        /* \"#utility.yul\":7999:8026   */\n      tag_212\n      jump\t// in\n    tag_349:\n        /* \"#utility.yul\":7991:7997   */\n      dup2\n        /* \"#utility.yul\":7987:8027   */\n      add\n        /* \"#utility.yul\":8129:8135   */\n      dup2\n        /* \"#utility.yul\":8117:8127   */\n      dup2\n        /* \"#utility.yul\":8114:8136   */\n      lt\n        /* \"#utility.yul\":8093:8111   */\n      0xffffffffffffffff\n        /* \"#utility.yul\":8081:8091   */\n      dup3\n        /* \"#utility.yul\":8078:8112   */\n      gt\n        /* \"#utility.yul\":8075:8137   */\n      or\n        /* \"#utility.yul\":8072:8160   */\n      iszero\n      tag_350\n      jumpi\n        /* \"#utility.yul\":8140:8158   */\n      tag_351\n      tag_223\n      jump\t// in\n    tag_351:\n        /* \"#utility.yul\":8072:8160   */\n    tag_350:\n        /* \"#utility.yul\":8180:8190   */\n      dup1\n        /* \"#utility.yul\":8176:8178   */\n      0x40\n        /* \"#utility.yul\":8169:8191   */\n      mstore\n        /* \"#utility.yul\":7959:8197   */\n      pop\n        /* \"#utility.yul\":7916:8197   */\n      pop\n      pop\n      jump\t// out\n        /* \"#utility.yul\":8203:8332   */\n    tag_225:\n        /* \"#utility.yul\":8237:8243   */\n      0x00\n        /* \"#utility.yul\":8264:8284   */\n      tag_353\n      tag_197\n      jump\t// in\n    tag_353:\n        /* \"#utility.yul\":8254:8284   */\n      swap1\n      pop\n        /* \"#utility.yul\":8293:8326   */\n      tag_354\n        /* \"#utility.yul\":8321:8325   */\n      dup3\n        /* \"#utility.yul\":8313:8319   */\n      dup3\n        /* \"#utility.yul\":8293:8326   */\n      tag_224\n      jump\t// in\n    tag_354:\n        /* \"#utility.yul\":8203:8332   */\n      swap2\n      swap1\n      pop\n      jump\t// out\n        /* \"#utility.yul\":8338:8645   */\n    tag_226:\n        /* \"#utility.yul\":8399:8403   */\n      0x00\n        /* \"#utility.yul\":8489:8507   */\n      0xffffffffffffffff\n        /* \"#utility.yul\":8481:8487   */\n      dup3\n        /* \"#utility.yul\":8478:8508   */\n      gt\n        /* \"#utility.yul\":8475:8531   */\n      iszero\n      tag_356\n      jumpi\n        /* \"#utility.yul\":8511:8529   */\n      tag_357\n      tag_223\n      jump\t// in\n    tag_357:\n        /* \"#utility.yul\":8475:8531   */\n    tag_356:\n        /* \"#utility.yul\":8549:8578   */\n      tag_358\n        /* \"#utility.yul\":8571:8577   */\n      dup3\n        /* \"#utility.yul\":8549:8578   */\n      tag_212\n      jump\t// in\n    tag_358:\n        /* \"#utility.yul\":8541:8578   */\n      swap1\n      pop\n        /* \"#utility.yul\":8633:8637   */\n      0x20\n        /* \"#utility.yul\":8627:8631   */\n      dup2\n        /* \"#utility.yul\":8623:8638   */\n      add\n        /* \"#utility.yul\":8615:8638   */\n      swap1\n      pop\n        /* \"#utility.yul\":8338:8645   */\n      swap2\n      swap1\n      pop\n      jump\t// out\n        /* \"#utility.yul\":8651:8799   */\n    tag_227:\n        /* \"#utility.yul\":8749:8755   */\n      dup3\n        /* \"#utility.yul\":8744:8747   */\n      dup2\n        /* \"#utility.yul\":8739:8742   */\n      dup4\n        /* \"#utility.yul\":8726:8756   */\n      calldatacopy\n        /* \"#utility.yul\":8790:8791   */\n      0x00\n        /* \"#utility.yul\":8781:8787   */\n      dup4\n        /* \"#utility.yul\":8776:8779   */\n      dup4\n        /* \"#utility.yul\":8772:8788   */\n      add\n        /* \"#utility.yul\":8765:8792   */\n      mstore\n        /* \"#utility.yul\":8651:8799   */\n      pop\n      pop\n      pop\n      jump\t// out\n        /* \"#utility.yul\":8805:9228   */\n    tag_228:\n        /* \"#utility.yul\":8882:8887   */\n      0x00\n        /* \"#utility.yul\":8907:8972   */\n      tag_361\n        /* \"#utility.yul\":8923:8971   */\n      tag_362\n        /* \"#utility.yul\":8964:8970   */\n      dup5\n        /* \"#utility.yul\":8923:8971   */\n      tag_226\n      jump\t// in\n    tag_362:\n        /* \"#utility.yul\":8907:8972   */\n      tag_225\n      jump\t// in\n    tag_361:\n        /* \"#utility.yul\":8898:8972   */\n      swap1\n      pop\n        /* \"#utility.yul\":8995:9001   */\n      dup3\n        /* \"#utility.yul\":8988:8993   */\n      dup2\n        /* \"#utility.yul\":8981:9002   */\n      mstore\n        /* \"#utility.yul\":9033:9037   */\n      0x20\n        /* \"#utility.yul\":9026:9031   */\n      dup2\n        /* \"#utility.yul\":9022:9038   */\n      add\n        /* \"#utility.yul\":9071:9074   */\n      dup5\n        /* \"#utility.yul\":9062:9068   */\n      dup5\n        /* \"#utility.yul\":9057:9060   */\n      dup5\n        /* \"#utility.yul\":9053:9069   */\n      add\n        /* \"#utility.yul\":9050:9075   */\n      gt\n        /* \"#utility.yul\":9047:9159   */\n      iszero\n      tag_363\n      jumpi\n        /* \"#utility.yul\":9078:9157   */\n      tag_364\n      tag_222\n      jump\t// in\n    tag_364:\n        /* \"#utility.yul\":9047:9159   */\n    tag_363:\n        /* \"#utility.yul\":9168:9222   */\n      tag_365\n        /* \"#utility.yul\":9215:9221   */\n      dup5\n        /* \"#utility.yul\":9210:9213   */\n      dup3\n        /* \"#utility.yul\":9205:9208   */\n      dup6\n        /* \"#utility.yul\":9168:9222   */\n      tag_227\n      jump\t// in\n    tag_365:\n        /* \"#utility.yul\":8888:9228   */\n      pop\n        /* \"#utility.yul\":8805:9228   */\n      swap4\n      swap3\n      pop\n      pop\n      pop\n      jump\t// out\n        /* \"#utility.yul\":9247:9585   */\n    tag_229:\n        /* \"#utility.yul\":9302:9307   */\n      0x00\n        /* \"#utility.yul\":9351:9354   */\n      dup3\n        /* \"#utility.yul\":9344:9348   */\n      0x1f\n        /* \"#utility.yul\":9336:9342   */\n      dup4\n        /* \"#utility.yul\":9332:9349   */\n      add\n        /* \"#utility.yul\":9328:9355   */\n      slt\n        /* \"#utility.yul\":9318:9440   */\n      tag_367\n      jumpi\n        /* \"#utility.yul\":9359:9438   */\n      tag_368\n      tag_221\n      jump\t// in\n    tag_368:\n        /* \"#utility.yul\":9318:9440   */\n    tag_367:\n        /* \"#utility.yul\":9476:9482   */\n      dup2\n        /* \"#utility.yul\":9463:9483   */\n      calldataload\n        /* \"#utility.yul\":9501:9579   */\n      tag_369\n        /* \"#utility.yul\":9575:9578   */\n      dup5\n        /* \"#utility.yul\":9567:9573   */\n      dup3\n        /* \"#utility.yul\":9560:9564   */\n      0x20\n        /* \"#utility.yul\":9552:9558   */\n      dup7\n        /* \"#utility.yul\":9548:9565   */\n      add\n        /* \"#utility.yul\":9501:9579   */\n      tag_228\n      jump\t// in\n    tag_369:\n        /* \"#utility.yul\":9492:9579   */\n      swap2\n      pop\n        /* \"#utility.yul\":9308:9585   */\n      pop\n        /* \"#utility.yul\":9247:9585   */\n      swap3\n      swap2\n      pop\n      pop\n      jump\t// out\n        /* \"#utility.yul\":9591:10388   */\n    tag_78:\n        /* \"#utility.yul\":9677:9683   */\n      0x00\n        /* \"#utility.yul\":9685:9691   */\n      0x00\n        /* \"#utility.yul\":9693:9699   */\n      0x00\n        /* \"#utility.yul\":9742:9744   */\n      0x60\n        /* \"#utility.yul\":9730:9739   */\n      dup5\n        /* \"#utility.yul\":9721:9728   */\n      dup7\n        /* \"#utility.yul\":9717:9740   */\n      sub\n        /* \"#utility.yul\":9713:9745   */\n      slt\n        /* \"#utility.yul\":9710:9829   */\n      iszero\n      tag_371\n      jumpi\n        /* \"#utility.yul\":9748:9827   */\n      tag_372\n      tag_198\n      jump\t// in\n    tag_372:\n        /* \"#utility.yul\":9710:9829   */\n    tag_371:\n        /* \"#utility.yul\":9868:9869   */\n      0x00\n        /* \"#utility.yul\":9893:9946   */\n      tag_373\n        /* \"#utility.yul\":9938:9945   */\n      dup7\n        /* \"#utility.yul\":9929:9935   */\n      dup3\n        /* \"#utility.yul\":9918:9927   */\n      dup8\n        /* \"#utility.yul\":9914:9936   */\n      add\n        /* \"#utility.yul\":9893:9946   */\n      tag_206\n      jump\t// in\n    tag_373:\n        /* \"#utility.yul\":9883:9946   */\n      swap4\n      pop\n        /* \"#utility.yul\":9839:9956   */\n      pop\n        /* \"#utility.yul\":9995:9997   */\n      0x20\n        /* \"#utility.yul\":10021:10074   */\n      tag_374\n        /* \"#utility.yul\":10066:10073   */\n      dup7\n        /* \"#utility.yul\":10057:10063   */\n      dup3\n        /* \"#utility.yul\":10046:10055   */\n      dup8\n        /* \"#utility.yul\":10042:10064   */\n      add\n        /* \"#utility.yul\":10021:10074   */\n      tag_201\n      jump\t// in\n    tag_374:\n        /* \"#utility.yul\":10011:10074   */\n      swap3\n      pop\n        /* \"#utility.yul\":9966:10084   */\n      pop\n        /* \"#utility.yul\":10151:10153   */\n      0x40\n        /* \"#utility.yul\":10140:10149   */\n      dup5\n        /* \"#utility.yul\":10136:10154   */\n      add\n        /* \"#utility.yul\":10123:10155   */\n      calldataload\n        /* \"#utility.yul\":10182:10200   */\n      0xffffffffffffffff\n        /* \"#utility.yul\":10174:10180   */\n      dup2\n        /* \"#utility.yul\":10171:10201   */\n      gt\n        /* \"#utility.yul\":10168:10285   */\n      iszero\n      tag_375\n      jumpi\n        /* \"#utility.yul\":10204:10283   */\n      tag_376\n      tag_199\n      jump\t// in\n    tag_376:\n        /* \"#utility.yul\":10168:10285   */\n    tag_375:\n        /* \"#utility.yul\":10309:10371   */\n      tag_377\n        /* \"#utility.yul\":10363:10370   */\n      dup7\n        /* \"#utility.yul\":10354:10360   */\n      dup3\n        /* \"#utility.yul\":10343:10352   */\n      dup8\n        /* \"#utility.yul\":10339:10361   */\n      add\n        /* \"#utility.yul\":10309:10371   */\n      tag_229\n      jump\t// in\n    tag_377:\n        /* \"#utility.yul\":10299:10371   */\n      swap2\n      pop\n        /* \"#utility.yul\":10094:10381   */\n      pop\n        /* \"#utility.yul\":9591:10388   */\n      swap3\n      pop\n      swap3\n      pop\n      swap3\n      jump\t// out\n        /* \"#utility.yul\":10394:10563   */\n    tag_230:\n        /* \"#utility.yul\":10478:10489   */\n      0x00\n        /* \"#utility.yul\":10512:10518   */\n      dup3\n        /* \"#utility.yul\":10507:10510   */\n      dup3\n        /* \"#utility.yul\":10500:10519   */\n      mstore\n        /* \"#utility.yul\":10552:10556   */\n      0x20\n        /* \"#utility.yul\":10547:10550   */\n      dup3\n        /* \"#utility.yul\":10543:10557   */\n      add\n        /* \"#utility.yul\":10528:10557   */\n      swap1\n      pop\n        /* \"#utility.yul\":10394:10563   */\n      swap3\n      swap2\n      pop\n      pop\n      jump\t// out\n        /* \"#utility.yul\":10569:10728   */\n    tag_231:\n        /* \"#utility.yul\":10709:10720   */\n      0x6e6f74206f776e65720000000000000000000000000000000000000000000000\n        /* \"#utility.yul\":10705:10706   */\n      0x00\n        /* \"#utility.yul\":10697:10703   */\n      dup3\n        /* \"#utility.yul\":10693:10707   */\n      add\n        /* \"#utility.yul\":10686:10721   */\n      mstore\n        /* \"#utility.yul\":10569:10728   */\n      pop\n      jump\t// out\n        /* \"#utility.yul\":10734:11099   */\n    tag_232:\n        /* \"#utility.yul\":10876:10879   */\n      0x00\n        /* \"#utility.yul\":10897:10963   */\n      tag_381\n        /* \"#utility.yul\":10961:10962   */\n      0x09\n        /* \"#utility.yul\":10956:10959   */\n      dup4\n        /* \"#utility.yul\":10897:10963   */\n      tag_230\n      jump\t// in\n    tag_381:\n        /* \"#utility.yul\":10890:10963   */\n      swap2\n      pop\n        /* \"#utility.yul\":10972:11065   */\n      tag_382\n        /* \"#utility.yul\":11061:11064   */\n      dup3\n        /* \"#utility.yul\":10972:11065   */\n      tag_231\n      jump\t// in\n    tag_382:\n        /* \"#utility.yul\":11090:11092   */\n      0x20\n        /* \"#utility.yul\":11085:11088   */\n      dup3\n        /* \"#utility.yul\":11081:11093   */\n      add\n        /* \"#utility.yul\":11074:11093   */\n      swap1\n      pop\n        /* \"#utility.yul\":10734:11099   */\n      swap2\n      swap1\n      pop\n      jump\t// out\n        /* \"#utility.yul\":11105:11524   */\n    tag_93:\n        /* \"#utility.yul\":11271:11275   */\n      0x00\n        /* \"#utility.yul\":11309:11311   */\n      0x20\n        /* \"#utility.yul\":11298:11307   */\n      dup3\n        /* \"#utility.yul\":11294:11312   */\n      add\n        /* \"#utility.yul\":11286:11312   */\n      swap1\n      pop\n        /* \"#utility.yul\":11358:11367   */\n      dup2\n        /* \"#utility.yul\":11352:11356   */\n      dup2\n        /* \"#utility.yul\":11348:11368   */\n      sub\n        /* \"#utility.yul\":11344:11345   */\n      0x00\n        /* \"#utility.yul\":11333:11342   */\n      dup4\n        /* \"#utility.yul\":11329:11346   */\n      add\n        /* \"#utility.yul\":11322:11369   */\n      mstore\n        /* \"#utility.yul\":11386:11517   */\n      tag_384\n        /* \"#utility.yul\":11512:11516   */\n      dup2\n        /* \"#utility.yul\":11386:11517   */\n      tag_232\n      jump\t// in\n    tag_384:\n        /* \"#utility.yul\":11378:11517   */\n      swap1\n      pop\n        /* \"#utility.yul\":11105:11524   */\n      swap2\n      swap1\n      pop\n      jump\t// out\n        /* \"#utility.yul\":11530:11698   */\n    tag_233:\n        /* \"#utility.yul\":11670:11690   */\n      0x74786e20646f6573206e6f742065786973740000000000000000000000000000\n        /* \"#utility.yul\":11666:11667   */\n      0x00\n        /* \"#utility.yul\":11658:11664   */\n      dup3\n        /* \"#utility.yul\":11654:11668   */\n      add\n        /* \"#utility.yul\":11647:11691   */\n      mstore\n        /* \"#utility.yul\":11530:11698   */\n      pop\n      jump\t// out\n        /* \"#utility.yul\":11704:12070   */\n    tag_234:\n        /* \"#utility.yul\":11846:11849   */\n      0x00\n        /* \"#utility.yul\":11867:11934   */\n      tag_387\n        /* \"#utility.yul\":11931:11933   */\n      0x12\n        /* \"#utility.yul\":11926:11929   */\n      dup4\n        /* \"#utility.yul\":11867:11934   */\n      tag_230\n      jump\t// in\n    tag_387:\n        /* \"#utility.yul\":11860:11934   */\n      swap2\n      pop\n        /* \"#utility.yul\":11943:12036   */\n      tag_388\n        /* \"#utility.yul\":12032:12035   */\n      dup3\n        /* \"#utility.yul\":11943:12036   */\n      tag_233\n      jump\t// in\n    tag_388:\n        /* \"#utility.yul\":12061:12063   */\n      0x20\n        /* \"#utility.yul\":12056:12059   */\n      dup3\n        /* \"#utility.yul\":12052:12064   */\n      add\n        /* \"#utility.yul\":12045:12064   */\n      swap1\n      pop\n        /* \"#utility.yul\":11704:12070   */\n      swap2\n      swap1\n      pop\n      jump\t// out\n        /* \"#utility.yul\":12076:12495   */\n    tag_97:\n        /* \"#utility.yul\":12242:12246   */\n      0x00\n        /* \"#utility.yul\":12280:12282   */\n      0x20\n        /* \"#utility.yul\":12269:12278   */\n      dup3\n        /* \"#utility.yul\":12265:12283   */\n      add\n        /* \"#utility.yul\":12257:12283   */\n      swap1\n      pop\n        /* \"#utility.yul\":12329:12338   */\n      dup2\n        /* \"#utility.yul\":12323:12327   */\n      dup2\n        /* \"#utility.yul\":12319:12339   */\n      sub\n        /* \"#utility.yul\":12315:12316   */\n      0x00\n        /* \"#utility.yul\":12304:12313   */\n      dup4\n        /* \"#utility.yul\":12300:12317   */\n      add\n        /* \"#utility.yul\":12293:12340   */\n      mstore\n        /* \"#utility.yul\":12357:12488   */\n      tag_390\n        /* \"#utility.yul\":12483:12487   */\n      dup2\n        /* \"#utility.yul\":12357:12488   */\n      tag_234\n      jump\t// in\n    tag_390:\n        /* \"#utility.yul\":12349:12488   */\n      swap1\n      pop\n        /* \"#utility.yul\":12076:12495   */\n      swap2\n      swap1\n      pop\n      jump\t// out\n        /* \"#utility.yul\":12501:12681   */\n    tag_101:\n        /* \"#utility.yul\":12549:12626   */\n      0x4e487b7100000000000000000000000000000000000000000000000000000000\n        /* \"#utility.yul\":12546:12547   */\n      0x00\n        /* \"#utility.yul\":12539:12627   */\n      mstore\n        /* \"#utility.yul\":12646:12650   */\n      0x32\n        /* \"#utility.yul\":12643:12644   */\n      0x04\n        /* \"#utility.yul\":12636:12651   */\n      mstore\n        /* \"#utility.yul\":12670:12674   */\n      0x24\n        /* \"#utility.yul\":12667:12668   */\n      0x00\n        /* \"#utility.yul\":12660:12675   */\n      revert\n        /* \"#utility.yul\":12687:12856   */\n    tag_235:\n        /* \"#utility.yul\":12827:12848   */\n      0x747820616c726561647920657865637574656400000000000000000000000000\n        /* \"#utility.yul\":12823:12824   */\n      0x00\n        /* \"#utility.yul\":12815:12821   */\n      dup3\n        /* \"#utility.yul\":12811:12825   */\n      add\n        /* \"#utility.yul\":12804:12849   */\n      mstore\n        /* \"#utility.yul\":12687:12856   */\n      pop\n      jump\t// out\n        /* \"#utility.yul\":12862:13228   */\n    tag_236:\n        /* \"#utility.yul\":13004:13007   */\n      0x00\n        /* \"#utility.yul\":13025:13092   */\n      tag_394\n        /* \"#utility.yul\":13089:13091   */\n      0x13\n        /* \"#utility.yul\":13084:13087   */\n      dup4\n        /* \"#utility.yul\":13025:13092   */\n      tag_230\n      jump\t// in\n    tag_394:\n        /* \"#utility.yul\":13018:13092   */\n      swap2\n      pop\n        /* \"#utility.yul\":13101:13194   */\n      tag_395\n        /* \"#utility.yul\":13190:13193   */\n      dup3\n        /* \"#utility.yul\":13101:13194   */\n      tag_235\n      jump\t// in\n    tag_395:\n        /* \"#utility.yul\":13219:13221   */\n      0x20\n        /* \"#utility.yul\":13214:13217   */\n      dup3\n        /* \"#utility.yul\":13210:13222   */\n      add\n        /* \"#utility.yul\":13203:13222   */\n      swap1\n      pop\n        /* \"#utility.yul\":12862:13228   */\n      swap2\n      swap1\n      pop\n      jump\t// out\n        /* \"#utility.yul\":13234:13653   */\n    tag_105:\n        /* \"#utility.yul\":13400:13404   */\n      0x00\n        /* \"#utility.yul\":13438:13440   */\n      0x20\n        /* \"#utility.yul\":13427:13436   */\n      dup3\n        /* \"#utility.yul\":13423:13441   */\n      add\n        /* \"#utility.yul\":13415:13441   */\n      swap1\n      pop\n        /* \"#utility.yul\":13487:13496   */\n      dup2\n        /* \"#utility.yul\":13481:13485   */\n      dup2\n        /* \"#utility.yul\":13477:13497   */\n      sub\n        /* \"#utility.yul\":13473:13474   */\n      0x00\n        /* \"#utility.yul\":13462:13471   */\n      dup4\n        /* \"#utility.yul\":13458:13475   */\n      add\n        /* \"#utility.yul\":13451:13498   */\n      mstore\n        /* \"#utility.yul\":13515:13646   */\n      tag_397\n        /* \"#utility.yul\":13641:13645   */\n      dup2\n        /* \"#utility.yul\":13515:13646   */\n      tag_236\n      jump\t// in\n    tag_397:\n        /* \"#utility.yul\":13507:13646   */\n      swap1\n      pop\n        /* \"#utility.yul\":13234:13653   */\n      swap2\n      swap1\n      pop\n      jump\t// out\n        /* \"#utility.yul\":13659:13825   */\n    tag_237:\n        /* \"#utility.yul\":13799:13817   */\n      0x7478206e6f7420636f6e66696d72656400000000000000000000000000000000\n        /* \"#utility.yul\":13795:13796   */\n      0x00\n        /* \"#utility.yul\":13787:13793   */\n      dup3\n        /* \"#utility.yul\":13783:13797   */\n      add\n        /* \"#utility.yul\":13776:13818   */\n      mstore\n        /* \"#utility.yul\":13659:13825   */\n      pop\n      jump\t// out\n        /* \"#utility.yul\":13831:14197   */\n    tag_238:\n        /* \"#utility.yul\":13973:13976   */\n      0x00\n        /* \"#utility.yul\":13994:14061   */\n      tag_400\n        /* \"#utility.yul\":14058:14060   */\n      0x10\n        /* \"#utility.yul\":14053:14056   */\n      dup4\n        /* \"#utility.yul\":13994:14061   */\n      tag_230\n      jump\t// in\n    tag_400:\n        /* \"#utility.yul\":13987:14061   */\n      swap2\n      pop\n        /* \"#utility.yul\":14070:14163   */\n      tag_401\n        /* \"#utility.yul\":14159:14162   */\n      dup3\n        /* \"#utility.yul\":14070:14163   */\n      tag_237\n      jump\t// in\n    tag_401:\n        /* \"#utility.yul\":14188:14190   */\n      0x20\n        /* \"#utility.yul\":14183:14186   */\n      dup3\n        /* \"#utility.yul\":14179:14191   */\n      add\n        /* \"#utility.yul\":14172:14191   */\n      swap1\n      pop\n        /* \"#utility.yul\":13831:14197   */\n      swap2\n      swap1\n      pop\n      jump\t// out\n        /* \"#utility.yul\":14203:14622   */\n    tag_112:\n        /* \"#utility.yul\":14369:14373   */\n      0x00\n        /* \"#utility.yul\":14407:14409   */\n      0x20\n        /* \"#utility.yul\":14396:14405   */\n      dup3\n        /* \"#utility.yul\":14392:14410   */\n      add\n        /* \"#utility.yul\":14384:14410   */\n      swap1\n      pop\n        /* \"#utility.yul\":14456:14465   */\n      dup2\n        /* \"#utility.yul\":14450:14454   */\n      dup2\n        /* \"#utility.yul\":14446:14466   */\n      sub\n        /* \"#utility.yul\":14442:14443   */\n      0x00\n        /* \"#utility.yul\":14431:14440   */\n      dup4\n        /* \"#utility.yul\":14427:14444   */\n      add\n        /* \"#utility.yul\":14420:14467   */\n      mstore\n        /* \"#utility.yul\":14484:14615   */\n      tag_403\n        /* \"#utility.yul\":14610:14614   */\n      dup2\n        /* \"#utility.yul\":14484:14615   */\n      tag_238\n      jump\t// in\n    tag_403:\n        /* \"#utility.yul\":14476:14615   */\n      swap1\n      pop\n        /* \"#utility.yul\":14203:14622   */\n      swap2\n      swap1\n      pop\n      jump\t// out\n        /* \"#utility.yul\":14628:14808   */\n    tag_239:\n        /* \"#utility.yul\":14676:14753   */\n      0x4e487b7100000000000000000000000000000000000000000000000000000000\n        /* \"#utility.yul\":14673:14674   */\n      0x00\n        /* \"#utility.yul\":14666:14754   */\n      mstore\n        /* \"#utility.yul\":14773:14777   */\n      0x11\n        /* \"#utility.yul\":14770:14771   */\n      0x04\n        /* \"#utility.yul\":14763:14778   */\n      mstore\n        /* \"#utility.yul\":14797:14801   */\n      0x24\n        /* \"#utility.yul\":14794:14795   */\n      0x00\n        /* \"#utility.yul\":14787:14802   */\n      revert\n        /* \"#utility.yul\":14814:15008   */\n    tag_114:\n        /* \"#utility.yul\":14854:14858   */\n      0x00\n        /* \"#utility.yul\":14874:14894   */\n      tag_406\n        /* \"#utility.yul\":14892:14893   */\n      dup3\n        /* \"#utility.yul\":14874:14894   */\n      tag_195\n      jump\t// in\n    tag_406:\n        /* \"#utility.yul\":14869:14894   */\n      swap2\n      pop\n        /* \"#utility.yul\":14908:14928   */\n      tag_407\n        /* \"#utility.yul\":14926:14927   */\n      dup4\n        /* \"#utility.yul\":14908:14928   */\n      tag_195\n      jump\t// in\n    tag_407:\n        /* \"#utility.yul\":14903:14928   */\n      swap3\n      pop\n        /* \"#utility.yul\":14952:14953   */\n      dup3\n        /* \"#utility.yul\":14949:14950   */\n      dup3\n        /* \"#utility.yul\":14945:14954   */\n      sub\n        /* \"#utility.yul\":14937:14954   */\n      swap1\n      pop\n        /* \"#utility.yul\":14976:14977   */\n      dup2\n        /* \"#utility.yul\":14970:14974   */\n      dup2\n        /* \"#utility.yul\":14967:14978   */\n      gt\n        /* \"#utility.yul\":14964:15001   */\n      iszero\n      tag_408\n      jumpi\n        /* \"#utility.yul\":14981:14999   */\n      tag_409\n      tag_239\n      jump\t// in\n    tag_409:\n        /* \"#utility.yul\":14964:15001   */\n    tag_408:\n        /* \"#utility.yul\":14814:15008   */\n      swap3\n      swap2\n      pop\n      pop\n      jump\t// out\n        /* \"#utility.yul\":15014:15194   */\n    tag_240:\n        /* \"#utility.yul\":15062:15139   */\n      0x4e487b7100000000000000000000000000000000000000000000000000000000\n        /* \"#utility.yul\":15059:15060   */\n      0x00\n        /* \"#utility.yul\":15052:15140   */\n      mstore\n        /* \"#utility.yul\":15159:15163   */\n      0x22\n        /* \"#utility.yul\":15156:15157   */\n      0x04\n        /* \"#utility.yul\":15149:15164   */\n      mstore\n        /* \"#utility.yul\":15183:15187   */\n      0x24\n        /* \"#utility.yul\":15180:15181   */\n      0x00\n        /* \"#utility.yul\":15173:15188   */\n      revert\n        /* \"#utility.yul\":15200:15520   */\n    tag_122:\n        /* \"#utility.yul\":15244:15250   */\n      0x00\n        /* \"#utility.yul\":15281:15282   */\n      0x02\n        /* \"#utility.yul\":15275:15279   */\n      dup3\n        /* \"#utility.yul\":15271:15283   */\n      div\n        /* \"#utility.yul\":15261:15283   */\n      swap1\n      pop\n        /* \"#utility.yul\":15328:15329   */\n      0x01\n        /* \"#utility.yul\":15322:15326   */\n      dup3\n        /* \"#utility.yul\":15318:15330   */\n      and\n        /* \"#utility.yul\":15349:15367   */\n      dup1\n        /* \"#utility.yul\":15339:15420   */\n      tag_412\n      jumpi\n        /* \"#utility.yul\":15405:15409   */\n      0x7f\n        /* \"#utility.yul\":15397:15403   */\n      dup3\n        /* \"#utility.yul\":15393:15410   */\n      and\n        /* \"#utility.yul\":15383:15410   */\n      swap2\n      pop\n        /* \"#utility.yul\":15339:15420   */\n    tag_412:\n        /* \"#utility.yul\":15467:15469   */\n      0x20\n        /* \"#utility.yul\":15459:15465   */\n      dup3\n        /* \"#utility.yul\":15456:15470   */\n      lt\n        /* \"#utility.yul\":15436:15454   */\n      dup2\n        /* \"#utility.yul\":15433:15471   */\n      sub\n        /* \"#utility.yul\":15430:15514   */\n      tag_413\n      jumpi\n        /* \"#utility.yul\":15486:15504   */\n      tag_414\n      tag_240\n      jump\t// in\n    tag_414:\n        /* \"#utility.yul\":15430:15514   */\n    tag_413:\n        /* \"#utility.yul\":15251:15520   */\n      pop\n        /* \"#utility.yul\":15200:15520   */\n      swap2\n      swap1\n      pop\n      jump\t// out\n        /* \"#utility.yul\":15526:15696   */\n    tag_241:\n        /* \"#utility.yul\":15666:15688   */\n      0x747820616c726561647920636f6e6669726d6564000000000000000000000000\n        /* \"#utility.yul\":15662:15663   */\n      0x00\n        /* \"#utility.yul\":15654:15660   */\n      dup3\n        /* \"#utility.yul\":15650:15664   */\n      add\n        /* \"#utility.yul\":15643:15689   */\n      mstore\n        /* \"#utility.yul\":15526:15696   */\n      pop\n      jump\t// out\n        /* \"#utility.yul\":15702:16068   */\n    tag_242:\n        /* \"#utility.yul\":15844:15847   */\n      0x00\n        /* \"#utility.yul\":15865:15932   */\n      tag_417\n        /* \"#utility.yul\":15929:15931   */\n      0x14\n        /* \"#utility.yul\":15924:15927   */\n      dup4\n        /* \"#utility.yul\":15865:15932   */\n      tag_230\n      jump\t// in\n    tag_417:\n        /* \"#utility.yul\":15858:15932   */\n      swap2\n      pop\n        /* \"#utility.yul\":15941:16034   */\n      tag_418\n        /* \"#utility.yul\":16030:16033   */\n      dup3\n        /* \"#utility.yul\":15941:16034   */\n      tag_241\n      jump\t// in\n    tag_418:\n        /* \"#utility.yul\":16059:16061   */\n      0x20\n        /* \"#utility.yul\":16054:16057   */\n      dup3\n        /* \"#utility.yul\":16050:16062   */\n      add\n        /* \"#utility.yul\":16043:16062   */\n      swap1\n      pop\n        /* \"#utility.yul\":15702:16068   */\n      swap2\n      swap1\n      pop\n      jump\t// out\n        /* \"#utility.yul\":16074:16493   */\n    tag_152:\n        /* \"#utility.yul\":16240:16244   */\n      0x00\n        /* \"#utility.yul\":16278:16280   */\n      0x20\n        /* \"#utility.yul\":16267:16276   */\n      dup3\n        /* \"#utility.yul\":16263:16281   */\n      add\n        /* \"#utility.yul\":16255:16281   */\n      swap1\n      pop\n        /* \"#utility.yul\":16327:16336   */\n      dup2\n        /* \"#utility.yul\":16321:16325   */\n      dup2\n        /* \"#utility.yul\":16317:16337   */\n      sub\n        /* \"#utility.yul\":16313:16314   */\n      0x00\n        /* \"#utility.yul\":16302:16311   */\n      dup4\n        /* \"#utility.yul\":16298:16315   */\n      add\n        /* \"#utility.yul\":16291:16338   */\n      mstore\n        /* \"#utility.yul\":16355:16486   */\n      tag_420\n        /* \"#utility.yul\":16481:16485   */\n      dup2\n        /* \"#utility.yul\":16355:16486   */\n      tag_242\n      jump\t// in\n    tag_420:\n        /* \"#utility.yul\":16347:16486   */\n      swap1\n      pop\n        /* \"#utility.yul\":16074:16493   */\n      swap2\n      swap1\n      pop\n      jump\t// out\n        /* \"#utility.yul\":16499:16690   */\n    tag_158:\n        /* \"#utility.yul\":16539:16542   */\n      0x00\n        /* \"#utility.yul\":16558:16578   */\n      tag_422\n        /* \"#utility.yul\":16576:16577   */\n      dup3\n        /* \"#utility.yul\":16558:16578   */\n      tag_195\n      jump\t// in\n    tag_422:\n        /* \"#utility.yul\":16553:16578   */\n      swap2\n      pop\n        /* \"#utility.yul\":16592:16612   */\n      tag_423\n        /* \"#utility.yul\":16610:16611   */\n      dup4\n        /* \"#utility.yul\":16592:16612   */\n      tag_195\n      jump\t// in\n    tag_423:\n        /* \"#utility.yul\":16587:16612   */\n      swap3\n      pop\n        /* \"#utility.yul\":16635:16636   */\n      dup3\n        /* \"#utility.yul\":16632:16633   */\n      dup3\n        /* \"#utility.yul\":16628:16637   */\n      add\n        /* \"#utility.yul\":16621:16637   */\n      swap1\n      pop\n        /* \"#utility.yul\":16656:16659   */\n      dup1\n        /* \"#utility.yul\":16653:16654   */\n      dup3\n        /* \"#utility.yul\":16650:16660   */\n      gt\n        /* \"#utility.yul\":16647:16683   */\n      iszero\n      tag_424\n      jumpi\n        /* \"#utility.yul\":16663:16681   */\n      tag_425\n      tag_239\n      jump\t// in\n    tag_425:\n        /* \"#utility.yul\":16647:16683   */\n    tag_424:\n        /* \"#utility.yul\":16499:16690   */\n      swap3\n      swap2\n      pop\n      pop\n      jump\t// out\n        /* \"#utility.yul\":16696:16836   */\n    tag_243:\n        /* \"#utility.yul\":16744:16748   */\n      0x00\n        /* \"#utility.yul\":16767:16770   */\n      dup2\n        /* \"#utility.yul\":16759:16770   */\n      swap1\n      pop\n        /* \"#utility.yul\":16790:16793   */\n      dup2\n        /* \"#utility.yul\":16787:16788   */\n      0x00\n        /* \"#utility.yul\":16780:16794   */\n      mstore\n        /* \"#utility.yul\":16824:16828   */\n      0x20\n        /* \"#utility.yul\":16821:16822   */\n      0x00\n        /* \"#utility.yul\":16811:16829   */\n      keccak256\n        /* \"#utility.yul\":16803:16829   */\n      swap1\n      pop\n        /* \"#utility.yul\":16696:16836   */\n      swap2\n      swap1\n      pop\n      jump\t// out\n        /* \"#utility.yul\":16842:16935   */\n    tag_244:\n        /* \"#utility.yul\":16879:16885   */\n      0x00\n        /* \"#utility.yul\":16926:16928   */\n      0x20\n        /* \"#utility.yul\":16921:16923   */\n      0x1f\n        /* \"#utility.yul\":16914:16919   */\n      dup4\n        /* \"#utility.yul\":16910:16924   */\n      add\n        /* \"#utility.yul\":16906:16929   */\n      div\n        /* \"#utility.yul\":16896:16929   */\n      swap1\n      pop\n        /* \"#utility.yul\":16842:16935   */\n      swap2\n      swap1\n      pop\n      jump\t// out\n        /* \"#utility.yul\":16941:17048   */\n    tag_245:\n        /* \"#utility.yul\":16985:16993   */\n      0x00\n        /* \"#utility.yul\":17035:17040   */\n      dup3\n        /* \"#utility.yul\":17029:17033   */\n      dup3\n        /* \"#utility.yul\":17025:17041   */\n      shl\n        /* \"#utility.yul\":17004:17041   */\n      swap1\n      pop\n        /* \"#utility.yul\":16941:17048   */\n      swap3\n      swap2\n      pop\n      pop\n      jump\t// out\n        /* \"#utility.yul\":17054:17447   */\n    tag_246:\n        /* \"#utility.yul\":17123:17129   */\n      0x00\n        /* \"#utility.yul\":17173:17174   */\n      0x08\n        /* \"#utility.yul\":17161:17171   */\n      dup4\n        /* \"#utility.yul\":17157:17175   */\n      mul\n        /* \"#utility.yul\":17196:17293   */\n      tag_430\n        /* \"#utility.yul\":17226:17292   */\n      0xffffffffffffffffffffffffffffffffffffffffffffffffffffffffffffffff\n        /* \"#utility.yul\":17215:17224   */\n      dup3\n        /* \"#utility.yul\":17196:17293   */\n      tag_245\n      jump\t// in\n    tag_430:\n        /* \"#utility.yul\":17314:17353   */\n      tag_431\n        /* \"#utility.yul\":17344:17352   */\n      dup7\n        /* \"#utility.yul\":17333:17342   */\n      dup4\n        /* \"#utility.yul\":17314:17353   */\n      tag_245\n      jump\t// in\n    tag_431:\n        /* \"#utility.yul\":17302:17353   */\n      swap6\n      pop\n        /* \"#utility.yul\":17386:17390   */\n      dup1\n        /* \"#utility.yul\":17382:17391   */\n      not\n        /* \"#utility.yul\":17375:17380   */\n      dup5\n        /* \"#utility.yul\":17371:17392   */\n      and\n        /* \"#utility.yul\":17362:17392   */\n      swap4\n      pop\n        /* \"#utility.yul\":17435:17439   */\n      dup1\n        /* \"#utility.yul\":17425:17433   */\n      dup7\n        /* \"#utility.yul\":17421:17440   */\n      and\n        /* \"#utility.yul\":17414:17419   */\n      dup5\n        /* \"#utility.yul\":17411:17441   */\n      or\n        /* \"#utility.yul\":17401:17441   */\n      swap3\n      pop\n        /* \"#utility.yul\":17130:17447   */\n      pop\n      pop\n        /* \"#utility.yul\":17054:17447   */\n      swap4\n      swap3\n      pop\n      pop\n      pop\n      jump\t// out\n        /* \"#utility.yul\":17453:17513   */\n    tag_247:\n        /* \"#utility.yul\":17481:17484   */\n      0x00\n        /* \"#utility.yul\":17502:17507   */\n      dup2\n        /* \"#utility.yul\":17495:17507   */\n      swap1\n      pop\n        /* \"#utility.yul\":17453:17513   */\n      swap2\n      swap1\n      pop\n      jump\t// out\n        /* \"#utility.yul\":17519:17661   */\n    tag_248:\n        /* \"#utility.yul\":17569:17578   */\n      0x00\n        /* \"#utility.yul\":17602:17655   */\n      tag_434\n        /* \"#utility.yul\":17620:17654   */\n      tag_435\n        /* \"#utility.yul\":17629:17653   */\n      tag_436\n        /* \"#utility.yul\":17647:17652   */\n      dup5\n        /* \"#utility.yul\":17629:17653   */\n      tag_195\n      jump\t// in\n    tag_436:\n        /* \"#utility.yul\":17620:17654   */\n      tag_247\n      jump\t// in\n    tag_435:\n        /* \"#utility.yul\":17602:17655   */\n      tag_195\n      jump\t// in\n    tag_434:\n        /* \"#utility.yul\":17589:17655   */\n      swap1\n      pop\n        /* \"#utility.yul\":17519:17661   */\n      swap2\n      swap1\n      pop\n      jump\t// out\n        /* \"#utility.yul\":17667:17742   */\n    tag_249:\n        /* \"#utility.yul\":17710:17713   */\n      0x00\n        /* \"#utility.yul\":17731:17736   */\n      dup2\n        /* \"#utility.yul\":17724:17736   */\n      swap1\n      pop\n        /* \"#utility.yul\":17667:17742   */\n      swap2\n      swap1\n      pop\n      jump\t// out\n        /* \"#utility.yul\":17748:18017   */\n    tag_250:\n        /* \"#utility.yul\":17858:17897   */\n      tag_439\n        /* \"#utility.yul\":17889:17896   */\n      dup4\n        /* \"#utility.yul\":17858:17897   */\n      tag_248\n      jump\t// in\n    tag_439:\n        /* \"#utility.yul\":17919:18010   */\n      tag_440\n        /* \"#utility.yul\":17968:18009   */\n      tag_441\n        /* \"#utility.yul\":17992:18008   */\n      dup3\n        /* \"#utility.yul\":17968:18009   */\n      tag_249\n      jump\t// in\n    tag_441:\n        /* \"#utility.yul\":17960:17966   */\n      dup5\n        /* \"#utility.yul\":17953:17957   */\n      dup5\n        /* \"#utility.yul\":17947:17958   */\n      sload\n        /* \"#utility.yul\":17919:18010   */\n      tag_246\n      jump\t// in\n    tag_440:\n        /* \"#utility.yul\":17913:17917   */\n      dup3\n        /* \"#utility.yul\":17906:18011   */\n      sstore\n        /* \"#utility.yul\":17824:18017   */\n      pop\n        /* \"#utility.yul\":17748:18017   */\n      pop\n      pop\n      pop\n      jump\t// out\n        /* \"#utility.yul\":18023:18096   */\n    tag_251:\n        /* \"#utility.yul\":18068:18071   */\n      0x00\n        /* \"#utility.yul\":18089:18090   */\n      0x00\n        /* \"#utility.yul\":18082:18090   */\n      swap1\n      pop\n        /* \"#utility.yul\":18023:18096   */\n      swap1\n      jump\t// out\n        /* \"#utility.yul\":18102:18291   */\n    tag_252:\n        /* \"#utility.yul\":18179:18211   */\n      tag_444\n      tag_251\n      jump\t// in\n    tag_444:\n        /* \"#utility.yul\":18220:18285   */\n      tag_445\n        /* \"#utility.yul\":18278:18284   */\n      dup2\n        /* \"#utility.yul\":18270:18276   */\n      dup5\n        /* \"#utility.yul\":18264:18268   */\n      dup5\n        /* \"#utility.yul\":18220:18285   */\n      tag_250\n      jump\t// in\n    tag_445:\n        /* \"#utility.yul\":18155:18291   */\n      pop\n        /* \"#utility.yul\":18102:18291   */\n      pop\n      pop\n      jump\t// out\n        /* \"#utility.yul\":18297:18483   */\n    tag_253:\n        /* \"#utility.yul\":18357:18477   */\n    tag_447:\n        /* \"#utility.yul\":18374:18377   */\n      dup2\n        /* \"#utility.yul\":18367:18372   */\n      dup2\n        /* \"#utility.yul\":18364:18378   */\n      lt\n        /* \"#utility.yul\":18357:18477   */\n      iszero\n      tag_449\n      jumpi\n        /* \"#utility.yul\":18428:18467   */\n      tag_450\n        /* \"#utility.yul\":18465:18466   */\n      0x00\n        /* \"#utility.yul\":18458:18463   */\n      dup3\n        /* \"#utility.yul\":18428:18467   */\n      tag_252\n      jump\t// in\n    tag_450:\n        /* \"#utility.yul\":18401:18402   */\n      0x01\n        /* \"#utility.yul\":18394:18399   */\n      dup2\n        /* \"#utility.yul\":18390:18403   */\n      add\n        /* \"#utility.yul\":18381:18403   */\n      swap1\n      pop\n        /* \"#utility.yul\":18357:18477   */\n      jump(tag_447)\n    tag_449:\n        /* \"#utility.yul\":18297:18483   */\n      pop\n      pop\n      jump\t// out\n        /* \"#utility.yul\":18489:19030   */\n    tag_254:\n        /* \"#utility.yul\":18589:18591   */\n      0x1f\n        /* \"#utility.yul\":18584:18587   */\n      dup3\n        /* \"#utility.yul\":18581:18592   */\n      gt\n        /* \"#utility.yul\":18578:19023   */\n      iszero\n      tag_452\n      jumpi\n        /* \"#utility.yul\":18623:18660   */\n      tag_453\n        /* \"#utility.yul\":18654:18659   */\n      dup2\n        /* \"#utility.yul\":18623:18660   */\n      tag_243\n      jump\t// in\n    tag_453:\n        /* \"#utility.yul\":18706:18735   */\n      tag_454\n        /* \"#utility.yul\":18724:18734   */\n      dup5\n        /* \"#utility.yul\":18706:18735   */\n      tag_244\n      jump\t// in\n    tag_454:\n        /* \"#utility.yul\":18696:18704   */\n      dup2\n        /* \"#utility.yul\":18692:18736   */\n      add\n        /* \"#utility.yul\":18889:18891   */\n      0x20\n        /* \"#utility.yul\":18877:18887   */\n      dup6\n        /* \"#utility.yul\":18874:18892   */\n      lt\n        /* \"#utility.yul\":18871:18920   */\n      iszero\n      tag_455\n      jumpi\n        /* \"#utility.yul\":18910:18918   */\n      dup2\n        /* \"#utility.yul\":18895:18918   */\n      swap1\n      pop\n        /* \"#utility.yul\":18871:18920   */\n    tag_455:\n        /* \"#utility.yul\":18933:19013   */\n      tag_456\n        /* \"#utility.yul\":18989:19011   */\n      tag_457\n        /* \"#utility.yul\":19007:19010   */\n      dup6\n        /* \"#utility.yul\":18989:19011   */\n      tag_244\n      jump\t// in\n    tag_457:\n        /* \"#utility.yul\":18979:18987   */\n      dup4\n        /* \"#utility.yul\":18975:19012   */\n      add\n        /* \"#utility.yul\":18962:18973   */\n      dup3\n        /* \"#utility.yul\":18933:19013   */\n      tag_253\n      jump\t// in\n    tag_456:\n        /* \"#utility.yul\":18593:19023   */\n      pop\n      pop\n        /* \"#utility.yul\":18578:19023   */\n    tag_452:\n        /* \"#utility.yul\":18489:19030   */\n      pop\n      pop\n      pop\n      jump\t// out\n        /* \"#utility.yul\":19036:19153   */\n    tag_255:\n        /* \"#utility.yul\":19090:19098   */\n      0x00\n        /* \"#utility.yul\":19140:19145   */\n      dup3\n        /* \"#utility.yul\":19134:19138   */\n      dup3\n        /* \"#utility.yul\":19130:19146   */\n      shr\n        /* \"#utility.yul\":19109:19146   */\n      swap1\n      pop\n        /* \"#utility.yul\":19036:19153   */\n      swap3\n      swap2\n      pop\n      pop\n      jump\t// out\n        /* \"#utility.yul\":19159:19328   */\n    tag_256:\n        /* \"#utility.yul\":19203:19209   */\n      0x00\n        /* \"#utility.yul\":19236:19287   */\n      tag_460\n        /* \"#utility.yul\":19284:19285   */\n      0x00\n        /* \"#utility.yul\":19280:19286   */\n      not\n        /* \"#utility.yul\":19272:19277   */\n      dup5\n        /* \"#utility.yul\":19269:19270   */\n      0x08\n        /* \"#utility.yul\":19265:19278   */\n      mul\n        /* \"#utility.yul\":19236:19287   */\n      tag_255\n      jump\t// in\n    tag_460:\n        /* \"#utility.yul\":19232:19288   */\n      not\n        /* \"#utility.yul\":19317:19321   */\n      dup1\n        /* \"#utility.yul\":19311:19315   */\n      dup4\n        /* \"#utility.yul\":19307:19322   */\n      and\n        /* \"#utility.yul\":19297:19322   */\n      swap2\n      pop\n        /* \"#utility.yul\":19210:19328   */\n      pop\n        /* \"#utility.yul\":19159:19328   */\n      swap3\n      swap2\n      pop\n      pop\n      jump\t// out\n        /* \"#utility.yul\":19333:19628   */\n    tag_257:\n        /* \"#utility.yul\":19409:19413   */\n      0x00\n        /* \"#utility.yul\":19555:19584   */\n      tag_462\n        /* \"#utility.yul\":19580:19583   */\n      dup4\n        /* \"#utility.yul\":19574:19578   */\n      dup4\n        /* \"#utility.yul\":19555:19584   */\n      tag_256\n      jump\t// in\n    tag_462:\n        /* \"#utility.yul\":19547:19584   */\n      swap2\n      pop\n        /* \"#utility.yul\":19617:19620   */\n      dup3\n        /* \"#utility.yul\":19614:19615   */\n      0x02\n        /* \"#utility.yul\":19610:19621   */\n      mul\n        /* \"#utility.yul\":19604:19608   */\n      dup3\n        /* \"#utility.yul\":19601:19622   */\n      or\n        /* \"#utility.yul\":19593:19622   */\n      swap1\n      pop\n        /* \"#utility.yul\":19333:19628   */\n      swap3\n      swap2\n      pop\n      pop\n      jump\t// out\n        /* \"#utility.yul\":19633:21023   */\n    tag_165:\n        /* \"#utility.yul\":19748:19784   */\n      tag_464\n        /* \"#utility.yul\":19780:19783   */\n      dup3\n        /* \"#utility.yul\":19748:19784   */\n      tag_209\n      jump\t// in\n    tag_464:\n        /* \"#utility.yul\":19849:19867   */\n      0xffffffffffffffff\n        /* \"#utility.yul\":19841:19847   */\n      dup2\n        /* \"#utility.yul\":19838:19868   */\n      gt\n        /* \"#utility.yul\":19835:19891   */\n      iszero\n      tag_465\n      jumpi\n        /* \"#utility.yul\":19871:19889   */\n      tag_466\n      tag_223\n      jump\t// in\n    tag_466:\n        /* \"#utility.yul\":19835:19891   */\n    tag_465:\n        /* \"#utility.yul\":19915:19953   */\n      tag_467\n        /* \"#utility.yul\":19947:19951   */\n      dup3\n        /* \"#utility.yul\":19941:19952   */\n      sload\n        /* \"#utility.yul\":19915:19953   */\n      tag_122\n      jump\t// in\n    tag_467:\n        /* \"#utility.yul\":20000:20066   */\n      tag_468\n        /* \"#utility.yul\":20059:20065   */\n      dup3\n        /* \"#utility.yul\":20051:20057   */\n      dup3\n        /* \"#utility.yul\":20045:20049   */\n      dup6\n        /* \"#utility.yul\":20000:20066   */\n      tag_254\n      jump\t// in\n    tag_468:\n        /* \"#utility.yul\":20093:20094   */\n      0x00\n        /* \"#utility.yul\":20117:20121   */\n      0x20\n        /* \"#utility.yul\":20104:20121   */\n      swap1\n      pop\n        /* \"#utility.yul\":20149:20151   */\n      0x1f\n        /* \"#utility.yul\":20141:20147   */\n      dup4\n        /* \"#utility.yul\":20138:20152   */\n      gt\n        /* \"#utility.yul\":20166:20167   */\n      0x01\n        /* \"#utility.yul\":20161:20778   */\n      dup2\n      eq\n      tag_470\n      jumpi\n        /* \"#utility.yul\":20822:20823   */\n      0x00\n        /* \"#utility.yul\":20839:20845   */\n      dup5\n        /* \"#utility.yul\":20836:20913   */\n      iszero\n      tag_471\n      jumpi\n        /* \"#utility.yul\":20888:20897   */\n      dup3\n        /* \"#utility.yul\":20883:20886   */\n      dup8\n        /* \"#utility.yul\":20879:20898   */\n      add\n        /* \"#utility.yul\":20873:20899   */\n      mload\n        /* \"#utility.yul\":20864:20899   */\n      swap1\n      pop\n        /* \"#utility.yul\":20836:20913   */\n    tag_471:\n        /* \"#utility.yul\":20939:21006   */\n      tag_472\n        /* \"#utility.yul\":20999:21005   */\n      dup6\n        /* \"#utility.yul\":20992:20997   */\n      dup3\n        /* \"#utility.yul\":20939:21006   */\n      tag_257\n      jump\t// in\n    tag_472:\n        /* \"#utility.yul\":20933:20937   */\n      dup7\n        /* \"#utility.yul\":20926:21007   */\n      sstore\n        /* \"#utility.yul\":20795:21017   */\n      pop\n        /* \"#utility.yul\":20131:21017   */\n      jump(tag_469)\n        /* \"#utility.yul\":20161:20778   */\n    tag_470:\n        /* \"#utility.yul\":20213:20217   */\n      0x1f\n        /* \"#utility.yul\":20209:20218   */\n      not\n        /* \"#utility.yul\":20201:20207   */\n      dup5\n        /* \"#utility.yul\":20197:20219   */\n      and\n        /* \"#utility.yul\":20247:20283   */\n      tag_473\n        /* \"#utility.yul\":20278:20282   */\n      dup7\n        /* \"#utility.yul\":20247:20283   */\n      tag_243\n      jump\t// in\n    tag_473:\n        /* \"#utility.yul\":20305:20306   */\n      0x00\n        /* \"#utility.yul\":20319:20527   */\n    tag_474:\n        /* \"#utility.yul\":20333:20340   */\n      dup3\n        /* \"#utility.yul\":20330:20331   */\n      dup2\n        /* \"#utility.yul\":20327:20341   */\n      lt\n        /* \"#utility.yul\":20319:20527   */\n      iszero\n      tag_476\n      jumpi\n        /* \"#utility.yul\":20412:20421   */\n      dup5\n        /* \"#utility.yul\":20407:20410   */\n      dup10\n        /* \"#utility.yul\":20403:20422   */\n      add\n        /* \"#utility.yul\":20397:20423   */\n      mload\n        /* \"#utility.yul\":20389:20395   */\n      dup3\n        /* \"#utility.yul\":20382:20424   */\n      sstore\n        /* \"#utility.yul\":20463:20464   */\n      0x01\n        /* \"#utility.yul\":20455:20461   */\n      dup3\n        /* \"#utility.yul\":20451:20465   */\n      add\n        /* \"#utility.yul\":20441:20465   */\n      swap2\n      pop\n        /* \"#utility.yul\":20510:20512   */\n      0x20\n        /* \"#utility.yul\":20499:20508   */\n      dup6\n        /* \"#utility.yul\":20495:20513   */\n      add\n        /* \"#utility.yul\":20482:20513   */\n      swap5\n      pop\n        /* \"#utility.yul\":20356:20360   */\n      0x20\n        /* \"#utility.yul\":20353:20354   */\n      dup2\n        /* \"#utility.yul\":20349:20361   */\n      add\n        /* \"#utility.yul\":20344:20361   */\n      swap1\n      pop\n        /* \"#utility.yul\":20319:20527   */\n      jump(tag_474)\n    tag_476:\n        /* \"#utility.yul\":20555:20561   */\n      dup7\n        /* \"#utility.yul\":20546:20553   */\n      dup4\n        /* \"#utility.yul\":20543:20562   */\n      lt\n        /* \"#utility.yul\":20540:20719   */\n      iszero\n      tag_477\n      jumpi\n        /* \"#utility.yul\":20613:20622   */\n      dup5\n        /* \"#utility.yul\":20608:20611   */\n      dup10\n        /* \"#utility.yul\":20604:20623   */\n      add\n        /* \"#utility.yul\":20598:20624   */\n      mload\n        /* \"#utility.yul\":20656:20704   */\n      tag_478\n        /* \"#utility.yul\":20698:20702   */\n      0x1f\n        /* \"#utility.yul\":20690:20696   */\n      dup10\n        /* \"#utility.yul\":20686:20703   */\n      and\n        /* \"#utility.yul\":20675:20684   */\n      dup3\n        /* \"#utility.yul\":20656:20704   */\n      tag_256\n      jump\t// in\n    tag_478:\n        /* \"#utility.yul\":20648:20654   */\n      dup4\n        /* \"#utility.yul\":20641:20705   */\n      sstore\n        /* \"#utility.yul\":20563:20719   */\n      pop\n        /* \"#utility.yul\":20540:20719   */\n    tag_477:\n        /* \"#utility.yul\":20765:20766   */\n      0x01\n        /* \"#utility.yul\":20761:20762   */\n      0x02\n        /* \"#utility.yul\":20753:20759   */\n      dup9\n        /* \"#utility.yul\":20749:20763   */\n      mul\n        /* \"#utility.yul\":20745:20767   */\n      add\n        /* \"#utility.yul\":20739:20743   */\n      dup9\n        /* \"#utility.yul\":20732:20768   */\n      sstore\n        /* \"#utility.yul\":20168:20778   */\n      pop\n      pop\n      pop\n        /* \"#utility.yul\":20131:21017   */\n    tag_469:\n      pop\n        /* \"#utility.yul\":19723:21023   */\n      pop\n      pop\n      pop\n        /* \"#utility.yul\":19633:21023   */\n      pop\n      pop\n      jump\t// out\n        /* \"#utility.yul\":21029:21448   */\n    tag_167:\n        /* \"#utility.yul\":21168:21172   */\n      0x00\n        /* \"#utility.yul\":21206:21208   */\n      0x40\n        /* \"#utility.yul\":21195:21204   */\n      dup3\n        /* \"#utility.yul\":21191:21209   */\n      add\n        /* \"#utility.yul\":21183:21209   */\n      swap1\n      pop\n        /* \"#utility.yul\":21219:21290   */\n      tag_480\n        /* \"#utility.yul\":21287:21288   */\n      0x00\n        /* \"#utility.yul\":21276:21285   */\n      dup4\n        /* \"#utility.yul\":21272:21289   */\n      add\n        /* \"#utility.yul\":21263:21269   */\n      dup6\n        /* \"#utility.yul\":21219:21290   */\n      tag_196\n      jump\t// in\n    tag_480:\n        /* \"#utility.yul\":21337:21346   */\n      dup2\n        /* \"#utility.yul\":21331:21335   */\n      dup2\n        /* \"#utility.yul\":21327:21347   */\n      sub\n        /* \"#utility.yul\":21322:21324   */\n      0x20\n        /* \"#utility.yul\":21311:21320   */\n      dup4\n        /* \"#utility.yul\":21307:21325   */\n      add\n        /* \"#utility.yul\":21300:21348   */\n      mstore\n        /* \"#utility.yul\":21365:21441   */\n      tag_481\n        /* \"#utility.yul\":21436:21440   */\n      dup2\n        /* \"#utility.yul\":21427:21433   */\n      dup5\n        /* \"#utility.yul\":21365:21441   */\n      tag_213\n      jump\t// in\n    tag_481:\n        /* \"#utility.yul\":21357:21441   */\n      swap1\n      pop\n        /* \"#utility.yul\":21029:21448   */\n      swap4\n      swap3\n      pop\n      pop\n      pop\n      jump\t// out\n        /* \"#utility.yul\":21454:21685   */\n    tag_258:\n        /* \"#utility.yul\":21594:21628   */\n      0x63616e6e6f7420657865637574652074786e2c206e6f7420656e6f7567682063\n        /* \"#utility.yul\":21590:21591   */\n      0x00\n        /* \"#utility.yul\":21582:21588   */\n      dup3\n        /* \"#utility.yul\":21578:21592   */\n      add\n        /* \"#utility.yul\":21571:21629   */\n      mstore\n        /* \"#utility.yul\":21663:21677   */\n      0x6f6e6669726d6174696f6e730000000000000000000000000000000000000000\n        /* \"#utility.yul\":21658:21660   */\n      0x20\n        /* \"#utility.yul\":21650:21656   */\n      dup3\n        /* \"#utility.yul\":21646:21661   */\n      add\n        /* \"#utility.yul\":21639:21678   */\n      mstore\n        /* \"#utility.yul\":21454:21685   */\n      pop\n      jump\t// out\n        /* \"#utility.yul\":21691:22057   */\n    tag_259:\n        /* \"#utility.yul\":21833:21836   */\n      0x00\n        /* \"#utility.yul\":21854:21921   */\n      tag_484\n        /* \"#utility.yul\":21918:21920   */\n      0x2c\n        /* \"#utility.yul\":21913:21916   */\n      dup4\n        /* \"#utility.yul\":21854:21921   */\n      tag_230\n      jump\t// in\n    tag_484:\n        /* \"#utility.yul\":21847:21921   */\n      swap2\n      pop\n        /* \"#utility.yul\":21930:22023   */\n      tag_485\n        /* \"#utility.yul\":22019:22022   */\n      dup3\n        /* \"#utility.yul\":21930:22023   */\n      tag_258\n      jump\t// in\n    tag_485:\n        /* \"#utility.yul\":22048:22050   */\n      0x40\n        /* \"#utility.yul\":22043:22046   */\n      dup3\n        /* \"#utility.yul\":22039:22051   */\n      add\n        /* \"#utility.yul\":22032:22051   */\n      swap1\n      pop\n        /* \"#utility.yul\":21691:22057   */\n      swap2\n      swap1\n      pop\n      jump\t// out\n        /* \"#utility.yul\":22063:22482   */\n    tag_186:\n        /* \"#utility.yul\":22229:22233   */\n      0x00\n        /* \"#utility.yul\":22267:22269   */\n      0x20\n        /* \"#utility.yul\":22256:22265   */\n      dup3\n        /* \"#utility.yul\":22252:22270   */\n      add\n        /* \"#utility.yul\":22244:22270   */\n      swap1\n      pop\n        /* \"#utility.yul\":22316:22325   */\n      dup2\n        /* \"#utility.yul\":22310:22314   */\n      dup2\n        /* \"#utility.yul\":22306:22326   */\n      sub\n        /* \"#utility.yul\":22302:22303   */\n      0x00\n        /* \"#utility.yul\":22291:22300   */\n      dup4\n        /* \"#utility.yul\":22287:22304   */\n      add\n        /* \"#utility.yul\":22280:22327   */\n      mstore\n        /* \"#utility.yul\":22344:22475   */\n      tag_487\n        /* \"#utility.yul\":22470:22474   */\n      dup2\n        /* \"#utility.yul\":22344:22475   */\n      tag_259\n      jump\t// in\n    tag_487:\n        /* \"#utility.yul\":22336:22475   */\n      swap1\n      pop\n        /* \"#utility.yul\":22063:22482   */\n      swap2\n      swap1\n      pop\n      jump\t// out\n        /* \"#utility.yul\":22488:22635   */\n    tag_260:\n        /* \"#utility.yul\":22589:22600   */\n      0x00\n        /* \"#utility.yul\":22626:22629   */\n      dup2\n        /* \"#utility.yul\":22611:22629   */\n      swap1\n      pop\n        /* \"#utility.yul\":22488:22635   */\n      swap3\n      swap2\n      pop\n      pop\n      jump\t// out\n        /* \"#utility.yul\":22663:23533   */\n    tag_261:\n        /* \"#utility.yul\":22764:22767   */\n      0x00\n        /* \"#utility.yul\":22801:22806   */\n      dup2\n        /* \"#utility.yul\":22795:22807   */\n      sload\n        /* \"#utility.yul\":22830:22866   */\n      tag_490\n        /* \"#utility.yul\":22856:22865   */\n      dup2\n        /* \"#utility.yul\":22830:22866   */\n      tag_122\n      jump\t// in\n    tag_490:\n        /* \"#utility.yul\":22882:22970   */\n      tag_491\n        /* \"#utility.yul\":22963:22969   */\n      dup2\n        /* \"#utility.yul\":22958:22961   */\n      dup7\n        /* \"#utility.yul\":22882:22970   */\n      tag_260\n      jump\t// in\n    tag_491:\n        /* \"#utility.yul\":22875:22970   */\n      swap5\n      pop\n        /* \"#utility.yul\":23001:23002   */\n      0x01\n        /* \"#utility.yul\":22990:22999   */\n      dup3\n        /* \"#utility.yul\":22986:23003   */\n      and\n        /* \"#utility.yul\":23017:23018   */\n      0x00\n        /* \"#utility.yul\":23012:23178   */\n      dup2\n      eq\n      tag_493\n      jumpi\n        /* \"#utility.yul\":23192:23193   */\n      0x01\n        /* \"#utility.yul\":23187:23527   */\n      dup2\n      eq\n      tag_494\n      jumpi\n        /* \"#utility.yul\":22979:23527   */\n      jump(tag_492)\n        /* \"#utility.yul\":23012:23178   */\n    tag_493:\n        /* \"#utility.yul\":23096:23100   */\n      0xff\n        /* \"#utility.yul\":23092:23101   */\n      not\n        /* \"#utility.yul\":23081:23090   */\n      dup4\n        /* \"#utility.yul\":23077:23102   */\n      and\n        /* \"#utility.yul\":23072:23075   */\n      dup7\n        /* \"#utility.yul\":23065:23103   */\n      mstore\n        /* \"#utility.yul\":23158:23164   */\n      dup2\n        /* \"#utility.yul\":23151:23165   */\n      iszero\n        /* \"#utility.yul\":23144:23166   */\n      iszero\n        /* \"#utility.yul\":23136:23142   */\n      dup3\n        /* \"#utility.yul\":23132:23167   */\n      mul\n        /* \"#utility.yul\":23127:23130   */\n      dup7\n        /* \"#utility.yul\":23123:23168   */\n      add\n        /* \"#utility.yul\":23116:23168   */\n      swap4\n      pop\n        /* \"#utility.yul\":23012:23178   */\n      jump(tag_492)\n        /* \"#utility.yul\":23187:23527   */\n    tag_494:\n        /* \"#utility.yul\":23254:23291   */\n      tag_495\n        /* \"#utility.yul\":23285:23290   */\n      dup6\n        /* \"#utility.yul\":23254:23291   */\n      tag_243\n      jump\t// in\n    tag_495:\n        /* \"#utility.yul\":23313:23314   */\n      0x00\n        /* \"#utility.yul\":23327:23481   */\n    tag_496:\n        /* \"#utility.yul\":23341:23347   */\n      dup4\n        /* \"#utility.yul\":23338:23339   */\n      dup2\n        /* \"#utility.yul\":23335:23348   */\n      lt\n        /* \"#utility.yul\":23327:23481   */\n      iszero\n      tag_498\n      jumpi\n        /* \"#utility.yul\":23415:23422   */\n      dup2\n        /* \"#utility.yul\":23409:23423   */\n      sload\n        /* \"#utility.yul\":23405:23406   */\n      dup2\n        /* \"#utility.yul\":23400:23403   */\n      dup10\n        /* \"#utility.yul\":23396:23407   */\n      add\n        /* \"#utility.yul\":23389:23424   */\n      mstore\n        /* \"#utility.yul\":23465:23466   */\n      0x01\n        /* \"#utility.yul\":23456:23463   */\n      dup3\n        /* \"#utility.yul\":23452:23467   */\n      add\n        /* \"#utility.yul\":23441:23467   */\n      swap2\n      pop\n        /* \"#utility.yul\":23363:23367   */\n      0x20\n        /* \"#utility.yul\":23360:23361   */\n      dup2\n        /* \"#utility.yul\":23356:23368   */\n      add\n        /* \"#utility.yul\":23351:23368   */\n      swap1\n      pop\n        /* \"#utility.yul\":23327:23481   */\n      jump(tag_496)\n    tag_498:\n        /* \"#utility.yul\":23510:23516   */\n      dup4\n        /* \"#utility.yul\":23505:23508   */\n      dup9\n        /* \"#utility.yul\":23501:23517   */\n      add\n        /* \"#utility.yul\":23494:23517   */\n      swap6\n      pop\n        /* \"#utility.yul\":23194:23527   */\n      pop\n      pop\n        /* \"#utility.yul\":22979:23527   */\n    tag_492:\n      pop\n        /* \"#utility.yul\":22768:23533   */\n      pop\n      pop\n        /* \"#utility.yul\":22663:23533   */\n      swap3\n      swap2\n      pop\n      pop\n      jump\t// out\n        /* \"#utility.yul\":23539:23804   */\n    tag_188:\n        /* \"#utility.yul\":23666:23669   */\n      0x00\n        /* \"#utility.yul\":23688:23778   */\n      tag_500\n        /* \"#utility.yul\":23774:23777   */\n      dup3\n        /* \"#utility.yul\":23765:23771   */\n      dup5\n        /* \"#utility.yul\":23688:23778   */\n      tag_261\n      jump\t// in\n    tag_500:\n        /* \"#utility.yul\":23681:23778   */\n      swap2\n      pop\n        /* \"#utility.yul\":23795:23798   */\n      dup2\n        /* \"#utility.yul\":23788:23798   */\n      swap1\n      pop\n        /* \"#utility.yul\":23539:23804   */\n      swap3\n      swap2\n      pop\n      pop\n      jump\t// out\n        /* \"#utility.yul\":23810:23970   */\n    tag_262:\n        /* \"#utility.yul\":23950:23962   */\n      0x74786e206661696c656400000000000000000000000000000000000000000000\n        /* \"#utility.yul\":23946:23947   */\n      0x00\n        /* \"#utility.yul\":23938:23944   */\n      dup3\n        /* \"#utility.yul\":23934:23948   */\n      add\n        /* \"#utility.yul\":23927:23963   */\n      mstore\n        /* \"#utility.yul\":23810:23970   */\n      pop\n      jump\t// out\n        /* \"#utility.yul\":23976:24342   */\n    tag_263:\n        /* \"#utility.yul\":24118:24121   */\n      0x00\n        /* \"#utility.yul\":24139:24206   */\n      tag_503\n        /* \"#utility.yul\":24203:24205   */\n      0x0a\n        /* \"#utility.yul\":24198:24201   */\n      dup4\n        /* \"#utility.yul\":24139:24206   */\n      tag_230\n      jump\t// in\n    tag_503:\n        /* \"#utility.yul\":24132:24206   */\n      swap2\n      pop\n        /* \"#utility.yul\":24215:24308   */\n      tag_504\n        /* \"#utility.yul\":24304:24307   */\n      dup3\n        /* \"#utility.yul\":24215:24308   */\n      tag_262\n      jump\t// in\n    tag_504:\n        /* \"#utility.yul\":24333:24335   */\n      0x20\n        /* \"#utility.yul\":24328:24331   */\n      dup3\n        /* \"#utility.yul\":24324:24336   */\n      add\n        /* \"#utility.yul\":24317:24336   */\n      swap1\n      pop\n        /* \"#utility.yul\":23976:24342   */\n      swap2\n      swap1\n      pop\n      jump\t// out\n        /* \"#utility.yul\":24348:24767   */\n    tag_194:\n        /* \"#utility.yul\":24514:24518   */\n      0x00\n        /* \"#utility.yul\":24552:24554   */\n      0x20\n        /* \"#utility.yul\":24541:24550   */\n      dup3\n        /* \"#utility.yul\":24537:24555   */\n      add\n        /* \"#utility.yul\":24529:24555   */\n      swap1\n      pop\n        /* \"#utility.yul\":24601:24610   */\n      dup2\n        /* \"#utility.yul\":24595:24599   */\n      dup2\n        /* \"#utility.yul\":24591:24611   */\n      sub\n        /* \"#utility.yul\":24587:24588   */\n      0x00\n        /* \"#utility.yul\":24576:24585   */\n      dup4\n        /* \"#utility.yul\":24572:24589   */\n      add\n        /* \"#utility.yul\":24565:24612   */\n      mstore\n        /* \"#utility.yul\":24629:24760   */\n      tag_506\n        /* \"#utility.yul\":24755:24759   */\n      dup2\n        /* \"#utility.yul\":24629:24760   */\n      tag_263\n      jump\t// in\n    tag_506:\n        /* \"#utility.yul\":24621:24760   */\n      swap1\n      pop\n        /* \"#utility.yul\":24348:24767   */\n      swap2\n      swap1\n      pop\n      jump\t// out\n\n    auxdata: 0xa26469706673582212207497d5c8353b795a20a800b87aaa8a089e234a264e15e5dbdf6f2da8c58862c164736f6c634300081f0033\n}\n",
				"bytecode": {
					"linkReferences": {},
					"object": "608060405234801561000f575f5ffd5b506040516124e63803806124e6833981810160405281019061003191906104a4565b5f825111610074576040517f08c379a000000000000000000000000000000000000000000000000000000000815260040161006b90610558565b60405180910390fd5b5f811180156100835750815181105b6100c2576040517f08c379a00000000000000000000000000000000000000000000000000000000081526004016100b9906105e6565b60405180910390fd5b5f5f90505b82518110156102a7575f8382815181106100e4576100e3610604565b5b602002602001015190505f73ffffffffffffffffffffffffffffffffffffffff168173ffffffffffffffffffffffffffffffffffffffff160361015c576040517f08c379a00000000000000000000000000000000000000000000000000000000081526004016101539061067b565b60405180910390fd5b60015f8273ffffffffffffffffffffffffffffffffffffffff1673ffffffffffffffffffffffffffffffffffffffff1681526020019081526020015f205f9054906101000a900460ff16156101e6576040517f08c379a00000000000000000000000000000000000000000000000000000000081526004016101dd906106e3565b60405180910390fd5b6001805f8373ffffffffffffffffffffffffffffffffffffffff1673ffffffffffffffffffffffffffffffffffffffff1681526020019081526020015f205f6101000a81548160ff0219169083151502179055505f81908060018154018082558091505060019003905f5260205f20015f9091909190916101000a81548173ffffffffffffffffffffffffffffffffffffffff021916908373ffffffffffffffffffffffffffffffffffffffff1602179055505080806001019150506100c7565b50806002819055505050610701565b5f604051905090565b5f5ffd5b5f5ffd5b5f5ffd5b5f601f19601f8301169050919050565b7f4e487b71000000000000000000000000000000000000000000000000000000005f52604160045260245ffd5b610311826102cb565b810181811067ffffffffffffffff821117156103305761032f6102db565b5b80604052505050565b5f6103426102b6565b905061034e8282610308565b919050565b5f67ffffffffffffffff82111561036d5761036c6102db565b5b602082029050602081019050919050565b5f5ffd5b5f73ffffffffffffffffffffffffffffffffffffffff82169050919050565b5f6103ab82610382565b9050919050565b6103bb816103a1565b81146103c5575f5ffd5b50565b5f815190506103d6816103b2565b92915050565b5f6103ee6103e984610353565b610339565b905080838252602082019050602084028301858111156104115761041061037e565b5b835b8181101561043a578061042688826103c8565b845260208401935050602081019050610413565b5050509392505050565b5f82601f830112610458576104576102c7565b5b81516104688482602086016103dc565b91505092915050565b5f819050919050565b61048381610471565b811461048d575f5ffd5b50565b5f8151905061049e8161047a565b92915050565b5f5f604083850312156104ba576104b96102bf565b5b5f83015167ffffffffffffffff8111156104d7576104d66102c3565b5b6104e385828601610444565b92505060206104f485828601610490565b9150509250929050565b5f82825260208201905092915050565b7f6f776e65727320726571756972656400000000000000000000000000000000005f82015250565b5f610542600f836104fe565b915061054d8261050e565b602082019050919050565b5f6020820190508181035f83015261056f81610536565b9050919050565b7f696e76616c6964206e756d626572206f6620726571756972656420636f6e66695f8201527f726d6174696f6e73000000000000000000000000000000000000000000000000602082015250565b5f6105d06028836104fe565b91506105db82610576565b604082019050919050565b5f6020820190508181035f8301526105fd816105c4565b9050919050565b7f4e487b71000000000000000000000000000000000000000000000000000000005f52603260045260245ffd5b7f696e76616c6964206f776e6572000000000000000000000000000000000000005f82015250565b5f610665600d836104fe565b915061067082610631565b602082019050919050565b5f6020820190508181035f83015261069281610659565b9050919050565b7f6f776e6572206e6f7420756e69717565000000000000000000000000000000005f82015250565b5f6106cd6010836104fe565b91506106d882610699565b602082019050919050565b5f6020820190508181035f8301526106fa816106c1565b9050919050565b611dd88061070e5f395ff3fe6080604052600436106100c5575f3560e01c806380f59a651161007e578063c01a8c8411610058578063c01a8c84146102fa578063c642747414610322578063d0549b851461034a578063ee22610b146103745761011c565b806380f59a65146102545780639ace38c214610290578063a0e67e2b146102d05761011c565b8063025e7c271461012057806320ea8d861461015c57806322968885146101845780632e7700f0146101ae5780632f54bf6e146101d857806333ea3dc8146102145761011c565b3661011c573373ffffffffffffffffffffffffffffffffffffffff167f90890809c654f11d6e72a28fa60149770a0d11ec6c92319d6ceb2bb0a4ea1a15344760405161011292919061113f565b60405180910390a2005b5f5ffd5b34801561012b575f5ffd5b50610146600480360381019061014191906111a1565b61039c565b604051610153919061120b565b60405180910390f35b348015610167575f5ffd5b50610182600480360381019061017d91906111a1565b6103d6565b005b34801561018f575f5ffd5b5061019861069b565b6040516101a59190611224565b60405180910390f35b3480156101b9575f5ffd5b506101c26106a2565b6040516101cf9190611224565b60405180910390f35b3480156101e3575f5ffd5b506101fe60048036038101906101f99190611267565b6106ae565b60405161020b91906112ac565b60405180910390f35b34801561021f575f5ffd5b5061023a600480360381019061023591906111a1565b6106cb565b60405161024b959493929190611335565b60405180910390f35b34801561025f575f5ffd5b5061027a6004803603810190610275919061138d565b6107d4565b60405161028791906112ac565b60405180910390f35b34801561029b575f5ffd5b506102b660048036038101906102b191906111a1565b6107fe565b6040516102c7959493929190611335565b60405180910390f35b3480156102db575f5ffd5b506102e46108f0565b6040516102f19190611482565b60405180910390f35b348015610305575f5ffd5b50610320600480360381019061031b91906111a1565b61097a565b005b34801561032d575f5ffd5b50610348600480360381019061034391906115ce565b610c43565b005b348015610355575f5ffd5b5061035e610e39565b60405161036b9190611224565b60405180910390f35b34801561037f575f5ffd5b5061039a600480360381019061039591906111a1565b610e3f565b005b5f81815481106103aa575f80fd5b905f5260205f20015f915054906101000a900473ffffffffffffffffffffffffffffffffffffffff1681565b60015f3373ffffffffffffffffffffffffffffffffffffffff1673ffffffffffffffffffffffffffffffffffffffff1681526020019081526020015f205f9054906101000a900460ff1661045f576040517f08c379a000000000000000000000000000000000000000000000000000000000815260040161045690611694565b60405180910390fd5b8060048054905081106104a7576040517f08c379a000000000000000000000000000000000000000000000000000000000815260040161049e906116fc565b60405180910390fd5b81600481815481106104bc576104bb61171a565b5b905f5260205f2090600502016003015f9054906101000a900460ff1615610518576040517f08c379a000000000000000000000000000000000000000000000000000000000815260040161050f90611791565b60405180910390fd5b5f6004848154811061052d5761052c61171a565b5b905f5260205f209060050201905060035f8581526020019081526020015f205f3373ffffffffffffffffffffffffffffffffffffffff1673ffffffffffffffffffffffffffffffffffffffff1681526020019081526020015f205f9054906101000a900460ff166105d3576040517f08c379a00000000000000000000000000000000000000000000000000000000081526004016105ca906117f9565b60405180910390fd5b6001816004015f8282546105e79190611844565b925050819055505f60035f8681526020019081526020015f205f3373ffffffffffffffffffffffffffffffffffffffff1673ffffffffffffffffffffffffffffffffffffffff1681526020019081526020015f205f6101000a81548160ff021916908315150217905550833373ffffffffffffffffffffffffffffffffffffffff167ff0dca620e2e81f7841d07bcc105e1704fb01475b278a9d4c236e1c62945edd5560405160405180910390a350505050565b5f47905090565b5f600480549050905090565b6001602052805f5260405f205f915054906101000a900460ff1681565b5f5f60605f5f5f600487815481106106e6576106e561171a565b5b905f5260205f2090600502019050805f015f9054906101000a900473ffffffffffffffffffffffffffffffffffffffff16816001015482600201836003015f9054906101000a900460ff168460040154828054610742906118a4565b80601f016020809104026020016040519081016040528092919081815260200182805461076e906118a4565b80156107b95780601f10610790576101008083540402835291602001916107b9565b820191905f5260205f20905b81548152906001019060200180831161079c57829003601f168201915b50505050509250955095509550955095505091939590929450565b6003602052815f5260405f20602052805f5260405f205f915091509054906101000a900460ff1681565b6004818154811061080d575f80fd5b905f5260205f2090600502015f91509050805f015f9054906101000a900473ffffffffffffffffffffffffffffffffffffffff1690806001015490806002018054610857906118a4565b80601f0160208091040260200160405190810160405280929190818152602001828054610883906118a4565b80156108ce5780601f106108a5576101008083540402835291602001916108ce565b820191905f5260205f20905b8154815290600101906020018083116108b157829003601f168201915b505050505090806003015f9054906101000a900460ff16908060040154905085565b60605f80548060200260200160405190810160405280929190818152602001828054801561097057602002820191905f5260205f20905b815f9054906101000a900473ffffffffffffffffffffffffffffffffffffffff1673ffffffffffffffffffffffffffffffffffffffff1681526020019060010190808311610927575b5050505050905090565b60015f3373ffffffffffffffffffffffffffffffffffffffff1673ffffffffffffffffffffffffffffffffffffffff1681526020019081526020015f205f9054906101000a900460ff16610a03576040517f08c379a00000000000000000000000000000000000000000000000000000000081526004016109fa90611694565b60405180910390fd5b806004805490508110610a4b576040517f08c379a0000000000000000000000000000000000000000000000000000000008152600401610a42906116fc565b60405180910390fd5b8160048181548110610a6057610a5f61171a565b5b905f5260205f2090600502016003015f9054906101000a900460ff1615610abc576040517f08c379a0000000000000000000000000000000000000000000000000000000008152600401610ab390611791565b60405180910390fd5b8260035f8281526020019081526020015f205f3373ffffffffffffffffffffffffffffffffffffffff1673ffffffffffffffffffffffffffffffffffffffff1681526020019081526020015f205f9054906101000a900460ff1615610b56576040517f08c379a0000000000000000000000000000000000000000000000000000000008152600401610b4d9061191e565b60405180910390fd5b5f60048581548110610b6b57610b6a61171a565b5b905f5260205f20906005020190506001816004015f828254610b8d919061193c565b92505081905550600160035f8781526020019081526020015f205f3373ffffffffffffffffffffffffffffffffffffffff1673ffffffffffffffffffffffffffffffffffffffff1681526020019081526020015f205f6101000a81548160ff021916908315150217905550843373ffffffffffffffffffffffffffffffffffffffff167f5cbe105e36805f7820e291f799d5794ff948af2a5f664e580382defb6339004160405160405180910390a35050505050565b60015f3373ffffffffffffffffffffffffffffffffffffffff1673ffffffffffffffffffffffffffffffffffffffff1681526020019081526020015f205f9054906101000a900460ff16610ccc576040517f08c379a0000000000000000000000000000000000000000000000000000000008152600401610cc390611694565b60405180910390fd5b5f600480549050905060046040518060a001604052808673ffffffffffffffffffffffffffffffffffffffff1681526020018581526020018481526020015f151581526020015f815250908060018154018082558091505060019003905f5260205f2090600502015f909190919091505f820151815f015f6101000a81548173ffffffffffffffffffffffffffffffffffffffff021916908373ffffffffffffffffffffffffffffffffffffffff160217905550602082015181600101556040820151816002019081610d9f9190611b0f565b506060820151816003015f6101000a81548160ff0219169083151502179055506080820151816004015550508373ffffffffffffffffffffffffffffffffffffffff16813373ffffffffffffffffffffffffffffffffffffffff167fd5a05bf70715ad82a09a756320284a1b54c9ff74cd0f8cce6219e79b563fe59d8686604051610e2b929190611bde565b60405180910390a450505050565b60025481565b60015f3373ffffffffffffffffffffffffffffffffffffffff1673ffffffffffffffffffffffffffffffffffffffff1681526020019081526020015f205f9054906101000a900460ff16610ec8576040517f08c379a0000000000000000000000000000000000000000000000000000000008152600401610ebf90611694565b60405180910390fd5b806004805490508110610f10576040517f08c379a0000000000000000000000000000000000000000000000000000000008152600401610f07906116fc565b60405180910390fd5b8160048181548110610f2557610f2461171a565b5b905f5260205f2090600502016003015f9054906101000a900460ff1615610f81576040517f08c379a0000000000000000000000000000000000000000000000000000000008152600401610f7890611791565b60405180910390fd5b5f60048481548110610f9657610f9561171a565b5b905f5260205f209060050201905060025481600401541015610fed576040517f08c379a0000000000000000000000000000000000000000000000000000000008152600401610fe490611c7c565b60405180910390fd5b6001816003015f6101000a81548160ff0219169083151502179055505f815f015f9054906101000a900473ffffffffffffffffffffffffffffffffffffffff1673ffffffffffffffffffffffffffffffffffffffff168260010154836002016040516110599190611d24565b5f6040518083038185875af1925050503d805f8114611093576040519150601f19603f3d011682016040523d82523d5f602084013e611098565b606091505b50509050806110dc576040517f08c379a00000000000000000000000000000000000000000000000000000000081526004016110d390611d84565b60405180910390fd5b843373ffffffffffffffffffffffffffffffffffffffff167f5445f318f4f5fcfb66592e68e0cc5822aa15664039bd5f0ffde24c5a8142b1ac60405160405180910390a35050505050565b5f819050919050565b61113981611127565b82525050565b5f6040820190506111525f830185611130565b61115f6020830184611130565b9392505050565b5f604051905090565b5f5ffd5b5f5ffd5b61118081611127565b811461118a575f5ffd5b50565b5f8135905061119b81611177565b92915050565b5f602082840312156111b6576111b561116f565b5b5f6111c38482850161118d565b91505092915050565b5f73ffffffffffffffffffffffffffffffffffffffff82169050919050565b5f6111f5826111cc565b9050919050565b611205816111eb565b82525050565b5f60208201905061121e5f8301846111fc565b92915050565b5f6020820190506112375f830184611130565b92915050565b611246816111eb565b8114611250575f5ffd5b50565b5f813590506112618161123d565b92915050565b5f6020828403121561127c5761127b61116f565b5b5f61128984828501611253565b91505092915050565b5f8115159050919050565b6112a681611292565b82525050565b5f6020820190506112bf5f83018461129d565b92915050565b5f81519050919050565b5f82825260208201905092915050565b8281835e5f83830152505050565b5f601f19601f8301169050919050565b5f611307826112c5565b61131181856112cf565b93506113218185602086016112df565b61132a816112ed565b840191505092915050565b5f60a0820190506113485f8301886111fc565b6113556020830187611130565b818103604083015261136781866112fd565b9050611376606083018561129d565b6113836080830184611130565b9695505050505050565b5f5f604083850312156113a3576113a261116f565b5b5f6113b08582860161118d565b92505060206113c185828601611253565b9150509250929050565b5f81519050919050565b5f82825260208201905092915050565b5f819050602082019050919050565b6113fd816111eb565b82525050565b5f61140e83836113f4565b60208301905092915050565b5f602082019050919050565b5f611430826113cb565b61143a81856113d5565b9350611445836113e5565b805f5b8381101561147557815161145c8882611403565b97506114678361141a565b925050600181019050611448565b5085935050505092915050565b5f6020820190508181035f83015261149a8184611426565b905092915050565b5f5ffd5b5f5ffd5b7f4e487b71000000000000000000000000000000000000000000000000000000005f52604160045260245ffd5b6114e0826112ed565b810181811067ffffffffffffffff821117156114ff576114fe6114aa565b5b80604052505050565b5f611511611166565b905061151d82826114d7565b919050565b5f67ffffffffffffffff82111561153c5761153b6114aa565b5b611545826112ed565b9050602081019050919050565b828183375f83830152505050565b5f61157261156d84611522565b611508565b90508281526020810184848401111561158e5761158d6114a6565b5b611599848285611552565b509392505050565b5f82601f8301126115b5576115b46114a2565b5b81356115c5848260208601611560565b91505092915050565b5f5f5f606084860312156115e5576115e461116f565b5b5f6115f286828701611253565b93505060206116038682870161118d565b925050604084013567ffffffffffffffff81111561162457611623611173565b5b611630868287016115a1565b9150509250925092565b5f82825260208201905092915050565b7f6e6f74206f776e657200000000000000000000000000000000000000000000005f82015250565b5f61167e60098361163a565b91506116898261164a565b602082019050919050565b5f6020820190508181035f8301526116ab81611672565b9050919050565b7f74786e20646f6573206e6f7420657869737400000000000000000000000000005f82015250565b5f6116e660128361163a565b91506116f1826116b2565b602082019050919050565b5f6020820190508181035f830152611713816116da565b9050919050565b7f4e487b71000000000000000000000000000000000000000000000000000000005f52603260045260245ffd5b7f747820616c7265616479206578656375746564000000000000000000000000005f82015250565b5f61177b60138361163a565b915061178682611747565b602082019050919050565b5f6020820190508181035f8301526117a88161176f565b9050919050565b7f7478206e6f7420636f6e66696d726564000000000000000000000000000000005f82015250565b5f6117e360108361163a565b91506117ee826117af565b602082019050919050565b5f6020820190508181035f830152611810816117d7565b9050919050565b7f4e487b71000000000000000000000000000000000000000000000000000000005f52601160045260245ffd5b5f61184e82611127565b915061185983611127565b925082820390508181111561187157611870611817565b5b92915050565b7f4e487b71000000000000000000000000000000000000000000000000000000005f52602260045260245ffd5b5f60028204905060018216806118bb57607f821691505b6020821081036118ce576118cd611877565b5b50919050565b7f747820616c726561647920636f6e6669726d65640000000000000000000000005f82015250565b5f61190860148361163a565b9150611913826118d4565b602082019050919050565b5f6020820190508181035f830152611935816118fc565b9050919050565b5f61194682611127565b915061195183611127565b925082820190508082111561196957611968611817565b5b92915050565b5f819050815f5260205f209050919050565b5f6020601f8301049050919050565b5f82821b905092915050565b5f600883026119cb7fffffffffffffffffffffffffffffffffffffffffffffffffffffffffffffffff82611990565b6119d58683611990565b95508019841693508086168417925050509392505050565b5f819050919050565b5f611a10611a0b611a0684611127565b6119ed565b611127565b9050919050565b5f819050919050565b611a29836119f6565b611a3d611a3582611a17565b84845461199c565b825550505050565b5f5f905090565b611a54611a45565b611a5f818484611a20565b505050565b5b81811015611a8257611a775f82611a4c565b600181019050611a65565b5050565b601f821115611ac757611a988161196f565b611aa184611981565b81016020851015611ab0578190505b611ac4611abc85611981565b830182611a64565b50505b505050565b5f82821c905092915050565b5f611ae75f1984600802611acc565b1980831691505092915050565b5f611aff8383611ad8565b9150826002028217905092915050565b611b18826112c5565b67ffffffffffffffff811115611b3157611b306114aa565b5b611b3b82546118a4565b611b46828285611a86565b5f60209050601f831160018114611b77575f8415611b65578287015190505b611b6f8582611af4565b865550611bd6565b601f198416611b858661196f565b5f5b82811015611bac57848901518255600182019150602085019450602081019050611b87565b86831015611bc95784890151611bc5601f891682611ad8565b8355505b6001600288020188555050505b505050505050565b5f604082019050611bf15f830185611130565b8181036020830152611c0381846112fd565b90509392505050565b7f63616e6e6f7420657865637574652074786e2c206e6f7420656e6f75676820635f8201527f6f6e6669726d6174696f6e730000000000000000000000000000000000000000602082015250565b5f611c66602c8361163a565b9150611c7182611c0c565b604082019050919050565b5f6020820190508181035f830152611c9381611c5a565b9050919050565b5f81905092915050565b5f8154611cb0816118a4565b611cba8186611c9a565b9450600182165f8114611cd45760018114611ce957611d1b565b60ff1983168652811515820286019350611d1b565b611cf28561196f565b5f5b83811015611d1357815481890152600182019150602081019050611cf4565b838801955050505b50505092915050565b5f611d2f8284611ca4565b915081905092915050565b7f74786e206661696c6564000000000000000000000000000000000000000000005f82015250565b5f611d6e600a8361163a565b9150611d7982611d3a565b602082019050919050565b5f6020820190508181035f830152611d9b81611d62565b905091905056fea26469706673582212207497d5c8353b795a20a800b87aaa8a089e234a264e15e5dbdf6f2da8c58862c164736f6c634300081f0033",
					"opcodes": "PUSH1 0x80 PUSH1 0x40 MSTORE CALLVALUE DUP1 ISZERO PUSH2 0xF JUMPI PUSH0 PUSH0 REVERT JUMPDEST POP PUSH1 0x40 MLOAD PUSH2 0x24E6 CODESIZE SUB DUP1 PUSH2 0x24E6 DUP4 CODECOPY DUP2 DUP2 ADD PUSH1 0x40 MSTORE DUP2 ADD SWAP1 PUSH2 0x31 SWAP2 SWAP1 PUSH2 0x4A4 JUMP JUMPDEST PUSH0 DUP3 MLOAD GT PUSH2 0x74 JUMPI PUSH1 0x40 MLOAD PUSH32 0x8C379A000000000000000000000000000000000000000000000000000000000 DUP2 MSTORE PUSH1 0x4 ADD PUSH2 0x6B SWAP1 PUSH2 0x558 JUMP JUMPDEST PUSH1 0x40 MLOAD DUP1 SWAP2 SUB SWAP1 REVERT JUMPDEST PUSH0 DUP2 GT DUP1 ISZERO PUSH2 0x83 JUMPI POP DUP2 MLOAD DUP2 LT JUMPDEST PUSH2 0xC2 JUMPI PUSH1 0x40 MLOAD PUSH32 0x8C379A000000000000000000000000000000000000000000000000000000000 DUP2 MSTORE PUSH1 0x4 ADD PUSH2 0xB9 SWAP1 PUSH2 0x5E6 JUMP JUMPDEST PUSH1 0x40 MLOAD DUP1 SWAP2 SUB SWAP1 REVERT JUMPDEST PUSH0 PUSH0 SWAP1 POP JUMPDEST DUP3 MLOAD DUP2 LT ISZERO PUSH2 0x2A7 JUMPI PUSH0 DUP4 DUP3 DUP2 MLOAD DUP2 LT PUSH2 0xE4 JUMPI PUSH2 0xE3 PUSH2 0x604 JUMP JUMPDEST JUMPDEST PUSH1 0x20 MUL PUSH1 0x20 ADD ADD MLOAD SWAP1 POP PUSH0 PUSH20 0xFFFFFFFFFFFFFFFFFFFFFFFFFFFFFFFFFFFFFFFF AND DUP2 PUSH20 0xFFFFFFFFFFFFFFFFFFFFFFFFFFFFFFFFFFFFFFFF AND SUB PUSH2 0x15C JUMPI PUSH1 0x40 MLOAD PUSH32 0x8C379A000000000000000000000000000000000000000000000000000000000 DUP2 MSTORE PUSH1 0x4 ADD PUSH2 0x153 SWAP1 PUSH2 0x67B JUMP JUMPDEST PUSH1 0x40 MLOAD DUP1 SWAP2 SUB SWAP1 REVERT JUMPDEST PUSH1 0x1 PUSH0 DUP3 PUSH20 0xFFFFFFFFFFFFFFFFFFFFFFFFFFFFFFFFFFFFFFFF AND PUSH20 0xFFFFFFFFFFFFFFFFFFFFFFFFFFFFFFFFFFFFFFFF AND DUP2 MSTORE PUSH1 0x20 ADD SWAP1 DUP2 MSTORE PUSH1 0x20 ADD PUSH0 KECCAK256 PUSH0 SWAP1 SLOAD SWAP1 PUSH2 0x100 EXP SWAP1 DIV PUSH1 0xFF AND ISZERO PUSH2 0x1E6 JUMPI PUSH1 0x40 MLOAD PUSH32 0x8C379A000000000000000000000000000000000000000000000000000000000 DUP2 MSTORE PUSH1 0x4 ADD PUSH2 0x1DD SWAP1 PUSH2 0x6E3 JUMP JUMPDEST PUSH1 0x40 MLOAD DUP1 SWAP2 SUB SWAP1 REVERT JUMPDEST PUSH1 0x1 DUP1 PUSH0 DUP4 PUSH20 0xFFFFFFFFFFFFFFFFFFFFFFFFFFFFFFFFFFFFFFFF AND PUSH20 0xFFFFFFFFFFFFFFFFFFFFFFFFFFFFFFFFFFFFFFFF AND DUP2 MSTORE PUSH1 0x20 ADD SWAP1 DUP2 MSTORE PUSH1 0x20 ADD PUSH0 KECCAK256 PUSH0 PUSH2 0x100 EXP DUP2 SLOAD DUP2 PUSH1 0xFF MUL NOT AND SWAP1 DUP4 ISZERO ISZERO MUL OR SWAP1 SSTORE POP PUSH0 DUP2 SWAP1 DUP1 PUSH1 0x1 DUP2 SLOAD ADD DUP1 DUP3 SSTORE DUP1 SWAP2 POP POP PUSH1 0x1 SWAP1 SUB SWAP1 PUSH0 MSTORE PUSH1 0x20 PUSH0 KECCAK256 ADD PUSH0 SWAP1 SWAP2 SWAP1 SWAP2 SWAP1 SWAP2 PUSH2 0x100 EXP DUP2 SLOAD DUP2 PUSH20 0xFFFFFFFFFFFFFFFFFFFFFFFFFFFFFFFFFFFFFFFF MUL NOT AND SWAP1 DUP4 PUSH20 0xFFFFFFFFFFFFFFFFFFFFFFFFFFFFFFFFFFFFFFFF AND MUL OR SWAP1 SSTORE POP POP DUP1 DUP1 PUSH1 0x1 ADD SWAP2 POP POP PUSH2 0xC7 JUMP JUMPDEST POP DUP1 PUSH1 0x2 DUP2 SWAP1 SSTORE POP POP POP PUSH2 0x701 JUMP JUMPDEST PUSH0 PUSH1 0x40 MLOAD SWAP1 POP SWAP1 JUMP JUMPDEST PUSH0 PUSH0 REVERT JUMPDEST PUSH0 PUSH0 REVERT JUMPDEST PUSH0 PUSH0 REVERT JUMPDEST PUSH0 PUSH1 0x1F NOT PUSH1 0x1F DUP4 ADD AND SWAP1 POP SWAP2 SWAP1 POP JUMP JUMPDEST PUSH32 0x4E487B7100000000000000000000000000000000000000000000000000000000 PUSH0 MSTORE PUSH1 0x41 PUSH1 0x4 MSTORE PUSH1 0x24 PUSH0 REVERT JUMPDEST PUSH2 0x311 DUP3 PUSH2 0x2CB JUMP JUMPDEST DUP2 ADD DUP2 DUP2 LT PUSH8 0xFFFFFFFFFFFFFFFF DUP3 GT OR ISZERO PUSH2 0x330 JUMPI PUSH2 0x32F PUSH2 0x2DB JUMP JUMPDEST JUMPDEST DUP1 PUSH1 0x40 MSTORE POP POP POP JUMP JUMPDEST PUSH0 PUSH2 0x342 PUSH2 0x2B6 JUMP JUMPDEST SWAP1 POP PUSH2 0x34E DUP3 DUP3 PUSH2 0x308 JUMP JUMPDEST SWAP2 SWAP1 POP JUMP JUMPDEST PUSH0 PUSH8 0xFFFFFFFFFFFFFFFF DUP3 GT ISZERO PUSH2 0x36D JUMPI PUSH2 0x36C PUSH2 0x2DB JUMP JUMPDEST JUMPDEST PUSH1 0x20 DUP3 MUL SWAP1 POP PUSH1 0x20 DUP2 ADD SWAP1 POP SWAP2 SWAP1 POP JUMP JUMPDEST PUSH0 PUSH0 REVERT JUMPDEST PUSH0 PUSH20 0xFFFFFFFFFFFFFFFFFFFFFFFFFFFFFFFFFFFFFFFF DUP3 AND SWAP1 POP SWAP2 SWAP1 POP JUMP JUMPDEST PUSH0 PUSH2 0x3AB DUP3 PUSH2 0x382 JUMP JUMPDEST SWAP1 POP SWAP2 SWAP1 POP JUMP JUMPDEST PUSH2 0x3BB DUP2 PUSH2 0x3A1 JUMP JUMPDEST DUP2 EQ PUSH2 0x3C5 JUMPI PUSH0 PUSH0 REVERT JUMPDEST POP JUMP JUMPDEST PUSH0 DUP2 MLOAD SWAP1 POP PUSH2 0x3D6 DUP2 PUSH2 0x3B2 JUMP JUMPDEST SWAP3 SWAP2 POP POP JUMP JUMPDEST PUSH0 PUSH2 0x3EE PUSH2 0x3E9 DUP5 PUSH2 0x353 JUMP JUMPDEST PUSH2 0x339 JUMP JUMPDEST SWAP1 POP DUP1 DUP4 DUP3 MSTORE PUSH1 0x20 DUP3 ADD SWAP1 POP PUSH1 0x20 DUP5 MUL DUP4 ADD DUP6 DUP2 GT ISZERO PUSH2 0x411 JUMPI PUSH2 0x410 PUSH2 0x37E JUMP JUMPDEST JUMPDEST DUP4 JUMPDEST DUP2 DUP2 LT ISZERO PUSH2 0x43A JUMPI DUP1 PUSH2 0x426 DUP9 DUP3 PUSH2 0x3C8 JUMP JUMPDEST DUP5 MSTORE PUSH1 0x20 DUP5 ADD SWAP4 POP POP PUSH1 0x20 DUP2 ADD SWAP1 POP PUSH2 0x413 JUMP JUMPDEST POP POP POP SWAP4 SWAP3 POP POP POP JUMP JUMPDEST PUSH0 DUP3 PUSH1 0x1F DUP4 ADD SLT PUSH2 0x458 JUMPI PUSH2 0x457 PUSH2 0x2C7 JUMP JUMPDEST JUMPDEST DUP2 MLOAD PUSH2 0x468 DUP5 DUP3 PUSH1 0x20 DUP7 ADD PUSH2 0x3DC JUMP JUMPDEST SWAP2 POP POP SWAP3 SWAP2 POP POP JUMP JUMPDEST PUSH0 DUP2 SWAP1 POP SWAP2 SWAP1 POP JUMP JUMPDEST PUSH2 0x483 DUP2 PUSH2 0x471 JUMP JUMPDEST DUP2 EQ PUSH2 0x48D JUMPI PUSH0 PUSH0 REVERT JUMPDEST POP JUMP JUMPDEST PUSH0 DUP2 MLOAD SWAP1 POP PUSH2 0x49E DUP2 PUSH2 0x47A JUMP JUMPDEST SWAP3 SWAP2 POP POP JUMP JUMPDEST PUSH0 PUSH0 PUSH1 0x40 DUP4 DUP6 SUB SLT ISZERO PUSH2 0x4BA JUMPI PUSH2 0x4B9 PUSH2 0x2BF JUMP JUMPDEST JUMPDEST PUSH0 DUP4 ADD MLOAD PUSH8 0xFFFFFFFFFFFFFFFF DUP2 GT ISZERO PUSH2 0x4D7 JUMPI PUSH2 0x4D6 PUSH2 0x2C3 JUMP JUMPDEST JUMPDEST PUSH2 0x4E3 DUP6 DUP3 DUP7 ADD PUSH2 0x444 JUMP JUMPDEST SWAP3 POP POP PUSH1 0x20 PUSH2 0x4F4 DUP6 DUP3 DUP7 ADD PUSH2 0x490 JUMP JUMPDEST SWAP2 POP POP SWAP3 POP SWAP3 SWAP1 POP JUMP JUMPDEST PUSH0 DUP3 DUP3 MSTORE PUSH1 0x20 DUP3 ADD SWAP1 POP SWAP3 SWAP2 POP POP JUMP JUMPDEST PUSH32 0x6F776E6572732072657175697265640000000000000000000000000000000000 PUSH0 DUP3 ADD MSTORE POP JUMP JUMPDEST PUSH0 PUSH2 0x542 PUSH1 0xF DUP4 PUSH2 0x4FE JUMP JUMPDEST SWAP2 POP PUSH2 0x54D DUP3 PUSH2 0x50E JUMP JUMPDEST PUSH1 0x20 DUP3 ADD SWAP1 POP SWAP2 SWAP1 POP JUMP JUMPDEST PUSH0 PUSH1 0x20 DUP3 ADD SWAP1 POP DUP2 DUP2 SUB PUSH0 DUP4 ADD MSTORE PUSH2 0x56F DUP2 PUSH2 0x536 JUMP JUMPDEST SWAP1 POP SWAP2 SWAP1 POP JUMP JUMPDEST PUSH32 0x696E76616C6964206E756D626572206F6620726571756972656420636F6E6669 PUSH0 DUP3 ADD MSTORE PUSH32 0x726D6174696F6E73000000000000000000000000000000000000000000000000 PUSH1 0x20 DUP3 ADD MSTORE POP JUMP JUMPDEST PUSH0 PUSH2 0x5D0 PUSH1 0x28 DUP4 PUSH2 0x4FE JUMP JUMPDEST SWAP2 POP PUSH2 0x5DB DUP3 PUSH2 0x576 JUMP JUMPDEST PUSH1 0x40 DUP3 ADD SWAP1 POP SWAP2 SWAP1 POP JUMP JUMPDEST PUSH0 PUSH1 0x20 DUP3 ADD SWAP1 POP DUP2 DUP2 SUB PUSH0 DUP4 ADD MSTORE PUSH2 0x5FD DUP2 PUSH2 0x5C4 JUMP JUMPDEST SWAP1 POP SWAP2 SWAP1 POP JUMP JUMPDEST PUSH32 0x4E487B7100000000000000000000000000000000000000000000000000000000 PUSH0 MSTORE PUSH1 0x32 PUSH1 0x4 MSTORE PUSH1 0x24 PUSH0 REVERT JUMPDEST PUSH32 0x696E76616C6964206F776E657200000000000000000000000000000000000000 PUSH0 DUP3 ADD MSTORE POP JUMP JUMPDEST PUSH0 PUSH2 0x665 PUSH1 0xD DUP4 PUSH2 0x4FE JUMP JUMPDEST SWAP2 POP PUSH2 0x670 DUP3 PUSH2 0x631 JUMP JUMPDEST PUSH1 0x20 DUP3 ADD SWAP1 POP SWAP2 SWAP1 POP JUMP JUMPDEST PUSH0 PUSH1 0x20 DUP3 ADD SWAP1 POP DUP2 DUP2 SUB PUSH0 DUP4 ADD MSTORE PUSH2 0x692 DUP2 PUSH2 0x659 JUMP JUMPDEST SWAP1 POP SWAP2 SWAP1 POP JUMP JUMPDEST PUSH32 0x6F776E6572206E6F7420756E6971756500000000000000000000000000000000 PUSH0 DUP3 ADD MSTORE POP JUMP JUMPDEST PUSH0 PUSH2 0x6CD PUSH1 0x10 DUP4 PUSH2 0x4FE JUMP JUMPDEST SWAP2 POP PUSH2 0x6D8 DUP3 PUSH2 0x699 JUMP JUMPDEST PUSH1 0x20 DUP3 ADD SWAP1 POP SWAP2 SWAP1 POP JUMP JUMPDEST PUSH0 PUSH1 0x20 DUP3 ADD SWAP1 POP DUP2 DUP2 SUB PUSH0 DUP4 ADD MSTORE PUSH2 0x6FA DUP2 PUSH2 0x6C1 JUMP JUMPDEST SWAP1 POP SWAP2 SWAP1 POP JUMP JUMPDEST PUSH2 0x1DD8 DUP1 PUSH2 0x70E PUSH0 CODECOPY PUSH0 RETURN INVALID PUSH1 0x80 PUSH1 0x40 MSTORE PUSH1 0x4 CALLDATASIZE LT PUSH2 0xC5 JUMPI PUSH0 CALLDATALOAD PUSH1 0xE0 SHR DUP1 PUSH4 0x80F59A65 GT PUSH2 0x7E JUMPI DUP1 PUSH4 0xC01A8C84 GT PUSH2 0x58 JUMPI DUP1 PUSH4 0xC01A8C84 EQ PUSH2 0x2FA JUMPI DUP1 PUSH4 0xC6427474 EQ PUSH2 0x322 JUMPI DUP1 PUSH4 0xD0549B85 EQ PUSH2 0x34A JUMPI DUP1 PUSH4 0xEE22610B EQ PUSH2 0x374 JUMPI PUSH2 0x11C JUMP JUMPDEST DUP1 PUSH4 0x80F59A65 EQ PUSH2 0x254 JUMPI DUP1 PUSH4 0x9ACE38C2 EQ PUSH2 0x290 JUMPI DUP1 PUSH4 0xA0E67E2B EQ PUSH2 0x2D0 JUMPI PUSH2 0x11C JUMP JUMPDEST DUP1 PUSH4 0x25E7C27 EQ PUSH2 0x120 JUMPI DUP1 PUSH4 0x20EA8D86 EQ PUSH2 0x15C JUMPI DUP1 PUSH4 0x22968885 EQ PUSH2 0x184 JUMPI DUP1 PUSH4 0x2E7700F0 EQ PUSH2 0x1AE JUMPI DUP1 PUSH4 0x2F54BF6E EQ PUSH2 0x1D8 JUMPI DUP1 PUSH4 0x33EA3DC8 EQ PUSH2 0x214 JUMPI PUSH2 0x11C JUMP JUMPDEST CALLDATASIZE PUSH2 0x11C JUMPI CALLER PUSH20 0xFFFFFFFFFFFFFFFFFFFFFFFFFFFFFFFFFFFFFFFF AND PUSH32 0x90890809C654F11D6E72A28FA60149770A0D11EC6C92319D6CEB2BB0A4EA1A15 CALLVALUE SELFBALANCE PUSH1 0x40 MLOAD PUSH2 0x112 SWAP3 SWAP2 SWAP1 PUSH2 0x113F JUMP JUMPDEST PUSH1 0x40 MLOAD DUP1 SWAP2 SUB SWAP1 LOG2 STOP JUMPDEST PUSH0 PUSH0 REVERT JUMPDEST CALLVALUE DUP1 ISZERO PUSH2 0x12B JUMPI PUSH0 PUSH0 REVERT JUMPDEST POP PUSH2 0x146 PUSH1 0x4 DUP1 CALLDATASIZE SUB DUP2 ADD SWAP1 PUSH2 0x141 SWAP2 SWAP1 PUSH2 0x11A1 JUMP JUMPDEST PUSH2 0x39C JUMP JUMPDEST PUSH1 0x40 MLOAD PUSH2 0x153 SWAP2 SWAP1 PUSH2 0x120B JUMP JUMPDEST PUSH1 0x40 MLOAD DUP1 SWAP2 SUB SWAP1 RETURN JUMPDEST CALLVALUE DUP1 ISZERO PUSH2 0x167 JUMPI PUSH0 PUSH0 REVERT JUMPDEST POP PUSH2 0x182 PUSH1 0x4 DUP1 CALLDATASIZE SUB DUP2 ADD SWAP1 PUSH2 0x17D SWAP2 SWAP1 PUSH2 0x11A1 JUMP JUMPDEST PUSH2 0x3D6 JUMP JUMPDEST STOP JUMPDEST CALLVALUE DUP1 ISZERO PUSH2 0x18F JUMPI PUSH0 PUSH0 REVERT JUMPDEST POP PUSH2 0x198 PUSH2 0x69B JUMP JUMPDEST PUSH1 0x40 MLOAD PUSH2 0x1A5 SWAP2 SWAP1 PUSH2 0x1224 JUMP JUMPDEST PUSH1 0x40 MLOAD DUP1 SWAP2 SUB SWAP1 RETURN JUMPDEST CALLVALUE DUP1 ISZERO PUSH2 0x1B9 JUMPI PUSH0 PUSH0 REVERT JUMPDEST POP PUSH2 0x1C2 PUSH2 0x6A2 JUMP JUMPDEST PUSH1 0x40 MLOAD PUSH2 0x1CF SWAP2 SWAP1 PUSH2 0x1224 JUMP JUMPDEST PUSH1 0x40 MLOAD DUP1 SWAP2 SUB SWAP1 RETURN JUMPDEST CALLVALUE DUP1 ISZERO PUSH2 0x1E3 JUMPI PUSH0 PUSH0 REVERT JUMPDEST POP PUSH2 0x1FE PUSH1 0x4 DUP1 CALLDATASIZE SUB DUP2 ADD SWAP1 PUSH2 0x1F9 SWAP2 SWAP1 PUSH2 0x1267 JUMP JUMPDEST PUSH2 0x6AE JUMP JUMPDEST PUSH1 0x40 MLOAD PUSH2 0x20B SWAP2 SWAP1 PUSH2 0x12AC JUMP JUMPDEST PUSH1 0x40 MLOAD DUP1 SWAP2 SUB SWAP1 RETURN JUMPDEST CALLVALUE DUP1 ISZERO PUSH2 0x21F JUMPI PUSH0 PUSH0 REVERT JUMPDEST POP PUSH2 0x23A PUSH1 0x4 DUP1 CALLDATASIZE SUB DUP2 ADD SWAP1 PUSH2 0x235 SWAP2 SWAP1 PUSH2 0x11A1 JUMP JUMPDEST PUSH2 0x6CB JUMP JUMPDEST PUSH1 0x40 MLOAD PUSH2 0x24B SWAP6 SWAP5 SWAP4 SWAP3 SWAP2 SWAP1 PUSH2 0x1335 JUMP JUMPDEST PUSH1 0x40 MLOAD DUP1 SWAP2 SUB SWAP1 RETURN JUMPDEST CALLVALUE DUP1 ISZERO PUSH2 0x25F JUMPI PUSH0 PUSH0 REVERT JUMPDEST POP PUSH2 0x27A PUSH1 0x4 DUP1 CALLDATASIZE SUB DUP2 ADD SWAP1 PUSH2 0x275 SWAP2 SWAP1 PUSH2 0x138D JUMP JUMPDEST PUSH2 0x7D4 JUMP JUMPDEST PUSH1 0x40 MLOAD PUSH2 0x287 SWAP2 SWAP1 PUSH2 0x12AC JUMP JUMPDEST PUSH1 0x40 MLOAD DUP1 SWAP2 SUB SWAP1 RETURN JUMPDEST CALLVALUE DUP1 ISZERO PUSH2 0x29B JUMPI PUSH0 PUSH0 REVERT JUMPDEST POP PUSH2 0x2B6 PUSH1 0x4 DUP1 CALLDATASIZE SUB DUP2 ADD SWAP1 PUSH2 0x2B1 SWAP2 SWAP1 PUSH2 0x11A1 JUMP JUMPDEST PUSH2 0x7FE JUMP JUMPDEST PUSH1 0x40 MLOAD PUSH2 0x2C7 SWAP6 SWAP5 SWAP4 SWAP3 SWAP2 SWAP1 PUSH2 0x1335 JUMP JUMPDEST PUSH1 0x40 MLOAD DUP1 SWAP2 SUB SWAP1 RETURN JUMPDEST CALLVALUE DUP1 ISZERO PUSH2 0x2DB JUMPI PUSH0 PUSH0 REVERT JUMPDEST POP PUSH2 0x2E4 PUSH2 0x8F0 JUMP JUMPDEST PUSH1 0x40 MLOAD PUSH2 0x2F1 SWAP2 SWAP1 PUSH2 0x1482 JUMP JUMPDEST PUSH1 0x40 MLOAD DUP1 SWAP2 SUB SWAP1 RETURN JUMPDEST CALLVALUE DUP1 ISZERO PUSH2 0x305 JUMPI PUSH0 PUSH0 REVERT JUMPDEST POP PUSH2 0x320 PUSH1 0x4 DUP1 CALLDATASIZE SUB DUP2 ADD SWAP1 PUSH2 0x31B SWAP2 SWAP1 PUSH2 0x11A1 JUMP JUMPDEST PUSH2 0x97A JUMP JUMPDEST STOP JUMPDEST CALLVALUE DUP1 ISZERO PUSH2 0x32D JUMPI PUSH0 PUSH0 REVERT JUMPDEST POP PUSH2 0x348 PUSH1 0x4 DUP1 CALLDATASIZE SUB DUP2 ADD SWAP1 PUSH2 0x343 SWAP2 SWAP1 PUSH2 0x15CE JUMP JUMPDEST PUSH2 0xC43 JUMP JUMPDEST STOP JUMPDEST CALLVALUE DUP1 ISZERO PUSH2 0x355 JUMPI PUSH0 PUSH0 REVERT JUMPDEST POP PUSH2 0x35E PUSH2 0xE39 JUMP JUMPDEST PUSH1 0x40 MLOAD PUSH2 0x36B SWAP2 SWAP1 PUSH2 0x1224 JUMP JUMPDEST PUSH1 0x40 MLOAD DUP1 SWAP2 SUB SWAP1 RETURN JUMPDEST CALLVALUE DUP1 ISZERO PUSH2 0x37F JUMPI PUSH0 PUSH0 REVERT JUMPDEST POP PUSH2 0x39A PUSH1 0x4 DUP1 CALLDATASIZE SUB DUP2 ADD SWAP1 PUSH2 0x395 SWAP2 SWAP1 PUSH2 0x11A1 JUMP JUMPDEST PUSH2 0xE3F JUMP JUMPDEST STOP JUMPDEST PUSH0 DUP2 DUP2 SLOAD DUP2 LT PUSH2 0x3AA JUMPI PUSH0 DUP1 REVERT JUMPDEST SWAP1 PUSH0 MSTORE PUSH1 0x20 PUSH0 KECCAK256 ADD PUSH0 SWAP2 POP SLOAD SWAP1 PUSH2 0x100 EXP SWAP1 DIV PUSH20 0xFFFFFFFFFFFFFFFFFFFFFFFFFFFFFFFFFFFFFFFF AND DUP2 JUMP JUMPDEST PUSH1 0x1 PUSH0 CALLER PUSH20 0xFFFFFFFFFFFFFFFFFFFFFFFFFFFFFFFFFFFFFFFF AND PUSH20 0xFFFFFFFFFFFFFFFFFFFFFFFFFFFFFFFFFFFFFFFF AND DUP2 MSTORE PUSH1 0x20 ADD SWAP1 DUP2 MSTORE PUSH1 0x20 ADD PUSH0 KECCAK256 PUSH0 SWAP1 SLOAD SWAP1 PUSH2 0x100 EXP SWAP1 DIV PUSH1 0xFF AND PUSH2 0x45F JUMPI PUSH1 0x40 MLOAD PUSH32 0x8C379A000000000000000000000000000000000000000000000000000000000 DUP2 MSTORE PUSH1 0x4 ADD PUSH2 0x456 SWAP1 PUSH2 0x1694 JUMP JUMPDEST PUSH1 0x40 MLOAD DUP1 SWAP2 SUB SWAP1 REVERT JUMPDEST DUP1 PUSH1 0x4 DUP1 SLOAD SWAP1 POP DUP2 LT PUSH2 0x4A7 JUMPI PUSH1 0x40 MLOAD PUSH32 0x8C379A000000000000000000000000000000000000000000000000000000000 DUP2 MSTORE PUSH1 0x4 ADD PUSH2 0x49E SWAP1 PUSH2 0x16FC JUMP JUMPDEST PUSH1 0x40 MLOAD DUP1 SWAP2 SUB SWAP1 REVERT JUMPDEST DUP2 PUSH1 0x4 DUP2 DUP2 SLOAD DUP2 LT PUSH2 0x4BC JUMPI PUSH2 0x4BB PUSH2 0x171A JUMP JUMPDEST JUMPDEST SWAP1 PUSH0 MSTORE PUSH1 0x20 PUSH0 KECCAK256 SWAP1 PUSH1 0x5 MUL ADD PUSH1 0x3 ADD PUSH0 SWAP1 SLOAD SWAP1 PUSH2 0x100 EXP SWAP1 DIV PUSH1 0xFF AND ISZERO PUSH2 0x518 JUMPI PUSH1 0x40 MLOAD PUSH32 0x8C379A000000000000000000000000000000000000000000000000000000000 DUP2 MSTORE PUSH1 0x4 ADD PUSH2 0x50F SWAP1 PUSH2 0x1791 JUMP JUMPDEST PUSH1 0x40 MLOAD DUP1 SWAP2 SUB SWAP1 REVERT JUMPDEST PUSH0 PUSH1 0x4 DUP5 DUP2 SLOAD DUP2 LT PUSH2 0x52D JUMPI PUSH2 0x52C PUSH2 0x171A JUMP JUMPDEST JUMPDEST SWAP1 PUSH0 MSTORE PUSH1 0x20 PUSH0 KECCAK256 SWAP1 PUSH1 0x5 MUL ADD SWAP1 POP PUSH1 0x3 PUSH0 DUP6 DUP2 MSTORE PUSH1 0x20 ADD SWAP1 DUP2 MSTORE PUSH1 0x20 ADD PUSH0 KECCAK256 PUSH0 CALLER PUSH20 0xFFFFFFFFFFFFFFFFFFFFFFFFFFFFFFFFFFFFFFFF AND PUSH20 0xFFFFFFFFFFFFFFFFFFFFFFFFFFFFFFFFFFFFFFFF AND DUP2 MSTORE PUSH1 0x20 ADD SWAP1 DUP2 MSTORE PUSH1 0x20 ADD PUSH0 KECCAK256 PUSH0 SWAP1 SLOAD SWAP1 PUSH2 0x100 EXP SWAP1 DIV PUSH1 0xFF AND PUSH2 0x5D3 JUMPI PUSH1 0x40 MLOAD PUSH32 0x8C379A000000000000000000000000000000000000000000000000000000000 DUP2 MSTORE PUSH1 0x4 ADD PUSH2 0x5CA SWAP1 PUSH2 0x17F9 JUMP JUMPDEST PUSH1 0x40 MLOAD DUP1 SWAP2 SUB SWAP1 REVERT JUMPDEST PUSH1 0x1 DUP2 PUSH1 0x4 ADD PUSH0 DUP3 DUP3 SLOAD PUSH2 0x5E7 SWAP2 SWAP1 PUSH2 0x1844 JUMP JUMPDEST SWAP3 POP POP DUP2 SWAP1 SSTORE POP PUSH0 PUSH1 0x3 PUSH0 DUP7 DUP2 MSTORE PUSH1 0x20 ADD SWAP1 DUP2 MSTORE PUSH1 0x20 ADD PUSH0 KECCAK256 PUSH0 CALLER PUSH20 0xFFFFFFFFFFFFFFFFFFFFFFFFFFFFFFFFFFFFFFFF AND PUSH20 0xFFFFFFFFFFFFFFFFFFFFFFFFFFFFFFFFFFFFFFFF AND DUP2 MSTORE PUSH1 0x20 ADD SWAP1 DUP2 MSTORE PUSH1 0x20 ADD PUSH0 KECCAK256 PUSH0 PUSH2 0x100 EXP DUP2 SLOAD DUP2 PUSH1 0xFF MUL NOT AND SWAP1 DUP4 ISZERO ISZERO MUL OR SWAP1 SSTORE POP DUP4 CALLER PUSH20 0xFFFFFFFFFFFFFFFFFFFFFFFFFFFFFFFFFFFFFFFF AND PUSH32 0xF0DCA620E2E81F7841D07BCC105E1704FB01475B278A9D4C236E1C62945EDD55 PUSH1 0x40 MLOAD PUSH1 0x40 MLOAD DUP1 SWAP2 SUB SWAP1 LOG3 POP POP POP POP JUMP JUMPDEST PUSH0 SELFBALANCE SWAP1 POP SWAP1 JUMP JUMPDEST PUSH0 PUSH1 0x4 DUP1 SLOAD SWAP1 POP SWAP1 POP SWAP1 JUMP JUMPDEST PUSH1 0x1 PUSH1 0x20 MSTORE DUP1 PUSH0 MSTORE PUSH1 0x40 PUSH0 KECCAK256 PUSH0 SWAP2 POP SLOAD SWAP1 PUSH2 0x100 EXP SWAP1 DIV PUSH1 0xFF AND DUP2 JUMP JUMPDEST PUSH0 PUSH0 PUSH1 0x60 PUSH0 PUSH0 PUSH0 PUSH1 0x4 DUP8 DUP2 SLOAD DUP2 LT PUSH2 0x6E6 JUMPI PUSH2 0x6E5 PUSH2 0x171A JUMP JUMPDEST JUMPDEST SWAP1 PUSH0 MSTORE PUSH1 0x20 PUSH0 KECCAK256 SWAP1 PUSH1 0x5 MUL ADD SWAP1 POP DUP1 PUSH0 ADD PUSH0 SWAP1 SLOAD SWAP1 PUSH2 0x100 EXP SWAP1 DIV PUSH20 0xFFFFFFFFFFFFFFFFFFFFFFFFFFFFFFFFFFFFFFFF AND DUP2 PUSH1 0x1 ADD SLOAD DUP3 PUSH1 0x2 ADD DUP4 PUSH1 0x3 ADD PUSH0 SWAP1 SLOAD SWAP1 PUSH2 0x100 EXP SWAP1 DIV PUSH1 0xFF AND DUP5 PUSH1 0x4 ADD SLOAD DUP3 DUP1 SLOAD PUSH2 0x742 SWAP1 PUSH2 0x18A4 JUMP JUMPDEST DUP1 PUSH1 0x1F ADD PUSH1 0x20 DUP1 SWAP2 DIV MUL PUSH1 0x20 ADD PUSH1 0x40 MLOAD SWAP1 DUP2 ADD PUSH1 0x40 MSTORE DUP1 SWAP3 SWAP2 SWAP1 DUP2 DUP2 MSTORE PUSH1 0x20 ADD DUP3 DUP1 SLOAD PUSH2 0x76E SWAP1 PUSH2 0x18A4 JUMP JUMPDEST DUP1 ISZERO PUSH2 0x7B9 JUMPI DUP1 PUSH1 0x1F LT PUSH2 0x790 JUMPI PUSH2 0x100 DUP1 DUP4 SLOAD DIV MUL DUP4 MSTORE SWAP2 PUSH1 0x20 ADD SWAP2 PUSH2 0x7B9 JUMP JUMPDEST DUP3 ADD SWAP2 SWAP1 PUSH0 MSTORE PUSH1 0x20 PUSH0 KECCAK256 SWAP1 JUMPDEST DUP2 SLOAD DUP2 MSTORE SWAP1 PUSH1 0x1 ADD SWAP1 PUSH1 0x20 ADD DUP1 DUP4 GT PUSH2 0x79C JUMPI DUP3 SWAP1 SUB PUSH1 0x1F AND DUP3 ADD SWAP2 JUMPDEST POP POP POP POP POP SWAP3 POP SWAP6 POP SWAP6 POP SWAP6 POP SWAP6 POP SWAP6 POP POP SWAP2 SWAP4 SWAP6 SWAP1 SWAP3 SWAP5 POP JUMP JUMPDEST PUSH1 0x3 PUSH1 0x20 MSTORE DUP2 PUSH0 MSTORE PUSH1 0x40 PUSH0 KECCAK256 PUSH1 0x20 MSTORE DUP1 PUSH0 MSTORE PUSH1 0x40 PUSH0 KECCAK256 PUSH0 SWAP2 POP SWAP2 POP SWAP1 SLOAD SWAP1 PUSH2 0x100 EXP SWAP1 DIV PUSH1 0xFF AND DUP2 JUMP JUMPDEST PUSH1 0x4 DUP2 DUP2 SLOAD DUP2 LT PUSH2 0x80D JUMPI PUSH0 DUP1 REVERT JUMPDEST SWAP1 PUSH0 MSTORE PUSH1 0x20 PUSH0 KECCAK256 SWAP1 PUSH1 0x5 MUL ADD PUSH0 SWAP2 POP SWAP1 POP DUP1 PUSH0 ADD PUSH0 SWAP1 SLOAD SWAP1 PUSH2 0x100 EXP SWAP1 DIV PUSH20 0xFFFFFFFFFFFFFFFFFFFFFFFFFFFFFFFFFFFFFFFF AND SWAP1 DUP1 PUSH1 0x1 ADD SLOAD SWAP1 DUP1 PUSH1 0x2 ADD DUP1 SLOAD PUSH2 0x857 SWAP1 PUSH2 0x18A4 JUMP JUMPDEST DUP1 PUSH1 0x1F ADD PUSH1 0x20 DUP1 SWAP2 DIV MUL PUSH1 0x20 ADD PUSH1 0x40 MLOAD SWAP1 DUP2 ADD PUSH1 0x40 MSTORE DUP1 SWAP3 SWAP2 SWAP1 DUP2 DUP2 MSTORE PUSH1 0x20 ADD DUP3 DUP1 SLOAD PUSH2 0x883 SWAP1 PUSH2 0x18A4 JUMP JUMPDEST DUP1 ISZERO PUSH2 0x8CE JUMPI DUP1 PUSH1 0x1F LT PUSH2 0x8A5 JUMPI PUSH2 0x100 DUP1 DUP4 SLOAD DIV MUL DUP4 MSTORE SWAP2 PUSH1 0x20 ADD SWAP2 PUSH2 0x8CE JUMP JUMPDEST DUP3 ADD SWAP2 SWAP1 PUSH0 MSTORE PUSH1 0x20 PUSH0 KECCAK256 SWAP1 JUMPDEST DUP2 SLOAD DUP2 MSTORE SWAP1 PUSH1 0x1 ADD SWAP1 PUSH1 0x20 ADD DUP1 DUP4 GT PUSH2 0x8B1 JUMPI DUP3 SWAP1 SUB PUSH1 0x1F AND DUP3 ADD SWAP2 JUMPDEST POP POP POP POP POP SWAP1 DUP1 PUSH1 0x3 ADD PUSH0 SWAP1 SLOAD SWAP1 PUSH2 0x100 EXP SWAP1 DIV PUSH1 0xFF AND SWAP1 DUP1 PUSH1 0x4 ADD SLOAD SWAP1 POP DUP6 JUMP JUMPDEST PUSH1 0x60 PUSH0 DUP1 SLOAD DUP1 PUSH1 0x20 MUL PUSH1 0x20 ADD PUSH1 0x40 MLOAD SWAP1 DUP2 ADD PUSH1 0x40 MSTORE DUP1 SWAP3 SWAP2 SWAP1 DUP2 DUP2 MSTORE PUSH1 0x20 ADD DUP3 DUP1 SLOAD DUP1 ISZERO PUSH2 0x970 JUMPI PUSH1 0x20 MUL DUP3 ADD SWAP2 SWAP1 PUSH0 MSTORE PUSH1 0x20 PUSH0 KECCAK256 SWAP1 JUMPDEST DUP2 PUSH0 SWAP1 SLOAD SWAP1 PUSH2 0x100 EXP SWAP1 DIV PUSH20 0xFFFFFFFFFFFFFFFFFFFFFFFFFFFFFFFFFFFFFFFF AND PUSH20 0xFFFFFFFFFFFFFFFFFFFFFFFFFFFFFFFFFFFFFFFF AND DUP2 MSTORE PUSH1 0x20 ADD SWAP1 PUSH1 0x1 ADD SWAP1 DUP1 DUP4 GT PUSH2 0x927 JUMPI JUMPDEST POP POP POP POP POP SWAP1 POP SWAP1 JUMP JUMPDEST PUSH1 0x1 PUSH0 CALLER PUSH20 0xFFFFFFFFFFFFFFFFFFFFFFFFFFFFFFFFFFFFFFFF AND PUSH20 0xFFFFFFFFFFFFFFFFFFFFFFFFFFFFFFFFFFFFFFFF AND DUP2 MSTORE PUSH1 0x20 ADD SWAP1 DUP2 MSTORE PUSH1 0x20 ADD PUSH0 KECCAK256 PUSH0 SWAP1 SLOAD SWAP1 PUSH2 0x100 EXP SWAP1 DIV PUSH1 0xFF AND PUSH2 0xA03 JUMPI PUSH1 0x40 MLOAD PUSH32 0x8C379A000000000000000000000000000000000000000000000000000000000 DUP2 MSTORE PUSH1 0x4 ADD PUSH2 0x9FA SWAP1 PUSH2 0x1694 JUMP JUMPDEST PUSH1 0x40 MLOAD DUP1 SWAP2 SUB SWAP1 REVERT JUMPDEST DUP1 PUSH1 0x4 DUP1 SLOAD SWAP1 POP DUP2 LT PUSH2 0xA4B JUMPI PUSH1 0x40 MLOAD PUSH32 0x8C379A000000000000000000000000000000000000000000000000000000000 DUP2 MSTORE PUSH1 0x4 ADD PUSH2 0xA42 SWAP1 PUSH2 0x16FC JUMP JUMPDEST PUSH1 0x40 MLOAD DUP1 SWAP2 SUB SWAP1 REVERT JUMPDEST DUP2 PUSH1 0x4 DUP2 DUP2 SLOAD DUP2 LT PUSH2 0xA60 JUMPI PUSH2 0xA5F PUSH2 0x171A JUMP JUMPDEST JUMPDEST SWAP1 PUSH0 MSTORE PUSH1 0x20 PUSH0 KECCAK256 SWAP1 PUSH1 0x5 MUL ADD PUSH1 0x3 ADD PUSH0 SWAP1 SLOAD SWAP1 PUSH2 0x100 EXP SWAP1 DIV PUSH1 0xFF AND ISZERO PUSH2 0xABC JUMPI PUSH1 0x40 MLOAD PUSH32 0x8C379A000000000000000000000000000000000000000000000000000000000 DUP2 MSTORE PUSH1 0x4 ADD PUSH2 0xAB3 SWAP1 PUSH2 0x1791 JUMP JUMPDEST PUSH1 0x40 MLOAD DUP1 SWAP2 SUB SWAP1 REVERT JUMPDEST DUP3 PUSH1 0x3 PUSH0 DUP3 DUP2 MSTORE PUSH1 0x20 ADD SWAP1 DUP2 MSTORE PUSH1 0x20 ADD PUSH0 KECCAK256 PUSH0 CALLER PUSH20 0xFFFFFFFFFFFFFFFFFFFFFFFFFFFFFFFFFFFFFFFF AND PUSH20 0xFFFFFFFFFFFFFFFFFFFFFFFFFFFFFFFFFFFFFFFF AND DUP2 MSTORE PUSH1 0x20 ADD SWAP1 DUP2 MSTORE PUSH1 0x20 ADD PUSH0 KECCAK256 PUSH0 SWAP1 SLOAD SWAP1 PUSH2 0x100 EXP SWAP1 DIV PUSH1 0xFF AND ISZERO PUSH2 0xB56 JUMPI PUSH1 0x40 MLOAD PUSH32 0x8C379A000000000000000000000000000000000000000000000000000000000 DUP2 MSTORE PUSH1 0x4 ADD PUSH2 0xB4D SWAP1 PUSH2 0x191E JUMP JUMPDEST PUSH1 0x40 MLOAD DUP1 SWAP2 SUB SWAP1 REVERT JUMPDEST PUSH0 PUSH1 0x4 DUP6 DUP2 SLOAD DUP2 LT PUSH2 0xB6B JUMPI PUSH2 0xB6A PUSH2 0x171A JUMP JUMPDEST JUMPDEST SWAP1 PUSH0 MSTORE PUSH1 0x20 PUSH0 KECCAK256 SWAP1 PUSH1 0x5 MUL ADD SWAP1 POP PUSH1 0x1 DUP2 PUSH1 0x4 ADD PUSH0 DUP3 DUP3 SLOAD PUSH2 0xB8D SWAP2 SWAP1 PUSH2 0x193C JUMP JUMPDEST SWAP3 POP POP DUP2 SWAP1 SSTORE POP PUSH1 0x1 PUSH1 0x3 PUSH0 DUP8 DUP2 MSTORE PUSH1 0x20 ADD SWAP1 DUP2 MSTORE PUSH1 0x20 ADD PUSH0 KECCAK256 PUSH0 CALLER PUSH20 0xFFFFFFFFFFFFFFFFFFFFFFFFFFFFFFFFFFFFFFFF AND PUSH20 0xFFFFFFFFFFFFFFFFFFFFFFFFFFFFFFFFFFFFFFFF AND DUP2 MSTORE PUSH1 0x20 ADD SWAP1 DUP2 MSTORE PUSH1 0x20 ADD PUSH0 KECCAK256 PUSH0 PUSH2 0x100 EXP DUP2 SLOAD DUP2 PUSH1 0xFF MUL NOT AND SWAP1 DUP4 ISZERO ISZERO MUL OR SWAP1 SSTORE POP DUP5 CALLER PUSH20 0xFFFFFFFFFFFFFFFFFFFFFFFFFFFFFFFFFFFFFFFF AND PUSH32 0x5CBE105E36805F7820E291F799D5794FF948AF2A5F664E580382DEFB63390041 PUSH1 0x40 MLOAD PUSH1 0x40 MLOAD DUP1 SWAP2 SUB SWAP1 LOG3 POP POP POP POP POP JUMP JUMPDEST PUSH1 0x1 PUSH0 CALLER PUSH20 0xFFFFFFFFFFFFFFFFFFFFFFFFFFFFFFFFFFFFFFFF AND PUSH20 0xFFFFFFFFFFFFFFFFFFFFFFFFFFFFFFFFFFFFFFFF AND DUP2 MSTORE PUSH1 0x20 ADD SWAP1 DUP2 MSTORE PUSH1 0x20 ADD PUSH0 KECCAK256 PUSH0 SWAP1 SLOAD SWAP1 PUSH2 0x100 EXP SWAP1 DIV PUSH1 0xFF AND PUSH2 0xCCC JUMPI PUSH1 0x40 MLOAD PUSH32 0x8C379A000000000000000000000000000000000000000000000000000000000 DUP2 MSTORE PUSH1 0x4 ADD PUSH2 0xCC3 SWAP1 PUSH2 0x1694 JUMP JUMPDEST PUSH1 0x40 MLOAD DUP1 SWAP2 SUB SWAP1 REVERT JUMPDEST PUSH0 PUSH1 0x4 DUP1 SLOAD SWAP1 POP SWAP1 POP PUSH1 0x4 PUSH1 0x40 MLOAD DUP1 PUSH1 0xA0 ADD PUSH1 0x40 MSTORE DUP1 DUP7 PUSH20 0xFFFFFFFFFFFFFFFFFFFFFFFFFFFFFFFFFFFFFFFF AND DUP2 MSTORE PUSH1 0x20 ADD DUP6 DUP2 MSTORE PUSH1 0x20 ADD DUP5 DUP2 MSTORE PUSH1 0x20 ADD PUSH0 ISZERO ISZERO DUP2 MSTORE PUSH1 0x20 ADD PUSH0 DUP2 MSTORE POP SWAP1 DUP1 PUSH1 0x1 DUP2 SLOAD ADD DUP1 DUP3 SSTORE DUP1 SWAP2 POP POP PUSH1 0x1 SWAP1 SUB SWAP1 PUSH0 MSTORE PUSH1 0x20 PUSH0 KECCAK256 SWAP1 PUSH1 0x5 MUL ADD PUSH0 SWAP1 SWAP2 SWAP1 SWAP2 SWAP1 SWAP2 POP PUSH0 DUP3 ADD MLOAD DUP2 PUSH0 ADD PUSH0 PUSH2 0x100 EXP DUP2 SLOAD DUP2 PUSH20 0xFFFFFFFFFFFFFFFFFFFFFFFFFFFFFFFFFFFFFFFF MUL NOT AND SWAP1 DUP4 PUSH20 0xFFFFFFFFFFFFFFFFFFFFFFFFFFFFFFFFFFFFFFFF AND MUL OR SWAP1 SSTORE POP PUSH1 0x20 DUP3 ADD MLOAD DUP2 PUSH1 0x1 ADD SSTORE PUSH1 0x40 DUP3 ADD MLOAD DUP2 PUSH1 0x2 ADD SWAP1 DUP2 PUSH2 0xD9F SWAP2 SWAP1 PUSH2 0x1B0F JUMP JUMPDEST POP PUSH1 0x60 DUP3 ADD MLOAD DUP2 PUSH1 0x3 ADD PUSH0 PUSH2 0x100 EXP DUP2 SLOAD DUP2 PUSH1 0xFF MUL NOT AND SWAP1 DUP4 ISZERO ISZERO MUL OR SWAP1 SSTORE POP PUSH1 0x80 DUP3 ADD MLOAD DUP2 PUSH1 0x4 ADD SSTORE POP POP DUP4 PUSH20 0xFFFFFFFFFFFFFFFFFFFFFFFFFFFFFFFFFFFFFFFF AND DUP2 CALLER PUSH20 0xFFFFFFFFFFFFFFFFFFFFFFFFFFFFFFFFFFFFFFFF AND PUSH32 0xD5A05BF70715AD82A09A756320284A1B54C9FF74CD0F8CCE6219E79B563FE59D DUP7 DUP7 PUSH1 0x40 MLOAD PUSH2 0xE2B SWAP3 SWAP2 SWAP1 PUSH2 0x1BDE JUMP JUMPDEST PUSH1 0x40 MLOAD DUP1 SWAP2 SUB SWAP1 LOG4 POP POP POP POP JUMP JUMPDEST PUSH1 0x2 SLOAD DUP2 JUMP JUMPDEST PUSH1 0x1 PUSH0 CALLER PUSH20 0xFFFFFFFFFFFFFFFFFFFFFFFFFFFFFFFFFFFFFFFF AND PUSH20 0xFFFFFFFFFFFFFFFFFFFFFFFFFFFFFFFFFFFFFFFF AND DUP2 MSTORE PUSH1 0x20 ADD SWAP1 DUP2 MSTORE PUSH1 0x20 ADD PUSH0 KECCAK256 PUSH0 SWAP1 SLOAD SWAP1 PUSH2 0x100 EXP SWAP1 DIV PUSH1 0xFF AND PUSH2 0xEC8 JUMPI PUSH1 0x40 MLOAD PUSH32 0x8C379A000000000000000000000000000000000000000000000000000000000 DUP2 MSTORE PUSH1 0x4 ADD PUSH2 0xEBF SWAP1 PUSH2 0x1694 JUMP JUMPDEST PUSH1 0x40 MLOAD DUP1 SWAP2 SUB SWAP1 REVERT JUMPDEST DUP1 PUSH1 0x4 DUP1 SLOAD SWAP1 POP DUP2 LT PUSH2 0xF10 JUMPI PUSH1 0x40 MLOAD PUSH32 0x8C379A000000000000000000000000000000000000000000000000000000000 DUP2 MSTORE PUSH1 0x4 ADD PUSH2 0xF07 SWAP1 PUSH2 0x16FC JUMP JUMPDEST PUSH1 0x40 MLOAD DUP1 SWAP2 SUB SWAP1 REVERT JUMPDEST DUP2 PUSH1 0x4 DUP2 DUP2 SLOAD DUP2 LT PUSH2 0xF25 JUMPI PUSH2 0xF24 PUSH2 0x171A JUMP JUMPDEST JUMPDEST SWAP1 PUSH0 MSTORE PUSH1 0x20 PUSH0 KECCAK256 SWAP1 PUSH1 0x5 MUL ADD PUSH1 0x3 ADD PUSH0 SWAP1 SLOAD SWAP1 PUSH2 0x100 EXP SWAP1 DIV PUSH1 0xFF AND ISZERO PUSH2 0xF81 JUMPI PUSH1 0x40 MLOAD PUSH32 0x8C379A000000000000000000000000000000000000000000000000000000000 DUP2 MSTORE PUSH1 0x4 ADD PUSH2 0xF78 SWAP1 PUSH2 0x1791 JUMP JUMPDEST PUSH1 0x40 MLOAD DUP1 SWAP2 SUB SWAP1 REVERT JUMPDEST PUSH0 PUSH1 0x4 DUP5 DUP2 SLOAD DUP2 LT PUSH2 0xF96 JUMPI PUSH2 0xF95 PUSH2 0x171A JUMP JUMPDEST JUMPDEST SWAP1 PUSH0 MSTORE PUSH1 0x20 PUSH0 KECCAK256 SWAP1 PUSH1 0x5 MUL ADD SWAP1 POP PUSH1 0x2 SLOAD DUP2 PUSH1 0x4 ADD SLOAD LT ISZERO PUSH2 0xFED JUMPI PUSH1 0x40 MLOAD PUSH32 0x8C379A000000000000000000000000000000000000000000000000000000000 DUP2 MSTORE PUSH1 0x4 ADD PUSH2 0xFE4 SWAP1 PUSH2 0x1C7C JUMP JUMPDEST PUSH1 0x40 MLOAD DUP1 SWAP2 SUB SWAP1 REVERT JUMPDEST PUSH1 0x1 DUP2 PUSH1 0x3 ADD PUSH0 PUSH2 0x100 EXP DUP2 SLOAD DUP2 PUSH1 0xFF MUL NOT AND SWAP1 DUP4 ISZERO ISZERO MUL OR SWAP1 SSTORE POP PUSH0 DUP2 PUSH0 ADD PUSH0 SWAP1 SLOAD SWAP1 PUSH2 0x100 EXP SWAP1 DIV PUSH20 0xFFFFFFFFFFFFFFFFFFFFFFFFFFFFFFFFFFFFFFFF AND PUSH20 0xFFFFFFFFFFFFFFFFFFFFFFFFFFFFFFFFFFFFFFFF AND DUP3 PUSH1 0x1 ADD SLOAD DUP4 PUSH1 0x2 ADD PUSH1 0x40 MLOAD PUSH2 0x1059 SWAP2 SWAP1 PUSH2 0x1D24 JUMP JUMPDEST PUSH0 PUSH1 0x40 MLOAD DUP1 DUP4 SUB DUP2 DUP6 DUP8 GAS CALL SWAP3 POP POP POP RETURNDATASIZE DUP1 PUSH0 DUP2 EQ PUSH2 0x1093 JUMPI PUSH1 0x40 MLOAD SWAP2 POP PUSH1 0x1F NOT PUSH1 0x3F RETURNDATASIZE ADD AND DUP3 ADD PUSH1 0x40 MSTORE RETURNDATASIZE DUP3 MSTORE RETURNDATASIZE PUSH0 PUSH1 0x20 DUP5 ADD RETURNDATACOPY PUSH2 0x1098 JUMP JUMPDEST PUSH1 0x60 SWAP2 POP JUMPDEST POP POP SWAP1 POP DUP1 PUSH2 0x10DC JUMPI PUSH1 0x40 MLOAD PUSH32 0x8C379A000000000000000000000000000000000000000000000000000000000 DUP2 MSTORE PUSH1 0x4 ADD PUSH2 0x10D3 SWAP1 PUSH2 0x1D84 JUMP JUMPDEST PUSH1 0x40 MLOAD DUP1 SWAP2 SUB SWAP1 REVERT JUMPDEST DUP5 CALLER PUSH20 0xFFFFFFFFFFFFFFFFFFFFFFFFFFFFFFFFFFFFFFFF AND PUSH32 0x5445F318F4F5FCFB66592E68E0CC5822AA15664039BD5F0FFDE24C5A8142B1AC PUSH1 0x40 MLOAD PUSH1 0x40 MLOAD DUP1 SWAP2 SUB SWAP1 LOG3 POP POP POP POP POP JUMP JUMPDEST PUSH0 DUP2 SWAP1 POP SWAP2 SWAP1 POP JUMP JUMPDEST PUSH2 0x1139 DUP2 PUSH2 0x1127 JUMP JUMPDEST DUP3 MSTORE POP POP JUMP JUMPDEST PUSH0 PUSH1 0x40 DUP3 ADD SWAP1 POP PUSH2 0x1152 PUSH0 DUP4 ADD DUP6 PUSH2 0x1130 JUMP JUMPDEST PUSH2 0x115F PUSH1 0x20 DUP4 ADD DUP5 PUSH2 0x1130 JUMP JUMPDEST SWAP4 SWAP3 POP POP POP JUMP JUMPDEST PUSH0 PUSH1 0x40 MLOAD SWAP1 POP SWAP1 JUMP JUMPDEST PUSH0 PUSH0 REVERT JUMPDEST PUSH0 PUSH0 REVERT JUMPDEST PUSH2 0x1180 DUP2 PUSH2 0x1127 JUMP JUMPDEST DUP2 EQ PUSH2 0x118A JUMPI PUSH0 PUSH0 REVERT JUMPDEST POP JUMP JUMPDEST PUSH0 DUP2 CALLDATALOAD SWAP1 POP PUSH2 0x119B DUP2 PUSH2 0x1177 JUMP JUMPDEST SWAP3 SWAP2 POP POP JUMP JUMPDEST PUSH0 PUSH1 0x20 DUP3 DUP5 SUB SLT ISZERO PUSH2 0x11B6 JUMPI PUSH2 0x11B5 PUSH2 0x116F JUMP JUMPDEST JUMPDEST PUSH0 PUSH2 0x11C3 DUP5 DUP3 DUP6 ADD PUSH2 0x118D JUMP JUMPDEST SWAP2 POP POP SWAP3 SWAP2 POP POP JUMP JUMPDEST PUSH0 PUSH20 0xFFFFFFFFFFFFFFFFFFFFFFFFFFFFFFFFFFFFFFFF DUP3 AND SWAP1 POP SWAP2 SWAP1 POP JUMP JUMPDEST PUSH0 PUSH2 0x11F5 DUP3 PUSH2 0x11CC JUMP JUMPDEST SWAP1 POP SWAP2 SWAP1 POP JUMP JUMPDEST PUSH2 0x1205 DUP2 PUSH2 0x11EB JUMP JUMPDEST DUP3 MSTORE POP POP JUMP JUMPDEST PUSH0 PUSH1 0x20 DUP3 ADD SWAP1 POP PUSH2 0x121E PUSH0 DUP4 ADD DUP5 PUSH2 0x11FC JUMP JUMPDEST SWAP3 SWAP2 POP POP JUMP JUMPDEST PUSH0 PUSH1 0x20 DUP3 ADD SWAP1 POP PUSH2 0x1237 PUSH0 DUP4 ADD DUP5 PUSH2 0x1130 JUMP JUMPDEST SWAP3 SWAP2 POP POP JUMP JUMPDEST PUSH2 0x1246 DUP2 PUSH2 0x11EB JUMP JUMPDEST DUP2 EQ PUSH2 0x1250 JUMPI PUSH0 PUSH0 REVERT JUMPDEST POP JUMP JUMPDEST PUSH0 DUP2 CALLDATALOAD SWAP1 POP PUSH2 0x1261 DUP2 PUSH2 0x123D JUMP JUMPDEST SWAP3 SWAP2 POP POP JUMP JUMPDEST PUSH0 PUSH1 0x20 DUP3 DUP5 SUB SLT ISZERO PUSH2 0x127C JUMPI PUSH2 0x127B PUSH2 0x116F JUMP JUMPDEST JUMPDEST PUSH0 PUSH2 0x1289 DUP5 DUP3 DUP6 ADD PUSH2 0x1253 JUMP JUMPDEST SWAP2 POP POP SWAP3 SWAP2 POP POP JUMP JUMPDEST PUSH0 DUP2 ISZERO ISZERO SWAP1 POP SWAP2 SWAP1 POP JUMP JUMPDEST PUSH2 0x12A6 DUP2 PUSH2 0x1292 JUMP JUMPDEST DUP3 MSTORE POP POP JUMP JUMPDEST PUSH0 PUSH1 0x20 DUP3 ADD SWAP1 POP PUSH2 0x12BF PUSH0 DUP4 ADD DUP5 PUSH2 0x129D JUMP JUMPDEST SWAP3 SWAP2 POP POP JUMP JUMPDEST PUSH0 DUP2 MLOAD SWAP1 POP SWAP2 SWAP1 POP JUMP JUMPDEST PUSH0 DUP3 DUP3 MSTORE PUSH1 0x20 DUP3 ADD SWAP1 POP SWAP3 SWAP2 POP POP JUMP JUMPDEST DUP3 DUP2 DUP4 MCOPY PUSH0 DUP4 DUP4 ADD MSTORE POP POP POP JUMP JUMPDEST PUSH0 PUSH1 0x1F NOT PUSH1 0x1F DUP4 ADD AND SWAP1 POP SWAP2 SWAP1 POP JUMP JUMPDEST PUSH0 PUSH2 0x1307 DUP3 PUSH2 0x12C5 JUMP JUMPDEST PUSH2 0x1311 DUP2 DUP6 PUSH2 0x12CF JUMP JUMPDEST SWAP4 POP PUSH2 0x1321 DUP2 DUP6 PUSH1 0x20 DUP7 ADD PUSH2 0x12DF JUMP JUMPDEST PUSH2 0x132A DUP2 PUSH2 0x12ED JUMP JUMPDEST DUP5 ADD SWAP2 POP POP SWAP3 SWAP2 POP POP JUMP JUMPDEST PUSH0 PUSH1 0xA0 DUP3 ADD SWAP1 POP PUSH2 0x1348 PUSH0 DUP4 ADD DUP9 PUSH2 0x11FC JUMP JUMPDEST PUSH2 0x1355 PUSH1 0x20 DUP4 ADD DUP8 PUSH2 0x1130 JUMP JUMPDEST DUP2 DUP2 SUB PUSH1 0x40 DUP4 ADD MSTORE PUSH2 0x1367 DUP2 DUP7 PUSH2 0x12FD JUMP JUMPDEST SWAP1 POP PUSH2 0x1376 PUSH1 0x60 DUP4 ADD DUP6 PUSH2 0x129D JUMP JUMPDEST PUSH2 0x1383 PUSH1 0x80 DUP4 ADD DUP5 PUSH2 0x1130 JUMP JUMPDEST SWAP7 SWAP6 POP POP POP POP POP POP JUMP JUMPDEST PUSH0 PUSH0 PUSH1 0x40 DUP4 DUP6 SUB SLT ISZERO PUSH2 0x13A3 JUMPI PUSH2 0x13A2 PUSH2 0x116F JUMP JUMPDEST JUMPDEST PUSH0 PUSH2 0x13B0 DUP6 DUP3 DUP7 ADD PUSH2 0x118D JUMP JUMPDEST SWAP3 POP POP PUSH1 0x20 PUSH2 0x13C1 DUP6 DUP3 DUP7 ADD PUSH2 0x1253 JUMP JUMPDEST SWAP2 POP POP SWAP3 POP SWAP3 SWAP1 POP JUMP JUMPDEST PUSH0 DUP2 MLOAD SWAP1 POP SWAP2 SWAP1 POP JUMP JUMPDEST PUSH0 DUP3 DUP3 MSTORE PUSH1 0x20 DUP3 ADD SWAP1 POP SWAP3 SWAP2 POP POP JUMP JUMPDEST PUSH0 DUP2 SWAP1 POP PUSH1 0x20 DUP3 ADD SWAP1 POP SWAP2 SWAP1 POP JUMP JUMPDEST PUSH2 0x13FD DUP2 PUSH2 0x11EB JUMP JUMPDEST DUP3 MSTORE POP POP JUMP JUMPDEST PUSH0 PUSH2 0x140E DUP4 DUP4 PUSH2 0x13F4 JUMP JUMPDEST PUSH1 0x20 DUP4 ADD SWAP1 POP SWAP3 SWAP2 POP POP JUMP JUMPDEST PUSH0 PUSH1 0x20 DUP3 ADD SWAP1 POP SWAP2 SWAP1 POP JUMP JUMPDEST PUSH0 PUSH2 0x1430 DUP3 PUSH2 0x13CB JUMP JUMPDEST PUSH2 0x143A DUP2 DUP6 PUSH2 0x13D5 JUMP JUMPDEST SWAP4 POP PUSH2 0x1445 DUP4 PUSH2 0x13E5 JUMP JUMPDEST DUP1 PUSH0 JUMPDEST DUP4 DUP2 LT ISZERO PUSH2 0x1475 JUMPI DUP2 MLOAD PUSH2 0x145C DUP9 DUP3 PUSH2 0x1403 JUMP JUMPDEST SWAP8 POP PUSH2 0x1467 DUP4 PUSH2 0x141A JUMP JUMPDEST SWAP3 POP POP PUSH1 0x1 DUP2 ADD SWAP1 POP PUSH2 0x1448 JUMP JUMPDEST POP DUP6 SWAP4 POP POP POP POP SWAP3 SWAP2 POP POP JUMP JUMPDEST PUSH0 PUSH1 0x20 DUP3 ADD SWAP1 POP DUP2 DUP2 SUB PUSH0 DUP4 ADD MSTORE PUSH2 0x149A DUP2 DUP5 PUSH2 0x1426 JUMP JUMPDEST SWAP1 POP SWAP3 SWAP2 POP POP JUMP JUMPDEST PUSH0 PUSH0 REVERT JUMPDEST PUSH0 PUSH0 REVERT JUMPDEST PUSH32 0x4E487B7100000000000000000000000000000000000000000000000000000000 PUSH0 MSTORE PUSH1 0x41 PUSH1 0x4 MSTORE PUSH1 0x24 PUSH0 REVERT JUMPDEST PUSH2 0x14E0 DUP3 PUSH2 0x12ED JUMP JUMPDEST DUP2 ADD DUP2 DUP2 LT PUSH8 0xFFFFFFFFFFFFFFFF DUP3 GT OR ISZERO PUSH2 0x14FF JUMPI PUSH2 0x14FE PUSH2 0x14AA JUMP JUMPDEST JUMPDEST DUP1 PUSH1 0x40 MSTORE POP POP POP JUMP JUMPDEST PUSH0 PUSH2 0x1511 PUSH2 0x1166 JUMP JUMPDEST SWAP1 POP PUSH2 0x151D DUP3 DUP3 PUSH2 0x14D7 JUMP JUMPDEST SWAP2 SWAP1 POP JUMP JUMPDEST PUSH0 PUSH8 0xFFFFFFFFFFFFFFFF DUP3 GT ISZERO PUSH2 0x153C JUMPI PUSH2 0x153B PUSH2 0x14AA JUMP JUMPDEST JUMPDEST PUSH2 0x1545 DUP3 PUSH2 0x12ED JUMP JUMPDEST SWAP1 POP PUSH1 0x20 DUP2 ADD SWAP1 POP SWAP2 SWAP1 POP JUMP JUMPDEST DUP3 DUP2 DUP4 CALLDATACOPY PUSH0 DUP4 DUP4 ADD MSTORE POP POP POP JUMP JUMPDEST PUSH0 PUSH2 0x1572 PUSH2 0x156D DUP5 PUSH2 0x1522 JUMP JUMPDEST PUSH2 0x1508 JUMP JUMPDEST SWAP1 POP DUP3 DUP2 MSTORE PUSH1 0x20 DUP2 ADD DUP5 DUP5 DUP5 ADD GT ISZERO PUSH2 0x158E JUMPI PUSH2 0x158D PUSH2 0x14A6 JUMP JUMPDEST JUMPDEST PUSH2 0x1599 DUP5 DUP3 DUP6 PUSH2 0x1552 JUMP JUMPDEST POP SWAP4 SWAP3 POP POP POP JUMP JUMPDEST PUSH0 DUP3 PUSH1 0x1F DUP4 ADD SLT PUSH2 0x15B5 JUMPI PUSH2 0x15B4 PUSH2 0x14A2 JUMP JUMPDEST JUMPDEST DUP2 CALLDATALOAD PUSH2 0x15C5 DUP5 DUP3 PUSH1 0x20 DUP7 ADD PUSH2 0x1560 JUMP JUMPDEST SWAP2 POP POP SWAP3 SWAP2 POP POP JUMP JUMPDEST PUSH0 PUSH0 PUSH0 PUSH1 0x60 DUP5 DUP7 SUB SLT ISZERO PUSH2 0x15E5 JUMPI PUSH2 0x15E4 PUSH2 0x116F JUMP JUMPDEST JUMPDEST PUSH0 PUSH2 0x15F2 DUP7 DUP3 DUP8 ADD PUSH2 0x1253 JUMP JUMPDEST SWAP4 POP POP PUSH1 0x20 PUSH2 0x1603 DUP7 DUP3 DUP8 ADD PUSH2 0x118D JUMP JUMPDEST SWAP3 POP POP PUSH1 0x40 DUP5 ADD CALLDATALOAD PUSH8 0xFFFFFFFFFFFFFFFF DUP2 GT ISZERO PUSH2 0x1624 JUMPI PUSH2 0x1623 PUSH2 0x1173 JUMP JUMPDEST JUMPDEST PUSH2 0x1630 DUP7 DUP3 DUP8 ADD PUSH2 0x15A1 JUMP JUMPDEST SWAP2 POP POP SWAP3 POP SWAP3 POP SWAP3 JUMP JUMPDEST PUSH0 DUP3 DUP3 MSTORE PUSH1 0x20 DUP3 ADD SWAP1 POP SWAP3 SWAP2 POP POP JUMP JUMPDEST PUSH32 0x6E6F74206F776E65720000000000000000000000000000000000000000000000 PUSH0 DUP3 ADD MSTORE POP JUMP JUMPDEST PUSH0 PUSH2 0x167E PUSH1 0x9 DUP4 PUSH2 0x163A JUMP JUMPDEST SWAP2 POP PUSH2 0x1689 DUP3 PUSH2 0x164A JUMP JUMPDEST PUSH1 0x20 DUP3 ADD SWAP1 POP SWAP2 SWAP1 POP JUMP JUMPDEST PUSH0 PUSH1 0x20 DUP3 ADD SWAP1 POP DUP2 DUP2 SUB PUSH0 DUP4 ADD MSTORE PUSH2 0x16AB DUP2 PUSH2 0x1672 JUMP JUMPDEST SWAP1 POP SWAP2 SWAP1 POP JUMP JUMPDEST PUSH32 0x74786E20646F6573206E6F742065786973740000000000000000000000000000 PUSH0 DUP3 ADD MSTORE POP JUMP JUMPDEST PUSH0 PUSH2 0x16E6 PUSH1 0x12 DUP4 PUSH2 0x163A JUMP JUMPDEST SWAP2 POP PUSH2 0x16F1 DUP3 PUSH2 0x16B2 JUMP JUMPDEST PUSH1 0x20 DUP3 ADD SWAP1 POP SWAP2 SWAP1 POP JUMP JUMPDEST PUSH0 PUSH1 0x20 DUP3 ADD SWAP1 POP DUP2 DUP2 SUB PUSH0 DUP4 ADD MSTORE PUSH2 0x1713 DUP2 PUSH2 0x16DA JUMP JUMPDEST SWAP1 POP SWAP2 SWAP1 POP JUMP JUMPDEST PUSH32 0x4E487B7100000000000000000000000000000000000000000000000000000000 PUSH0 MSTORE PUSH1 0x32 PUSH1 0x4 MSTORE PUSH1 0x24 PUSH0 REVERT JUMPDEST PUSH32 0x747820616C726561647920657865637574656400000000000000000000000000 PUSH0 DUP3 ADD MSTORE POP JUMP JUMPDEST PUSH0 PUSH2 0x177B PUSH1 0x13 DUP4 PUSH2 0x163A JUMP JUMPDEST SWAP2 POP PUSH2 0x1786 DUP3 PUSH2 0x1747 JUMP JUMPDEST PUSH1 0x20 DUP3 ADD SWAP1 POP SWAP2 SWAP1 POP JUMP JUMPDEST PUSH0 PUSH1 0x20 DUP3 ADD SWAP1 POP DUP2 DUP2 SUB PUSH0 DUP4 ADD MSTORE PUSH2 0x17A8 DUP2 PUSH2 0x176F JUMP JUMPDEST SWAP1 POP SWAP2 SWAP1 POP JUMP JUMPDEST PUSH32 0x7478206E6F7420636F6E66696D72656400000000000000000000000000000000 PUSH0 DUP3 ADD MSTORE POP JUMP JUMPDEST PUSH0 PUSH2 0x17E3 PUSH1 0x10 DUP4 PUSH2 0x163A JUMP JUMPDEST SWAP2 POP PUSH2 0x17EE DUP3 PUSH2 0x17AF JUMP JUMPDEST PUSH1 0x20 DUP3 ADD SWAP1 POP SWAP2 SWAP1 POP JUMP JUMPDEST PUSH0 PUSH1 0x20 DUP3 ADD SWAP1 POP DUP2 DUP2 SUB PUSH0 DUP4 ADD MSTORE PUSH2 0x1810 DUP2 PUSH2 0x17D7 JUMP JUMPDEST SWAP1 POP SWAP2 SWAP1 POP JUMP JUMPDEST PUSH32 0x4E487B7100000000000000000000000000000000000000000000000000000000 PUSH0 MSTORE PUSH1 0x11 PUSH1 0x4 MSTORE PUSH1 0x24 PUSH0 REVERT JUMPDEST PUSH0 PUSH2 0x184E DUP3 PUSH2 0x1127 JUMP JUMPDEST SWAP2 POP PUSH2 0x1859 DUP4 PUSH2 0x1127 JUMP JUMPDEST SWAP3 POP DUP3 DUP3 SUB SWAP1 POP DUP2 DUP2 GT ISZERO PUSH2 0x1871 JUMPI PUSH2 0x1870 PUSH2 0x1817 JUMP JUMPDEST JUMPDEST SWAP3 SWAP2 POP POP JUMP JUMPDEST PUSH32 0x4E487B7100000000000000000000000000000000000000000000000000000000 PUSH0 MSTORE PUSH1 0x22 PUSH1 0x4 MSTORE PUSH1 0x24 PUSH0 REVERT JUMPDEST PUSH0 PUSH1 0x2 DUP3 DIV SWAP1 POP PUSH1 0x1 DUP3 AND DUP1 PUSH2 0x18BB JUMPI PUSH1 0x7F DUP3 AND SWAP2 POP JUMPDEST PUSH1 0x20 DUP3 LT DUP2 SUB PUSH2 0x18CE JUMPI PUSH2 0x18CD PUSH2 0x1877 JUMP JUMPDEST JUMPDEST POP SWAP2 SWAP1 POP JUMP JUMPDEST PUSH32 0x747820616C726561647920636F6E6669726D6564000000000000000000000000 PUSH0 DUP3 ADD MSTORE POP JUMP JUMPDEST PUSH0 PUSH2 0x1908 PUSH1 0x14 DUP4 PUSH2 0x163A JUMP JUMPDEST SWAP2 POP PUSH2 0x1913 DUP3 PUSH2 0x18D4 JUMP JUMPDEST PUSH1 0x20 DUP3 ADD SWAP1 POP SWAP2 SWAP1 POP JUMP JUMPDEST PUSH0 PUSH1 0x20 DUP3 ADD SWAP1 POP DUP2 DUP2 SUB PUSH0 DUP4 ADD MSTORE PUSH2 0x1935 DUP2 PUSH2 0x18FC JUMP JUMPDEST SWAP1 POP SWAP2 SWAP1 POP JUMP JUMPDEST PUSH0 PUSH2 0x1946 DUP3 PUSH2 0x1127 JUMP JUMPDEST SWAP2 POP PUSH2 0x1951 DUP4 PUSH2 0x1127 JUMP JUMPDEST SWAP3 POP DUP3 DUP3 ADD SWAP1 POP DUP1 DUP3 GT ISZERO PUSH2 0x1969 JUMPI PUSH2 0x1968 PUSH2 0x1817 JUMP JUMPDEST JUMPDEST SWAP3 SWAP2 POP POP JUMP JUMPDEST PUSH0 DUP2 SWAP1 POP DUP2 PUSH0 MSTORE PUSH1 0x20 PUSH0 KECCAK256 SWAP1 POP SWAP2 SWAP1 POP JUMP JUMPDEST PUSH0 PUSH1 0x20 PUSH1 0x1F DUP4 ADD DIV SWAP1 POP SWAP2 SWAP1 POP JUMP JUMPDEST PUSH0 DUP3 DUP3 SHL SWAP1 POP SWAP3 SWAP2 POP POP JUMP JUMPDEST PUSH0 PUSH1 0x8 DUP4 MUL PUSH2 0x19CB PUSH32 0xFFFFFFFFFFFFFFFFFFFFFFFFFFFFFFFFFFFFFFFFFFFFFFFFFFFFFFFFFFFFFFFF DUP3 PUSH2 0x1990 JUMP JUMPDEST PUSH2 0x19D5 DUP7 DUP4 PUSH2 0x1990 JUMP JUMPDEST SWAP6 POP DUP1 NOT DUP5 AND SWAP4 POP DUP1 DUP7 AND DUP5 OR SWAP3 POP POP POP SWAP4 SWAP3 POP POP POP JUMP JUMPDEST PUSH0 DUP2 SWAP1 POP SWAP2 SWAP1 POP JUMP JUMPDEST PUSH0 PUSH2 0x1A10 PUSH2 0x1A0B PUSH2 0x1A06 DUP5 PUSH2 0x1127 JUMP JUMPDEST PUSH2 0x19ED JUMP JUMPDEST PUSH2 0x1127 JUMP JUMPDEST SWAP1 POP SWAP2 SWAP1 POP JUMP JUMPDEST PUSH0 DUP2 SWAP1 POP SWAP2 SWAP1 POP JUMP JUMPDEST PUSH2 0x1A29 DUP4 PUSH2 0x19F6 JUMP JUMPDEST PUSH2 0x1A3D PUSH2 0x1A35 DUP3 PUSH2 0x1A17 JUMP JUMPDEST DUP5 DUP5 SLOAD PUSH2 0x199C JUMP JUMPDEST DUP3 SSTORE POP POP POP POP JUMP JUMPDEST PUSH0 PUSH0 SWAP1 POP SWAP1 JUMP JUMPDEST PUSH2 0x1A54 PUSH2 0x1A45 JUMP JUMPDEST PUSH2 0x1A5F DUP2 DUP5 DUP5 PUSH2 0x1A20 JUMP JUMPDEST POP POP POP JUMP JUMPDEST JUMPDEST DUP2 DUP2 LT ISZERO PUSH2 0x1A82 JUMPI PUSH2 0x1A77 PUSH0 DUP3 PUSH2 0x1A4C JUMP JUMPDEST PUSH1 0x1 DUP2 ADD SWAP1 POP PUSH2 0x1A65 JUMP JUMPDEST POP POP JUMP JUMPDEST PUSH1 0x1F DUP3 GT ISZERO PUSH2 0x1AC7 JUMPI PUSH2 0x1A98 DUP2 PUSH2 0x196F JUMP JUMPDEST PUSH2 0x1AA1 DUP5 PUSH2 0x1981 JUMP JUMPDEST DUP2 ADD PUSH1 0x20 DUP6 LT ISZERO PUSH2 0x1AB0 JUMPI DUP2 SWAP1 POP JUMPDEST PUSH2 0x1AC4 PUSH2 0x1ABC DUP6 PUSH2 0x1981 JUMP JUMPDEST DUP4 ADD DUP3 PUSH2 0x1A64 JUMP JUMPDEST POP POP JUMPDEST POP POP POP JUMP JUMPDEST PUSH0 DUP3 DUP3 SHR SWAP1 POP SWAP3 SWAP2 POP POP JUMP JUMPDEST PUSH0 PUSH2 0x1AE7 PUSH0 NOT DUP5 PUSH1 0x8 MUL PUSH2 0x1ACC JUMP JUMPDEST NOT DUP1 DUP4 AND SWAP2 POP POP SWAP3 SWAP2 POP POP JUMP JUMPDEST PUSH0 PUSH2 0x1AFF DUP4 DUP4 PUSH2 0x1AD8 JUMP JUMPDEST SWAP2 POP DUP3 PUSH1 0x2 MUL DUP3 OR SWAP1 POP SWAP3 SWAP2 POP POP JUMP JUMPDEST PUSH2 0x1B18 DUP3 PUSH2 0x12C5 JUMP JUMPDEST PUSH8 0xFFFFFFFFFFFFFFFF DUP2 GT ISZERO PUSH2 0x1B31 JUMPI PUSH2 0x1B30 PUSH2 0x14AA JUMP JUMPDEST JUMPDEST PUSH2 0x1B3B DUP3 SLOAD PUSH2 0x18A4 JUMP JUMPDEST PUSH2 0x1B46 DUP3 DUP3 DUP6 PUSH2 0x1A86 JUMP JUMPDEST PUSH0 PUSH1 0x20 SWAP1 POP PUSH1 0x1F DUP4 GT PUSH1 0x1 DUP2 EQ PUSH2 0x1B77 JUMPI PUSH0 DUP5 ISZERO PUSH2 0x1B65 JUMPI DUP3 DUP8 ADD MLOAD SWAP1 POP JUMPDEST PUSH2 0x1B6F DUP6 DUP3 PUSH2 0x1AF4 JUMP JUMPDEST DUP7 SSTORE POP PUSH2 0x1BD6 JUMP JUMPDEST PUSH1 0x1F NOT DUP5 AND PUSH2 0x1B85 DUP7 PUSH2 0x196F JUMP JUMPDEST PUSH0 JUMPDEST DUP3 DUP2 LT ISZERO PUSH2 0x1BAC JUMPI DUP5 DUP10 ADD MLOAD DUP3 SSTORE PUSH1 0x1 DUP3 ADD SWAP2 POP PUSH1 0x20 DUP6 ADD SWAP5 POP PUSH1 0x20 DUP2 ADD SWAP1 POP PUSH2 0x1B87 JUMP JUMPDEST DUP7 DUP4 LT ISZERO PUSH2 0x1BC9 JUMPI DUP5 DUP10 ADD MLOAD PUSH2 0x1BC5 PUSH1 0x1F DUP10 AND DUP3 PUSH2 0x1AD8 JUMP JUMPDEST DUP4 SSTORE POP JUMPDEST PUSH1 0x1 PUSH1 0x2 DUP9 MUL ADD DUP9 SSTORE POP POP POP JUMPDEST POP POP POP POP POP POP JUMP JUMPDEST PUSH0 PUSH1 0x40 DUP3 ADD SWAP1 POP PUSH2 0x1BF1 PUSH0 DUP4 ADD DUP6 PUSH2 0x1130 JUMP JUMPDEST DUP2 DUP2 SUB PUSH1 0x20 DUP4 ADD MSTORE PUSH2 0x1C03 DUP2 DUP5 PUSH2 0x12FD JUMP JUMPDEST SWAP1 POP SWAP4 SWAP3 POP POP POP JUMP JUMPDEST PUSH32 0x63616E6E6F7420657865637574652074786E2C206E6F7420656E6F7567682063 PUSH0 DUP3 ADD MSTORE PUSH32 0x6F6E6669726D6174696F6E730000000000000000000000000000000000000000 PUSH1 0x20 DUP3 ADD MSTORE POP JUMP JUMPDEST PUSH0 PUSH2 0x1C66 PUSH1 0x2C DUP4 PUSH2 0x163A JUMP JUMPDEST SWAP2 POP PUSH2 0x1C71 DUP3 PUSH2 0x1C0C JUMP JUMPDEST PUSH1 0x40 DUP3 ADD SWAP1 POP SWAP2 SWAP1 POP JUMP JUMPDEST PUSH0 PUSH1 0x20 DUP3 ADD SWAP1 POP DUP2 DUP2 SUB PUSH0 DUP4 ADD MSTORE PUSH2 0x1C93 DUP2 PUSH2 0x1C5A JUMP JUMPDEST SWAP1 POP SWAP2 SWAP1 POP JUMP JUMPDEST PUSH0 DUP2 SWAP1 POP SWAP3 SWAP2 POP POP JUMP JUMPDEST PUSH0 DUP2 SLOAD PUSH2 0x1CB0 DUP2 PUSH2 0x18A4 JUMP JUMPDEST PUSH2 0x1CBA DUP2 DUP7 PUSH2 0x1C9A JUMP JUMPDEST SWAP5 POP PUSH1 0x1 DUP3 AND PUSH0 DUP2 EQ PUSH2 0x1CD4 JUMPI PUSH1 0x1 DUP2 EQ PUSH2 0x1CE9 JUMPI PUSH2 0x1D1B JUMP JUMPDEST PUSH1 0xFF NOT DUP4 AND DUP7 MSTORE DUP2 ISZERO ISZERO DUP3 MUL DUP7 ADD SWAP4 POP PUSH2 0x1D1B JUMP JUMPDEST PUSH2 0x1CF2 DUP6 PUSH2 0x196F JUMP JUMPDEST PUSH0 JUMPDEST DUP4 DUP2 LT ISZERO PUSH2 0x1D13 JUMPI DUP2 SLOAD DUP2 DUP10 ADD MSTORE PUSH1 0x1 DUP3 ADD SWAP2 POP PUSH1 0x20 DUP2 ADD SWAP1 POP PUSH2 0x1CF4 JUMP JUMPDEST DUP4 DUP9 ADD SWAP6 POP POP POP JUMPDEST POP POP POP SWAP3 SWAP2 POP POP JUMP JUMPDEST PUSH0 PUSH2 0x1D2F DUP3 DUP5 PUSH2 0x1CA4 JUMP JUMPDEST SWAP2 POP DUP2 SWAP1 POP SWAP3 SWAP2 POP POP JUMP JUMPDEST PUSH32 0x74786E206661696C656400000000000000000000000000000000000000000000 PUSH0 DUP3 ADD MSTORE POP JUMP JUMPDEST PUSH0 PUSH2 0x1D6E PUSH1 0xA DUP4 PUSH2 0x163A JUMP JUMPDEST SWAP2 POP PUSH2 0x1D79 DUP3 PUSH2 0x1D3A JUMP JUMPDEST PUSH1 0x20 DUP3 ADD SWAP1 POP SWAP2 SWAP1 POP JUMP JUMPDEST PUSH0 PUSH1 0x20 DUP3 ADD SWAP1 POP DUP2 DUP2 SUB PUSH0 DUP4 ADD MSTORE PUSH2 0x1D9B DUP2 PUSH2 0x1D62 JUMP JUMPDEST SWAP1 POP SWAP2 SWAP1 POP JUMP INVALID LOG2 PUSH5 0x6970667358 0x22 SLT KECCAK256 PUSH21 0x97D5C8353B795A20A800B87AAA8A089E234A264E15 JUMPF 0xDBDF PUSH16 0x2DA8C58862C164736F6C634300081F00 CALLER "
				},
				"gasEstimates": {
					"creation": {
						"codeDepositCost": "1528000",
						"executionCost": "infinite",
						"totalCost": "infinite"
					},
					"external": {
						"confirmTransaction(uint256)": "infinite",
						"executeTransaction(uint256)": "infinite",
						"getBalanceOfContract()": "379",
						"getOwners()": "infinite",
						"getTransaction(uint256)": "infinite",
						"getTransactionCount()": "2507",
						"isConfirmed(uint256,address)": "3093",
						"isOwner(address)": "2922",
						"numConfirmationsRequired()": "2491",
						"owners(uint256)": "4944",
						"revokeConfirmation(uint256)": "infinite",
						"submitTransaction(address,uint256,bytes)": "infinite",
						"transactions(uint256)": "infinite"
					}
				},
				"methodIdentifiers": {
					"confirmTransaction(uint256)": "c01a8c84",
					"executeTransaction(uint256)": "ee22610b",
					"getBalanceOfContract()": "22968885",
					"getOwners()": "a0e67e2b",
					"getTransaction(uint256)": "33ea3dc8",
					"getTransactionCount()": "2e7700f0",
					"isConfirmed(uint256,address)": "80f59a65",
					"isOwner(address)": "2f54bf6e",
					"numConfirmationsRequired()": "d0549b85",
					"owners(uint256)": "025e7c27",
					"revokeConfirmation(uint256)": "20ea8d86",
					"submitTransaction(address,uint256,bytes)": "c6427474",
					"transactions(uint256)": "9ace38c2"
				}
			},
			"storageLayout": {
				"storage": [
					{
						"astId": 42,
						"contract": "Sol_by_Example/Applications/02.MultiSigWallet.sol:MultiSigWallet",
						"label": "owners",
						"offset": 0,
						"slot": "0",
						"type": "t_array(t_address)dyn_storage"
					},
					{
						"astId": 46,
						"contract": "Sol_by_Example/Applications/02.MultiSigWallet.sol:MultiSigWallet",
						"label": "isOwner",
						"offset": 0,
						"slot": "1",
						"type": "t_mapping(t_address,t_bool)"
					},
					{
						"astId": 48,
						"contract": "Sol_by_Example/Applications/02.MultiSigWallet.sol:MultiSigWallet",
						"label": "numConfirmationsRequired",
						"offset": 0,
						"slot": "2",
						"type": "t_uint256"
					},
					{
						"astId": 65,
						"contract": "Sol_by_Example/Applications/02.MultiSigWallet.sol:MultiSigWallet",
						"label": "isConfirmed",
						"offset": 0,
						"slot": "3",
						"type": "t_mapping(t_uint256,t_mapping(t_address,t_bool))"
					},
					{
						"astId": 69,
						"contract": "Sol_by_Example/Applications/02.MultiSigWallet.sol:MultiSigWallet",
						"label": "transactions",
						"offset": 0,
						"slot": "4",
						"type": "t_array(t_struct(Transaction)59_storage)dyn_storage"
					}
				],
				"types": {
					"t_address": {
						"encoding": "inplace",
						"label": "address",
						"numberOfBytes": "20"
					},
					"t_array(t_address)dyn_storage": {
						"base": "t_address",
						"encoding": "dynamic_array",
						"label": "address[]",
						"numberOfBytes": "32"
					},
					"t_array(t_struct(Transaction)59_storage)dyn_storage": {
						"base": "t_struct(Transaction)59_storage",
						"encoding": "dynamic_array",
						"label": "struct MultiSigWallet.Transaction[]",
						"numberOfBytes": "32"
					},
					"t_bool": {
						"encoding": "inplace",
						"label": "bool",
						"numberOfBytes": "1"
					},
					"t_bytes_storage": {
						"encoding": "bytes",
						"label": "bytes",
						"numberOfBytes": "32"
					},
					"t_mapping(t_address,t_bool)": {
						"encoding": "mapping",
						"key": "t_address",
						"label": "mapping(address => bool)",
						"numberOfBytes": "32",
						"value": "t_bool"
					},
					"t_mapping(t_uint256,t_mapping(t_address,t_bool))": {
						"encoding": "mapping",
						"key": "t_uint256",
						"label": "mapping(uint256 => mapping(address => bool))",
						"numberOfBytes": "32",
						"value": "t_mapping(t_address,t_bool)"
					},
					"t_struct(Transaction)59_storage": {
						"encoding": "inplace",
						"label": "struct MultiSigWallet.Transaction",
						"members": [
							{
								"astId": 50,
								"contract": "Sol_by_Example/Applications/02.MultiSigWallet.sol:MultiSigWallet",
								"label": "to",
								"offset": 0,
								"slot": "0",
								"type": "t_address"
							},
							{
								"astId": 52,
								"contract": "Sol_by_Example/Applications/02.MultiSigWallet.sol:MultiSigWallet",
								"label": "value",
								"offset": 0,
								"slot": "1",
								"type": "t_uint256"
							},
							{
								"astId": 54,
								"contract": "Sol_by_Example/Applications/02.MultiSigWallet.sol:MultiSigWallet",
								"label": "data",
								"offset": 0,
								"slot": "2",
								"type": "t_bytes_storage"
							},
							{
								"astId": 56,
								"contract": "Sol_by_Example/Applications/02.MultiSigWallet.sol:MultiSigWallet",
								"label": "executed",
								"offset": 0,
								"slot": "3",
								"type": "t_bool"
							},
							{
								"astId": 58,
								"contract": "Sol_by_Example/Applications/02.MultiSigWallet.sol:MultiSigWallet",
								"label": "numConfirmations",
								"offset": 0,
								"slot": "4",
								"type": "t_uint256"
							}
						],
						"numberOfBytes": "160"
					},
					"t_uint256": {
						"encoding": "inplace",
						"label": "uint256",
						"numberOfBytes": "32"
					}
				}
			},
			"userdoc": {
				"kind": "user",
				"methods": {},
				"version": 1
			}
		}
	}
}