{
	"Sol_by_Example/Applications/TestMultiSigWallet.sol": {
		"TestContract": {
			"abi": [
				{
					"inputs": [
						{
							"internalType": "uint256",
							"name": "j",
							"type": "uint256"
						}
					],
					"name": "CallMe",
					"outputs": [],
					"stateMutability": "nonpayable",
					"type": "function"
				},
				{
					"inputs": [],
					"name": "getData",
					"outputs": [
						{
							"internalType": "bytes",
							"name": "",
							"type": "bytes"
						}
					],
					"stateMutability": "pure",
					"type": "function"
				},
				{
					"inputs": [],
					"name": "i",
					"outputs": [
						{
							"internalType": "uint256",
							"name": "",
							"type": "uint256"
						}
					],
					"stateMutability": "view",
					"type": "function"
				}
			],
			"devdoc": {
				"kind": "dev",
				"methods": {},
				"version": 1
			},
			"evm": {
				"assembly": "    /* \"Sol_by_Example/Applications/TestMultiSigWallet.sol\":58:988  contract TestContract {... */\n  mstore(0x40, 0x80)\n  callvalue\n  dup1\n  iszero\n  tag_1\n  jumpi\n  revert(0x00, 0x00)\ntag_1:\n  pop\n  dataSize(sub_0)\n  dup1\n  dataOffset(sub_0)\n  0x00\n  codecopy\n  0x00\n  return\nstop\n\nsub_0: assembly {\n        /* \"Sol_by_Example/Applications/TestMultiSigWallet.sol\":58:988  contract TestContract {... */\n      mstore(0x40, 0x80)\n      callvalue\n      dup1\n      iszero\n      tag_1\n      jumpi\n      revert(0x00, 0x00)\n    tag_1:\n      pop\n      jumpi(tag_2, lt(calldatasize, 0x04))\n      shr(0xe0, calldataload(0x00))\n      dup1\n      0x3bc5de30\n      eq\n      tag_3\n      jumpi\n      dup1\n      0xa653e99b\n      eq\n      tag_4\n      jumpi\n      dup1\n      0xe5aa3d58\n      eq\n      tag_5\n      jumpi\n    tag_2:\n      revert(0x00, 0x00)\n        /* \"Sol_by_Example/Applications/TestMultiSigWallet.sol\":725:986  function getData() public pure returns (bytes memory) {... */\n    tag_3:\n      tag_6\n      tag_7\n      jump\t// in\n    tag_6:\n      mload(0x40)\n      tag_8\n      swap2\n      swap1\n      tag_9\n      jump\t// in\n    tag_8:\n      mload(0x40)\n      dup1\n      swap2\n      sub\n      swap1\n      return\n        /* \"Sol_by_Example/Applications/TestMultiSigWallet.sol\":106:160  function CallMe(uint j) public {... */\n    tag_4:\n      tag_10\n      0x04\n      dup1\n      calldatasize\n      sub\n      dup2\n      add\n      swap1\n      tag_11\n      swap2\n      swap1\n      tag_12\n      jump\t// in\n    tag_11:\n      tag_13\n      jump\t// in\n    tag_10:\n      stop\n        /* \"Sol_by_Example/Applications/TestMultiSigWallet.sol\":86:99  uint public i */\n    tag_5:\n      tag_14\n      tag_15\n      jump\t// in\n    tag_14:\n      mload(0x40)\n      tag_16\n      swap2\n      swap1\n      tag_17\n      jump\t// in\n    tag_16:\n      mload(0x40)\n      dup1\n      swap2\n      sub\n      swap1\n      return\n        /* \"Sol_by_Example/Applications/TestMultiSigWallet.sol\":725:986  function getData() public pure returns (bytes memory) {... */\n    tag_7:\n        /* \"Sol_by_Example/Applications/TestMultiSigWallet.sol\":765:777  bytes memory */\n      0x60\n        /* \"Sol_by_Example/Applications/TestMultiSigWallet.sol\":840:843  123 */\n      0x7b\n        /* \"Sol_by_Example/Applications/TestMultiSigWallet.sol\":796:844  abi.encodeWithSignature(\"callMe(uint256) \", 123) */\n      add(0x24, mload(0x40))\n      tag_19\n      swap2\n      swap1\n      tag_20\n      jump\t// in\n    tag_19:\n      mload(0x40)\n      0x20\n      dup2\n      dup4\n      sub\n      sub\n      dup2\n      mstore\n      swap1\n      0x40\n      mstore\n      and(not(0xffffffffffffffffffffffffffffffffffffffffffffffffffffffff), 0xc59926f900000000000000000000000000000000000000000000000000000000)\n      0x20\n      dup3\n      add\n      dup1\n      mload\n      0xffffffffffffffffffffffffffffffffffffffffffffffffffffffff\n      dup4\n      dup2\n      dup4\n      and\n      or\n      dup4\n      mstore\n      pop\n      pop\n      pop\n      pop\n        /* \"Sol_by_Example/Applications/TestMultiSigWallet.sol\":789:844  return abi.encodeWithSignature(\"callMe(uint256) \", 123) */\n      swap1\n      pop\n        /* \"Sol_by_Example/Applications/TestMultiSigWallet.sol\":725:986  function getData() public pure returns (bytes memory) {... */\n      swap1\n      jump\t// out\n        /* \"Sol_by_Example/Applications/TestMultiSigWallet.sol\":106:160  function CallMe(uint j) public {... */\n    tag_13:\n        /* \"Sol_by_Example/Applications/TestMultiSigWallet.sol\":152:153  j */\n      dup1\n        /* \"Sol_by_Example/Applications/TestMultiSigWallet.sol\":147:148  i */\n      0x00\n      0x00\n        /* \"Sol_by_Example/Applications/TestMultiSigWallet.sol\":147:153  i += j */\n      dup3\n      dup3\n      sload\n      tag_22\n      swap2\n      swap1\n      tag_23\n      jump\t// in\n    tag_22:\n      swap3\n      pop\n      pop\n      dup2\n      swap1\n      sstore\n      pop\n        /* \"Sol_by_Example/Applications/TestMultiSigWallet.sol\":106:160  function CallMe(uint j) public {... */\n      pop\n      jump\t// out\n        /* \"Sol_by_Example/Applications/TestMultiSigWallet.sol\":86:99  uint public i */\n    tag_15:\n      sload(0x00)\n      dup2\n      jump\t// out\n        /* \"#utility.yul\":7:105   */\n    tag_24:\n        /* \"#utility.yul\":58:64   */\n      0x00\n        /* \"#utility.yul\":92:97   */\n      dup2\n        /* \"#utility.yul\":86:98   */\n      mload\n        /* \"#utility.yul\":76:98   */\n      swap1\n      pop\n        /* \"#utility.yul\":7:105   */\n      swap2\n      swap1\n      pop\n      jump\t// out\n        /* \"#utility.yul\":111:279   */\n    tag_25:\n        /* \"#utility.yul\":194:205   */\n      0x00\n        /* \"#utility.yul\":228:234   */\n      dup3\n        /* \"#utility.yul\":223:226   */\n      dup3\n        /* \"#utility.yul\":216:235   */\n      mstore\n        /* \"#utility.yul\":268:272   */\n      0x20\n        /* \"#utility.yul\":263:266   */\n      dup3\n        /* \"#utility.yul\":259:273   */\n      add\n        /* \"#utility.yul\":244:273   */\n      swap1\n      pop\n        /* \"#utility.yul\":111:279   */\n      swap3\n      swap2\n      pop\n      pop\n      jump\t// out\n        /* \"#utility.yul\":285:424   */\n    tag_26:\n        /* \"#utility.yul\":374:380   */\n      dup3\n        /* \"#utility.yul\":369:372   */\n      dup2\n        /* \"#utility.yul\":364:367   */\n      dup4\n        /* \"#utility.yul\":358:381   */\n      mcopy\n        /* \"#utility.yul\":415:416   */\n      0x00\n        /* \"#utility.yul\":406:412   */\n      dup4\n        /* \"#utility.yul\":401:404   */\n      dup4\n        /* \"#utility.yul\":397:413   */\n      add\n        /* \"#utility.yul\":390:417   */\n      mstore\n        /* \"#utility.yul\":285:424   */\n      pop\n      pop\n      pop\n      jump\t// out\n        /* \"#utility.yul\":430:532   */\n    tag_27:\n        /* \"#utility.yul\":471:477   */\n      0x00\n        /* \"#utility.yul\":522:524   */\n      0x1f\n        /* \"#utility.yul\":518:525   */\n      not\n        /* \"#utility.yul\":513:515   */\n      0x1f\n        /* \"#utility.yul\":506:511   */\n      dup4\n        /* \"#utility.yul\":502:516   */\n      add\n        /* \"#utility.yul\":498:526   */\n      and\n        /* \"#utility.yul\":488:526   */\n      swap1\n      pop\n        /* \"#utility.yul\":430:532   */\n      swap2\n      swap1\n      pop\n      jump\t// out\n        /* \"#utility.yul\":538:911   */\n    tag_28:\n        /* \"#utility.yul\":624:627   */\n      0x00\n        /* \"#utility.yul\":652:690   */\n      tag_48\n        /* \"#utility.yul\":684:689   */\n      dup3\n        /* \"#utility.yul\":652:690   */\n      tag_24\n      jump\t// in\n    tag_48:\n        /* \"#utility.yul\":706:776   */\n      tag_49\n        /* \"#utility.yul\":769:775   */\n      dup2\n        /* \"#utility.yul\":764:767   */\n      dup6\n        /* \"#utility.yul\":706:776   */\n      tag_25\n      jump\t// in\n    tag_49:\n        /* \"#utility.yul\":699:776   */\n      swap4\n      pop\n        /* \"#utility.yul\":785:850   */\n      tag_50\n        /* \"#utility.yul\":843:849   */\n      dup2\n        /* \"#utility.yul\":838:841   */\n      dup6\n        /* \"#utility.yul\":831:835   */\n      0x20\n        /* \"#utility.yul\":824:829   */\n      dup7\n        /* \"#utility.yul\":820:836   */\n      add\n        /* \"#utility.yul\":785:850   */\n      tag_26\n      jump\t// in\n    tag_50:\n        /* \"#utility.yul\":875:904   */\n      tag_51\n        /* \"#utility.yul\":897:903   */\n      dup2\n        /* \"#utility.yul\":875:904   */\n      tag_27\n      jump\t// in\n    tag_51:\n        /* \"#utility.yul\":870:873   */\n      dup5\n        /* \"#utility.yul\":866:905   */\n      add\n        /* \"#utility.yul\":859:905   */\n      swap2\n      pop\n        /* \"#utility.yul\":628:911   */\n      pop\n        /* \"#utility.yul\":538:911   */\n      swap3\n      swap2\n      pop\n      pop\n      jump\t// out\n        /* \"#utility.yul\":917:1226   */\n    tag_9:\n        /* \"#utility.yul\":1028:1032   */\n      0x00\n        /* \"#utility.yul\":1066:1068   */\n      0x20\n        /* \"#utility.yul\":1055:1064   */\n      dup3\n        /* \"#utility.yul\":1051:1069   */\n      add\n        /* \"#utility.yul\":1043:1069   */\n      swap1\n      pop\n        /* \"#utility.yul\":1115:1124   */\n      dup2\n        /* \"#utility.yul\":1109:1113   */\n      dup2\n        /* \"#utility.yul\":1105:1125   */\n      sub\n        /* \"#utility.yul\":1101:1102   */\n      0x00\n        /* \"#utility.yul\":1090:1099   */\n      dup4\n        /* \"#utility.yul\":1086:1103   */\n      add\n        /* \"#utility.yul\":1079:1126   */\n      mstore\n        /* \"#utility.yul\":1143:1219   */\n      tag_53\n        /* \"#utility.yul\":1214:1218   */\n      dup2\n        /* \"#utility.yul\":1205:1211   */\n      dup5\n        /* \"#utility.yul\":1143:1219   */\n      tag_28\n      jump\t// in\n    tag_53:\n        /* \"#utility.yul\":1135:1219   */\n      swap1\n      pop\n        /* \"#utility.yul\":917:1226   */\n      swap3\n      swap2\n      pop\n      pop\n      jump\t// out\n        /* \"#utility.yul\":1313:1430   */\n    tag_30:\n        /* \"#utility.yul\":1422:1423   */\n      0x00\n        /* \"#utility.yul\":1419:1420   */\n      0x00\n        /* \"#utility.yul\":1412:1424   */\n      revert\n        /* \"#utility.yul\":1559:1636   */\n    tag_32:\n        /* \"#utility.yul\":1596:1603   */\n      0x00\n        /* \"#utility.yul\":1625:1630   */\n      dup2\n        /* \"#utility.yul\":1614:1630   */\n      swap1\n      pop\n        /* \"#utility.yul\":1559:1636   */\n      swap2\n      swap1\n      pop\n      jump\t// out\n        /* \"#utility.yul\":1642:1764   */\n    tag_33:\n        /* \"#utility.yul\":1715:1739   */\n      tag_59\n        /* \"#utility.yul\":1733:1738   */\n      dup2\n        /* \"#utility.yul\":1715:1739   */\n      tag_32\n      jump\t// in\n    tag_59:\n        /* \"#utility.yul\":1708:1713   */\n      dup2\n        /* \"#utility.yul\":1705:1740   */\n      eq\n        /* \"#utility.yul\":1695:1758   */\n      tag_60\n      jumpi\n        /* \"#utility.yul\":1754:1755   */\n      0x00\n        /* \"#utility.yul\":1751:1752   */\n      0x00\n        /* \"#utility.yul\":1744:1756   */\n      revert\n        /* \"#utility.yul\":1695:1758   */\n    tag_60:\n        /* \"#utility.yul\":1642:1764   */\n      pop\n      jump\t// out\n        /* \"#utility.yul\":1770:1909   */\n    tag_34:\n        /* \"#utility.yul\":1816:1821   */\n      0x00\n        /* \"#utility.yul\":1854:1860   */\n      dup2\n        /* \"#utility.yul\":1841:1861   */\n      calldataload\n        /* \"#utility.yul\":1832:1861   */\n      swap1\n      pop\n        /* \"#utility.yul\":1870:1903   */\n      tag_62\n        /* \"#utility.yul\":1897:1902   */\n      dup2\n        /* \"#utility.yul\":1870:1903   */\n      tag_33\n      jump\t// in\n    tag_62:\n        /* \"#utility.yul\":1770:1909   */\n      swap3\n      swap2\n      pop\n      pop\n      jump\t// out\n        /* \"#utility.yul\":1915:2244   */\n    tag_12:\n        /* \"#utility.yul\":1974:1980   */\n      0x00\n        /* \"#utility.yul\":2023:2025   */\n      0x20\n        /* \"#utility.yul\":2011:2020   */\n      dup3\n        /* \"#utility.yul\":2002:2009   */\n      dup5\n        /* \"#utility.yul\":1998:2021   */\n      sub\n        /* \"#utility.yul\":1994:2026   */\n      slt\n        /* \"#utility.yul\":1991:2110   */\n      iszero\n      tag_64\n      jumpi\n        /* \"#utility.yul\":2029:2108   */\n      tag_65\n      tag_30\n      jump\t// in\n    tag_65:\n        /* \"#utility.yul\":1991:2110   */\n    tag_64:\n        /* \"#utility.yul\":2149:2150   */\n      0x00\n        /* \"#utility.yul\":2174:2227   */\n      tag_66\n        /* \"#utility.yul\":2219:2226   */\n      dup5\n        /* \"#utility.yul\":2210:2216   */\n      dup3\n        /* \"#utility.yul\":2199:2208   */\n      dup6\n        /* \"#utility.yul\":2195:2217   */\n      add\n        /* \"#utility.yul\":2174:2227   */\n      tag_34\n      jump\t// in\n    tag_66:\n        /* \"#utility.yul\":2164:2227   */\n      swap2\n      pop\n        /* \"#utility.yul\":2120:2237   */\n      pop\n        /* \"#utility.yul\":1915:2244   */\n      swap3\n      swap2\n      pop\n      pop\n      jump\t// out\n        /* \"#utility.yul\":2250:2368   */\n    tag_35:\n        /* \"#utility.yul\":2337:2361   */\n      tag_68\n        /* \"#utility.yul\":2355:2360   */\n      dup2\n        /* \"#utility.yul\":2337:2361   */\n      tag_32\n      jump\t// in\n    tag_68:\n        /* \"#utility.yul\":2332:2335   */\n      dup3\n        /* \"#utility.yul\":2325:2362   */\n      mstore\n        /* \"#utility.yul\":2250:2368   */\n      pop\n      pop\n      jump\t// out\n        /* \"#utility.yul\":2374:2596   */\n    tag_17:\n        /* \"#utility.yul\":2467:2471   */\n      0x00\n        /* \"#utility.yul\":2505:2507   */\n      0x20\n        /* \"#utility.yul\":2494:2503   */\n      dup3\n        /* \"#utility.yul\":2490:2508   */\n      add\n        /* \"#utility.yul\":2482:2508   */\n      swap1\n      pop\n        /* \"#utility.yul\":2518:2589   */\n      tag_70\n        /* \"#utility.yul\":2586:2587   */\n      0x00\n        /* \"#utility.yul\":2575:2584   */\n      dup4\n        /* \"#utility.yul\":2571:2588   */\n      add\n        /* \"#utility.yul\":2562:2568   */\n      dup5\n        /* \"#utility.yul\":2518:2589   */\n      tag_35\n      jump\t// in\n    tag_70:\n        /* \"#utility.yul\":2374:2596   */\n      swap3\n      swap2\n      pop\n      pop\n      jump\t// out\n        /* \"#utility.yul\":2602:2689   */\n    tag_36:\n        /* \"#utility.yul\":2649:2656   */\n      0x00\n        /* \"#utility.yul\":2678:2683   */\n      dup2\n        /* \"#utility.yul\":2667:2683   */\n      swap1\n      pop\n        /* \"#utility.yul\":2602:2689   */\n      swap2\n      swap1\n      pop\n      jump\t// out\n        /* \"#utility.yul\":2695:2781   */\n    tag_37:\n        /* \"#utility.yul\":2730:2737   */\n      0x00\n        /* \"#utility.yul\":2770:2774   */\n      0xff\n        /* \"#utility.yul\":2763:2768   */\n      dup3\n        /* \"#utility.yul\":2759:2775   */\n      and\n        /* \"#utility.yul\":2748:2775   */\n      swap1\n      pop\n        /* \"#utility.yul\":2695:2781   */\n      swap2\n      swap1\n      pop\n      jump\t// out\n        /* \"#utility.yul\":2787:2847   */\n    tag_38:\n        /* \"#utility.yul\":2815:2818   */\n      0x00\n        /* \"#utility.yul\":2836:2841   */\n      dup2\n        /* \"#utility.yul\":2829:2841   */\n      swap1\n      pop\n        /* \"#utility.yul\":2787:2847   */\n      swap2\n      swap1\n      pop\n      jump\t// out\n        /* \"#utility.yul\":2853:3011   */\n    tag_39:\n        /* \"#utility.yul\":2911:2920   */\n      0x00\n        /* \"#utility.yul\":2944:3005   */\n      tag_75\n        /* \"#utility.yul\":2960:3004   */\n      tag_76\n        /* \"#utility.yul\":2969:3003   */\n      tag_77\n        /* \"#utility.yul\":2997:3002   */\n      dup5\n        /* \"#utility.yul\":2969:3003   */\n      tag_36\n      jump\t// in\n    tag_77:\n        /* \"#utility.yul\":2960:3004   */\n      tag_38\n      jump\t// in\n    tag_76:\n        /* \"#utility.yul\":2944:3005   */\n      tag_37\n      jump\t// in\n    tag_75:\n        /* \"#utility.yul\":2931:3005   */\n      swap1\n      pop\n        /* \"#utility.yul\":2853:3011   */\n      swap2\n      swap1\n      pop\n      jump\t// out\n        /* \"#utility.yul\":3017:3164   */\n    tag_40:\n        /* \"#utility.yul\":3112:3157   */\n      tag_79\n        /* \"#utility.yul\":3151:3156   */\n      dup2\n        /* \"#utility.yul\":3112:3157   */\n      tag_39\n      jump\t// in\n    tag_79:\n        /* \"#utility.yul\":3107:3110   */\n      dup3\n        /* \"#utility.yul\":3100:3158   */\n      mstore\n        /* \"#utility.yul\":3017:3164   */\n      pop\n      pop\n      jump\t// out\n        /* \"#utility.yul\":3170:3408   */\n    tag_20:\n        /* \"#utility.yul\":3271:3275   */\n      0x00\n        /* \"#utility.yul\":3309:3311   */\n      0x20\n        /* \"#utility.yul\":3298:3307   */\n      dup3\n        /* \"#utility.yul\":3294:3312   */\n      add\n        /* \"#utility.yul\":3286:3312   */\n      swap1\n      pop\n        /* \"#utility.yul\":3322:3401   */\n      tag_81\n        /* \"#utility.yul\":3398:3399   */\n      0x00\n        /* \"#utility.yul\":3387:3396   */\n      dup4\n        /* \"#utility.yul\":3383:3400   */\n      add\n        /* \"#utility.yul\":3374:3380   */\n      dup5\n        /* \"#utility.yul\":3322:3401   */\n      tag_40\n      jump\t// in\n    tag_81:\n        /* \"#utility.yul\":3170:3408   */\n      swap3\n      swap2\n      pop\n      pop\n      jump\t// out\n        /* \"#utility.yul\":3414:3594   */\n    tag_41:\n        /* \"#utility.yul\":3462:3539   */\n      0x4e487b7100000000000000000000000000000000000000000000000000000000\n        /* \"#utility.yul\":3459:3460   */\n      0x00\n        /* \"#utility.yul\":3452:3540   */\n      mstore\n        /* \"#utility.yul\":3559:3563   */\n      0x11\n        /* \"#utility.yul\":3556:3557   */\n      0x04\n        /* \"#utility.yul\":3549:3564   */\n      mstore\n        /* \"#utility.yul\":3583:3587   */\n      0x24\n        /* \"#utility.yul\":3580:3581   */\n      0x00\n        /* \"#utility.yul\":3573:3588   */\n      revert\n        /* \"#utility.yul\":3600:3791   */\n    tag_23:\n        /* \"#utility.yul\":3640:3643   */\n      0x00\n        /* \"#utility.yul\":3659:3679   */\n      tag_84\n        /* \"#utility.yul\":3677:3678   */\n      dup3\n        /* \"#utility.yul\":3659:3679   */\n      tag_32\n      jump\t// in\n    tag_84:\n        /* \"#utility.yul\":3654:3679   */\n      swap2\n      pop\n        /* \"#utility.yul\":3693:3713   */\n      tag_85\n        /* \"#utility.yul\":3711:3712   */\n      dup4\n        /* \"#utility.yul\":3693:3713   */\n      tag_32\n      jump\t// in\n    tag_85:\n        /* \"#utility.yul\":3688:3713   */\n      swap3\n      pop\n        /* \"#utility.yul\":3736:3737   */\n      dup3\n        /* \"#utility.yul\":3733:3734   */\n      dup3\n        /* \"#utility.yul\":3729:3738   */\n      add\n        /* \"#utility.yul\":3722:3738   */\n      swap1\n      pop\n        /* \"#utility.yul\":3757:3760   */\n      dup1\n        /* \"#utility.yul\":3754:3755   */\n      dup3\n        /* \"#utility.yul\":3751:3761   */\n      gt\n        /* \"#utility.yul\":3748:3784   */\n      iszero\n      tag_86\n      jumpi\n        /* \"#utility.yul\":3764:3782   */\n      tag_87\n      tag_41\n      jump\t// in\n    tag_87:\n        /* \"#utility.yul\":3748:3784   */\n    tag_86:\n        /* \"#utility.yul\":3600:3791   */\n      swap3\n      swap2\n      pop\n      pop\n      jump\t// out\n\n    auxdata: 0xa264697066735822122046dfdd376d94b29ffe583cf62b4ade812bfc97278c4a751c0d205ee1f0fbaf5764736f6c634300081f0033\n}\n",
				"bytecode": {
					"linkReferences": {},
					"object": "6080604052348015600e575f5ffd5b506103678061001c5f395ff3fe608060405234801561000f575f5ffd5b506004361061003f575f3560e01c80633bc5de3014610043578063a653e99b14610061578063e5aa3d581461007d575b5f5ffd5b61004b61009b565b60405161005891906101c0565b60405180910390f35b61007b60048036038101906100769190610217565b610131565b005b61008561014b565b6040516100929190610251565b60405180910390f35b6060607b6040516024016100af91906102b8565b6040516020818303038152906040527fc59926f9000000000000000000000000000000000000000000000000000000007bffffffffffffffffffffffffffffffffffffffffffffffffffffffff19166020820180517bffffffffffffffffffffffffffffffffffffffffffffffffffffffff8381831617835250505050905090565b805f5f82825461014191906102fe565b9250508190555050565b5f5481565b5f81519050919050565b5f82825260208201905092915050565b8281835e5f83830152505050565b5f601f19601f8301169050919050565b5f61019282610150565b61019c818561015a565b93506101ac81856020860161016a565b6101b581610178565b840191505092915050565b5f6020820190508181035f8301526101d88184610188565b905092915050565b5f5ffd5b5f819050919050565b6101f6816101e4565b8114610200575f5ffd5b50565b5f81359050610211816101ed565b92915050565b5f6020828403121561022c5761022b6101e0565b5b5f61023984828501610203565b91505092915050565b61024b816101e4565b82525050565b5f6020820190506102645f830184610242565b92915050565b5f819050919050565b5f60ff82169050919050565b5f819050919050565b5f6102a261029d6102988461026a565b61027f565b610273565b9050919050565b6102b281610288565b82525050565b5f6020820190506102cb5f8301846102a9565b92915050565b7f4e487b71000000000000000000000000000000000000000000000000000000005f52601160045260245ffd5b5f610308826101e4565b9150610313836101e4565b925082820190508082111561032b5761032a6102d1565b5b9291505056fea264697066735822122046dfdd376d94b29ffe583cf62b4ade812bfc97278c4a751c0d205ee1f0fbaf5764736f6c634300081f0033",
					"opcodes": "PUSH1 0x80 PUSH1 0x40 MSTORE CALLVALUE DUP1 ISZERO PUSH1 0xE JUMPI PUSH0 PUSH0 REVERT JUMPDEST POP PUSH2 0x367 DUP1 PUSH2 0x1C PUSH0 CODECOPY PUSH0 RETURN INVALID PUSH1 0x80 PUSH1 0x40 MSTORE CALLVALUE DUP1 ISZERO PUSH2 0xF JUMPI PUSH0 PUSH0 REVERT JUMPDEST POP PUSH1 0x4 CALLDATASIZE LT PUSH2 0x3F JUMPI PUSH0 CALLDATALOAD PUSH1 0xE0 SHR DUP1 PUSH4 0x3BC5DE30 EQ PUSH2 0x43 JUMPI DUP1 PUSH4 0xA653E99B EQ PUSH2 0x61 JUMPI DUP1 PUSH4 0xE5AA3D58 EQ PUSH2 0x7D JUMPI JUMPDEST PUSH0 PUSH0 REVERT JUMPDEST PUSH2 0x4B PUSH2 0x9B JUMP JUMPDEST PUSH1 0x40 MLOAD PUSH2 0x58 SWAP2 SWAP1 PUSH2 0x1C0 JUMP JUMPDEST PUSH1 0x40 MLOAD DUP1 SWAP2 SUB SWAP1 RETURN JUMPDEST PUSH2 0x7B PUSH1 0x4 DUP1 CALLDATASIZE SUB DUP2 ADD SWAP1 PUSH2 0x76 SWAP2 SWAP1 PUSH2 0x217 JUMP JUMPDEST PUSH2 0x131 JUMP JUMPDEST STOP JUMPDEST PUSH2 0x85 PUSH2 0x14B JUMP JUMPDEST PUSH1 0x40 MLOAD PUSH2 0x92 SWAP2 SWAP1 PUSH2 0x251 JUMP JUMPDEST PUSH1 0x40 MLOAD DUP1 SWAP2 SUB SWAP1 RETURN JUMPDEST PUSH1 0x60 PUSH1 0x7B PUSH1 0x40 MLOAD PUSH1 0x24 ADD PUSH2 0xAF SWAP2 SWAP1 PUSH2 0x2B8 JUMP JUMPDEST PUSH1 0x40 MLOAD PUSH1 0x20 DUP2 DUP4 SUB SUB DUP2 MSTORE SWAP1 PUSH1 0x40 MSTORE PUSH32 0xC59926F900000000000000000000000000000000000000000000000000000000 PUSH28 0xFFFFFFFFFFFFFFFFFFFFFFFFFFFFFFFFFFFFFFFFFFFFFFFFFFFFFFFF NOT AND PUSH1 0x20 DUP3 ADD DUP1 MLOAD PUSH28 0xFFFFFFFFFFFFFFFFFFFFFFFFFFFFFFFFFFFFFFFFFFFFFFFFFFFFFFFF DUP4 DUP2 DUP4 AND OR DUP4 MSTORE POP POP POP POP SWAP1 POP SWAP1 JUMP JUMPDEST DUP1 PUSH0 PUSH0 DUP3 DUP3 SLOAD PUSH2 0x141 SWAP2 SWAP1 PUSH2 0x2FE JUMP JUMPDEST SWAP3 POP POP DUP2 SWAP1 SSTORE POP POP JUMP JUMPDEST PUSH0 SLOAD DUP2 JUMP JUMPDEST PUSH0 DUP2 MLOAD SWAP1 POP SWAP2 SWAP1 POP JUMP JUMPDEST PUSH0 DUP3 DUP3 MSTORE PUSH1 0x20 DUP3 ADD SWAP1 POP SWAP3 SWAP2 POP POP JUMP JUMPDEST DUP3 DUP2 DUP4 MCOPY PUSH0 DUP4 DUP4 ADD MSTORE POP POP POP JUMP JUMPDEST PUSH0 PUSH1 0x1F NOT PUSH1 0x1F DUP4 ADD AND SWAP1 POP SWAP2 SWAP1 POP JUMP JUMPDEST PUSH0 PUSH2 0x192 DUP3 PUSH2 0x150 JUMP JUMPDEST PUSH2 0x19C DUP2 DUP6 PUSH2 0x15A JUMP JUMPDEST SWAP4 POP PUSH2 0x1AC DUP2 DUP6 PUSH1 0x20 DUP7 ADD PUSH2 0x16A JUMP JUMPDEST PUSH2 0x1B5 DUP2 PUSH2 0x178 JUMP JUMPDEST DUP5 ADD SWAP2 POP POP SWAP3 SWAP2 POP POP JUMP JUMPDEST PUSH0 PUSH1 0x20 DUP3 ADD SWAP1 POP DUP2 DUP2 SUB PUSH0 DUP4 ADD MSTORE PUSH2 0x1D8 DUP2 DUP5 PUSH2 0x188 JUMP JUMPDEST SWAP1 POP SWAP3 SWAP2 POP POP JUMP JUMPDEST PUSH0 PUSH0 REVERT JUMPDEST PUSH0 DUP2 SWAP1 POP SWAP2 SWAP1 POP JUMP JUMPDEST PUSH2 0x1F6 DUP2 PUSH2 0x1E4 JUMP JUMPDEST DUP2 EQ PUSH2 0x200 JUMPI PUSH0 PUSH0 REVERT JUMPDEST POP JUMP JUMPDEST PUSH0 DUP2 CALLDATALOAD SWAP1 POP PUSH2 0x211 DUP2 PUSH2 0x1ED JUMP JUMPDEST SWAP3 SWAP2 POP POP JUMP JUMPDEST PUSH0 PUSH1 0x20 DUP3 DUP5 SUB SLT ISZERO PUSH2 0x22C JUMPI PUSH2 0x22B PUSH2 0x1E0 JUMP JUMPDEST JUMPDEST PUSH0 PUSH2 0x239 DUP5 DUP3 DUP6 ADD PUSH2 0x203 JUMP JUMPDEST SWAP2 POP POP SWAP3 SWAP2 POP POP JUMP JUMPDEST PUSH2 0x24B DUP2 PUSH2 0x1E4 JUMP JUMPDEST DUP3 MSTORE POP POP JUMP JUMPDEST PUSH0 PUSH1 0x20 DUP3 ADD SWAP1 POP PUSH2 0x264 PUSH0 DUP4 ADD DUP5 PUSH2 0x242 JUMP JUMPDEST SWAP3 SWAP2 POP POP JUMP JUMPDEST PUSH0 DUP2 SWAP1 POP SWAP2 SWAP1 POP JUMP JUMPDEST PUSH0 PUSH1 0xFF DUP3 AND SWAP1 POP SWAP2 SWAP1 POP JUMP JUMPDEST PUSH0 DUP2 SWAP1 POP SWAP2 SWAP1 POP JUMP JUMPDEST PUSH0 PUSH2 0x2A2 PUSH2 0x29D PUSH2 0x298 DUP5 PUSH2 0x26A JUMP JUMPDEST PUSH2 0x27F JUMP JUMPDEST PUSH2 0x273 JUMP JUMPDEST SWAP1 POP SWAP2 SWAP1 POP JUMP JUMPDEST PUSH2 0x2B2 DUP2 PUSH2 0x288 JUMP JUMPDEST DUP3 MSTORE POP POP JUMP JUMPDEST PUSH0 PUSH1 0x20 DUP3 ADD SWAP1 POP PUSH2 0x2CB PUSH0 DUP4 ADD DUP5 PUSH2 0x2A9 JUMP JUMPDEST SWAP3 SWAP2 POP POP JUMP JUMPDEST PUSH32 0x4E487B7100000000000000000000000000000000000000000000000000000000 PUSH0 MSTORE PUSH1 0x11 PUSH1 0x4 MSTORE PUSH1 0x24 PUSH0 REVERT JUMPDEST PUSH0 PUSH2 0x308 DUP3 PUSH2 0x1E4 JUMP JUMPDEST SWAP2 POP PUSH2 0x313 DUP4 PUSH2 0x1E4 JUMP JUMPDEST SWAP3 POP DUP3 DUP3 ADD SWAP1 POP DUP1 DUP3 GT ISZERO PUSH2 0x32B JUMPI PUSH2 0x32A PUSH2 0x2D1 JUMP JUMPDEST JUMPDEST SWAP3 SWAP2 POP POP JUMP INVALID LOG2 PUSH5 0x6970667358 0x22 SLT KECCAK256 CHAINID 0xDF 0xDD CALLDATACOPY PUSH14 0x94B29FFE583CF62B4ADE812BFC97 0x27 DUP13 BLOBBASEFEE PUSH22 0x1C0D205EE1F0FBAF5764736F6C634300081F00330000 "
				},
				"gasEstimates": {
					"creation": {
						"codeDepositCost": "174200",
						"executionCost": "218",
						"totalCost": "174418"
					},
					"external": {
						"CallMe(uint256)": "infinite",
						"getData()": "infinite",
						"i()": "2446"
					}
				},
				"methodIdentifiers": {
					"CallMe(uint256)": "a653e99b",
					"getData()": "3bc5de30",
					"i()": "e5aa3d58"
				}
			},
			"storageLayout": {
				"storage": [
					{
						"astId": 3,
						"contract": "Sol_by_Example/Applications/TestMultiSigWallet.sol:TestContract",
						"label": "i",
						"offset": 0,
						"slot": "0",
						"type": "t_uint256"
					}
				],
				"types": {
					"t_uint256": {
						"encoding": "inplace",
						"label": "uint256",
						"numberOfBytes": "32"
					}
				}
			},
			"userdoc": {
				"kind": "user",
				"methods": {},
				"version": 1
			}
		}
	}
}