{
	"Sol_by_Example/Basics/error.sol": {
		"TestError": {
			"abi": [
				{
					"inputs": [
						{
							"internalType": "uint256",
							"name": "balance",
							"type": "uint256"
						},
						{
							"internalType": "uint256",
							"name": "withdrawAmount",
							"type": "uint256"
						}
					],
					"name": "InsufficientBalance",
					"type": "error"
				},
				{
					"inputs": [],
					"name": "num",
					"outputs": [
						{
							"internalType": "uint256",
							"name": "",
							"type": "uint256"
						}
					],
					"stateMutability": "view",
					"type": "function"
				},
				{
					"inputs": [],
					"name": "testAssert",
					"outputs": [],
					"stateMutability": "view",
					"type": "function"
				},
				{
					"inputs": [
						{
							"internalType": "uint256",
							"name": "_withdrawAmount",
							"type": "uint256"
						}
					],
					"name": "testCustomError",
					"outputs": [],
					"stateMutability": "view",
					"type": "function"
				},
				{
					"inputs": [
						{
							"internalType": "uint256",
							"name": "_number",
							"type": "uint256"
						}
					],
					"name": "testRequire",
					"outputs": [],
					"stateMutability": "pure",
					"type": "function"
				},
				{
					"inputs": [
						{
							"internalType": "uint256",
							"name": "_number",
							"type": "uint256"
						}
					],
					"name": "testRevert",
					"outputs": [],
					"stateMutability": "pure",
					"type": "function"
				}
			],
			"devdoc": {
				"kind": "dev",
				"methods": {},
				"version": 1
			},
			"evm": {
				"assembly": "    /* \"Sol_by_Example/Basics/error.sol\":58:1338  contract TestError {... */\n  mstore(0x40, 0x80)\n  callvalue\n  dup1\n  iszero\n  tag_1\n  jumpi\n  revert(0x00, 0x00)\ntag_1:\n  pop\n  dataSize(sub_0)\n  dup1\n  dataOffset(sub_0)\n  0x00\n  codecopy\n  0x00\n  return\nstop\n\nsub_0: assembly {\n        /* \"Sol_by_Example/Basics/error.sol\":58:1338  contract TestError {... */\n      mstore(0x40, 0x80)\n      callvalue\n      dup1\n      iszero\n      tag_1\n      jumpi\n      revert(0x00, 0x00)\n    tag_1:\n      pop\n      jumpi(tag_2, lt(calldatasize, 0x04))\n      shr(0xe0, calldataload(0x00))\n      dup1\n      0x20987767\n      eq\n      tag_3\n      jumpi\n      dup1\n      0x2b813bc0\n      eq\n      tag_4\n      jumpi\n      dup1\n      0x4e70b1dc\n      eq\n      tag_5\n      jumpi\n      dup1\n      0x75f7286c\n      eq\n      tag_6\n      jumpi\n      dup1\n      0xb8bd717f\n      eq\n      tag_7\n      jumpi\n    tag_2:\n      revert(0x00, 0x00)\n        /* \"Sol_by_Example/Basics/error.sol\":393:614  function testRevert(uint _number) pure public{... */\n    tag_3:\n      tag_8\n      0x04\n      dup1\n      calldatasize\n      sub\n      dup2\n      add\n      swap1\n      tag_9\n      swap2\n      swap1\n      tag_10\n      jump\t// in\n    tag_9:\n      tag_11\n      jump\t// in\n    tag_8:\n      stop\n        /* \"Sol_by_Example/Basics/error.sol\":685:970  function testAssert() public view {... */\n    tag_4:\n      tag_12\n      tag_13\n      jump\t// in\n    tag_12:\n      stop\n        /* \"Sol_by_Example/Basics/error.sol\":620:635  uint public num */\n    tag_5:\n      tag_14\n      tag_15\n      jump\t// in\n    tag_14:\n      mload(0x40)\n      tag_16\n      swap2\n      swap1\n      tag_17\n      jump\t// in\n    tag_16:\n      mload(0x40)\n      dup1\n      swap2\n      sub\n      swap1\n      return\n        /* \"Sol_by_Example/Basics/error.sol\":1043:1336  function testCustomError(uint _withdrawAmount) public view {... */\n    tag_6:\n      tag_18\n      0x04\n      dup1\n      calldatasize\n      sub\n      dup2\n      add\n      swap1\n      tag_19\n      swap2\n      swap1\n      tag_10\n      jump\t// in\n    tag_19:\n      tag_20\n      jump\t// in\n    tag_18:\n      stop\n        /* \"Sol_by_Example/Basics/error.sol\":266:387  function testRequire(uint _number) pure public {... */\n    tag_7:\n      tag_21\n      0x04\n      dup1\n      calldatasize\n      sub\n      dup2\n      add\n      swap1\n      tag_22\n      swap2\n      swap1\n      tag_10\n      jump\t// in\n    tag_22:\n      tag_23\n      jump\t// in\n    tag_21:\n      stop\n        /* \"Sol_by_Example/Basics/error.sol\":393:614  function testRevert(uint _number) pure public{... */\n    tag_11:\n        /* \"Sol_by_Example/Basics/error.sol\":538:540  10 */\n      0x0a\n        /* \"Sol_by_Example/Basics/error.sol\":528:535  _number */\n      dup2\n        /* \"Sol_by_Example/Basics/error.sol\":528:540  _number > 10 */\n      gt\n        /* \"Sol_by_Example/Basics/error.sol\":525:608  if(_number > 10){... */\n      iszero\n      tag_25\n      jumpi\n        /* \"Sol_by_Example/Basics/error.sol\":555:597  revert(\"number should be greater than 10\") */\n      mload(0x40)\n      0x08c379a000000000000000000000000000000000000000000000000000000000\n      dup2\n      mstore\n      0x04\n      add\n      tag_26\n      swap1\n      tag_27\n      jump\t// in\n    tag_26:\n      mload(0x40)\n      dup1\n      swap2\n      sub\n      swap1\n      revert\n        /* \"Sol_by_Example/Basics/error.sol\":525:608  if(_number > 10){... */\n    tag_25:\n        /* \"Sol_by_Example/Basics/error.sol\":393:614  function testRevert(uint _number) pure public{... */\n      pop\n      jump\t// out\n        /* \"Sol_by_Example/Basics/error.sol\":685:970  function testAssert() public view {... */\n    tag_13:\n        /* \"Sol_by_Example/Basics/error.sol\":961:962  0 */\n      0x00\n        /* \"Sol_by_Example/Basics/error.sol\":954:957  num */\n      sload(0x00)\n        /* \"Sol_by_Example/Basics/error.sol\":954:962  num == 0 */\n      eq\n        /* \"Sol_by_Example/Basics/error.sol\":947:963  assert(num == 0) */\n      tag_29\n      jumpi\n      tag_30\n      tag_31\n      jump\t// in\n    tag_30:\n    tag_29:\n        /* \"Sol_by_Example/Basics/error.sol\":685:970  function testAssert() public view {... */\n      jump\t// out\n        /* \"Sol_by_Example/Basics/error.sol\":620:635  uint public num */\n    tag_15:\n      sload(0x00)\n      dup2\n      jump\t// out\n        /* \"Sol_by_Example/Basics/error.sol\":1043:1336  function testCustomError(uint _withdrawAmount) public view {... */\n    tag_20:\n        /* \"Sol_by_Example/Basics/error.sol\":1112:1120  uint bal */\n      0x00\n        /* \"Sol_by_Example/Basics/error.sol\":1123:1144  address(this).balance */\n      selfbalance\n        /* \"Sol_by_Example/Basics/error.sol\":1112:1144  uint bal = address(this).balance */\n      swap1\n      pop\n        /* \"Sol_by_Example/Basics/error.sol\":1165:1180  _withdrawAmount */\n      dup2\n        /* \"Sol_by_Example/Basics/error.sol\":1159:1162  bal */\n      dup2\n        /* \"Sol_by_Example/Basics/error.sol\":1159:1180  bal < _withdrawAmount */\n      lt\n        /* \"Sol_by_Example/Basics/error.sol\":1154:1330  if ( bal < _withdrawAmount ) {... */\n      iszero\n      tag_33\n      jumpi\n        /* \"Sol_by_Example/Basics/error.sol\":1252:1255  bal */\n      dup1\n        /* \"Sol_by_Example/Basics/error.sol\":1289:1304  _withdrawAmount */\n      dup3\n        /* \"Sol_by_Example/Basics/error.sol\":1204:1319  InsufficientBalance ({... */\n      mload(0x40)\n      0xcf47918100000000000000000000000000000000000000000000000000000000\n      dup2\n      mstore\n      0x04\n      add\n      tag_34\n      swap3\n      swap2\n      swap1\n      tag_35\n      jump\t// in\n    tag_34:\n      mload(0x40)\n      dup1\n      swap2\n      sub\n      swap1\n      revert\n        /* \"Sol_by_Example/Basics/error.sol\":1154:1330  if ( bal < _withdrawAmount ) {... */\n    tag_33:\n        /* \"Sol_by_Example/Basics/error.sol\":1102:1336  {... */\n      pop\n        /* \"Sol_by_Example/Basics/error.sol\":1043:1336  function testCustomError(uint _withdrawAmount) public view {... */\n      pop\n      jump\t// out\n        /* \"Sol_by_Example/Basics/error.sol\":266:387  function testRequire(uint _number) pure public {... */\n    tag_23:\n        /* \"Sol_by_Example/Basics/error.sol\":341:343  10 */\n      0x0a\n        /* \"Sol_by_Example/Basics/error.sol\":331:338  _number */\n      dup2\n        /* \"Sol_by_Example/Basics/error.sol\":331:343  _number > 10 */\n      gt\n        /* \"Sol_by_Example/Basics/error.sol\":323:380  require(_number > 10, \"number should be greater than 10\") */\n      tag_37\n      jumpi\n      mload(0x40)\n      0x08c379a000000000000000000000000000000000000000000000000000000000\n      dup2\n      mstore\n      0x04\n      add\n      tag_38\n      swap1\n      tag_27\n      jump\t// in\n    tag_38:\n      mload(0x40)\n      dup1\n      swap2\n      sub\n      swap1\n      revert\n    tag_37:\n        /* \"Sol_by_Example/Basics/error.sol\":266:387  function testRequire(uint _number) pure public {... */\n      pop\n      jump\t// out\n        /* \"#utility.yul\":88:205   */\n    tag_40:\n        /* \"#utility.yul\":197:198   */\n      0x00\n        /* \"#utility.yul\":194:195   */\n      0x00\n        /* \"#utility.yul\":187:199   */\n      revert\n        /* \"#utility.yul\":334:411   */\n    tag_42:\n        /* \"#utility.yul\":371:378   */\n      0x00\n        /* \"#utility.yul\":400:405   */\n      dup2\n        /* \"#utility.yul\":389:405   */\n      swap1\n      pop\n        /* \"#utility.yul\":334:411   */\n      swap2\n      swap1\n      pop\n      jump\t// out\n        /* \"#utility.yul\":417:539   */\n    tag_43:\n        /* \"#utility.yul\":490:514   */\n      tag_55\n        /* \"#utility.yul\":508:513   */\n      dup2\n        /* \"#utility.yul\":490:514   */\n      tag_42\n      jump\t// in\n    tag_55:\n        /* \"#utility.yul\":483:488   */\n      dup2\n        /* \"#utility.yul\":480:515   */\n      eq\n        /* \"#utility.yul\":470:533   */\n      tag_56\n      jumpi\n        /* \"#utility.yul\":529:530   */\n      0x00\n        /* \"#utility.yul\":526:527   */\n      0x00\n        /* \"#utility.yul\":519:531   */\n      revert\n        /* \"#utility.yul\":470:533   */\n    tag_56:\n        /* \"#utility.yul\":417:539   */\n      pop\n      jump\t// out\n        /* \"#utility.yul\":545:684   */\n    tag_44:\n        /* \"#utility.yul\":591:596   */\n      0x00\n        /* \"#utility.yul\":629:635   */\n      dup2\n        /* \"#utility.yul\":616:636   */\n      calldataload\n        /* \"#utility.yul\":607:636   */\n      swap1\n      pop\n        /* \"#utility.yul\":645:678   */\n      tag_58\n        /* \"#utility.yul\":672:677   */\n      dup2\n        /* \"#utility.yul\":645:678   */\n      tag_43\n      jump\t// in\n    tag_58:\n        /* \"#utility.yul\":545:684   */\n      swap3\n      swap2\n      pop\n      pop\n      jump\t// out\n        /* \"#utility.yul\":690:1019   */\n    tag_10:\n        /* \"#utility.yul\":749:755   */\n      0x00\n        /* \"#utility.yul\":798:800   */\n      0x20\n        /* \"#utility.yul\":786:795   */\n      dup3\n        /* \"#utility.yul\":777:784   */\n      dup5\n        /* \"#utility.yul\":773:796   */\n      sub\n        /* \"#utility.yul\":769:801   */\n      slt\n        /* \"#utility.yul\":766:885   */\n      iszero\n      tag_60\n      jumpi\n        /* \"#utility.yul\":804:883   */\n      tag_61\n      tag_40\n      jump\t// in\n    tag_61:\n        /* \"#utility.yul\":766:885   */\n    tag_60:\n        /* \"#utility.yul\":924:925   */\n      0x00\n        /* \"#utility.yul\":949:1002   */\n      tag_62\n        /* \"#utility.yul\":994:1001   */\n      dup5\n        /* \"#utility.yul\":985:991   */\n      dup3\n        /* \"#utility.yul\":974:983   */\n      dup6\n        /* \"#utility.yul\":970:992   */\n      add\n        /* \"#utility.yul\":949:1002   */\n      tag_44\n      jump\t// in\n    tag_62:\n        /* \"#utility.yul\":939:1002   */\n      swap2\n      pop\n        /* \"#utility.yul\":895:1012   */\n      pop\n        /* \"#utility.yul\":690:1019   */\n      swap3\n      swap2\n      pop\n      pop\n      jump\t// out\n        /* \"#utility.yul\":1025:1143   */\n    tag_45:\n        /* \"#utility.yul\":1112:1136   */\n      tag_64\n        /* \"#utility.yul\":1130:1135   */\n      dup2\n        /* \"#utility.yul\":1112:1136   */\n      tag_42\n      jump\t// in\n    tag_64:\n        /* \"#utility.yul\":1107:1110   */\n      dup3\n        /* \"#utility.yul\":1100:1137   */\n      mstore\n        /* \"#utility.yul\":1025:1143   */\n      pop\n      pop\n      jump\t// out\n        /* \"#utility.yul\":1149:1371   */\n    tag_17:\n        /* \"#utility.yul\":1242:1246   */\n      0x00\n        /* \"#utility.yul\":1280:1282   */\n      0x20\n        /* \"#utility.yul\":1269:1278   */\n      dup3\n        /* \"#utility.yul\":1265:1283   */\n      add\n        /* \"#utility.yul\":1257:1283   */\n      swap1\n      pop\n        /* \"#utility.yul\":1293:1364   */\n      tag_66\n        /* \"#utility.yul\":1361:1362   */\n      0x00\n        /* \"#utility.yul\":1350:1359   */\n      dup4\n        /* \"#utility.yul\":1346:1363   */\n      add\n        /* \"#utility.yul\":1337:1343   */\n      dup5\n        /* \"#utility.yul\":1293:1364   */\n      tag_45\n      jump\t// in\n    tag_66:\n        /* \"#utility.yul\":1149:1371   */\n      swap3\n      swap2\n      pop\n      pop\n      jump\t// out\n        /* \"#utility.yul\":1377:1546   */\n    tag_46:\n        /* \"#utility.yul\":1461:1472   */\n      0x00\n        /* \"#utility.yul\":1495:1501   */\n      dup3\n        /* \"#utility.yul\":1490:1493   */\n      dup3\n        /* \"#utility.yul\":1483:1502   */\n      mstore\n        /* \"#utility.yul\":1535:1539   */\n      0x20\n        /* \"#utility.yul\":1530:1533   */\n      dup3\n        /* \"#utility.yul\":1526:1540   */\n      add\n        /* \"#utility.yul\":1511:1540   */\n      swap1\n      pop\n        /* \"#utility.yul\":1377:1546   */\n      swap3\n      swap2\n      pop\n      pop\n      jump\t// out\n        /* \"#utility.yul\":1552:1734   */\n    tag_47:\n        /* \"#utility.yul\":1692:1726   */\n      0x6e756d6265722073686f756c642062652067726561746572207468616e203130\n        /* \"#utility.yul\":1688:1689   */\n      0x00\n        /* \"#utility.yul\":1680:1686   */\n      dup3\n        /* \"#utility.yul\":1676:1690   */\n      add\n        /* \"#utility.yul\":1669:1727   */\n      mstore\n        /* \"#utility.yul\":1552:1734   */\n      pop\n      jump\t// out\n        /* \"#utility.yul\":1740:2106   */\n    tag_48:\n        /* \"#utility.yul\":1882:1885   */\n      0x00\n        /* \"#utility.yul\":1903:1970   */\n      tag_70\n        /* \"#utility.yul\":1967:1969   */\n      0x20\n        /* \"#utility.yul\":1962:1965   */\n      dup4\n        /* \"#utility.yul\":1903:1970   */\n      tag_46\n      jump\t// in\n    tag_70:\n        /* \"#utility.yul\":1896:1970   */\n      swap2\n      pop\n        /* \"#utility.yul\":1979:2072   */\n      tag_71\n        /* \"#utility.yul\":2068:2071   */\n      dup3\n        /* \"#utility.yul\":1979:2072   */\n      tag_47\n      jump\t// in\n    tag_71:\n        /* \"#utility.yul\":2097:2099   */\n      0x20\n        /* \"#utility.yul\":2092:2095   */\n      dup3\n        /* \"#utility.yul\":2088:2100   */\n      add\n        /* \"#utility.yul\":2081:2100   */\n      swap1\n      pop\n        /* \"#utility.yul\":1740:2106   */\n      swap2\n      swap1\n      pop\n      jump\t// out\n        /* \"#utility.yul\":2112:2531   */\n    tag_27:\n        /* \"#utility.yul\":2278:2282   */\n      0x00\n        /* \"#utility.yul\":2316:2318   */\n      0x20\n        /* \"#utility.yul\":2305:2314   */\n      dup3\n        /* \"#utility.yul\":2301:2319   */\n      add\n        /* \"#utility.yul\":2293:2319   */\n      swap1\n      pop\n        /* \"#utility.yul\":2365:2374   */\n      dup2\n        /* \"#utility.yul\":2359:2363   */\n      dup2\n        /* \"#utility.yul\":2355:2375   */\n      sub\n        /* \"#utility.yul\":2351:2352   */\n      0x00\n        /* \"#utility.yul\":2340:2349   */\n      dup4\n        /* \"#utility.yul\":2336:2353   */\n      add\n        /* \"#utility.yul\":2329:2376   */\n      mstore\n        /* \"#utility.yul\":2393:2524   */\n      tag_73\n        /* \"#utility.yul\":2519:2523   */\n      dup2\n        /* \"#utility.yul\":2393:2524   */\n      tag_48\n      jump\t// in\n    tag_73:\n        /* \"#utility.yul\":2385:2524   */\n      swap1\n      pop\n        /* \"#utility.yul\":2112:2531   */\n      swap2\n      swap1\n      pop\n      jump\t// out\n        /* \"#utility.yul\":2537:2717   */\n    tag_31:\n        /* \"#utility.yul\":2585:2662   */\n      0x4e487b7100000000000000000000000000000000000000000000000000000000\n        /* \"#utility.yul\":2582:2583   */\n      0x00\n        /* \"#utility.yul\":2575:2663   */\n      mstore\n        /* \"#utility.yul\":2682:2686   */\n      0x01\n        /* \"#utility.yul\":2679:2680   */\n      0x04\n        /* \"#utility.yul\":2672:2687   */\n      mstore\n        /* \"#utility.yul\":2706:2710   */\n      0x24\n        /* \"#utility.yul\":2703:2704   */\n      0x00\n        /* \"#utility.yul\":2696:2711   */\n      revert\n        /* \"#utility.yul\":2723:3055   */\n    tag_35:\n        /* \"#utility.yul\":2844:2848   */\n      0x00\n        /* \"#utility.yul\":2882:2884   */\n      0x40\n        /* \"#utility.yul\":2871:2880   */\n      dup3\n        /* \"#utility.yul\":2867:2885   */\n      add\n        /* \"#utility.yul\":2859:2885   */\n      swap1\n      pop\n        /* \"#utility.yul\":2895:2966   */\n      tag_76\n        /* \"#utility.yul\":2963:2964   */\n      0x00\n        /* \"#utility.yul\":2952:2961   */\n      dup4\n        /* \"#utility.yul\":2948:2965   */\n      add\n        /* \"#utility.yul\":2939:2945   */\n      dup6\n        /* \"#utility.yul\":2895:2966   */\n      tag_45\n      jump\t// in\n    tag_76:\n        /* \"#utility.yul\":2976:3048   */\n      tag_77\n        /* \"#utility.yul\":3044:3046   */\n      0x20\n        /* \"#utility.yul\":3033:3042   */\n      dup4\n        /* \"#utility.yul\":3029:3047   */\n      add\n        /* \"#utility.yul\":3020:3026   */\n      dup5\n        /* \"#utility.yul\":2976:3048   */\n      tag_45\n      jump\t// in\n    tag_77:\n        /* \"#utility.yul\":2723:3055   */\n      swap4\n      swap3\n      pop\n      pop\n      pop\n      jump\t// out\n\n    auxdata: 0xa2646970667358221220414b49dd9ee6cfa1f29b2836fed854aed825776aabc7ff7a59ceb1692d52a18064736f6c634300081f0033\n}\n",
				"bytecode": {
					"linkReferences": {},
					"object": "6080604052348015600e575f5ffd5b506103558061001c5f395ff3fe608060405234801561000f575f5ffd5b5060043610610055575f3560e01c806320987767146100595780632b813bc0146100755780634e70b1dc1461007f57806375f7286c1461009d578063b8bd717f146100b9575b5f5ffd5b610073600480360381019061006e9190610200565b6100d5565b005b61007d61011c565b005b61008761012f565b604051610094919061023a565b60405180910390f35b6100b760048036038101906100b29190610200565b610134565b005b6100d360048036038101906100ce9190610200565b610183565b005b600a811115610119576040517f08c379a0000000000000000000000000000000000000000000000000000000008152600401610110906102ad565b60405180910390fd5b50565b5f5f541461012d5761012c6102cb565b5b565b5f5481565b5f4790508181101561017f5780826040517fcf4791810000000000000000000000000000000000000000000000000000000081526004016101769291906102f8565b60405180910390fd5b5050565b600a81116101c6576040517f08c379a00000000000000000000000000000000000000000000000000000000081526004016101bd906102ad565b60405180910390fd5b50565b5f5ffd5b5f819050919050565b6101df816101cd565b81146101e9575f5ffd5b50565b5f813590506101fa816101d6565b92915050565b5f60208284031215610215576102146101c9565b5b5f610222848285016101ec565b91505092915050565b610234816101cd565b82525050565b5f60208201905061024d5f83018461022b565b92915050565b5f82825260208201905092915050565b7f6e756d6265722073686f756c642062652067726561746572207468616e2031305f82015250565b5f610297602083610253565b91506102a282610263565b602082019050919050565b5f6020820190508181035f8301526102c48161028b565b9050919050565b7f4e487b71000000000000000000000000000000000000000000000000000000005f52600160045260245ffd5b5f60408201905061030b5f83018561022b565b610318602083018461022b565b939250505056fea2646970667358221220414b49dd9ee6cfa1f29b2836fed854aed825776aabc7ff7a59ceb1692d52a18064736f6c634300081f0033",
					"opcodes": "PUSH1 0x80 PUSH1 0x40 MSTORE CALLVALUE DUP1 ISZERO PUSH1 0xE JUMPI PUSH0 PUSH0 REVERT JUMPDEST POP PUSH2 0x355 DUP1 PUSH2 0x1C PUSH0 CODECOPY PUSH0 RETURN INVALID PUSH1 0x80 PUSH1 0x40 MSTORE CALLVALUE DUP1 ISZERO PUSH2 0xF JUMPI PUSH0 PUSH0 REVERT JUMPDEST POP PUSH1 0x4 CALLDATASIZE LT PUSH2 0x55 JUMPI PUSH0 CALLDATALOAD PUSH1 0xE0 SHR DUP1 PUSH4 0x20987767 EQ PUSH2 0x59 JUMPI DUP1 PUSH4 0x2B813BC0 EQ PUSH2 0x75 JUMPI DUP1 PUSH4 0x4E70B1DC EQ PUSH2 0x7F JUMPI DUP1 PUSH4 0x75F7286C EQ PUSH2 0x9D JUMPI DUP1 PUSH4 0xB8BD717F EQ PUSH2 0xB9 JUMPI JUMPDEST PUSH0 PUSH0 REVERT JUMPDEST PUSH2 0x73 PUSH1 0x4 DUP1 CALLDATASIZE SUB DUP2 ADD SWAP1 PUSH2 0x6E SWAP2 SWAP1 PUSH2 0x200 JUMP JUMPDEST PUSH2 0xD5 JUMP JUMPDEST STOP JUMPDEST PUSH2 0x7D PUSH2 0x11C JUMP JUMPDEST STOP JUMPDEST PUSH2 0x87 PUSH2 0x12F JUMP JUMPDEST PUSH1 0x40 MLOAD PUSH2 0x94 SWAP2 SWAP1 PUSH2 0x23A JUMP JUMPDEST PUSH1 0x40 MLOAD DUP1 SWAP2 SUB SWAP1 RETURN JUMPDEST PUSH2 0xB7 PUSH1 0x4 DUP1 CALLDATASIZE SUB DUP2 ADD SWAP1 PUSH2 0xB2 SWAP2 SWAP1 PUSH2 0x200 JUMP JUMPDEST PUSH2 0x134 JUMP JUMPDEST STOP JUMPDEST PUSH2 0xD3 PUSH1 0x4 DUP1 CALLDATASIZE SUB DUP2 ADD SWAP1 PUSH2 0xCE SWAP2 SWAP1 PUSH2 0x200 JUMP JUMPDEST PUSH2 0x183 JUMP JUMPDEST STOP JUMPDEST PUSH1 0xA DUP2 GT ISZERO PUSH2 0x119 JUMPI PUSH1 0x40 MLOAD PUSH32 0x8C379A000000000000000000000000000000000000000000000000000000000 DUP2 MSTORE PUSH1 0x4 ADD PUSH2 0x110 SWAP1 PUSH2 0x2AD JUMP JUMPDEST PUSH1 0x40 MLOAD DUP1 SWAP2 SUB SWAP1 REVERT JUMPDEST POP JUMP JUMPDEST PUSH0 PUSH0 SLOAD EQ PUSH2 0x12D JUMPI PUSH2 0x12C PUSH2 0x2CB JUMP JUMPDEST JUMPDEST JUMP JUMPDEST PUSH0 SLOAD DUP2 JUMP JUMPDEST PUSH0 SELFBALANCE SWAP1 POP DUP2 DUP2 LT ISZERO PUSH2 0x17F JUMPI DUP1 DUP3 PUSH1 0x40 MLOAD PUSH32 0xCF47918100000000000000000000000000000000000000000000000000000000 DUP2 MSTORE PUSH1 0x4 ADD PUSH2 0x176 SWAP3 SWAP2 SWAP1 PUSH2 0x2F8 JUMP JUMPDEST PUSH1 0x40 MLOAD DUP1 SWAP2 SUB SWAP1 REVERT JUMPDEST POP POP JUMP JUMPDEST PUSH1 0xA DUP2 GT PUSH2 0x1C6 JUMPI PUSH1 0x40 MLOAD PUSH32 0x8C379A000000000000000000000000000000000000000000000000000000000 DUP2 MSTORE PUSH1 0x4 ADD PUSH2 0x1BD SWAP1 PUSH2 0x2AD JUMP JUMPDEST PUSH1 0x40 MLOAD DUP1 SWAP2 SUB SWAP1 REVERT JUMPDEST POP JUMP JUMPDEST PUSH0 PUSH0 REVERT JUMPDEST PUSH0 DUP2 SWAP1 POP SWAP2 SWAP1 POP JUMP JUMPDEST PUSH2 0x1DF DUP2 PUSH2 0x1CD JUMP JUMPDEST DUP2 EQ PUSH2 0x1E9 JUMPI PUSH0 PUSH0 REVERT JUMPDEST POP JUMP JUMPDEST PUSH0 DUP2 CALLDATALOAD SWAP1 POP PUSH2 0x1FA DUP2 PUSH2 0x1D6 JUMP JUMPDEST SWAP3 SWAP2 POP POP JUMP JUMPDEST PUSH0 PUSH1 0x20 DUP3 DUP5 SUB SLT ISZERO PUSH2 0x215 JUMPI PUSH2 0x214 PUSH2 0x1C9 JUMP JUMPDEST JUMPDEST PUSH0 PUSH2 0x222 DUP5 DUP3 DUP6 ADD PUSH2 0x1EC JUMP JUMPDEST SWAP2 POP POP SWAP3 SWAP2 POP POP JUMP JUMPDEST PUSH2 0x234 DUP2 PUSH2 0x1CD JUMP JUMPDEST DUP3 MSTORE POP POP JUMP JUMPDEST PUSH0 PUSH1 0x20 DUP3 ADD SWAP1 POP PUSH2 0x24D PUSH0 DUP4 ADD DUP5 PUSH2 0x22B JUMP JUMPDEST SWAP3 SWAP2 POP POP JUMP JUMPDEST PUSH0 DUP3 DUP3 MSTORE PUSH1 0x20 DUP3 ADD SWAP1 POP SWAP3 SWAP2 POP POP JUMP JUMPDEST PUSH32 0x6E756D6265722073686F756C642062652067726561746572207468616E203130 PUSH0 DUP3 ADD MSTORE POP JUMP JUMPDEST PUSH0 PUSH2 0x297 PUSH1 0x20 DUP4 PUSH2 0x253 JUMP JUMPDEST SWAP2 POP PUSH2 0x2A2 DUP3 PUSH2 0x263 JUMP JUMPDEST PUSH1 0x20 DUP3 ADD SWAP1 POP SWAP2 SWAP1 POP JUMP JUMPDEST PUSH0 PUSH1 0x20 DUP3 ADD SWAP1 POP DUP2 DUP2 SUB PUSH0 DUP4 ADD MSTORE PUSH2 0x2C4 DUP2 PUSH2 0x28B JUMP JUMPDEST SWAP1 POP SWAP2 SWAP1 POP JUMP JUMPDEST PUSH32 0x4E487B7100000000000000000000000000000000000000000000000000000000 PUSH0 MSTORE PUSH1 0x1 PUSH1 0x4 MSTORE PUSH1 0x24 PUSH0 REVERT JUMPDEST PUSH0 PUSH1 0x40 DUP3 ADD SWAP1 POP PUSH2 0x30B PUSH0 DUP4 ADD DUP6 PUSH2 0x22B JUMP JUMPDEST PUSH2 0x318 PUSH1 0x20 DUP4 ADD DUP5 PUSH2 0x22B JUMP JUMPDEST SWAP4 SWAP3 POP POP POP JUMP INVALID LOG2 PUSH5 0x6970667358 0x22 SLT KECCAK256 COINBASE 0x4B BLOBHASH 0xDD SWAP15 DUPN 0xCF LOG1 CALLCODE SWAP12 0x28 CALLDATASIZE INVALID 0xD8 SLOAD 0xAE 0xD8 0x25 PUSH24 0x6AABC7FF7A59CEB1692D52A18064736F6C634300081F0033 "
				},
				"gasEstimates": {
					"creation": {
						"codeDepositCost": "170600",
						"executionCost": "212",
						"totalCost": "170812"
					},
					"external": {
						"num()": "2446",
						"testAssert()": "2291",
						"testCustomError(uint256)": "infinite",
						"testRequire(uint256)": "772",
						"testRevert(uint256)": "687"
					}
				},
				"methodIdentifiers": {
					"num()": "4e70b1dc",
					"testAssert()": "2b813bc0",
					"testCustomError(uint256)": "75f7286c",
					"testRequire(uint256)": "b8bd717f",
					"testRevert(uint256)": "20987767"
				}
			},
			"storageLayout": {
				"storage": [
					{
						"astId": 31,
						"contract": "Sol_by_Example/Basics/error.sol:TestError",
						"label": "num",
						"offset": 0,
						"slot": "0",
						"type": "t_uint256"
					}
				],
				"types": {
					"t_uint256": {
						"encoding": "inplace",
						"label": "uint256",
						"numberOfBytes": "32"
					}
				}
			},
			"userdoc": {
				"kind": "user",
				"methods": {},
				"version": 1
			}
		}
	}
}