{
	"new/MarketplaceEscrow_test/EscrowMarketplace.sol": {
		"EscrowMarketplace": {
			"abi": [
				{
					"inputs": [
						{
							"internalType": "address payable",
							"name": "treasuryAddress",
							"type": "address"
						},
						{
							"internalType": "address",
							"name": "arbitratorAddress",
							"type": "address"
						}
					],
					"stateMutability": "nonpayable",
					"type": "constructor"
				},
				{
					"inputs": [
						{
							"internalType": "uint256",
							"name": "",
							"type": "uint256"
						},
						{
							"internalType": "uint256",
							"name": "",
							"type": "uint256"
						}
					],
					"name": "FeeTooHigh",
					"type": "error"
				},
				{
					"inputs": [
						{
							"internalType": "uint256",
							"name": "",
							"type": "uint256"
						},
						{
							"internalType": "enum EscrowMarketplace.OrderState",
							"name": "",
							"type": "uint8"
						}
					],
					"name": "InvalidState",
					"type": "error"
				},
				{
					"inputs": [],
					"name": "NonReentrant",
					"type": "error"
				},
				{
					"inputs": [
						{
							"internalType": "uint256",
							"name": "",
							"type": "uint256"
						}
					],
					"name": "NotBuyer",
					"type": "error"
				},
				{
					"inputs": [
						{
							"internalType": "uint256",
							"name": "",
							"type": "uint256"
						}
					],
					"name": "NotSeller",
					"type": "error"
				},
				{
					"inputs": [
						{
							"internalType": "uint256",
							"name": "",
							"type": "uint256"
						}
					],
					"name": "OrderNotFound",
					"type": "error"
				},
				{
					"inputs": [],
					"name": "TransferFailed",
					"type": "error"
				},
				{
					"inputs": [],
					"name": "Unauthorized",
					"type": "error"
				},
				{
					"inputs": [],
					"name": "ZeroAddress",
					"type": "error"
				},
				{
					"inputs": [],
					"name": "ZeroAmount",
					"type": "error"
				},
				{
					"anonymous": false,
					"inputs": [
						{
							"indexed": false,
							"internalType": "address",
							"name": "oldArbitrator",
							"type": "address"
						},
						{
							"indexed": false,
							"internalType": "address",
							"name": "newArbitrator",
							"type": "address"
						}
					],
					"name": "ArbitratorUpdated",
					"type": "event"
				},
				{
					"anonymous": false,
					"inputs": [
						{
							"indexed": true,
							"internalType": "uint256",
							"name": "id",
							"type": "uint256"
						}
					],
					"name": "Cancelled",
					"type": "event"
				},
				{
					"anonymous": false,
					"inputs": [
						{
							"indexed": true,
							"internalType": "uint256",
							"name": "id",
							"type": "uint256"
						},
						{
							"indexed": true,
							"internalType": "address",
							"name": "openedBy",
							"type": "address"
						}
					],
					"name": "DisputeOpened",
					"type": "event"
				},
				{
					"anonymous": false,
					"inputs": [
						{
							"indexed": true,
							"internalType": "uint256",
							"name": "id",
							"type": "uint256"
						},
						{
							"indexed": false,
							"internalType": "bool",
							"name": "releasedToSeller",
							"type": "bool"
						}
					],
					"name": "DisputeResolved",
					"type": "event"
				},
				{
					"anonymous": false,
					"inputs": [
						{
							"indexed": false,
							"internalType": "uint256",
							"name": "oldBps",
							"type": "uint256"
						},
						{
							"indexed": false,
							"internalType": "uint256",
							"name": "newBps",
							"type": "uint256"
						}
					],
					"name": "FeeUpdated",
					"type": "event"
				},
				{
					"anonymous": false,
					"inputs": [
						{
							"indexed": true,
							"internalType": "uint256",
							"name": "id",
							"type": "uint256"
						},
						{
							"indexed": false,
							"internalType": "uint256",
							"name": "payoutToSeller",
							"type": "uint256"
						},
						{
							"indexed": false,
							"internalType": "uint256",
							"name": "fee",
							"type": "uint256"
						}
					],
					"name": "OrderCompleted",
					"type": "event"
				},
				{
					"anonymous": false,
					"inputs": [
						{
							"indexed": true,
							"internalType": "uint256",
							"name": "orderId",
							"type": "uint256"
						},
						{
							"indexed": true,
							"internalType": "address",
							"name": "buyer",
							"type": "address"
						},
						{
							"indexed": true,
							"internalType": "address",
							"name": "seller",
							"type": "address"
						},
						{
							"indexed": false,
							"internalType": "bytes32",
							"name": "detailHash",
							"type": "bytes32"
						}
					],
					"name": "OrderCreated",
					"type": "event"
				},
				{
					"anonymous": false,
					"inputs": [
						{
							"indexed": true,
							"internalType": "uint256",
							"name": "id",
							"type": "uint256"
						},
						{
							"indexed": false,
							"internalType": "uint256",
							"name": "amount",
							"type": "uint256"
						}
					],
					"name": "OrderFunded",
					"type": "event"
				},
				{
					"anonymous": false,
					"inputs": [
						{
							"indexed": true,
							"internalType": "uint256",
							"name": "id",
							"type": "uint256"
						}
					],
					"name": "OrderShipped",
					"type": "event"
				},
				{
					"anonymous": false,
					"inputs": [
						{
							"indexed": true,
							"internalType": "uint256",
							"name": "id",
							"type": "uint256"
						},
						{
							"indexed": false,
							"internalType": "uint256",
							"name": "amount",
							"type": "uint256"
						}
					],
					"name": "Refunded",
					"type": "event"
				},
				{
					"anonymous": false,
					"inputs": [
						{
							"indexed": true,
							"internalType": "address",
							"name": "account",
							"type": "address"
						},
						{
							"indexed": true,
							"internalType": "uint8",
							"name": "role",
							"type": "uint8"
						}
					],
					"name": "RoleGranted",
					"type": "event"
				},
				{
					"anonymous": false,
					"inputs": [
						{
							"indexed": true,
							"internalType": "address",
							"name": "account",
							"type": "address"
						},
						{
							"indexed": true,
							"internalType": "uint8",
							"name": "role",
							"type": "uint8"
						}
					],
					"name": "RoleRevoked",
					"type": "event"
				},
				{
					"inputs": [],
					"name": "ADMIN",
					"outputs": [
						{
							"internalType": "uint8",
							"name": "",
							"type": "uint8"
						}
					],
					"stateMutability": "view",
					"type": "function"
				},
				{
					"inputs": [],
					"name": "MAX_FEE_BPS",
					"outputs": [
						{
							"internalType": "uint256",
							"name": "",
							"type": "uint256"
						}
					],
					"stateMutability": "view",
					"type": "function"
				},
				{
					"inputs": [],
					"name": "MEDIATOR",
					"outputs": [
						{
							"internalType": "uint8",
							"name": "",
							"type": "uint8"
						}
					],
					"stateMutability": "view",
					"type": "function"
				},
				{
					"inputs": [],
					"name": "SELLER",
					"outputs": [
						{
							"internalType": "uint8",
							"name": "",
							"type": "uint8"
						}
					],
					"stateMutability": "view",
					"type": "function"
				},
				{
					"inputs": [],
					"name": "arbitrator",
					"outputs": [
						{
							"internalType": "contract IArbitrator",
							"name": "",
							"type": "address"
						}
					],
					"stateMutability": "view",
					"type": "function"
				},
				{
					"inputs": [
						{
							"internalType": "uint256",
							"name": "orderId",
							"type": "uint256"
						}
					],
					"name": "cancelUnfunded",
					"outputs": [],
					"stateMutability": "nonpayable",
					"type": "function"
				},
				{
					"inputs": [
						{
							"internalType": "uint256",
							"name": "orderId",
							"type": "uint256"
						}
					],
					"name": "confirmReceived",
					"outputs": [],
					"stateMutability": "nonpayable",
					"type": "function"
				},
				{
					"inputs": [
						{
							"internalType": "address",
							"name": "_seller",
							"type": "address"
						},
						{
							"internalType": "bytes32",
							"name": "_detailHash",
							"type": "bytes32"
						}
					],
					"name": "createOrder",
					"outputs": [
						{
							"internalType": "uint256",
							"name": "orderId",
							"type": "uint256"
						}
					],
					"stateMutability": "nonpayable",
					"type": "function"
				},
				{
					"inputs": [],
					"name": "feeBps",
					"outputs": [
						{
							"internalType": "uint256",
							"name": "",
							"type": "uint256"
						}
					],
					"stateMutability": "view",
					"type": "function"
				},
				{
					"inputs": [
						{
							"internalType": "uint256",
							"name": "orderId",
							"type": "uint256"
						}
					],
					"name": "fundOrder",
					"outputs": [],
					"stateMutability": "payable",
					"type": "function"
				},
				{
					"inputs": [
						{
							"internalType": "uint256",
							"name": "orderId",
							"type": "uint256"
						}
					],
					"name": "getOrder",
					"outputs": [
						{
							"components": [
								{
									"internalType": "uint256",
									"name": "id",
									"type": "uint256"
								},
								{
									"internalType": "address",
									"name": "buyer",
									"type": "address"
								},
								{
									"internalType": "address",
									"name": "seller",
									"type": "address"
								},
								{
									"internalType": "uint256",
									"name": "amount",
									"type": "uint256"
								},
								{
									"internalType": "uint256",
									"name": "createdAt",
									"type": "uint256"
								},
								{
									"internalType": "bytes32",
									"name": "detailsHash",
									"type": "bytes32"
								},
								{
									"internalType": "enum EscrowMarketplace.OrderState",
									"name": "state",
									"type": "uint8"
								}
							],
							"internalType": "struct EscrowMarketplace.Order",
							"name": "",
							"type": "tuple"
						}
					],
					"stateMutability": "view",
					"type": "function"
				},
				{
					"inputs": [
						{
							"internalType": "address",
							"name": "_account",
							"type": "address"
						},
						{
							"internalType": "uint8",
							"name": "_assignRole",
							"type": "uint8"
						}
					],
					"name": "grantRole",
					"outputs": [],
					"stateMutability": "nonpayable",
					"type": "function"
				},
				{
					"inputs": [
						{
							"internalType": "address",
							"name": "account",
							"type": "address"
						},
						{
							"internalType": "uint8",
							"name": "role",
							"type": "uint8"
						}
					],
					"name": "hasRole",
					"outputs": [
						{
							"internalType": "bool",
							"name": "",
							"type": "bool"
						}
					],
					"stateMutability": "view",
					"type": "function"
				},
				{
					"inputs": [
						{
							"internalType": "uint256",
							"name": "orderId",
							"type": "uint256"
						}
					],
					"name": "markShipped",
					"outputs": [],
					"stateMutability": "nonpayable",
					"type": "function"
				},
				{
					"inputs": [
						{
							"internalType": "uint256",
							"name": "orderId",
							"type": "uint256"
						}
					],
					"name": "openDispute",
					"outputs": [],
					"stateMutability": "nonpayable",
					"type": "function"
				},
				{
					"inputs": [
						{
							"internalType": "uint256",
							"name": "orderId",
							"type": "uint256"
						}
					],
					"name": "refundBuyer",
					"outputs": [],
					"stateMutability": "nonpayable",
					"type": "function"
				},
				{
					"inputs": [
						{
							"internalType": "uint256",
							"name": "orderId",
							"type": "uint256"
						},
						{
							"internalType": "bool",
							"name": "releaseToSeller",
							"type": "bool"
						}
					],
					"name": "resolveDispute",
					"outputs": [],
					"stateMutability": "nonpayable",
					"type": "function"
				},
				{
					"inputs": [
						{
							"internalType": "address",
							"name": "_account",
							"type": "address"
						},
						{
							"internalType": "uint8",
							"name": "_role",
							"type": "uint8"
						}
					],
					"name": "revokeRole",
					"outputs": [],
					"stateMutability": "nonpayable",
					"type": "function"
				},
				{
					"inputs": [
						{
							"internalType": "address",
							"name": "newArbitrator",
							"type": "address"
						}
					],
					"name": "setArbitrator",
					"outputs": [],
					"stateMutability": "nonpayable",
					"type": "function"
				},
				{
					"inputs": [],
					"name": "treasury",
					"outputs": [
						{
							"internalType": "contract Treasury",
							"name": "",
							"type": "address"
						}
					],
					"stateMutability": "view",
					"type": "function"
				},
				{
					"inputs": [
						{
							"internalType": "uint256",
							"name": "newBps",
							"type": "uint256"
						}
					],
					"name": "updateFee",
					"outputs": [],
					"stateMutability": "nonpayable",
					"type": "function"
				}
			],
			"devdoc": {
				"kind": "dev",
				"methods": {},
				"version": 1
			},
			"evm": {
				"assembly": "    /* \"new/MarketplaceEscrow_test/EscrowMarketplace.sol\":142:8044  contract EscrowMarketplace is AccessManager {... */\n  mstore(0x40, 0xa0)\n    /* \"new/MarketplaceEscrow_test/EscrowMarketplace.sol\":696:697  1 */\n  0x01\n    /* \"new/MarketplaceEscrow_test/EscrowMarketplace.sol\":665:697  uint256 private _nextOrderId = 1 */\n  0x02\n  sstore\n    /* \"new/MarketplaceEscrow_test/EscrowMarketplace.sol\":898:901  100 */\n  0x64\n    /* \"new/MarketplaceEscrow_test/EscrowMarketplace.sol\":874:901  uint256 public feeBps = 100 */\n  0x05\n  sstore\n    /* \"new/MarketplaceEscrow_test/EscrowMarketplace.sol\":2090:2402  constructor (address payable treasuryAddress, address arbitratorAddress) {... */\n  callvalue\n  dup1\n  iszero\n  tag_1\n  jumpi\n  revert(0x00, 0x00)\ntag_1:\n  pop\n  mload(0x40)\n  sub(codesize, bytecodeSize)\n  dup1\n  bytecodeSize\n  dup4\n  codecopy\n  dup2\n  dup2\n  add\n  0x40\n  mstore\n  dup2\n  add\n  swap1\n  tag_2\n  swap2\n  swap1\n  tag_3\n  jump\t// in\ntag_2:\n    /* \"new/MarketplaceEscrow_test/AccessManager.sol\":796:825  _grantRole(msg.sender, ADMIN) */\n  tag_7\n    /* \"new/MarketplaceEscrow_test/AccessManager.sol\":807:817  msg.sender */\n  caller\n    /* \"new/MarketplaceEscrow_test/AccessManager.sol\":276:277  1 */\n  0x01\n    /* \"new/MarketplaceEscrow_test/AccessManager.sol\":796:806  _grantRole */\n  shl(0x20, tag_8)\n    /* \"new/MarketplaceEscrow_test/AccessManager.sol\":796:825  _grantRole(msg.sender, ADMIN) */\n  0x20\n  shr\n  jump\t// in\ntag_7:\n    /* \"new/MarketplaceEscrow_test/EscrowMarketplace.sol\":2204:2205  0 */\n  0x00\n    /* \"new/MarketplaceEscrow_test/EscrowMarketplace.sol\":2177:2206  treasuryAddress == address(0) */\n  0xffffffffffffffffffffffffffffffffffffffff\n  and\n    /* \"new/MarketplaceEscrow_test/EscrowMarketplace.sol\":2177:2192  treasuryAddress */\n  dup3\n    /* \"new/MarketplaceEscrow_test/EscrowMarketplace.sol\":2177:2206  treasuryAddress == address(0) */\n  0xffffffffffffffffffffffffffffffffffffffff\n  and\n  sub\n    /* \"new/MarketplaceEscrow_test/EscrowMarketplace.sol\":2173:2228  if( treasuryAddress == address(0)) revert ZeroAddress() */\n  tag_10\n  jumpi\n    /* \"new/MarketplaceEscrow_test/EscrowMarketplace.sol\":2215:2228  ZeroAddress() */\n  mload(0x40)\n  0xd92e233d00000000000000000000000000000000000000000000000000000000\n  dup2\n  mstore\n  0x04\n  add\n  mload(0x40)\n  dup1\n  swap2\n  sub\n  swap1\n  revert\n    /* \"new/MarketplaceEscrow_test/EscrowMarketplace.sol\":2173:2228  if( treasuryAddress == address(0)) revert ZeroAddress() */\ntag_10:\n    /* \"new/MarketplaceEscrow_test/EscrowMarketplace.sol\":2271:2272  0 */\n  0x00\n    /* \"new/MarketplaceEscrow_test/EscrowMarketplace.sol\":2242:2273  arbitratorAddress == address(0) */\n  0xffffffffffffffffffffffffffffffffffffffff\n  and\n    /* \"new/MarketplaceEscrow_test/EscrowMarketplace.sol\":2242:2259  arbitratorAddress */\n  dup2\n    /* \"new/MarketplaceEscrow_test/EscrowMarketplace.sol\":2242:2273  arbitratorAddress == address(0) */\n  0xffffffffffffffffffffffffffffffffffffffff\n  and\n  sub\n    /* \"new/MarketplaceEscrow_test/EscrowMarketplace.sol\":2238:2295  if( arbitratorAddress == address(0)) revert ZeroAddress() */\n  tag_11\n  jumpi\n    /* \"new/MarketplaceEscrow_test/EscrowMarketplace.sol\":2282:2295  ZeroAddress() */\n  mload(0x40)\n  0xd92e233d00000000000000000000000000000000000000000000000000000000\n  dup2\n  mstore\n  0x04\n  add\n  mload(0x40)\n  dup1\n  swap2\n  sub\n  swap1\n  revert\n    /* \"new/MarketplaceEscrow_test/EscrowMarketplace.sol\":2238:2295  if( arbitratorAddress == address(0)) revert ZeroAddress() */\ntag_11:\n    /* \"new/MarketplaceEscrow_test/EscrowMarketplace.sol\":2326:2341  treasuryAddress */\n  dup2\n    /* \"new/MarketplaceEscrow_test/EscrowMarketplace.sol\":2306:2342  treasury = Treasury(treasuryAddress) */\n  0xffffffffffffffffffffffffffffffffffffffff\n  and\n  0x80\n  dup2\n  0xffffffffffffffffffffffffffffffffffffffff\n  and\n  dup2\n  mstore\n  pop\n  pop\n    /* \"new/MarketplaceEscrow_test/EscrowMarketplace.sol\":2377:2394  arbitratorAddress */\n  dup1\n    /* \"new/MarketplaceEscrow_test/EscrowMarketplace.sol\":2352:2362  arbitrator */\n  0x01\n  0x00\n    /* \"new/MarketplaceEscrow_test/EscrowMarketplace.sol\":2352:2395  arbitrator = IArbitrator(arbitratorAddress) */\n  0x0100\n  exp\n  dup2\n  sload\n  dup2\n  0xffffffffffffffffffffffffffffffffffffffff\n  mul\n  not\n  and\n  swap1\n  dup4\n  0xffffffffffffffffffffffffffffffffffffffff\n  and\n  mul\n  or\n  swap1\n  sstore\n  pop\n    /* \"new/MarketplaceEscrow_test/EscrowMarketplace.sol\":2090:2402  constructor (address payable treasuryAddress, address arbitratorAddress) {... */\n  pop\n  pop\n    /* \"new/MarketplaceEscrow_test/EscrowMarketplace.sol\":142:8044  contract EscrowMarketplace is AccessManager {... */\n  jump(tag_12)\n    /* \"new/MarketplaceEscrow_test/AccessManager.sol\":1592:1761  function _grantRole(address _account, uint8 _assignRole ) internal {... */\ntag_8:\n    /* \"new/MarketplaceEscrow_test/AccessManager.sol\":1701:1705  true */\n  0x01\n    /* \"new/MarketplaceEscrow_test/AccessManager.sol\":1669:1675  _roles */\n  0x00\n    /* \"new/MarketplaceEscrow_test/AccessManager.sol\":1669:1685  _roles[_account] */\n  0x00\n    /* \"new/MarketplaceEscrow_test/AccessManager.sol\":1676:1684  _account */\n  dup5\n    /* \"new/MarketplaceEscrow_test/AccessManager.sol\":1669:1685  _roles[_account] */\n  0xffffffffffffffffffffffffffffffffffffffff\n  and\n  0xffffffffffffffffffffffffffffffffffffffff\n  and\n  dup2\n  mstore\n  0x20\n  add\n  swap1\n  dup2\n  mstore\n  0x20\n  add\n  0x00\n  keccak256\n    /* \"new/MarketplaceEscrow_test/AccessManager.sol\":1669:1698  _roles[_account][_assignRole] */\n  0x00\n    /* \"new/MarketplaceEscrow_test/AccessManager.sol\":1686:1697  _assignRole */\n  dup4\n    /* \"new/MarketplaceEscrow_test/AccessManager.sol\":1669:1698  _roles[_account][_assignRole] */\n  0xff\n  and\n  0xff\n  and\n  dup2\n  mstore\n  0x20\n  add\n  swap1\n  dup2\n  mstore\n  0x20\n  add\n  0x00\n  keccak256\n  0x00\n    /* \"new/MarketplaceEscrow_test/AccessManager.sol\":1669:1705  _roles[_account][_assignRole] = true */\n  0x0100\n  exp\n  dup2\n  sload\n  dup2\n  0xff\n  mul\n  not\n  and\n  swap1\n  dup4\n  iszero\n  iszero\n  mul\n  or\n  swap1\n  sstore\n  pop\n    /* \"new/MarketplaceEscrow_test/AccessManager.sol\":1742:1753  _assignRole */\n  dup1\n    /* \"new/MarketplaceEscrow_test/AccessManager.sol\":1720:1754  RoleGranted(_account, _assignRole) */\n  0xff\n  and\n    /* \"new/MarketplaceEscrow_test/AccessManager.sol\":1732:1740  _account */\n  dup3\n    /* \"new/MarketplaceEscrow_test/AccessManager.sol\":1720:1754  RoleGranted(_account, _assignRole) */\n  0xffffffffffffffffffffffffffffffffffffffff\n  and\n  0xaa259565575c834bc07e74dca784b4071676133ac78513b431afb6ee7edae121\n  mload(0x40)\n  mload(0x40)\n  dup1\n  swap2\n  sub\n  swap1\n  log3\n    /* \"new/MarketplaceEscrow_test/AccessManager.sol\":1592:1761  function _grantRole(address _account, uint8 _assignRole ) internal {... */\n  pop\n  pop\n  jump\t// out\n    /* \"#utility.yul\":88:205   */\ntag_15:\n    /* \"#utility.yul\":197:198   */\n  0x00\n    /* \"#utility.yul\":194:195   */\n  0x00\n    /* \"#utility.yul\":187:199   */\n  revert\n    /* \"#utility.yul\":334:460   */\ntag_17:\n    /* \"#utility.yul\":371:378   */\n  0x00\n    /* \"#utility.yul\":411:453   */\n  0xffffffffffffffffffffffffffffffffffffffff\n    /* \"#utility.yul\":404:409   */\n  dup3\n    /* \"#utility.yul\":400:454   */\n  and\n    /* \"#utility.yul\":389:454   */\n  swap1\n  pop\n    /* \"#utility.yul\":334:460   */\n  swap2\n  swap1\n  pop\n  jump\t// out\n    /* \"#utility.yul\":466:570   */\ntag_18:\n    /* \"#utility.yul\":511:518   */\n  0x00\n    /* \"#utility.yul\":540:564   */\n  tag_30\n    /* \"#utility.yul\":558:563   */\n  dup3\n    /* \"#utility.yul\":540:564   */\n  tag_17\n  jump\t// in\ntag_30:\n    /* \"#utility.yul\":529:564   */\n  swap1\n  pop\n    /* \"#utility.yul\":466:570   */\n  swap2\n  swap1\n  pop\n  jump\t// out\n    /* \"#utility.yul\":576:714   */\ntag_19:\n    /* \"#utility.yul\":657:689   */\n  tag_32\n    /* \"#utility.yul\":683:688   */\n  dup2\n    /* \"#utility.yul\":657:689   */\n  tag_18\n  jump\t// in\ntag_32:\n    /* \"#utility.yul\":650:655   */\n  dup2\n    /* \"#utility.yul\":647:690   */\n  eq\n    /* \"#utility.yul\":637:708   */\n  tag_33\n  jumpi\n    /* \"#utility.yul\":704:705   */\n  0x00\n    /* \"#utility.yul\":701:702   */\n  0x00\n    /* \"#utility.yul\":694:706   */\n  revert\n    /* \"#utility.yul\":637:708   */\ntag_33:\n    /* \"#utility.yul\":576:714   */\n  pop\n  jump\t// out\n    /* \"#utility.yul\":720:879   */\ntag_20:\n    /* \"#utility.yul\":785:790   */\n  0x00\n    /* \"#utility.yul\":816:822   */\n  dup2\n    /* \"#utility.yul\":810:823   */\n  mload\n    /* \"#utility.yul\":801:823   */\n  swap1\n  pop\n    /* \"#utility.yul\":832:873   */\n  tag_35\n    /* \"#utility.yul\":867:872   */\n  dup2\n    /* \"#utility.yul\":832:873   */\n  tag_19\n  jump\t// in\ntag_35:\n    /* \"#utility.yul\":720:879   */\n  swap3\n  swap2\n  pop\n  pop\n  jump\t// out\n    /* \"#utility.yul\":885:981   */\ntag_21:\n    /* \"#utility.yul\":922:929   */\n  0x00\n    /* \"#utility.yul\":951:975   */\n  tag_37\n    /* \"#utility.yul\":969:974   */\n  dup3\n    /* \"#utility.yul\":951:975   */\n  tag_17\n  jump\t// in\ntag_37:\n    /* \"#utility.yul\":940:975   */\n  swap1\n  pop\n    /* \"#utility.yul\":885:981   */\n  swap2\n  swap1\n  pop\n  jump\t// out\n    /* \"#utility.yul\":987:1109   */\ntag_22:\n    /* \"#utility.yul\":1060:1084   */\n  tag_39\n    /* \"#utility.yul\":1078:1083   */\n  dup2\n    /* \"#utility.yul\":1060:1084   */\n  tag_21\n  jump\t// in\ntag_39:\n    /* \"#utility.yul\":1053:1058   */\n  dup2\n    /* \"#utility.yul\":1050:1085   */\n  eq\n    /* \"#utility.yul\":1040:1103   */\n  tag_40\n  jumpi\n    /* \"#utility.yul\":1099:1100   */\n  0x00\n    /* \"#utility.yul\":1096:1097   */\n  0x00\n    /* \"#utility.yul\":1089:1101   */\n  revert\n    /* \"#utility.yul\":1040:1103   */\ntag_40:\n    /* \"#utility.yul\":987:1109   */\n  pop\n  jump\t// out\n    /* \"#utility.yul\":1115:1258   */\ntag_23:\n    /* \"#utility.yul\":1172:1177   */\n  0x00\n    /* \"#utility.yul\":1203:1209   */\n  dup2\n    /* \"#utility.yul\":1197:1210   */\n  mload\n    /* \"#utility.yul\":1188:1210   */\n  swap1\n  pop\n    /* \"#utility.yul\":1219:1252   */\n  tag_42\n    /* \"#utility.yul\":1246:1251   */\n  dup2\n    /* \"#utility.yul\":1219:1252   */\n  tag_22\n  jump\t// in\ntag_42:\n    /* \"#utility.yul\":1115:1258   */\n  swap3\n  swap2\n  pop\n  pop\n  jump\t// out\n    /* \"#utility.yul\":1264:1787   */\ntag_3:\n    /* \"#utility.yul\":1351:1357   */\n  0x00\n    /* \"#utility.yul\":1359:1365   */\n  0x00\n    /* \"#utility.yul\":1408:1410   */\n  0x40\n    /* \"#utility.yul\":1396:1405   */\n  dup4\n    /* \"#utility.yul\":1387:1394   */\n  dup6\n    /* \"#utility.yul\":1383:1406   */\n  sub\n    /* \"#utility.yul\":1379:1411   */\n  slt\n    /* \"#utility.yul\":1376:1495   */\n  iszero\n  tag_44\n  jumpi\n    /* \"#utility.yul\":1414:1493   */\n  tag_45\n  tag_15\n  jump\t// in\ntag_45:\n    /* \"#utility.yul\":1376:1495   */\ntag_44:\n    /* \"#utility.yul\":1534:1535   */\n  0x00\n    /* \"#utility.yul\":1559:1631   */\n  tag_46\n    /* \"#utility.yul\":1623:1630   */\n  dup6\n    /* \"#utility.yul\":1614:1620   */\n  dup3\n    /* \"#utility.yul\":1603:1612   */\n  dup7\n    /* \"#utility.yul\":1599:1621   */\n  add\n    /* \"#utility.yul\":1559:1631   */\n  tag_20\n  jump\t// in\ntag_46:\n    /* \"#utility.yul\":1549:1631   */\n  swap3\n  pop\n    /* \"#utility.yul\":1505:1641   */\n  pop\n    /* \"#utility.yul\":1680:1682   */\n  0x20\n    /* \"#utility.yul\":1706:1770   */\n  tag_47\n    /* \"#utility.yul\":1762:1769   */\n  dup6\n    /* \"#utility.yul\":1753:1759   */\n  dup3\n    /* \"#utility.yul\":1742:1751   */\n  dup7\n    /* \"#utility.yul\":1738:1760   */\n  add\n    /* \"#utility.yul\":1706:1770   */\n  tag_23\n  jump\t// in\ntag_47:\n    /* \"#utility.yul\":1696:1770   */\n  swap2\n  pop\n    /* \"#utility.yul\":1651:1780   */\n  pop\n    /* \"#utility.yul\":1264:1787   */\n  swap3\n  pop\n  swap3\n  swap1\n  pop\n  jump\t// out\n    /* \"new/MarketplaceEscrow_test/EscrowMarketplace.sol\":142:8044  contract EscrowMarketplace is AccessManager {... */\ntag_12:\n  mload(0x80)\n  codecopy(0x00, dataOffset(sub_0), dataSize(sub_0))\n  0x00\n  assignImmutable(\"0x69e3c6522a2f8bf12e780ae53c30e69d48d224ea00c92026278c398148e8df91\")\n  return(0x00, dataSize(sub_0))\nstop\n\nsub_0: assembly {\n        /* \"new/MarketplaceEscrow_test/EscrowMarketplace.sol\":142:8044  contract EscrowMarketplace is AccessManager {... */\n      mstore(0x40, 0x80)\n      jumpi(tag_1, lt(calldatasize, 0x04))\n      shr(0xe0, calldataload(0x00))\n      dup1\n      0x61d027b3\n      gt\n      tag_23\n      jumpi\n      dup1\n      0xb2170409\n      gt\n      tag_24\n      jumpi\n      dup1\n      0xb2170409\n      eq\n      tag_17\n      jumpi\n      dup1\n      0xb9c4d0a7\n      eq\n      tag_18\n      jumpi\n      dup1\n      0xbca93eba\n      eq\n      tag_19\n      jumpi\n      dup1\n      0xd09ef241\n      eq\n      tag_20\n      jumpi\n      dup1\n      0xd55be8c6\n      eq\n      tag_21\n      jumpi\n      dup1\n      0xeed90d6b\n      eq\n      tag_22\n      jumpi\n      jump(tag_1)\n    tag_24:\n      dup1\n      0x61d027b3\n      eq\n      tag_12\n      jumpi\n      dup1\n      0x6cc6cde1\n      eq\n      tag_13\n      jumpi\n      dup1\n      0x9012c4a8\n      eq\n      tag_14\n      jumpi\n      dup1\n      0x95a8c58d\n      eq\n      tag_15\n      jumpi\n      dup1\n      0xb0eefabe\n      eq\n      tag_16\n      jumpi\n      jump(tag_1)\n    tag_23:\n      dup1\n      0x34b25ee2\n      gt\n      tag_25\n      jumpi\n      dup1\n      0x34b25ee2\n      eq\n      tag_7\n      jumpi\n      dup1\n      0x39292763\n      eq\n      tag_8\n      jumpi\n      dup1\n      0x3e840236\n      eq\n      tag_9\n      jumpi\n      dup1\n      0x41e8a42a\n      eq\n      tag_10\n      jumpi\n      dup1\n      0x4d471e85\n      eq\n      tag_11\n      jumpi\n      jump(tag_1)\n    tag_25:\n      dup1\n      0x077d3c03\n      eq\n      tag_2\n      jumpi\n      dup1\n      0x24a9d853\n      eq\n      tag_3\n      jumpi\n      dup1\n      0x27d00fb0\n      eq\n      tag_4\n      jumpi\n      dup1\n      0x27dac36d\n      eq\n      tag_5\n      jumpi\n      dup1\n      0x2a0acc6a\n      eq\n      tag_6\n      jumpi\n    tag_1:\n      revert(0x00, 0x00)\n        /* \"new/MarketplaceEscrow_test/AccessManager.sol\":1285:1534  function revokeRole(address _account, uint8 _role) external onlyRole(ADMIN) {... */\n    tag_2:\n      callvalue\n      dup1\n      iszero\n      tag_26\n      jumpi\n      revert(0x00, 0x00)\n    tag_26:\n      pop\n      tag_27\n      0x04\n      dup1\n      calldatasize\n      sub\n      dup2\n      add\n      swap1\n      tag_28\n      swap2\n      swap1\n      tag_29\n      jump\t// in\n    tag_28:\n      tag_30\n      jump\t// in\n    tag_27:\n      stop\n        /* \"new/MarketplaceEscrow_test/EscrowMarketplace.sol\":874:901  uint256 public feeBps = 100 */\n    tag_3:\n      callvalue\n      dup1\n      iszero\n      tag_31\n      jumpi\n      revert(0x00, 0x00)\n    tag_31:\n      pop\n      tag_32\n      tag_33\n      jump\t// in\n    tag_32:\n      mload(0x40)\n      tag_34\n      swap2\n      swap1\n      tag_35\n      jump\t// in\n    tag_34:\n      mload(0x40)\n      dup1\n      swap2\n      sub\n      swap1\n      return\n        /* \"new/MarketplaceEscrow_test/EscrowMarketplace.sol\":4969:5482  function openDispute(uint256 orderId) external {... */\n    tag_4:\n      callvalue\n      dup1\n      iszero\n      tag_36\n      jumpi\n      revert(0x00, 0x00)\n    tag_36:\n      pop\n      tag_37\n      0x04\n      dup1\n      calldatasize\n      sub\n      dup2\n      add\n      swap1\n      tag_38\n      swap2\n      swap1\n      tag_39\n      jump\t// in\n    tag_38:\n      tag_40\n      jump\t// in\n    tag_37:\n      stop\n        /* \"new/MarketplaceEscrow_test/EscrowMarketplace.sol\":3655:4186  function confirmReceived(uint256 orderId) external nonReentrant {... */\n    tag_5:\n      callvalue\n      dup1\n      iszero\n      tag_41\n      jumpi\n      revert(0x00, 0x00)\n    tag_41:\n      pop\n      tag_42\n      0x04\n      dup1\n      calldatasize\n      sub\n      dup2\n      add\n      swap1\n      tag_43\n      swap2\n      swap1\n      tag_39\n      jump\t// in\n    tag_43:\n      tag_44\n      jump\t// in\n    tag_42:\n      stop\n        /* \"new/MarketplaceEscrow_test/AccessManager.sol\":243:277  uint8 public constant ADMIN    = 1 */\n    tag_6:\n      callvalue\n      dup1\n      iszero\n      tag_45\n      jumpi\n      revert(0x00, 0x00)\n    tag_45:\n      pop\n      tag_46\n      tag_47\n      jump\t// in\n    tag_46:\n      mload(0x40)\n      tag_48\n      swap2\n      swap1\n      tag_49\n      jump\t// in\n    tag_48:\n      mload(0x40)\n      dup1\n      swap2\n      sub\n      swap1\n      return\n        /* \"new/MarketplaceEscrow_test/EscrowMarketplace.sol\":5488:6342  function resolveDispute (uint256 orderId, bool releaseToSeller) external nonReentrant onlyRole(MEDIATOR) {... */\n    tag_7:\n      callvalue\n      dup1\n      iszero\n      tag_50\n      jumpi\n      revert(0x00, 0x00)\n    tag_50:\n      pop\n      tag_51\n      0x04\n      dup1\n      calldatasize\n      sub\n      dup2\n      add\n      swap1\n      tag_52\n      swap2\n      swap1\n      tag_53\n      jump\t// in\n    tag_52:\n      tag_54\n      jump\t// in\n    tag_51:\n      stop\n        /* \"new/MarketplaceEscrow_test/EscrowMarketplace.sol\":6352:6746  function refundBuyer(uint256 orderId) external nonReentrant onlyRole(MEDIATOR) {... */\n    tag_8:\n      callvalue\n      dup1\n      iszero\n      tag_55\n      jumpi\n      revert(0x00, 0x00)\n    tag_55:\n      pop\n      tag_56\n      0x04\n      dup1\n      calldatasize\n      sub\n      dup2\n      add\n      swap1\n      tag_57\n      swap2\n      swap1\n      tag_39\n      jump\t// in\n    tag_57:\n      tag_58\n      jump\t// in\n    tag_56:\n      stop\n        /* \"new/MarketplaceEscrow_test/AccessManager.sol\":1039:1279  function grantRole(address _account, uint8 _assignRole ) external onlyRole(ADMIN) {... */\n    tag_9:\n      callvalue\n      dup1\n      iszero\n      tag_59\n      jumpi\n      revert(0x00, 0x00)\n    tag_59:\n      pop\n      tag_60\n      0x04\n      dup1\n      calldatasize\n      sub\n      dup2\n      add\n      swap1\n      tag_61\n      swap2\n      swap1\n      tag_29\n      jump\t// in\n    tag_61:\n      tag_62\n      jump\t// in\n    tag_60:\n      stop\n        /* \"new/MarketplaceEscrow_test/EscrowMarketplace.sol\":4192:4567  function cancelUnfunded(uint256 orderId) external {... */\n    tag_10:\n      callvalue\n      dup1\n      iszero\n      tag_63\n      jumpi\n      revert(0x00, 0x00)\n    tag_63:\n      pop\n      tag_64\n      0x04\n      dup1\n      calldatasize\n      sub\n      dup2\n      add\n      swap1\n      tag_65\n      swap2\n      swap1\n      tag_39\n      jump\t// in\n    tag_65:\n      tag_66\n      jump\t// in\n    tag_64:\n      stop\n        /* \"new/MarketplaceEscrow_test/EscrowMarketplace.sol\":2477:3174  function createOrder(address _seller, bytes32 _detailHash) external returns (uint256 orderId) {... */\n    tag_11:\n      callvalue\n      dup1\n      iszero\n      tag_67\n      jumpi\n      revert(0x00, 0x00)\n    tag_67:\n      pop\n      tag_68\n      0x04\n      dup1\n      calldatasize\n      sub\n      dup2\n      add\n      swap1\n      tag_69\n      swap2\n      swap1\n      tag_70\n      jump\t// in\n    tag_69:\n      tag_71\n      jump\t// in\n    tag_68:\n      mload(0x40)\n      tag_72\n      swap2\n      swap1\n      tag_35\n      jump\t// in\n    tag_72:\n      mload(0x40)\n      dup1\n      swap2\n      sub\n      swap1\n      return\n        /* \"new/MarketplaceEscrow_test/EscrowMarketplace.sol\":589:623  Treasury public immutable treasury */\n    tag_12:\n      callvalue\n      dup1\n      iszero\n      tag_73\n      jumpi\n      revert(0x00, 0x00)\n    tag_73:\n      pop\n      tag_74\n      tag_75\n      jump\t// in\n    tag_74:\n      mload(0x40)\n      tag_76\n      swap2\n      swap1\n      tag_77\n      jump\t// in\n    tag_76:\n      mload(0x40)\n      dup1\n      swap2\n      sub\n      swap1\n      return\n        /* \"new/MarketplaceEscrow_test/EscrowMarketplace.sol\":629:658  IArbitrator public arbitrator */\n    tag_13:\n      callvalue\n      dup1\n      iszero\n      tag_78\n      jumpi\n      revert(0x00, 0x00)\n    tag_78:\n      pop\n      tag_79\n      tag_80\n      jump\t// in\n    tag_79:\n      mload(0x40)\n      tag_81\n      swap2\n      swap1\n      tag_82\n      jump\t// in\n    tag_81:\n      mload(0x40)\n      dup1\n      swap2\n      sub\n      swap1\n      return\n        /* \"new/MarketplaceEscrow_test/EscrowMarketplace.sol\":6765:6999  function updateFee(uint256 newBps) external onlyRole(ADMIN) {... */\n    tag_14:\n      callvalue\n      dup1\n      iszero\n      tag_83\n      jumpi\n      revert(0x00, 0x00)\n    tag_83:\n      pop\n      tag_84\n      0x04\n      dup1\n      calldatasize\n      sub\n      dup2\n      add\n      swap1\n      tag_85\n      swap2\n      swap1\n      tag_39\n      jump\t// in\n    tag_85:\n      tag_86\n      jump\t// in\n    tag_84:\n      stop\n        /* \"new/MarketplaceEscrow_test/AccessManager.sol\":1767:1885  function hasRole(address account, uint8 role) public view returns (bool) {... */\n    tag_15:\n      callvalue\n      dup1\n      iszero\n      tag_87\n      jumpi\n      revert(0x00, 0x00)\n    tag_87:\n      pop\n      tag_88\n      0x04\n      dup1\n      calldatasize\n      sub\n      dup2\n      add\n      swap1\n      tag_89\n      swap2\n      swap1\n      tag_29\n      jump\t// in\n    tag_89:\n      tag_90\n      jump\t// in\n    tag_88:\n      mload(0x40)\n      tag_91\n      swap2\n      swap1\n      tag_92\n      jump\t// in\n    tag_91:\n      mload(0x40)\n      dup1\n      swap2\n      sub\n      swap1\n      return\n        /* \"new/MarketplaceEscrow_test/EscrowMarketplace.sol\":7005:7290  function setArbitrator(address newArbitrator) external onlyRole(ADMIN) {... */\n    tag_16:\n      callvalue\n      dup1\n      iszero\n      tag_93\n      jumpi\n      revert(0x00, 0x00)\n    tag_93:\n      pop\n      tag_94\n      0x04\n      dup1\n      calldatasize\n      sub\n      dup2\n      add\n      swap1\n      tag_95\n      swap2\n      swap1\n      tag_96\n      jump\t// in\n    tag_95:\n      tag_97\n      jump\t// in\n    tag_94:\n      stop\n        /* \"new/MarketplaceEscrow_test/AccessManager.sol\":323:357  uint8 public constant MEDIATOR = 3 */\n    tag_17:\n      callvalue\n      dup1\n      iszero\n      tag_98\n      jumpi\n      revert(0x00, 0x00)\n    tag_98:\n      pop\n      tag_99\n      tag_100\n      jump\t// in\n    tag_99:\n      mload(0x40)\n      tag_101\n      swap2\n      swap1\n      tag_49\n      jump\t// in\n    tag_101:\n      mload(0x40)\n      dup1\n      swap2\n      sub\n      swap1\n      return\n        /* \"new/MarketplaceEscrow_test/EscrowMarketplace.sol\":3180:3648  function fundOrder(uint256 orderId) payable external nonReentrant {... */\n    tag_18:\n      tag_102\n      0x04\n      dup1\n      calldatasize\n      sub\n      dup2\n      add\n      swap1\n      tag_103\n      swap2\n      swap1\n      tag_39\n      jump\t// in\n    tag_103:\n      tag_104\n      jump\t// in\n    tag_102:\n      stop\n        /* \"new/MarketplaceEscrow_test/AccessManager.sol\":283:317  uint8 public constant SELLER   = 2 */\n    tag_19:\n      callvalue\n      dup1\n      iszero\n      tag_105\n      jumpi\n      revert(0x00, 0x00)\n    tag_105:\n      pop\n      tag_106\n      tag_107\n      jump\t// in\n    tag_106:\n      mload(0x40)\n      tag_108\n      swap2\n      swap1\n      tag_49\n      jump\t// in\n    tag_108:\n      mload(0x40)\n      dup1\n      swap2\n      sub\n      swap1\n      return\n        /* \"new/MarketplaceEscrow_test/EscrowMarketplace.sol\":7296:7410  function getOrder(uint256 orderId) external view returns (Order memory) {... */\n    tag_20:\n      callvalue\n      dup1\n      iszero\n      tag_109\n      jumpi\n      revert(0x00, 0x00)\n    tag_109:\n      pop\n      tag_110\n      0x04\n      dup1\n      calldatasize\n      sub\n      dup2\n      add\n      swap1\n      tag_111\n      swap2\n      swap1\n      tag_39\n      jump\t// in\n    tag_111:\n      tag_112\n      jump\t// in\n    tag_110:\n      mload(0x40)\n      tag_113\n      swap2\n      swap1\n      tag_114\n      jump\t// in\n    tag_113:\n      mload(0x40)\n      dup1\n      swap2\n      sub\n      swap1\n      return\n        /* \"new/MarketplaceEscrow_test/EscrowMarketplace.sol\":907:948  uint256 public constant MAX_FEE_BPS = 500 */\n    tag_21:\n      callvalue\n      dup1\n      iszero\n      tag_115\n      jumpi\n      revert(0x00, 0x00)\n    tag_115:\n      pop\n      tag_116\n      tag_117\n      jump\t// in\n    tag_116:\n      mload(0x40)\n      tag_118\n      swap2\n      swap1\n      tag_35\n      jump\t// in\n    tag_118:\n      mload(0x40)\n      dup1\n      swap2\n      sub\n      swap1\n      return\n        /* \"new/MarketplaceEscrow_test/EscrowMarketplace.sol\":4592:4943  function markShipped(uint256 orderId) external {... */\n    tag_22:\n      callvalue\n      dup1\n      iszero\n      tag_119\n      jumpi\n      revert(0x00, 0x00)\n    tag_119:\n      pop\n      tag_120\n      0x04\n      dup1\n      calldatasize\n      sub\n      dup2\n      add\n      swap1\n      tag_121\n      swap2\n      swap1\n      tag_39\n      jump\t// in\n    tag_121:\n      tag_122\n      jump\t// in\n    tag_120:\n      stop\n        /* \"new/MarketplaceEscrow_test/AccessManager.sol\":1285:1534  function revokeRole(address _account, uint8 _role) external onlyRole(ADMIN) {... */\n    tag_30:\n        /* \"new/MarketplaceEscrow_test/AccessManager.sol\":276:277  1 */\n      0x01\n        /* \"new/MarketplaceEscrow_test/AccessManager.sol\":887:893  _roles */\n      0x00\n        /* \"new/MarketplaceEscrow_test/AccessManager.sol\":887:905  _roles[msg.sender] */\n      0x00\n        /* \"new/MarketplaceEscrow_test/AccessManager.sol\":894:904  msg.sender */\n      caller\n        /* \"new/MarketplaceEscrow_test/AccessManager.sol\":887:905  _roles[msg.sender] */\n      0xffffffffffffffffffffffffffffffffffffffff\n      and\n      0xffffffffffffffffffffffffffffffffffffffff\n      and\n      dup2\n      mstore\n      0x20\n      add\n      swap1\n      dup2\n      mstore\n      0x20\n      add\n      0x00\n      keccak256\n        /* \"new/MarketplaceEscrow_test/AccessManager.sol\":887:912  _roles[msg.sender][_role] */\n      0x00\n        /* \"new/MarketplaceEscrow_test/AccessManager.sol\":906:911  _role */\n      dup3\n        /* \"new/MarketplaceEscrow_test/AccessManager.sol\":887:912  _roles[msg.sender][_role] */\n      0xff\n      and\n      0xff\n      and\n      dup2\n      mstore\n      0x20\n      add\n      swap1\n      dup2\n      mstore\n      0x20\n      add\n      0x00\n      keccak256\n      0x00\n      swap1\n      sload\n      swap1\n      0x0100\n      exp\n      swap1\n      div\n      0xff\n      and\n        /* \"new/MarketplaceEscrow_test/AccessManager.sol\":881:960  if ( !_roles[msg.sender][_role]) {... */\n      tag_124\n      jumpi\n        /* \"new/MarketplaceEscrow_test/AccessManager.sol\":935:949  Unauthorized() */\n      mload(0x40)\n      0x82b4290000000000000000000000000000000000000000000000000000000000\n      dup2\n      mstore\n      0x04\n      add\n      mload(0x40)\n      dup1\n      swap2\n      sub\n      swap1\n      revert\n        /* \"new/MarketplaceEscrow_test/AccessManager.sol\":881:960  if ( !_roles[msg.sender][_role]) {... */\n    tag_124:\n        /* \"new/MarketplaceEscrow_test/AccessManager.sol\":1394:1395  0 */\n      0x00\n        /* \"new/MarketplaceEscrow_test/AccessManager.sol\":1374:1396  _account == address(0) */\n      0xffffffffffffffffffffffffffffffffffffffff\n      and\n        /* \"new/MarketplaceEscrow_test/AccessManager.sol\":1374:1382  _account */\n      dup4\n        /* \"new/MarketplaceEscrow_test/AccessManager.sol\":1374:1396  _account == address(0) */\n      0xffffffffffffffffffffffffffffffffffffffff\n      and\n      sub\n        /* \"new/MarketplaceEscrow_test/AccessManager.sol\":1371:1444  if(_account == address(0) ) {... */\n      tag_126\n      jumpi\n        /* \"new/MarketplaceEscrow_test/AccessManager.sol\":1420:1433  ZeroAddress() */\n      mload(0x40)\n      0xd92e233d00000000000000000000000000000000000000000000000000000000\n      dup2\n      mstore\n      0x04\n      add\n      mload(0x40)\n      dup1\n      swap2\n      sub\n      swap1\n      revert\n        /* \"new/MarketplaceEscrow_test/AccessManager.sol\":1371:1444  if(_account == address(0) ) {... */\n    tag_126:\n        /* \"new/MarketplaceEscrow_test/AccessManager.sol\":1479:1484  false */\n      0x00\n        /* \"new/MarketplaceEscrow_test/AccessManager.sol\":1453:1459  _roles */\n      0x00\n        /* \"new/MarketplaceEscrow_test/AccessManager.sol\":1453:1469  _roles[_account] */\n      0x00\n        /* \"new/MarketplaceEscrow_test/AccessManager.sol\":1460:1468  _account */\n      dup6\n        /* \"new/MarketplaceEscrow_test/AccessManager.sol\":1453:1469  _roles[_account] */\n      0xffffffffffffffffffffffffffffffffffffffff\n      and\n      0xffffffffffffffffffffffffffffffffffffffff\n      and\n      dup2\n      mstore\n      0x20\n      add\n      swap1\n      dup2\n      mstore\n      0x20\n      add\n      0x00\n      keccak256\n        /* \"new/MarketplaceEscrow_test/AccessManager.sol\":1453:1476  _roles[_account][_role] */\n      0x00\n        /* \"new/MarketplaceEscrow_test/AccessManager.sol\":1470:1475  _role */\n      dup5\n        /* \"new/MarketplaceEscrow_test/AccessManager.sol\":1453:1476  _roles[_account][_role] */\n      0xff\n      and\n      0xff\n      and\n      dup2\n      mstore\n      0x20\n      add\n      swap1\n      dup2\n      mstore\n      0x20\n      add\n      0x00\n      keccak256\n      0x00\n        /* \"new/MarketplaceEscrow_test/AccessManager.sol\":1453:1484  _roles[_account][_role] = false */\n      0x0100\n      exp\n      dup2\n      sload\n      dup2\n      0xff\n      mul\n      not\n      and\n      swap1\n      dup4\n      iszero\n      iszero\n      mul\n      or\n      swap1\n      sstore\n      pop\n        /* \"new/MarketplaceEscrow_test/AccessManager.sol\":1521:1526  _role */\n      dup2\n        /* \"new/MarketplaceEscrow_test/AccessManager.sol\":1499:1527  RoleRevoked(_account, _role) */\n      0xff\n      and\n        /* \"new/MarketplaceEscrow_test/AccessManager.sol\":1511:1519  _account */\n      dup4\n        /* \"new/MarketplaceEscrow_test/AccessManager.sol\":1499:1527  RoleRevoked(_account, _role) */\n      0xffffffffffffffffffffffffffffffffffffffff\n      and\n      0x34a1009b84e077aee5bc8197faf7105e54f9ba6879e2a51a716e4156ea9ad769\n      mload(0x40)\n      mload(0x40)\n      dup1\n      swap2\n      sub\n      swap1\n      log3\n        /* \"new/MarketplaceEscrow_test/AccessManager.sol\":1285:1534  function revokeRole(address _account, uint8 _role) external onlyRole(ADMIN) {... */\n      pop\n      pop\n      pop\n      jump\t// out\n        /* \"new/MarketplaceEscrow_test/EscrowMarketplace.sol\":874:901  uint256 public feeBps = 100 */\n    tag_33:\n      sload(0x05)\n      dup2\n      jump\t// out\n        /* \"new/MarketplaceEscrow_test/EscrowMarketplace.sol\":4969:5482  function openDispute(uint256 orderId) external {... */\n    tag_40:\n        /* \"new/MarketplaceEscrow_test/EscrowMarketplace.sol\":5026:5041  Order storage o */\n      0x00\n        /* \"new/MarketplaceEscrow_test/EscrowMarketplace.sol\":5044:5062  _getOrder(orderId) */\n      tag_128\n        /* \"new/MarketplaceEscrow_test/EscrowMarketplace.sol\":5054:5061  orderId */\n      dup3\n        /* \"new/MarketplaceEscrow_test/EscrowMarketplace.sol\":5044:5053  _getOrder */\n      tag_129\n        /* \"new/MarketplaceEscrow_test/EscrowMarketplace.sol\":5044:5062  _getOrder(orderId) */\n      jump\t// in\n    tag_128:\n        /* \"new/MarketplaceEscrow_test/EscrowMarketplace.sol\":5026:5062  Order storage o = _getOrder(orderId) */\n      swap1\n      pop\n        /* \"new/MarketplaceEscrow_test/EscrowMarketplace.sol\":5091:5092  o */\n      dup1\n        /* \"new/MarketplaceEscrow_test/EscrowMarketplace.sol\":5091:5098  o.buyer */\n      0x01\n      add\n      0x00\n      swap1\n      sload\n      swap1\n      0x0100\n      exp\n      swap1\n      div\n      0xffffffffffffffffffffffffffffffffffffffff\n      and\n        /* \"new/MarketplaceEscrow_test/EscrowMarketplace.sol\":5077:5098  msg.sender != o.buyer */\n      0xffffffffffffffffffffffffffffffffffffffff\n      and\n        /* \"new/MarketplaceEscrow_test/EscrowMarketplace.sol\":5077:5087  msg.sender */\n      caller\n        /* \"new/MarketplaceEscrow_test/EscrowMarketplace.sol\":5077:5098  msg.sender != o.buyer */\n      0xffffffffffffffffffffffffffffffffffffffff\n      and\n      eq\n        /* \"new/MarketplaceEscrow_test/EscrowMarketplace.sol\":5073:5150  if( msg.sender != o.buyer ) {... */\n      tag_130\n      jumpi\n        /* \"new/MarketplaceEscrow_test/EscrowMarketplace.sol\":5131:5138  orderId */\n      dup2\n        /* \"new/MarketplaceEscrow_test/EscrowMarketplace.sol\":5122:5139  NotBuyer(orderId) */\n      mload(0x40)\n      0x09b4c33d00000000000000000000000000000000000000000000000000000000\n      dup2\n      mstore\n      0x04\n      add\n      tag_131\n      swap2\n      swap1\n      tag_35\n      jump\t// in\n    tag_131:\n      mload(0x40)\n      dup1\n      swap2\n      sub\n      swap1\n      revert\n        /* \"new/MarketplaceEscrow_test/EscrowMarketplace.sol\":5073:5150  if( msg.sender != o.buyer ) {... */\n    tag_130:\n        /* \"new/MarketplaceEscrow_test/EscrowMarketplace.sol\":5174:5191  OrderState.Funded */\n      0x01\n        /* \"new/MarketplaceEscrow_test/EscrowMarketplace.sol\":5163:5191  o.state != OrderState.Funded */\n      0x06\n      dup2\n      gt\n      iszero\n      tag_132\n      jumpi\n      tag_133\n      tag_134\n      jump\t// in\n    tag_133:\n    tag_132:\n        /* \"new/MarketplaceEscrow_test/EscrowMarketplace.sol\":5163:5164  o */\n      dup2\n        /* \"new/MarketplaceEscrow_test/EscrowMarketplace.sol\":5163:5170  o.state */\n      0x06\n      add\n      0x00\n      swap1\n      sload\n      swap1\n      0x0100\n      exp\n      swap1\n      div\n      0xff\n      and\n        /* \"new/MarketplaceEscrow_test/EscrowMarketplace.sol\":5163:5191  o.state != OrderState.Funded */\n      0x06\n      dup2\n      gt\n      iszero\n      tag_135\n      jumpi\n      tag_136\n      tag_134\n      jump\t// in\n    tag_136:\n    tag_135:\n      eq\n      iszero\n        /* \"new/MarketplaceEscrow_test/EscrowMarketplace.sol\":5163:5224  o.state != OrderState.Funded && o.state != OrderState.Shipped */\n      dup1\n      iszero\n      tag_137\n      jumpi\n      pop\n        /* \"new/MarketplaceEscrow_test/EscrowMarketplace.sol\":5206:5224  OrderState.Shipped */\n      0x02\n        /* \"new/MarketplaceEscrow_test/EscrowMarketplace.sol\":5195:5224  o.state != OrderState.Shipped */\n      0x06\n      dup2\n      gt\n      iszero\n      tag_138\n      jumpi\n      tag_139\n      tag_134\n      jump\t// in\n    tag_139:\n    tag_138:\n        /* \"new/MarketplaceEscrow_test/EscrowMarketplace.sol\":5195:5196  o */\n      dup2\n        /* \"new/MarketplaceEscrow_test/EscrowMarketplace.sol\":5195:5202  o.state */\n      0x06\n      add\n      0x00\n      swap1\n      sload\n      swap1\n      0x0100\n      exp\n      swap1\n      div\n      0xff\n      and\n        /* \"new/MarketplaceEscrow_test/EscrowMarketplace.sol\":5195:5224  o.state != OrderState.Shipped */\n      0x06\n      dup2\n      gt\n      iszero\n      tag_140\n      jumpi\n      tag_141\n      tag_134\n      jump\t// in\n    tag_141:\n    tag_140:\n      eq\n      iszero\n        /* \"new/MarketplaceEscrow_test/EscrowMarketplace.sol\":5163:5224  o.state != OrderState.Funded && o.state != OrderState.Shipped */\n    tag_137:\n        /* \"new/MarketplaceEscrow_test/EscrowMarketplace.sol\":5159:5288  if( o.state != OrderState.Funded && o.state != OrderState.Shipped ){... */\n      iszero\n      tag_142\n      jumpi\n        /* \"new/MarketplaceEscrow_test/EscrowMarketplace.sol\":5260:5267  orderId */\n      dup2\n        /* \"new/MarketplaceEscrow_test/EscrowMarketplace.sol\":5269:5270  o */\n      dup2\n        /* \"new/MarketplaceEscrow_test/EscrowMarketplace.sol\":5269:5276  o.state */\n      0x06\n      add\n      0x00\n      swap1\n      sload\n      swap1\n      0x0100\n      exp\n      swap1\n      div\n      0xff\n      and\n        /* \"new/MarketplaceEscrow_test/EscrowMarketplace.sol\":5247:5277  InvalidState(orderId, o.state) */\n      mload(0x40)\n      0x0a5889e500000000000000000000000000000000000000000000000000000000\n      dup2\n      mstore\n      0x04\n      add\n      tag_143\n      swap3\n      swap2\n      swap1\n      tag_144\n      jump\t// in\n    tag_143:\n      mload(0x40)\n      dup1\n      swap2\n      sub\n      swap1\n      revert\n        /* \"new/MarketplaceEscrow_test/EscrowMarketplace.sol\":5159:5288  if( o.state != OrderState.Funded && o.state != OrderState.Shipped ){... */\n    tag_142:\n        /* \"new/MarketplaceEscrow_test/EscrowMarketplace.sol\":5308:5327  OrderState.Disputed */\n      0x04\n        /* \"new/MarketplaceEscrow_test/EscrowMarketplace.sol\":5298:5299  o */\n      dup2\n        /* \"new/MarketplaceEscrow_test/EscrowMarketplace.sol\":5298:5305  o.state */\n      0x06\n      add\n      0x00\n        /* \"new/MarketplaceEscrow_test/EscrowMarketplace.sol\":5298:5327  o.state = OrderState.Disputed */\n      0x0100\n      exp\n      dup2\n      sload\n      dup2\n      0xff\n      mul\n      not\n      and\n      swap1\n      dup4\n      0x06\n      dup2\n      gt\n      iszero\n      tag_145\n      jumpi\n      tag_146\n      tag_134\n      jump\t// in\n    tag_146:\n    tag_145:\n      mul\n      or\n      swap1\n      sstore\n      pop\n        /* \"new/MarketplaceEscrow_test/EscrowMarketplace.sol\":5366:5376  msg.sender */\n      caller\n        /* \"new/MarketplaceEscrow_test/EscrowMarketplace.sol\":5343:5377  DisputeOpened(orderId, msg.sender) */\n      0xffffffffffffffffffffffffffffffffffffffff\n      and\n        /* \"new/MarketplaceEscrow_test/EscrowMarketplace.sol\":5357:5364  orderId */\n      dup3\n        /* \"new/MarketplaceEscrow_test/EscrowMarketplace.sol\":5343:5377  DisputeOpened(orderId, msg.sender) */\n      0x44f3c3ed15c708331582bc379d28659a58f183a563abe41aa4c8889db469f71c\n      mload(0x40)\n      mload(0x40)\n      dup1\n      swap2\n      sub\n      swap1\n      log3\n        /* \"new/MarketplaceEscrow_test/EscrowMarketplace.sol\":5392:5402  arbitrator */\n      0x01\n      0x00\n      swap1\n      sload\n      swap1\n      0x0100\n      exp\n      swap1\n      div\n      0xffffffffffffffffffffffffffffffffffffffff\n      and\n        /* \"new/MarketplaceEscrow_test/EscrowMarketplace.sol\":5392:5416  arbitrator.notifyDispute */\n      0xffffffffffffffffffffffffffffffffffffffff\n      and\n      0xa4adcdd0\n        /* \"new/MarketplaceEscrow_test/EscrowMarketplace.sol\":5418:5425  orderId */\n      dup4\n        /* \"new/MarketplaceEscrow_test/EscrowMarketplace.sol\":5427:5428  o */\n      dup4\n        /* \"new/MarketplaceEscrow_test/EscrowMarketplace.sol\":5427:5434  o.buyer */\n      0x01\n      add\n      0x00\n      swap1\n      sload\n      swap1\n      0x0100\n      exp\n      swap1\n      div\n      0xffffffffffffffffffffffffffffffffffffffff\n      and\n        /* \"new/MarketplaceEscrow_test/EscrowMarketplace.sol\":5436:5437  o */\n      dup5\n        /* \"new/MarketplaceEscrow_test/EscrowMarketplace.sol\":5436:5444  o.seller */\n      0x02\n      add\n      0x00\n      swap1\n      sload\n      swap1\n      0x0100\n      exp\n      swap1\n      div\n      0xffffffffffffffffffffffffffffffffffffffff\n      and\n        /* \"new/MarketplaceEscrow_test/EscrowMarketplace.sol\":5446:5447  o */\n      dup6\n        /* \"new/MarketplaceEscrow_test/EscrowMarketplace.sol\":5446:5454  o.amount */\n      0x03\n      add\n      sload\n        /* \"new/MarketplaceEscrow_test/EscrowMarketplace.sol\":5392:5456  arbitrator.notifyDispute( orderId, o.buyer, o.seller, o.amount ) */\n      mload(0x40)\n      dup6\n      0xffffffff\n      and\n      0xe0\n      shl\n      dup2\n      mstore\n      0x04\n      add\n      tag_147\n      swap5\n      swap4\n      swap3\n      swap2\n      swap1\n      tag_148\n      jump\t// in\n    tag_147:\n      0x00\n      mload(0x40)\n      dup1\n      dup4\n      sub\n      dup2\n      0x00\n      dup8\n      dup1\n      extcodesize\n      iszero\n      dup1\n      iszero\n      tag_149\n      jumpi\n      revert(0x00, 0x00)\n    tag_149:\n      pop\n      gas\n      call\n      swap3\n      pop\n      pop\n      pop\n      dup1\n      iszero\n      tag_150\n      jumpi\n      pop\n      0x01\n    tag_150:\n        /* \"new/MarketplaceEscrow_test/EscrowMarketplace.sol\":5388:5476  try arbitrator.notifyDispute( orderId, o.buyer, o.seller, o.amount ) {}... */\n      pop\n        /* \"new/MarketplaceEscrow_test/EscrowMarketplace.sol\":5016:5482  {... */\n      pop\n        /* \"new/MarketplaceEscrow_test/EscrowMarketplace.sol\":4969:5482  function openDispute(uint256 orderId) external {... */\n      pop\n      jump\t// out\n        /* \"new/MarketplaceEscrow_test/EscrowMarketplace.sol\":3655:4186  function confirmReceived(uint256 orderId) external nonReentrant {... */\n    tag_44:\n        /* \"new/MarketplaceEscrow_test/EscrowMarketplace.sol\":1962:1969  _locked */\n      0x03\n      0x00\n      swap1\n      sload\n      swap1\n      0x0100\n      exp\n      swap1\n      div\n      0xff\n      and\n        /* \"new/MarketplaceEscrow_test/EscrowMarketplace.sol\":1959:2017  if(_locked) {... */\n      iszero\n      tag_157\n      jumpi\n        /* \"new/MarketplaceEscrow_test/EscrowMarketplace.sol\":1992:2006  NonReentrant() */\n      mload(0x40)\n      0x9396d15600000000000000000000000000000000000000000000000000000000\n      dup2\n      mstore\n      0x04\n      add\n      mload(0x40)\n      dup1\n      swap2\n      sub\n      swap1\n      revert\n        /* \"new/MarketplaceEscrow_test/EscrowMarketplace.sol\":1959:2017  if(_locked) {... */\n    tag_157:\n        /* \"new/MarketplaceEscrow_test/EscrowMarketplace.sol\":2037:2041  true */\n      0x01\n        /* \"new/MarketplaceEscrow_test/EscrowMarketplace.sol\":2027:2034  _locked */\n      0x03\n      0x00\n        /* \"new/MarketplaceEscrow_test/EscrowMarketplace.sol\":2027:2041  _locked = true */\n      0x0100\n      exp\n      dup2\n      sload\n      dup2\n      0xff\n      mul\n      not\n      and\n      swap1\n      dup4\n      iszero\n      iszero\n      mul\n      or\n      swap1\n      sstore\n      pop\n        /* \"new/MarketplaceEscrow_test/EscrowMarketplace.sol\":3729:3744  Order storage o */\n      0x00\n        /* \"new/MarketplaceEscrow_test/EscrowMarketplace.sol\":3747:3754  _orders */\n      0x04\n        /* \"new/MarketplaceEscrow_test/EscrowMarketplace.sol\":3747:3763  _orders[orderId] */\n      0x00\n        /* \"new/MarketplaceEscrow_test/EscrowMarketplace.sol\":3755:3762  orderId */\n      dup4\n        /* \"new/MarketplaceEscrow_test/EscrowMarketplace.sol\":3747:3763  _orders[orderId] */\n      dup2\n      mstore\n      0x20\n      add\n      swap1\n      dup2\n      mstore\n      0x20\n      add\n      0x00\n      keccak256\n        /* \"new/MarketplaceEscrow_test/EscrowMarketplace.sol\":3729:3763  Order storage o = _orders[orderId] */\n      swap1\n      pop\n        /* \"new/MarketplaceEscrow_test/EscrowMarketplace.sol\":3792:3793  o */\n      dup1\n        /* \"new/MarketplaceEscrow_test/EscrowMarketplace.sol\":3792:3799  o.buyer */\n      0x01\n      add\n      0x00\n      swap1\n      sload\n      swap1\n      0x0100\n      exp\n      swap1\n      div\n      0xffffffffffffffffffffffffffffffffffffffff\n      and\n        /* \"new/MarketplaceEscrow_test/EscrowMarketplace.sol\":3778:3799  msg.sender != o.buyer */\n      0xffffffffffffffffffffffffffffffffffffffff\n      and\n        /* \"new/MarketplaceEscrow_test/EscrowMarketplace.sol\":3778:3788  msg.sender */\n      caller\n        /* \"new/MarketplaceEscrow_test/EscrowMarketplace.sol\":3778:3799  msg.sender != o.buyer */\n      0xffffffffffffffffffffffffffffffffffffffff\n      and\n      eq\n        /* \"new/MarketplaceEscrow_test/EscrowMarketplace.sol\":3774:3839  if( msg.sender != o.buyer ) ... */\n      tag_159\n      jumpi\n        /* \"new/MarketplaceEscrow_test/EscrowMarketplace.sol\":3831:3838  orderId */\n      dup2\n        /* \"new/MarketplaceEscrow_test/EscrowMarketplace.sol\":3822:3839  NotBuyer(orderId) */\n      mload(0x40)\n      0x09b4c33d00000000000000000000000000000000000000000000000000000000\n      dup2\n      mstore\n      0x04\n      add\n      tag_160\n      swap2\n      swap1\n      tag_35\n      jump\t// in\n    tag_160:\n      mload(0x40)\n      dup1\n      swap2\n      sub\n      swap1\n      revert\n        /* \"new/MarketplaceEscrow_test/EscrowMarketplace.sol\":3774:3839  if( msg.sender != o.buyer ) ... */\n    tag_159:\n        /* \"new/MarketplaceEscrow_test/EscrowMarketplace.sol\":3864:3882  OrderState.Shipped */\n      0x02\n        /* \"new/MarketplaceEscrow_test/EscrowMarketplace.sol\":3853:3882  o.state != OrderState.Shipped */\n      0x06\n      dup2\n      gt\n      iszero\n      tag_161\n      jumpi\n      tag_162\n      tag_134\n      jump\t// in\n    tag_162:\n    tag_161:\n        /* \"new/MarketplaceEscrow_test/EscrowMarketplace.sol\":3853:3854  o */\n      dup2\n        /* \"new/MarketplaceEscrow_test/EscrowMarketplace.sol\":3853:3860  o.state */\n      0x06\n      add\n      0x00\n      swap1\n      sload\n      swap1\n      0x0100\n      exp\n      swap1\n      div\n      0xff\n      and\n        /* \"new/MarketplaceEscrow_test/EscrowMarketplace.sol\":3853:3882  o.state != OrderState.Shipped */\n      0x06\n      dup2\n      gt\n      iszero\n      tag_163\n      jumpi\n      tag_164\n      tag_134\n      jump\t// in\n    tag_164:\n    tag_163:\n      eq\n        /* \"new/MarketplaceEscrow_test/EscrowMarketplace.sol\":3849:3935  if( o.state != OrderState.Shipped ) ... */\n      tag_165\n      jumpi\n        /* \"new/MarketplaceEscrow_test/EscrowMarketplace.sol\":3918:3925  orderId */\n      dup2\n        /* \"new/MarketplaceEscrow_test/EscrowMarketplace.sol\":3927:3928  o */\n      dup2\n        /* \"new/MarketplaceEscrow_test/EscrowMarketplace.sol\":3927:3934  o.state */\n      0x06\n      add\n      0x00\n      swap1\n      sload\n      swap1\n      0x0100\n      exp\n      swap1\n      div\n      0xff\n      and\n        /* \"new/MarketplaceEscrow_test/EscrowMarketplace.sol\":3905:3935  InvalidState(orderId, o.state) */\n      mload(0x40)\n      0x0a5889e500000000000000000000000000000000000000000000000000000000\n      dup2\n      mstore\n      0x04\n      add\n      tag_166\n      swap3\n      swap2\n      swap1\n      tag_144\n      jump\t// in\n    tag_166:\n      mload(0x40)\n      dup1\n      swap2\n      sub\n      swap1\n      revert\n        /* \"new/MarketplaceEscrow_test/EscrowMarketplace.sol\":3849:3935  if( o.state != OrderState.Shipped ) ... */\n    tag_165:\n        /* \"new/MarketplaceEscrow_test/EscrowMarketplace.sol\":3956:3976  OrderState.Completed */\n      0x03\n        /* \"new/MarketplaceEscrow_test/EscrowMarketplace.sol\":3946:3947  o */\n      dup2\n        /* \"new/MarketplaceEscrow_test/EscrowMarketplace.sol\":3946:3953  o.state */\n      0x06\n      add\n      0x00\n        /* \"new/MarketplaceEscrow_test/EscrowMarketplace.sol\":3946:3976  o.state = OrderState.Completed */\n      0x0100\n      exp\n      dup2\n      sload\n      dup2\n      0xff\n      mul\n      not\n      and\n      swap1\n      dup4\n      0x06\n      dup2\n      gt\n      iszero\n      tag_167\n      jumpi\n      tag_168\n      tag_134\n      jump\t// in\n    tag_168:\n    tag_167:\n      mul\n      or\n      swap1\n      sstore\n      pop\n        /* \"new/MarketplaceEscrow_test/EscrowMarketplace.sol\":3988:4002  uint256 payout */\n      0x00\n        /* \"new/MarketplaceEscrow_test/EscrowMarketplace.sol\":4004:4015  uint256 fee */\n      0x00\n        /* \"new/MarketplaceEscrow_test/EscrowMarketplace.sol\":4019:4037  _calcFee(o.amount) */\n      tag_169\n        /* \"new/MarketplaceEscrow_test/EscrowMarketplace.sol\":4028:4029  o */\n      dup4\n        /* \"new/MarketplaceEscrow_test/EscrowMarketplace.sol\":4028:4036  o.amount */\n      0x03\n      add\n      sload\n        /* \"new/MarketplaceEscrow_test/EscrowMarketplace.sol\":4019:4027  _calcFee */\n      tag_170\n        /* \"new/MarketplaceEscrow_test/EscrowMarketplace.sol\":4019:4037  _calcFee(o.amount) */\n      jump\t// in\n    tag_169:\n        /* \"new/MarketplaceEscrow_test/EscrowMarketplace.sol\":3987:4037  (uint256 payout, uint256 fee) = _calcFee(o.amount) */\n      swap2\n      pop\n      swap2\n      pop\n        /* \"new/MarketplaceEscrow_test/EscrowMarketplace.sol\":4068:4075  orderId */\n      dup4\n        /* \"new/MarketplaceEscrow_test/EscrowMarketplace.sol\":4053:4089  OrderCompleted(orderId, payout, fee) */\n      0xc4bfc30eeb4d37af0bfe8327e0acfdc5e10da19745a4677dd5f4244993d7ca98\n        /* \"new/MarketplaceEscrow_test/EscrowMarketplace.sol\":4077:4083  payout */\n      dup4\n        /* \"new/MarketplaceEscrow_test/EscrowMarketplace.sol\":4085:4088  fee */\n      dup4\n        /* \"new/MarketplaceEscrow_test/EscrowMarketplace.sol\":4053:4089  OrderCompleted(orderId, payout, fee) */\n      mload(0x40)\n      tag_171\n      swap3\n      swap2\n      swap1\n      tag_172\n      jump\t// in\n    tag_171:\n      mload(0x40)\n      dup1\n      swap2\n      sub\n      swap1\n      log2\n        /* \"new/MarketplaceEscrow_test/EscrowMarketplace.sol\":4100:4131  _safeTransfer(o.seller, payout) */\n      tag_173\n        /* \"new/MarketplaceEscrow_test/EscrowMarketplace.sol\":4114:4115  o */\n      dup4\n        /* \"new/MarketplaceEscrow_test/EscrowMarketplace.sol\":4114:4122  o.seller */\n      0x02\n      add\n      0x00\n      swap1\n      sload\n      swap1\n      0x0100\n      exp\n      swap1\n      div\n      0xffffffffffffffffffffffffffffffffffffffff\n      and\n        /* \"new/MarketplaceEscrow_test/EscrowMarketplace.sol\":4124:4130  payout */\n      dup4\n        /* \"new/MarketplaceEscrow_test/EscrowMarketplace.sol\":4100:4113  _safeTransfer */\n      tag_174\n        /* \"new/MarketplaceEscrow_test/EscrowMarketplace.sol\":4100:4131  _safeTransfer(o.seller, payout) */\n      jump\t// in\n    tag_173:\n        /* \"new/MarketplaceEscrow_test/EscrowMarketplace.sol\":4141:4178  _safeTransfer(address(treasury), fee) */\n      tag_175\n        /* \"new/MarketplaceEscrow_test/EscrowMarketplace.sol\":4163:4171  treasury */\n      immutable(\"0x69e3c6522a2f8bf12e780ae53c30e69d48d224ea00c92026278c398148e8df91\")\n        /* \"new/MarketplaceEscrow_test/EscrowMarketplace.sol\":4174:4177  fee */\n      dup3\n        /* \"new/MarketplaceEscrow_test/EscrowMarketplace.sol\":4141:4154  _safeTransfer */\n      tag_174\n        /* \"new/MarketplaceEscrow_test/EscrowMarketplace.sol\":4141:4178  _safeTransfer(address(treasury), fee) */\n      jump\t// in\n    tag_175:\n        /* \"new/MarketplaceEscrow_test/EscrowMarketplace.sol\":3719:4186  {... */\n      pop\n      pop\n      pop\n        /* \"new/MarketplaceEscrow_test/EscrowMarketplace.sol\":2072:2077  false */\n      0x00\n        /* \"new/MarketplaceEscrow_test/EscrowMarketplace.sol\":2062:2069  _locked */\n      0x03\n      0x00\n        /* \"new/MarketplaceEscrow_test/EscrowMarketplace.sol\":2062:2077  _locked = false */\n      0x0100\n      exp\n      dup2\n      sload\n      dup2\n      0xff\n      mul\n      not\n      and\n      swap1\n      dup4\n      iszero\n      iszero\n      mul\n      or\n      swap1\n      sstore\n      pop\n        /* \"new/MarketplaceEscrow_test/EscrowMarketplace.sol\":3655:4186  function confirmReceived(uint256 orderId) external nonReentrant {... */\n      pop\n      jump\t// out\n        /* \"new/MarketplaceEscrow_test/AccessManager.sol\":243:277  uint8 public constant ADMIN    = 1 */\n    tag_47:\n        /* \"new/MarketplaceEscrow_test/AccessManager.sol\":276:277  1 */\n      0x01\n        /* \"new/MarketplaceEscrow_test/AccessManager.sol\":243:277  uint8 public constant ADMIN    = 1 */\n      dup2\n      jump\t// out\n        /* \"new/MarketplaceEscrow_test/EscrowMarketplace.sol\":5488:6342  function resolveDispute (uint256 orderId, bool releaseToSeller) external nonReentrant onlyRole(MEDIATOR) {... */\n    tag_54:\n        /* \"new/MarketplaceEscrow_test/EscrowMarketplace.sol\":1962:1969  _locked */\n      0x03\n      0x00\n      swap1\n      sload\n      swap1\n      0x0100\n      exp\n      swap1\n      div\n      0xff\n      and\n        /* \"new/MarketplaceEscrow_test/EscrowMarketplace.sol\":1959:2017  if(_locked) {... */\n      iszero\n      tag_177\n      jumpi\n        /* \"new/MarketplaceEscrow_test/EscrowMarketplace.sol\":1992:2006  NonReentrant() */\n      mload(0x40)\n      0x9396d15600000000000000000000000000000000000000000000000000000000\n      dup2\n      mstore\n      0x04\n      add\n      mload(0x40)\n      dup1\n      swap2\n      sub\n      swap1\n      revert\n        /* \"new/MarketplaceEscrow_test/EscrowMarketplace.sol\":1959:2017  if(_locked) {... */\n    tag_177:\n        /* \"new/MarketplaceEscrow_test/EscrowMarketplace.sol\":2037:2041  true */\n      0x01\n        /* \"new/MarketplaceEscrow_test/EscrowMarketplace.sol\":2027:2034  _locked */\n      0x03\n      0x00\n        /* \"new/MarketplaceEscrow_test/EscrowMarketplace.sol\":2027:2041  _locked = true */\n      0x0100\n      exp\n      dup2\n      sload\n      dup2\n      0xff\n      mul\n      not\n      and\n      swap1\n      dup4\n      iszero\n      iszero\n      mul\n      or\n      swap1\n      sstore\n      pop\n        /* \"new/MarketplaceEscrow_test/AccessManager.sol\":356:357  3 */\n      0x03\n        /* \"new/MarketplaceEscrow_test/AccessManager.sol\":887:893  _roles */\n      0x00\n        /* \"new/MarketplaceEscrow_test/AccessManager.sol\":887:905  _roles[msg.sender] */\n      0x00\n        /* \"new/MarketplaceEscrow_test/AccessManager.sol\":894:904  msg.sender */\n      caller\n        /* \"new/MarketplaceEscrow_test/AccessManager.sol\":887:905  _roles[msg.sender] */\n      0xffffffffffffffffffffffffffffffffffffffff\n      and\n      0xffffffffffffffffffffffffffffffffffffffff\n      and\n      dup2\n      mstore\n      0x20\n      add\n      swap1\n      dup2\n      mstore\n      0x20\n      add\n      0x00\n      keccak256\n        /* \"new/MarketplaceEscrow_test/AccessManager.sol\":887:912  _roles[msg.sender][_role] */\n      0x00\n        /* \"new/MarketplaceEscrow_test/AccessManager.sol\":906:911  _role */\n      dup3\n        /* \"new/MarketplaceEscrow_test/AccessManager.sol\":887:912  _roles[msg.sender][_role] */\n      0xff\n      and\n      0xff\n      and\n      dup2\n      mstore\n      0x20\n      add\n      swap1\n      dup2\n      mstore\n      0x20\n      add\n      0x00\n      keccak256\n      0x00\n      swap1\n      sload\n      swap1\n      0x0100\n      exp\n      swap1\n      div\n      0xff\n      and\n        /* \"new/MarketplaceEscrow_test/AccessManager.sol\":881:960  if ( !_roles[msg.sender][_role]) {... */\n      tag_179\n      jumpi\n        /* \"new/MarketplaceEscrow_test/AccessManager.sol\":935:949  Unauthorized() */\n      mload(0x40)\n      0x82b4290000000000000000000000000000000000000000000000000000000000\n      dup2\n      mstore\n      0x04\n      add\n      mload(0x40)\n      dup1\n      swap2\n      sub\n      swap1\n      revert\n        /* \"new/MarketplaceEscrow_test/AccessManager.sol\":881:960  if ( !_roles[msg.sender][_role]) {... */\n    tag_179:\n        /* \"new/MarketplaceEscrow_test/EscrowMarketplace.sol\":5603:5618  Order storage o */\n      0x00\n        /* \"new/MarketplaceEscrow_test/EscrowMarketplace.sol\":5621:5639  _getOrder(orderId) */\n      tag_181\n        /* \"new/MarketplaceEscrow_test/EscrowMarketplace.sol\":5631:5638  orderId */\n      dup5\n        /* \"new/MarketplaceEscrow_test/EscrowMarketplace.sol\":5621:5630  _getOrder */\n      tag_129\n        /* \"new/MarketplaceEscrow_test/EscrowMarketplace.sol\":5621:5639  _getOrder(orderId) */\n      jump\t// in\n    tag_181:\n        /* \"new/MarketplaceEscrow_test/EscrowMarketplace.sol\":5603:5639  Order storage o = _getOrder(orderId) */\n      swap1\n      pop\n        /* \"new/MarketplaceEscrow_test/EscrowMarketplace.sol\":5665:5684  OrderState.Disputed */\n      0x04\n        /* \"new/MarketplaceEscrow_test/EscrowMarketplace.sol\":5654:5684  o.state != OrderState.Disputed */\n      0x06\n      dup2\n      gt\n      iszero\n      tag_182\n      jumpi\n      tag_183\n      tag_134\n      jump\t// in\n    tag_183:\n    tag_182:\n        /* \"new/MarketplaceEscrow_test/EscrowMarketplace.sol\":5654:5655  o */\n      dup2\n        /* \"new/MarketplaceEscrow_test/EscrowMarketplace.sol\":5654:5661  o.state */\n      0x06\n      add\n      0x00\n      swap1\n      sload\n      swap1\n      0x0100\n      exp\n      swap1\n      div\n      0xff\n      and\n        /* \"new/MarketplaceEscrow_test/EscrowMarketplace.sol\":5654:5684  o.state != OrderState.Disputed */\n      0x06\n      dup2\n      gt\n      iszero\n      tag_184\n      jumpi\n      tag_185\n      tag_134\n      jump\t// in\n    tag_185:\n    tag_184:\n      eq\n        /* \"new/MarketplaceEscrow_test/EscrowMarketplace.sol\":5650:5748  if( o.state != OrderState.Disputed) {... */\n      tag_186\n      jumpi\n        /* \"new/MarketplaceEscrow_test/EscrowMarketplace.sol\":5720:5727  orderId */\n      dup4\n        /* \"new/MarketplaceEscrow_test/EscrowMarketplace.sol\":5729:5730  o */\n      dup2\n        /* \"new/MarketplaceEscrow_test/EscrowMarketplace.sol\":5729:5736  o.state */\n      0x06\n      add\n      0x00\n      swap1\n      sload\n      swap1\n      0x0100\n      exp\n      swap1\n      div\n      0xff\n      and\n        /* \"new/MarketplaceEscrow_test/EscrowMarketplace.sol\":5707:5737  InvalidState(orderId, o.state) */\n      mload(0x40)\n      0x0a5889e500000000000000000000000000000000000000000000000000000000\n      dup2\n      mstore\n      0x04\n      add\n      tag_187\n      swap3\n      swap2\n      swap1\n      tag_144\n      jump\t// in\n    tag_187:\n      mload(0x40)\n      dup1\n      swap2\n      sub\n      swap1\n      revert\n        /* \"new/MarketplaceEscrow_test/EscrowMarketplace.sol\":5650:5748  if( o.state != OrderState.Disputed) {... */\n    tag_186:\n        /* \"new/MarketplaceEscrow_test/EscrowMarketplace.sol\":5762:5777  releaseToSeller */\n      dup3\n        /* \"new/MarketplaceEscrow_test/EscrowMarketplace.sol\":5758:5903  if( releaseToSeller ) {... */\n      iszero\n      tag_188\n      jumpi\n        /* \"new/MarketplaceEscrow_test/EscrowMarketplace.sol\":5804:5824  OrderState.Completed */\n      0x03\n        /* \"new/MarketplaceEscrow_test/EscrowMarketplace.sol\":5794:5795  o */\n      dup2\n        /* \"new/MarketplaceEscrow_test/EscrowMarketplace.sol\":5794:5801  o.state */\n      0x06\n      add\n      0x00\n        /* \"new/MarketplaceEscrow_test/EscrowMarketplace.sol\":5794:5824  o.state = OrderState.Completed */\n      0x0100\n      exp\n      dup2\n      sload\n      dup2\n      0xff\n      mul\n      not\n      and\n      swap1\n      dup4\n      0x06\n      dup2\n      gt\n      iszero\n      tag_189\n      jumpi\n      tag_190\n      tag_134\n      jump\t// in\n    tag_190:\n    tag_189:\n      mul\n      or\n      swap1\n      sstore\n      pop\n        /* \"new/MarketplaceEscrow_test/EscrowMarketplace.sol\":5758:5903  if( releaseToSeller ) {... */\n      jump(tag_191)\n    tag_188:\n        /* \"new/MarketplaceEscrow_test/EscrowMarketplace.sol\":5873:5892  OrderState.Refunded */\n      0x05\n        /* \"new/MarketplaceEscrow_test/EscrowMarketplace.sol\":5863:5864  o */\n      dup2\n        /* \"new/MarketplaceEscrow_test/EscrowMarketplace.sol\":5863:5870  o.state */\n      0x06\n      add\n      0x00\n        /* \"new/MarketplaceEscrow_test/EscrowMarketplace.sol\":5863:5892  o.state = OrderState.Refunded */\n      0x0100\n      exp\n      dup2\n      sload\n      dup2\n      0xff\n      mul\n      not\n      and\n      swap1\n      dup4\n      0x06\n      dup2\n      gt\n      iszero\n      tag_192\n      jumpi\n      tag_193\n      tag_134\n      jump\t// in\n    tag_193:\n    tag_192:\n      mul\n      or\n      swap1\n      sstore\n      pop\n        /* \"new/MarketplaceEscrow_test/EscrowMarketplace.sol\":5758:5903  if( releaseToSeller ) {... */\n    tag_191:\n        /* \"new/MarketplaceEscrow_test/EscrowMarketplace.sol\":5934:5941  orderId */\n      dup4\n        /* \"new/MarketplaceEscrow_test/EscrowMarketplace.sol\":5918:5959  DisputeResolved(orderId, releaseToSeller) */\n      0x5a87909bff68caaaaf0b3fd9c74eeccc928832f879315e5c6fb7a73612f26c0c\n        /* \"new/MarketplaceEscrow_test/EscrowMarketplace.sol\":5943:5958  releaseToSeller */\n      dup5\n        /* \"new/MarketplaceEscrow_test/EscrowMarketplace.sol\":5918:5959  DisputeResolved(orderId, releaseToSeller) */\n      mload(0x40)\n      tag_194\n      swap2\n      swap1\n      tag_92\n      jump\t// in\n    tag_194:\n      mload(0x40)\n      dup1\n      swap2\n      sub\n      swap1\n      log2\n        /* \"new/MarketplaceEscrow_test/EscrowMarketplace.sol\":5974:5989  releaseToSeller */\n      dup3\n        /* \"new/MarketplaceEscrow_test/EscrowMarketplace.sol\":5970:6335  if( releaseToSeller ) {... */\n      iszero\n      tag_195\n      jumpi\n        /* \"new/MarketplaceEscrow_test/EscrowMarketplace.sol\":6007:6021  uint256 payout */\n      0x00\n        /* \"new/MarketplaceEscrow_test/EscrowMarketplace.sol\":6023:6034  uint256 fee */\n      0x00\n        /* \"new/MarketplaceEscrow_test/EscrowMarketplace.sol\":6038:6056  _calcFee(o.amount) */\n      tag_196\n        /* \"new/MarketplaceEscrow_test/EscrowMarketplace.sol\":6047:6048  o */\n      dup4\n        /* \"new/MarketplaceEscrow_test/EscrowMarketplace.sol\":6047:6055  o.amount */\n      0x03\n      add\n      sload\n        /* \"new/MarketplaceEscrow_test/EscrowMarketplace.sol\":6038:6046  _calcFee */\n      tag_170\n        /* \"new/MarketplaceEscrow_test/EscrowMarketplace.sol\":6038:6056  _calcFee(o.amount) */\n      jump\t// in\n    tag_196:\n        /* \"new/MarketplaceEscrow_test/EscrowMarketplace.sol\":6006:6056  (uint256 payout, uint256 fee) = _calcFee(o.amount) */\n      swap2\n      pop\n      swap2\n      pop\n        /* \"new/MarketplaceEscrow_test/EscrowMarketplace.sol\":6090:6097  orderId */\n      dup6\n        /* \"new/MarketplaceEscrow_test/EscrowMarketplace.sol\":6075:6111  OrderCompleted(orderId, payout, fee) */\n      0xc4bfc30eeb4d37af0bfe8327e0acfdc5e10da19745a4677dd5f4244993d7ca98\n        /* \"new/MarketplaceEscrow_test/EscrowMarketplace.sol\":6099:6105  payout */\n      dup4\n        /* \"new/MarketplaceEscrow_test/EscrowMarketplace.sol\":6107:6110  fee */\n      dup4\n        /* \"new/MarketplaceEscrow_test/EscrowMarketplace.sol\":6075:6111  OrderCompleted(orderId, payout, fee) */\n      mload(0x40)\n      tag_197\n      swap3\n      swap2\n      swap1\n      tag_172\n      jump\t// in\n    tag_197:\n      mload(0x40)\n      dup1\n      swap2\n      sub\n      swap1\n      log2\n        /* \"new/MarketplaceEscrow_test/EscrowMarketplace.sol\":6125:6162  _safeTransfer(address(treasury), fee) */\n      tag_198\n        /* \"new/MarketplaceEscrow_test/EscrowMarketplace.sol\":6147:6155  treasury */\n      immutable(\"0x69e3c6522a2f8bf12e780ae53c30e69d48d224ea00c92026278c398148e8df91\")\n        /* \"new/MarketplaceEscrow_test/EscrowMarketplace.sol\":6158:6161  fee */\n      dup3\n        /* \"new/MarketplaceEscrow_test/EscrowMarketplace.sol\":6125:6138  _safeTransfer */\n      tag_174\n        /* \"new/MarketplaceEscrow_test/EscrowMarketplace.sol\":6125:6162  _safeTransfer(address(treasury), fee) */\n      jump\t// in\n    tag_198:\n        /* \"new/MarketplaceEscrow_test/EscrowMarketplace.sol\":6176:6207  _safeTransfer(o.seller, payout) */\n      tag_199\n        /* \"new/MarketplaceEscrow_test/EscrowMarketplace.sol\":6190:6191  o */\n      dup4\n        /* \"new/MarketplaceEscrow_test/EscrowMarketplace.sol\":6190:6198  o.seller */\n      0x02\n      add\n      0x00\n      swap1\n      sload\n      swap1\n      0x0100\n      exp\n      swap1\n      div\n      0xffffffffffffffffffffffffffffffffffffffff\n      and\n        /* \"new/MarketplaceEscrow_test/EscrowMarketplace.sol\":6200:6206  payout */\n      dup4\n        /* \"new/MarketplaceEscrow_test/EscrowMarketplace.sol\":6176:6189  _safeTransfer */\n      tag_174\n        /* \"new/MarketplaceEscrow_test/EscrowMarketplace.sol\":6176:6207  _safeTransfer(o.seller, payout) */\n      jump\t// in\n    tag_199:\n        /* \"new/MarketplaceEscrow_test/EscrowMarketplace.sol\":5992:6218  {... */\n      pop\n      pop\n        /* \"new/MarketplaceEscrow_test/EscrowMarketplace.sol\":5970:6335  if( releaseToSeller ) {... */\n      jump(tag_200)\n    tag_195:\n        /* \"new/MarketplaceEscrow_test/EscrowMarketplace.sol\":6260:6267  orderId */\n      dup4\n        /* \"new/MarketplaceEscrow_test/EscrowMarketplace.sol\":6251:6278  Refunded(orderId, o.amount) */\n      0xb7c1f9298a18c36af08bd57eabbfbeb04695f24d0438f67614741ec15fb5c4a9\n        /* \"new/MarketplaceEscrow_test/EscrowMarketplace.sol\":6269:6270  o */\n      dup3\n        /* \"new/MarketplaceEscrow_test/EscrowMarketplace.sol\":6269:6277  o.amount */\n      0x03\n      add\n      sload\n        /* \"new/MarketplaceEscrow_test/EscrowMarketplace.sol\":6251:6278  Refunded(orderId, o.amount) */\n      mload(0x40)\n      tag_201\n      swap2\n      swap1\n      tag_35\n      jump\t// in\n    tag_201:\n      mload(0x40)\n      dup1\n      swap2\n      sub\n      swap1\n      log2\n        /* \"new/MarketplaceEscrow_test/EscrowMarketplace.sol\":6292:6324  _safeTransfer(o.buyer, o.amount) */\n      tag_202\n        /* \"new/MarketplaceEscrow_test/EscrowMarketplace.sol\":6306:6307  o */\n      dup2\n        /* \"new/MarketplaceEscrow_test/EscrowMarketplace.sol\":6306:6313  o.buyer */\n      0x01\n      add\n      0x00\n      swap1\n      sload\n      swap1\n      0x0100\n      exp\n      swap1\n      div\n      0xffffffffffffffffffffffffffffffffffffffff\n      and\n        /* \"new/MarketplaceEscrow_test/EscrowMarketplace.sol\":6315:6316  o */\n      dup3\n        /* \"new/MarketplaceEscrow_test/EscrowMarketplace.sol\":6315:6323  o.amount */\n      0x03\n      add\n      sload\n        /* \"new/MarketplaceEscrow_test/EscrowMarketplace.sol\":6292:6305  _safeTransfer */\n      tag_174\n        /* \"new/MarketplaceEscrow_test/EscrowMarketplace.sol\":6292:6324  _safeTransfer(o.buyer, o.amount) */\n      jump\t// in\n    tag_202:\n        /* \"new/MarketplaceEscrow_test/EscrowMarketplace.sol\":5970:6335  if( releaseToSeller ) {... */\n    tag_200:\n        /* \"new/MarketplaceEscrow_test/EscrowMarketplace.sol\":5593:6342  {... */\n      pop\n        /* \"new/MarketplaceEscrow_test/EscrowMarketplace.sol\":2051:2052  _ */\n      pop\n        /* \"new/MarketplaceEscrow_test/EscrowMarketplace.sol\":2072:2077  false */\n      0x00\n        /* \"new/MarketplaceEscrow_test/EscrowMarketplace.sol\":2062:2069  _locked */\n      0x03\n      0x00\n        /* \"new/MarketplaceEscrow_test/EscrowMarketplace.sol\":2062:2077  _locked = false */\n      0x0100\n      exp\n      dup2\n      sload\n      dup2\n      0xff\n      mul\n      not\n      and\n      swap1\n      dup4\n      iszero\n      iszero\n      mul\n      or\n      swap1\n      sstore\n      pop\n        /* \"new/MarketplaceEscrow_test/EscrowMarketplace.sol\":5488:6342  function resolveDispute (uint256 orderId, bool releaseToSeller) external nonReentrant onlyRole(MEDIATOR) {... */\n      pop\n      pop\n      jump\t// out\n        /* \"new/MarketplaceEscrow_test/EscrowMarketplace.sol\":6352:6746  function refundBuyer(uint256 orderId) external nonReentrant onlyRole(MEDIATOR) {... */\n    tag_58:\n        /* \"new/MarketplaceEscrow_test/EscrowMarketplace.sol\":1962:1969  _locked */\n      0x03\n      0x00\n      swap1\n      sload\n      swap1\n      0x0100\n      exp\n      swap1\n      div\n      0xff\n      and\n        /* \"new/MarketplaceEscrow_test/EscrowMarketplace.sol\":1959:2017  if(_locked) {... */\n      iszero\n      tag_204\n      jumpi\n        /* \"new/MarketplaceEscrow_test/EscrowMarketplace.sol\":1992:2006  NonReentrant() */\n      mload(0x40)\n      0x9396d15600000000000000000000000000000000000000000000000000000000\n      dup2\n      mstore\n      0x04\n      add\n      mload(0x40)\n      dup1\n      swap2\n      sub\n      swap1\n      revert\n        /* \"new/MarketplaceEscrow_test/EscrowMarketplace.sol\":1959:2017  if(_locked) {... */\n    tag_204:\n        /* \"new/MarketplaceEscrow_test/EscrowMarketplace.sol\":2037:2041  true */\n      0x01\n        /* \"new/MarketplaceEscrow_test/EscrowMarketplace.sol\":2027:2034  _locked */\n      0x03\n      0x00\n        /* \"new/MarketplaceEscrow_test/EscrowMarketplace.sol\":2027:2041  _locked = true */\n      0x0100\n      exp\n      dup2\n      sload\n      dup2\n      0xff\n      mul\n      not\n      and\n      swap1\n      dup4\n      iszero\n      iszero\n      mul\n      or\n      swap1\n      sstore\n      pop\n        /* \"new/MarketplaceEscrow_test/AccessManager.sol\":356:357  3 */\n      0x03\n        /* \"new/MarketplaceEscrow_test/AccessManager.sol\":887:893  _roles */\n      0x00\n        /* \"new/MarketplaceEscrow_test/AccessManager.sol\":887:905  _roles[msg.sender] */\n      0x00\n        /* \"new/MarketplaceEscrow_test/AccessManager.sol\":894:904  msg.sender */\n      caller\n        /* \"new/MarketplaceEscrow_test/AccessManager.sol\":887:905  _roles[msg.sender] */\n      0xffffffffffffffffffffffffffffffffffffffff\n      and\n      0xffffffffffffffffffffffffffffffffffffffff\n      and\n      dup2\n      mstore\n      0x20\n      add\n      swap1\n      dup2\n      mstore\n      0x20\n      add\n      0x00\n      keccak256\n        /* \"new/MarketplaceEscrow_test/AccessManager.sol\":887:912  _roles[msg.sender][_role] */\n      0x00\n        /* \"new/MarketplaceEscrow_test/AccessManager.sol\":906:911  _role */\n      dup3\n        /* \"new/MarketplaceEscrow_test/AccessManager.sol\":887:912  _roles[msg.sender][_role] */\n      0xff\n      and\n      0xff\n      and\n      dup2\n      mstore\n      0x20\n      add\n      swap1\n      dup2\n      mstore\n      0x20\n      add\n      0x00\n      keccak256\n      0x00\n      swap1\n      sload\n      swap1\n      0x0100\n      exp\n      swap1\n      div\n      0xff\n      and\n        /* \"new/MarketplaceEscrow_test/AccessManager.sol\":881:960  if ( !_roles[msg.sender][_role]) {... */\n      tag_206\n      jumpi\n        /* \"new/MarketplaceEscrow_test/AccessManager.sol\":935:949  Unauthorized() */\n      mload(0x40)\n      0x82b4290000000000000000000000000000000000000000000000000000000000\n      dup2\n      mstore\n      0x04\n      add\n      mload(0x40)\n      dup1\n      swap2\n      sub\n      swap1\n      revert\n        /* \"new/MarketplaceEscrow_test/AccessManager.sol\":881:960  if ( !_roles[msg.sender][_role]) {... */\n    tag_206:\n        /* \"new/MarketplaceEscrow_test/EscrowMarketplace.sol\":6441:6456  Order storage o */\n      0x00\n        /* \"new/MarketplaceEscrow_test/EscrowMarketplace.sol\":6459:6477  _getOrder(orderId) */\n      tag_208\n        /* \"new/MarketplaceEscrow_test/EscrowMarketplace.sol\":6469:6476  orderId */\n      dup4\n        /* \"new/MarketplaceEscrow_test/EscrowMarketplace.sol\":6459:6468  _getOrder */\n      tag_129\n        /* \"new/MarketplaceEscrow_test/EscrowMarketplace.sol\":6459:6477  _getOrder(orderId) */\n      jump\t// in\n    tag_208:\n        /* \"new/MarketplaceEscrow_test/EscrowMarketplace.sol\":6441:6477  Order storage o = _getOrder(orderId) */\n      swap1\n      pop\n        /* \"new/MarketplaceEscrow_test/EscrowMarketplace.sol\":6503:6522  OrderState.Disputed */\n      0x04\n        /* \"new/MarketplaceEscrow_test/EscrowMarketplace.sol\":6492:6522  o.state != OrderState.Disputed */\n      0x06\n      dup2\n      gt\n      iszero\n      tag_209\n      jumpi\n      tag_210\n      tag_134\n      jump\t// in\n    tag_210:\n    tag_209:\n        /* \"new/MarketplaceEscrow_test/EscrowMarketplace.sol\":6492:6493  o */\n      dup2\n        /* \"new/MarketplaceEscrow_test/EscrowMarketplace.sol\":6492:6499  o.state */\n      0x06\n      add\n      0x00\n      swap1\n      sload\n      swap1\n      0x0100\n      exp\n      swap1\n      div\n      0xff\n      and\n        /* \"new/MarketplaceEscrow_test/EscrowMarketplace.sol\":6492:6522  o.state != OrderState.Disputed */\n      0x06\n      dup2\n      gt\n      iszero\n      tag_211\n      jumpi\n      tag_212\n      tag_134\n      jump\t// in\n    tag_212:\n    tag_211:\n      eq\n        /* \"new/MarketplaceEscrow_test/EscrowMarketplace.sol\":6488:6587  if( o.state != OrderState.Disputed ) {... */\n      tag_213\n      jumpi\n        /* \"new/MarketplaceEscrow_test/EscrowMarketplace.sol\":6559:6566  orderId */\n      dup3\n        /* \"new/MarketplaceEscrow_test/EscrowMarketplace.sol\":6568:6569  o */\n      dup2\n        /* \"new/MarketplaceEscrow_test/EscrowMarketplace.sol\":6568:6575  o.state */\n      0x06\n      add\n      0x00\n      swap1\n      sload\n      swap1\n      0x0100\n      exp\n      swap1\n      div\n      0xff\n      and\n        /* \"new/MarketplaceEscrow_test/EscrowMarketplace.sol\":6546:6576  InvalidState(orderId, o.state) */\n      mload(0x40)\n      0x0a5889e500000000000000000000000000000000000000000000000000000000\n      dup2\n      mstore\n      0x04\n      add\n      tag_214\n      swap3\n      swap2\n      swap1\n      tag_144\n      jump\t// in\n    tag_214:\n      mload(0x40)\n      dup1\n      swap2\n      sub\n      swap1\n      revert\n        /* \"new/MarketplaceEscrow_test/EscrowMarketplace.sol\":6488:6587  if( o.state != OrderState.Disputed ) {... */\n    tag_213:\n        /* \"new/MarketplaceEscrow_test/EscrowMarketplace.sol\":6597:6608  uint256 amt */\n      0x00\n        /* \"new/MarketplaceEscrow_test/EscrowMarketplace.sol\":6611:6612  o */\n      dup2\n        /* \"new/MarketplaceEscrow_test/EscrowMarketplace.sol\":6611:6619  o.amount */\n      0x03\n      add\n      sload\n        /* \"new/MarketplaceEscrow_test/EscrowMarketplace.sol\":6597:6619  uint256 amt = o.amount */\n      swap1\n      pop\n        /* \"new/MarketplaceEscrow_test/EscrowMarketplace.sol\":6639:6658  OrderState.Refunded */\n      0x05\n        /* \"new/MarketplaceEscrow_test/EscrowMarketplace.sol\":6629:6630  o */\n      dup3\n        /* \"new/MarketplaceEscrow_test/EscrowMarketplace.sol\":6629:6636  o.state */\n      0x06\n      add\n      0x00\n        /* \"new/MarketplaceEscrow_test/EscrowMarketplace.sol\":6629:6658  o.state = OrderState.Refunded */\n      0x0100\n      exp\n      dup2\n      sload\n      dup2\n      0xff\n      mul\n      not\n      and\n      swap1\n      dup4\n      0x06\n      dup2\n      gt\n      iszero\n      tag_215\n      jumpi\n      tag_216\n      tag_134\n      jump\t// in\n    tag_216:\n    tag_215:\n      mul\n      or\n      swap1\n      sstore\n      pop\n        /* \"new/MarketplaceEscrow_test/EscrowMarketplace.sol\":6683:6690  orderId */\n      dup4\n        /* \"new/MarketplaceEscrow_test/EscrowMarketplace.sol\":6674:6701  Refunded(orderId, o.amount) */\n      0xb7c1f9298a18c36af08bd57eabbfbeb04695f24d0438f67614741ec15fb5c4a9\n        /* \"new/MarketplaceEscrow_test/EscrowMarketplace.sol\":6692:6693  o */\n      dup4\n        /* \"new/MarketplaceEscrow_test/EscrowMarketplace.sol\":6692:6700  o.amount */\n      0x03\n      add\n      sload\n        /* \"new/MarketplaceEscrow_test/EscrowMarketplace.sol\":6674:6701  Refunded(orderId, o.amount) */\n      mload(0x40)\n      tag_217\n      swap2\n      swap1\n      tag_35\n      jump\t// in\n    tag_217:\n      mload(0x40)\n      dup1\n      swap2\n      sub\n      swap1\n      log2\n        /* \"new/MarketplaceEscrow_test/EscrowMarketplace.sol\":6712:6739  _safeTransfer(o.buyer, amt) */\n      tag_218\n        /* \"new/MarketplaceEscrow_test/EscrowMarketplace.sol\":6726:6727  o */\n      dup3\n        /* \"new/MarketplaceEscrow_test/EscrowMarketplace.sol\":6726:6733  o.buyer */\n      0x01\n      add\n      0x00\n      swap1\n      sload\n      swap1\n      0x0100\n      exp\n      swap1\n      div\n      0xffffffffffffffffffffffffffffffffffffffff\n      and\n        /* \"new/MarketplaceEscrow_test/EscrowMarketplace.sol\":6735:6738  amt */\n      dup3\n        /* \"new/MarketplaceEscrow_test/EscrowMarketplace.sol\":6712:6725  _safeTransfer */\n      tag_174\n        /* \"new/MarketplaceEscrow_test/EscrowMarketplace.sol\":6712:6739  _safeTransfer(o.buyer, amt) */\n      jump\t// in\n    tag_218:\n        /* \"new/MarketplaceEscrow_test/EscrowMarketplace.sol\":6431:6746  {... */\n      pop\n      pop\n        /* \"new/MarketplaceEscrow_test/EscrowMarketplace.sol\":2051:2052  _ */\n      pop\n        /* \"new/MarketplaceEscrow_test/EscrowMarketplace.sol\":2072:2077  false */\n      0x00\n        /* \"new/MarketplaceEscrow_test/EscrowMarketplace.sol\":2062:2069  _locked */\n      0x03\n      0x00\n        /* \"new/MarketplaceEscrow_test/EscrowMarketplace.sol\":2062:2077  _locked = false */\n      0x0100\n      exp\n      dup2\n      sload\n      dup2\n      0xff\n      mul\n      not\n      and\n      swap1\n      dup4\n      iszero\n      iszero\n      mul\n      or\n      swap1\n      sstore\n      pop\n        /* \"new/MarketplaceEscrow_test/EscrowMarketplace.sol\":6352:6746  function refundBuyer(uint256 orderId) external nonReentrant onlyRole(MEDIATOR) {... */\n      pop\n      jump\t// out\n        /* \"new/MarketplaceEscrow_test/AccessManager.sol\":1039:1279  function grantRole(address _account, uint8 _assignRole ) external onlyRole(ADMIN) {... */\n    tag_62:\n        /* \"new/MarketplaceEscrow_test/AccessManager.sol\":276:277  1 */\n      0x01\n        /* \"new/MarketplaceEscrow_test/AccessManager.sol\":887:893  _roles */\n      0x00\n        /* \"new/MarketplaceEscrow_test/AccessManager.sol\":887:905  _roles[msg.sender] */\n      0x00\n        /* \"new/MarketplaceEscrow_test/AccessManager.sol\":894:904  msg.sender */\n      caller\n        /* \"new/MarketplaceEscrow_test/AccessManager.sol\":887:905  _roles[msg.sender] */\n      0xffffffffffffffffffffffffffffffffffffffff\n      and\n      0xffffffffffffffffffffffffffffffffffffffff\n      and\n      dup2\n      mstore\n      0x20\n      add\n      swap1\n      dup2\n      mstore\n      0x20\n      add\n      0x00\n      keccak256\n        /* \"new/MarketplaceEscrow_test/AccessManager.sol\":887:912  _roles[msg.sender][_role] */\n      0x00\n        /* \"new/MarketplaceEscrow_test/AccessManager.sol\":906:911  _role */\n      dup3\n        /* \"new/MarketplaceEscrow_test/AccessManager.sol\":887:912  _roles[msg.sender][_role] */\n      0xff\n      and\n      0xff\n      and\n      dup2\n      mstore\n      0x20\n      add\n      swap1\n      dup2\n      mstore\n      0x20\n      add\n      0x00\n      keccak256\n      0x00\n      swap1\n      sload\n      swap1\n      0x0100\n      exp\n      swap1\n      div\n      0xff\n      and\n        /* \"new/MarketplaceEscrow_test/AccessManager.sol\":881:960  if ( !_roles[msg.sender][_role]) {... */\n      tag_220\n      jumpi\n        /* \"new/MarketplaceEscrow_test/AccessManager.sol\":935:949  Unauthorized() */\n      mload(0x40)\n      0x82b4290000000000000000000000000000000000000000000000000000000000\n      dup2\n      mstore\n      0x04\n      add\n      mload(0x40)\n      dup1\n      swap2\n      sub\n      swap1\n      revert\n        /* \"new/MarketplaceEscrow_test/AccessManager.sol\":881:960  if ( !_roles[msg.sender][_role]) {... */\n    tag_220:\n        /* \"new/MarketplaceEscrow_test/AccessManager.sol\":1155:1156  0 */\n      0x00\n        /* \"new/MarketplaceEscrow_test/AccessManager.sol\":1135:1157  _account == address(0) */\n      0xffffffffffffffffffffffffffffffffffffffff\n      and\n        /* \"new/MarketplaceEscrow_test/AccessManager.sol\":1135:1143  _account */\n      dup4\n        /* \"new/MarketplaceEscrow_test/AccessManager.sol\":1135:1157  _account == address(0) */\n      0xffffffffffffffffffffffffffffffffffffffff\n      and\n      eq\n        /* \"new/MarketplaceEscrow_test/AccessManager.sol\":1135:1181  _account == address(0) || _assignRole == ADMIN */\n      dup1\n      tag_222\n      jumpi\n      pop\n        /* \"new/MarketplaceEscrow_test/AccessManager.sol\":276:277  1 */\n      0x01\n        /* \"new/MarketplaceEscrow_test/AccessManager.sol\":1161:1181  _assignRole == ADMIN */\n      0xff\n      and\n        /* \"new/MarketplaceEscrow_test/AccessManager.sol\":1161:1172  _assignRole */\n      dup3\n        /* \"new/MarketplaceEscrow_test/AccessManager.sol\":1161:1181  _assignRole == ADMIN */\n      0xff\n      and\n      eq\n        /* \"new/MarketplaceEscrow_test/AccessManager.sol\":1135:1181  _account == address(0) || _assignRole == ADMIN */\n    tag_222:\n        /* \"new/MarketplaceEscrow_test/AccessManager.sol\":1131:1230  if( _account == address(0) || _assignRole == ADMIN ) {... */\n      iszero\n      tag_223\n      jumpi\n        /* \"new/MarketplaceEscrow_test/AccessManager.sol\":1205:1219  Unauthorized() */\n      mload(0x40)\n      0x82b4290000000000000000000000000000000000000000000000000000000000\n      dup2\n      mstore\n      0x04\n      add\n      mload(0x40)\n      dup1\n      swap2\n      sub\n      swap1\n      revert\n        /* \"new/MarketplaceEscrow_test/AccessManager.sol\":1131:1230  if( _account == address(0) || _assignRole == ADMIN ) {... */\n    tag_223:\n        /* \"new/MarketplaceEscrow_test/AccessManager.sol\":1239:1272  _grantRole(_account, _assignRole) */\n      tag_224\n        /* \"new/MarketplaceEscrow_test/AccessManager.sol\":1250:1258  _account */\n      dup4\n        /* \"new/MarketplaceEscrow_test/AccessManager.sol\":1260:1271  _assignRole */\n      dup4\n        /* \"new/MarketplaceEscrow_test/AccessManager.sol\":1239:1249  _grantRole */\n      tag_225\n        /* \"new/MarketplaceEscrow_test/AccessManager.sol\":1239:1272  _grantRole(_account, _assignRole) */\n      jump\t// in\n    tag_224:\n        /* \"new/MarketplaceEscrow_test/AccessManager.sol\":1039:1279  function grantRole(address _account, uint8 _assignRole ) external onlyRole(ADMIN) {... */\n      pop\n      pop\n      pop\n      jump\t// out\n        /* \"new/MarketplaceEscrow_test/EscrowMarketplace.sol\":4192:4567  function cancelUnfunded(uint256 orderId) external {... */\n    tag_66:\n        /* \"new/MarketplaceEscrow_test/EscrowMarketplace.sol\":4252:4267  Order storage o */\n      0x00\n        /* \"new/MarketplaceEscrow_test/EscrowMarketplace.sol\":4270:4288  _getOrder(orderId) */\n      tag_227\n        /* \"new/MarketplaceEscrow_test/EscrowMarketplace.sol\":4280:4287  orderId */\n      dup3\n        /* \"new/MarketplaceEscrow_test/EscrowMarketplace.sol\":4270:4279  _getOrder */\n      tag_129\n        /* \"new/MarketplaceEscrow_test/EscrowMarketplace.sol\":4270:4288  _getOrder(orderId) */\n      jump\t// in\n    tag_227:\n        /* \"new/MarketplaceEscrow_test/EscrowMarketplace.sol\":4252:4288  Order storage o = _getOrder(orderId) */\n      swap1\n      pop\n        /* \"new/MarketplaceEscrow_test/EscrowMarketplace.sol\":4313:4323  msg.sender */\n      caller\n        /* \"new/MarketplaceEscrow_test/EscrowMarketplace.sol\":4302:4323  o.buyer != msg.sender */\n      0xffffffffffffffffffffffffffffffffffffffff\n      and\n        /* \"new/MarketplaceEscrow_test/EscrowMarketplace.sol\":4302:4303  o */\n      dup2\n        /* \"new/MarketplaceEscrow_test/EscrowMarketplace.sol\":4302:4309  o.buyer */\n      0x01\n      add\n      0x00\n      swap1\n      sload\n      swap1\n      0x0100\n      exp\n      swap1\n      div\n      0xffffffffffffffffffffffffffffffffffffffff\n      and\n        /* \"new/MarketplaceEscrow_test/EscrowMarketplace.sol\":4302:4323  o.buyer != msg.sender */\n      0xffffffffffffffffffffffffffffffffffffffff\n      and\n      eq\n        /* \"new/MarketplaceEscrow_test/EscrowMarketplace.sol\":4299:4374  if(o.buyer != msg.sender) {... */\n      tag_228\n      jumpi\n        /* \"new/MarketplaceEscrow_test/EscrowMarketplace.sol\":4355:4362  orderId */\n      dup2\n        /* \"new/MarketplaceEscrow_test/EscrowMarketplace.sol\":4346:4363  NotBuyer(orderId) */\n      mload(0x40)\n      0x09b4c33d00000000000000000000000000000000000000000000000000000000\n      dup2\n      mstore\n      0x04\n      add\n      tag_229\n      swap2\n      swap1\n      tag_35\n      jump\t// in\n    tag_229:\n      mload(0x40)\n      dup1\n      swap2\n      sub\n      swap1\n      revert\n        /* \"new/MarketplaceEscrow_test/EscrowMarketplace.sol\":4299:4374  if(o.buyer != msg.sender) {... */\n    tag_228:\n        /* \"new/MarketplaceEscrow_test/EscrowMarketplace.sol\":4397:4415  OrderState.Created */\n      0x00\n        /* \"new/MarketplaceEscrow_test/EscrowMarketplace.sol\":4386:4415  o.state != OrderState.Created */\n      0x06\n      dup2\n      gt\n      iszero\n      tag_230\n      jumpi\n      tag_231\n      tag_134\n      jump\t// in\n    tag_231:\n    tag_230:\n        /* \"new/MarketplaceEscrow_test/EscrowMarketplace.sol\":4386:4387  o */\n      dup2\n        /* \"new/MarketplaceEscrow_test/EscrowMarketplace.sol\":4386:4393  o.state */\n      0x06\n      add\n      0x00\n      swap1\n      sload\n      swap1\n      0x0100\n      exp\n      swap1\n      div\n      0xff\n      and\n        /* \"new/MarketplaceEscrow_test/EscrowMarketplace.sol\":4386:4415  o.state != OrderState.Created */\n      0x06\n      dup2\n      gt\n      iszero\n      tag_232\n      jumpi\n      tag_233\n      tag_134\n      jump\t// in\n    tag_233:\n    tag_232:\n      eq\n        /* \"new/MarketplaceEscrow_test/EscrowMarketplace.sol\":4383:4478  if(o.state != OrderState.Created){... */\n      tag_234\n      jumpi\n        /* \"new/MarketplaceEscrow_test/EscrowMarketplace.sol\":4450:4457  orderId */\n      dup2\n        /* \"new/MarketplaceEscrow_test/EscrowMarketplace.sol\":4459:4460  o */\n      dup2\n        /* \"new/MarketplaceEscrow_test/EscrowMarketplace.sol\":4459:4466  o.state */\n      0x06\n      add\n      0x00\n      swap1\n      sload\n      swap1\n      0x0100\n      exp\n      swap1\n      div\n      0xff\n      and\n        /* \"new/MarketplaceEscrow_test/EscrowMarketplace.sol\":4437:4467  InvalidState(orderId, o.state) */\n      mload(0x40)\n      0x0a5889e500000000000000000000000000000000000000000000000000000000\n      dup2\n      mstore\n      0x04\n      add\n      tag_235\n      swap3\n      swap2\n      swap1\n      tag_144\n      jump\t// in\n    tag_235:\n      mload(0x40)\n      dup1\n      swap2\n      sub\n      swap1\n      revert\n        /* \"new/MarketplaceEscrow_test/EscrowMarketplace.sol\":4383:4478  if(o.state != OrderState.Created){... */\n    tag_234:\n        /* \"new/MarketplaceEscrow_test/EscrowMarketplace.sol\":4506:4526  OrderState.Cancelled */\n      0x06\n        /* \"new/MarketplaceEscrow_test/EscrowMarketplace.sol\":4496:4497  o */\n      dup2\n        /* \"new/MarketplaceEscrow_test/EscrowMarketplace.sol\":4496:4503  o.state */\n      0x06\n      add\n      0x00\n        /* \"new/MarketplaceEscrow_test/EscrowMarketplace.sol\":4496:4526  o.state = OrderState.Cancelled */\n      0x0100\n      exp\n      dup2\n      sload\n      dup2\n      0xff\n      mul\n      not\n      and\n      swap1\n      dup4\n      0x06\n      dup2\n      gt\n      iszero\n      tag_236\n      jumpi\n      tag_237\n      tag_134\n      jump\t// in\n    tag_237:\n    tag_236:\n      mul\n      or\n      swap1\n      sstore\n      pop\n        /* \"new/MarketplaceEscrow_test/EscrowMarketplace.sol\":4552:4559  orderId */\n      dup2\n        /* \"new/MarketplaceEscrow_test/EscrowMarketplace.sol\":4542:4560  Cancelled(orderId) */\n      0xc41d93b8bfbf9fd7cf5bfe271fd649ab6a6fec0ea101c23b82a2a28eca2533a9\n      mload(0x40)\n      mload(0x40)\n      dup1\n      swap2\n      sub\n      swap1\n      log2\n        /* \"new/MarketplaceEscrow_test/EscrowMarketplace.sol\":4242:4567  {... */\n      pop\n        /* \"new/MarketplaceEscrow_test/EscrowMarketplace.sol\":4192:4567  function cancelUnfunded(uint256 orderId) external {... */\n      pop\n      jump\t// out\n        /* \"new/MarketplaceEscrow_test/EscrowMarketplace.sol\":2477:3174  function createOrder(address _seller, bytes32 _detailHash) external returns (uint256 orderId) {... */\n    tag_71:\n        /* \"new/MarketplaceEscrow_test/EscrowMarketplace.sol\":2554:2569  uint256 orderId */\n      0x00\n        /* \"new/MarketplaceEscrow_test/EscrowMarketplace.sol\":2595:2605  msg.sender */\n      caller\n        /* \"new/MarketplaceEscrow_test/EscrowMarketplace.sol\":2584:2605  _seller == msg.sender */\n      0xffffffffffffffffffffffffffffffffffffffff\n      and\n        /* \"new/MarketplaceEscrow_test/EscrowMarketplace.sol\":2584:2591  _seller */\n      dup4\n        /* \"new/MarketplaceEscrow_test/EscrowMarketplace.sol\":2584:2605  _seller == msg.sender */\n      0xffffffffffffffffffffffffffffffffffffffff\n      and\n      sub\n        /* \"new/MarketplaceEscrow_test/EscrowMarketplace.sol\":2581:2640  if(_seller == msg.sender)... */\n      tag_239\n      jumpi\n        /* \"new/MarketplaceEscrow_test/EscrowMarketplace.sol\":2626:2640  Unauthorized() */\n      mload(0x40)\n      0x82b4290000000000000000000000000000000000000000000000000000000000\n      dup2\n      mstore\n      0x04\n      add\n      mload(0x40)\n      dup1\n      swap2\n      sub\n      swap1\n      revert\n        /* \"new/MarketplaceEscrow_test/EscrowMarketplace.sol\":2581:2640  if(_seller == msg.sender)... */\n    tag_239:\n        /* \"new/MarketplaceEscrow_test/EscrowMarketplace.sol\":2654:2677  hasRole(_seller,SELLER) */\n      tag_240\n        /* \"new/MarketplaceEscrow_test/EscrowMarketplace.sol\":2662:2669  _seller */\n      dup4\n        /* \"new/MarketplaceEscrow_test/AccessManager.sol\":316:317  2 */\n      0x02\n        /* \"new/MarketplaceEscrow_test/EscrowMarketplace.sol\":2654:2661  hasRole */\n      tag_90\n        /* \"new/MarketplaceEscrow_test/EscrowMarketplace.sol\":2654:2677  hasRole(_seller,SELLER) */\n      jump\t// in\n    tag_240:\n        /* \"new/MarketplaceEscrow_test/EscrowMarketplace.sol\":2650:2712  if(!hasRole(_seller,SELLER))... */\n      tag_241\n      jumpi\n        /* \"new/MarketplaceEscrow_test/EscrowMarketplace.sol\":2698:2712  Unauthorized() */\n      mload(0x40)\n      0x82b4290000000000000000000000000000000000000000000000000000000000\n      dup2\n      mstore\n      0x04\n      add\n      mload(0x40)\n      dup1\n      swap2\n      sub\n      swap1\n      revert\n        /* \"new/MarketplaceEscrow_test/EscrowMarketplace.sol\":2650:2712  if(!hasRole(_seller,SELLER))... */\n    tag_241:\n        /* \"new/MarketplaceEscrow_test/EscrowMarketplace.sol\":2741:2753  _nextOrderId */\n      0x02\n      0x00\n        /* \"new/MarketplaceEscrow_test/EscrowMarketplace.sol\":2741:2755  _nextOrderId++ */\n      dup2\n      sload\n      dup1\n      swap3\n      swap2\n      swap1\n      tag_242\n      swap1\n      tag_243\n      jump\t// in\n    tag_242:\n      swap2\n      swap1\n      pop\n      sstore\n        /* \"new/MarketplaceEscrow_test/EscrowMarketplace.sol\":2731:2755  orderId = _nextOrderId++ */\n      swap1\n      pop\n        /* \"new/MarketplaceEscrow_test/EscrowMarketplace.sol\":2785:3096  Order({... */\n      mload(0x40)\n      dup1\n      0xe0\n      add\n      0x40\n      mstore\n      dup1\n        /* \"new/MarketplaceEscrow_test/EscrowMarketplace.sol\":2818:2825  orderId */\n      dup3\n        /* \"new/MarketplaceEscrow_test/EscrowMarketplace.sol\":2785:3096  Order({... */\n      dup2\n      mstore\n      0x20\n      add\n        /* \"new/MarketplaceEscrow_test/EscrowMarketplace.sol\":2852:2862  msg.sender */\n      caller\n        /* \"new/MarketplaceEscrow_test/EscrowMarketplace.sol\":2785:3096  Order({... */\n      0xffffffffffffffffffffffffffffffffffffffff\n      and\n      dup2\n      mstore\n      0x20\n      add\n        /* \"new/MarketplaceEscrow_test/EscrowMarketplace.sol\":2889:2896  _seller */\n      dup5\n        /* \"new/MarketplaceEscrow_test/EscrowMarketplace.sol\":2785:3096  Order({... */\n      0xffffffffffffffffffffffffffffffffffffffff\n      and\n      dup2\n      mstore\n      0x20\n      add\n        /* \"new/MarketplaceEscrow_test/EscrowMarketplace.sol\":2923:2924  0 */\n      0x00\n        /* \"new/MarketplaceEscrow_test/EscrowMarketplace.sol\":2785:3096  Order({... */\n      dup2\n      mstore\n      0x20\n      add\n        /* \"new/MarketplaceEscrow_test/EscrowMarketplace.sol\":2951:2966  block.timestamp */\n      timestamp\n        /* \"new/MarketplaceEscrow_test/EscrowMarketplace.sol\":2785:3096  Order({... */\n      dup2\n      mstore\n      0x20\n      add\n        /* \"new/MarketplaceEscrow_test/EscrowMarketplace.sol\":2993:3004  _detailHash */\n      dup4\n        /* \"new/MarketplaceEscrow_test/EscrowMarketplace.sol\":2785:3096  Order({... */\n      dup2\n      mstore\n      0x20\n      add\n        /* \"new/MarketplaceEscrow_test/EscrowMarketplace.sol\":3067:3085  OrderState.Created */\n      0x00\n        /* \"new/MarketplaceEscrow_test/EscrowMarketplace.sol\":2785:3096  Order({... */\n      0x06\n      dup2\n      gt\n      iszero\n      tag_244\n      jumpi\n      tag_245\n      tag_134\n      jump\t// in\n    tag_245:\n    tag_244:\n      dup2\n      mstore\n      pop\n        /* \"new/MarketplaceEscrow_test/EscrowMarketplace.sol\":2766:2773  _orders */\n      0x04\n        /* \"new/MarketplaceEscrow_test/EscrowMarketplace.sol\":2766:2782  _orders[orderId] */\n      0x00\n        /* \"new/MarketplaceEscrow_test/EscrowMarketplace.sol\":2774:2781  orderId */\n      dup4\n        /* \"new/MarketplaceEscrow_test/EscrowMarketplace.sol\":2766:2782  _orders[orderId] */\n      dup2\n      mstore\n      0x20\n      add\n      swap1\n      dup2\n      mstore\n      0x20\n      add\n      0x00\n      keccak256\n        /* \"new/MarketplaceEscrow_test/EscrowMarketplace.sol\":2766:3096  _orders[orderId] = Order({... */\n      0x00\n      dup3\n      add\n      mload\n      dup2\n      0x00\n      add\n      sstore\n      0x20\n      dup3\n      add\n      mload\n      dup2\n      0x01\n      add\n      exp(0x0100, 0x00)\n      dup2\n      sload\n      dup2\n      0xffffffffffffffffffffffffffffffffffffffff\n      mul\n      not\n      and\n      swap1\n      dup4\n      0xffffffffffffffffffffffffffffffffffffffff\n      and\n      mul\n      or\n      swap1\n      sstore\n      pop\n      0x40\n      dup3\n      add\n      mload\n      dup2\n      0x02\n      add\n      exp(0x0100, 0x00)\n      dup2\n      sload\n      dup2\n      0xffffffffffffffffffffffffffffffffffffffff\n      mul\n      not\n      and\n      swap1\n      dup4\n      0xffffffffffffffffffffffffffffffffffffffff\n      and\n      mul\n      or\n      swap1\n      sstore\n      pop\n      0x60\n      dup3\n      add\n      mload\n      dup2\n      0x03\n      add\n      sstore\n      0x80\n      dup3\n      add\n      mload\n      dup2\n      0x04\n      add\n      sstore\n      0xa0\n      dup3\n      add\n      mload\n      dup2\n      0x05\n      add\n      sstore\n      0xc0\n      dup3\n      add\n      mload\n      dup2\n      0x06\n      add\n      exp(0x0100, 0x00)\n      dup2\n      sload\n      dup2\n      0xff\n      mul\n      not\n      and\n      swap1\n      dup4\n      0x06\n      dup2\n      gt\n      iszero\n      tag_246\n      jumpi\n      tag_247\n      tag_134\n      jump\t// in\n    tag_247:\n    tag_246:\n      mul\n      or\n      swap1\n      sstore\n      pop\n      swap1\n      pop\n      pop\n        /* \"new/MarketplaceEscrow_test/EscrowMarketplace.sol\":3146:3153  _seller */\n      dup3\n        /* \"new/MarketplaceEscrow_test/EscrowMarketplace.sol\":3112:3167  OrderCreated(orderId, msg.sender, _seller, _detailHash) */\n      0xffffffffffffffffffffffffffffffffffffffff\n      and\n        /* \"new/MarketplaceEscrow_test/EscrowMarketplace.sol\":3134:3144  msg.sender */\n      caller\n        /* \"new/MarketplaceEscrow_test/EscrowMarketplace.sol\":3112:3167  OrderCreated(orderId, msg.sender, _seller, _detailHash) */\n      0xffffffffffffffffffffffffffffffffffffffff\n      and\n        /* \"new/MarketplaceEscrow_test/EscrowMarketplace.sol\":3125:3132  orderId */\n      dup3\n        /* \"new/MarketplaceEscrow_test/EscrowMarketplace.sol\":3112:3167  OrderCreated(orderId, msg.sender, _seller, _detailHash) */\n      0x7de7bde3ca286d550a77f3d882ed0362f8a4d6200740c1cfcab9a661088c3609\n        /* \"new/MarketplaceEscrow_test/EscrowMarketplace.sol\":3155:3166  _detailHash */\n      dup6\n        /* \"new/MarketplaceEscrow_test/EscrowMarketplace.sol\":3112:3167  OrderCreated(orderId, msg.sender, _seller, _detailHash) */\n      mload(0x40)\n      tag_248\n      swap2\n      swap1\n      tag_249\n      jump\t// in\n    tag_248:\n      mload(0x40)\n      dup1\n      swap2\n      sub\n      swap1\n      log4\n        /* \"new/MarketplaceEscrow_test/EscrowMarketplace.sol\":2477:3174  function createOrder(address _seller, bytes32 _detailHash) external returns (uint256 orderId) {... */\n      swap3\n      swap2\n      pop\n      pop\n      jump\t// out\n        /* \"new/MarketplaceEscrow_test/EscrowMarketplace.sol\":589:623  Treasury public immutable treasury */\n    tag_75:\n      immutable(\"0x69e3c6522a2f8bf12e780ae53c30e69d48d224ea00c92026278c398148e8df91\")\n      dup2\n      jump\t// out\n        /* \"new/MarketplaceEscrow_test/EscrowMarketplace.sol\":629:658  IArbitrator public arbitrator */\n    tag_80:\n      0x01\n      0x00\n      swap1\n      sload\n      swap1\n      0x0100\n      exp\n      swap1\n      div\n      0xffffffffffffffffffffffffffffffffffffffff\n      and\n      dup2\n      jump\t// out\n        /* \"new/MarketplaceEscrow_test/EscrowMarketplace.sol\":6765:6999  function updateFee(uint256 newBps) external onlyRole(ADMIN) {... */\n    tag_86:\n        /* \"new/MarketplaceEscrow_test/AccessManager.sol\":276:277  1 */\n      0x01\n        /* \"new/MarketplaceEscrow_test/AccessManager.sol\":887:893  _roles */\n      0x00\n        /* \"new/MarketplaceEscrow_test/AccessManager.sol\":887:905  _roles[msg.sender] */\n      0x00\n        /* \"new/MarketplaceEscrow_test/AccessManager.sol\":894:904  msg.sender */\n      caller\n        /* \"new/MarketplaceEscrow_test/AccessManager.sol\":887:905  _roles[msg.sender] */\n      0xffffffffffffffffffffffffffffffffffffffff\n      and\n      0xffffffffffffffffffffffffffffffffffffffff\n      and\n      dup2\n      mstore\n      0x20\n      add\n      swap1\n      dup2\n      mstore\n      0x20\n      add\n      0x00\n      keccak256\n        /* \"new/MarketplaceEscrow_test/AccessManager.sol\":887:912  _roles[msg.sender][_role] */\n      0x00\n        /* \"new/MarketplaceEscrow_test/AccessManager.sol\":906:911  _role */\n      dup3\n        /* \"new/MarketplaceEscrow_test/AccessManager.sol\":887:912  _roles[msg.sender][_role] */\n      0xff\n      and\n      0xff\n      and\n      dup2\n      mstore\n      0x20\n      add\n      swap1\n      dup2\n      mstore\n      0x20\n      add\n      0x00\n      keccak256\n      0x00\n      swap1\n      sload\n      swap1\n      0x0100\n      exp\n      swap1\n      div\n      0xff\n      and\n        /* \"new/MarketplaceEscrow_test/AccessManager.sol\":881:960  if ( !_roles[msg.sender][_role]) {... */\n      tag_251\n      jumpi\n        /* \"new/MarketplaceEscrow_test/AccessManager.sol\":935:949  Unauthorized() */\n      mload(0x40)\n      0x82b4290000000000000000000000000000000000000000000000000000000000\n      dup2\n      mstore\n      0x04\n      add\n      mload(0x40)\n      dup1\n      swap2\n      sub\n      swap1\n      revert\n        /* \"new/MarketplaceEscrow_test/AccessManager.sol\":881:960  if ( !_roles[msg.sender][_role]) {... */\n    tag_251:\n        /* \"new/MarketplaceEscrow_test/EscrowMarketplace.sol\":945:948  500 */\n      0x01f4\n        /* \"new/MarketplaceEscrow_test/EscrowMarketplace.sol\":6839:6845  newBps */\n      dup3\n        /* \"new/MarketplaceEscrow_test/EscrowMarketplace.sol\":6839:6859  newBps > MAX_FEE_BPS */\n      gt\n        /* \"new/MarketplaceEscrow_test/EscrowMarketplace.sol\":6835:6925  if( newBps > MAX_FEE_BPS ) {... */\n      iszero\n      tag_253\n      jumpi\n        /* \"new/MarketplaceEscrow_test/EscrowMarketplace.sol\":6894:6900  newBps */\n      dup2\n        /* \"new/MarketplaceEscrow_test/EscrowMarketplace.sol\":945:948  500 */\n      0x01f4\n        /* \"new/MarketplaceEscrow_test/EscrowMarketplace.sol\":6883:6914  FeeTooHigh(newBps, MAX_FEE_BPS) */\n      mload(0x40)\n      0xe757126a00000000000000000000000000000000000000000000000000000000\n      dup2\n      mstore\n      0x04\n      add\n      tag_254\n      swap3\n      swap2\n      swap1\n      tag_172\n      jump\t// in\n    tag_254:\n      mload(0x40)\n      dup1\n      swap2\n      sub\n      swap1\n      revert\n        /* \"new/MarketplaceEscrow_test/EscrowMarketplace.sol\":6835:6925  if( newBps > MAX_FEE_BPS ) {... */\n    tag_253:\n        /* \"new/MarketplaceEscrow_test/EscrowMarketplace.sol\":6940:6966  FeeUpdated(feeBps, newBps) */\n      0x528d9479e9f9889a87a3c30c7f7ba537e5e59c4c85a37733b16e57c62df61302\n        /* \"new/MarketplaceEscrow_test/EscrowMarketplace.sol\":6951:6957  feeBps */\n      sload(0x05)\n        /* \"new/MarketplaceEscrow_test/EscrowMarketplace.sol\":6959:6965  newBps */\n      dup4\n        /* \"new/MarketplaceEscrow_test/EscrowMarketplace.sol\":6940:6966  FeeUpdated(feeBps, newBps) */\n      mload(0x40)\n      tag_255\n      swap3\n      swap2\n      swap1\n      tag_172\n      jump\t// in\n    tag_255:\n      mload(0x40)\n      dup1\n      swap2\n      sub\n      swap1\n      log1\n        /* \"new/MarketplaceEscrow_test/EscrowMarketplace.sol\":6986:6992  newBps */\n      dup2\n        /* \"new/MarketplaceEscrow_test/EscrowMarketplace.sol\":6977:6983  feeBps */\n      0x05\n        /* \"new/MarketplaceEscrow_test/EscrowMarketplace.sol\":6977:6992  feeBps = newBps */\n      dup2\n      swap1\n      sstore\n      pop\n        /* \"new/MarketplaceEscrow_test/EscrowMarketplace.sol\":6765:6999  function updateFee(uint256 newBps) external onlyRole(ADMIN) {... */\n      pop\n      pop\n      jump\t// out\n        /* \"new/MarketplaceEscrow_test/AccessManager.sol\":1767:1885  function hasRole(address account, uint8 role) public view returns (bool) {... */\n    tag_90:\n        /* \"new/MarketplaceEscrow_test/AccessManager.sol\":1834:1838  bool */\n      0x00\n        /* \"new/MarketplaceEscrow_test/AccessManager.sol\":1857:1863  _roles */\n      0x00\n        /* \"new/MarketplaceEscrow_test/AccessManager.sol\":1857:1872  _roles[account] */\n      0x00\n        /* \"new/MarketplaceEscrow_test/AccessManager.sol\":1864:1871  account */\n      dup5\n        /* \"new/MarketplaceEscrow_test/AccessManager.sol\":1857:1872  _roles[account] */\n      0xffffffffffffffffffffffffffffffffffffffff\n      and\n      0xffffffffffffffffffffffffffffffffffffffff\n      and\n      dup2\n      mstore\n      0x20\n      add\n      swap1\n      dup2\n      mstore\n      0x20\n      add\n      0x00\n      keccak256\n        /* \"new/MarketplaceEscrow_test/AccessManager.sol\":1857:1878  _roles[account][role] */\n      0x00\n        /* \"new/MarketplaceEscrow_test/AccessManager.sol\":1873:1877  role */\n      dup4\n        /* \"new/MarketplaceEscrow_test/AccessManager.sol\":1857:1878  _roles[account][role] */\n      0xff\n      and\n      0xff\n      and\n      dup2\n      mstore\n      0x20\n      add\n      swap1\n      dup2\n      mstore\n      0x20\n      add\n      0x00\n      keccak256\n      0x00\n      swap1\n      sload\n      swap1\n      0x0100\n      exp\n      swap1\n      div\n      0xff\n      and\n        /* \"new/MarketplaceEscrow_test/AccessManager.sol\":1850:1878  return _roles[account][role] */\n      swap1\n      pop\n        /* \"new/MarketplaceEscrow_test/AccessManager.sol\":1767:1885  function hasRole(address account, uint8 role) public view returns (bool) {... */\n      swap3\n      swap2\n      pop\n      pop\n      jump\t// out\n        /* \"new/MarketplaceEscrow_test/EscrowMarketplace.sol\":7005:7290  function setArbitrator(address newArbitrator) external onlyRole(ADMIN) {... */\n    tag_97:\n        /* \"new/MarketplaceEscrow_test/AccessManager.sol\":276:277  1 */\n      0x01\n        /* \"new/MarketplaceEscrow_test/AccessManager.sol\":887:893  _roles */\n      0x00\n        /* \"new/MarketplaceEscrow_test/AccessManager.sol\":887:905  _roles[msg.sender] */\n      0x00\n        /* \"new/MarketplaceEscrow_test/AccessManager.sol\":894:904  msg.sender */\n      caller\n        /* \"new/MarketplaceEscrow_test/AccessManager.sol\":887:905  _roles[msg.sender] */\n      0xffffffffffffffffffffffffffffffffffffffff\n      and\n      0xffffffffffffffffffffffffffffffffffffffff\n      and\n      dup2\n      mstore\n      0x20\n      add\n      swap1\n      dup2\n      mstore\n      0x20\n      add\n      0x00\n      keccak256\n        /* \"new/MarketplaceEscrow_test/AccessManager.sol\":887:912  _roles[msg.sender][_role] */\n      0x00\n        /* \"new/MarketplaceEscrow_test/AccessManager.sol\":906:911  _role */\n      dup3\n        /* \"new/MarketplaceEscrow_test/AccessManager.sol\":887:912  _roles[msg.sender][_role] */\n      0xff\n      and\n      0xff\n      and\n      dup2\n      mstore\n      0x20\n      add\n      swap1\n      dup2\n      mstore\n      0x20\n      add\n      0x00\n      keccak256\n      0x00\n      swap1\n      sload\n      swap1\n      0x0100\n      exp\n      swap1\n      div\n      0xff\n      and\n        /* \"new/MarketplaceEscrow_test/AccessManager.sol\":881:960  if ( !_roles[msg.sender][_role]) {... */\n      tag_258\n      jumpi\n        /* \"new/MarketplaceEscrow_test/AccessManager.sol\":935:949  Unauthorized() */\n      mload(0x40)\n      0x82b4290000000000000000000000000000000000000000000000000000000000\n      dup2\n      mstore\n      0x04\n      add\n      mload(0x40)\n      dup1\n      swap2\n      sub\n      swap1\n      revert\n        /* \"new/MarketplaceEscrow_test/AccessManager.sol\":881:960  if ( !_roles[msg.sender][_role]) {... */\n    tag_258:\n        /* \"new/MarketplaceEscrow_test/EscrowMarketplace.sol\":7115:7116  0 */\n      0x00\n        /* \"new/MarketplaceEscrow_test/EscrowMarketplace.sol\":7090:7117  newArbitrator == address(0) */\n      0xffffffffffffffffffffffffffffffffffffffff\n      and\n        /* \"new/MarketplaceEscrow_test/EscrowMarketplace.sol\":7090:7103  newArbitrator */\n      dup3\n        /* \"new/MarketplaceEscrow_test/EscrowMarketplace.sol\":7090:7117  newArbitrator == address(0) */\n      0xffffffffffffffffffffffffffffffffffffffff\n      and\n      sub\n        /* \"new/MarketplaceEscrow_test/EscrowMarketplace.sol\":7086:7165  if( newArbitrator == address(0) ) {... */\n      tag_260\n      jumpi\n        /* \"new/MarketplaceEscrow_test/EscrowMarketplace.sol\":7141:7154  ZeroAddress() */\n      mload(0x40)\n      0xd92e233d00000000000000000000000000000000000000000000000000000000\n      dup2\n      mstore\n      0x04\n      add\n      mload(0x40)\n      dup1\n      swap2\n      sub\n      swap1\n      revert\n        /* \"new/MarketplaceEscrow_test/EscrowMarketplace.sol\":7086:7165  if( newArbitrator == address(0) ) {... */\n    tag_260:\n        /* \"new/MarketplaceEscrow_test/EscrowMarketplace.sol\":7180:7233  ArbitratorUpdated(address(arbitrator), newArbitrator) */\n      0x0a4eb09e14cf0b6177b79042a04365517d9b189a50ec69eaabc40a6440103c90\n        /* \"new/MarketplaceEscrow_test/EscrowMarketplace.sol\":7206:7216  arbitrator */\n      0x01\n      0x00\n      swap1\n      sload\n      swap1\n      0x0100\n      exp\n      swap1\n      div\n      0xffffffffffffffffffffffffffffffffffffffff\n      and\n        /* \"new/MarketplaceEscrow_test/EscrowMarketplace.sol\":7219:7232  newArbitrator */\n      dup4\n        /* \"new/MarketplaceEscrow_test/EscrowMarketplace.sol\":7180:7233  ArbitratorUpdated(address(arbitrator), newArbitrator) */\n      mload(0x40)\n      tag_261\n      swap3\n      swap2\n      swap1\n      tag_262\n      jump\t// in\n    tag_261:\n      mload(0x40)\n      dup1\n      swap2\n      sub\n      swap1\n      log1\n        /* \"new/MarketplaceEscrow_test/EscrowMarketplace.sol\":7269:7282  newArbitrator */\n      dup2\n        /* \"new/MarketplaceEscrow_test/EscrowMarketplace.sol\":7244:7254  arbitrator */\n      0x01\n      0x00\n        /* \"new/MarketplaceEscrow_test/EscrowMarketplace.sol\":7244:7283  arbitrator = IArbitrator(newArbitrator) */\n      0x0100\n      exp\n      dup2\n      sload\n      dup2\n      0xffffffffffffffffffffffffffffffffffffffff\n      mul\n      not\n      and\n      swap1\n      dup4\n      0xffffffffffffffffffffffffffffffffffffffff\n      and\n      mul\n      or\n      swap1\n      sstore\n      pop\n        /* \"new/MarketplaceEscrow_test/EscrowMarketplace.sol\":7005:7290  function setArbitrator(address newArbitrator) external onlyRole(ADMIN) {... */\n      pop\n      pop\n      jump\t// out\n        /* \"new/MarketplaceEscrow_test/AccessManager.sol\":323:357  uint8 public constant MEDIATOR = 3 */\n    tag_100:\n        /* \"new/MarketplaceEscrow_test/AccessManager.sol\":356:357  3 */\n      0x03\n        /* \"new/MarketplaceEscrow_test/AccessManager.sol\":323:357  uint8 public constant MEDIATOR = 3 */\n      dup2\n      jump\t// out\n        /* \"new/MarketplaceEscrow_test/EscrowMarketplace.sol\":3180:3648  function fundOrder(uint256 orderId) payable external nonReentrant {... */\n    tag_104:\n        /* \"new/MarketplaceEscrow_test/EscrowMarketplace.sol\":1962:1969  _locked */\n      0x03\n      0x00\n      swap1\n      sload\n      swap1\n      0x0100\n      exp\n      swap1\n      div\n      0xff\n      and\n        /* \"new/MarketplaceEscrow_test/EscrowMarketplace.sol\":1959:2017  if(_locked) {... */\n      iszero\n      tag_264\n      jumpi\n        /* \"new/MarketplaceEscrow_test/EscrowMarketplace.sol\":1992:2006  NonReentrant() */\n      mload(0x40)\n      0x9396d15600000000000000000000000000000000000000000000000000000000\n      dup2\n      mstore\n      0x04\n      add\n      mload(0x40)\n      dup1\n      swap2\n      sub\n      swap1\n      revert\n        /* \"new/MarketplaceEscrow_test/EscrowMarketplace.sol\":1959:2017  if(_locked) {... */\n    tag_264:\n        /* \"new/MarketplaceEscrow_test/EscrowMarketplace.sol\":2037:2041  true */\n      0x01\n        /* \"new/MarketplaceEscrow_test/EscrowMarketplace.sol\":2027:2034  _locked */\n      0x03\n      0x00\n        /* \"new/MarketplaceEscrow_test/EscrowMarketplace.sol\":2027:2041  _locked = true */\n      0x0100\n      exp\n      dup2\n      sload\n      dup2\n      0xff\n      mul\n      not\n      and\n      swap1\n      dup4\n      iszero\n      iszero\n      mul\n      or\n      swap1\n      sstore\n      pop\n        /* \"new/MarketplaceEscrow_test/EscrowMarketplace.sol\":3256:3271  Order storage o */\n      0x00\n        /* \"new/MarketplaceEscrow_test/EscrowMarketplace.sol\":3274:3281  _orders */\n      0x04\n        /* \"new/MarketplaceEscrow_test/EscrowMarketplace.sol\":3274:3290  _orders[orderId] */\n      0x00\n        /* \"new/MarketplaceEscrow_test/EscrowMarketplace.sol\":3282:3289  orderId */\n      dup4\n        /* \"new/MarketplaceEscrow_test/EscrowMarketplace.sol\":3274:3290  _orders[orderId] */\n      dup2\n      mstore\n      0x20\n      add\n      swap1\n      dup2\n      mstore\n      0x20\n      add\n      0x00\n      keccak256\n        /* \"new/MarketplaceEscrow_test/EscrowMarketplace.sol\":3256:3290  Order storage o = _orders[orderId] */\n      swap1\n      pop\n        /* \"new/MarketplaceEscrow_test/EscrowMarketplace.sol\":3317:3327  msg.sender */\n      caller\n        /* \"new/MarketplaceEscrow_test/EscrowMarketplace.sol\":3306:3327  o.buyer != msg.sender */\n      0xffffffffffffffffffffffffffffffffffffffff\n      and\n        /* \"new/MarketplaceEscrow_test/EscrowMarketplace.sol\":3306:3307  o */\n      dup2\n        /* \"new/MarketplaceEscrow_test/EscrowMarketplace.sol\":3306:3313  o.buyer */\n      0x01\n      add\n      0x00\n      swap1\n      sload\n      swap1\n      0x0100\n      exp\n      swap1\n      div\n      0xffffffffffffffffffffffffffffffffffffffff\n      and\n        /* \"new/MarketplaceEscrow_test/EscrowMarketplace.sol\":3306:3327  o.buyer != msg.sender */\n      0xffffffffffffffffffffffffffffffffffffffff\n      and\n      eq\n        /* \"new/MarketplaceEscrow_test/EscrowMarketplace.sol\":3301:3367  if ( o.buyer != msg.sender ) ... */\n      tag_266\n      jumpi\n        /* \"new/MarketplaceEscrow_test/EscrowMarketplace.sol\":3359:3366  orderId */\n      dup2\n        /* \"new/MarketplaceEscrow_test/EscrowMarketplace.sol\":3350:3367  NotBuyer(orderId) */\n      mload(0x40)\n      0x09b4c33d00000000000000000000000000000000000000000000000000000000\n      dup2\n      mstore\n      0x04\n      add\n      tag_267\n      swap2\n      swap1\n      tag_35\n      jump\t// in\n    tag_267:\n      mload(0x40)\n      dup1\n      swap2\n      sub\n      swap1\n      revert\n        /* \"new/MarketplaceEscrow_test/EscrowMarketplace.sol\":3301:3367  if ( o.buyer != msg.sender ) ... */\n    tag_266:\n        /* \"new/MarketplaceEscrow_test/EscrowMarketplace.sol\":3393:3411  OrderState.Created */\n      0x00\n        /* \"new/MarketplaceEscrow_test/EscrowMarketplace.sol\":3382:3411  o.state != OrderState.Created */\n      0x06\n      dup2\n      gt\n      iszero\n      tag_268\n      jumpi\n      tag_269\n      tag_134\n      jump\t// in\n    tag_269:\n    tag_268:\n        /* \"new/MarketplaceEscrow_test/EscrowMarketplace.sol\":3382:3383  o */\n      dup2\n        /* \"new/MarketplaceEscrow_test/EscrowMarketplace.sol\":3382:3389  o.state */\n      0x06\n      add\n      0x00\n      swap1\n      sload\n      swap1\n      0x0100\n      exp\n      swap1\n      div\n      0xff\n      and\n        /* \"new/MarketplaceEscrow_test/EscrowMarketplace.sol\":3382:3411  o.state != OrderState.Created */\n      0x06\n      dup2\n      gt\n      iszero\n      tag_270\n      jumpi\n      tag_271\n      tag_134\n      jump\t// in\n    tag_271:\n    tag_270:\n      eq\n        /* \"new/MarketplaceEscrow_test/EscrowMarketplace.sol\":3377:3463  if ( o.state != OrderState.Created )... */\n      tag_272\n      jumpi\n        /* \"new/MarketplaceEscrow_test/EscrowMarketplace.sol\":3446:3453  orderId */\n      dup2\n        /* \"new/MarketplaceEscrow_test/EscrowMarketplace.sol\":3455:3456  o */\n      dup2\n        /* \"new/MarketplaceEscrow_test/EscrowMarketplace.sol\":3455:3462  o.state */\n      0x06\n      add\n      0x00\n      swap1\n      sload\n      swap1\n      0x0100\n      exp\n      swap1\n      div\n      0xff\n      and\n        /* \"new/MarketplaceEscrow_test/EscrowMarketplace.sol\":3433:3463  InvalidState(orderId, o.state) */\n      mload(0x40)\n      0x0a5889e500000000000000000000000000000000000000000000000000000000\n      dup2\n      mstore\n      0x04\n      add\n      tag_273\n      swap3\n      swap2\n      swap1\n      tag_144\n      jump\t// in\n    tag_273:\n      mload(0x40)\n      dup1\n      swap2\n      sub\n      swap1\n      revert\n        /* \"new/MarketplaceEscrow_test/EscrowMarketplace.sol\":3377:3463  if ( o.state != OrderState.Created )... */\n    tag_272:\n        /* \"new/MarketplaceEscrow_test/EscrowMarketplace.sol\":3490:3491  0 */\n      0x00\n        /* \"new/MarketplaceEscrow_test/EscrowMarketplace.sol\":3477:3486  msg.value */\n      callvalue\n        /* \"new/MarketplaceEscrow_test/EscrowMarketplace.sol\":3477:3491  msg.value == 0 */\n      sub\n        /* \"new/MarketplaceEscrow_test/EscrowMarketplace.sol\":3473:3525  if( msg.value == 0 )... */\n      tag_274\n      jumpi\n        /* \"new/MarketplaceEscrow_test/EscrowMarketplace.sol\":3513:3525  ZeroAmount() */\n      mload(0x40)\n      0x1f2a200500000000000000000000000000000000000000000000000000000000\n      dup2\n      mstore\n      0x04\n      add\n      mload(0x40)\n      dup1\n      swap2\n      sub\n      swap1\n      revert\n        /* \"new/MarketplaceEscrow_test/EscrowMarketplace.sol\":3473:3525  if( msg.value == 0 )... */\n    tag_274:\n        /* \"new/MarketplaceEscrow_test/EscrowMarketplace.sol\":3547:3556  msg.value */\n      callvalue\n        /* \"new/MarketplaceEscrow_test/EscrowMarketplace.sol\":3536:3537  o */\n      dup2\n        /* \"new/MarketplaceEscrow_test/EscrowMarketplace.sol\":3536:3544  o.amount */\n      0x03\n      add\n        /* \"new/MarketplaceEscrow_test/EscrowMarketplace.sol\":3536:3556  o.amount = msg.value */\n      dup2\n      swap1\n      sstore\n      pop\n        /* \"new/MarketplaceEscrow_test/EscrowMarketplace.sol\":3576:3593  OrderState.Funded */\n      0x01\n        /* \"new/MarketplaceEscrow_test/EscrowMarketplace.sol\":3566:3567  o */\n      dup2\n        /* \"new/MarketplaceEscrow_test/EscrowMarketplace.sol\":3566:3573  o.state */\n      0x06\n      add\n      0x00\n        /* \"new/MarketplaceEscrow_test/EscrowMarketplace.sol\":3566:3593  o.state = OrderState.Funded */\n      0x0100\n      exp\n      dup2\n      sload\n      dup2\n      0xff\n      mul\n      not\n      and\n      swap1\n      dup4\n      0x06\n      dup2\n      gt\n      iszero\n      tag_275\n      jumpi\n      tag_276\n      tag_134\n      jump\t// in\n    tag_276:\n    tag_275:\n      mul\n      or\n      swap1\n      sstore\n      pop\n        /* \"new/MarketplaceEscrow_test/EscrowMarketplace.sol\":3621:3628  orderId */\n      dup2\n        /* \"new/MarketplaceEscrow_test/EscrowMarketplace.sol\":3609:3640  OrderFunded(orderId, msg.value) */\n      0x86441ec7b38b2d00ecf92f8283f1303d21d33149d841dc49c80f1bde8f7c3886\n        /* \"new/MarketplaceEscrow_test/EscrowMarketplace.sol\":3630:3639  msg.value */\n      callvalue\n        /* \"new/MarketplaceEscrow_test/EscrowMarketplace.sol\":3609:3640  OrderFunded(orderId, msg.value) */\n      mload(0x40)\n      tag_277\n      swap2\n      swap1\n      tag_35\n      jump\t// in\n    tag_277:\n      mload(0x40)\n      dup1\n      swap2\n      sub\n      swap1\n      log2\n        /* \"new/MarketplaceEscrow_test/EscrowMarketplace.sol\":3246:3648  {... */\n      pop\n        /* \"new/MarketplaceEscrow_test/EscrowMarketplace.sol\":2072:2077  false */\n      0x00\n        /* \"new/MarketplaceEscrow_test/EscrowMarketplace.sol\":2062:2069  _locked */\n      0x03\n      0x00\n        /* \"new/MarketplaceEscrow_test/EscrowMarketplace.sol\":2062:2077  _locked = false */\n      0x0100\n      exp\n      dup2\n      sload\n      dup2\n      0xff\n      mul\n      not\n      and\n      swap1\n      dup4\n      iszero\n      iszero\n      mul\n      or\n      swap1\n      sstore\n      pop\n        /* \"new/MarketplaceEscrow_test/EscrowMarketplace.sol\":3180:3648  function fundOrder(uint256 orderId) payable external nonReentrant {... */\n      pop\n      jump\t// out\n        /* \"new/MarketplaceEscrow_test/AccessManager.sol\":283:317  uint8 public constant SELLER   = 2 */\n    tag_107:\n        /* \"new/MarketplaceEscrow_test/AccessManager.sol\":316:317  2 */\n      0x02\n        /* \"new/MarketplaceEscrow_test/AccessManager.sol\":283:317  uint8 public constant SELLER   = 2 */\n      dup2\n      jump\t// out\n        /* \"new/MarketplaceEscrow_test/EscrowMarketplace.sol\":7296:7410  function getOrder(uint256 orderId) external view returns (Order memory) {... */\n    tag_112:\n        /* \"new/MarketplaceEscrow_test/EscrowMarketplace.sol\":7354:7366  Order memory */\n      tag_278\n      tag_279\n      jump\t// in\n    tag_278:\n        /* \"new/MarketplaceEscrow_test/EscrowMarketplace.sol\":7385:7403  _getOrder(orderId) */\n      tag_281\n        /* \"new/MarketplaceEscrow_test/EscrowMarketplace.sol\":7395:7402  orderId */\n      dup3\n        /* \"new/MarketplaceEscrow_test/EscrowMarketplace.sol\":7385:7394  _getOrder */\n      tag_129\n        /* \"new/MarketplaceEscrow_test/EscrowMarketplace.sol\":7385:7403  _getOrder(orderId) */\n      jump\t// in\n    tag_281:\n        /* \"new/MarketplaceEscrow_test/EscrowMarketplace.sol\":7378:7403  return _getOrder(orderId) */\n      mload(0x40)\n      dup1\n      0xe0\n      add\n      0x40\n      mstore\n      swap1\n      dup2\n      0x00\n      dup3\n      add\n      sload\n      dup2\n      mstore\n      0x20\n      add\n      0x01\n      dup3\n      add\n      0x00\n      swap1\n      sload\n      swap1\n      0x0100\n      exp\n      swap1\n      div\n      0xffffffffffffffffffffffffffffffffffffffff\n      and\n      0xffffffffffffffffffffffffffffffffffffffff\n      and\n      0xffffffffffffffffffffffffffffffffffffffff\n      and\n      dup2\n      mstore\n      0x20\n      add\n      0x02\n      dup3\n      add\n      0x00\n      swap1\n      sload\n      swap1\n      0x0100\n      exp\n      swap1\n      div\n      0xffffffffffffffffffffffffffffffffffffffff\n      and\n      0xffffffffffffffffffffffffffffffffffffffff\n      and\n      0xffffffffffffffffffffffffffffffffffffffff\n      and\n      dup2\n      mstore\n      0x20\n      add\n      0x03\n      dup3\n      add\n      sload\n      dup2\n      mstore\n      0x20\n      add\n      0x04\n      dup3\n      add\n      sload\n      dup2\n      mstore\n      0x20\n      add\n      0x05\n      dup3\n      add\n      sload\n      dup2\n      mstore\n      0x20\n      add\n      0x06\n      dup3\n      add\n      0x00\n      swap1\n      sload\n      swap1\n      0x0100\n      exp\n      swap1\n      div\n      0xff\n      and\n      0x06\n      dup2\n      gt\n      iszero\n      tag_282\n      jumpi\n      tag_283\n      tag_134\n      jump\t// in\n    tag_283:\n    tag_282:\n      0x06\n      dup2\n      gt\n      iszero\n      tag_284\n      jumpi\n      tag_285\n      tag_134\n      jump\t// in\n    tag_285:\n    tag_284:\n      dup2\n      mstore\n      pop\n      pop\n      swap1\n      pop\n        /* \"new/MarketplaceEscrow_test/EscrowMarketplace.sol\":7296:7410  function getOrder(uint256 orderId) external view returns (Order memory) {... */\n      swap2\n      swap1\n      pop\n      jump\t// out\n        /* \"new/MarketplaceEscrow_test/EscrowMarketplace.sol\":907:948  uint256 public constant MAX_FEE_BPS = 500 */\n    tag_117:\n        /* \"new/MarketplaceEscrow_test/EscrowMarketplace.sol\":945:948  500 */\n      0x01f4\n        /* \"new/MarketplaceEscrow_test/EscrowMarketplace.sol\":907:948  uint256 public constant MAX_FEE_BPS = 500 */\n      dup2\n      jump\t// out\n        /* \"new/MarketplaceEscrow_test/EscrowMarketplace.sol\":4592:4943  function markShipped(uint256 orderId) external {... */\n    tag_122:\n        /* \"new/MarketplaceEscrow_test/EscrowMarketplace.sol\":4649:4664  Order storage o */\n      0x00\n        /* \"new/MarketplaceEscrow_test/EscrowMarketplace.sol\":4667:4685  _getOrder(orderId) */\n      tag_287\n        /* \"new/MarketplaceEscrow_test/EscrowMarketplace.sol\":4677:4684  orderId */\n      dup3\n        /* \"new/MarketplaceEscrow_test/EscrowMarketplace.sol\":4667:4676  _getOrder */\n      tag_129\n        /* \"new/MarketplaceEscrow_test/EscrowMarketplace.sol\":4667:4685  _getOrder(orderId) */\n      jump\t// in\n    tag_287:\n        /* \"new/MarketplaceEscrow_test/EscrowMarketplace.sol\":4649:4685  Order storage o = _getOrder(orderId) */\n      swap1\n      pop\n        /* \"new/MarketplaceEscrow_test/EscrowMarketplace.sol\":4714:4715  o */\n      dup1\n        /* \"new/MarketplaceEscrow_test/EscrowMarketplace.sol\":4714:4722  o.seller */\n      0x02\n      add\n      0x00\n      swap1\n      sload\n      swap1\n      0x0100\n      exp\n      swap1\n      div\n      0xffffffffffffffffffffffffffffffffffffffff\n      and\n        /* \"new/MarketplaceEscrow_test/EscrowMarketplace.sol\":4700:4722  msg.sender != o.seller */\n      0xffffffffffffffffffffffffffffffffffffffff\n      and\n        /* \"new/MarketplaceEscrow_test/EscrowMarketplace.sol\":4700:4710  msg.sender */\n      caller\n        /* \"new/MarketplaceEscrow_test/EscrowMarketplace.sol\":4700:4722  msg.sender != o.seller */\n      0xffffffffffffffffffffffffffffffffffffffff\n      and\n      eq\n        /* \"new/MarketplaceEscrow_test/EscrowMarketplace.sol\":4696:4766  if( msg.sender != o.seller)     ... */\n      tag_288\n      jumpi\n        /* \"new/MarketplaceEscrow_test/EscrowMarketplace.sol\":4758:4765  orderId */\n      dup2\n        /* \"new/MarketplaceEscrow_test/EscrowMarketplace.sol\":4748:4766  NotSeller(orderId) */\n      mload(0x40)\n      0xa7e6777800000000000000000000000000000000000000000000000000000000\n      dup2\n      mstore\n      0x04\n      add\n      tag_289\n      swap2\n      swap1\n      tag_35\n      jump\t// in\n    tag_289:\n      mload(0x40)\n      dup1\n      swap2\n      sub\n      swap1\n      revert\n        /* \"new/MarketplaceEscrow_test/EscrowMarketplace.sol\":4696:4766  if( msg.sender != o.seller)     ... */\n    tag_288:\n        /* \"new/MarketplaceEscrow_test/EscrowMarketplace.sol\":4791:4808  OrderState.Funded */\n      0x01\n        /* \"new/MarketplaceEscrow_test/EscrowMarketplace.sol\":4780:4808  o.state != OrderState.Funded */\n      0x06\n      dup2\n      gt\n      iszero\n      tag_290\n      jumpi\n      tag_291\n      tag_134\n      jump\t// in\n    tag_291:\n    tag_290:\n        /* \"new/MarketplaceEscrow_test/EscrowMarketplace.sol\":4780:4781  o */\n      dup2\n        /* \"new/MarketplaceEscrow_test/EscrowMarketplace.sol\":4780:4787  o.state */\n      0x06\n      add\n      0x00\n      swap1\n      sload\n      swap1\n      0x0100\n      exp\n      swap1\n      div\n      0xff\n      and\n        /* \"new/MarketplaceEscrow_test/EscrowMarketplace.sol\":4780:4808  o.state != OrderState.Funded */\n      0x06\n      dup2\n      gt\n      iszero\n      tag_292\n      jumpi\n      tag_293\n      tag_134\n      jump\t// in\n    tag_293:\n    tag_292:\n      eq\n        /* \"new/MarketplaceEscrow_test/EscrowMarketplace.sol\":4776:4859  if( o.state != OrderState.Funded)... */\n      tag_294\n      jumpi\n        /* \"new/MarketplaceEscrow_test/EscrowMarketplace.sol\":4842:4849  orderId */\n      dup2\n        /* \"new/MarketplaceEscrow_test/EscrowMarketplace.sol\":4851:4852  o */\n      dup2\n        /* \"new/MarketplaceEscrow_test/EscrowMarketplace.sol\":4851:4858  o.state */\n      0x06\n      add\n      0x00\n      swap1\n      sload\n      swap1\n      0x0100\n      exp\n      swap1\n      div\n      0xff\n      and\n        /* \"new/MarketplaceEscrow_test/EscrowMarketplace.sol\":4829:4859  InvalidState(orderId, o.state) */\n      mload(0x40)\n      0x0a5889e500000000000000000000000000000000000000000000000000000000\n      dup2\n      mstore\n      0x04\n      add\n      tag_295\n      swap3\n      swap2\n      swap1\n      tag_144\n      jump\t// in\n    tag_295:\n      mload(0x40)\n      dup1\n      swap2\n      sub\n      swap1\n      revert\n        /* \"new/MarketplaceEscrow_test/EscrowMarketplace.sol\":4776:4859  if( o.state != OrderState.Funded)... */\n    tag_294:\n        /* \"new/MarketplaceEscrow_test/EscrowMarketplace.sol\":4880:4898  OrderState.Shipped */\n      0x02\n        /* \"new/MarketplaceEscrow_test/EscrowMarketplace.sol\":4870:4871  o */\n      dup2\n        /* \"new/MarketplaceEscrow_test/EscrowMarketplace.sol\":4870:4877  o.state */\n      0x06\n      add\n      0x00\n        /* \"new/MarketplaceEscrow_test/EscrowMarketplace.sol\":4870:4898  o.state = OrderState.Shipped */\n      0x0100\n      exp\n      dup2\n      sload\n      dup2\n      0xff\n      mul\n      not\n      and\n      swap1\n      dup4\n      0x06\n      dup2\n      gt\n      iszero\n      tag_296\n      jumpi\n      tag_297\n      tag_134\n      jump\t// in\n    tag_297:\n    tag_296:\n      mul\n      or\n      swap1\n      sstore\n      pop\n        /* \"new/MarketplaceEscrow_test/EscrowMarketplace.sol\":4927:4934  orderId */\n      dup2\n        /* \"new/MarketplaceEscrow_test/EscrowMarketplace.sol\":4914:4935  OrderShipped(orderId) */\n      0xe3ce5f36666aec295b2ed1a858caf4782066e5e8c1a5a5da7ba6551b14fcfdcb\n      mload(0x40)\n      mload(0x40)\n      dup1\n      swap2\n      sub\n      swap1\n      log2\n        /* \"new/MarketplaceEscrow_test/EscrowMarketplace.sol\":4639:4943  {... */\n      pop\n        /* \"new/MarketplaceEscrow_test/EscrowMarketplace.sol\":4592:4943  function markShipped(uint256 orderId) external {... */\n      pop\n      jump\t// out\n        /* \"new/MarketplaceEscrow_test/EscrowMarketplace.sol\":7416:7639  function _getOrder(uint256 orderId) internal view returns (Order storage) {... */\n    tag_129:\n        /* \"new/MarketplaceEscrow_test/EscrowMarketplace.sol\":7475:7488  Order storage */\n      0x00\n        /* \"new/MarketplaceEscrow_test/EscrowMarketplace.sol\":7500:7515  Order storage o */\n      0x00\n        /* \"new/MarketplaceEscrow_test/EscrowMarketplace.sol\":7518:7525  _orders */\n      0x04\n        /* \"new/MarketplaceEscrow_test/EscrowMarketplace.sol\":7518:7534  _orders[orderId] */\n      0x00\n        /* \"new/MarketplaceEscrow_test/EscrowMarketplace.sol\":7526:7533  orderId */\n      dup5\n        /* \"new/MarketplaceEscrow_test/EscrowMarketplace.sol\":7518:7534  _orders[orderId] */\n      dup2\n      mstore\n      0x20\n      add\n      swap1\n      dup2\n      mstore\n      0x20\n      add\n      0x00\n      keccak256\n        /* \"new/MarketplaceEscrow_test/EscrowMarketplace.sol\":7500:7534  Order storage o = _orders[orderId] */\n      swap1\n      pop\n        /* \"new/MarketplaceEscrow_test/EscrowMarketplace.sol\":7567:7568  0 */\n      0x00\n        /* \"new/MarketplaceEscrow_test/EscrowMarketplace.sol\":7548:7569  o.buyer == address(0) */\n      0xffffffffffffffffffffffffffffffffffffffff\n      and\n        /* \"new/MarketplaceEscrow_test/EscrowMarketplace.sol\":7548:7549  o */\n      dup2\n        /* \"new/MarketplaceEscrow_test/EscrowMarketplace.sol\":7548:7555  o.buyer */\n      0x01\n      add\n      0x00\n      swap1\n      sload\n      swap1\n      0x0100\n      exp\n      swap1\n      div\n      0xffffffffffffffffffffffffffffffffffffffff\n      and\n        /* \"new/MarketplaceEscrow_test/EscrowMarketplace.sol\":7548:7569  o.buyer == address(0) */\n      0xffffffffffffffffffffffffffffffffffffffff\n      and\n      sub\n        /* \"new/MarketplaceEscrow_test/EscrowMarketplace.sol\":7544:7614  if( o.buyer == address(0) ) ... */\n      tag_299\n      jumpi\n        /* \"new/MarketplaceEscrow_test/EscrowMarketplace.sol\":7606:7613  orderId */\n      dup3\n        /* \"new/MarketplaceEscrow_test/EscrowMarketplace.sol\":7592:7614  OrderNotFound(orderId) */\n      mload(0x40)\n      0x4e90badc00000000000000000000000000000000000000000000000000000000\n      dup2\n      mstore\n      0x04\n      add\n      tag_300\n      swap2\n      swap1\n      tag_35\n      jump\t// in\n    tag_300:\n      mload(0x40)\n      dup1\n      swap2\n      sub\n      swap1\n      revert\n        /* \"new/MarketplaceEscrow_test/EscrowMarketplace.sol\":7544:7614  if( o.buyer == address(0) ) ... */\n    tag_299:\n        /* \"new/MarketplaceEscrow_test/EscrowMarketplace.sol\":7631:7632  o */\n      dup1\n        /* \"new/MarketplaceEscrow_test/EscrowMarketplace.sol\":7624:7632  return o */\n      swap2\n      pop\n      pop\n        /* \"new/MarketplaceEscrow_test/EscrowMarketplace.sol\":7416:7639  function _getOrder(uint256 orderId) internal view returns (Order storage) {... */\n      swap2\n      swap1\n      pop\n      jump\t// out\n        /* \"new/MarketplaceEscrow_test/EscrowMarketplace.sol\":7855:8042  function _calcFee(uint256 amount) internal view returns(uint256 payout, uint256 fee) {... */\n    tag_170:\n        /* \"new/MarketplaceEscrow_test/EscrowMarketplace.sol\":7911:7925  uint256 payout */\n      0x00\n        /* \"new/MarketplaceEscrow_test/EscrowMarketplace.sol\":7927:7938  uint256 fee */\n      0x00\n        /* \"new/MarketplaceEscrow_test/EscrowMarketplace.sol\":7976:7982  10_000 */\n      0x2710\n        /* \"new/MarketplaceEscrow_test/EscrowMarketplace.sol\":7966:7972  feeBps */\n      sload(0x05)\n        /* \"new/MarketplaceEscrow_test/EscrowMarketplace.sol\":7957:7963  amount */\n      dup5\n        /* \"new/MarketplaceEscrow_test/EscrowMarketplace.sol\":7957:7972  amount * feeBps */\n      tag_302\n      swap2\n      swap1\n      tag_303\n      jump\t// in\n    tag_302:\n        /* \"new/MarketplaceEscrow_test/EscrowMarketplace.sol\":7956:7982  (amount * feeBps) / 10_000 */\n      tag_304\n      swap2\n      swap1\n      tag_305\n      jump\t// in\n    tag_304:\n        /* \"new/MarketplaceEscrow_test/EscrowMarketplace.sol\":7950:7982  fee = (amount * feeBps) / 10_000 */\n      swap1\n      pop\n        /* \"new/MarketplaceEscrow_test/EscrowMarketplace.sol\":8032:8035  fee */\n      dup1\n        /* \"new/MarketplaceEscrow_test/EscrowMarketplace.sol\":8023:8029  amount */\n      dup4\n        /* \"new/MarketplaceEscrow_test/EscrowMarketplace.sol\":8023:8035  amount - fee */\n      tag_306\n      swap2\n      swap1\n      tag_307\n      jump\t// in\n    tag_306:\n        /* \"new/MarketplaceEscrow_test/EscrowMarketplace.sol\":8014:8035  payout = amount - fee */\n      swap2\n      pop\n        /* \"new/MarketplaceEscrow_test/EscrowMarketplace.sol\":7855:8042  function _calcFee(uint256 amount) internal view returns(uint256 payout, uint256 fee) {... */\n      swap2\n      pop\n      swap2\n      jump\t// out\n        /* \"new/MarketplaceEscrow_test/EscrowMarketplace.sol\":7645:7849  function _safeTransfer(address to, uint256 amount) internal {... */\n    tag_174:\n        /* \"new/MarketplaceEscrow_test/EscrowMarketplace.sol\":7729:7730  0 */\n      0x00\n        /* \"new/MarketplaceEscrow_test/EscrowMarketplace.sol\":7719:7725  amount */\n      dup2\n        /* \"new/MarketplaceEscrow_test/EscrowMarketplace.sol\":7719:7730  amount == 0 */\n      sub\n        /* \"new/MarketplaceEscrow_test/EscrowMarketplace.sol\":7715:7751  if( amount == 0)... */\n      iszero\n        /* \"new/MarketplaceEscrow_test/EscrowMarketplace.sol\":7744:7751  return; */\n      tag_308\n        /* \"new/MarketplaceEscrow_test/EscrowMarketplace.sol\":7715:7751  if( amount == 0)... */\n      jumpi\n        /* \"new/MarketplaceEscrow_test/EscrowMarketplace.sol\":7761:7768  bool ok */\n      0x00\n        /* \"new/MarketplaceEscrow_test/EscrowMarketplace.sol\":7774:7776  to */\n      dup3\n        /* \"new/MarketplaceEscrow_test/EscrowMarketplace.sol\":7774:7781  to.call */\n      0xffffffffffffffffffffffffffffffffffffffff\n      and\n        /* \"new/MarketplaceEscrow_test/EscrowMarketplace.sol\":7789:7795  amount */\n      dup3\n        /* \"new/MarketplaceEscrow_test/EscrowMarketplace.sol\":7774:7800  to.call{value: amount}(\"\") */\n      mload(0x40)\n      tag_310\n      swap1\n      tag_311\n      jump\t// in\n    tag_310:\n      0x00\n      mload(0x40)\n      dup1\n      dup4\n      sub\n      dup2\n      dup6\n      dup8\n      gas\n      call\n      swap3\n      pop\n      pop\n      pop\n      returndatasize\n      dup1\n      0x00\n      dup2\n      eq\n      tag_314\n      jumpi\n      mload(0x40)\n      swap2\n      pop\n      and(add(returndatasize, 0x3f), not(0x1f))\n      dup3\n      add\n      0x40\n      mstore\n      returndatasize\n      dup3\n      mstore\n      returndatasize\n      0x00\n      0x20\n      dup5\n      add\n      returndatacopy\n      jump(tag_313)\n    tag_314:\n      0x60\n      swap2\n      pop\n    tag_313:\n      pop\n        /* \"new/MarketplaceEscrow_test/EscrowMarketplace.sol\":7760:7800  (bool ok, ) = to.call{value: amount}(\"\") */\n      pop\n      swap1\n      pop\n        /* \"new/MarketplaceEscrow_test/EscrowMarketplace.sol\":7815:7817  ok */\n      dup1\n        /* \"new/MarketplaceEscrow_test/EscrowMarketplace.sol\":7810:7842  if (!ok) revert TransferFailed() */\n      tag_315\n      jumpi\n        /* \"new/MarketplaceEscrow_test/EscrowMarketplace.sol\":7826:7842  TransferFailed() */\n      mload(0x40)\n      0x90b8ec1800000000000000000000000000000000000000000000000000000000\n      dup2\n      mstore\n      0x04\n      add\n      mload(0x40)\n      dup1\n      swap2\n      sub\n      swap1\n      revert\n        /* \"new/MarketplaceEscrow_test/EscrowMarketplace.sol\":7810:7842  if (!ok) revert TransferFailed() */\n    tag_315:\n        /* \"new/MarketplaceEscrow_test/EscrowMarketplace.sol\":7705:7849  {... */\n      pop\n        /* \"new/MarketplaceEscrow_test/EscrowMarketplace.sol\":7645:7849  function _safeTransfer(address to, uint256 amount) internal {... */\n    tag_308:\n      pop\n      pop\n      jump\t// out\n        /* \"new/MarketplaceEscrow_test/AccessManager.sol\":1592:1761  function _grantRole(address _account, uint8 _assignRole ) internal {... */\n    tag_225:\n        /* \"new/MarketplaceEscrow_test/AccessManager.sol\":1701:1705  true */\n      0x01\n        /* \"new/MarketplaceEscrow_test/AccessManager.sol\":1669:1675  _roles */\n      0x00\n        /* \"new/MarketplaceEscrow_test/AccessManager.sol\":1669:1685  _roles[_account] */\n      0x00\n        /* \"new/MarketplaceEscrow_test/AccessManager.sol\":1676:1684  _account */\n      dup5\n        /* \"new/MarketplaceEscrow_test/AccessManager.sol\":1669:1685  _roles[_account] */\n      0xffffffffffffffffffffffffffffffffffffffff\n      and\n      0xffffffffffffffffffffffffffffffffffffffff\n      and\n      dup2\n      mstore\n      0x20\n      add\n      swap1\n      dup2\n      mstore\n      0x20\n      add\n      0x00\n      keccak256\n        /* \"new/MarketplaceEscrow_test/AccessManager.sol\":1669:1698  _roles[_account][_assignRole] */\n      0x00\n        /* \"new/MarketplaceEscrow_test/AccessManager.sol\":1686:1697  _assignRole */\n      dup4\n        /* \"new/MarketplaceEscrow_test/AccessManager.sol\":1669:1698  _roles[_account][_assignRole] */\n      0xff\n      and\n      0xff\n      and\n      dup2\n      mstore\n      0x20\n      add\n      swap1\n      dup2\n      mstore\n      0x20\n      add\n      0x00\n      keccak256\n      0x00\n        /* \"new/MarketplaceEscrow_test/AccessManager.sol\":1669:1705  _roles[_account][_assignRole] = true */\n      0x0100\n      exp\n      dup2\n      sload\n      dup2\n      0xff\n      mul\n      not\n      and\n      swap1\n      dup4\n      iszero\n      iszero\n      mul\n      or\n      swap1\n      sstore\n      pop\n        /* \"new/MarketplaceEscrow_test/AccessManager.sol\":1742:1753  _assignRole */\n      dup1\n        /* \"new/MarketplaceEscrow_test/AccessManager.sol\":1720:1754  RoleGranted(_account, _assignRole) */\n      0xff\n      and\n        /* \"new/MarketplaceEscrow_test/AccessManager.sol\":1732:1740  _account */\n      dup3\n        /* \"new/MarketplaceEscrow_test/AccessManager.sol\":1720:1754  RoleGranted(_account, _assignRole) */\n      0xffffffffffffffffffffffffffffffffffffffff\n      and\n      0xaa259565575c834bc07e74dca784b4071676133ac78513b431afb6ee7edae121\n      mload(0x40)\n      mload(0x40)\n      dup1\n      swap2\n      sub\n      swap1\n      log3\n        /* \"new/MarketplaceEscrow_test/AccessManager.sol\":1592:1761  function _grantRole(address _account, uint8 _assignRole ) internal {... */\n      pop\n      pop\n      jump\t// out\n    tag_279:\n      mload(0x40)\n      dup1\n      0xe0\n      add\n      0x40\n      mstore\n      dup1\n      0x00\n      dup2\n      mstore\n      0x20\n      add\n      and(0xffffffffffffffffffffffffffffffffffffffff, 0x00)\n      dup2\n      mstore\n      0x20\n      add\n      and(0xffffffffffffffffffffffffffffffffffffffff, 0x00)\n      dup2\n      mstore\n      0x20\n      add\n      0x00\n      dup2\n      mstore\n      0x20\n      add\n      0x00\n      dup2\n      mstore\n      0x20\n      add\n      0x00\n      dup2\n      mstore\n      0x20\n      add\n      0x00\n      0x06\n      dup2\n      gt\n      iszero\n      tag_317\n      jumpi\n      tag_318\n      tag_134\n      jump\t// in\n    tag_318:\n    tag_317:\n      dup2\n      mstore\n      pop\n      swap1\n      jump\t// out\n        /* \"#utility.yul\":88:205   */\n    tag_320:\n        /* \"#utility.yul\":197:198   */\n      0x00\n        /* \"#utility.yul\":194:195   */\n      0x00\n        /* \"#utility.yul\":187:199   */\n      revert\n        /* \"#utility.yul\":334:460   */\n    tag_322:\n        /* \"#utility.yul\":371:378   */\n      0x00\n        /* \"#utility.yul\":411:453   */\n      0xffffffffffffffffffffffffffffffffffffffff\n        /* \"#utility.yul\":404:409   */\n      dup3\n        /* \"#utility.yul\":400:454   */\n      and\n        /* \"#utility.yul\":389:454   */\n      swap1\n      pop\n        /* \"#utility.yul\":334:460   */\n      swap2\n      swap1\n      pop\n      jump\t// out\n        /* \"#utility.yul\":466:562   */\n    tag_323:\n        /* \"#utility.yul\":503:510   */\n      0x00\n        /* \"#utility.yul\":532:556   */\n      tag_371\n        /* \"#utility.yul\":550:555   */\n      dup3\n        /* \"#utility.yul\":532:556   */\n      tag_322\n      jump\t// in\n    tag_371:\n        /* \"#utility.yul\":521:556   */\n      swap1\n      pop\n        /* \"#utility.yul\":466:562   */\n      swap2\n      swap1\n      pop\n      jump\t// out\n        /* \"#utility.yul\":568:690   */\n    tag_324:\n        /* \"#utility.yul\":641:665   */\n      tag_373\n        /* \"#utility.yul\":659:664   */\n      dup2\n        /* \"#utility.yul\":641:665   */\n      tag_323\n      jump\t// in\n    tag_373:\n        /* \"#utility.yul\":634:639   */\n      dup2\n        /* \"#utility.yul\":631:666   */\n      eq\n        /* \"#utility.yul\":621:684   */\n      tag_374\n      jumpi\n        /* \"#utility.yul\":680:681   */\n      0x00\n        /* \"#utility.yul\":677:678   */\n      0x00\n        /* \"#utility.yul\":670:682   */\n      revert\n        /* \"#utility.yul\":621:684   */\n    tag_374:\n        /* \"#utility.yul\":568:690   */\n      pop\n      jump\t// out\n        /* \"#utility.yul\":696:835   */\n    tag_325:\n        /* \"#utility.yul\":742:747   */\n      0x00\n        /* \"#utility.yul\":780:786   */\n      dup2\n        /* \"#utility.yul\":767:787   */\n      calldataload\n        /* \"#utility.yul\":758:787   */\n      swap1\n      pop\n        /* \"#utility.yul\":796:829   */\n      tag_376\n        /* \"#utility.yul\":823:828   */\n      dup2\n        /* \"#utility.yul\":796:829   */\n      tag_324\n      jump\t// in\n    tag_376:\n        /* \"#utility.yul\":696:835   */\n      swap3\n      swap2\n      pop\n      pop\n      jump\t// out\n        /* \"#utility.yul\":841:927   */\n    tag_326:\n        /* \"#utility.yul\":876:883   */\n      0x00\n        /* \"#utility.yul\":916:920   */\n      0xff\n        /* \"#utility.yul\":909:914   */\n      dup3\n        /* \"#utility.yul\":905:921   */\n      and\n        /* \"#utility.yul\":894:921   */\n      swap1\n      pop\n        /* \"#utility.yul\":841:927   */\n      swap2\n      swap1\n      pop\n      jump\t// out\n        /* \"#utility.yul\":933:1051   */\n    tag_327:\n        /* \"#utility.yul\":1004:1026   */\n      tag_379\n        /* \"#utility.yul\":1020:1025   */\n      dup2\n        /* \"#utility.yul\":1004:1026   */\n      tag_326\n      jump\t// in\n    tag_379:\n        /* \"#utility.yul\":997:1002   */\n      dup2\n        /* \"#utility.yul\":994:1027   */\n      eq\n        /* \"#utility.yul\":984:1045   */\n      tag_380\n      jumpi\n        /* \"#utility.yul\":1041:1042   */\n      0x00\n        /* \"#utility.yul\":1038:1039   */\n      0x00\n        /* \"#utility.yul\":1031:1043   */\n      revert\n        /* \"#utility.yul\":984:1045   */\n    tag_380:\n        /* \"#utility.yul\":933:1051   */\n      pop\n      jump\t// out\n        /* \"#utility.yul\":1057:1192   */\n    tag_328:\n        /* \"#utility.yul\":1101:1106   */\n      0x00\n        /* \"#utility.yul\":1139:1145   */\n      dup2\n        /* \"#utility.yul\":1126:1146   */\n      calldataload\n        /* \"#utility.yul\":1117:1146   */\n      swap1\n      pop\n        /* \"#utility.yul\":1155:1186   */\n      tag_382\n        /* \"#utility.yul\":1180:1185   */\n      dup2\n        /* \"#utility.yul\":1155:1186   */\n      tag_327\n      jump\t// in\n    tag_382:\n        /* \"#utility.yul\":1057:1192   */\n      swap3\n      swap2\n      pop\n      pop\n      jump\t// out\n        /* \"#utility.yul\":1198:1668   */\n    tag_29:\n        /* \"#utility.yul\":1264:1270   */\n      0x00\n        /* \"#utility.yul\":1272:1278   */\n      0x00\n        /* \"#utility.yul\":1321:1323   */\n      0x40\n        /* \"#utility.yul\":1309:1318   */\n      dup4\n        /* \"#utility.yul\":1300:1307   */\n      dup6\n        /* \"#utility.yul\":1296:1319   */\n      sub\n        /* \"#utility.yul\":1292:1324   */\n      slt\n        /* \"#utility.yul\":1289:1408   */\n      iszero\n      tag_384\n      jumpi\n        /* \"#utility.yul\":1327:1406   */\n      tag_385\n      tag_320\n      jump\t// in\n    tag_385:\n        /* \"#utility.yul\":1289:1408   */\n    tag_384:\n        /* \"#utility.yul\":1447:1448   */\n      0x00\n        /* \"#utility.yul\":1472:1525   */\n      tag_386\n        /* \"#utility.yul\":1517:1524   */\n      dup6\n        /* \"#utility.yul\":1508:1514   */\n      dup3\n        /* \"#utility.yul\":1497:1506   */\n      dup7\n        /* \"#utility.yul\":1493:1515   */\n      add\n        /* \"#utility.yul\":1472:1525   */\n      tag_325\n      jump\t// in\n    tag_386:\n        /* \"#utility.yul\":1462:1525   */\n      swap3\n      pop\n        /* \"#utility.yul\":1418:1535   */\n      pop\n        /* \"#utility.yul\":1574:1576   */\n      0x20\n        /* \"#utility.yul\":1600:1651   */\n      tag_387\n        /* \"#utility.yul\":1643:1650   */\n      dup6\n        /* \"#utility.yul\":1634:1640   */\n      dup3\n        /* \"#utility.yul\":1623:1632   */\n      dup7\n        /* \"#utility.yul\":1619:1641   */\n      add\n        /* \"#utility.yul\":1600:1651   */\n      tag_328\n      jump\t// in\n    tag_387:\n        /* \"#utility.yul\":1590:1651   */\n      swap2\n      pop\n        /* \"#utility.yul\":1545:1661   */\n      pop\n        /* \"#utility.yul\":1198:1668   */\n      swap3\n      pop\n      swap3\n      swap1\n      pop\n      jump\t// out\n        /* \"#utility.yul\":1674:1751   */\n    tag_329:\n        /* \"#utility.yul\":1711:1718   */\n      0x00\n        /* \"#utility.yul\":1740:1745   */\n      dup2\n        /* \"#utility.yul\":1729:1745   */\n      swap1\n      pop\n        /* \"#utility.yul\":1674:1751   */\n      swap2\n      swap1\n      pop\n      jump\t// out\n        /* \"#utility.yul\":1757:1875   */\n    tag_330:\n        /* \"#utility.yul\":1844:1868   */\n      tag_390\n        /* \"#utility.yul\":1862:1867   */\n      dup2\n        /* \"#utility.yul\":1844:1868   */\n      tag_329\n      jump\t// in\n    tag_390:\n        /* \"#utility.yul\":1839:1842   */\n      dup3\n        /* \"#utility.yul\":1832:1869   */\n      mstore\n        /* \"#utility.yul\":1757:1875   */\n      pop\n      pop\n      jump\t// out\n        /* \"#utility.yul\":1881:2103   */\n    tag_35:\n        /* \"#utility.yul\":1974:1978   */\n      0x00\n        /* \"#utility.yul\":2012:2014   */\n      0x20\n        /* \"#utility.yul\":2001:2010   */\n      dup3\n        /* \"#utility.yul\":1997:2015   */\n      add\n        /* \"#utility.yul\":1989:2015   */\n      swap1\n      pop\n        /* \"#utility.yul\":2025:2096   */\n      tag_392\n        /* \"#utility.yul\":2093:2094   */\n      0x00\n        /* \"#utility.yul\":2082:2091   */\n      dup4\n        /* \"#utility.yul\":2078:2095   */\n      add\n        /* \"#utility.yul\":2069:2075   */\n      dup5\n        /* \"#utility.yul\":2025:2096   */\n      tag_330\n      jump\t// in\n    tag_392:\n        /* \"#utility.yul\":1881:2103   */\n      swap3\n      swap2\n      pop\n      pop\n      jump\t// out\n        /* \"#utility.yul\":2109:2231   */\n    tag_331:\n        /* \"#utility.yul\":2182:2206   */\n      tag_394\n        /* \"#utility.yul\":2200:2205   */\n      dup2\n        /* \"#utility.yul\":2182:2206   */\n      tag_329\n      jump\t// in\n    tag_394:\n        /* \"#utility.yul\":2175:2180   */\n      dup2\n        /* \"#utility.yul\":2172:2207   */\n      eq\n        /* \"#utility.yul\":2162:2225   */\n      tag_395\n      jumpi\n        /* \"#utility.yul\":2221:2222   */\n      0x00\n        /* \"#utility.yul\":2218:2219   */\n      0x00\n        /* \"#utility.yul\":2211:2223   */\n      revert\n        /* \"#utility.yul\":2162:2225   */\n    tag_395:\n        /* \"#utility.yul\":2109:2231   */\n      pop\n      jump\t// out\n        /* \"#utility.yul\":2237:2376   */\n    tag_332:\n        /* \"#utility.yul\":2283:2288   */\n      0x00\n        /* \"#utility.yul\":2321:2327   */\n      dup2\n        /* \"#utility.yul\":2308:2328   */\n      calldataload\n        /* \"#utility.yul\":2299:2328   */\n      swap1\n      pop\n        /* \"#utility.yul\":2337:2370   */\n      tag_397\n        /* \"#utility.yul\":2364:2369   */\n      dup2\n        /* \"#utility.yul\":2337:2370   */\n      tag_331\n      jump\t// in\n    tag_397:\n        /* \"#utility.yul\":2237:2376   */\n      swap3\n      swap2\n      pop\n      pop\n      jump\t// out\n        /* \"#utility.yul\":2382:2711   */\n    tag_39:\n        /* \"#utility.yul\":2441:2447   */\n      0x00\n        /* \"#utility.yul\":2490:2492   */\n      0x20\n        /* \"#utility.yul\":2478:2487   */\n      dup3\n        /* \"#utility.yul\":2469:2476   */\n      dup5\n        /* \"#utility.yul\":2465:2488   */\n      sub\n        /* \"#utility.yul\":2461:2493   */\n      slt\n        /* \"#utility.yul\":2458:2577   */\n      iszero\n      tag_399\n      jumpi\n        /* \"#utility.yul\":2496:2575   */\n      tag_400\n      tag_320\n      jump\t// in\n    tag_400:\n        /* \"#utility.yul\":2458:2577   */\n    tag_399:\n        /* \"#utility.yul\":2616:2617   */\n      0x00\n        /* \"#utility.yul\":2641:2694   */\n      tag_401\n        /* \"#utility.yul\":2686:2693   */\n      dup5\n        /* \"#utility.yul\":2677:2683   */\n      dup3\n        /* \"#utility.yul\":2666:2675   */\n      dup6\n        /* \"#utility.yul\":2662:2684   */\n      add\n        /* \"#utility.yul\":2641:2694   */\n      tag_332\n      jump\t// in\n    tag_401:\n        /* \"#utility.yul\":2631:2694   */\n      swap2\n      pop\n        /* \"#utility.yul\":2587:2704   */\n      pop\n        /* \"#utility.yul\":2382:2711   */\n      swap3\n      swap2\n      pop\n      pop\n      jump\t// out\n        /* \"#utility.yul\":2717:2829   */\n    tag_333:\n        /* \"#utility.yul\":2800:2822   */\n      tag_403\n        /* \"#utility.yul\":2816:2821   */\n      dup2\n        /* \"#utility.yul\":2800:2822   */\n      tag_326\n      jump\t// in\n    tag_403:\n        /* \"#utility.yul\":2795:2798   */\n      dup3\n        /* \"#utility.yul\":2788:2823   */\n      mstore\n        /* \"#utility.yul\":2717:2829   */\n      pop\n      pop\n      jump\t// out\n        /* \"#utility.yul\":2835:3049   */\n    tag_49:\n        /* \"#utility.yul\":2924:2928   */\n      0x00\n        /* \"#utility.yul\":2962:2964   */\n      0x20\n        /* \"#utility.yul\":2951:2960   */\n      dup3\n        /* \"#utility.yul\":2947:2965   */\n      add\n        /* \"#utility.yul\":2939:2965   */\n      swap1\n      pop\n        /* \"#utility.yul\":2975:3042   */\n      tag_405\n        /* \"#utility.yul\":3039:3040   */\n      0x00\n        /* \"#utility.yul\":3028:3037   */\n      dup4\n        /* \"#utility.yul\":3024:3041   */\n      add\n        /* \"#utility.yul\":3015:3021   */\n      dup5\n        /* \"#utility.yul\":2975:3042   */\n      tag_333\n      jump\t// in\n    tag_405:\n        /* \"#utility.yul\":2835:3049   */\n      swap3\n      swap2\n      pop\n      pop\n      jump\t// out\n        /* \"#utility.yul\":3055:3145   */\n    tag_334:\n        /* \"#utility.yul\":3089:3096   */\n      0x00\n        /* \"#utility.yul\":3132:3137   */\n      dup2\n        /* \"#utility.yul\":3125:3138   */\n      iszero\n        /* \"#utility.yul\":3118:3139   */\n      iszero\n        /* \"#utility.yul\":3107:3139   */\n      swap1\n      pop\n        /* \"#utility.yul\":3055:3145   */\n      swap2\n      swap1\n      pop\n      jump\t// out\n        /* \"#utility.yul\":3151:3267   */\n    tag_335:\n        /* \"#utility.yul\":3221:3242   */\n      tag_408\n        /* \"#utility.yul\":3236:3241   */\n      dup2\n        /* \"#utility.yul\":3221:3242   */\n      tag_334\n      jump\t// in\n    tag_408:\n        /* \"#utility.yul\":3214:3219   */\n      dup2\n        /* \"#utility.yul\":3211:3243   */\n      eq\n        /* \"#utility.yul\":3201:3261   */\n      tag_409\n      jumpi\n        /* \"#utility.yul\":3257:3258   */\n      0x00\n        /* \"#utility.yul\":3254:3255   */\n      0x00\n        /* \"#utility.yul\":3247:3259   */\n      revert\n        /* \"#utility.yul\":3201:3261   */\n    tag_409:\n        /* \"#utility.yul\":3151:3267   */\n      pop\n      jump\t// out\n        /* \"#utility.yul\":3273:3406   */\n    tag_336:\n        /* \"#utility.yul\":3316:3321   */\n      0x00\n        /* \"#utility.yul\":3354:3360   */\n      dup2\n        /* \"#utility.yul\":3341:3361   */\n      calldataload\n        /* \"#utility.yul\":3332:3361   */\n      swap1\n      pop\n        /* \"#utility.yul\":3370:3400   */\n      tag_411\n        /* \"#utility.yul\":3394:3399   */\n      dup2\n        /* \"#utility.yul\":3370:3400   */\n      tag_335\n      jump\t// in\n    tag_411:\n        /* \"#utility.yul\":3273:3406   */\n      swap3\n      swap2\n      pop\n      pop\n      jump\t// out\n        /* \"#utility.yul\":3412:3880   */\n    tag_53:\n        /* \"#utility.yul\":3477:3483   */\n      0x00\n        /* \"#utility.yul\":3485:3491   */\n      0x00\n        /* \"#utility.yul\":3534:3536   */\n      0x40\n        /* \"#utility.yul\":3522:3531   */\n      dup4\n        /* \"#utility.yul\":3513:3520   */\n      dup6\n        /* \"#utility.yul\":3509:3532   */\n      sub\n        /* \"#utility.yul\":3505:3537   */\n      slt\n        /* \"#utility.yul\":3502:3621   */\n      iszero\n      tag_413\n      jumpi\n        /* \"#utility.yul\":3540:3619   */\n      tag_414\n      tag_320\n      jump\t// in\n    tag_414:\n        /* \"#utility.yul\":3502:3621   */\n    tag_413:\n        /* \"#utility.yul\":3660:3661   */\n      0x00\n        /* \"#utility.yul\":3685:3738   */\n      tag_415\n        /* \"#utility.yul\":3730:3737   */\n      dup6\n        /* \"#utility.yul\":3721:3727   */\n      dup3\n        /* \"#utility.yul\":3710:3719   */\n      dup7\n        /* \"#utility.yul\":3706:3728   */\n      add\n        /* \"#utility.yul\":3685:3738   */\n      tag_332\n      jump\t// in\n    tag_415:\n        /* \"#utility.yul\":3675:3738   */\n      swap3\n      pop\n        /* \"#utility.yul\":3631:3748   */\n      pop\n        /* \"#utility.yul\":3787:3789   */\n      0x20\n        /* \"#utility.yul\":3813:3863   */\n      tag_416\n        /* \"#utility.yul\":3855:3862   */\n      dup6\n        /* \"#utility.yul\":3846:3852   */\n      dup3\n        /* \"#utility.yul\":3835:3844   */\n      dup7\n        /* \"#utility.yul\":3831:3853   */\n      add\n        /* \"#utility.yul\":3813:3863   */\n      tag_336\n      jump\t// in\n    tag_416:\n        /* \"#utility.yul\":3803:3863   */\n      swap2\n      pop\n        /* \"#utility.yul\":3758:3873   */\n      pop\n        /* \"#utility.yul\":3412:3880   */\n      swap3\n      pop\n      swap3\n      swap1\n      pop\n      jump\t// out\n        /* \"#utility.yul\":3886:3963   */\n    tag_337:\n        /* \"#utility.yul\":3923:3930   */\n      0x00\n        /* \"#utility.yul\":3952:3957   */\n      dup2\n        /* \"#utility.yul\":3941:3957   */\n      swap1\n      pop\n        /* \"#utility.yul\":3886:3963   */\n      swap2\n      swap1\n      pop\n      jump\t// out\n        /* \"#utility.yul\":3969:4091   */\n    tag_338:\n        /* \"#utility.yul\":4042:4066   */\n      tag_419\n        /* \"#utility.yul\":4060:4065   */\n      dup2\n        /* \"#utility.yul\":4042:4066   */\n      tag_337\n      jump\t// in\n    tag_419:\n        /* \"#utility.yul\":4035:4040   */\n      dup2\n        /* \"#utility.yul\":4032:4067   */\n      eq\n        /* \"#utility.yul\":4022:4085   */\n      tag_420\n      jumpi\n        /* \"#utility.yul\":4081:4082   */\n      0x00\n        /* \"#utility.yul\":4078:4079   */\n      0x00\n        /* \"#utility.yul\":4071:4083   */\n      revert\n        /* \"#utility.yul\":4022:4085   */\n    tag_420:\n        /* \"#utility.yul\":3969:4091   */\n      pop\n      jump\t// out\n        /* \"#utility.yul\":4097:4236   */\n    tag_339:\n        /* \"#utility.yul\":4143:4148   */\n      0x00\n        /* \"#utility.yul\":4181:4187   */\n      dup2\n        /* \"#utility.yul\":4168:4188   */\n      calldataload\n        /* \"#utility.yul\":4159:4188   */\n      swap1\n      pop\n        /* \"#utility.yul\":4197:4230   */\n      tag_422\n        /* \"#utility.yul\":4224:4229   */\n      dup2\n        /* \"#utility.yul\":4197:4230   */\n      tag_338\n      jump\t// in\n    tag_422:\n        /* \"#utility.yul\":4097:4236   */\n      swap3\n      swap2\n      pop\n      pop\n      jump\t// out\n        /* \"#utility.yul\":4242:4716   */\n    tag_70:\n        /* \"#utility.yul\":4310:4316   */\n      0x00\n        /* \"#utility.yul\":4318:4324   */\n      0x00\n        /* \"#utility.yul\":4367:4369   */\n      0x40\n        /* \"#utility.yul\":4355:4364   */\n      dup4\n        /* \"#utility.yul\":4346:4353   */\n      dup6\n        /* \"#utility.yul\":4342:4365   */\n      sub\n        /* \"#utility.yul\":4338:4370   */\n      slt\n        /* \"#utility.yul\":4335:4454   */\n      iszero\n      tag_424\n      jumpi\n        /* \"#utility.yul\":4373:4452   */\n      tag_425\n      tag_320\n      jump\t// in\n    tag_425:\n        /* \"#utility.yul\":4335:4454   */\n    tag_424:\n        /* \"#utility.yul\":4493:4494   */\n      0x00\n        /* \"#utility.yul\":4518:4571   */\n      tag_426\n        /* \"#utility.yul\":4563:4570   */\n      dup6\n        /* \"#utility.yul\":4554:4560   */\n      dup3\n        /* \"#utility.yul\":4543:4552   */\n      dup7\n        /* \"#utility.yul\":4539:4561   */\n      add\n        /* \"#utility.yul\":4518:4571   */\n      tag_325\n      jump\t// in\n    tag_426:\n        /* \"#utility.yul\":4508:4571   */\n      swap3\n      pop\n        /* \"#utility.yul\":4464:4581   */\n      pop\n        /* \"#utility.yul\":4620:4622   */\n      0x20\n        /* \"#utility.yul\":4646:4699   */\n      tag_427\n        /* \"#utility.yul\":4691:4698   */\n      dup6\n        /* \"#utility.yul\":4682:4688   */\n      dup3\n        /* \"#utility.yul\":4671:4680   */\n      dup7\n        /* \"#utility.yul\":4667:4689   */\n      add\n        /* \"#utility.yul\":4646:4699   */\n      tag_339\n      jump\t// in\n    tag_427:\n        /* \"#utility.yul\":4636:4699   */\n      swap2\n      pop\n        /* \"#utility.yul\":4591:4709   */\n      pop\n        /* \"#utility.yul\":4242:4716   */\n      swap3\n      pop\n      swap3\n      swap1\n      pop\n      jump\t// out\n        /* \"#utility.yul\":4722:4782   */\n    tag_340:\n        /* \"#utility.yul\":4750:4753   */\n      0x00\n        /* \"#utility.yul\":4771:4776   */\n      dup2\n        /* \"#utility.yul\":4764:4776   */\n      swap1\n      pop\n        /* \"#utility.yul\":4722:4782   */\n      swap2\n      swap1\n      pop\n      jump\t// out\n        /* \"#utility.yul\":4788:4930   */\n    tag_341:\n        /* \"#utility.yul\":4838:4847   */\n      0x00\n        /* \"#utility.yul\":4871:4924   */\n      tag_430\n        /* \"#utility.yul\":4889:4923   */\n      tag_431\n        /* \"#utility.yul\":4898:4922   */\n      tag_432\n        /* \"#utility.yul\":4916:4921   */\n      dup5\n        /* \"#utility.yul\":4898:4922   */\n      tag_322\n      jump\t// in\n    tag_432:\n        /* \"#utility.yul\":4889:4923   */\n      tag_340\n      jump\t// in\n    tag_431:\n        /* \"#utility.yul\":4871:4924   */\n      tag_322\n      jump\t// in\n    tag_430:\n        /* \"#utility.yul\":4858:4924   */\n      swap1\n      pop\n        /* \"#utility.yul\":4788:4930   */\n      swap2\n      swap1\n      pop\n      jump\t// out\n        /* \"#utility.yul\":4936:5070   */\n    tag_342:\n        /* \"#utility.yul\":4994:5003   */\n      0x00\n        /* \"#utility.yul\":5027:5064   */\n      tag_434\n        /* \"#utility.yul\":5058:5063   */\n      dup3\n        /* \"#utility.yul\":5027:5064   */\n      tag_341\n      jump\t// in\n    tag_434:\n        /* \"#utility.yul\":5014:5064   */\n      swap1\n      pop\n        /* \"#utility.yul\":4936:5070   */\n      swap2\n      swap1\n      pop\n      jump\t// out\n        /* \"#utility.yul\":5076:5235   */\n    tag_343:\n        /* \"#utility.yul\":5151:5160   */\n      0x00\n        /* \"#utility.yul\":5184:5229   */\n      tag_436\n        /* \"#utility.yul\":5223:5228   */\n      dup3\n        /* \"#utility.yul\":5184:5229   */\n      tag_342\n      jump\t// in\n    tag_436:\n        /* \"#utility.yul\":5171:5229   */\n      swap1\n      pop\n        /* \"#utility.yul\":5076:5235   */\n      swap2\n      swap1\n      pop\n      jump\t// out\n        /* \"#utility.yul\":5241:5422   */\n    tag_344:\n        /* \"#utility.yul\":5353:5415   */\n      tag_438\n        /* \"#utility.yul\":5409:5414   */\n      dup2\n        /* \"#utility.yul\":5353:5415   */\n      tag_343\n      jump\t// in\n    tag_438:\n        /* \"#utility.yul\":5348:5351   */\n      dup3\n        /* \"#utility.yul\":5341:5416   */\n      mstore\n        /* \"#utility.yul\":5241:5422   */\n      pop\n      pop\n      jump\t// out\n        /* \"#utility.yul\":5428:5700   */\n    tag_77:\n        /* \"#utility.yul\":5546:5550   */\n      0x00\n        /* \"#utility.yul\":5584:5586   */\n      0x20\n        /* \"#utility.yul\":5573:5582   */\n      dup3\n        /* \"#utility.yul\":5569:5587   */\n      add\n        /* \"#utility.yul\":5561:5587   */\n      swap1\n      pop\n        /* \"#utility.yul\":5597:5693   */\n      tag_440\n        /* \"#utility.yul\":5690:5691   */\n      0x00\n        /* \"#utility.yul\":5679:5688   */\n      dup4\n        /* \"#utility.yul\":5675:5692   */\n      add\n        /* \"#utility.yul\":5666:5672   */\n      dup5\n        /* \"#utility.yul\":5597:5693   */\n      tag_344\n      jump\t// in\n    tag_440:\n        /* \"#utility.yul\":5428:5700   */\n      swap3\n      swap2\n      pop\n      pop\n      jump\t// out\n        /* \"#utility.yul\":5706:5832   */\n    tag_345:\n        /* \"#utility.yul\":5756:5765   */\n      0x00\n        /* \"#utility.yul\":5789:5826   */\n      tag_442\n        /* \"#utility.yul\":5820:5825   */\n      dup3\n        /* \"#utility.yul\":5789:5826   */\n      tag_341\n      jump\t// in\n    tag_442:\n        /* \"#utility.yul\":5776:5826   */\n      swap1\n      pop\n        /* \"#utility.yul\":5706:5832   */\n      swap2\n      swap1\n      pop\n      jump\t// out\n        /* \"#utility.yul\":5838:5984   */\n    tag_346:\n        /* \"#utility.yul\":5908:5917   */\n      0x00\n        /* \"#utility.yul\":5941:5978   */\n      tag_444\n        /* \"#utility.yul\":5972:5977   */\n      dup3\n        /* \"#utility.yul\":5941:5978   */\n      tag_345\n      jump\t// in\n    tag_444:\n        /* \"#utility.yul\":5928:5978   */\n      swap1\n      pop\n        /* \"#utility.yul\":5838:5984   */\n      swap2\n      swap1\n      pop\n      jump\t// out\n        /* \"#utility.yul\":5990:6161   */\n    tag_347:\n        /* \"#utility.yul\":6097:6154   */\n      tag_446\n        /* \"#utility.yul\":6148:6153   */\n      dup2\n        /* \"#utility.yul\":6097:6154   */\n      tag_346\n      jump\t// in\n    tag_446:\n        /* \"#utility.yul\":6092:6095   */\n      dup3\n        /* \"#utility.yul\":6085:6155   */\n      mstore\n        /* \"#utility.yul\":5990:6161   */\n      pop\n      pop\n      jump\t// out\n        /* \"#utility.yul\":6167:6429   */\n    tag_82:\n        /* \"#utility.yul\":6280:6284   */\n      0x00\n        /* \"#utility.yul\":6318:6320   */\n      0x20\n        /* \"#utility.yul\":6307:6316   */\n      dup3\n        /* \"#utility.yul\":6303:6321   */\n      add\n        /* \"#utility.yul\":6295:6321   */\n      swap1\n      pop\n        /* \"#utility.yul\":6331:6422   */\n      tag_448\n        /* \"#utility.yul\":6419:6420   */\n      0x00\n        /* \"#utility.yul\":6408:6417   */\n      dup4\n        /* \"#utility.yul\":6404:6421   */\n      add\n        /* \"#utility.yul\":6395:6401   */\n      dup5\n        /* \"#utility.yul\":6331:6422   */\n      tag_347\n      jump\t// in\n    tag_448:\n        /* \"#utility.yul\":6167:6429   */\n      swap3\n      swap2\n      pop\n      pop\n      jump\t// out\n        /* \"#utility.yul\":6435:6544   */\n    tag_348:\n        /* \"#utility.yul\":6516:6537   */\n      tag_450\n        /* \"#utility.yul\":6531:6536   */\n      dup2\n        /* \"#utility.yul\":6516:6537   */\n      tag_334\n      jump\t// in\n    tag_450:\n        /* \"#utility.yul\":6511:6514   */\n      dup3\n        /* \"#utility.yul\":6504:6538   */\n      mstore\n        /* \"#utility.yul\":6435:6544   */\n      pop\n      pop\n      jump\t// out\n        /* \"#utility.yul\":6550:6760   */\n    tag_92:\n        /* \"#utility.yul\":6637:6641   */\n      0x00\n        /* \"#utility.yul\":6675:6677   */\n      0x20\n        /* \"#utility.yul\":6664:6673   */\n      dup3\n        /* \"#utility.yul\":6660:6678   */\n      add\n        /* \"#utility.yul\":6652:6678   */\n      swap1\n      pop\n        /* \"#utility.yul\":6688:6753   */\n      tag_452\n        /* \"#utility.yul\":6750:6751   */\n      0x00\n        /* \"#utility.yul\":6739:6748   */\n      dup4\n        /* \"#utility.yul\":6735:6752   */\n      add\n        /* \"#utility.yul\":6726:6732   */\n      dup5\n        /* \"#utility.yul\":6688:6753   */\n      tag_348\n      jump\t// in\n    tag_452:\n        /* \"#utility.yul\":6550:6760   */\n      swap3\n      swap2\n      pop\n      pop\n      jump\t// out\n        /* \"#utility.yul\":6766:7095   */\n    tag_96:\n        /* \"#utility.yul\":6825:6831   */\n      0x00\n        /* \"#utility.yul\":6874:6876   */\n      0x20\n        /* \"#utility.yul\":6862:6871   */\n      dup3\n        /* \"#utility.yul\":6853:6860   */\n      dup5\n        /* \"#utility.yul\":6849:6872   */\n      sub\n        /* \"#utility.yul\":6845:6877   */\n      slt\n        /* \"#utility.yul\":6842:6961   */\n      iszero\n      tag_454\n      jumpi\n        /* \"#utility.yul\":6880:6959   */\n      tag_455\n      tag_320\n      jump\t// in\n    tag_455:\n        /* \"#utility.yul\":6842:6961   */\n    tag_454:\n        /* \"#utility.yul\":7000:7001   */\n      0x00\n        /* \"#utility.yul\":7025:7078   */\n      tag_456\n        /* \"#utility.yul\":7070:7077   */\n      dup5\n        /* \"#utility.yul\":7061:7067   */\n      dup3\n        /* \"#utility.yul\":7050:7059   */\n      dup6\n        /* \"#utility.yul\":7046:7068   */\n      add\n        /* \"#utility.yul\":7025:7078   */\n      tag_325\n      jump\t// in\n    tag_456:\n        /* \"#utility.yul\":7015:7078   */\n      swap2\n      pop\n        /* \"#utility.yul\":6971:7088   */\n      pop\n        /* \"#utility.yul\":6766:7095   */\n      swap3\n      swap2\n      pop\n      pop\n      jump\t// out\n        /* \"#utility.yul\":7101:7209   */\n    tag_349:\n        /* \"#utility.yul\":7178:7202   */\n      tag_458\n        /* \"#utility.yul\":7196:7201   */\n      dup2\n        /* \"#utility.yul\":7178:7202   */\n      tag_329\n      jump\t// in\n    tag_458:\n        /* \"#utility.yul\":7173:7176   */\n      dup3\n        /* \"#utility.yul\":7166:7203   */\n      mstore\n        /* \"#utility.yul\":7101:7209   */\n      pop\n      pop\n      jump\t// out\n        /* \"#utility.yul\":7215:7323   */\n    tag_350:\n        /* \"#utility.yul\":7292:7316   */\n      tag_460\n        /* \"#utility.yul\":7310:7315   */\n      dup2\n        /* \"#utility.yul\":7292:7316   */\n      tag_323\n      jump\t// in\n    tag_460:\n        /* \"#utility.yul\":7287:7290   */\n      dup3\n        /* \"#utility.yul\":7280:7317   */\n      mstore\n        /* \"#utility.yul\":7215:7323   */\n      pop\n      pop\n      jump\t// out\n        /* \"#utility.yul\":7329:7437   */\n    tag_351:\n        /* \"#utility.yul\":7406:7430   */\n      tag_462\n        /* \"#utility.yul\":7424:7429   */\n      dup2\n        /* \"#utility.yul\":7406:7430   */\n      tag_337\n      jump\t// in\n    tag_462:\n        /* \"#utility.yul\":7401:7404   */\n      dup3\n        /* \"#utility.yul\":7394:7431   */\n      mstore\n        /* \"#utility.yul\":7329:7437   */\n      pop\n      pop\n      jump\t// out\n        /* \"#utility.yul\":7443:7623   */\n    tag_134:\n        /* \"#utility.yul\":7491:7568   */\n      0x4e487b7100000000000000000000000000000000000000000000000000000000\n        /* \"#utility.yul\":7488:7489   */\n      0x00\n        /* \"#utility.yul\":7481:7569   */\n      mstore\n        /* \"#utility.yul\":7588:7592   */\n      0x21\n        /* \"#utility.yul\":7585:7586   */\n      0x04\n        /* \"#utility.yul\":7578:7593   */\n      mstore\n        /* \"#utility.yul\":7612:7616   */\n      0x24\n        /* \"#utility.yul\":7609:7610   */\n      0x00\n        /* \"#utility.yul\":7602:7617   */\n      revert\n        /* \"#utility.yul\":7629:7748   */\n    tag_352:\n        /* \"#utility.yul\":7716:7717   */\n      0x07\n        /* \"#utility.yul\":7709:7714   */\n      dup2\n        /* \"#utility.yul\":7706:7718   */\n      lt\n        /* \"#utility.yul\":7696:7742   */\n      tag_465\n      jumpi\n        /* \"#utility.yul\":7722:7740   */\n      tag_466\n      tag_134\n      jump\t// in\n    tag_466:\n        /* \"#utility.yul\":7696:7742   */\n    tag_465:\n        /* \"#utility.yul\":7629:7748   */\n      pop\n      jump\t// out\n        /* \"#utility.yul\":7754:7893   */\n    tag_353:\n        /* \"#utility.yul\":7805:7812   */\n      0x00\n        /* \"#utility.yul\":7834:7839   */\n      dup2\n        /* \"#utility.yul\":7823:7839   */\n      swap1\n      pop\n        /* \"#utility.yul\":7840:7887   */\n      tag_468\n        /* \"#utility.yul\":7881:7886   */\n      dup3\n        /* \"#utility.yul\":7840:7887   */\n      tag_352\n      jump\t// in\n    tag_468:\n        /* \"#utility.yul\":7754:7893   */\n      swap2\n      swap1\n      pop\n      jump\t// out\n        /* \"#utility.yul\":7899:8038   */\n    tag_354:\n        /* \"#utility.yul\":7961:7970   */\n      0x00\n        /* \"#utility.yul\":7994:8032   */\n      tag_470\n        /* \"#utility.yul\":8026:8031   */\n      dup3\n        /* \"#utility.yul\":7994:8032   */\n      tag_353\n      jump\t// in\n    tag_470:\n        /* \"#utility.yul\":7981:8032   */\n      swap1\n      pop\n        /* \"#utility.yul\":7899:8038   */\n      swap2\n      swap1\n      pop\n      jump\t// out\n        /* \"#utility.yul\":8044:8189   */\n    tag_355:\n        /* \"#utility.yul\":8133:8182   */\n      tag_472\n        /* \"#utility.yul\":8176:8181   */\n      dup2\n        /* \"#utility.yul\":8133:8182   */\n      tag_354\n      jump\t// in\n    tag_472:\n        /* \"#utility.yul\":8128:8131   */\n      dup3\n        /* \"#utility.yul\":8121:8183   */\n      mstore\n        /* \"#utility.yul\":8044:8189   */\n      pop\n      pop\n      jump\t// out\n        /* \"#utility.yul\":8267:9666   */\n    tag_356:\n        /* \"#utility.yul\":8408:8412   */\n      0xe0\n        /* \"#utility.yul\":8403:8406   */\n      dup3\n        /* \"#utility.yul\":8399:8413   */\n      add\n        /* \"#utility.yul\":8493:8497   */\n      0x00\n        /* \"#utility.yul\":8486:8491   */\n      dup3\n        /* \"#utility.yul\":8482:8498   */\n      add\n        /* \"#utility.yul\":8476:8499   */\n      mload\n        /* \"#utility.yul\":8512:8575   */\n      tag_474\n        /* \"#utility.yul\":8569:8573   */\n      0x00\n        /* \"#utility.yul\":8564:8567   */\n      dup6\n        /* \"#utility.yul\":8560:8574   */\n      add\n        /* \"#utility.yul\":8546:8558   */\n      dup3\n        /* \"#utility.yul\":8512:8575   */\n      tag_349\n      jump\t// in\n    tag_474:\n        /* \"#utility.yul\":8423:8585   */\n      pop\n        /* \"#utility.yul\":8668:8672   */\n      0x20\n        /* \"#utility.yul\":8661:8666   */\n      dup3\n        /* \"#utility.yul\":8657:8673   */\n      add\n        /* \"#utility.yul\":8651:8674   */\n      mload\n        /* \"#utility.yul\":8687:8750   */\n      tag_475\n        /* \"#utility.yul\":8744:8748   */\n      0x20\n        /* \"#utility.yul\":8739:8742   */\n      dup6\n        /* \"#utility.yul\":8735:8749   */\n      add\n        /* \"#utility.yul\":8721:8733   */\n      dup3\n        /* \"#utility.yul\":8687:8750   */\n      tag_350\n      jump\t// in\n    tag_475:\n        /* \"#utility.yul\":8595:8760   */\n      pop\n        /* \"#utility.yul\":8844:8848   */\n      0x40\n        /* \"#utility.yul\":8837:8842   */\n      dup3\n        /* \"#utility.yul\":8833:8849   */\n      add\n        /* \"#utility.yul\":8827:8850   */\n      mload\n        /* \"#utility.yul\":8863:8926   */\n      tag_476\n        /* \"#utility.yul\":8920:8924   */\n      0x40\n        /* \"#utility.yul\":8915:8918   */\n      dup6\n        /* \"#utility.yul\":8911:8925   */\n      add\n        /* \"#utility.yul\":8897:8909   */\n      dup3\n        /* \"#utility.yul\":8863:8926   */\n      tag_350\n      jump\t// in\n    tag_476:\n        /* \"#utility.yul\":8770:8936   */\n      pop\n        /* \"#utility.yul\":9020:9024   */\n      0x60\n        /* \"#utility.yul\":9013:9018   */\n      dup3\n        /* \"#utility.yul\":9009:9025   */\n      add\n        /* \"#utility.yul\":9003:9026   */\n      mload\n        /* \"#utility.yul\":9039:9102   */\n      tag_477\n        /* \"#utility.yul\":9096:9100   */\n      0x60\n        /* \"#utility.yul\":9091:9094   */\n      dup6\n        /* \"#utility.yul\":9087:9101   */\n      add\n        /* \"#utility.yul\":9073:9085   */\n      dup3\n        /* \"#utility.yul\":9039:9102   */\n      tag_349\n      jump\t// in\n    tag_477:\n        /* \"#utility.yul\":8946:9112   */\n      pop\n        /* \"#utility.yul\":9199:9203   */\n      0x80\n        /* \"#utility.yul\":9192:9197   */\n      dup3\n        /* \"#utility.yul\":9188:9204   */\n      add\n        /* \"#utility.yul\":9182:9205   */\n      mload\n        /* \"#utility.yul\":9218:9281   */\n      tag_478\n        /* \"#utility.yul\":9275:9279   */\n      0x80\n        /* \"#utility.yul\":9270:9273   */\n      dup6\n        /* \"#utility.yul\":9266:9280   */\n      add\n        /* \"#utility.yul\":9252:9264   */\n      dup3\n        /* \"#utility.yul\":9218:9281   */\n      tag_349\n      jump\t// in\n    tag_478:\n        /* \"#utility.yul\":9122:9291   */\n      pop\n        /* \"#utility.yul\":9380:9384   */\n      0xa0\n        /* \"#utility.yul\":9373:9378   */\n      dup3\n        /* \"#utility.yul\":9369:9385   */\n      add\n        /* \"#utility.yul\":9363:9386   */\n      mload\n        /* \"#utility.yul\":9399:9462   */\n      tag_479\n        /* \"#utility.yul\":9456:9460   */\n      0xa0\n        /* \"#utility.yul\":9451:9454   */\n      dup6\n        /* \"#utility.yul\":9447:9461   */\n      add\n        /* \"#utility.yul\":9433:9445   */\n      dup3\n        /* \"#utility.yul\":9399:9462   */\n      tag_351\n      jump\t// in\n    tag_479:\n        /* \"#utility.yul\":9301:9472   */\n      pop\n        /* \"#utility.yul\":9555:9559   */\n      0xc0\n        /* \"#utility.yul\":9548:9553   */\n      dup3\n        /* \"#utility.yul\":9544:9560   */\n      add\n        /* \"#utility.yul\":9538:9561   */\n      mload\n        /* \"#utility.yul\":9574:9649   */\n      tag_480\n        /* \"#utility.yul\":9643:9647   */\n      0xc0\n        /* \"#utility.yul\":9638:9641   */\n      dup6\n        /* \"#utility.yul\":9634:9648   */\n      add\n        /* \"#utility.yul\":9620:9632   */\n      dup3\n        /* \"#utility.yul\":9574:9649   */\n      tag_355\n      jump\t// in\n    tag_480:\n        /* \"#utility.yul\":9482:9659   */\n      pop\n        /* \"#utility.yul\":8377:9666   */\n      pop\n        /* \"#utility.yul\":8267:9666   */\n      pop\n      pop\n      jump\t// out\n        /* \"#utility.yul\":9672:9983   */\n    tag_114:\n        /* \"#utility.yul\":9809:9813   */\n      0x00\n        /* \"#utility.yul\":9847:9850   */\n      0xe0\n        /* \"#utility.yul\":9836:9845   */\n      dup3\n        /* \"#utility.yul\":9832:9851   */\n      add\n        /* \"#utility.yul\":9824:9851   */\n      swap1\n      pop\n        /* \"#utility.yul\":9861:9976   */\n      tag_482\n        /* \"#utility.yul\":9973:9974   */\n      0x00\n        /* \"#utility.yul\":9962:9971   */\n      dup4\n        /* \"#utility.yul\":9958:9975   */\n      add\n        /* \"#utility.yul\":9949:9955   */\n      dup5\n        /* \"#utility.yul\":9861:9976   */\n      tag_356\n      jump\t// in\n    tag_482:\n        /* \"#utility.yul\":9672:9983   */\n      swap3\n      swap2\n      pop\n      pop\n      jump\t// out\n        /* \"#utility.yul\":9989:10144   */\n    tag_357:\n        /* \"#utility.yul\":10088:10137   */\n      tag_484\n        /* \"#utility.yul\":10131:10136   */\n      dup2\n        /* \"#utility.yul\":10088:10137   */\n      tag_354\n      jump\t// in\n    tag_484:\n        /* \"#utility.yul\":10083:10086   */\n      dup3\n        /* \"#utility.yul\":10076:10138   */\n      mstore\n        /* \"#utility.yul\":9989:10144   */\n      pop\n      pop\n      jump\t// out\n        /* \"#utility.yul\":10150:10506   */\n    tag_144:\n        /* \"#utility.yul\":10283:10287   */\n      0x00\n        /* \"#utility.yul\":10321:10323   */\n      0x40\n        /* \"#utility.yul\":10310:10319   */\n      dup3\n        /* \"#utility.yul\":10306:10324   */\n      add\n        /* \"#utility.yul\":10298:10324   */\n      swap1\n      pop\n        /* \"#utility.yul\":10334:10405   */\n      tag_486\n        /* \"#utility.yul\":10402:10403   */\n      0x00\n        /* \"#utility.yul\":10391:10400   */\n      dup4\n        /* \"#utility.yul\":10387:10404   */\n      add\n        /* \"#utility.yul\":10378:10384   */\n      dup6\n        /* \"#utility.yul\":10334:10405   */\n      tag_330\n      jump\t// in\n    tag_486:\n        /* \"#utility.yul\":10415:10499   */\n      tag_487\n        /* \"#utility.yul\":10495:10497   */\n      0x20\n        /* \"#utility.yul\":10484:10493   */\n      dup4\n        /* \"#utility.yul\":10480:10498   */\n      add\n        /* \"#utility.yul\":10471:10477   */\n      dup5\n        /* \"#utility.yul\":10415:10499   */\n      tag_357\n      jump\t// in\n    tag_487:\n        /* \"#utility.yul\":10150:10506   */\n      swap4\n      swap3\n      pop\n      pop\n      pop\n      jump\t// out\n        /* \"#utility.yul\":10512:10630   */\n    tag_358:\n        /* \"#utility.yul\":10599:10623   */\n      tag_489\n        /* \"#utility.yul\":10617:10622   */\n      dup2\n        /* \"#utility.yul\":10599:10623   */\n      tag_323\n      jump\t// in\n    tag_489:\n        /* \"#utility.yul\":10594:10597   */\n      dup3\n        /* \"#utility.yul\":10587:10624   */\n      mstore\n        /* \"#utility.yul\":10512:10630   */\n      pop\n      pop\n      jump\t// out\n        /* \"#utility.yul\":10636:11189   */\n    tag_148:\n        /* \"#utility.yul\":10813:10817   */\n      0x00\n        /* \"#utility.yul\":10851:10854   */\n      0x80\n        /* \"#utility.yul\":10840:10849   */\n      dup3\n        /* \"#utility.yul\":10836:10855   */\n      add\n        /* \"#utility.yul\":10828:10855   */\n      swap1\n      pop\n        /* \"#utility.yul\":10865:10936   */\n      tag_491\n        /* \"#utility.yul\":10933:10934   */\n      0x00\n        /* \"#utility.yul\":10922:10931   */\n      dup4\n        /* \"#utility.yul\":10918:10935   */\n      add\n        /* \"#utility.yul\":10909:10915   */\n      dup8\n        /* \"#utility.yul\":10865:10936   */\n      tag_330\n      jump\t// in\n    tag_491:\n        /* \"#utility.yul\":10946:11018   */\n      tag_492\n        /* \"#utility.yul\":11014:11016   */\n      0x20\n        /* \"#utility.yul\":11003:11012   */\n      dup4\n        /* \"#utility.yul\":10999:11017   */\n      add\n        /* \"#utility.yul\":10990:10996   */\n      dup7\n        /* \"#utility.yul\":10946:11018   */\n      tag_358\n      jump\t// in\n    tag_492:\n        /* \"#utility.yul\":11028:11100   */\n      tag_493\n        /* \"#utility.yul\":11096:11098   */\n      0x40\n        /* \"#utility.yul\":11085:11094   */\n      dup4\n        /* \"#utility.yul\":11081:11099   */\n      add\n        /* \"#utility.yul\":11072:11078   */\n      dup6\n        /* \"#utility.yul\":11028:11100   */\n      tag_358\n      jump\t// in\n    tag_493:\n        /* \"#utility.yul\":11110:11182   */\n      tag_494\n        /* \"#utility.yul\":11178:11180   */\n      0x60\n        /* \"#utility.yul\":11167:11176   */\n      dup4\n        /* \"#utility.yul\":11163:11181   */\n      add\n        /* \"#utility.yul\":11154:11160   */\n      dup5\n        /* \"#utility.yul\":11110:11182   */\n      tag_330\n      jump\t// in\n    tag_494:\n        /* \"#utility.yul\":10636:11189   */\n      swap6\n      swap5\n      pop\n      pop\n      pop\n      pop\n      pop\n      jump\t// out\n        /* \"#utility.yul\":11195:11527   */\n    tag_172:\n        /* \"#utility.yul\":11316:11320   */\n      0x00\n        /* \"#utility.yul\":11354:11356   */\n      0x40\n        /* \"#utility.yul\":11343:11352   */\n      dup3\n        /* \"#utility.yul\":11339:11357   */\n      add\n        /* \"#utility.yul\":11331:11357   */\n      swap1\n      pop\n        /* \"#utility.yul\":11367:11438   */\n      tag_496\n        /* \"#utility.yul\":11435:11436   */\n      0x00\n        /* \"#utility.yul\":11424:11433   */\n      dup4\n        /* \"#utility.yul\":11420:11437   */\n      add\n        /* \"#utility.yul\":11411:11417   */\n      dup6\n        /* \"#utility.yul\":11367:11438   */\n      tag_330\n      jump\t// in\n    tag_496:\n        /* \"#utility.yul\":11448:11520   */\n      tag_497\n        /* \"#utility.yul\":11516:11518   */\n      0x20\n        /* \"#utility.yul\":11505:11514   */\n      dup4\n        /* \"#utility.yul\":11501:11519   */\n      add\n        /* \"#utility.yul\":11492:11498   */\n      dup5\n        /* \"#utility.yul\":11448:11520   */\n      tag_330\n      jump\t// in\n    tag_497:\n        /* \"#utility.yul\":11195:11527   */\n      swap4\n      swap3\n      pop\n      pop\n      pop\n      jump\t// out\n        /* \"#utility.yul\":11533:11713   */\n    tag_359:\n        /* \"#utility.yul\":11581:11658   */\n      0x4e487b7100000000000000000000000000000000000000000000000000000000\n        /* \"#utility.yul\":11578:11579   */\n      0x00\n        /* \"#utility.yul\":11571:11659   */\n      mstore\n        /* \"#utility.yul\":11678:11682   */\n      0x11\n        /* \"#utility.yul\":11675:11676   */\n      0x04\n        /* \"#utility.yul\":11668:11683   */\n      mstore\n        /* \"#utility.yul\":11702:11706   */\n      0x24\n        /* \"#utility.yul\":11699:11700   */\n      0x00\n        /* \"#utility.yul\":11692:11707   */\n      revert\n        /* \"#utility.yul\":11719:11952   */\n    tag_243:\n        /* \"#utility.yul\":11758:11761   */\n      0x00\n        /* \"#utility.yul\":11781:11805   */\n      tag_500\n        /* \"#utility.yul\":11799:11804   */\n      dup3\n        /* \"#utility.yul\":11781:11805   */\n      tag_329\n      jump\t// in\n    tag_500:\n        /* \"#utility.yul\":11772:11805   */\n      swap2\n      pop\n        /* \"#utility.yul\":11827:11893   */\n      0xffffffffffffffffffffffffffffffffffffffffffffffffffffffffffffffff\n        /* \"#utility.yul\":11820:11825   */\n      dup3\n        /* \"#utility.yul\":11817:11894   */\n      sub\n        /* \"#utility.yul\":11814:11917   */\n      tag_501\n      jumpi\n        /* \"#utility.yul\":11897:11915   */\n      tag_502\n      tag_359\n      jump\t// in\n    tag_502:\n        /* \"#utility.yul\":11814:11917   */\n    tag_501:\n        /* \"#utility.yul\":11944:11945   */\n      0x01\n        /* \"#utility.yul\":11937:11942   */\n      dup3\n        /* \"#utility.yul\":11933:11946   */\n      add\n        /* \"#utility.yul\":11926:11946   */\n      swap1\n      pop\n        /* \"#utility.yul\":11719:11952   */\n      swap2\n      swap1\n      pop\n      jump\t// out\n        /* \"#utility.yul\":11958:12076   */\n    tag_360:\n        /* \"#utility.yul\":12045:12069   */\n      tag_504\n        /* \"#utility.yul\":12063:12068   */\n      dup2\n        /* \"#utility.yul\":12045:12069   */\n      tag_337\n      jump\t// in\n    tag_504:\n        /* \"#utility.yul\":12040:12043   */\n      dup3\n        /* \"#utility.yul\":12033:12070   */\n      mstore\n        /* \"#utility.yul\":11958:12076   */\n      pop\n      pop\n      jump\t// out\n        /* \"#utility.yul\":12082:12304   */\n    tag_249:\n        /* \"#utility.yul\":12175:12179   */\n      0x00\n        /* \"#utility.yul\":12213:12215   */\n      0x20\n        /* \"#utility.yul\":12202:12211   */\n      dup3\n        /* \"#utility.yul\":12198:12216   */\n      add\n        /* \"#utility.yul\":12190:12216   */\n      swap1\n      pop\n        /* \"#utility.yul\":12226:12297   */\n      tag_506\n        /* \"#utility.yul\":12294:12295   */\n      0x00\n        /* \"#utility.yul\":12283:12292   */\n      dup4\n        /* \"#utility.yul\":12279:12296   */\n      add\n        /* \"#utility.yul\":12270:12276   */\n      dup5\n        /* \"#utility.yul\":12226:12297   */\n      tag_360\n      jump\t// in\n    tag_506:\n        /* \"#utility.yul\":12082:12304   */\n      swap3\n      swap2\n      pop\n      pop\n      jump\t// out\n        /* \"#utility.yul\":12310:12642   */\n    tag_262:\n        /* \"#utility.yul\":12431:12435   */\n      0x00\n        /* \"#utility.yul\":12469:12471   */\n      0x40\n        /* \"#utility.yul\":12458:12467   */\n      dup3\n        /* \"#utility.yul\":12454:12472   */\n      add\n        /* \"#utility.yul\":12446:12472   */\n      swap1\n      pop\n        /* \"#utility.yul\":12482:12553   */\n      tag_508\n        /* \"#utility.yul\":12550:12551   */\n      0x00\n        /* \"#utility.yul\":12539:12548   */\n      dup4\n        /* \"#utility.yul\":12535:12552   */\n      add\n        /* \"#utility.yul\":12526:12532   */\n      dup6\n        /* \"#utility.yul\":12482:12553   */\n      tag_358\n      jump\t// in\n    tag_508:\n        /* \"#utility.yul\":12563:12635   */\n      tag_509\n        /* \"#utility.yul\":12631:12633   */\n      0x20\n        /* \"#utility.yul\":12620:12629   */\n      dup4\n        /* \"#utility.yul\":12616:12634   */\n      add\n        /* \"#utility.yul\":12607:12613   */\n      dup5\n        /* \"#utility.yul\":12563:12635   */\n      tag_358\n      jump\t// in\n    tag_509:\n        /* \"#utility.yul\":12310:12642   */\n      swap4\n      swap3\n      pop\n      pop\n      pop\n      jump\t// out\n        /* \"#utility.yul\":12648:13058   */\n    tag_303:\n        /* \"#utility.yul\":12688:12695   */\n      0x00\n        /* \"#utility.yul\":12711:12731   */\n      tag_511\n        /* \"#utility.yul\":12729:12730   */\n      dup3\n        /* \"#utility.yul\":12711:12731   */\n      tag_329\n      jump\t// in\n    tag_511:\n        /* \"#utility.yul\":12706:12731   */\n      swap2\n      pop\n        /* \"#utility.yul\":12745:12765   */\n      tag_512\n        /* \"#utility.yul\":12763:12764   */\n      dup4\n        /* \"#utility.yul\":12745:12765   */\n      tag_329\n      jump\t// in\n    tag_512:\n        /* \"#utility.yul\":12740:12765   */\n      swap3\n      pop\n        /* \"#utility.yul\":12800:12801   */\n      dup3\n        /* \"#utility.yul\":12797:12798   */\n      dup3\n        /* \"#utility.yul\":12793:12802   */\n      mul\n        /* \"#utility.yul\":12822:12852   */\n      tag_513\n        /* \"#utility.yul\":12840:12851   */\n      dup2\n        /* \"#utility.yul\":12822:12852   */\n      tag_329\n      jump\t// in\n    tag_513:\n        /* \"#utility.yul\":12811:12852   */\n      swap2\n      pop\n        /* \"#utility.yul\":13001:13002   */\n      dup3\n        /* \"#utility.yul\":12992:12999   */\n      dup3\n        /* \"#utility.yul\":12988:13003   */\n      div\n        /* \"#utility.yul\":12985:12986   */\n      dup5\n        /* \"#utility.yul\":12982:13004   */\n      eq\n        /* \"#utility.yul\":12962:12963   */\n      dup4\n        /* \"#utility.yul\":12955:12964   */\n      iszero\n        /* \"#utility.yul\":12935:13018   */\n      or\n        /* \"#utility.yul\":12912:13051   */\n      tag_514\n      jumpi\n        /* \"#utility.yul\":13031:13049   */\n      tag_515\n      tag_359\n      jump\t// in\n    tag_515:\n        /* \"#utility.yul\":12912:13051   */\n    tag_514:\n        /* \"#utility.yul\":12696:13058   */\n      pop\n        /* \"#utility.yul\":12648:13058   */\n      swap3\n      swap2\n      pop\n      pop\n      jump\t// out\n        /* \"#utility.yul\":13064:13244   */\n    tag_361:\n        /* \"#utility.yul\":13112:13189   */\n      0x4e487b7100000000000000000000000000000000000000000000000000000000\n        /* \"#utility.yul\":13109:13110   */\n      0x00\n        /* \"#utility.yul\":13102:13190   */\n      mstore\n        /* \"#utility.yul\":13209:13213   */\n      0x12\n        /* \"#utility.yul\":13206:13207   */\n      0x04\n        /* \"#utility.yul\":13199:13214   */\n      mstore\n        /* \"#utility.yul\":13233:13237   */\n      0x24\n        /* \"#utility.yul\":13230:13231   */\n      0x00\n        /* \"#utility.yul\":13223:13238   */\n      revert\n        /* \"#utility.yul\":13250:13435   */\n    tag_305:\n        /* \"#utility.yul\":13290:13291   */\n      0x00\n        /* \"#utility.yul\":13307:13327   */\n      tag_518\n        /* \"#utility.yul\":13325:13326   */\n      dup3\n        /* \"#utility.yul\":13307:13327   */\n      tag_329\n      jump\t// in\n    tag_518:\n        /* \"#utility.yul\":13302:13327   */\n      swap2\n      pop\n        /* \"#utility.yul\":13341:13361   */\n      tag_519\n        /* \"#utility.yul\":13359:13360   */\n      dup4\n        /* \"#utility.yul\":13341:13361   */\n      tag_329\n      jump\t// in\n    tag_519:\n        /* \"#utility.yul\":13336:13361   */\n      swap3\n      pop\n        /* \"#utility.yul\":13380:13381   */\n      dup3\n        /* \"#utility.yul\":13370:13405   */\n      tag_520\n      jumpi\n        /* \"#utility.yul\":13385:13403   */\n      tag_521\n      tag_361\n      jump\t// in\n    tag_521:\n        /* \"#utility.yul\":13370:13405   */\n    tag_520:\n        /* \"#utility.yul\":13427:13428   */\n      dup3\n        /* \"#utility.yul\":13424:13425   */\n      dup3\n        /* \"#utility.yul\":13420:13429   */\n      div\n        /* \"#utility.yul\":13415:13429   */\n      swap1\n      pop\n        /* \"#utility.yul\":13250:13435   */\n      swap3\n      swap2\n      pop\n      pop\n      jump\t// out\n        /* \"#utility.yul\":13441:13635   */\n    tag_307:\n        /* \"#utility.yul\":13481:13485   */\n      0x00\n        /* \"#utility.yul\":13501:13521   */\n      tag_523\n        /* \"#utility.yul\":13519:13520   */\n      dup3\n        /* \"#utility.yul\":13501:13521   */\n      tag_329\n      jump\t// in\n    tag_523:\n        /* \"#utility.yul\":13496:13521   */\n      swap2\n      pop\n        /* \"#utility.yul\":13535:13555   */\n      tag_524\n        /* \"#utility.yul\":13553:13554   */\n      dup4\n        /* \"#utility.yul\":13535:13555   */\n      tag_329\n      jump\t// in\n    tag_524:\n        /* \"#utility.yul\":13530:13555   */\n      swap3\n      pop\n        /* \"#utility.yul\":13579:13580   */\n      dup3\n        /* \"#utility.yul\":13576:13577   */\n      dup3\n        /* \"#utility.yul\":13572:13581   */\n      sub\n        /* \"#utility.yul\":13564:13581   */\n      swap1\n      pop\n        /* \"#utility.yul\":13603:13604   */\n      dup2\n        /* \"#utility.yul\":13597:13601   */\n      dup2\n        /* \"#utility.yul\":13594:13605   */\n      gt\n        /* \"#utility.yul\":13591:13628   */\n      iszero\n      tag_525\n      jumpi\n        /* \"#utility.yul\":13608:13626   */\n      tag_526\n      tag_359\n      jump\t// in\n    tag_526:\n        /* \"#utility.yul\":13591:13628   */\n    tag_525:\n        /* \"#utility.yul\":13441:13635   */\n      swap3\n      swap2\n      pop\n      pop\n      jump\t// out\n        /* \"#utility.yul\":13641:13788   */\n    tag_362:\n        /* \"#utility.yul\":13742:13753   */\n      0x00\n        /* \"#utility.yul\":13779:13782   */\n      dup2\n        /* \"#utility.yul\":13764:13782   */\n      swap1\n      pop\n        /* \"#utility.yul\":13641:13788   */\n      swap3\n      swap2\n      pop\n      pop\n      jump\t// out\n        /* \"#utility.yul\":13794:13908   */\n    tag_363:\n      pop\n      jump\t// out\n        /* \"#utility.yul\":13914:14312   */\n    tag_364:\n        /* \"#utility.yul\":14073:14076   */\n      0x00\n        /* \"#utility.yul\":14094:14177   */\n      tag_530\n        /* \"#utility.yul\":14175:14176   */\n      0x00\n        /* \"#utility.yul\":14170:14173   */\n      dup4\n        /* \"#utility.yul\":14094:14177   */\n      tag_362\n      jump\t// in\n    tag_530:\n        /* \"#utility.yul\":14087:14177   */\n      swap2\n      pop\n        /* \"#utility.yul\":14186:14279   */\n      tag_531\n        /* \"#utility.yul\":14275:14278   */\n      dup3\n        /* \"#utility.yul\":14186:14279   */\n      tag_363\n      jump\t// in\n    tag_531:\n        /* \"#utility.yul\":14304:14305   */\n      0x00\n        /* \"#utility.yul\":14299:14302   */\n      dup3\n        /* \"#utility.yul\":14295:14306   */\n      add\n        /* \"#utility.yul\":14288:14306   */\n      swap1\n      pop\n        /* \"#utility.yul\":13914:14312   */\n      swap2\n      swap1\n      pop\n      jump\t// out\n        /* \"#utility.yul\":14318:14697   */\n    tag_311:\n        /* \"#utility.yul\":14502:14505   */\n      0x00\n        /* \"#utility.yul\":14524:14671   */\n      tag_533\n        /* \"#utility.yul\":14667:14670   */\n      dup3\n        /* \"#utility.yul\":14524:14671   */\n      tag_364\n      jump\t// in\n    tag_533:\n        /* \"#utility.yul\":14517:14671   */\n      swap2\n      pop\n        /* \"#utility.yul\":14688:14691   */\n      dup2\n        /* \"#utility.yul\":14681:14691   */\n      swap1\n      pop\n        /* \"#utility.yul\":14318:14697   */\n      swap2\n      swap1\n      pop\n      jump\t// out\n\n    auxdata: 0xa2646970667358221220bd739b88c94a3197c9c0b4ee8dd34703d600e5be2101cfa16639bb2a549eedcf64736f6c634300081f0033\n}\n",
				"bytecode": {
					"linkReferences": {},
					"object": "60a060405260016002556064600555348015610019575f5ffd5b50604051612c7c380380612c7c833981810160405281019061003b91906102de565b61004c33600161019160201b60201c565b5f73ffffffffffffffffffffffffffffffffffffffff168273ffffffffffffffffffffffffffffffffffffffff16036100b1576040517fd92e233d00000000000000000000000000000000000000000000000000000000815260040160405180910390fd5b5f73ffffffffffffffffffffffffffffffffffffffff168173ffffffffffffffffffffffffffffffffffffffff1603610116576040517fd92e233d00000000000000000000000000000000000000000000000000000000815260040160405180910390fd5b8173ffffffffffffffffffffffffffffffffffffffff1660808173ffffffffffffffffffffffffffffffffffffffff16815250508060015f6101000a81548173ffffffffffffffffffffffffffffffffffffffff021916908373ffffffffffffffffffffffffffffffffffffffff160217905550505061031c565b60015f5f8473ffffffffffffffffffffffffffffffffffffffff1673ffffffffffffffffffffffffffffffffffffffff1681526020019081526020015f205f8360ff1660ff1681526020019081526020015f205f6101000a81548160ff0219169083151502179055508060ff168273ffffffffffffffffffffffffffffffffffffffff167faa259565575c834bc07e74dca784b4071676133ac78513b431afb6ee7edae12160405160405180910390a35050565b5f5ffd5b5f73ffffffffffffffffffffffffffffffffffffffff82169050919050565b5f61027282610249565b9050919050565b61028281610268565b811461028c575f5ffd5b50565b5f8151905061029d81610279565b92915050565b5f6102ad82610249565b9050919050565b6102bd816102a3565b81146102c7575f5ffd5b50565b5f815190506102d8816102b4565b92915050565b5f5f604083850312156102f4576102f3610245565b5b5f6103018582860161028f565b9250506020610312858286016102ca565b9150509250929050565b60805161293a6103425f395f8181610b5901528181610e230152611687015261293a5ff3fe608060405260043610610129575f3560e01c806361d027b3116100aa578063b21704091161006e578063b2170409146103b5578063b9c4d0a7146103df578063bca93eba146103fb578063d09ef24114610425578063d55be8c614610461578063eed90d6b1461048b57610129565b806361d027b3146102d55780636cc6cde1146102ff5780639012c4a81461032957806395a8c58d14610351578063b0eefabe1461038d57610129565b806334b25ee2116100f157806334b25ee2146101f957806339292763146102215780633e8402361461024957806341e8a42a146102715780634d471e851461029957610129565b8063077d3c031461012d57806324a9d8531461015557806327d00fb01461017f57806327dac36d146101a75780632a0acc6a146101cf575b5f5ffd5b348015610138575f5ffd5b50610153600480360381019061014e919061225a565b6104b3565b005b348015610160575f5ffd5b50610169610662565b60405161017691906122b0565b60405180910390f35b34801561018a575f5ffd5b506101a560048036038101906101a091906122f3565b610668565b005b3480156101b2575f5ffd5b506101cd60048036038101906101c891906122f3565b61091c565b005b3480156101da575f5ffd5b506101e3610b9d565b6040516101f0919061232d565b60405180910390f35b348015610204575f5ffd5b5061021f600480360381019061021a919061237b565b610ba2565b005b34801561022c575f5ffd5b50610247600480360381019061024291906122f3565b610f09565b005b348015610254575f5ffd5b5061026f600480360381019061026a919061225a565b611152565b005b34801561027c575f5ffd5b50610297600480360381019061029291906122f3565b61126e565b005b3480156102a4575f5ffd5b506102bf60048036038101906102ba91906123ec565b6113f4565b6040516102cc91906122b0565b60405180910390f35b3480156102e0575f5ffd5b506102e9611685565b6040516102f69190612485565b60405180910390f35b34801561030a575f5ffd5b506103136116a9565b60405161032091906124cf565b60405180910390f35b348015610334575f5ffd5b5061034f600480360381019061034a91906122f3565b6116ce565b005b34801561035c575f5ffd5b506103776004803603810190610372919061225a565b6117f5565b60405161038491906124f7565b60405180910390f35b348015610398575f5ffd5b506103b360048036038101906103ae9190612510565b61185c565b005b3480156103c0575f5ffd5b506103c96119f5565b6040516103d6919061232d565b60405180910390f35b6103f960048036038101906103f491906122f3565b6119fa565b005b348015610406575f5ffd5b5061040f611c4e565b60405161041c919061232d565b60405180910390f35b348015610430575f5ffd5b5061044b600480360381019061044691906122f3565b611c53565b6040516104589190612667565b60405180910390f35b34801561046c575f5ffd5b50610475611d81565b60405161048291906122b0565b60405180910390f35b348015610496575f5ffd5b506104b160048036038101906104ac91906122f3565b611d87565b005b60015f5f3373ffffffffffffffffffffffffffffffffffffffff1673ffffffffffffffffffffffffffffffffffffffff1681526020019081526020015f205f8260ff1660ff1681526020019081526020015f205f9054906101000a900460ff16610549576040517f82b4290000000000000000000000000000000000000000000000000000000000815260040160405180910390fd5b5f73ffffffffffffffffffffffffffffffffffffffff168373ffffffffffffffffffffffffffffffffffffffff16036105ae576040517fd92e233d00000000000000000000000000000000000000000000000000000000815260040160405180910390fd5b5f5f5f8573ffffffffffffffffffffffffffffffffffffffff1673ffffffffffffffffffffffffffffffffffffffff1681526020019081526020015f205f8460ff1660ff1681526020019081526020015f205f6101000a81548160ff0219169083151502179055508160ff168373ffffffffffffffffffffffffffffffffffffffff167f34a1009b84e077aee5bc8197faf7105e54f9ba6879e2a51a716e4156ea9ad76960405160405180910390a3505050565b60055481565b5f61067282611f0e565b9050806001015f9054906101000a900473ffffffffffffffffffffffffffffffffffffffff1673ffffffffffffffffffffffffffffffffffffffff163373ffffffffffffffffffffffffffffffffffffffff161461070757816040517f09b4c33d0000000000000000000000000000000000000000000000000000000081526004016106fe91906122b0565b60405180910390fd5b6001600681111561071b5761071a612568565b5b816006015f9054906101000a900460ff16600681111561073e5761073d612568565b5b1415801561078157506002600681111561075b5761075a612568565b5b816006015f9054906101000a900460ff16600681111561077e5761077d612568565b5b14155b156107d55781816006015f9054906101000a900460ff166040517f0a5889e50000000000000000000000000000000000000000000000000000000081526004016107cc92919061268f565b60405180910390fd5b6004816006015f6101000a81548160ff021916908360068111156107fc576107fb612568565b5b02179055503373ffffffffffffffffffffffffffffffffffffffff16827f44f3c3ed15c708331582bc379d28659a58f183a563abe41aa4c8889db469f71c60405160405180910390a360015f9054906101000a900473ffffffffffffffffffffffffffffffffffffffff1673ffffffffffffffffffffffffffffffffffffffff1663a4adcdd083836001015f9054906101000a900473ffffffffffffffffffffffffffffffffffffffff16846002015f9054906101000a900473ffffffffffffffffffffffffffffffffffffffff1685600301546040518563ffffffff1660e01b81526004016108ef94939291906126c5565b5f604051808303815f87803b158015610906575f5ffd5b505af1925050508015610917575060015b505050565b60035f9054906101000a900460ff1615610962576040517f9396d15600000000000000000000000000000000000000000000000000000000815260040160405180910390fd5b600160035f6101000a81548160ff0219169083151502179055505f60045f8381526020019081526020015f209050806001015f9054906101000a900473ffffffffffffffffffffffffffffffffffffffff1673ffffffffffffffffffffffffffffffffffffffff163373ffffffffffffffffffffffffffffffffffffffff1614610a2357816040517f09b4c33d000000000000000000000000000000000000000000000000000000008152600401610a1a91906122b0565b60405180910390fd5b60026006811115610a3757610a36612568565b5b816006015f9054906101000a900460ff166006811115610a5a57610a59612568565b5b14610aae5781816006015f9054906101000a900460ff166040517f0a5889e5000000000000000000000000000000000000000000000000000000008152600401610aa592919061268f565b60405180910390fd5b6003816006015f6101000a81548160ff02191690836006811115610ad557610ad4612568565b5b02179055505f5f610ae98360030154611fbf565b91509150837fc4bfc30eeb4d37af0bfe8327e0acfdc5e10da19745a4677dd5f4244993d7ca988383604051610b1f929190612708565b60405180910390a2610b54836002015f9054906101000a900473ffffffffffffffffffffffffffffffffffffffff1683611ff1565b610b7e7f000000000000000000000000000000000000000000000000000000000000000082611ff1565b5050505f60035f6101000a81548160ff02191690831515021790555050565b600181565b60035f9054906101000a900460ff1615610be8576040517f9396d15600000000000000000000000000000000000000000000000000000000815260040160405180910390fd5b600160035f6101000a81548160ff02191690831515021790555060035f5f3373ffffffffffffffffffffffffffffffffffffffff1673ffffffffffffffffffffffffffffffffffffffff1681526020019081526020015f205f8260ff1660ff1681526020019081526020015f205f9054906101000a900460ff16610c98576040517f82b4290000000000000000000000000000000000000000000000000000000000815260040160405180910390fd5b5f610ca284611f0e565b905060046006811115610cb857610cb7612568565b5b816006015f9054906101000a900460ff166006811115610cdb57610cda612568565b5b14610d2f5783816006015f9054906101000a900460ff166040517f0a5889e5000000000000000000000000000000000000000000000000000000008152600401610d2692919061268f565b60405180910390fd5b8215610d66576003816006015f6101000a81548160ff02191690836006811115610d5c57610d5b612568565b5b0217905550610d93565b6005816006015f6101000a81548160ff02191690836006811115610d8d57610d8c612568565b5b02179055505b837f5a87909bff68caaaaf0b3fd9c74eeccc928832f879315e5c6fb7a73612f26c0c84604051610dc391906124f7565b60405180910390a28215610e7c575f5f610de08360030154611fbf565b91509150857fc4bfc30eeb4d37af0bfe8327e0acfdc5e10da19745a4677dd5f4244993d7ca988383604051610e16929190612708565b60405180910390a2610e487f000000000000000000000000000000000000000000000000000000000000000082611ff1565b610e75836002015f9054906101000a900473ffffffffffffffffffffffffffffffffffffffff1683611ff1565b5050610eea565b837fb7c1f9298a18c36af08bd57eabbfbeb04695f24d0438f67614741ec15fb5c4a98260030154604051610eb091906122b0565b60405180910390a2610ee9816001015f9054906101000a900473ffffffffffffffffffffffffffffffffffffffff168260030154611ff1565b5b50505f60035f6101000a81548160ff0219169083151502179055505050565b60035f9054906101000a900460ff1615610f4f576040517f9396d15600000000000000000000000000000000000000000000000000000000815260040160405180910390fd5b600160035f6101000a81548160ff02191690831515021790555060035f5f3373ffffffffffffffffffffffffffffffffffffffff1673ffffffffffffffffffffffffffffffffffffffff1681526020019081526020015f205f8260ff1660ff1681526020019081526020015f205f9054906101000a900460ff16610fff576040517f82b4290000000000000000000000000000000000000000000000000000000000815260040160405180910390fd5b5f61100983611f0e565b90506004600681111561101f5761101e612568565b5b816006015f9054906101000a900460ff16600681111561104257611041612568565b5b146110965782816006015f9054906101000a900460ff166040517f0a5889e500000000000000000000000000000000000000000000000000000000815260040161108d92919061268f565b60405180910390fd5b5f816003015490506005826006015f6101000a81548160ff021916908360068111156110c5576110c4612568565b5b0217905550837fb7c1f9298a18c36af08bd57eabbfbeb04695f24d0438f67614741ec15fb5c4a983600301546040516110fe91906122b0565b60405180910390a2611133826001015f9054906101000a900473ffffffffffffffffffffffffffffffffffffffff1682611ff1565b5050505f60035f6101000a81548160ff02191690831515021790555050565b60015f5f3373ffffffffffffffffffffffffffffffffffffffff1673ffffffffffffffffffffffffffffffffffffffff1681526020019081526020015f205f8260ff1660ff1681526020019081526020015f205f9054906101000a900460ff166111e8576040517f82b4290000000000000000000000000000000000000000000000000000000000815260040160405180910390fd5b5f73ffffffffffffffffffffffffffffffffffffffff168373ffffffffffffffffffffffffffffffffffffffff1614806112285750600160ff168260ff16145b1561125f576040517f82b4290000000000000000000000000000000000000000000000000000000000815260040160405180910390fd5b611269838361209e565b505050565b5f61127882611f0e565b90503373ffffffffffffffffffffffffffffffffffffffff16816001015f9054906101000a900473ffffffffffffffffffffffffffffffffffffffff1673ffffffffffffffffffffffffffffffffffffffff161461130d57816040517f09b4c33d00000000000000000000000000000000000000000000000000000000815260040161130491906122b0565b60405180910390fd5b5f60068111156113205761131f612568565b5b816006015f9054906101000a900460ff16600681111561134357611342612568565b5b146113975781816006015f9054906101000a900460ff166040517f0a5889e500000000000000000000000000000000000000000000000000000000815260040161138e92919061268f565b60405180910390fd5b6006816006015f6101000a81548160ff021916908360068111156113be576113bd612568565b5b0217905550817fc41d93b8bfbf9fd7cf5bfe271fd649ab6a6fec0ea101c23b82a2a28eca2533a960405160405180910390a25050565b5f3373ffffffffffffffffffffffffffffffffffffffff168373ffffffffffffffffffffffffffffffffffffffff160361145a576040517f82b4290000000000000000000000000000000000000000000000000000000000815260040160405180910390fd5b6114658360026117f5565b61149b576040517f82b4290000000000000000000000000000000000000000000000000000000000815260040160405180910390fd5b60025f8154809291906114ad9061275c565b9190505590506040518060e001604052808281526020013373ffffffffffffffffffffffffffffffffffffffff1681526020018473ffffffffffffffffffffffffffffffffffffffff1681526020015f81526020014281526020018381526020015f600681111561152157611520612568565b5b81525060045f8381526020019081526020015f205f820151815f01556020820151816001015f6101000a81548173ffffffffffffffffffffffffffffffffffffffff021916908373ffffffffffffffffffffffffffffffffffffffff1602179055506040820151816002015f6101000a81548173ffffffffffffffffffffffffffffffffffffffff021916908373ffffffffffffffffffffffffffffffffffffffff160217905550606082015181600301556080820151816004015560a0820151816005015560c0820151816006015f6101000a81548160ff0219169083600681111561161157611610612568565b5b02179055509050508273ffffffffffffffffffffffffffffffffffffffff163373ffffffffffffffffffffffffffffffffffffffff16827f7de7bde3ca286d550a77f3d882ed0362f8a4d6200740c1cfcab9a661088c36098560405161167791906127b2565b60405180910390a492915050565b7f000000000000000000000000000000000000000000000000000000000000000081565b60015f9054906101000a900473ffffffffffffffffffffffffffffffffffffffff1681565b60015f5f3373ffffffffffffffffffffffffffffffffffffffff1673ffffffffffffffffffffffffffffffffffffffff1681526020019081526020015f205f8260ff1660ff1681526020019081526020015f205f9054906101000a900460ff16611764576040517f82b4290000000000000000000000000000000000000000000000000000000000815260040160405180910390fd5b6101f48211156117af57816101f46040517fe757126a0000000000000000000000000000000000000000000000000000000081526004016117a6929190612708565b60405180910390fd5b7f528d9479e9f9889a87a3c30c7f7ba537e5e59c4c85a37733b16e57c62df61302600554836040516117e2929190612708565b60405180910390a1816005819055505050565b5f5f5f8473ffffffffffffffffffffffffffffffffffffffff1673ffffffffffffffffffffffffffffffffffffffff1681526020019081526020015f205f8360ff1660ff1681526020019081526020015f205f9054906101000a900460ff16905092915050565b60015f5f3373ffffffffffffffffffffffffffffffffffffffff1673ffffffffffffffffffffffffffffffffffffffff1681526020019081526020015f205f8260ff1660ff1681526020019081526020015f205f9054906101000a900460ff166118f2576040517f82b4290000000000000000000000000000000000000000000000000000000000815260040160405180910390fd5b5f73ffffffffffffffffffffffffffffffffffffffff168273ffffffffffffffffffffffffffffffffffffffff1603611957576040517fd92e233d00000000000000000000000000000000000000000000000000000000815260040160405180910390fd5b7f0a4eb09e14cf0b6177b79042a04365517d9b189a50ec69eaabc40a6440103c9060015f9054906101000a900473ffffffffffffffffffffffffffffffffffffffff16836040516119a99291906127cb565b60405180910390a18160015f6101000a81548173ffffffffffffffffffffffffffffffffffffffff021916908373ffffffffffffffffffffffffffffffffffffffff1602179055505050565b600381565b60035f9054906101000a900460ff1615611a40576040517f9396d15600000000000000000000000000000000000000000000000000000000815260040160405180910390fd5b600160035f6101000a81548160ff0219169083151502179055505f60045f8381526020019081526020015f2090503373ffffffffffffffffffffffffffffffffffffffff16816001015f9054906101000a900473ffffffffffffffffffffffffffffffffffffffff1673ffffffffffffffffffffffffffffffffffffffff1614611b0157816040517f09b4c33d000000000000000000000000000000000000000000000000000000008152600401611af891906122b0565b60405180910390fd5b5f6006811115611b1457611b13612568565b5b816006015f9054906101000a900460ff166006811115611b3757611b36612568565b5b14611b8b5781816006015f9054906101000a900460ff166040517f0a5889e5000000000000000000000000000000000000000000000000000000008152600401611b8292919061268f565b60405180910390fd5b5f3403611bc4576040517f1f2a200500000000000000000000000000000000000000000000000000000000815260040160405180910390fd5b3481600301819055506001816006015f6101000a81548160ff02191690836006811115611bf457611bf3612568565b5b0217905550817f86441ec7b38b2d00ecf92f8283f1303d21d33149d841dc49c80f1bde8f7c388634604051611c2991906122b0565b60405180910390a2505f60035f6101000a81548160ff02191690831515021790555050565b600281565b611c5b612152565b611c6482611f0e565b6040518060e00160405290815f8201548152602001600182015f9054906101000a900473ffffffffffffffffffffffffffffffffffffffff1673ffffffffffffffffffffffffffffffffffffffff1673ffffffffffffffffffffffffffffffffffffffff168152602001600282015f9054906101000a900473ffffffffffffffffffffffffffffffffffffffff1673ffffffffffffffffffffffffffffffffffffffff1673ffffffffffffffffffffffffffffffffffffffff168152602001600382015481526020016004820154815260200160058201548152602001600682015f9054906101000a900460ff166006811115611d6457611d63612568565b5b6006811115611d7657611d75612568565b5b815250509050919050565b6101f481565b5f611d9182611f0e565b9050806002015f9054906101000a900473ffffffffffffffffffffffffffffffffffffffff1673ffffffffffffffffffffffffffffffffffffffff163373ffffffffffffffffffffffffffffffffffffffff1614611e2657816040517fa7e67778000000000000000000000000000000000000000000000000000000008152600401611e1d91906122b0565b60405180910390fd5b60016006811115611e3a57611e39612568565b5b816006015f9054906101000a900460ff166006811115611e5d57611e5c612568565b5b14611eb15781816006015f9054906101000a900460ff166040517f0a5889e5000000000000000000000000000000000000000000000000000000008152600401611ea892919061268f565b60405180910390fd5b6002816006015f6101000a81548160ff02191690836006811115611ed857611ed7612568565b5b0217905550817fe3ce5f36666aec295b2ed1a858caf4782066e5e8c1a5a5da7ba6551b14fcfdcb60405160405180910390a25050565b5f5f60045f8481526020019081526020015f2090505f73ffffffffffffffffffffffffffffffffffffffff16816001015f9054906101000a900473ffffffffffffffffffffffffffffffffffffffff1673ffffffffffffffffffffffffffffffffffffffff1603611fb657826040517f4e90badc000000000000000000000000000000000000000000000000000000008152600401611fad91906122b0565b60405180910390fd5b80915050919050565b5f5f61271060055484611fd291906127f2565b611fdc9190612860565b90508083611fea9190612890565b9150915091565b5f81031561209a575f8273ffffffffffffffffffffffffffffffffffffffff168260405161201e906128f0565b5f6040518083038185875af1925050503d805f8114612058576040519150601f19603f3d011682016040523d82523d5f602084013e61205d565b606091505b5050905080612098576040517f90b8ec1800000000000000000000000000000000000000000000000000000000815260040160405180910390fd5b505b5050565b60015f5f8473ffffffffffffffffffffffffffffffffffffffff1673ffffffffffffffffffffffffffffffffffffffff1681526020019081526020015f205f8360ff1660ff1681526020019081526020015f205f6101000a81548160ff0219169083151502179055508060ff168273ffffffffffffffffffffffffffffffffffffffff167faa259565575c834bc07e74dca784b4071676133ac78513b431afb6ee7edae12160405160405180910390a35050565b6040518060e001604052805f81526020015f73ffffffffffffffffffffffffffffffffffffffff1681526020015f73ffffffffffffffffffffffffffffffffffffffff1681526020015f81526020015f81526020015f81526020015f60068111156121c0576121bf612568565b5b81525090565b5f5ffd5b5f73ffffffffffffffffffffffffffffffffffffffff82169050919050565b5f6121f3826121ca565b9050919050565b612203816121e9565b811461220d575f5ffd5b50565b5f8135905061221e816121fa565b92915050565b5f60ff82169050919050565b61223981612224565b8114612243575f5ffd5b50565b5f8135905061225481612230565b92915050565b5f5f604083850312156122705761226f6121c6565b5b5f61227d85828601612210565b925050602061228e85828601612246565b9150509250929050565b5f819050919050565b6122aa81612298565b82525050565b5f6020820190506122c35f8301846122a1565b92915050565b6122d281612298565b81146122dc575f5ffd5b50565b5f813590506122ed816122c9565b92915050565b5f60208284031215612308576123076121c6565b5b5f612315848285016122df565b91505092915050565b61232781612224565b82525050565b5f6020820190506123405f83018461231e565b92915050565b5f8115159050919050565b61235a81612346565b8114612364575f5ffd5b50565b5f8135905061237581612351565b92915050565b5f5f60408385031215612391576123906121c6565b5b5f61239e858286016122df565b92505060206123af85828601612367565b9150509250929050565b5f819050919050565b6123cb816123b9565b81146123d5575f5ffd5b50565b5f813590506123e6816123c2565b92915050565b5f5f60408385031215612402576124016121c6565b5b5f61240f85828601612210565b9250506020612420858286016123d8565b9150509250929050565b5f819050919050565b5f61244d612448612443846121ca565b61242a565b6121ca565b9050919050565b5f61245e82612433565b9050919050565b5f61246f82612454565b9050919050565b61247f81612465565b82525050565b5f6020820190506124985f830184612476565b92915050565b5f6124a882612433565b9050919050565b5f6124b98261249e565b9050919050565b6124c9816124af565b82525050565b5f6020820190506124e25f8301846124c0565b92915050565b6124f181612346565b82525050565b5f60208201905061250a5f8301846124e8565b92915050565b5f60208284031215612525576125246121c6565b5b5f61253284828501612210565b91505092915050565b61254481612298565b82525050565b612553816121e9565b82525050565b612562816123b9565b82525050565b7f4e487b71000000000000000000000000000000000000000000000000000000005f52602160045260245ffd5b600781106125a6576125a5612568565b5b50565b5f8190506125b682612595565b919050565b5f6125c5826125a9565b9050919050565b6125d5816125bb565b82525050565b60e082015f8201516125ef5f85018261253b565b506020820151612602602085018261254a565b506040820151612615604085018261254a565b506060820151612628606085018261253b565b50608082015161263b608085018261253b565b5060a082015161264e60a0850182612559565b5060c082015161266160c08501826125cc565b50505050565b5f60e08201905061267a5f8301846125db565b92915050565b612689816125bb565b82525050565b5f6040820190506126a25f8301856122a1565b6126af6020830184612680565b9392505050565b6126bf816121e9565b82525050565b5f6080820190506126d85f8301876122a1565b6126e560208301866126b6565b6126f260408301856126b6565b6126ff60608301846122a1565b95945050505050565b5f60408201905061271b5f8301856122a1565b61272860208301846122a1565b9392505050565b7f4e487b71000000000000000000000000000000000000000000000000000000005f52601160045260245ffd5b5f61276682612298565b91507fffffffffffffffffffffffffffffffffffffffffffffffffffffffffffffffff82036127985761279761272f565b5b600182019050919050565b6127ac816123b9565b82525050565b5f6020820190506127c55f8301846127a3565b92915050565b5f6040820190506127de5f8301856126b6565b6127eb60208301846126b6565b9392505050565b5f6127fc82612298565b915061280783612298565b925082820261281581612298565b9150828204841483151761282c5761282b61272f565b5b5092915050565b7f4e487b71000000000000000000000000000000000000000000000000000000005f52601260045260245ffd5b5f61286a82612298565b915061287583612298565b92508261288557612884612833565b5b828204905092915050565b5f61289a82612298565b91506128a583612298565b92508282039050818111156128bd576128bc61272f565b5b92915050565b5f81905092915050565b50565b5f6128db5f836128c3565b91506128e6826128cd565b5f82019050919050565b5f6128fa826128d0565b915081905091905056fea2646970667358221220bd739b88c94a3197c9c0b4ee8dd34703d600e5be2101cfa16639bb2a549eedcf64736f6c634300081f0033",
					"opcodes": "PUSH1 0xA0 PUSH1 0x40 MSTORE PUSH1 0x1 PUSH1 0x2 SSTORE PUSH1 0x64 PUSH1 0x5 SSTORE CALLVALUE DUP1 ISZERO PUSH2 0x19 JUMPI PUSH0 PUSH0 REVERT JUMPDEST POP PUSH1 0x40 MLOAD PUSH2 0x2C7C CODESIZE SUB DUP1 PUSH2 0x2C7C DUP4 CODECOPY DUP2 DUP2 ADD PUSH1 0x40 MSTORE DUP2 ADD SWAP1 PUSH2 0x3B SWAP2 SWAP1 PUSH2 0x2DE JUMP JUMPDEST PUSH2 0x4C CALLER PUSH1 0x1 PUSH2 0x191 PUSH1 0x20 SHL PUSH1 0x20 SHR JUMP JUMPDEST PUSH0 PUSH20 0xFFFFFFFFFFFFFFFFFFFFFFFFFFFFFFFFFFFFFFFF AND DUP3 PUSH20 0xFFFFFFFFFFFFFFFFFFFFFFFFFFFFFFFFFFFFFFFF AND SUB PUSH2 0xB1 JUMPI PUSH1 0x40 MLOAD PUSH32 0xD92E233D00000000000000000000000000000000000000000000000000000000 DUP2 MSTORE PUSH1 0x4 ADD PUSH1 0x40 MLOAD DUP1 SWAP2 SUB SWAP1 REVERT JUMPDEST PUSH0 PUSH20 0xFFFFFFFFFFFFFFFFFFFFFFFFFFFFFFFFFFFFFFFF AND DUP2 PUSH20 0xFFFFFFFFFFFFFFFFFFFFFFFFFFFFFFFFFFFFFFFF AND SUB PUSH2 0x116 JUMPI PUSH1 0x40 MLOAD PUSH32 0xD92E233D00000000000000000000000000000000000000000000000000000000 DUP2 MSTORE PUSH1 0x4 ADD PUSH1 0x40 MLOAD DUP1 SWAP2 SUB SWAP1 REVERT JUMPDEST DUP2 PUSH20 0xFFFFFFFFFFFFFFFFFFFFFFFFFFFFFFFFFFFFFFFF AND PUSH1 0x80 DUP2 PUSH20 0xFFFFFFFFFFFFFFFFFFFFFFFFFFFFFFFFFFFFFFFF AND DUP2 MSTORE POP POP DUP1 PUSH1 0x1 PUSH0 PUSH2 0x100 EXP DUP2 SLOAD DUP2 PUSH20 0xFFFFFFFFFFFFFFFFFFFFFFFFFFFFFFFFFFFFFFFF MUL NOT AND SWAP1 DUP4 PUSH20 0xFFFFFFFFFFFFFFFFFFFFFFFFFFFFFFFFFFFFFFFF AND MUL OR SWAP1 SSTORE POP POP POP PUSH2 0x31C JUMP JUMPDEST PUSH1 0x1 PUSH0 PUSH0 DUP5 PUSH20 0xFFFFFFFFFFFFFFFFFFFFFFFFFFFFFFFFFFFFFFFF AND PUSH20 0xFFFFFFFFFFFFFFFFFFFFFFFFFFFFFFFFFFFFFFFF AND DUP2 MSTORE PUSH1 0x20 ADD SWAP1 DUP2 MSTORE PUSH1 0x20 ADD PUSH0 KECCAK256 PUSH0 DUP4 PUSH1 0xFF AND PUSH1 0xFF AND DUP2 MSTORE PUSH1 0x20 ADD SWAP1 DUP2 MSTORE PUSH1 0x20 ADD PUSH0 KECCAK256 PUSH0 PUSH2 0x100 EXP DUP2 SLOAD DUP2 PUSH1 0xFF MUL NOT AND SWAP1 DUP4 ISZERO ISZERO MUL OR SWAP1 SSTORE POP DUP1 PUSH1 0xFF AND DUP3 PUSH20 0xFFFFFFFFFFFFFFFFFFFFFFFFFFFFFFFFFFFFFFFF AND PUSH32 0xAA259565575C834BC07E74DCA784B4071676133AC78513B431AFB6EE7EDAE121 PUSH1 0x40 MLOAD PUSH1 0x40 MLOAD DUP1 SWAP2 SUB SWAP1 LOG3 POP POP JUMP JUMPDEST PUSH0 PUSH0 REVERT JUMPDEST PUSH0 PUSH20 0xFFFFFFFFFFFFFFFFFFFFFFFFFFFFFFFFFFFFFFFF DUP3 AND SWAP1 POP SWAP2 SWAP1 POP JUMP JUMPDEST PUSH0 PUSH2 0x272 DUP3 PUSH2 0x249 JUMP JUMPDEST SWAP1 POP SWAP2 SWAP1 POP JUMP JUMPDEST PUSH2 0x282 DUP2 PUSH2 0x268 JUMP JUMPDEST DUP2 EQ PUSH2 0x28C JUMPI PUSH0 PUSH0 REVERT JUMPDEST POP JUMP JUMPDEST PUSH0 DUP2 MLOAD SWAP1 POP PUSH2 0x29D DUP2 PUSH2 0x279 JUMP JUMPDEST SWAP3 SWAP2 POP POP JUMP JUMPDEST PUSH0 PUSH2 0x2AD DUP3 PUSH2 0x249 JUMP JUMPDEST SWAP1 POP SWAP2 SWAP1 POP JUMP JUMPDEST PUSH2 0x2BD DUP2 PUSH2 0x2A3 JUMP JUMPDEST DUP2 EQ PUSH2 0x2C7 JUMPI PUSH0 PUSH0 REVERT JUMPDEST POP JUMP JUMPDEST PUSH0 DUP2 MLOAD SWAP1 POP PUSH2 0x2D8 DUP2 PUSH2 0x2B4 JUMP JUMPDEST SWAP3 SWAP2 POP POP JUMP JUMPDEST PUSH0 PUSH0 PUSH1 0x40 DUP4 DUP6 SUB SLT ISZERO PUSH2 0x2F4 JUMPI PUSH2 0x2F3 PUSH2 0x245 JUMP JUMPDEST JUMPDEST PUSH0 PUSH2 0x301 DUP6 DUP3 DUP7 ADD PUSH2 0x28F JUMP JUMPDEST SWAP3 POP POP PUSH1 0x20 PUSH2 0x312 DUP6 DUP3 DUP7 ADD PUSH2 0x2CA JUMP JUMPDEST SWAP2 POP POP SWAP3 POP SWAP3 SWAP1 POP JUMP JUMPDEST PUSH1 0x80 MLOAD PUSH2 0x293A PUSH2 0x342 PUSH0 CODECOPY PUSH0 DUP2 DUP2 PUSH2 0xB59 ADD MSTORE DUP2 DUP2 PUSH2 0xE23 ADD MSTORE PUSH2 0x1687 ADD MSTORE PUSH2 0x293A PUSH0 RETURN INVALID PUSH1 0x80 PUSH1 0x40 MSTORE PUSH1 0x4 CALLDATASIZE LT PUSH2 0x129 JUMPI PUSH0 CALLDATALOAD PUSH1 0xE0 SHR DUP1 PUSH4 0x61D027B3 GT PUSH2 0xAA JUMPI DUP1 PUSH4 0xB2170409 GT PUSH2 0x6E JUMPI DUP1 PUSH4 0xB2170409 EQ PUSH2 0x3B5 JUMPI DUP1 PUSH4 0xB9C4D0A7 EQ PUSH2 0x3DF JUMPI DUP1 PUSH4 0xBCA93EBA EQ PUSH2 0x3FB JUMPI DUP1 PUSH4 0xD09EF241 EQ PUSH2 0x425 JUMPI DUP1 PUSH4 0xD55BE8C6 EQ PUSH2 0x461 JUMPI DUP1 PUSH4 0xEED90D6B EQ PUSH2 0x48B JUMPI PUSH2 0x129 JUMP JUMPDEST DUP1 PUSH4 0x61D027B3 EQ PUSH2 0x2D5 JUMPI DUP1 PUSH4 0x6CC6CDE1 EQ PUSH2 0x2FF JUMPI DUP1 PUSH4 0x9012C4A8 EQ PUSH2 0x329 JUMPI DUP1 PUSH4 0x95A8C58D EQ PUSH2 0x351 JUMPI DUP1 PUSH4 0xB0EEFABE EQ PUSH2 0x38D JUMPI PUSH2 0x129 JUMP JUMPDEST DUP1 PUSH4 0x34B25EE2 GT PUSH2 0xF1 JUMPI DUP1 PUSH4 0x34B25EE2 EQ PUSH2 0x1F9 JUMPI DUP1 PUSH4 0x39292763 EQ PUSH2 0x221 JUMPI DUP1 PUSH4 0x3E840236 EQ PUSH2 0x249 JUMPI DUP1 PUSH4 0x41E8A42A EQ PUSH2 0x271 JUMPI DUP1 PUSH4 0x4D471E85 EQ PUSH2 0x299 JUMPI PUSH2 0x129 JUMP JUMPDEST DUP1 PUSH4 0x77D3C03 EQ PUSH2 0x12D JUMPI DUP1 PUSH4 0x24A9D853 EQ PUSH2 0x155 JUMPI DUP1 PUSH4 0x27D00FB0 EQ PUSH2 0x17F JUMPI DUP1 PUSH4 0x27DAC36D EQ PUSH2 0x1A7 JUMPI DUP1 PUSH4 0x2A0ACC6A EQ PUSH2 0x1CF JUMPI JUMPDEST PUSH0 PUSH0 REVERT JUMPDEST CALLVALUE DUP1 ISZERO PUSH2 0x138 JUMPI PUSH0 PUSH0 REVERT JUMPDEST POP PUSH2 0x153 PUSH1 0x4 DUP1 CALLDATASIZE SUB DUP2 ADD SWAP1 PUSH2 0x14E SWAP2 SWAP1 PUSH2 0x225A JUMP JUMPDEST PUSH2 0x4B3 JUMP JUMPDEST STOP JUMPDEST CALLVALUE DUP1 ISZERO PUSH2 0x160 JUMPI PUSH0 PUSH0 REVERT JUMPDEST POP PUSH2 0x169 PUSH2 0x662 JUMP JUMPDEST PUSH1 0x40 MLOAD PUSH2 0x176 SWAP2 SWAP1 PUSH2 0x22B0 JUMP JUMPDEST PUSH1 0x40 MLOAD DUP1 SWAP2 SUB SWAP1 RETURN JUMPDEST CALLVALUE DUP1 ISZERO PUSH2 0x18A JUMPI PUSH0 PUSH0 REVERT JUMPDEST POP PUSH2 0x1A5 PUSH1 0x4 DUP1 CALLDATASIZE SUB DUP2 ADD SWAP1 PUSH2 0x1A0 SWAP2 SWAP1 PUSH2 0x22F3 JUMP JUMPDEST PUSH2 0x668 JUMP JUMPDEST STOP JUMPDEST CALLVALUE DUP1 ISZERO PUSH2 0x1B2 JUMPI PUSH0 PUSH0 REVERT JUMPDEST POP PUSH2 0x1CD PUSH1 0x4 DUP1 CALLDATASIZE SUB DUP2 ADD SWAP1 PUSH2 0x1C8 SWAP2 SWAP1 PUSH2 0x22F3 JUMP JUMPDEST PUSH2 0x91C JUMP JUMPDEST STOP JUMPDEST CALLVALUE DUP1 ISZERO PUSH2 0x1DA JUMPI PUSH0 PUSH0 REVERT JUMPDEST POP PUSH2 0x1E3 PUSH2 0xB9D JUMP JUMPDEST PUSH1 0x40 MLOAD PUSH2 0x1F0 SWAP2 SWAP1 PUSH2 0x232D JUMP JUMPDEST PUSH1 0x40 MLOAD DUP1 SWAP2 SUB SWAP1 RETURN JUMPDEST CALLVALUE DUP1 ISZERO PUSH2 0x204 JUMPI PUSH0 PUSH0 REVERT JUMPDEST POP PUSH2 0x21F PUSH1 0x4 DUP1 CALLDATASIZE SUB DUP2 ADD SWAP1 PUSH2 0x21A SWAP2 SWAP1 PUSH2 0x237B JUMP JUMPDEST PUSH2 0xBA2 JUMP JUMPDEST STOP JUMPDEST CALLVALUE DUP1 ISZERO PUSH2 0x22C JUMPI PUSH0 PUSH0 REVERT JUMPDEST POP PUSH2 0x247 PUSH1 0x4 DUP1 CALLDATASIZE SUB DUP2 ADD SWAP1 PUSH2 0x242 SWAP2 SWAP1 PUSH2 0x22F3 JUMP JUMPDEST PUSH2 0xF09 JUMP JUMPDEST STOP JUMPDEST CALLVALUE DUP1 ISZERO PUSH2 0x254 JUMPI PUSH0 PUSH0 REVERT JUMPDEST POP PUSH2 0x26F PUSH1 0x4 DUP1 CALLDATASIZE SUB DUP2 ADD SWAP1 PUSH2 0x26A SWAP2 SWAP1 PUSH2 0x225A JUMP JUMPDEST PUSH2 0x1152 JUMP JUMPDEST STOP JUMPDEST CALLVALUE DUP1 ISZERO PUSH2 0x27C JUMPI PUSH0 PUSH0 REVERT JUMPDEST POP PUSH2 0x297 PUSH1 0x4 DUP1 CALLDATASIZE SUB DUP2 ADD SWAP1 PUSH2 0x292 SWAP2 SWAP1 PUSH2 0x22F3 JUMP JUMPDEST PUSH2 0x126E JUMP JUMPDEST STOP JUMPDEST CALLVALUE DUP1 ISZERO PUSH2 0x2A4 JUMPI PUSH0 PUSH0 REVERT JUMPDEST POP PUSH2 0x2BF PUSH1 0x4 DUP1 CALLDATASIZE SUB DUP2 ADD SWAP1 PUSH2 0x2BA SWAP2 SWAP1 PUSH2 0x23EC JUMP JUMPDEST PUSH2 0x13F4 JUMP JUMPDEST PUSH1 0x40 MLOAD PUSH2 0x2CC SWAP2 SWAP1 PUSH2 0x22B0 JUMP JUMPDEST PUSH1 0x40 MLOAD DUP1 SWAP2 SUB SWAP1 RETURN JUMPDEST CALLVALUE DUP1 ISZERO PUSH2 0x2E0 JUMPI PUSH0 PUSH0 REVERT JUMPDEST POP PUSH2 0x2E9 PUSH2 0x1685 JUMP JUMPDEST PUSH1 0x40 MLOAD PUSH2 0x2F6 SWAP2 SWAP1 PUSH2 0x2485 JUMP JUMPDEST PUSH1 0x40 MLOAD DUP1 SWAP2 SUB SWAP1 RETURN JUMPDEST CALLVALUE DUP1 ISZERO PUSH2 0x30A JUMPI PUSH0 PUSH0 REVERT JUMPDEST POP PUSH2 0x313 PUSH2 0x16A9 JUMP JUMPDEST PUSH1 0x40 MLOAD PUSH2 0x320 SWAP2 SWAP1 PUSH2 0x24CF JUMP JUMPDEST PUSH1 0x40 MLOAD DUP1 SWAP2 SUB SWAP1 RETURN JUMPDEST CALLVALUE DUP1 ISZERO PUSH2 0x334 JUMPI PUSH0 PUSH0 REVERT JUMPDEST POP PUSH2 0x34F PUSH1 0x4 DUP1 CALLDATASIZE SUB DUP2 ADD SWAP1 PUSH2 0x34A SWAP2 SWAP1 PUSH2 0x22F3 JUMP JUMPDEST PUSH2 0x16CE JUMP JUMPDEST STOP JUMPDEST CALLVALUE DUP1 ISZERO PUSH2 0x35C JUMPI PUSH0 PUSH0 REVERT JUMPDEST POP PUSH2 0x377 PUSH1 0x4 DUP1 CALLDATASIZE SUB DUP2 ADD SWAP1 PUSH2 0x372 SWAP2 SWAP1 PUSH2 0x225A JUMP JUMPDEST PUSH2 0x17F5 JUMP JUMPDEST PUSH1 0x40 MLOAD PUSH2 0x384 SWAP2 SWAP1 PUSH2 0x24F7 JUMP JUMPDEST PUSH1 0x40 MLOAD DUP1 SWAP2 SUB SWAP1 RETURN JUMPDEST CALLVALUE DUP1 ISZERO PUSH2 0x398 JUMPI PUSH0 PUSH0 REVERT JUMPDEST POP PUSH2 0x3B3 PUSH1 0x4 DUP1 CALLDATASIZE SUB DUP2 ADD SWAP1 PUSH2 0x3AE SWAP2 SWAP1 PUSH2 0x2510 JUMP JUMPDEST PUSH2 0x185C JUMP JUMPDEST STOP JUMPDEST CALLVALUE DUP1 ISZERO PUSH2 0x3C0 JUMPI PUSH0 PUSH0 REVERT JUMPDEST POP PUSH2 0x3C9 PUSH2 0x19F5 JUMP JUMPDEST PUSH1 0x40 MLOAD PUSH2 0x3D6 SWAP2 SWAP1 PUSH2 0x232D JUMP JUMPDEST PUSH1 0x40 MLOAD DUP1 SWAP2 SUB SWAP1 RETURN JUMPDEST PUSH2 0x3F9 PUSH1 0x4 DUP1 CALLDATASIZE SUB DUP2 ADD SWAP1 PUSH2 0x3F4 SWAP2 SWAP1 PUSH2 0x22F3 JUMP JUMPDEST PUSH2 0x19FA JUMP JUMPDEST STOP JUMPDEST CALLVALUE DUP1 ISZERO PUSH2 0x406 JUMPI PUSH0 PUSH0 REVERT JUMPDEST POP PUSH2 0x40F PUSH2 0x1C4E JUMP JUMPDEST PUSH1 0x40 MLOAD PUSH2 0x41C SWAP2 SWAP1 PUSH2 0x232D JUMP JUMPDEST PUSH1 0x40 MLOAD DUP1 SWAP2 SUB SWAP1 RETURN JUMPDEST CALLVALUE DUP1 ISZERO PUSH2 0x430 JUMPI PUSH0 PUSH0 REVERT JUMPDEST POP PUSH2 0x44B PUSH1 0x4 DUP1 CALLDATASIZE SUB DUP2 ADD SWAP1 PUSH2 0x446 SWAP2 SWAP1 PUSH2 0x22F3 JUMP JUMPDEST PUSH2 0x1C53 JUMP JUMPDEST PUSH1 0x40 MLOAD PUSH2 0x458 SWAP2 SWAP1 PUSH2 0x2667 JUMP JUMPDEST PUSH1 0x40 MLOAD DUP1 SWAP2 SUB SWAP1 RETURN JUMPDEST CALLVALUE DUP1 ISZERO PUSH2 0x46C JUMPI PUSH0 PUSH0 REVERT JUMPDEST POP PUSH2 0x475 PUSH2 0x1D81 JUMP JUMPDEST PUSH1 0x40 MLOAD PUSH2 0x482 SWAP2 SWAP1 PUSH2 0x22B0 JUMP JUMPDEST PUSH1 0x40 MLOAD DUP1 SWAP2 SUB SWAP1 RETURN JUMPDEST CALLVALUE DUP1 ISZERO PUSH2 0x496 JUMPI PUSH0 PUSH0 REVERT JUMPDEST POP PUSH2 0x4B1 PUSH1 0x4 DUP1 CALLDATASIZE SUB DUP2 ADD SWAP1 PUSH2 0x4AC SWAP2 SWAP1 PUSH2 0x22F3 JUMP JUMPDEST PUSH2 0x1D87 JUMP JUMPDEST STOP JUMPDEST PUSH1 0x1 PUSH0 PUSH0 CALLER PUSH20 0xFFFFFFFFFFFFFFFFFFFFFFFFFFFFFFFFFFFFFFFF AND PUSH20 0xFFFFFFFFFFFFFFFFFFFFFFFFFFFFFFFFFFFFFFFF AND DUP2 MSTORE PUSH1 0x20 ADD SWAP1 DUP2 MSTORE PUSH1 0x20 ADD PUSH0 KECCAK256 PUSH0 DUP3 PUSH1 0xFF AND PUSH1 0xFF AND DUP2 MSTORE PUSH1 0x20 ADD SWAP1 DUP2 MSTORE PUSH1 0x20 ADD PUSH0 KECCAK256 PUSH0 SWAP1 SLOAD SWAP1 PUSH2 0x100 EXP SWAP1 DIV PUSH1 0xFF AND PUSH2 0x549 JUMPI PUSH1 0x40 MLOAD PUSH32 0x82B4290000000000000000000000000000000000000000000000000000000000 DUP2 MSTORE PUSH1 0x4 ADD PUSH1 0x40 MLOAD DUP1 SWAP2 SUB SWAP1 REVERT JUMPDEST PUSH0 PUSH20 0xFFFFFFFFFFFFFFFFFFFFFFFFFFFFFFFFFFFFFFFF AND DUP4 PUSH20 0xFFFFFFFFFFFFFFFFFFFFFFFFFFFFFFFFFFFFFFFF AND SUB PUSH2 0x5AE JUMPI PUSH1 0x40 MLOAD PUSH32 0xD92E233D00000000000000000000000000000000000000000000000000000000 DUP2 MSTORE PUSH1 0x4 ADD PUSH1 0x40 MLOAD DUP1 SWAP2 SUB SWAP1 REVERT JUMPDEST PUSH0 PUSH0 PUSH0 DUP6 PUSH20 0xFFFFFFFFFFFFFFFFFFFFFFFFFFFFFFFFFFFFFFFF AND PUSH20 0xFFFFFFFFFFFFFFFFFFFFFFFFFFFFFFFFFFFFFFFF AND DUP2 MSTORE PUSH1 0x20 ADD SWAP1 DUP2 MSTORE PUSH1 0x20 ADD PUSH0 KECCAK256 PUSH0 DUP5 PUSH1 0xFF AND PUSH1 0xFF AND DUP2 MSTORE PUSH1 0x20 ADD SWAP1 DUP2 MSTORE PUSH1 0x20 ADD PUSH0 KECCAK256 PUSH0 PUSH2 0x100 EXP DUP2 SLOAD DUP2 PUSH1 0xFF MUL NOT AND SWAP1 DUP4 ISZERO ISZERO MUL OR SWAP1 SSTORE POP DUP2 PUSH1 0xFF AND DUP4 PUSH20 0xFFFFFFFFFFFFFFFFFFFFFFFFFFFFFFFFFFFFFFFF AND PUSH32 0x34A1009B84E077AEE5BC8197FAF7105E54F9BA6879E2A51A716E4156EA9AD769 PUSH1 0x40 MLOAD PUSH1 0x40 MLOAD DUP1 SWAP2 SUB SWAP1 LOG3 POP POP POP JUMP JUMPDEST PUSH1 0x5 SLOAD DUP2 JUMP JUMPDEST PUSH0 PUSH2 0x672 DUP3 PUSH2 0x1F0E JUMP JUMPDEST SWAP1 POP DUP1 PUSH1 0x1 ADD PUSH0 SWAP1 SLOAD SWAP1 PUSH2 0x100 EXP SWAP1 DIV PUSH20 0xFFFFFFFFFFFFFFFFFFFFFFFFFFFFFFFFFFFFFFFF AND PUSH20 0xFFFFFFFFFFFFFFFFFFFFFFFFFFFFFFFFFFFFFFFF AND CALLER PUSH20 0xFFFFFFFFFFFFFFFFFFFFFFFFFFFFFFFFFFFFFFFF AND EQ PUSH2 0x707 JUMPI DUP2 PUSH1 0x40 MLOAD PUSH32 0x9B4C33D00000000000000000000000000000000000000000000000000000000 DUP2 MSTORE PUSH1 0x4 ADD PUSH2 0x6FE SWAP2 SWAP1 PUSH2 0x22B0 JUMP JUMPDEST PUSH1 0x40 MLOAD DUP1 SWAP2 SUB SWAP1 REVERT JUMPDEST PUSH1 0x1 PUSH1 0x6 DUP2 GT ISZERO PUSH2 0x71B JUMPI PUSH2 0x71A PUSH2 0x2568 JUMP JUMPDEST JUMPDEST DUP2 PUSH1 0x6 ADD PUSH0 SWAP1 SLOAD SWAP1 PUSH2 0x100 EXP SWAP1 DIV PUSH1 0xFF AND PUSH1 0x6 DUP2 GT ISZERO PUSH2 0x73E JUMPI PUSH2 0x73D PUSH2 0x2568 JUMP JUMPDEST JUMPDEST EQ ISZERO DUP1 ISZERO PUSH2 0x781 JUMPI POP PUSH1 0x2 PUSH1 0x6 DUP2 GT ISZERO PUSH2 0x75B JUMPI PUSH2 0x75A PUSH2 0x2568 JUMP JUMPDEST JUMPDEST DUP2 PUSH1 0x6 ADD PUSH0 SWAP1 SLOAD SWAP1 PUSH2 0x100 EXP SWAP1 DIV PUSH1 0xFF AND PUSH1 0x6 DUP2 GT ISZERO PUSH2 0x77E JUMPI PUSH2 0x77D PUSH2 0x2568 JUMP JUMPDEST JUMPDEST EQ ISZERO JUMPDEST ISZERO PUSH2 0x7D5 JUMPI DUP2 DUP2 PUSH1 0x6 ADD PUSH0 SWAP1 SLOAD SWAP1 PUSH2 0x100 EXP SWAP1 DIV PUSH1 0xFF AND PUSH1 0x40 MLOAD PUSH32 0xA5889E500000000000000000000000000000000000000000000000000000000 DUP2 MSTORE PUSH1 0x4 ADD PUSH2 0x7CC SWAP3 SWAP2 SWAP1 PUSH2 0x268F JUMP JUMPDEST PUSH1 0x40 MLOAD DUP1 SWAP2 SUB SWAP1 REVERT JUMPDEST PUSH1 0x4 DUP2 PUSH1 0x6 ADD PUSH0 PUSH2 0x100 EXP DUP2 SLOAD DUP2 PUSH1 0xFF MUL NOT AND SWAP1 DUP4 PUSH1 0x6 DUP2 GT ISZERO PUSH2 0x7FC JUMPI PUSH2 0x7FB PUSH2 0x2568 JUMP JUMPDEST JUMPDEST MUL OR SWAP1 SSTORE POP CALLER PUSH20 0xFFFFFFFFFFFFFFFFFFFFFFFFFFFFFFFFFFFFFFFF AND DUP3 PUSH32 0x44F3C3ED15C708331582BC379D28659A58F183A563ABE41AA4C8889DB469F71C PUSH1 0x40 MLOAD PUSH1 0x40 MLOAD DUP1 SWAP2 SUB SWAP1 LOG3 PUSH1 0x1 PUSH0 SWAP1 SLOAD SWAP1 PUSH2 0x100 EXP SWAP1 DIV PUSH20 0xFFFFFFFFFFFFFFFFFFFFFFFFFFFFFFFFFFFFFFFF AND PUSH20 0xFFFFFFFFFFFFFFFFFFFFFFFFFFFFFFFFFFFFFFFF AND PUSH4 0xA4ADCDD0 DUP4 DUP4 PUSH1 0x1 ADD PUSH0 SWAP1 SLOAD SWAP1 PUSH2 0x100 EXP SWAP1 DIV PUSH20 0xFFFFFFFFFFFFFFFFFFFFFFFFFFFFFFFFFFFFFFFF AND DUP5 PUSH1 0x2 ADD PUSH0 SWAP1 SLOAD SWAP1 PUSH2 0x100 EXP SWAP1 DIV PUSH20 0xFFFFFFFFFFFFFFFFFFFFFFFFFFFFFFFFFFFFFFFF AND DUP6 PUSH1 0x3 ADD SLOAD PUSH1 0x40 MLOAD DUP6 PUSH4 0xFFFFFFFF AND PUSH1 0xE0 SHL DUP2 MSTORE PUSH1 0x4 ADD PUSH2 0x8EF SWAP5 SWAP4 SWAP3 SWAP2 SWAP1 PUSH2 0x26C5 JUMP JUMPDEST PUSH0 PUSH1 0x40 MLOAD DUP1 DUP4 SUB DUP2 PUSH0 DUP8 DUP1 EXTCODESIZE ISZERO DUP1 ISZERO PUSH2 0x906 JUMPI PUSH0 PUSH0 REVERT JUMPDEST POP GAS CALL SWAP3 POP POP POP DUP1 ISZERO PUSH2 0x917 JUMPI POP PUSH1 0x1 JUMPDEST POP POP POP JUMP JUMPDEST PUSH1 0x3 PUSH0 SWAP1 SLOAD SWAP1 PUSH2 0x100 EXP SWAP1 DIV PUSH1 0xFF AND ISZERO PUSH2 0x962 JUMPI PUSH1 0x40 MLOAD PUSH32 0x9396D15600000000000000000000000000000000000000000000000000000000 DUP2 MSTORE PUSH1 0x4 ADD PUSH1 0x40 MLOAD DUP1 SWAP2 SUB SWAP1 REVERT JUMPDEST PUSH1 0x1 PUSH1 0x3 PUSH0 PUSH2 0x100 EXP DUP2 SLOAD DUP2 PUSH1 0xFF MUL NOT AND SWAP1 DUP4 ISZERO ISZERO MUL OR SWAP1 SSTORE POP PUSH0 PUSH1 0x4 PUSH0 DUP4 DUP2 MSTORE PUSH1 0x20 ADD SWAP1 DUP2 MSTORE PUSH1 0x20 ADD PUSH0 KECCAK256 SWAP1 POP DUP1 PUSH1 0x1 ADD PUSH0 SWAP1 SLOAD SWAP1 PUSH2 0x100 EXP SWAP1 DIV PUSH20 0xFFFFFFFFFFFFFFFFFFFFFFFFFFFFFFFFFFFFFFFF AND PUSH20 0xFFFFFFFFFFFFFFFFFFFFFFFFFFFFFFFFFFFFFFFF AND CALLER PUSH20 0xFFFFFFFFFFFFFFFFFFFFFFFFFFFFFFFFFFFFFFFF AND EQ PUSH2 0xA23 JUMPI DUP2 PUSH1 0x40 MLOAD PUSH32 0x9B4C33D00000000000000000000000000000000000000000000000000000000 DUP2 MSTORE PUSH1 0x4 ADD PUSH2 0xA1A SWAP2 SWAP1 PUSH2 0x22B0 JUMP JUMPDEST PUSH1 0x40 MLOAD DUP1 SWAP2 SUB SWAP1 REVERT JUMPDEST PUSH1 0x2 PUSH1 0x6 DUP2 GT ISZERO PUSH2 0xA37 JUMPI PUSH2 0xA36 PUSH2 0x2568 JUMP JUMPDEST JUMPDEST DUP2 PUSH1 0x6 ADD PUSH0 SWAP1 SLOAD SWAP1 PUSH2 0x100 EXP SWAP1 DIV PUSH1 0xFF AND PUSH1 0x6 DUP2 GT ISZERO PUSH2 0xA5A JUMPI PUSH2 0xA59 PUSH2 0x2568 JUMP JUMPDEST JUMPDEST EQ PUSH2 0xAAE JUMPI DUP2 DUP2 PUSH1 0x6 ADD PUSH0 SWAP1 SLOAD SWAP1 PUSH2 0x100 EXP SWAP1 DIV PUSH1 0xFF AND PUSH1 0x40 MLOAD PUSH32 0xA5889E500000000000000000000000000000000000000000000000000000000 DUP2 MSTORE PUSH1 0x4 ADD PUSH2 0xAA5 SWAP3 SWAP2 SWAP1 PUSH2 0x268F JUMP JUMPDEST PUSH1 0x40 MLOAD DUP1 SWAP2 SUB SWAP1 REVERT JUMPDEST PUSH1 0x3 DUP2 PUSH1 0x6 ADD PUSH0 PUSH2 0x100 EXP DUP2 SLOAD DUP2 PUSH1 0xFF MUL NOT AND SWAP1 DUP4 PUSH1 0x6 DUP2 GT ISZERO PUSH2 0xAD5 JUMPI PUSH2 0xAD4 PUSH2 0x2568 JUMP JUMPDEST JUMPDEST MUL OR SWAP1 SSTORE POP PUSH0 PUSH0 PUSH2 0xAE9 DUP4 PUSH1 0x3 ADD SLOAD PUSH2 0x1FBF JUMP JUMPDEST SWAP2 POP SWAP2 POP DUP4 PUSH32 0xC4BFC30EEB4D37AF0BFE8327E0ACFDC5E10DA19745A4677DD5F4244993D7CA98 DUP4 DUP4 PUSH1 0x40 MLOAD PUSH2 0xB1F SWAP3 SWAP2 SWAP1 PUSH2 0x2708 JUMP JUMPDEST PUSH1 0x40 MLOAD DUP1 SWAP2 SUB SWAP1 LOG2 PUSH2 0xB54 DUP4 PUSH1 0x2 ADD PUSH0 SWAP1 SLOAD SWAP1 PUSH2 0x100 EXP SWAP1 DIV PUSH20 0xFFFFFFFFFFFFFFFFFFFFFFFFFFFFFFFFFFFFFFFF AND DUP4 PUSH2 0x1FF1 JUMP JUMPDEST PUSH2 0xB7E PUSH32 0x0 DUP3 PUSH2 0x1FF1 JUMP JUMPDEST POP POP POP PUSH0 PUSH1 0x3 PUSH0 PUSH2 0x100 EXP DUP2 SLOAD DUP2 PUSH1 0xFF MUL NOT AND SWAP1 DUP4 ISZERO ISZERO MUL OR SWAP1 SSTORE POP POP JUMP JUMPDEST PUSH1 0x1 DUP2 JUMP JUMPDEST PUSH1 0x3 PUSH0 SWAP1 SLOAD SWAP1 PUSH2 0x100 EXP SWAP1 DIV PUSH1 0xFF AND ISZERO PUSH2 0xBE8 JUMPI PUSH1 0x40 MLOAD PUSH32 0x9396D15600000000000000000000000000000000000000000000000000000000 DUP2 MSTORE PUSH1 0x4 ADD PUSH1 0x40 MLOAD DUP1 SWAP2 SUB SWAP1 REVERT JUMPDEST PUSH1 0x1 PUSH1 0x3 PUSH0 PUSH2 0x100 EXP DUP2 SLOAD DUP2 PUSH1 0xFF MUL NOT AND SWAP1 DUP4 ISZERO ISZERO MUL OR SWAP1 SSTORE POP PUSH1 0x3 PUSH0 PUSH0 CALLER PUSH20 0xFFFFFFFFFFFFFFFFFFFFFFFFFFFFFFFFFFFFFFFF AND PUSH20 0xFFFFFFFFFFFFFFFFFFFFFFFFFFFFFFFFFFFFFFFF AND DUP2 MSTORE PUSH1 0x20 ADD SWAP1 DUP2 MSTORE PUSH1 0x20 ADD PUSH0 KECCAK256 PUSH0 DUP3 PUSH1 0xFF AND PUSH1 0xFF AND DUP2 MSTORE PUSH1 0x20 ADD SWAP1 DUP2 MSTORE PUSH1 0x20 ADD PUSH0 KECCAK256 PUSH0 SWAP1 SLOAD SWAP1 PUSH2 0x100 EXP SWAP1 DIV PUSH1 0xFF AND PUSH2 0xC98 JUMPI PUSH1 0x40 MLOAD PUSH32 0x82B4290000000000000000000000000000000000000000000000000000000000 DUP2 MSTORE PUSH1 0x4 ADD PUSH1 0x40 MLOAD DUP1 SWAP2 SUB SWAP1 REVERT JUMPDEST PUSH0 PUSH2 0xCA2 DUP5 PUSH2 0x1F0E JUMP JUMPDEST SWAP1 POP PUSH1 0x4 PUSH1 0x6 DUP2 GT ISZERO PUSH2 0xCB8 JUMPI PUSH2 0xCB7 PUSH2 0x2568 JUMP JUMPDEST JUMPDEST DUP2 PUSH1 0x6 ADD PUSH0 SWAP1 SLOAD SWAP1 PUSH2 0x100 EXP SWAP1 DIV PUSH1 0xFF AND PUSH1 0x6 DUP2 GT ISZERO PUSH2 0xCDB JUMPI PUSH2 0xCDA PUSH2 0x2568 JUMP JUMPDEST JUMPDEST EQ PUSH2 0xD2F JUMPI DUP4 DUP2 PUSH1 0x6 ADD PUSH0 SWAP1 SLOAD SWAP1 PUSH2 0x100 EXP SWAP1 DIV PUSH1 0xFF AND PUSH1 0x40 MLOAD PUSH32 0xA5889E500000000000000000000000000000000000000000000000000000000 DUP2 MSTORE PUSH1 0x4 ADD PUSH2 0xD26 SWAP3 SWAP2 SWAP1 PUSH2 0x268F JUMP JUMPDEST PUSH1 0x40 MLOAD DUP1 SWAP2 SUB SWAP1 REVERT JUMPDEST DUP3 ISZERO PUSH2 0xD66 JUMPI PUSH1 0x3 DUP2 PUSH1 0x6 ADD PUSH0 PUSH2 0x100 EXP DUP2 SLOAD DUP2 PUSH1 0xFF MUL NOT AND SWAP1 DUP4 PUSH1 0x6 DUP2 GT ISZERO PUSH2 0xD5C JUMPI PUSH2 0xD5B PUSH2 0x2568 JUMP JUMPDEST JUMPDEST MUL OR SWAP1 SSTORE POP PUSH2 0xD93 JUMP JUMPDEST PUSH1 0x5 DUP2 PUSH1 0x6 ADD PUSH0 PUSH2 0x100 EXP DUP2 SLOAD DUP2 PUSH1 0xFF MUL NOT AND SWAP1 DUP4 PUSH1 0x6 DUP2 GT ISZERO PUSH2 0xD8D JUMPI PUSH2 0xD8C PUSH2 0x2568 JUMP JUMPDEST JUMPDEST MUL OR SWAP1 SSTORE POP JUMPDEST DUP4 PUSH32 0x5A87909BFF68CAAAAF0B3FD9C74EECCC928832F879315E5C6FB7A73612F26C0C DUP5 PUSH1 0x40 MLOAD PUSH2 0xDC3 SWAP2 SWAP1 PUSH2 0x24F7 JUMP JUMPDEST PUSH1 0x40 MLOAD DUP1 SWAP2 SUB SWAP1 LOG2 DUP3 ISZERO PUSH2 0xE7C JUMPI PUSH0 PUSH0 PUSH2 0xDE0 DUP4 PUSH1 0x3 ADD SLOAD PUSH2 0x1FBF JUMP JUMPDEST SWAP2 POP SWAP2 POP DUP6 PUSH32 0xC4BFC30EEB4D37AF0BFE8327E0ACFDC5E10DA19745A4677DD5F4244993D7CA98 DUP4 DUP4 PUSH1 0x40 MLOAD PUSH2 0xE16 SWAP3 SWAP2 SWAP1 PUSH2 0x2708 JUMP JUMPDEST PUSH1 0x40 MLOAD DUP1 SWAP2 SUB SWAP1 LOG2 PUSH2 0xE48 PUSH32 0x0 DUP3 PUSH2 0x1FF1 JUMP JUMPDEST PUSH2 0xE75 DUP4 PUSH1 0x2 ADD PUSH0 SWAP1 SLOAD SWAP1 PUSH2 0x100 EXP SWAP1 DIV PUSH20 0xFFFFFFFFFFFFFFFFFFFFFFFFFFFFFFFFFFFFFFFF AND DUP4 PUSH2 0x1FF1 JUMP JUMPDEST POP POP PUSH2 0xEEA JUMP JUMPDEST DUP4 PUSH32 0xB7C1F9298A18C36AF08BD57EABBFBEB04695F24D0438F67614741EC15FB5C4A9 DUP3 PUSH1 0x3 ADD SLOAD PUSH1 0x40 MLOAD PUSH2 0xEB0 SWAP2 SWAP1 PUSH2 0x22B0 JUMP JUMPDEST PUSH1 0x40 MLOAD DUP1 SWAP2 SUB SWAP1 LOG2 PUSH2 0xEE9 DUP2 PUSH1 0x1 ADD PUSH0 SWAP1 SLOAD SWAP1 PUSH2 0x100 EXP SWAP1 DIV PUSH20 0xFFFFFFFFFFFFFFFFFFFFFFFFFFFFFFFFFFFFFFFF AND DUP3 PUSH1 0x3 ADD SLOAD PUSH2 0x1FF1 JUMP JUMPDEST JUMPDEST POP POP PUSH0 PUSH1 0x3 PUSH0 PUSH2 0x100 EXP DUP2 SLOAD DUP2 PUSH1 0xFF MUL NOT AND SWAP1 DUP4 ISZERO ISZERO MUL OR SWAP1 SSTORE POP POP POP JUMP JUMPDEST PUSH1 0x3 PUSH0 SWAP1 SLOAD SWAP1 PUSH2 0x100 EXP SWAP1 DIV PUSH1 0xFF AND ISZERO PUSH2 0xF4F JUMPI PUSH1 0x40 MLOAD PUSH32 0x9396D15600000000000000000000000000000000000000000000000000000000 DUP2 MSTORE PUSH1 0x4 ADD PUSH1 0x40 MLOAD DUP1 SWAP2 SUB SWAP1 REVERT JUMPDEST PUSH1 0x1 PUSH1 0x3 PUSH0 PUSH2 0x100 EXP DUP2 SLOAD DUP2 PUSH1 0xFF MUL NOT AND SWAP1 DUP4 ISZERO ISZERO MUL OR SWAP1 SSTORE POP PUSH1 0x3 PUSH0 PUSH0 CALLER PUSH20 0xFFFFFFFFFFFFFFFFFFFFFFFFFFFFFFFFFFFFFFFF AND PUSH20 0xFFFFFFFFFFFFFFFFFFFFFFFFFFFFFFFFFFFFFFFF AND DUP2 MSTORE PUSH1 0x20 ADD SWAP1 DUP2 MSTORE PUSH1 0x20 ADD PUSH0 KECCAK256 PUSH0 DUP3 PUSH1 0xFF AND PUSH1 0xFF AND DUP2 MSTORE PUSH1 0x20 ADD SWAP1 DUP2 MSTORE PUSH1 0x20 ADD PUSH0 KECCAK256 PUSH0 SWAP1 SLOAD SWAP1 PUSH2 0x100 EXP SWAP1 DIV PUSH1 0xFF AND PUSH2 0xFFF JUMPI PUSH1 0x40 MLOAD PUSH32 0x82B4290000000000000000000000000000000000000000000000000000000000 DUP2 MSTORE PUSH1 0x4 ADD PUSH1 0x40 MLOAD DUP1 SWAP2 SUB SWAP1 REVERT JUMPDEST PUSH0 PUSH2 0x1009 DUP4 PUSH2 0x1F0E JUMP JUMPDEST SWAP1 POP PUSH1 0x4 PUSH1 0x6 DUP2 GT ISZERO PUSH2 0x101F JUMPI PUSH2 0x101E PUSH2 0x2568 JUMP JUMPDEST JUMPDEST DUP2 PUSH1 0x6 ADD PUSH0 SWAP1 SLOAD SWAP1 PUSH2 0x100 EXP SWAP1 DIV PUSH1 0xFF AND PUSH1 0x6 DUP2 GT ISZERO PUSH2 0x1042 JUMPI PUSH2 0x1041 PUSH2 0x2568 JUMP JUMPDEST JUMPDEST EQ PUSH2 0x1096 JUMPI DUP3 DUP2 PUSH1 0x6 ADD PUSH0 SWAP1 SLOAD SWAP1 PUSH2 0x100 EXP SWAP1 DIV PUSH1 0xFF AND PUSH1 0x40 MLOAD PUSH32 0xA5889E500000000000000000000000000000000000000000000000000000000 DUP2 MSTORE PUSH1 0x4 ADD PUSH2 0x108D SWAP3 SWAP2 SWAP1 PUSH2 0x268F JUMP JUMPDEST PUSH1 0x40 MLOAD DUP1 SWAP2 SUB SWAP1 REVERT JUMPDEST PUSH0 DUP2 PUSH1 0x3 ADD SLOAD SWAP1 POP PUSH1 0x5 DUP3 PUSH1 0x6 ADD PUSH0 PUSH2 0x100 EXP DUP2 SLOAD DUP2 PUSH1 0xFF MUL NOT AND SWAP1 DUP4 PUSH1 0x6 DUP2 GT ISZERO PUSH2 0x10C5 JUMPI PUSH2 0x10C4 PUSH2 0x2568 JUMP JUMPDEST JUMPDEST MUL OR SWAP1 SSTORE POP DUP4 PUSH32 0xB7C1F9298A18C36AF08BD57EABBFBEB04695F24D0438F67614741EC15FB5C4A9 DUP4 PUSH1 0x3 ADD SLOAD PUSH1 0x40 MLOAD PUSH2 0x10FE SWAP2 SWAP1 PUSH2 0x22B0 JUMP JUMPDEST PUSH1 0x40 MLOAD DUP1 SWAP2 SUB SWAP1 LOG2 PUSH2 0x1133 DUP3 PUSH1 0x1 ADD PUSH0 SWAP1 SLOAD SWAP1 PUSH2 0x100 EXP SWAP1 DIV PUSH20 0xFFFFFFFFFFFFFFFFFFFFFFFFFFFFFFFFFFFFFFFF AND DUP3 PUSH2 0x1FF1 JUMP JUMPDEST POP POP POP PUSH0 PUSH1 0x3 PUSH0 PUSH2 0x100 EXP DUP2 SLOAD DUP2 PUSH1 0xFF MUL NOT AND SWAP1 DUP4 ISZERO ISZERO MUL OR SWAP1 SSTORE POP POP JUMP JUMPDEST PUSH1 0x1 PUSH0 PUSH0 CALLER PUSH20 0xFFFFFFFFFFFFFFFFFFFFFFFFFFFFFFFFFFFFFFFF AND PUSH20 0xFFFFFFFFFFFFFFFFFFFFFFFFFFFFFFFFFFFFFFFF AND DUP2 MSTORE PUSH1 0x20 ADD SWAP1 DUP2 MSTORE PUSH1 0x20 ADD PUSH0 KECCAK256 PUSH0 DUP3 PUSH1 0xFF AND PUSH1 0xFF AND DUP2 MSTORE PUSH1 0x20 ADD SWAP1 DUP2 MSTORE PUSH1 0x20 ADD PUSH0 KECCAK256 PUSH0 SWAP1 SLOAD SWAP1 PUSH2 0x100 EXP SWAP1 DIV PUSH1 0xFF AND PUSH2 0x11E8 JUMPI PUSH1 0x40 MLOAD PUSH32 0x82B4290000000000000000000000000000000000000000000000000000000000 DUP2 MSTORE PUSH1 0x4 ADD PUSH1 0x40 MLOAD DUP1 SWAP2 SUB SWAP1 REVERT JUMPDEST PUSH0 PUSH20 0xFFFFFFFFFFFFFFFFFFFFFFFFFFFFFFFFFFFFFFFF AND DUP4 PUSH20 0xFFFFFFFFFFFFFFFFFFFFFFFFFFFFFFFFFFFFFFFF AND EQ DUP1 PUSH2 0x1228 JUMPI POP PUSH1 0x1 PUSH1 0xFF AND DUP3 PUSH1 0xFF AND EQ JUMPDEST ISZERO PUSH2 0x125F JUMPI PUSH1 0x40 MLOAD PUSH32 0x82B4290000000000000000000000000000000000000000000000000000000000 DUP2 MSTORE PUSH1 0x4 ADD PUSH1 0x40 MLOAD DUP1 SWAP2 SUB SWAP1 REVERT JUMPDEST PUSH2 0x1269 DUP4 DUP4 PUSH2 0x209E JUMP JUMPDEST POP POP POP JUMP JUMPDEST PUSH0 PUSH2 0x1278 DUP3 PUSH2 0x1F0E JUMP JUMPDEST SWAP1 POP CALLER PUSH20 0xFFFFFFFFFFFFFFFFFFFFFFFFFFFFFFFFFFFFFFFF AND DUP2 PUSH1 0x1 ADD PUSH0 SWAP1 SLOAD SWAP1 PUSH2 0x100 EXP SWAP1 DIV PUSH20 0xFFFFFFFFFFFFFFFFFFFFFFFFFFFFFFFFFFFFFFFF AND PUSH20 0xFFFFFFFFFFFFFFFFFFFFFFFFFFFFFFFFFFFFFFFF AND EQ PUSH2 0x130D JUMPI DUP2 PUSH1 0x40 MLOAD PUSH32 0x9B4C33D00000000000000000000000000000000000000000000000000000000 DUP2 MSTORE PUSH1 0x4 ADD PUSH2 0x1304 SWAP2 SWAP1 PUSH2 0x22B0 JUMP JUMPDEST PUSH1 0x40 MLOAD DUP1 SWAP2 SUB SWAP1 REVERT JUMPDEST PUSH0 PUSH1 0x6 DUP2 GT ISZERO PUSH2 0x1320 JUMPI PUSH2 0x131F PUSH2 0x2568 JUMP JUMPDEST JUMPDEST DUP2 PUSH1 0x6 ADD PUSH0 SWAP1 SLOAD SWAP1 PUSH2 0x100 EXP SWAP1 DIV PUSH1 0xFF AND PUSH1 0x6 DUP2 GT ISZERO PUSH2 0x1343 JUMPI PUSH2 0x1342 PUSH2 0x2568 JUMP JUMPDEST JUMPDEST EQ PUSH2 0x1397 JUMPI DUP2 DUP2 PUSH1 0x6 ADD PUSH0 SWAP1 SLOAD SWAP1 PUSH2 0x100 EXP SWAP1 DIV PUSH1 0xFF AND PUSH1 0x40 MLOAD PUSH32 0xA5889E500000000000000000000000000000000000000000000000000000000 DUP2 MSTORE PUSH1 0x4 ADD PUSH2 0x138E SWAP3 SWAP2 SWAP1 PUSH2 0x268F JUMP JUMPDEST PUSH1 0x40 MLOAD DUP1 SWAP2 SUB SWAP1 REVERT JUMPDEST PUSH1 0x6 DUP2 PUSH1 0x6 ADD PUSH0 PUSH2 0x100 EXP DUP2 SLOAD DUP2 PUSH1 0xFF MUL NOT AND SWAP1 DUP4 PUSH1 0x6 DUP2 GT ISZERO PUSH2 0x13BE JUMPI PUSH2 0x13BD PUSH2 0x2568 JUMP JUMPDEST JUMPDEST MUL OR SWAP1 SSTORE POP DUP2 PUSH32 0xC41D93B8BFBF9FD7CF5BFE271FD649AB6A6FEC0EA101C23B82A2A28ECA2533A9 PUSH1 0x40 MLOAD PUSH1 0x40 MLOAD DUP1 SWAP2 SUB SWAP1 LOG2 POP POP JUMP JUMPDEST PUSH0 CALLER PUSH20 0xFFFFFFFFFFFFFFFFFFFFFFFFFFFFFFFFFFFFFFFF AND DUP4 PUSH20 0xFFFFFFFFFFFFFFFFFFFFFFFFFFFFFFFFFFFFFFFF AND SUB PUSH2 0x145A JUMPI PUSH1 0x40 MLOAD PUSH32 0x82B4290000000000000000000000000000000000000000000000000000000000 DUP2 MSTORE PUSH1 0x4 ADD PUSH1 0x40 MLOAD DUP1 SWAP2 SUB SWAP1 REVERT JUMPDEST PUSH2 0x1465 DUP4 PUSH1 0x2 PUSH2 0x17F5 JUMP JUMPDEST PUSH2 0x149B JUMPI PUSH1 0x40 MLOAD PUSH32 0x82B4290000000000000000000000000000000000000000000000000000000000 DUP2 MSTORE PUSH1 0x4 ADD PUSH1 0x40 MLOAD DUP1 SWAP2 SUB SWAP1 REVERT JUMPDEST PUSH1 0x2 PUSH0 DUP2 SLOAD DUP1 SWAP3 SWAP2 SWAP1 PUSH2 0x14AD SWAP1 PUSH2 0x275C JUMP JUMPDEST SWAP2 SWAP1 POP SSTORE SWAP1 POP PUSH1 0x40 MLOAD DUP1 PUSH1 0xE0 ADD PUSH1 0x40 MSTORE DUP1 DUP3 DUP2 MSTORE PUSH1 0x20 ADD CALLER PUSH20 0xFFFFFFFFFFFFFFFFFFFFFFFFFFFFFFFFFFFFFFFF AND DUP2 MSTORE PUSH1 0x20 ADD DUP5 PUSH20 0xFFFFFFFFFFFFFFFFFFFFFFFFFFFFFFFFFFFFFFFF AND DUP2 MSTORE PUSH1 0x20 ADD PUSH0 DUP2 MSTORE PUSH1 0x20 ADD TIMESTAMP DUP2 MSTORE PUSH1 0x20 ADD DUP4 DUP2 MSTORE PUSH1 0x20 ADD PUSH0 PUSH1 0x6 DUP2 GT ISZERO PUSH2 0x1521 JUMPI PUSH2 0x1520 PUSH2 0x2568 JUMP JUMPDEST JUMPDEST DUP2 MSTORE POP PUSH1 0x4 PUSH0 DUP4 DUP2 MSTORE PUSH1 0x20 ADD SWAP1 DUP2 MSTORE PUSH1 0x20 ADD PUSH0 KECCAK256 PUSH0 DUP3 ADD MLOAD DUP2 PUSH0 ADD SSTORE PUSH1 0x20 DUP3 ADD MLOAD DUP2 PUSH1 0x1 ADD PUSH0 PUSH2 0x100 EXP DUP2 SLOAD DUP2 PUSH20 0xFFFFFFFFFFFFFFFFFFFFFFFFFFFFFFFFFFFFFFFF MUL NOT AND SWAP1 DUP4 PUSH20 0xFFFFFFFFFFFFFFFFFFFFFFFFFFFFFFFFFFFFFFFF AND MUL OR SWAP1 SSTORE POP PUSH1 0x40 DUP3 ADD MLOAD DUP2 PUSH1 0x2 ADD PUSH0 PUSH2 0x100 EXP DUP2 SLOAD DUP2 PUSH20 0xFFFFFFFFFFFFFFFFFFFFFFFFFFFFFFFFFFFFFFFF MUL NOT AND SWAP1 DUP4 PUSH20 0xFFFFFFFFFFFFFFFFFFFFFFFFFFFFFFFFFFFFFFFF AND MUL OR SWAP1 SSTORE POP PUSH1 0x60 DUP3 ADD MLOAD DUP2 PUSH1 0x3 ADD SSTORE PUSH1 0x80 DUP3 ADD MLOAD DUP2 PUSH1 0x4 ADD SSTORE PUSH1 0xA0 DUP3 ADD MLOAD DUP2 PUSH1 0x5 ADD SSTORE PUSH1 0xC0 DUP3 ADD MLOAD DUP2 PUSH1 0x6 ADD PUSH0 PUSH2 0x100 EXP DUP2 SLOAD DUP2 PUSH1 0xFF MUL NOT AND SWAP1 DUP4 PUSH1 0x6 DUP2 GT ISZERO PUSH2 0x1611 JUMPI PUSH2 0x1610 PUSH2 0x2568 JUMP JUMPDEST JUMPDEST MUL OR SWAP1 SSTORE POP SWAP1 POP POP DUP3 PUSH20 0xFFFFFFFFFFFFFFFFFFFFFFFFFFFFFFFFFFFFFFFF AND CALLER PUSH20 0xFFFFFFFFFFFFFFFFFFFFFFFFFFFFFFFFFFFFFFFF AND DUP3 PUSH32 0x7DE7BDE3CA286D550A77F3D882ED0362F8A4D6200740C1CFCAB9A661088C3609 DUP6 PUSH1 0x40 MLOAD PUSH2 0x1677 SWAP2 SWAP1 PUSH2 0x27B2 JUMP JUMPDEST PUSH1 0x40 MLOAD DUP1 SWAP2 SUB SWAP1 LOG4 SWAP3 SWAP2 POP POP JUMP JUMPDEST PUSH32 0x0 DUP2 JUMP JUMPDEST PUSH1 0x1 PUSH0 SWAP1 SLOAD SWAP1 PUSH2 0x100 EXP SWAP1 DIV PUSH20 0xFFFFFFFFFFFFFFFFFFFFFFFFFFFFFFFFFFFFFFFF AND DUP2 JUMP JUMPDEST PUSH1 0x1 PUSH0 PUSH0 CALLER PUSH20 0xFFFFFFFFFFFFFFFFFFFFFFFFFFFFFFFFFFFFFFFF AND PUSH20 0xFFFFFFFFFFFFFFFFFFFFFFFFFFFFFFFFFFFFFFFF AND DUP2 MSTORE PUSH1 0x20 ADD SWAP1 DUP2 MSTORE PUSH1 0x20 ADD PUSH0 KECCAK256 PUSH0 DUP3 PUSH1 0xFF AND PUSH1 0xFF AND DUP2 MSTORE PUSH1 0x20 ADD SWAP1 DUP2 MSTORE PUSH1 0x20 ADD PUSH0 KECCAK256 PUSH0 SWAP1 SLOAD SWAP1 PUSH2 0x100 EXP SWAP1 DIV PUSH1 0xFF AND PUSH2 0x1764 JUMPI PUSH1 0x40 MLOAD PUSH32 0x82B4290000000000000000000000000000000000000000000000000000000000 DUP2 MSTORE PUSH1 0x4 ADD PUSH1 0x40 MLOAD DUP1 SWAP2 SUB SWAP1 REVERT JUMPDEST PUSH2 0x1F4 DUP3 GT ISZERO PUSH2 0x17AF JUMPI DUP2 PUSH2 0x1F4 PUSH1 0x40 MLOAD PUSH32 0xE757126A00000000000000000000000000000000000000000000000000000000 DUP2 MSTORE PUSH1 0x4 ADD PUSH2 0x17A6 SWAP3 SWAP2 SWAP1 PUSH2 0x2708 JUMP JUMPDEST PUSH1 0x40 MLOAD DUP1 SWAP2 SUB SWAP1 REVERT JUMPDEST PUSH32 0x528D9479E9F9889A87A3C30C7F7BA537E5E59C4C85A37733B16E57C62DF61302 PUSH1 0x5 SLOAD DUP4 PUSH1 0x40 MLOAD PUSH2 0x17E2 SWAP3 SWAP2 SWAP1 PUSH2 0x2708 JUMP JUMPDEST PUSH1 0x40 MLOAD DUP1 SWAP2 SUB SWAP1 LOG1 DUP2 PUSH1 0x5 DUP2 SWAP1 SSTORE POP POP POP JUMP JUMPDEST PUSH0 PUSH0 PUSH0 DUP5 PUSH20 0xFFFFFFFFFFFFFFFFFFFFFFFFFFFFFFFFFFFFFFFF AND PUSH20 0xFFFFFFFFFFFFFFFFFFFFFFFFFFFFFFFFFFFFFFFF AND DUP2 MSTORE PUSH1 0x20 ADD SWAP1 DUP2 MSTORE PUSH1 0x20 ADD PUSH0 KECCAK256 PUSH0 DUP4 PUSH1 0xFF AND PUSH1 0xFF AND DUP2 MSTORE PUSH1 0x20 ADD SWAP1 DUP2 MSTORE PUSH1 0x20 ADD PUSH0 KECCAK256 PUSH0 SWAP1 SLOAD SWAP1 PUSH2 0x100 EXP SWAP1 DIV PUSH1 0xFF AND SWAP1 POP SWAP3 SWAP2 POP POP JUMP JUMPDEST PUSH1 0x1 PUSH0 PUSH0 CALLER PUSH20 0xFFFFFFFFFFFFFFFFFFFFFFFFFFFFFFFFFFFFFFFF AND PUSH20 0xFFFFFFFFFFFFFFFFFFFFFFFFFFFFFFFFFFFFFFFF AND DUP2 MSTORE PUSH1 0x20 ADD SWAP1 DUP2 MSTORE PUSH1 0x20 ADD PUSH0 KECCAK256 PUSH0 DUP3 PUSH1 0xFF AND PUSH1 0xFF AND DUP2 MSTORE PUSH1 0x20 ADD SWAP1 DUP2 MSTORE PUSH1 0x20 ADD PUSH0 KECCAK256 PUSH0 SWAP1 SLOAD SWAP1 PUSH2 0x100 EXP SWAP1 DIV PUSH1 0xFF AND PUSH2 0x18F2 JUMPI PUSH1 0x40 MLOAD PUSH32 0x82B4290000000000000000000000000000000000000000000000000000000000 DUP2 MSTORE PUSH1 0x4 ADD PUSH1 0x40 MLOAD DUP1 SWAP2 SUB SWAP1 REVERT JUMPDEST PUSH0 PUSH20 0xFFFFFFFFFFFFFFFFFFFFFFFFFFFFFFFFFFFFFFFF AND DUP3 PUSH20 0xFFFFFFFFFFFFFFFFFFFFFFFFFFFFFFFFFFFFFFFF AND SUB PUSH2 0x1957 JUMPI PUSH1 0x40 MLOAD PUSH32 0xD92E233D00000000000000000000000000000000000000000000000000000000 DUP2 MSTORE PUSH1 0x4 ADD PUSH1 0x40 MLOAD DUP1 SWAP2 SUB SWAP1 REVERT JUMPDEST PUSH32 0xA4EB09E14CF0B6177B79042A04365517D9B189A50EC69EAABC40A6440103C90 PUSH1 0x1 PUSH0 SWAP1 SLOAD SWAP1 PUSH2 0x100 EXP SWAP1 DIV PUSH20 0xFFFFFFFFFFFFFFFFFFFFFFFFFFFFFFFFFFFFFFFF AND DUP4 PUSH1 0x40 MLOAD PUSH2 0x19A9 SWAP3 SWAP2 SWAP1 PUSH2 0x27CB JUMP JUMPDEST PUSH1 0x40 MLOAD DUP1 SWAP2 SUB SWAP1 LOG1 DUP2 PUSH1 0x1 PUSH0 PUSH2 0x100 EXP DUP2 SLOAD DUP2 PUSH20 0xFFFFFFFFFFFFFFFFFFFFFFFFFFFFFFFFFFFFFFFF MUL NOT AND SWAP1 DUP4 PUSH20 0xFFFFFFFFFFFFFFFFFFFFFFFFFFFFFFFFFFFFFFFF AND MUL OR SWAP1 SSTORE POP POP POP JUMP JUMPDEST PUSH1 0x3 DUP2 JUMP JUMPDEST PUSH1 0x3 PUSH0 SWAP1 SLOAD SWAP1 PUSH2 0x100 EXP SWAP1 DIV PUSH1 0xFF AND ISZERO PUSH2 0x1A40 JUMPI PUSH1 0x40 MLOAD PUSH32 0x9396D15600000000000000000000000000000000000000000000000000000000 DUP2 MSTORE PUSH1 0x4 ADD PUSH1 0x40 MLOAD DUP1 SWAP2 SUB SWAP1 REVERT JUMPDEST PUSH1 0x1 PUSH1 0x3 PUSH0 PUSH2 0x100 EXP DUP2 SLOAD DUP2 PUSH1 0xFF MUL NOT AND SWAP1 DUP4 ISZERO ISZERO MUL OR SWAP1 SSTORE POP PUSH0 PUSH1 0x4 PUSH0 DUP4 DUP2 MSTORE PUSH1 0x20 ADD SWAP1 DUP2 MSTORE PUSH1 0x20 ADD PUSH0 KECCAK256 SWAP1 POP CALLER PUSH20 0xFFFFFFFFFFFFFFFFFFFFFFFFFFFFFFFFFFFFFFFF AND DUP2 PUSH1 0x1 ADD PUSH0 SWAP1 SLOAD SWAP1 PUSH2 0x100 EXP SWAP1 DIV PUSH20 0xFFFFFFFFFFFFFFFFFFFFFFFFFFFFFFFFFFFFFFFF AND PUSH20 0xFFFFFFFFFFFFFFFFFFFFFFFFFFFFFFFFFFFFFFFF AND EQ PUSH2 0x1B01 JUMPI DUP2 PUSH1 0x40 MLOAD PUSH32 0x9B4C33D00000000000000000000000000000000000000000000000000000000 DUP2 MSTORE PUSH1 0x4 ADD PUSH2 0x1AF8 SWAP2 SWAP1 PUSH2 0x22B0 JUMP JUMPDEST PUSH1 0x40 MLOAD DUP1 SWAP2 SUB SWAP1 REVERT JUMPDEST PUSH0 PUSH1 0x6 DUP2 GT ISZERO PUSH2 0x1B14 JUMPI PUSH2 0x1B13 PUSH2 0x2568 JUMP JUMPDEST JUMPDEST DUP2 PUSH1 0x6 ADD PUSH0 SWAP1 SLOAD SWAP1 PUSH2 0x100 EXP SWAP1 DIV PUSH1 0xFF AND PUSH1 0x6 DUP2 GT ISZERO PUSH2 0x1B37 JUMPI PUSH2 0x1B36 PUSH2 0x2568 JUMP JUMPDEST JUMPDEST EQ PUSH2 0x1B8B JUMPI DUP2 DUP2 PUSH1 0x6 ADD PUSH0 SWAP1 SLOAD SWAP1 PUSH2 0x100 EXP SWAP1 DIV PUSH1 0xFF AND PUSH1 0x40 MLOAD PUSH32 0xA5889E500000000000000000000000000000000000000000000000000000000 DUP2 MSTORE PUSH1 0x4 ADD PUSH2 0x1B82 SWAP3 SWAP2 SWAP1 PUSH2 0x268F JUMP JUMPDEST PUSH1 0x40 MLOAD DUP1 SWAP2 SUB SWAP1 REVERT JUMPDEST PUSH0 CALLVALUE SUB PUSH2 0x1BC4 JUMPI PUSH1 0x40 MLOAD PUSH32 0x1F2A200500000000000000000000000000000000000000000000000000000000 DUP2 MSTORE PUSH1 0x4 ADD PUSH1 0x40 MLOAD DUP1 SWAP2 SUB SWAP1 REVERT JUMPDEST CALLVALUE DUP2 PUSH1 0x3 ADD DUP2 SWAP1 SSTORE POP PUSH1 0x1 DUP2 PUSH1 0x6 ADD PUSH0 PUSH2 0x100 EXP DUP2 SLOAD DUP2 PUSH1 0xFF MUL NOT AND SWAP1 DUP4 PUSH1 0x6 DUP2 GT ISZERO PUSH2 0x1BF4 JUMPI PUSH2 0x1BF3 PUSH2 0x2568 JUMP JUMPDEST JUMPDEST MUL OR SWAP1 SSTORE POP DUP2 PUSH32 0x86441EC7B38B2D00ECF92F8283F1303D21D33149D841DC49C80F1BDE8F7C3886 CALLVALUE PUSH1 0x40 MLOAD PUSH2 0x1C29 SWAP2 SWAP1 PUSH2 0x22B0 JUMP JUMPDEST PUSH1 0x40 MLOAD DUP1 SWAP2 SUB SWAP1 LOG2 POP PUSH0 PUSH1 0x3 PUSH0 PUSH2 0x100 EXP DUP2 SLOAD DUP2 PUSH1 0xFF MUL NOT AND SWAP1 DUP4 ISZERO ISZERO MUL OR SWAP1 SSTORE POP POP JUMP JUMPDEST PUSH1 0x2 DUP2 JUMP JUMPDEST PUSH2 0x1C5B PUSH2 0x2152 JUMP JUMPDEST PUSH2 0x1C64 DUP3 PUSH2 0x1F0E JUMP JUMPDEST PUSH1 0x40 MLOAD DUP1 PUSH1 0xE0 ADD PUSH1 0x40 MSTORE SWAP1 DUP2 PUSH0 DUP3 ADD SLOAD DUP2 MSTORE PUSH1 0x20 ADD PUSH1 0x1 DUP3 ADD PUSH0 SWAP1 SLOAD SWAP1 PUSH2 0x100 EXP SWAP1 DIV PUSH20 0xFFFFFFFFFFFFFFFFFFFFFFFFFFFFFFFFFFFFFFFF AND PUSH20 0xFFFFFFFFFFFFFFFFFFFFFFFFFFFFFFFFFFFFFFFF AND PUSH20 0xFFFFFFFFFFFFFFFFFFFFFFFFFFFFFFFFFFFFFFFF AND DUP2 MSTORE PUSH1 0x20 ADD PUSH1 0x2 DUP3 ADD PUSH0 SWAP1 SLOAD SWAP1 PUSH2 0x100 EXP SWAP1 DIV PUSH20 0xFFFFFFFFFFFFFFFFFFFFFFFFFFFFFFFFFFFFFFFF AND PUSH20 0xFFFFFFFFFFFFFFFFFFFFFFFFFFFFFFFFFFFFFFFF AND PUSH20 0xFFFFFFFFFFFFFFFFFFFFFFFFFFFFFFFFFFFFFFFF AND DUP2 MSTORE PUSH1 0x20 ADD PUSH1 0x3 DUP3 ADD SLOAD DUP2 MSTORE PUSH1 0x20 ADD PUSH1 0x4 DUP3 ADD SLOAD DUP2 MSTORE PUSH1 0x20 ADD PUSH1 0x5 DUP3 ADD SLOAD DUP2 MSTORE PUSH1 0x20 ADD PUSH1 0x6 DUP3 ADD PUSH0 SWAP1 SLOAD SWAP1 PUSH2 0x100 EXP SWAP1 DIV PUSH1 0xFF AND PUSH1 0x6 DUP2 GT ISZERO PUSH2 0x1D64 JUMPI PUSH2 0x1D63 PUSH2 0x2568 JUMP JUMPDEST JUMPDEST PUSH1 0x6 DUP2 GT ISZERO PUSH2 0x1D76 JUMPI PUSH2 0x1D75 PUSH2 0x2568 JUMP JUMPDEST JUMPDEST DUP2 MSTORE POP POP SWAP1 POP SWAP2 SWAP1 POP JUMP JUMPDEST PUSH2 0x1F4 DUP2 JUMP JUMPDEST PUSH0 PUSH2 0x1D91 DUP3 PUSH2 0x1F0E JUMP JUMPDEST SWAP1 POP DUP1 PUSH1 0x2 ADD PUSH0 SWAP1 SLOAD SWAP1 PUSH2 0x100 EXP SWAP1 DIV PUSH20 0xFFFFFFFFFFFFFFFFFFFFFFFFFFFFFFFFFFFFFFFF AND PUSH20 0xFFFFFFFFFFFFFFFFFFFFFFFFFFFFFFFFFFFFFFFF AND CALLER PUSH20 0xFFFFFFFFFFFFFFFFFFFFFFFFFFFFFFFFFFFFFFFF AND EQ PUSH2 0x1E26 JUMPI DUP2 PUSH1 0x40 MLOAD PUSH32 0xA7E6777800000000000000000000000000000000000000000000000000000000 DUP2 MSTORE PUSH1 0x4 ADD PUSH2 0x1E1D SWAP2 SWAP1 PUSH2 0x22B0 JUMP JUMPDEST PUSH1 0x40 MLOAD DUP1 SWAP2 SUB SWAP1 REVERT JUMPDEST PUSH1 0x1 PUSH1 0x6 DUP2 GT ISZERO PUSH2 0x1E3A JUMPI PUSH2 0x1E39 PUSH2 0x2568 JUMP JUMPDEST JUMPDEST DUP2 PUSH1 0x6 ADD PUSH0 SWAP1 SLOAD SWAP1 PUSH2 0x100 EXP SWAP1 DIV PUSH1 0xFF AND PUSH1 0x6 DUP2 GT ISZERO PUSH2 0x1E5D JUMPI PUSH2 0x1E5C PUSH2 0x2568 JUMP JUMPDEST JUMPDEST EQ PUSH2 0x1EB1 JUMPI DUP2 DUP2 PUSH1 0x6 ADD PUSH0 SWAP1 SLOAD SWAP1 PUSH2 0x100 EXP SWAP1 DIV PUSH1 0xFF AND PUSH1 0x40 MLOAD PUSH32 0xA5889E500000000000000000000000000000000000000000000000000000000 DUP2 MSTORE PUSH1 0x4 ADD PUSH2 0x1EA8 SWAP3 SWAP2 SWAP1 PUSH2 0x268F JUMP JUMPDEST PUSH1 0x40 MLOAD DUP1 SWAP2 SUB SWAP1 REVERT JUMPDEST PUSH1 0x2 DUP2 PUSH1 0x6 ADD PUSH0 PUSH2 0x100 EXP DUP2 SLOAD DUP2 PUSH1 0xFF MUL NOT AND SWAP1 DUP4 PUSH1 0x6 DUP2 GT ISZERO PUSH2 0x1ED8 JUMPI PUSH2 0x1ED7 PUSH2 0x2568 JUMP JUMPDEST JUMPDEST MUL OR SWAP1 SSTORE POP DUP2 PUSH32 0xE3CE5F36666AEC295B2ED1A858CAF4782066E5E8C1A5A5DA7BA6551B14FCFDCB PUSH1 0x40 MLOAD PUSH1 0x40 MLOAD DUP1 SWAP2 SUB SWAP1 LOG2 POP POP JUMP JUMPDEST PUSH0 PUSH0 PUSH1 0x4 PUSH0 DUP5 DUP2 MSTORE PUSH1 0x20 ADD SWAP1 DUP2 MSTORE PUSH1 0x20 ADD PUSH0 KECCAK256 SWAP1 POP PUSH0 PUSH20 0xFFFFFFFFFFFFFFFFFFFFFFFFFFFFFFFFFFFFFFFF AND DUP2 PUSH1 0x1 ADD PUSH0 SWAP1 SLOAD SWAP1 PUSH2 0x100 EXP SWAP1 DIV PUSH20 0xFFFFFFFFFFFFFFFFFFFFFFFFFFFFFFFFFFFFFFFF AND PUSH20 0xFFFFFFFFFFFFFFFFFFFFFFFFFFFFFFFFFFFFFFFF AND SUB PUSH2 0x1FB6 JUMPI DUP3 PUSH1 0x40 MLOAD PUSH32 0x4E90BADC00000000000000000000000000000000000000000000000000000000 DUP2 MSTORE PUSH1 0x4 ADD PUSH2 0x1FAD SWAP2 SWAP1 PUSH2 0x22B0 JUMP JUMPDEST PUSH1 0x40 MLOAD DUP1 SWAP2 SUB SWAP1 REVERT JUMPDEST DUP1 SWAP2 POP POP SWAP2 SWAP1 POP JUMP JUMPDEST PUSH0 PUSH0 PUSH2 0x2710 PUSH1 0x5 SLOAD DUP5 PUSH2 0x1FD2 SWAP2 SWAP1 PUSH2 0x27F2 JUMP JUMPDEST PUSH2 0x1FDC SWAP2 SWAP1 PUSH2 0x2860 JUMP JUMPDEST SWAP1 POP DUP1 DUP4 PUSH2 0x1FEA SWAP2 SWAP1 PUSH2 0x2890 JUMP JUMPDEST SWAP2 POP SWAP2 POP SWAP2 JUMP JUMPDEST PUSH0 DUP2 SUB ISZERO PUSH2 0x209A JUMPI PUSH0 DUP3 PUSH20 0xFFFFFFFFFFFFFFFFFFFFFFFFFFFFFFFFFFFFFFFF AND DUP3 PUSH1 0x40 MLOAD PUSH2 0x201E SWAP1 PUSH2 0x28F0 JUMP JUMPDEST PUSH0 PUSH1 0x40 MLOAD DUP1 DUP4 SUB DUP2 DUP6 DUP8 GAS CALL SWAP3 POP POP POP RETURNDATASIZE DUP1 PUSH0 DUP2 EQ PUSH2 0x2058 JUMPI PUSH1 0x40 MLOAD SWAP2 POP PUSH1 0x1F NOT PUSH1 0x3F RETURNDATASIZE ADD AND DUP3 ADD PUSH1 0x40 MSTORE RETURNDATASIZE DUP3 MSTORE RETURNDATASIZE PUSH0 PUSH1 0x20 DUP5 ADD RETURNDATACOPY PUSH2 0x205D JUMP JUMPDEST PUSH1 0x60 SWAP2 POP JUMPDEST POP POP SWAP1 POP DUP1 PUSH2 0x2098 JUMPI PUSH1 0x40 MLOAD PUSH32 0x90B8EC1800000000000000000000000000000000000000000000000000000000 DUP2 MSTORE PUSH1 0x4 ADD PUSH1 0x40 MLOAD DUP1 SWAP2 SUB SWAP1 REVERT JUMPDEST POP JUMPDEST POP POP JUMP JUMPDEST PUSH1 0x1 PUSH0 PUSH0 DUP5 PUSH20 0xFFFFFFFFFFFFFFFFFFFFFFFFFFFFFFFFFFFFFFFF AND PUSH20 0xFFFFFFFFFFFFFFFFFFFFFFFFFFFFFFFFFFFFFFFF AND DUP2 MSTORE PUSH1 0x20 ADD SWAP1 DUP2 MSTORE PUSH1 0x20 ADD PUSH0 KECCAK256 PUSH0 DUP4 PUSH1 0xFF AND PUSH1 0xFF AND DUP2 MSTORE PUSH1 0x20 ADD SWAP1 DUP2 MSTORE PUSH1 0x20 ADD PUSH0 KECCAK256 PUSH0 PUSH2 0x100 EXP DUP2 SLOAD DUP2 PUSH1 0xFF MUL NOT AND SWAP1 DUP4 ISZERO ISZERO MUL OR SWAP1 SSTORE POP DUP1 PUSH1 0xFF AND DUP3 PUSH20 0xFFFFFFFFFFFFFFFFFFFFFFFFFFFFFFFFFFFFFFFF AND PUSH32 0xAA259565575C834BC07E74DCA784B4071676133AC78513B431AFB6EE7EDAE121 PUSH1 0x40 MLOAD PUSH1 0x40 MLOAD DUP1 SWAP2 SUB SWAP1 LOG3 POP POP JUMP JUMPDEST PUSH1 0x40 MLOAD DUP1 PUSH1 0xE0 ADD PUSH1 0x40 MSTORE DUP1 PUSH0 DUP2 MSTORE PUSH1 0x20 ADD PUSH0 PUSH20 0xFFFFFFFFFFFFFFFFFFFFFFFFFFFFFFFFFFFFFFFF AND DUP2 MSTORE PUSH1 0x20 ADD PUSH0 PUSH20 0xFFFFFFFFFFFFFFFFFFFFFFFFFFFFFFFFFFFFFFFF AND DUP2 MSTORE PUSH1 0x20 ADD PUSH0 DUP2 MSTORE PUSH1 0x20 ADD PUSH0 DUP2 MSTORE PUSH1 0x20 ADD PUSH0 DUP2 MSTORE PUSH1 0x20 ADD PUSH0 PUSH1 0x6 DUP2 GT ISZERO PUSH2 0x21C0 JUMPI PUSH2 0x21BF PUSH2 0x2568 JUMP JUMPDEST JUMPDEST DUP2 MSTORE POP SWAP1 JUMP JUMPDEST PUSH0 PUSH0 REVERT JUMPDEST PUSH0 PUSH20 0xFFFFFFFFFFFFFFFFFFFFFFFFFFFFFFFFFFFFFFFF DUP3 AND SWAP1 POP SWAP2 SWAP1 POP JUMP JUMPDEST PUSH0 PUSH2 0x21F3 DUP3 PUSH2 0x21CA JUMP JUMPDEST SWAP1 POP SWAP2 SWAP1 POP JUMP JUMPDEST PUSH2 0x2203 DUP2 PUSH2 0x21E9 JUMP JUMPDEST DUP2 EQ PUSH2 0x220D JUMPI PUSH0 PUSH0 REVERT JUMPDEST POP JUMP JUMPDEST PUSH0 DUP2 CALLDATALOAD SWAP1 POP PUSH2 0x221E DUP2 PUSH2 0x21FA JUMP JUMPDEST SWAP3 SWAP2 POP POP JUMP JUMPDEST PUSH0 PUSH1 0xFF DUP3 AND SWAP1 POP SWAP2 SWAP1 POP JUMP JUMPDEST PUSH2 0x2239 DUP2 PUSH2 0x2224 JUMP JUMPDEST DUP2 EQ PUSH2 0x2243 JUMPI PUSH0 PUSH0 REVERT JUMPDEST POP JUMP JUMPDEST PUSH0 DUP2 CALLDATALOAD SWAP1 POP PUSH2 0x2254 DUP2 PUSH2 0x2230 JUMP JUMPDEST SWAP3 SWAP2 POP POP JUMP JUMPDEST PUSH0 PUSH0 PUSH1 0x40 DUP4 DUP6 SUB SLT ISZERO PUSH2 0x2270 JUMPI PUSH2 0x226F PUSH2 0x21C6 JUMP JUMPDEST JUMPDEST PUSH0 PUSH2 0x227D DUP6 DUP3 DUP7 ADD PUSH2 0x2210 JUMP JUMPDEST SWAP3 POP POP PUSH1 0x20 PUSH2 0x228E DUP6 DUP3 DUP7 ADD PUSH2 0x2246 JUMP JUMPDEST SWAP2 POP POP SWAP3 POP SWAP3 SWAP1 POP JUMP JUMPDEST PUSH0 DUP2 SWAP1 POP SWAP2 SWAP1 POP JUMP JUMPDEST PUSH2 0x22AA DUP2 PUSH2 0x2298 JUMP JUMPDEST DUP3 MSTORE POP POP JUMP JUMPDEST PUSH0 PUSH1 0x20 DUP3 ADD SWAP1 POP PUSH2 0x22C3 PUSH0 DUP4 ADD DUP5 PUSH2 0x22A1 JUMP JUMPDEST SWAP3 SWAP2 POP POP JUMP JUMPDEST PUSH2 0x22D2 DUP2 PUSH2 0x2298 JUMP JUMPDEST DUP2 EQ PUSH2 0x22DC JUMPI PUSH0 PUSH0 REVERT JUMPDEST POP JUMP JUMPDEST PUSH0 DUP2 CALLDATALOAD SWAP1 POP PUSH2 0x22ED DUP2 PUSH2 0x22C9 JUMP JUMPDEST SWAP3 SWAP2 POP POP JUMP JUMPDEST PUSH0 PUSH1 0x20 DUP3 DUP5 SUB SLT ISZERO PUSH2 0x2308 JUMPI PUSH2 0x2307 PUSH2 0x21C6 JUMP JUMPDEST JUMPDEST PUSH0 PUSH2 0x2315 DUP5 DUP3 DUP6 ADD PUSH2 0x22DF JUMP JUMPDEST SWAP2 POP POP SWAP3 SWAP2 POP POP JUMP JUMPDEST PUSH2 0x2327 DUP2 PUSH2 0x2224 JUMP JUMPDEST DUP3 MSTORE POP POP JUMP JUMPDEST PUSH0 PUSH1 0x20 DUP3 ADD SWAP1 POP PUSH2 0x2340 PUSH0 DUP4 ADD DUP5 PUSH2 0x231E JUMP JUMPDEST SWAP3 SWAP2 POP POP JUMP JUMPDEST PUSH0 DUP2 ISZERO ISZERO SWAP1 POP SWAP2 SWAP1 POP JUMP JUMPDEST PUSH2 0x235A DUP2 PUSH2 0x2346 JUMP JUMPDEST DUP2 EQ PUSH2 0x2364 JUMPI PUSH0 PUSH0 REVERT JUMPDEST POP JUMP JUMPDEST PUSH0 DUP2 CALLDATALOAD SWAP1 POP PUSH2 0x2375 DUP2 PUSH2 0x2351 JUMP JUMPDEST SWAP3 SWAP2 POP POP JUMP JUMPDEST PUSH0 PUSH0 PUSH1 0x40 DUP4 DUP6 SUB SLT ISZERO PUSH2 0x2391 JUMPI PUSH2 0x2390 PUSH2 0x21C6 JUMP JUMPDEST JUMPDEST PUSH0 PUSH2 0x239E DUP6 DUP3 DUP7 ADD PUSH2 0x22DF JUMP JUMPDEST SWAP3 POP POP PUSH1 0x20 PUSH2 0x23AF DUP6 DUP3 DUP7 ADD PUSH2 0x2367 JUMP JUMPDEST SWAP2 POP POP SWAP3 POP SWAP3 SWAP1 POP JUMP JUMPDEST PUSH0 DUP2 SWAP1 POP SWAP2 SWAP1 POP JUMP JUMPDEST PUSH2 0x23CB DUP2 PUSH2 0x23B9 JUMP JUMPDEST DUP2 EQ PUSH2 0x23D5 JUMPI PUSH0 PUSH0 REVERT JUMPDEST POP JUMP JUMPDEST PUSH0 DUP2 CALLDATALOAD SWAP1 POP PUSH2 0x23E6 DUP2 PUSH2 0x23C2 JUMP JUMPDEST SWAP3 SWAP2 POP POP JUMP JUMPDEST PUSH0 PUSH0 PUSH1 0x40 DUP4 DUP6 SUB SLT ISZERO PUSH2 0x2402 JUMPI PUSH2 0x2401 PUSH2 0x21C6 JUMP JUMPDEST JUMPDEST PUSH0 PUSH2 0x240F DUP6 DUP3 DUP7 ADD PUSH2 0x2210 JUMP JUMPDEST SWAP3 POP POP PUSH1 0x20 PUSH2 0x2420 DUP6 DUP3 DUP7 ADD PUSH2 0x23D8 JUMP JUMPDEST SWAP2 POP POP SWAP3 POP SWAP3 SWAP1 POP JUMP JUMPDEST PUSH0 DUP2 SWAP1 POP SWAP2 SWAP1 POP JUMP JUMPDEST PUSH0 PUSH2 0x244D PUSH2 0x2448 PUSH2 0x2443 DUP5 PUSH2 0x21CA JUMP JUMPDEST PUSH2 0x242A JUMP JUMPDEST PUSH2 0x21CA JUMP JUMPDEST SWAP1 POP SWAP2 SWAP1 POP JUMP JUMPDEST PUSH0 PUSH2 0x245E DUP3 PUSH2 0x2433 JUMP JUMPDEST SWAP1 POP SWAP2 SWAP1 POP JUMP JUMPDEST PUSH0 PUSH2 0x246F DUP3 PUSH2 0x2454 JUMP JUMPDEST SWAP1 POP SWAP2 SWAP1 POP JUMP JUMPDEST PUSH2 0x247F DUP2 PUSH2 0x2465 JUMP JUMPDEST DUP3 MSTORE POP POP JUMP JUMPDEST PUSH0 PUSH1 0x20 DUP3 ADD SWAP1 POP PUSH2 0x2498 PUSH0 DUP4 ADD DUP5 PUSH2 0x2476 JUMP JUMPDEST SWAP3 SWAP2 POP POP JUMP JUMPDEST PUSH0 PUSH2 0x24A8 DUP3 PUSH2 0x2433 JUMP JUMPDEST SWAP1 POP SWAP2 SWAP1 POP JUMP JUMPDEST PUSH0 PUSH2 0x24B9 DUP3 PUSH2 0x249E JUMP JUMPDEST SWAP1 POP SWAP2 SWAP1 POP JUMP JUMPDEST PUSH2 0x24C9 DUP2 PUSH2 0x24AF JUMP JUMPDEST DUP3 MSTORE POP POP JUMP JUMPDEST PUSH0 PUSH1 0x20 DUP3 ADD SWAP1 POP PUSH2 0x24E2 PUSH0 DUP4 ADD DUP5 PUSH2 0x24C0 JUMP JUMPDEST SWAP3 SWAP2 POP POP JUMP JUMPDEST PUSH2 0x24F1 DUP2 PUSH2 0x2346 JUMP JUMPDEST DUP3 MSTORE POP POP JUMP JUMPDEST PUSH0 PUSH1 0x20 DUP3 ADD SWAP1 POP PUSH2 0x250A PUSH0 DUP4 ADD DUP5 PUSH2 0x24E8 JUMP JUMPDEST SWAP3 SWAP2 POP POP JUMP JUMPDEST PUSH0 PUSH1 0x20 DUP3 DUP5 SUB SLT ISZERO PUSH2 0x2525 JUMPI PUSH2 0x2524 PUSH2 0x21C6 JUMP JUMPDEST JUMPDEST PUSH0 PUSH2 0x2532 DUP5 DUP3 DUP6 ADD PUSH2 0x2210 JUMP JUMPDEST SWAP2 POP POP SWAP3 SWAP2 POP POP JUMP JUMPDEST PUSH2 0x2544 DUP2 PUSH2 0x2298 JUMP JUMPDEST DUP3 MSTORE POP POP JUMP JUMPDEST PUSH2 0x2553 DUP2 PUSH2 0x21E9 JUMP JUMPDEST DUP3 MSTORE POP POP JUMP JUMPDEST PUSH2 0x2562 DUP2 PUSH2 0x23B9 JUMP JUMPDEST DUP3 MSTORE POP POP JUMP JUMPDEST PUSH32 0x4E487B7100000000000000000000000000000000000000000000000000000000 PUSH0 MSTORE PUSH1 0x21 PUSH1 0x4 MSTORE PUSH1 0x24 PUSH0 REVERT JUMPDEST PUSH1 0x7 DUP2 LT PUSH2 0x25A6 JUMPI PUSH2 0x25A5 PUSH2 0x2568 JUMP JUMPDEST JUMPDEST POP JUMP JUMPDEST PUSH0 DUP2 SWAP1 POP PUSH2 0x25B6 DUP3 PUSH2 0x2595 JUMP JUMPDEST SWAP2 SWAP1 POP JUMP JUMPDEST PUSH0 PUSH2 0x25C5 DUP3 PUSH2 0x25A9 JUMP JUMPDEST SWAP1 POP SWAP2 SWAP1 POP JUMP JUMPDEST PUSH2 0x25D5 DUP2 PUSH2 0x25BB JUMP JUMPDEST DUP3 MSTORE POP POP JUMP JUMPDEST PUSH1 0xE0 DUP3 ADD PUSH0 DUP3 ADD MLOAD PUSH2 0x25EF PUSH0 DUP6 ADD DUP3 PUSH2 0x253B JUMP JUMPDEST POP PUSH1 0x20 DUP3 ADD MLOAD PUSH2 0x2602 PUSH1 0x20 DUP6 ADD DUP3 PUSH2 0x254A JUMP JUMPDEST POP PUSH1 0x40 DUP3 ADD MLOAD PUSH2 0x2615 PUSH1 0x40 DUP6 ADD DUP3 PUSH2 0x254A JUMP JUMPDEST POP PUSH1 0x60 DUP3 ADD MLOAD PUSH2 0x2628 PUSH1 0x60 DUP6 ADD DUP3 PUSH2 0x253B JUMP JUMPDEST POP PUSH1 0x80 DUP3 ADD MLOAD PUSH2 0x263B PUSH1 0x80 DUP6 ADD DUP3 PUSH2 0x253B JUMP JUMPDEST POP PUSH1 0xA0 DUP3 ADD MLOAD PUSH2 0x264E PUSH1 0xA0 DUP6 ADD DUP3 PUSH2 0x2559 JUMP JUMPDEST POP PUSH1 0xC0 DUP3 ADD MLOAD PUSH2 0x2661 PUSH1 0xC0 DUP6 ADD DUP3 PUSH2 0x25CC JUMP JUMPDEST POP POP POP POP JUMP JUMPDEST PUSH0 PUSH1 0xE0 DUP3 ADD SWAP1 POP PUSH2 0x267A PUSH0 DUP4 ADD DUP5 PUSH2 0x25DB JUMP JUMPDEST SWAP3 SWAP2 POP POP JUMP JUMPDEST PUSH2 0x2689 DUP2 PUSH2 0x25BB JUMP JUMPDEST DUP3 MSTORE POP POP JUMP JUMPDEST PUSH0 PUSH1 0x40 DUP3 ADD SWAP1 POP PUSH2 0x26A2 PUSH0 DUP4 ADD DUP6 PUSH2 0x22A1 JUMP JUMPDEST PUSH2 0x26AF PUSH1 0x20 DUP4 ADD DUP5 PUSH2 0x2680 JUMP JUMPDEST SWAP4 SWAP3 POP POP POP JUMP JUMPDEST PUSH2 0x26BF DUP2 PUSH2 0x21E9 JUMP JUMPDEST DUP3 MSTORE POP POP JUMP JUMPDEST PUSH0 PUSH1 0x80 DUP3 ADD SWAP1 POP PUSH2 0x26D8 PUSH0 DUP4 ADD DUP8 PUSH2 0x22A1 JUMP JUMPDEST PUSH2 0x26E5 PUSH1 0x20 DUP4 ADD DUP7 PUSH2 0x26B6 JUMP JUMPDEST PUSH2 0x26F2 PUSH1 0x40 DUP4 ADD DUP6 PUSH2 0x26B6 JUMP JUMPDEST PUSH2 0x26FF PUSH1 0x60 DUP4 ADD DUP5 PUSH2 0x22A1 JUMP JUMPDEST SWAP6 SWAP5 POP POP POP POP POP JUMP JUMPDEST PUSH0 PUSH1 0x40 DUP3 ADD SWAP1 POP PUSH2 0x271B PUSH0 DUP4 ADD DUP6 PUSH2 0x22A1 JUMP JUMPDEST PUSH2 0x2728 PUSH1 0x20 DUP4 ADD DUP5 PUSH2 0x22A1 JUMP JUMPDEST SWAP4 SWAP3 POP POP POP JUMP JUMPDEST PUSH32 0x4E487B7100000000000000000000000000000000000000000000000000000000 PUSH0 MSTORE PUSH1 0x11 PUSH1 0x4 MSTORE PUSH1 0x24 PUSH0 REVERT JUMPDEST PUSH0 PUSH2 0x2766 DUP3 PUSH2 0x2298 JUMP JUMPDEST SWAP2 POP PUSH32 0xFFFFFFFFFFFFFFFFFFFFFFFFFFFFFFFFFFFFFFFFFFFFFFFFFFFFFFFFFFFFFFFF DUP3 SUB PUSH2 0x2798 JUMPI PUSH2 0x2797 PUSH2 0x272F JUMP JUMPDEST JUMPDEST PUSH1 0x1 DUP3 ADD SWAP1 POP SWAP2 SWAP1 POP JUMP JUMPDEST PUSH2 0x27AC DUP2 PUSH2 0x23B9 JUMP JUMPDEST DUP3 MSTORE POP POP JUMP JUMPDEST PUSH0 PUSH1 0x20 DUP3 ADD SWAP1 POP PUSH2 0x27C5 PUSH0 DUP4 ADD DUP5 PUSH2 0x27A3 JUMP JUMPDEST SWAP3 SWAP2 POP POP JUMP JUMPDEST PUSH0 PUSH1 0x40 DUP3 ADD SWAP1 POP PUSH2 0x27DE PUSH0 DUP4 ADD DUP6 PUSH2 0x26B6 JUMP JUMPDEST PUSH2 0x27EB PUSH1 0x20 DUP4 ADD DUP5 PUSH2 0x26B6 JUMP JUMPDEST SWAP4 SWAP3 POP POP POP JUMP JUMPDEST PUSH0 PUSH2 0x27FC DUP3 PUSH2 0x2298 JUMP JUMPDEST SWAP2 POP PUSH2 0x2807 DUP4 PUSH2 0x2298 JUMP JUMPDEST SWAP3 POP DUP3 DUP3 MUL PUSH2 0x2815 DUP2 PUSH2 0x2298 JUMP JUMPDEST SWAP2 POP DUP3 DUP3 DIV DUP5 EQ DUP4 ISZERO OR PUSH2 0x282C JUMPI PUSH2 0x282B PUSH2 0x272F JUMP JUMPDEST JUMPDEST POP SWAP3 SWAP2 POP POP JUMP JUMPDEST PUSH32 0x4E487B7100000000000000000000000000000000000000000000000000000000 PUSH0 MSTORE PUSH1 0x12 PUSH1 0x4 MSTORE PUSH1 0x24 PUSH0 REVERT JUMPDEST PUSH0 PUSH2 0x286A DUP3 PUSH2 0x2298 JUMP JUMPDEST SWAP2 POP PUSH2 0x2875 DUP4 PUSH2 0x2298 JUMP JUMPDEST SWAP3 POP DUP3 PUSH2 0x2885 JUMPI PUSH2 0x2884 PUSH2 0x2833 JUMP JUMPDEST JUMPDEST DUP3 DUP3 DIV SWAP1 POP SWAP3 SWAP2 POP POP JUMP JUMPDEST PUSH0 PUSH2 0x289A DUP3 PUSH2 0x2298 JUMP JUMPDEST SWAP2 POP PUSH2 0x28A5 DUP4 PUSH2 0x2298 JUMP JUMPDEST SWAP3 POP DUP3 DUP3 SUB SWAP1 POP DUP2 DUP2 GT ISZERO PUSH2 0x28BD JUMPI PUSH2 0x28BC PUSH2 0x272F JUMP JUMPDEST JUMPDEST SWAP3 SWAP2 POP POP JUMP JUMPDEST PUSH0 DUP2 SWAP1 POP SWAP3 SWAP2 POP POP JUMP JUMPDEST POP JUMP JUMPDEST PUSH0 PUSH2 0x28DB PUSH0 DUP4 PUSH2 0x28C3 JUMP JUMPDEST SWAP2 POP PUSH2 0x28E6 DUP3 PUSH2 0x28CD JUMP JUMPDEST PUSH0 DUP3 ADD SWAP1 POP SWAP2 SWAP1 POP JUMP JUMPDEST PUSH0 PUSH2 0x28FA DUP3 PUSH2 0x28D0 JUMP JUMPDEST SWAP2 POP DUP2 SWAP1 POP SWAP2 SWAP1 POP JUMP INVALID LOG2 PUSH5 0x6970667358 0x22 SLT KECCAK256 0xBD PUSH20 0x9B88C94A3197C9C0B4EE8DD34703D600E5BE2101 0xCF LOG1 PUSH7 0x39BB2A549EEDCF PUSH5 0x736F6C6343 STOP ADDMOD 0x1F STOP CALLER "
				},
				"gasEstimates": {
					"creation": {
						"codeDepositCost": "2110800",
						"executionCost": "infinite",
						"totalCost": "infinite"
					},
					"external": {
						"ADMIN()": "443",
						"MAX_FEE_BPS()": "435",
						"MEDIATOR()": "353",
						"SELLER()": "397",
						"arbitrator()": "infinite",
						"cancelUnfunded(uint256)": "infinite",
						"confirmReceived(uint256)": "infinite",
						"createOrder(address,bytes32)": "infinite",
						"feeBps()": "2471",
						"fundOrder(uint256)": "infinite",
						"getOrder(uint256)": "infinite",
						"grantRole(address,uint8)": "29120",
						"hasRole(address,uint8)": "3222",
						"markShipped(uint256)": "infinite",
						"openDispute(uint256)": "infinite",
						"refundBuyer(uint256)": "infinite",
						"resolveDispute(uint256,bool)": "infinite",
						"revokeRole(address,uint8)": "28999",
						"setArbitrator(address)": "infinite",
						"treasury()": "infinite",
						"updateFee(uint256)": "infinite"
					},
					"internal": {
						"_calcFee(uint256)": "infinite",
						"_getOrder(uint256)": "infinite",
						"_safeTransfer(address,uint256)": "infinite"
					}
				},
				"methodIdentifiers": {
					"ADMIN()": "2a0acc6a",
					"MAX_FEE_BPS()": "d55be8c6",
					"MEDIATOR()": "b2170409",
					"SELLER()": "bca93eba",
					"arbitrator()": "6cc6cde1",
					"cancelUnfunded(uint256)": "41e8a42a",
					"confirmReceived(uint256)": "27dac36d",
					"createOrder(address,bytes32)": "4d471e85",
					"feeBps()": "24a9d853",
					"fundOrder(uint256)": "b9c4d0a7",
					"getOrder(uint256)": "d09ef241",
					"grantRole(address,uint8)": "3e840236",
					"hasRole(address,uint8)": "95a8c58d",
					"markShipped(uint256)": "eed90d6b",
					"openDispute(uint256)": "27d00fb0",
					"refundBuyer(uint256)": "39292763",
					"resolveDispute(uint256,bool)": "34b25ee2",
					"revokeRole(address,uint8)": "077d3c03",
					"setArbitrator(address)": "b0eefabe",
					"treasury()": "61d027b3",
					"updateFee(uint256)": "9012c4a8"
				}
			},
			"storageLayout": {
				"storage": [
					{
						"astId": 32,
						"contract": "new/MarketplaceEscrow_test/EscrowMarketplace.sol:EscrowMarketplace",
						"label": "_roles",
						"offset": 0,
						"slot": "0",
						"type": "t_mapping(t_address,t_mapping(t_uint8,t_bool))"
					},
					{
						"astId": 201,
						"contract": "new/MarketplaceEscrow_test/EscrowMarketplace.sol:EscrowMarketplace",
						"label": "arbitrator",
						"offset": 0,
						"slot": "1",
						"type": "t_contract(IArbitrator)1058"
					},
					{
						"astId": 204,
						"contract": "new/MarketplaceEscrow_test/EscrowMarketplace.sol:EscrowMarketplace",
						"label": "_nextOrderId",
						"offset": 0,
						"slot": "2",
						"type": "t_uint256"
					},
					{
						"astId": 206,
						"contract": "new/MarketplaceEscrow_test/EscrowMarketplace.sol:EscrowMarketplace",
						"label": "_locked",
						"offset": 0,
						"slot": "3",
						"type": "t_bool"
					},
					{
						"astId": 211,
						"contract": "new/MarketplaceEscrow_test/EscrowMarketplace.sol:EscrowMarketplace",
						"label": "_orders",
						"offset": 0,
						"slot": "4",
						"type": "t_mapping(t_uint256,t_struct(Order)195_storage)"
					},
					{
						"astId": 214,
						"contract": "new/MarketplaceEscrow_test/EscrowMarketplace.sol:EscrowMarketplace",
						"label": "feeBps",
						"offset": 0,
						"slot": "5",
						"type": "t_uint256"
					}
				],
				"types": {
					"t_address": {
						"encoding": "inplace",
						"label": "address",
						"numberOfBytes": "20"
					},
					"t_bool": {
						"encoding": "inplace",
						"label": "bool",
						"numberOfBytes": "1"
					},
					"t_bytes32": {
						"encoding": "inplace",
						"label": "bytes32",
						"numberOfBytes": "32"
					},
					"t_contract(IArbitrator)1058": {
						"encoding": "inplace",
						"label": "contract IArbitrator",
						"numberOfBytes": "20"
					},
					"t_enum(OrderState)179": {
						"encoding": "inplace",
						"label": "enum EscrowMarketplace.OrderState",
						"numberOfBytes": "1"
					},
					"t_mapping(t_address,t_mapping(t_uint8,t_bool))": {
						"encoding": "mapping",
						"key": "t_address",
						"label": "mapping(address => mapping(uint8 => bool))",
						"numberOfBytes": "32",
						"value": "t_mapping(t_uint8,t_bool)"
					},
					"t_mapping(t_uint256,t_struct(Order)195_storage)": {
						"encoding": "mapping",
						"key": "t_uint256",
						"label": "mapping(uint256 => struct EscrowMarketplace.Order)",
						"numberOfBytes": "32",
						"value": "t_struct(Order)195_storage"
					},
					"t_mapping(t_uint8,t_bool)": {
						"encoding": "mapping",
						"key": "t_uint8",
						"label": "mapping(uint8 => bool)",
						"numberOfBytes": "32",
						"value": "t_bool"
					},
					"t_struct(Order)195_storage": {
						"encoding": "inplace",
						"label": "struct EscrowMarketplace.Order",
						"members": [
							{
								"astId": 181,
								"contract": "new/MarketplaceEscrow_test/EscrowMarketplace.sol:EscrowMarketplace",
								"label": "id",
								"offset": 0,
								"slot": "0",
								"type": "t_uint256"
							},
							{
								"astId": 183,
								"contract": "new/MarketplaceEscrow_test/EscrowMarketplace.sol:EscrowMarketplace",
								"label": "buyer",
								"offset": 0,
								"slot": "1",
								"type": "t_address"
							},
							{
								"astId": 185,
								"contract": "new/MarketplaceEscrow_test/EscrowMarketplace.sol:EscrowMarketplace",
								"label": "seller",
								"offset": 0,
								"slot": "2",
								"type": "t_address"
							},
							{
								"astId": 187,
								"contract": "new/MarketplaceEscrow_test/EscrowMarketplace.sol:EscrowMarketplace",
								"label": "amount",
								"offset": 0,
								"slot": "3",
								"type": "t_uint256"
							},
							{
								"astId": 189,
								"contract": "new/MarketplaceEscrow_test/EscrowMarketplace.sol:EscrowMarketplace",
								"label": "createdAt",
								"offset": 0,
								"slot": "4",
								"type": "t_uint256"
							},
							{
								"astId": 191,
								"contract": "new/MarketplaceEscrow_test/EscrowMarketplace.sol:EscrowMarketplace",
								"label": "detailsHash",
								"offset": 0,
								"slot": "5",
								"type": "t_bytes32"
							},
							{
								"astId": 194,
								"contract": "new/MarketplaceEscrow_test/EscrowMarketplace.sol:EscrowMarketplace",
								"label": "state",
								"offset": 0,
								"slot": "6",
								"type": "t_enum(OrderState)179"
							}
						],
						"numberOfBytes": "224"
					},
					"t_uint256": {
						"encoding": "inplace",
						"label": "uint256",
						"numberOfBytes": "32"
					},
					"t_uint8": {
						"encoding": "inplace",
						"label": "uint8",
						"numberOfBytes": "1"
					}
				}
			},
			"userdoc": {
				"kind": "user",
				"methods": {},
				"version": 1
			}
		}
	}
}