{
	"Sol_by_Example/Basics/UserDefinedValueTypes.sol": {
		"Examples": {
			"abi": [
				{
					"inputs": [],
					"name": "example_no_uvdt",
					"outputs": [],
					"stateMutability": "view",
					"type": "function"
				},
				{
					"inputs": [],
					"name": "example_uvdt",
					"outputs": [],
					"stateMutability": "view",
					"type": "function"
				}
			],
			"devdoc": {
				"kind": "dev",
				"methods": {},
				"version": 1
			},
			"evm": {
				"assembly": "    /* \"Sol_by_Example/Basics/UserDefinedValueTypes.sol\":1067:2014  contract Examples {... */\n  mstore(0x40, 0x80)\n  callvalue\n  dup1\n  iszero\n  tag_1\n  jumpi\n  revert(0x00, 0x00)\ntag_1:\n  pop\n  dataSize(sub_0)\n  dup1\n  dataOffset(sub_0)\n  0x00\n  codecopy\n  0x00\n  return\nstop\n\nsub_0: assembly {\n        /* \"Sol_by_Example/Basics/UserDefinedValueTypes.sol\":1067:2014  contract Examples {... */\n      mstore(0x40, 0x80)\n      callvalue\n      dup1\n      iszero\n      tag_1\n      jumpi\n      revert(0x00, 0x00)\n    tag_1:\n      pop\n      jumpi(tag_2, lt(calldatasize, 0x04))\n      shr(0xe0, calldataload(0x00))\n      dup1\n      0x645e9edf\n      eq\n      tag_3\n      jumpi\n      dup1\n      0x9848d8e6\n      eq\n      tag_4\n      jumpi\n    tag_2:\n      revert(0x00, 0x00)\n        /* \"Sol_by_Example/Basics/UserDefinedValueTypes.sol\":1091:1394  function example_no_uvdt() external view {... */\n    tag_3:\n      tag_5\n      tag_6\n      jump\t// in\n    tag_5:\n      stop\n        /* \"Sol_by_Example/Basics/UserDefinedValueTypes.sol\":1400:2012  function example_uvdt() external view {... */\n    tag_4:\n      tag_7\n      tag_8\n      jump\t// in\n    tag_7:\n      stop\n        /* \"Sol_by_Example/Basics/UserDefinedValueTypes.sol\":1091:1394  function example_no_uvdt() external view {... */\n    tag_6:\n        /* \"Sol_by_Example/Basics/UserDefinedValueTypes.sol\":1166:1179  uint128 clock */\n      0x00\n        /* \"Sol_by_Example/Basics/UserDefinedValueTypes.sol\":1189:1197  uint64 d */\n      0x00\n        /* \"Sol_by_Example/Basics/UserDefinedValueTypes.sol\":1200:1201  1 */\n      0x01\n        /* \"Sol_by_Example/Basics/UserDefinedValueTypes.sol\":1189:1201  uint64 d = 1 */\n      swap1\n      pop\n        /* \"Sol_by_Example/Basics/UserDefinedValueTypes.sol\":1211:1219  uint64 t */\n      0x00\n        /* \"Sol_by_Example/Basics/UserDefinedValueTypes.sol\":1229:1244  block.timestamp */\n      timestamp\n        /* \"Sol_by_Example/Basics/UserDefinedValueTypes.sol\":1211:1245  uint64 t = uint64(block.timestamp) */\n      swap1\n      pop\n        /* \"Sol_by_Example/Basics/UserDefinedValueTypes.sol\":1263:1287  LibClockBasic.wrap(d, t) */\n      tag_10\n        /* \"Sol_by_Example/Basics/UserDefinedValueTypes.sol\":1282:1283  d */\n      dup3\n        /* \"Sol_by_Example/Basics/UserDefinedValueTypes.sol\":1285:1286  t */\n      dup3\n        /* \"Sol_by_Example/Basics/UserDefinedValueTypes.sol\":1263:1281  LibClockBasic.wrap */\n      tag_11\n        /* \"Sol_by_Example/Basics/UserDefinedValueTypes.sol\":1263:1287  LibClockBasic.wrap(d, t) */\n      jump\t// in\n    tag_10:\n        /* \"Sol_by_Example/Basics/UserDefinedValueTypes.sol\":1255:1287  clock = LibClockBasic.wrap(d, t) */\n      swap3\n      pop\n        /* \"Sol_by_Example/Basics/UserDefinedValueTypes.sol\":1363:1387  LibClockBasic.wrap(t, d) */\n      tag_12\n        /* \"Sol_by_Example/Basics/UserDefinedValueTypes.sol\":1382:1383  t */\n      dup2\n        /* \"Sol_by_Example/Basics/UserDefinedValueTypes.sol\":1385:1386  d */\n      dup4\n        /* \"Sol_by_Example/Basics/UserDefinedValueTypes.sol\":1363:1381  LibClockBasic.wrap */\n      tag_11\n        /* \"Sol_by_Example/Basics/UserDefinedValueTypes.sol\":1363:1387  LibClockBasic.wrap(t, d) */\n      jump\t// in\n    tag_12:\n        /* \"Sol_by_Example/Basics/UserDefinedValueTypes.sol\":1355:1387  clock = LibClockBasic.wrap(t, d) */\n      swap3\n      pop\n        /* \"Sol_by_Example/Basics/UserDefinedValueTypes.sol\":1132:1394  {... */\n      pop\n      pop\n      pop\n        /* \"Sol_by_Example/Basics/UserDefinedValueTypes.sol\":1091:1394  function example_no_uvdt() external view {... */\n      jump\t// out\n        /* \"Sol_by_Example/Basics/UserDefinedValueTypes.sol\":1400:2012  function example_uvdt() external view {... */\n    tag_8:\n        /* \"Sol_by_Example/Basics/UserDefinedValueTypes.sol\":1504:1514  Duration d */\n      0x00\n        /* \"Sol_by_Example/Basics/UserDefinedValueTypes.sol\":1531:1532  1 */\n      0x01\n        /* \"Sol_by_Example/Basics/UserDefinedValueTypes.sol\":1504:1533  Duration d = Duration.wrap(1) */\n      swap1\n      pop\n        /* \"Sol_by_Example/Basics/UserDefinedValueTypes.sol\":1543:1554  Timestamp t */\n      0x00\n        /* \"Sol_by_Example/Basics/UserDefinedValueTypes.sol\":1579:1594  block.timestamp */\n      timestamp\n        /* \"Sol_by_Example/Basics/UserDefinedValueTypes.sol\":1543:1596  Timestamp t = Timestamp.wrap(uint64(block.timestamp)) */\n      swap1\n      pop\n        /* \"Sol_by_Example/Basics/UserDefinedValueTypes.sol\":1677:1689  uint64 d_u64 */\n      0x00\n        /* \"Sol_by_Example/Basics/UserDefinedValueTypes.sol\":1708:1709  d */\n      dup3\n        /* \"Sol_by_Example/Basics/UserDefinedValueTypes.sol\":1677:1710  uint64 d_u64 = Duration.unwrap(d) */\n      swap1\n      pop\n        /* \"Sol_by_Example/Basics/UserDefinedValueTypes.sol\":1720:1732  uint64 t_u64 */\n      0x00\n        /* \"Sol_by_Example/Basics/UserDefinedValueTypes.sol\":1752:1753  t */\n      dup3\n        /* \"Sol_by_Example/Basics/UserDefinedValueTypes.sol\":1720:1754  uint64 t_u64 = Timestamp.unwrap(t) */\n      swap1\n      pop\n        /* \"Sol_by_Example/Basics/UserDefinedValueTypes.sol\":1765:1790  console.log(d_u64, t_u64) */\n      tag_14\n        /* \"Sol_by_Example/Basics/UserDefinedValueTypes.sol\":1777:1782  d_u64 */\n      dup3\n        /* \"Sol_by_Example/Basics/UserDefinedValueTypes.sol\":1765:1790  console.log(d_u64, t_u64) */\n      0xffffffffffffffff\n      and\n        /* \"Sol_by_Example/Basics/UserDefinedValueTypes.sol\":1784:1789  t_u64 */\n      dup3\n        /* \"Sol_by_Example/Basics/UserDefinedValueTypes.sol\":1765:1790  console.log(d_u64, t_u64) */\n      0xffffffffffffffff\n      and\n        /* \"Sol_by_Example/Basics/UserDefinedValueTypes.sol\":1765:1776  console.log */\n      tag_15\n        /* \"Sol_by_Example/Basics/UserDefinedValueTypes.sol\":1765:1790  console.log(d_u64, t_u64) */\n      jump\t// in\n    tag_14:\n        /* \"Sol_by_Example/Basics/UserDefinedValueTypes.sol\":1829:1840  Clock clock */\n      0x00\n        /* \"Sol_by_Example/Basics/UserDefinedValueTypes.sol\":1854:1855  0 */\n      0x00\n        /* \"Sol_by_Example/Basics/UserDefinedValueTypes.sol\":1829:1856  Clock clock = Clock.wrap(0) */\n      swap1\n      pop\n        /* \"Sol_by_Example/Basics/UserDefinedValueTypes.sol\":1874:1893  LibClock.wrap(d, t) */\n      tag_16\n        /* \"Sol_by_Example/Basics/UserDefinedValueTypes.sol\":1888:1889  d */\n      dup6\n        /* \"Sol_by_Example/Basics/UserDefinedValueTypes.sol\":1891:1892  t */\n      dup6\n        /* \"Sol_by_Example/Basics/UserDefinedValueTypes.sol\":1874:1887  LibClock.wrap */\n      tag_17\n        /* \"Sol_by_Example/Basics/UserDefinedValueTypes.sol\":1874:1893  LibClock.wrap(d, t) */\n      jump\t// in\n    tag_16:\n        /* \"Sol_by_Example/Basics/UserDefinedValueTypes.sol\":1866:1893  clock = LibClock.wrap(d, t) */\n      swap1\n      pop\n        /* \"Sol_by_Example/Basics/UserDefinedValueTypes.sol\":1438:2012  {... */\n      pop\n      pop\n      pop\n      pop\n      pop\n        /* \"Sol_by_Example/Basics/UserDefinedValueTypes.sol\":1400:2012  function example_uvdt() external view {... */\n      jump\t// out\n        /* \"Sol_by_Example/Basics/UserDefinedValueTypes.sol\":880:1063  function wrap(uint64 _duration, uint64 _timestamp) internal pure returns (uint128 clock) {... */\n    tag_11:\n        /* \"Sol_by_Example/Basics/UserDefinedValueTypes.sol\":954:967  uint128 clock */\n      0x00\n        /* \"Sol_by_Example/Basics/UserDefinedValueTypes.sol\":1036:1046  _timestamp */\n      dup2\n        /* \"Sol_by_Example/Basics/UserDefinedValueTypes.sol\":1024:1033  _duration */\n      dup4\n        /* \"Sol_by_Example/Basics/UserDefinedValueTypes.sol\":1018:1022  0x40 */\n      0x40\n        /* \"Sol_by_Example/Basics/UserDefinedValueTypes.sol\":1014:1034  shl(0x40, _duration) */\n      shl\n        /* \"Sol_by_Example/Basics/UserDefinedValueTypes.sol\":1011:1047  or(shl(0x40, _duration), _timestamp) */\n      or\n        /* \"Sol_by_Example/Basics/UserDefinedValueTypes.sol\":1002:1047  clock := or(shl(0x40, _duration), _timestamp) */\n      swap1\n      pop\n        /* \"Sol_by_Example/Basics/UserDefinedValueTypes.sol\":880:1063  function wrap(uint64 _duration, uint64 _timestamp) internal pure returns (uint128 clock) {... */\n      swap3\n      swap2\n      pop\n      pop\n      jump\t// out\n        /* \"hardhat/console.sol\":6392:6532  function log(uint256 p0, uint256 p1) internal pure {... */\n    tag_15:\n        /* \"hardhat/console.sol\":6453:6525  _sendLogPayload(abi.encodeWithSignature(\"log(uint256,uint256)\", p0, p1)) */\n      tag_20\n        /* \"hardhat/console.sol\":6517:6519  p0 */\n      dup3\n        /* \"hardhat/console.sol\":6521:6523  p1 */\n      dup3\n        /* \"hardhat/console.sol\":6469:6524  abi.encodeWithSignature(\"log(uint256,uint256)\", p0, p1) */\n      add(0x24, mload(0x40))\n      tag_21\n      swap3\n      swap2\n      swap1\n      tag_22\n      jump\t// in\n    tag_21:\n      mload(0x40)\n      0x20\n      dup2\n      dup4\n      sub\n      sub\n      dup2\n      mstore\n      swap1\n      0x40\n      mstore\n      and(not(0xffffffffffffffffffffffffffffffffffffffffffffffffffffffff), 0xf666715a00000000000000000000000000000000000000000000000000000000)\n      0x20\n      dup3\n      add\n      dup1\n      mload\n      0xffffffffffffffffffffffffffffffffffffffffffffffffffffffff\n      dup4\n      dup2\n      dup4\n      and\n      or\n      dup4\n      mstore\n      pop\n      pop\n      pop\n      pop\n        /* \"hardhat/console.sol\":6453:6468  _sendLogPayload */\n      tag_23\n        /* \"hardhat/console.sol\":6453:6525  _sendLogPayload(abi.encodeWithSignature(\"log(uint256,uint256)\", p0, p1)) */\n      jump\t// in\n    tag_20:\n        /* \"hardhat/console.sol\":6392:6532  function log(uint256 p0, uint256 p1) internal pure {... */\n      pop\n      pop\n      jump\t// out\n        /* \"Sol_by_Example/Basics/UserDefinedValueTypes.sol\":189:464  function wrap(Duration _duration, Timestamp _timestamp) internal pure returns (Clock clock_) {... */\n    tag_17:\n        /* \"Sol_by_Example/Basics/UserDefinedValueTypes.sol\":268:280  Clock clock_ */\n      0x00\n        /* \"Sol_by_Example/Basics/UserDefinedValueTypes.sol\":437:447  _timestamp */\n      dup2\n        /* \"Sol_by_Example/Basics/UserDefinedValueTypes.sol\":425:434  _duration */\n      dup4\n        /* \"Sol_by_Example/Basics/UserDefinedValueTypes.sol\":419:423  0x40 */\n      0x40\n        /* \"Sol_by_Example/Basics/UserDefinedValueTypes.sol\":415:435  shl(0x40, _duration) */\n      shl\n        /* \"Sol_by_Example/Basics/UserDefinedValueTypes.sol\":412:448  or(shl(0x40, _duration), _timestamp) */\n      or\n        /* \"Sol_by_Example/Basics/UserDefinedValueTypes.sol\":402:448  clock_ := or(shl(0x40, _duration), _timestamp) */\n      swap1\n      pop\n        /* \"Sol_by_Example/Basics/UserDefinedValueTypes.sol\":189:464  function wrap(Duration _duration, Timestamp _timestamp) internal pure returns (Clock clock_) {... */\n      swap3\n      swap2\n      pop\n      pop\n      jump\t// out\n        /* \"hardhat/console.sol\":808:937  function _sendLogPayload(bytes memory payload) internal pure {... */\n    tag_23:\n        /* \"hardhat/console.sol\":879:930  _castToPure(_sendLogPayloadImplementation)(payload) */\n      tag_26\n        /* \"hardhat/console.sol\":922:929  payload */\n      dup2\n        /* \"hardhat/console.sol\":879:921  _castToPure(_sendLogPayloadImplementation) */\n      tag_27\n        /* \"hardhat/console.sol\":891:920  _sendLogPayloadImplementation */\n      tag_28\n        /* \"hardhat/console.sol\":879:890  _castToPure */\n      tag_29\n        /* \"hardhat/console.sol\":879:921  _castToPure(_sendLogPayloadImplementation) */\n      jump\t// in\n    tag_27:\n        /* \"hardhat/console.sol\":879:930  _castToPure(_sendLogPayloadImplementation)(payload) */\n      0xffffffff\n      and\n      jump\t// in\n    tag_26:\n        /* \"hardhat/console.sol\":808:937  function _sendLogPayload(bytes memory payload) internal pure {... */\n      pop\n      jump\t// out\n        /* \"hardhat/console.sol\":180:600  function _sendLogPayloadImplementation(bytes memory payload) internal view {... */\n    tag_28:\n        /* \"hardhat/console.sol\":265:287  address consoleAddress */\n      0x00\n        /* \"hardhat/console.sol\":131:173  0x000000000000000000636F6e736F6c652e6c6f67 */\n      0x636f6e736f6c652e6c6f67\n        /* \"hardhat/console.sol\":265:305  address consoleAddress = CONSOLE_ADDRESS */\n      swap1\n      pop\n        /* \"hardhat/console.sol\":551:552  0 */\n      0x00\n        /* \"hardhat/console.sol\":528:529  0 */\n      0x00\n        /* \"hardhat/console.sol\":498:505  payload */\n      dup4\n        /* \"hardhat/console.sol\":492:506  mload(payload) */\n      mload\n        /* \"hardhat/console.sol\":467:469  32 */\n      0x20\n        /* \"hardhat/console.sol\":458:465  payload */\n      dup6\n        /* \"hardhat/console.sol\":454:470  add(payload, 32) */\n      add\n        /* \"hardhat/console.sol\":418:432  consoleAddress */\n      dup5\n        /* \"hardhat/console.sol\":391:396  gas() */\n      gas\n        /* \"hardhat/console.sol\":359:570  staticcall(... */\n      staticcall\n        /* \"hardhat/console.sol\":338:584  pop(... */\n      pop\n        /* \"hardhat/console.sol\":324:594  {... */\n      pop\n        /* \"hardhat/console.sol\":180:600  function _sendLogPayloadImplementation(bytes memory payload) internal view {... */\n      pop\n      jump\t// out\n        /* \"hardhat/console.sol\":606:802  function _castToPure(... */\n    tag_29:\n        /* \"hardhat/console.sol\":705:738  function(bytes memory) pure fnOut */\n      tag_31\n        /* \"hardhat/console.sol\":782:786  fnIn */\n      dup2\n        /* \"hardhat/console.sol\":773:786  fnOut := fnIn */\n      swap1\n      pop\n        /* \"hardhat/console.sol\":606:802  function _castToPure(... */\n      swap2\n      swap1\n      pop\n      jump\t// out\n    tag_31:\n      tag_33\n      tag_34\n      jump\t// in\n    tag_33:\n      jump\t// out\n        /* \"#utility.yul\":7:84   */\n    tag_35:\n        /* \"#utility.yul\":44:51   */\n      0x00\n        /* \"#utility.yul\":73:78   */\n      dup2\n        /* \"#utility.yul\":62:78   */\n      swap1\n      pop\n        /* \"#utility.yul\":7:84   */\n      swap2\n      swap1\n      pop\n      jump\t// out\n        /* \"#utility.yul\":90:208   */\n    tag_36:\n        /* \"#utility.yul\":177:201   */\n      tag_40\n        /* \"#utility.yul\":195:200   */\n      dup2\n        /* \"#utility.yul\":177:201   */\n      tag_35\n      jump\t// in\n    tag_40:\n        /* \"#utility.yul\":172:175   */\n      dup3\n        /* \"#utility.yul\":165:202   */\n      mstore\n        /* \"#utility.yul\":90:208   */\n      pop\n      pop\n      jump\t// out\n        /* \"#utility.yul\":214:546   */\n    tag_22:\n        /* \"#utility.yul\":335:339   */\n      0x00\n        /* \"#utility.yul\":373:375   */\n      0x40\n        /* \"#utility.yul\":362:371   */\n      dup3\n        /* \"#utility.yul\":358:376   */\n      add\n        /* \"#utility.yul\":350:376   */\n      swap1\n      pop\n        /* \"#utility.yul\":386:457   */\n      tag_42\n        /* \"#utility.yul\":454:455   */\n      0x00\n        /* \"#utility.yul\":443:452   */\n      dup4\n        /* \"#utility.yul\":439:456   */\n      add\n        /* \"#utility.yul\":430:436   */\n      dup6\n        /* \"#utility.yul\":386:457   */\n      tag_36\n      jump\t// in\n    tag_42:\n        /* \"#utility.yul\":467:539   */\n      tag_43\n        /* \"#utility.yul\":535:537   */\n      0x20\n        /* \"#utility.yul\":524:533   */\n      dup4\n        /* \"#utility.yul\":520:538   */\n      add\n        /* \"#utility.yul\":511:517   */\n      dup5\n        /* \"#utility.yul\":467:539   */\n      tag_36\n      jump\t// in\n    tag_43:\n        /* \"#utility.yul\":214:546   */\n      swap4\n      swap3\n      pop\n      pop\n      pop\n      jump\t// out\n        /* \"#utility.yul\":552:732   */\n    tag_34:\n        /* \"#utility.yul\":600:677   */\n      0x4e487b7100000000000000000000000000000000000000000000000000000000\n        /* \"#utility.yul\":597:598   */\n      0x00\n        /* \"#utility.yul\":590:678   */\n      mstore\n        /* \"#utility.yul\":697:701   */\n      0x51\n        /* \"#utility.yul\":694:695   */\n      0x04\n        /* \"#utility.yul\":687:702   */\n      mstore\n        /* \"#utility.yul\":721:725   */\n      0x24\n        /* \"#utility.yul\":718:719   */\n      0x00\n        /* \"#utility.yul\":711:726   */\n      revert\n\n    auxdata: 0xa26469706673582212208cd5ed88fcfe3b6333bf1d5345f1cdee391e893a35bc4b23be7ff3e8abe6d08964736f6c634300081f0033\n}\n",
				"bytecode": {
					"linkReferences": {},
					"object": "6080604052348015600e575f5ffd5b506102638061001c5f395ff3fe608060405234801561000f575f5ffd5b5060043610610034575f3560e01c8063645e9edf146100385780639848d8e614610042575b5f5ffd5b61004061004c565b005b61004a610073565b005b5f5f600190505f42905061006082826100b9565b925061006c81836100b9565b9250505050565b5f600190505f4290505f8290505f8290506100a28267ffffffffffffffff168267ffffffffffffffff166100c8565b5f5f90506100b08585610164565b90505050505050565b5f818360401b17905092915050565b61016082826040516024016100de9291906101d9565b6040516020818303038152906040527ff666715a000000000000000000000000000000000000000000000000000000007bffffffffffffffffffffffffffffffffffffffffffffffffffffffff19166020820180517bffffffffffffffffffffffffffffffffffffffffffffffffffffffff8381831617835250505050610173565b5050565b5f818360401b17905092915050565b61018a8161018261018d6101ac565b63ffffffff16565b50565b5f6a636f6e736f6c652e6c6f6790505f5f835160208501845afa505050565b6101b7819050919050565b6101bf610200565b565b5f819050919050565b6101d3816101c1565b82525050565b5f6040820190506101ec5f8301856101ca565b6101f960208301846101ca565b9392505050565b7f4e487b71000000000000000000000000000000000000000000000000000000005f52605160045260245ffdfea26469706673582212208cd5ed88fcfe3b6333bf1d5345f1cdee391e893a35bc4b23be7ff3e8abe6d08964736f6c634300081f0033",
					"opcodes": "PUSH1 0x80 PUSH1 0x40 MSTORE CALLVALUE DUP1 ISZERO PUSH1 0xE JUMPI PUSH0 PUSH0 REVERT JUMPDEST POP PUSH2 0x263 DUP1 PUSH2 0x1C PUSH0 CODECOPY PUSH0 RETURN INVALID PUSH1 0x80 PUSH1 0x40 MSTORE CALLVALUE DUP1 ISZERO PUSH2 0xF JUMPI PUSH0 PUSH0 REVERT JUMPDEST POP PUSH1 0x4 CALLDATASIZE LT PUSH2 0x34 JUMPI PUSH0 CALLDATALOAD PUSH1 0xE0 SHR DUP1 PUSH4 0x645E9EDF EQ PUSH2 0x38 JUMPI DUP1 PUSH4 0x9848D8E6 EQ PUSH2 0x42 JUMPI JUMPDEST PUSH0 PUSH0 REVERT JUMPDEST PUSH2 0x40 PUSH2 0x4C JUMP JUMPDEST STOP JUMPDEST PUSH2 0x4A PUSH2 0x73 JUMP JUMPDEST STOP JUMPDEST PUSH0 PUSH0 PUSH1 0x1 SWAP1 POP PUSH0 TIMESTAMP SWAP1 POP PUSH2 0x60 DUP3 DUP3 PUSH2 0xB9 JUMP JUMPDEST SWAP3 POP PUSH2 0x6C DUP2 DUP4 PUSH2 0xB9 JUMP JUMPDEST SWAP3 POP POP POP POP JUMP JUMPDEST PUSH0 PUSH1 0x1 SWAP1 POP PUSH0 TIMESTAMP SWAP1 POP PUSH0 DUP3 SWAP1 POP PUSH0 DUP3 SWAP1 POP PUSH2 0xA2 DUP3 PUSH8 0xFFFFFFFFFFFFFFFF AND DUP3 PUSH8 0xFFFFFFFFFFFFFFFF AND PUSH2 0xC8 JUMP JUMPDEST PUSH0 PUSH0 SWAP1 POP PUSH2 0xB0 DUP6 DUP6 PUSH2 0x164 JUMP JUMPDEST SWAP1 POP POP POP POP POP POP JUMP JUMPDEST PUSH0 DUP2 DUP4 PUSH1 0x40 SHL OR SWAP1 POP SWAP3 SWAP2 POP POP JUMP JUMPDEST PUSH2 0x160 DUP3 DUP3 PUSH1 0x40 MLOAD PUSH1 0x24 ADD PUSH2 0xDE SWAP3 SWAP2 SWAP1 PUSH2 0x1D9 JUMP JUMPDEST PUSH1 0x40 MLOAD PUSH1 0x20 DUP2 DUP4 SUB SUB DUP2 MSTORE SWAP1 PUSH1 0x40 MSTORE PUSH32 0xF666715A00000000000000000000000000000000000000000000000000000000 PUSH28 0xFFFFFFFFFFFFFFFFFFFFFFFFFFFFFFFFFFFFFFFFFFFFFFFFFFFFFFFF NOT AND PUSH1 0x20 DUP3 ADD DUP1 MLOAD PUSH28 0xFFFFFFFFFFFFFFFFFFFFFFFFFFFFFFFFFFFFFFFFFFFFFFFFFFFFFFFF DUP4 DUP2 DUP4 AND OR DUP4 MSTORE POP POP POP POP PUSH2 0x173 JUMP JUMPDEST POP POP JUMP JUMPDEST PUSH0 DUP2 DUP4 PUSH1 0x40 SHL OR SWAP1 POP SWAP3 SWAP2 POP POP JUMP JUMPDEST PUSH2 0x18A DUP2 PUSH2 0x182 PUSH2 0x18D PUSH2 0x1AC JUMP JUMPDEST PUSH4 0xFFFFFFFF AND JUMP JUMPDEST POP JUMP JUMPDEST PUSH0 PUSH11 0x636F6E736F6C652E6C6F67 SWAP1 POP PUSH0 PUSH0 DUP4 MLOAD PUSH1 0x20 DUP6 ADD DUP5 GAS STATICCALL POP POP POP JUMP JUMPDEST PUSH2 0x1B7 DUP2 SWAP1 POP SWAP2 SWAP1 POP JUMP JUMPDEST PUSH2 0x1BF PUSH2 0x200 JUMP JUMPDEST JUMP JUMPDEST PUSH0 DUP2 SWAP1 POP SWAP2 SWAP1 POP JUMP JUMPDEST PUSH2 0x1D3 DUP2 PUSH2 0x1C1 JUMP JUMPDEST DUP3 MSTORE POP POP JUMP JUMPDEST PUSH0 PUSH1 0x40 DUP3 ADD SWAP1 POP PUSH2 0x1EC PUSH0 DUP4 ADD DUP6 PUSH2 0x1CA JUMP JUMPDEST PUSH2 0x1F9 PUSH1 0x20 DUP4 ADD DUP5 PUSH2 0x1CA JUMP JUMPDEST SWAP4 SWAP3 POP POP POP JUMP JUMPDEST PUSH32 0x4E487B7100000000000000000000000000000000000000000000000000000000 PUSH0 MSTORE PUSH1 0x51 PUSH1 0x4 MSTORE PUSH1 0x24 PUSH0 REVERT INVALID LOG2 PUSH5 0x6970667358 0x22 SLT KECCAK256 DUP13 0xD5 0xED DUP9 0xFC INVALID EXTCODESIZE PUSH4 0x33BF1D53 GASLIMIT CALL 0xCD RETURNCONTRACT 0x39 CLZ DUP10 GASPRICE CALLDATALOAD 0xBC 0x4B 0x23 0xBE PUSH32 0xF3E8ABE6D08964736F6C634300081F0033000000000000000000000000000000 "
				},
				"gasEstimates": {
					"creation": {
						"codeDepositCost": "122200",
						"executionCost": "169",
						"totalCost": "122369"
					},
					"external": {
						"example_no_uvdt()": "infinite",
						"example_uvdt()": "infinite"
					}
				},
				"methodIdentifiers": {
					"example_no_uvdt()": "645e9edf",
					"example_uvdt()": "9848d8e6"
				}
			},
			"storageLayout": {
				"storage": [],
				"types": null
			},
			"userdoc": {
				"kind": "user",
				"methods": {},
				"version": 1
			}
		}
	}
}