{
	"Sol_by_Example/Basics/Assembly/03.AssemblyLoop.sol": {
		"AssemblyLoop": {
			"abi": [
				{
					"inputs": [],
					"name": "yul_for_loop",
					"outputs": [
						{
							"internalType": "uint256",
							"name": "z",
							"type": "uint256"
						}
					],
					"stateMutability": "pure",
					"type": "function"
				},
				{
					"inputs": [],
					"name": "yul_while_loop",
					"outputs": [
						{
							"internalType": "uint256",
							"name": "z",
							"type": "uint256"
						}
					],
					"stateMutability": "pure",
					"type": "function"
				}
			],
			"devdoc": {
				"kind": "dev",
				"methods": {},
				"version": 1
			},
			"evm": {
				"assembly": "    /* \"Sol_by_Example/Basics/Assembly/03.AssemblyLoop.sol\":58:536  contract AssemblyLoop {... */\n  mstore(0x40, 0x80)\n  callvalue\n  dup1\n  iszero\n  tag_1\n  jumpi\n  revert(0x00, 0x00)\ntag_1:\n  pop\n  dataSize(sub_0)\n  dup1\n  dataOffset(sub_0)\n  0x00\n  codecopy\n  0x00\n  return\nstop\n\nsub_0: assembly {\n        /* \"Sol_by_Example/Basics/Assembly/03.AssemblyLoop.sol\":58:536  contract AssemblyLoop {... */\n      mstore(0x40, 0x80)\n      callvalue\n      dup1\n      iszero\n      tag_1\n      jumpi\n      revert(0x00, 0x00)\n    tag_1:\n      pop\n      jumpi(tag_2, lt(calldatasize, 0x04))\n      shr(0xe0, calldataload(0x00))\n      dup1\n      0xd22b5850\n      eq\n      tag_3\n      jumpi\n      dup1\n      0xfd4a8ebb\n      eq\n      tag_4\n      jumpi\n    tag_2:\n      revert(0x00, 0x00)\n        /* \"Sol_by_Example/Basics/Assembly/03.AssemblyLoop.sol\":86:302  function yul_for_loop() public pure returns (uint256 z) {... */\n    tag_3:\n      tag_5\n      tag_6\n      jump\t// in\n    tag_5:\n      mload(0x40)\n      tag_7\n      swap2\n      swap1\n      tag_8\n      jump\t// in\n    tag_7:\n      mload(0x40)\n      dup1\n      swap2\n      sub\n      swap1\n      return\n        /* \"Sol_by_Example/Basics/Assembly/03.AssemblyLoop.sol\":308:534  function yul_while_loop() public pure returns (uint256 z) {... */\n    tag_4:\n      tag_9\n      tag_10\n      jump\t// in\n    tag_9:\n      mload(0x40)\n      tag_11\n      swap2\n      swap1\n      tag_8\n      jump\t// in\n    tag_11:\n      mload(0x40)\n      dup1\n      swap2\n      sub\n      swap1\n      return\n        /* \"Sol_by_Example/Basics/Assembly/03.AssemblyLoop.sol\":86:302  function yul_for_loop() public pure returns (uint256 z) {... */\n    tag_6:\n        /* \"Sol_by_Example/Basics/Assembly/03.AssemblyLoop.sol\":131:140  uint256 z */\n      0x00\n        /* \"Sol_by_Example/Basics/Assembly/03.AssemblyLoop.sol\":190:191  0 */\n      0x00\n        /* \"Sol_by_Example/Basics/Assembly/03.AssemblyLoop.sol\":175:273  for { let i := 0 } lt(i, 10) { i := add(i, 1) } {... */\n    tag_13:\n        /* \"Sol_by_Example/Basics/Assembly/03.AssemblyLoop.sol\":200:202  10 */\n      0x0a\n        /* \"Sol_by_Example/Basics/Assembly/03.AssemblyLoop.sol\":197:198  i */\n      dup2\n        /* \"Sol_by_Example/Basics/Assembly/03.AssemblyLoop.sol\":194:203  lt(i, 10) */\n      lt\n        /* \"Sol_by_Example/Basics/Assembly/03.AssemblyLoop.sol\":175:273  for { let i := 0 } lt(i, 10) { i := add(i, 1) } {... */\n      iszero\n      tag_15\n      jumpi\n        /* \"Sol_by_Example/Basics/Assembly/03.AssemblyLoop.sol\":255:256  1 */\n      0x01\n        /* \"Sol_by_Example/Basics/Assembly/03.AssemblyLoop.sol\":252:253  z */\n      dup3\n        /* \"Sol_by_Example/Basics/Assembly/03.AssemblyLoop.sol\":248:257  add(z, 1) */\n      add\n        /* \"Sol_by_Example/Basics/Assembly/03.AssemblyLoop.sol\":243:257  z := add(z, 1) */\n      swap2\n      pop\n        /* \"Sol_by_Example/Basics/Assembly/03.AssemblyLoop.sol\":218:219  1 */\n      0x01\n        /* \"Sol_by_Example/Basics/Assembly/03.AssemblyLoop.sol\":215:216  i */\n      dup2\n        /* \"Sol_by_Example/Basics/Assembly/03.AssemblyLoop.sol\":211:220  add(i, 1) */\n      add\n        /* \"Sol_by_Example/Basics/Assembly/03.AssemblyLoop.sol\":206:220  i := add(i, 1) */\n      swap1\n      pop\n        /* \"Sol_by_Example/Basics/Assembly/03.AssemblyLoop.sol\":175:273  for { let i := 0 } lt(i, 10) { i := add(i, 1) } {... */\n      jump(tag_13)\n    tag_15:\n        /* \"Sol_by_Example/Basics/Assembly/03.AssemblyLoop.sol\":179:193  { let i := 0 } */\n      pop\n        /* \"Sol_by_Example/Basics/Assembly/03.AssemblyLoop.sol\":86:302  function yul_for_loop() public pure returns (uint256 z) {... */\n      swap1\n      jump\t// out\n        /* \"Sol_by_Example/Basics/Assembly/03.AssemblyLoop.sol\":308:534  function yul_while_loop() public pure returns (uint256 z) {... */\n    tag_10:\n        /* \"Sol_by_Example/Basics/Assembly/03.AssemblyLoop.sol\":355:364  uint256 z */\n      0x00\n        /* \"Sol_by_Example/Basics/Assembly/03.AssemblyLoop.sol\":408:409  0 */\n      0x00\n        /* \"Sol_by_Example/Basics/Assembly/03.AssemblyLoop.sol\":422:518  for {} lt(i, 5) {} {... */\n    tag_17:\n        /* \"Sol_by_Example/Basics/Assembly/03.AssemblyLoop.sol\":435:436  5 */\n      0x05\n        /* \"Sol_by_Example/Basics/Assembly/03.AssemblyLoop.sol\":432:433  i */\n      dup2\n        /* \"Sol_by_Example/Basics/Assembly/03.AssemblyLoop.sol\":429:437  lt(i, 5) */\n      lt\n        /* \"Sol_by_Example/Basics/Assembly/03.AssemblyLoop.sol\":422:518  for {} lt(i, 5) {} {... */\n      iszero\n      tag_19\n      jumpi\n        /* \"Sol_by_Example/Basics/Assembly/03.AssemblyLoop.sol\":471:472  1 */\n      0x01\n        /* \"Sol_by_Example/Basics/Assembly/03.AssemblyLoop.sol\":468:469  i */\n      dup2\n        /* \"Sol_by_Example/Basics/Assembly/03.AssemblyLoop.sol\":464:473  add(i, 1) */\n      add\n        /* \"Sol_by_Example/Basics/Assembly/03.AssemblyLoop.sol\":459:473  i := add(i, 1) */\n      swap1\n      pop\n        /* \"Sol_by_Example/Basics/Assembly/03.AssemblyLoop.sol\":502:503  1 */\n      0x01\n        /* \"Sol_by_Example/Basics/Assembly/03.AssemblyLoop.sol\":499:500  z */\n      dup3\n        /* \"Sol_by_Example/Basics/Assembly/03.AssemblyLoop.sol\":495:504  add(z, 1) */\n      add\n        /* \"Sol_by_Example/Basics/Assembly/03.AssemblyLoop.sol\":490:504  z := add(z, 1) */\n      swap2\n      pop\n        /* \"Sol_by_Example/Basics/Assembly/03.AssemblyLoop.sol\":422:518  for {} lt(i, 5) {} {... */\n      jump(tag_17)\n    tag_19:\n        /* \"Sol_by_Example/Basics/Assembly/03.AssemblyLoop.sol\":385:528  {... */\n      pop\n        /* \"Sol_by_Example/Basics/Assembly/03.AssemblyLoop.sol\":308:534  function yul_while_loop() public pure returns (uint256 z) {... */\n      swap1\n      jump\t// out\n        /* \"#utility.yul\":7:84   */\n    tag_20:\n        /* \"#utility.yul\":44:51   */\n      0x00\n        /* \"#utility.yul\":73:78   */\n      dup2\n        /* \"#utility.yul\":62:78   */\n      swap1\n      pop\n        /* \"#utility.yul\":7:84   */\n      swap2\n      swap1\n      pop\n      jump\t// out\n        /* \"#utility.yul\":90:208   */\n    tag_21:\n        /* \"#utility.yul\":177:201   */\n      tag_25\n        /* \"#utility.yul\":195:200   */\n      dup2\n        /* \"#utility.yul\":177:201   */\n      tag_20\n      jump\t// in\n    tag_25:\n        /* \"#utility.yul\":172:175   */\n      dup3\n        /* \"#utility.yul\":165:202   */\n      mstore\n        /* \"#utility.yul\":90:208   */\n      pop\n      pop\n      jump\t// out\n        /* \"#utility.yul\":214:436   */\n    tag_8:\n        /* \"#utility.yul\":307:311   */\n      0x00\n        /* \"#utility.yul\":345:347   */\n      0x20\n        /* \"#utility.yul\":334:343   */\n      dup3\n        /* \"#utility.yul\":330:348   */\n      add\n        /* \"#utility.yul\":322:348   */\n      swap1\n      pop\n        /* \"#utility.yul\":358:429   */\n      tag_27\n        /* \"#utility.yul\":426:427   */\n      0x00\n        /* \"#utility.yul\":415:424   */\n      dup4\n        /* \"#utility.yul\":411:428   */\n      add\n        /* \"#utility.yul\":402:408   */\n      dup5\n        /* \"#utility.yul\":358:429   */\n      tag_21\n      jump\t// in\n    tag_27:\n        /* \"#utility.yul\":214:436   */\n      swap3\n      swap2\n      pop\n      pop\n      jump\t// out\n\n    auxdata: 0xa2646970667358221220ccc9ca222c5551ed66d0be73e050a5a64816b955ab207ec2432a5ac69eb461cd64736f6c634300081f0033\n}\n",
				"bytecode": {
					"linkReferences": {},
					"object": "6080604052348015600e575f5ffd5b506101098061001c5f395ff3fe6080604052348015600e575f5ffd5b50600436106030575f3560e01c8063d22b5850146034578063fd4a8ebb14604e575b5f5ffd5b603a6068565b6040516045919060bc565b60405180910390f35b60546087565b604051605f919060bc565b60405180910390f35b5f5f5b600a811015608357600182019150600181019050606b565b5090565b5f5f5b600581101560a257600181019050600182019150608a565b5090565b5f819050919050565b60b68160a6565b82525050565b5f60208201905060cd5f83018460af565b9291505056fea2646970667358221220ccc9ca222c5551ed66d0be73e050a5a64816b955ab207ec2432a5ac69eb461cd64736f6c634300081f0033",
					"opcodes": "PUSH1 0x80 PUSH1 0x40 MSTORE CALLVALUE DUP1 ISZERO PUSH1 0xE JUMPI PUSH0 PUSH0 REVERT JUMPDEST POP PUSH2 0x109 DUP1 PUSH2 0x1C PUSH0 CODECOPY PUSH0 RETURN INVALID PUSH1 0x80 PUSH1 0x40 MSTORE CALLVALUE DUP1 ISZERO PUSH1 0xE JUMPI PUSH0 PUSH0 REVERT JUMPDEST POP PUSH1 0x4 CALLDATASIZE LT PUSH1 0x30 JUMPI PUSH0 CALLDATALOAD PUSH1 0xE0 SHR DUP1 PUSH4 0xD22B5850 EQ PUSH1 0x34 JUMPI DUP1 PUSH4 0xFD4A8EBB EQ PUSH1 0x4E JUMPI JUMPDEST PUSH0 PUSH0 REVERT JUMPDEST PUSH1 0x3A PUSH1 0x68 JUMP JUMPDEST PUSH1 0x40 MLOAD PUSH1 0x45 SWAP2 SWAP1 PUSH1 0xBC JUMP JUMPDEST PUSH1 0x40 MLOAD DUP1 SWAP2 SUB SWAP1 RETURN JUMPDEST PUSH1 0x54 PUSH1 0x87 JUMP JUMPDEST PUSH1 0x40 MLOAD PUSH1 0x5F SWAP2 SWAP1 PUSH1 0xBC JUMP JUMPDEST PUSH1 0x40 MLOAD DUP1 SWAP2 SUB SWAP1 RETURN JUMPDEST PUSH0 PUSH0 JUMPDEST PUSH1 0xA DUP2 LT ISZERO PUSH1 0x83 JUMPI PUSH1 0x1 DUP3 ADD SWAP2 POP PUSH1 0x1 DUP2 ADD SWAP1 POP PUSH1 0x6B JUMP JUMPDEST POP SWAP1 JUMP JUMPDEST PUSH0 PUSH0 JUMPDEST PUSH1 0x5 DUP2 LT ISZERO PUSH1 0xA2 JUMPI PUSH1 0x1 DUP2 ADD SWAP1 POP PUSH1 0x1 DUP3 ADD SWAP2 POP PUSH1 0x8A JUMP JUMPDEST POP SWAP1 JUMP JUMPDEST PUSH0 DUP2 SWAP1 POP SWAP2 SWAP1 POP JUMP JUMPDEST PUSH1 0xB6 DUP2 PUSH1 0xA6 JUMP JUMPDEST DUP3 MSTORE POP POP JUMP JUMPDEST PUSH0 PUSH1 0x20 DUP3 ADD SWAP1 POP PUSH1 0xCD PUSH0 DUP4 ADD DUP5 PUSH1 0xAF JUMP JUMPDEST SWAP3 SWAP2 POP POP JUMP INVALID LOG2 PUSH5 0x6970667358 0x22 SLT KECCAK256 0xCC 0xC9 0xCA 0x22 0x2C SSTORE MLOAD 0xED PUSH7 0xD0BE73E050A5A6 BASEFEE AND 0xB9 SSTORE 0xAB KECCAK256 PUSH31 0xC2432A5AC69EB461CD64736F6C634300081F00330000000000000000000000 "
				},
				"gasEstimates": {
					"creation": {
						"codeDepositCost": "53000",
						"executionCost": "103",
						"totalCost": "53103"
					},
					"external": {
						"yul_for_loop()": "infinite",
						"yul_while_loop()": "infinite"
					}
				},
				"methodIdentifiers": {
					"yul_for_loop()": "d22b5850",
					"yul_while_loop()": "fd4a8ebb"
				}
			},
			"storageLayout": {
				"storage": [],
				"types": null
			},
			"userdoc": {
				"kind": "user",
				"methods": {},
				"version": 1
			}
		}
	}
}