{
	"data": {
		"bytecode": {
			"linkReferences": {},
			"object": "60806040526040518060600160405280600160ff168152602001600260ff168152602001600360ff16815250600190600360399291906049565b503480156044575f5ffd5b5060ad565b828054828255905f5260205f209081019282156085579160200282015b828111156084578251829060ff169055916020019190600101906066565b5b509050609091906094565b5090565b5b8082111560a9575f815f9055506001016095565b5090565b610bd6806100ba5f395ff3fe608060405234801561000f575f5ffd5b506004361061009c575f3560e01c80639a5009ac116100645780639a5009ac14610142578063a4ece52c14610172578063be1c766b1461017c578063d504ea1d1461019a578063edf0099b146101b85761009c565b80634cc82215146100a057806360699612146100bc57806371e5ee5f146100c65780639507d39a146100f6578063959ac48414610126575b5f5ffd5b6100ba60048036038101906100b591906108cc565b6101e8565b005b6100c461020a565b005b6100e060048036038101906100db91906108cc565b6105d7565b6040516100ed9190610906565b60405180910390f35b610110600480360381019061010b91906108cc565b6105f7565b60405161011d9190610906565b60405180910390f35b610140600480360381019061013b91906108cc565b61061c565b005b61015c600480360381019061015791906108cc565b610645565b6040516101699190610906565b60405180910390f35b61017a61065e565b005b610184610685565b6040516101919190610906565b60405180910390f35b6101a2610691565b6040516101af91906109d6565b60405180910390f35b6101d260048036038101906101cd91906108cc565b6106e7565b6040516101df9190610906565b60405180910390f35b600181815481106101fc576101fb6109f6565b5b905f5260205f20015f905550565b5f600567ffffffffffffffff81111561022657610225610a23565b5b6040519080825280602002602001820160405280156102545781602001602082028036833780820191505090505b5090505f5f90505b81518110156102cc576102bf6040518060400160405280600b81526020017f6d7941727261795b25645d000000000000000000000000000000000000000000815250828484815181106102b2576102b16109f6565b5b6020026020010151610706565b808060010191505061025c565b505f600267ffffffffffffffff8111156102e9576102e8610a23565b5b60405190808252806020026020018201604052801561031c57816020015b60608152602001906001900390816103075790505b5090505f5f90505b81518110156103a257600367ffffffffffffffff81111561034857610347610a23565b5b6040519080825280602002602001820160405280156103765781602001602082028036833780820191505090505b5082828151811061038a576103896109f6565b5b60200260200101819052508080600101915050610324565b506001815f815181106103b8576103b76109f6565b5b60200260200101515f815181106103d2576103d16109f6565b5b6020026020010181815250506002815f815181106103f3576103f26109f6565b5b602002602001015160018151811061040e5761040d6109f6565b5b6020026020010181815250506003815f8151811061042f5761042e6109f6565b5b602002602001015160028151811061044a576104496109f6565b5b60200260200101818152505060048160018151811061046c5761046b6109f6565b5b60200260200101515f81518110610486576104856109f6565b5b6020026020010181815250506005816001815181106104a8576104a76109f6565b5b60200260200101516001815181106104c3576104c26109f6565b5b6020026020010181815250506006816001815181106104e5576104e46109f6565b5b6020026020010151600281518110610500576104ff6109f6565b5b6020026020010181815250505f5f90505b81518110156105d2575f5f90505b828281518110610532576105316109f6565b5b6020026020010151518110156105c4576105b76040518060400160405280601881526020017f6e657374656441727261795b25645d5b25645d203d202564000000000000000081525083838686815181106105905761058f6109f6565b5b602002602001015185815181106105aa576105a96109f6565b5b60200260200101516107a5565b808060010191505061051f565b508080600101915050610511565b505050565b600181815481106105e6575f80fd5b905f5260205f20015f915090505481565b5f6001828154811061060c5761060b6109f6565b5b905f5260205f2001549050919050565b600181908060018154018082558091505060019003905f5260205f20015f909190919091505550565b600281600a8110610654575f80fd5b015f915090505481565b60018054806106705761066f610a50565b5b600190038181905f5260205f20015f90559055565b5f600180549050905090565b606060018054806020026020016040519081016040528092919081815260200182805480156106dd57602002820191905f5260205f20905b8154815260200190600101908083116106c9575b5050505050905090565b5f81815481106106f5575f80fd5b905f5260205f20015f915090505481565b6107a083838360405160240161071e93929190610aed565b6040516020818303038152906040527fca47c4eb000000000000000000000000000000000000000000000000000000007bffffffffffffffffffffffffffffffffffffffffffffffffffffffff19166020820180517bffffffffffffffffffffffffffffffffffffffffffffffffffffffff8381831617835250505050610847565b505050565b610841848484846040516024016107bf9493929190610b29565b6040516020818303038152906040527fa7a87853000000000000000000000000000000000000000000000000000000007bffffffffffffffffffffffffffffffffffffffffffffffffffffffff19166020820180517bffffffffffffffffffffffffffffffffffffffffffffffffffffffff8381831617835250505050610847565b50505050565b61085e81610856610861610880565b63ffffffff16565b50565b5f6a636f6e736f6c652e6c6f6790505f5f835160208501845afa505050565b61088b819050919050565b610893610b73565b565b5f5ffd5b5f819050919050565b6108ab81610899565b81146108b5575f5ffd5b50565b5f813590506108c6816108a2565b92915050565b5f602082840312156108e1576108e0610895565b5b5f6108ee848285016108b8565b91505092915050565b61090081610899565b82525050565b5f6020820190506109195f8301846108f7565b92915050565b5f81519050919050565b5f82825260208201905092915050565b5f819050602082019050919050565b61095181610899565b82525050565b5f6109628383610948565b60208301905092915050565b5f602082019050919050565b5f6109848261091f565b61098e8185610929565b935061099983610939565b805f5b838110156109c95781516109b08882610957565b97506109bb8361096e565b92505060018101905061099c565b5085935050505092915050565b5f6020820190508181035f8301526109ee818461097a565b905092915050565b7f4e487b71000000000000000000000000000000000000000000000000000000005f52603260045260245ffd5b7f4e487b71000000000000000000000000000000000000000000000000000000005f52604160045260245ffd5b7f4e487b71000000000000000000000000000000000000000000000000000000005f52603160045260245ffd5b5f81519050919050565b5f82825260208201905092915050565b8281835e5f83830152505050565b5f601f19601f8301169050919050565b5f610abf82610a7d565b610ac98185610a87565b9350610ad9818560208601610a97565b610ae281610aa5565b840191505092915050565b5f6060820190508181035f830152610b058186610ab5565b9050610b1460208301856108f7565b610b2160408301846108f7565b949350505050565b5f6080820190508181035f830152610b418187610ab5565b9050610b5060208301866108f7565b610b5d60408301856108f7565b610b6a60608301846108f7565b95945050505050565b7f4e487b71000000000000000000000000000000000000000000000000000000005f52605160045260245ffdfea2646970667358221220c5fbd78171396738ae646f759eb3de62cba49f4bca83dbd50795295408c8848d64736f6c634300081f0033",
			"opcodes": "PUSH1 0x80 PUSH1 0x40 MSTORE PUSH1 0x40 MLOAD DUP1 PUSH1 0x60 ADD PUSH1 0x40 MSTORE DUP1 PUSH1 0x1 PUSH1 0xFF AND DUP2 MSTORE PUSH1 0x20 ADD PUSH1 0x2 PUSH1 0xFF AND DUP2 MSTORE PUSH1 0x20 ADD PUSH1 0x3 PUSH1 0xFF AND DUP2 MSTORE POP PUSH1 0x1 SWAP1 PUSH1 0x3 PUSH1 0x39 SWAP3 SWAP2 SWAP1 PUSH1 0x49 JUMP JUMPDEST POP CALLVALUE DUP1 ISZERO PUSH1 0x44 JUMPI PUSH0 PUSH0 REVERT JUMPDEST POP PUSH1 0xAD JUMP JUMPDEST DUP3 DUP1 SLOAD DUP3 DUP3 SSTORE SWAP1 PUSH0 MSTORE PUSH1 0x20 PUSH0 KECCAK256 SWAP1 DUP2 ADD SWAP3 DUP3 ISZERO PUSH1 0x85 JUMPI SWAP2 PUSH1 0x20 MUL DUP3 ADD JUMPDEST DUP3 DUP2 GT ISZERO PUSH1 0x84 JUMPI DUP3 MLOAD DUP3 SWAP1 PUSH1 0xFF AND SWAP1 SSTORE SWAP2 PUSH1 0x20 ADD SWAP2 SWAP1 PUSH1 0x1 ADD SWAP1 PUSH1 0x66 JUMP JUMPDEST JUMPDEST POP SWAP1 POP PUSH1 0x90 SWAP2 SWAP1 PUSH1 0x94 JUMP JUMPDEST POP SWAP1 JUMP JUMPDEST JUMPDEST DUP1 DUP3 GT ISZERO PUSH1 0xA9 JUMPI PUSH0 DUP2 PUSH0 SWAP1 SSTORE POP PUSH1 0x1 ADD PUSH1 0x95 JUMP JUMPDEST POP SWAP1 JUMP JUMPDEST PUSH2 0xBD6 DUP1 PUSH2 0xBA PUSH0 CODECOPY PUSH0 RETURN INVALID PUSH1 0x80 PUSH1 0x40 MSTORE CALLVALUE DUP1 ISZERO PUSH2 0xF JUMPI PUSH0 PUSH0 REVERT JUMPDEST POP PUSH1 0x4 CALLDATASIZE LT PUSH2 0x9C JUMPI PUSH0 CALLDATALOAD PUSH1 0xE0 SHR DUP1 PUSH4 0x9A5009AC GT PUSH2 0x64 JUMPI DUP1 PUSH4 0x9A5009AC EQ PUSH2 0x142 JUMPI DUP1 PUSH4 0xA4ECE52C EQ PUSH2 0x172 JUMPI DUP1 PUSH4 0xBE1C766B EQ PUSH2 0x17C JUMPI DUP1 PUSH4 0xD504EA1D EQ PUSH2 0x19A JUMPI DUP1 PUSH4 0xEDF0099B EQ PUSH2 0x1B8 JUMPI PUSH2 0x9C JUMP JUMPDEST DUP1 PUSH4 0x4CC82215 EQ PUSH2 0xA0 JUMPI DUP1 PUSH4 0x60699612 EQ PUSH2 0xBC JUMPI DUP1 PUSH4 0x71E5EE5F EQ PUSH2 0xC6 JUMPI DUP1 PUSH4 0x9507D39A EQ PUSH2 0xF6 JUMPI DUP1 PUSH4 0x959AC484 EQ PUSH2 0x126 JUMPI JUMPDEST PUSH0 PUSH0 REVERT JUMPDEST PUSH2 0xBA PUSH1 0x4 DUP1 CALLDATASIZE SUB DUP2 ADD SWAP1 PUSH2 0xB5 SWAP2 SWAP1 PUSH2 0x8CC JUMP JUMPDEST PUSH2 0x1E8 JUMP JUMPDEST STOP JUMPDEST PUSH2 0xC4 PUSH2 0x20A JUMP JUMPDEST STOP JUMPDEST PUSH2 0xE0 PUSH1 0x4 DUP1 CALLDATASIZE SUB DUP2 ADD SWAP1 PUSH2 0xDB SWAP2 SWAP1 PUSH2 0x8CC JUMP JUMPDEST PUSH2 0x5D7 JUMP JUMPDEST PUSH1 0x40 MLOAD PUSH2 0xED SWAP2 SWAP1 PUSH2 0x906 JUMP JUMPDEST PUSH1 0x40 MLOAD DUP1 SWAP2 SUB SWAP1 RETURN JUMPDEST PUSH2 0x110 PUSH1 0x4 DUP1 CALLDATASIZE SUB DUP2 ADD SWAP1 PUSH2 0x10B SWAP2 SWAP1 PUSH2 0x8CC JUMP JUMPDEST PUSH2 0x5F7 JUMP JUMPDEST PUSH1 0x40 MLOAD PUSH2 0x11D SWAP2 SWAP1 PUSH2 0x906 JUMP JUMPDEST PUSH1 0x40 MLOAD DUP1 SWAP2 SUB SWAP1 RETURN JUMPDEST PUSH2 0x140 PUSH1 0x4 DUP1 CALLDATASIZE SUB DUP2 ADD SWAP1 PUSH2 0x13B SWAP2 SWAP1 PUSH2 0x8CC JUMP JUMPDEST PUSH2 0x61C JUMP JUMPDEST STOP JUMPDEST PUSH2 0x15C PUSH1 0x4 DUP1 CALLDATASIZE SUB DUP2 ADD SWAP1 PUSH2 0x157 SWAP2 SWAP1 PUSH2 0x8CC JUMP JUMPDEST PUSH2 0x645 JUMP JUMPDEST PUSH1 0x40 MLOAD PUSH2 0x169 SWAP2 SWAP1 PUSH2 0x906 JUMP JUMPDEST PUSH1 0x40 MLOAD DUP1 SWAP2 SUB SWAP1 RETURN JUMPDEST PUSH2 0x17A PUSH2 0x65E JUMP JUMPDEST STOP JUMPDEST PUSH2 0x184 PUSH2 0x685 JUMP JUMPDEST PUSH1 0x40 MLOAD PUSH2 0x191 SWAP2 SWAP1 PUSH2 0x906 JUMP JUMPDEST PUSH1 0x40 MLOAD DUP1 SWAP2 SUB SWAP1 RETURN JUMPDEST PUSH2 0x1A2 PUSH2 0x691 JUMP JUMPDEST PUSH1 0x40 MLOAD PUSH2 0x1AF SWAP2 SWAP1 PUSH2 0x9D6 JUMP JUMPDEST PUSH1 0x40 MLOAD DUP1 SWAP2 SUB SWAP1 RETURN JUMPDEST PUSH2 0x1D2 PUSH1 0x4 DUP1 CALLDATASIZE SUB DUP2 ADD SWAP1 PUSH2 0x1CD SWAP2 SWAP1 PUSH2 0x8CC JUMP JUMPDEST PUSH2 0x6E7 JUMP JUMPDEST PUSH1 0x40 MLOAD PUSH2 0x1DF SWAP2 SWAP1 PUSH2 0x906 JUMP JUMPDEST PUSH1 0x40 MLOAD DUP1 SWAP2 SUB SWAP1 RETURN JUMPDEST PUSH1 0x1 DUP2 DUP2 SLOAD DUP2 LT PUSH2 0x1FC JUMPI PUSH2 0x1FB PUSH2 0x9F6 JUMP JUMPDEST JUMPDEST SWAP1 PUSH0 MSTORE PUSH1 0x20 PUSH0 KECCAK256 ADD PUSH0 SWAP1 SSTORE POP JUMP JUMPDEST PUSH0 PUSH1 0x5 PUSH8 0xFFFFFFFFFFFFFFFF DUP2 GT ISZERO PUSH2 0x226 JUMPI PUSH2 0x225 PUSH2 0xA23 JUMP JUMPDEST JUMPDEST PUSH1 0x40 MLOAD SWAP1 DUP1 DUP3 MSTORE DUP1 PUSH1 0x20 MUL PUSH1 0x20 ADD DUP3 ADD PUSH1 0x40 MSTORE DUP1 ISZERO PUSH2 0x254 JUMPI DUP2 PUSH1 0x20 ADD PUSH1 0x20 DUP3 MUL DUP1 CALLDATASIZE DUP4 CALLDATACOPY DUP1 DUP3 ADD SWAP2 POP POP SWAP1 POP JUMPDEST POP SWAP1 POP PUSH0 PUSH0 SWAP1 POP JUMPDEST DUP2 MLOAD DUP2 LT ISZERO PUSH2 0x2CC JUMPI PUSH2 0x2BF PUSH1 0x40 MLOAD DUP1 PUSH1 0x40 ADD PUSH1 0x40 MSTORE DUP1 PUSH1 0xB DUP2 MSTORE PUSH1 0x20 ADD PUSH32 0x6D7941727261795B25645D000000000000000000000000000000000000000000 DUP2 MSTORE POP DUP3 DUP5 DUP5 DUP2 MLOAD DUP2 LT PUSH2 0x2B2 JUMPI PUSH2 0x2B1 PUSH2 0x9F6 JUMP JUMPDEST JUMPDEST PUSH1 0x20 MUL PUSH1 0x20 ADD ADD MLOAD PUSH2 0x706 JUMP JUMPDEST DUP1 DUP1 PUSH1 0x1 ADD SWAP2 POP POP PUSH2 0x25C JUMP JUMPDEST POP PUSH0 PUSH1 0x2 PUSH8 0xFFFFFFFFFFFFFFFF DUP2 GT ISZERO PUSH2 0x2E9 JUMPI PUSH2 0x2E8 PUSH2 0xA23 JUMP JUMPDEST JUMPDEST PUSH1 0x40 MLOAD SWAP1 DUP1 DUP3 MSTORE DUP1 PUSH1 0x20 MUL PUSH1 0x20 ADD DUP3 ADD PUSH1 0x40 MSTORE DUP1 ISZERO PUSH2 0x31C JUMPI DUP2 PUSH1 0x20 ADD JUMPDEST PUSH1 0x60 DUP2 MSTORE PUSH1 0x20 ADD SWAP1 PUSH1 0x1 SWAP1 SUB SWAP1 DUP2 PUSH2 0x307 JUMPI SWAP1 POP JUMPDEST POP SWAP1 POP PUSH0 PUSH0 SWAP1 POP JUMPDEST DUP2 MLOAD DUP2 LT ISZERO PUSH2 0x3A2 JUMPI PUSH1 0x3 PUSH8 0xFFFFFFFFFFFFFFFF DUP2 GT ISZERO PUSH2 0x348 JUMPI PUSH2 0x347 PUSH2 0xA23 JUMP JUMPDEST JUMPDEST PUSH1 0x40 MLOAD SWAP1 DUP1 DUP3 MSTORE DUP1 PUSH1 0x20 MUL PUSH1 0x20 ADD DUP3 ADD PUSH1 0x40 MSTORE DUP1 ISZERO PUSH2 0x376 JUMPI DUP2 PUSH1 0x20 ADD PUSH1 0x20 DUP3 MUL DUP1 CALLDATASIZE DUP4 CALLDATACOPY DUP1 DUP3 ADD SWAP2 POP POP SWAP1 POP JUMPDEST POP DUP3 DUP3 DUP2 MLOAD DUP2 LT PUSH2 0x38A JUMPI PUSH2 0x389 PUSH2 0x9F6 JUMP JUMPDEST JUMPDEST PUSH1 0x20 MUL PUSH1 0x20 ADD ADD DUP2 SWAP1 MSTORE POP DUP1 DUP1 PUSH1 0x1 ADD SWAP2 POP POP PUSH2 0x324 JUMP JUMPDEST POP PUSH1 0x1 DUP2 PUSH0 DUP2 MLOAD DUP2 LT PUSH2 0x3B8 JUMPI PUSH2 0x3B7 PUSH2 0x9F6 JUMP JUMPDEST JUMPDEST PUSH1 0x20 MUL PUSH1 0x20 ADD ADD MLOAD PUSH0 DUP2 MLOAD DUP2 LT PUSH2 0x3D2 JUMPI PUSH2 0x3D1 PUSH2 0x9F6 JUMP JUMPDEST JUMPDEST PUSH1 0x20 MUL PUSH1 0x20 ADD ADD DUP2 DUP2 MSTORE POP POP PUSH1 0x2 DUP2 PUSH0 DUP2 MLOAD DUP2 LT PUSH2 0x3F3 JUMPI PUSH2 0x3F2 PUSH2 0x9F6 JUMP JUMPDEST JUMPDEST PUSH1 0x20 MUL PUSH1 0x20 ADD ADD MLOAD PUSH1 0x1 DUP2 MLOAD DUP2 LT PUSH2 0x40E JUMPI PUSH2 0x40D PUSH2 0x9F6 JUMP JUMPDEST JUMPDEST PUSH1 0x20 MUL PUSH1 0x20 ADD ADD DUP2 DUP2 MSTORE POP POP PUSH1 0x3 DUP2 PUSH0 DUP2 MLOAD DUP2 LT PUSH2 0x42F JUMPI PUSH2 0x42E PUSH2 0x9F6 JUMP JUMPDEST JUMPDEST PUSH1 0x20 MUL PUSH1 0x20 ADD ADD MLOAD PUSH1 0x2 DUP2 MLOAD DUP2 LT PUSH2 0x44A JUMPI PUSH2 0x449 PUSH2 0x9F6 JUMP JUMPDEST JUMPDEST PUSH1 0x20 MUL PUSH1 0x20 ADD ADD DUP2 DUP2 MSTORE POP POP PUSH1 0x4 DUP2 PUSH1 0x1 DUP2 MLOAD DUP2 LT PUSH2 0x46C JUMPI PUSH2 0x46B PUSH2 0x9F6 JUMP JUMPDEST JUMPDEST PUSH1 0x20 MUL PUSH1 0x20 ADD ADD MLOAD PUSH0 DUP2 MLOAD DUP2 LT PUSH2 0x486 JUMPI PUSH2 0x485 PUSH2 0x9F6 JUMP JUMPDEST JUMPDEST PUSH1 0x20 MUL PUSH1 0x20 ADD ADD DUP2 DUP2 MSTORE POP POP PUSH1 0x5 DUP2 PUSH1 0x1 DUP2 MLOAD DUP2 LT PUSH2 0x4A8 JUMPI PUSH2 0x4A7 PUSH2 0x9F6 JUMP JUMPDEST JUMPDEST PUSH1 0x20 MUL PUSH1 0x20 ADD ADD MLOAD PUSH1 0x1 DUP2 MLOAD DUP2 LT PUSH2 0x4C3 JUMPI PUSH2 0x4C2 PUSH2 0x9F6 JUMP JUMPDEST JUMPDEST PUSH1 0x20 MUL PUSH1 0x20 ADD ADD DUP2 DUP2 MSTORE POP POP PUSH1 0x6 DUP2 PUSH1 0x1 DUP2 MLOAD DUP2 LT PUSH2 0x4E5 JUMPI PUSH2 0x4E4 PUSH2 0x9F6 JUMP JUMPDEST JUMPDEST PUSH1 0x20 MUL PUSH1 0x20 ADD ADD MLOAD PUSH1 0x2 DUP2 MLOAD DUP2 LT PUSH2 0x500 JUMPI PUSH2 0x4FF PUSH2 0x9F6 JUMP JUMPDEST JUMPDEST PUSH1 0x20 MUL PUSH1 0x20 ADD ADD DUP2 DUP2 MSTORE POP POP PUSH0 PUSH0 SWAP1 POP JUMPDEST DUP2 MLOAD DUP2 LT ISZERO PUSH2 0x5D2 JUMPI PUSH0 PUSH0 SWAP1 POP JUMPDEST DUP3 DUP3 DUP2 MLOAD DUP2 LT PUSH2 0x532 JUMPI PUSH2 0x531 PUSH2 0x9F6 JUMP JUMPDEST JUMPDEST PUSH1 0x20 MUL PUSH1 0x20 ADD ADD MLOAD MLOAD DUP2 LT ISZERO PUSH2 0x5C4 JUMPI PUSH2 0x5B7 PUSH1 0x40 MLOAD DUP1 PUSH1 0x40 ADD PUSH1 0x40 MSTORE DUP1 PUSH1 0x18 DUP2 MSTORE PUSH1 0x20 ADD PUSH32 0x6E657374656441727261795B25645D5B25645D203D2025640000000000000000 DUP2 MSTORE POP DUP4 DUP4 DUP7 DUP7 DUP2 MLOAD DUP2 LT PUSH2 0x590 JUMPI PUSH2 0x58F PUSH2 0x9F6 JUMP JUMPDEST JUMPDEST PUSH1 0x20 MUL PUSH1 0x20 ADD ADD MLOAD DUP6 DUP2 MLOAD DUP2 LT PUSH2 0x5AA JUMPI PUSH2 0x5A9 PUSH2 0x9F6 JUMP JUMPDEST JUMPDEST PUSH1 0x20 MUL PUSH1 0x20 ADD ADD MLOAD PUSH2 0x7A5 JUMP JUMPDEST DUP1 DUP1 PUSH1 0x1 ADD SWAP2 POP POP PUSH2 0x51F JUMP JUMPDEST POP DUP1 DUP1 PUSH1 0x1 ADD SWAP2 POP POP PUSH2 0x511 JUMP JUMPDEST POP POP POP JUMP JUMPDEST PUSH1 0x1 DUP2 DUP2 SLOAD DUP2 LT PUSH2 0x5E6 JUMPI PUSH0 DUP1 REVERT JUMPDEST SWAP1 PUSH0 MSTORE PUSH1 0x20 PUSH0 KECCAK256 ADD PUSH0 SWAP2 POP SWAP1 POP SLOAD DUP2 JUMP JUMPDEST PUSH0 PUSH1 0x1 DUP3 DUP2 SLOAD DUP2 LT PUSH2 0x60C JUMPI PUSH2 0x60B PUSH2 0x9F6 JUMP JUMPDEST JUMPDEST SWAP1 PUSH0 MSTORE PUSH1 0x20 PUSH0 KECCAK256 ADD SLOAD SWAP1 POP SWAP2 SWAP1 POP JUMP JUMPDEST PUSH1 0x1 DUP2 SWAP1 DUP1 PUSH1 0x1 DUP2 SLOAD ADD DUP1 DUP3 SSTORE DUP1 SWAP2 POP POP PUSH1 0x1 SWAP1 SUB SWAP1 PUSH0 MSTORE PUSH1 0x20 PUSH0 KECCAK256 ADD PUSH0 SWAP1 SWAP2 SWAP1 SWAP2 SWAP1 SWAP2 POP SSTORE POP JUMP JUMPDEST PUSH1 0x2 DUP2 PUSH1 0xA DUP2 LT PUSH2 0x654 JUMPI PUSH0 DUP1 REVERT JUMPDEST ADD PUSH0 SWAP2 POP SWAP1 POP SLOAD DUP2 JUMP JUMPDEST PUSH1 0x1 DUP1 SLOAD DUP1 PUSH2 0x670 JUMPI PUSH2 0x66F PUSH2 0xA50 JUMP JUMPDEST JUMPDEST PUSH1 0x1 SWAP1 SUB DUP2 DUP2 SWAP1 PUSH0 MSTORE PUSH1 0x20 PUSH0 KECCAK256 ADD PUSH0 SWAP1 SSTORE SWAP1 SSTORE JUMP JUMPDEST PUSH0 PUSH1 0x1 DUP1 SLOAD SWAP1 POP SWAP1 POP SWAP1 JUMP JUMPDEST PUSH1 0x60 PUSH1 0x1 DUP1 SLOAD DUP1 PUSH1 0x20 MUL PUSH1 0x20 ADD PUSH1 0x40 MLOAD SWAP1 DUP2 ADD PUSH1 0x40 MSTORE DUP1 SWAP3 SWAP2 SWAP1 DUP2 DUP2 MSTORE PUSH1 0x20 ADD DUP3 DUP1 SLOAD DUP1 ISZERO PUSH2 0x6DD JUMPI PUSH1 0x20 MUL DUP3 ADD SWAP2 SWAP1 PUSH0 MSTORE PUSH1 0x20 PUSH0 KECCAK256 SWAP1 JUMPDEST DUP2 SLOAD DUP2 MSTORE PUSH1 0x20 ADD SWAP1 PUSH1 0x1 ADD SWAP1 DUP1 DUP4 GT PUSH2 0x6C9 JUMPI JUMPDEST POP POP POP POP POP SWAP1 POP SWAP1 JUMP JUMPDEST PUSH0 DUP2 DUP2 SLOAD DUP2 LT PUSH2 0x6F5 JUMPI PUSH0 DUP1 REVERT JUMPDEST SWAP1 PUSH0 MSTORE PUSH1 0x20 PUSH0 KECCAK256 ADD PUSH0 SWAP2 POP SWAP1 POP SLOAD DUP2 JUMP JUMPDEST PUSH2 0x7A0 DUP4 DUP4 DUP4 PUSH1 0x40 MLOAD PUSH1 0x24 ADD PUSH2 0x71E SWAP4 SWAP3 SWAP2 SWAP1 PUSH2 0xAED JUMP JUMPDEST PUSH1 0x40 MLOAD PUSH1 0x20 DUP2 DUP4 SUB SUB DUP2 MSTORE SWAP1 PUSH1 0x40 MSTORE PUSH32 0xCA47C4EB00000000000000000000000000000000000000000000000000000000 PUSH28 0xFFFFFFFFFFFFFFFFFFFFFFFFFFFFFFFFFFFFFFFFFFFFFFFFFFFFFFFF NOT AND PUSH1 0x20 DUP3 ADD DUP1 MLOAD PUSH28 0xFFFFFFFFFFFFFFFFFFFFFFFFFFFFFFFFFFFFFFFFFFFFFFFFFFFFFFFF DUP4 DUP2 DUP4 AND OR DUP4 MSTORE POP POP POP POP PUSH2 0x847 JUMP JUMPDEST POP POP POP JUMP JUMPDEST PUSH2 0x841 DUP5 DUP5 DUP5 DUP5 PUSH1 0x40 MLOAD PUSH1 0x24 ADD PUSH2 0x7BF SWAP5 SWAP4 SWAP3 SWAP2 SWAP1 PUSH2 0xB29 JUMP JUMPDEST PUSH1 0x40 MLOAD PUSH1 0x20 DUP2 DUP4 SUB SUB DUP2 MSTORE SWAP1 PUSH1 0x40 MSTORE PUSH32 0xA7A8785300000000000000000000000000000000000000000000000000000000 PUSH28 0xFFFFFFFFFFFFFFFFFFFFFFFFFFFFFFFFFFFFFFFFFFFFFFFFFFFFFFFF NOT AND PUSH1 0x20 DUP3 ADD DUP1 MLOAD PUSH28 0xFFFFFFFFFFFFFFFFFFFFFFFFFFFFFFFFFFFFFFFFFFFFFFFFFFFFFFFF DUP4 DUP2 DUP4 AND OR DUP4 MSTORE POP POP POP POP PUSH2 0x847 JUMP JUMPDEST POP POP POP POP JUMP JUMPDEST PUSH2 0x85E DUP2 PUSH2 0x856 PUSH2 0x861 PUSH2 0x880 JUMP JUMPDEST PUSH4 0xFFFFFFFF AND JUMP JUMPDEST POP JUMP JUMPDEST PUSH0 PUSH11 0x636F6E736F6C652E6C6F67 SWAP1 POP PUSH0 PUSH0 DUP4 MLOAD PUSH1 0x20 DUP6 ADD DUP5 GAS STATICCALL POP POP POP JUMP JUMPDEST PUSH2 0x88B DUP2 SWAP1 POP SWAP2 SWAP1 POP JUMP JUMPDEST PUSH2 0x893 PUSH2 0xB73 JUMP JUMPDEST JUMP JUMPDEST PUSH0 PUSH0 REVERT JUMPDEST PUSH0 DUP2 SWAP1 POP SWAP2 SWAP1 POP JUMP JUMPDEST PUSH2 0x8AB DUP2 PUSH2 0x899 JUMP JUMPDEST DUP2 EQ PUSH2 0x8B5 JUMPI PUSH0 PUSH0 REVERT JUMPDEST POP JUMP JUMPDEST PUSH0 DUP2 CALLDATALOAD SWAP1 POP PUSH2 0x8C6 DUP2 PUSH2 0x8A2 JUMP JUMPDEST SWAP3 SWAP2 POP POP JUMP JUMPDEST PUSH0 PUSH1 0x20 DUP3 DUP5 SUB SLT ISZERO PUSH2 0x8E1 JUMPI PUSH2 0x8E0 PUSH2 0x895 JUMP JUMPDEST JUMPDEST PUSH0 PUSH2 0x8EE DUP5 DUP3 DUP6 ADD PUSH2 0x8B8 JUMP JUMPDEST SWAP2 POP POP SWAP3 SWAP2 POP POP JUMP JUMPDEST PUSH2 0x900 DUP2 PUSH2 0x899 JUMP JUMPDEST DUP3 MSTORE POP POP JUMP JUMPDEST PUSH0 PUSH1 0x20 DUP3 ADD SWAP1 POP PUSH2 0x919 PUSH0 DUP4 ADD DUP5 PUSH2 0x8F7 JUMP JUMPDEST SWAP3 SWAP2 POP POP JUMP JUMPDEST PUSH0 DUP2 MLOAD SWAP1 POP SWAP2 SWAP1 POP JUMP JUMPDEST PUSH0 DUP3 DUP3 MSTORE PUSH1 0x20 DUP3 ADD SWAP1 POP SWAP3 SWAP2 POP POP JUMP JUMPDEST PUSH0 DUP2 SWAP1 POP PUSH1 0x20 DUP3 ADD SWAP1 POP SWAP2 SWAP1 POP JUMP JUMPDEST PUSH2 0x951 DUP2 PUSH2 0x899 JUMP JUMPDEST DUP3 MSTORE POP POP JUMP JUMPDEST PUSH0 PUSH2 0x962 DUP4 DUP4 PUSH2 0x948 JUMP JUMPDEST PUSH1 0x20 DUP4 ADD SWAP1 POP SWAP3 SWAP2 POP POP JUMP JUMPDEST PUSH0 PUSH1 0x20 DUP3 ADD SWAP1 POP SWAP2 SWAP1 POP JUMP JUMPDEST PUSH0 PUSH2 0x984 DUP3 PUSH2 0x91F JUMP JUMPDEST PUSH2 0x98E DUP2 DUP6 PUSH2 0x929 JUMP JUMPDEST SWAP4 POP PUSH2 0x999 DUP4 PUSH2 0x939 JUMP JUMPDEST DUP1 PUSH0 JUMPDEST DUP4 DUP2 LT ISZERO PUSH2 0x9C9 JUMPI DUP2 MLOAD PUSH2 0x9B0 DUP9 DUP3 PUSH2 0x957 JUMP JUMPDEST SWAP8 POP PUSH2 0x9BB DUP4 PUSH2 0x96E JUMP JUMPDEST SWAP3 POP POP PUSH1 0x1 DUP2 ADD SWAP1 POP PUSH2 0x99C JUMP JUMPDEST POP DUP6 SWAP4 POP POP POP POP SWAP3 SWAP2 POP POP JUMP JUMPDEST PUSH0 PUSH1 0x20 DUP3 ADD SWAP1 POP DUP2 DUP2 SUB PUSH0 DUP4 ADD MSTORE PUSH2 0x9EE DUP2 DUP5 PUSH2 0x97A JUMP JUMPDEST SWAP1 POP SWAP3 SWAP2 POP POP JUMP JUMPDEST PUSH32 0x4E487B7100000000000000000000000000000000000000000000000000000000 PUSH0 MSTORE PUSH1 0x32 PUSH1 0x4 MSTORE PUSH1 0x24 PUSH0 REVERT JUMPDEST PUSH32 0x4E487B7100000000000000000000000000000000000000000000000000000000 PUSH0 MSTORE PUSH1 0x41 PUSH1 0x4 MSTORE PUSH1 0x24 PUSH0 REVERT JUMPDEST PUSH32 0x4E487B7100000000000000000000000000000000000000000000000000000000 PUSH0 MSTORE PUSH1 0x31 PUSH1 0x4 MSTORE PUSH1 0x24 PUSH0 REVERT JUMPDEST PUSH0 DUP2 MLOAD SWAP1 POP SWAP2 SWAP1 POP JUMP JUMPDEST PUSH0 DUP3 DUP3 MSTORE PUSH1 0x20 DUP3 ADD SWAP1 POP SWAP3 SWAP2 POP POP JUMP JUMPDEST DUP3 DUP2 DUP4 MCOPY PUSH0 DUP4 DUP4 ADD MSTORE POP POP POP JUMP JUMPDEST PUSH0 PUSH1 0x1F NOT PUSH1 0x1F DUP4 ADD AND SWAP1 POP SWAP2 SWAP1 POP JUMP JUMPDEST PUSH0 PUSH2 0xABF DUP3 PUSH2 0xA7D JUMP JUMPDEST PUSH2 0xAC9 DUP2 DUP6 PUSH2 0xA87 JUMP JUMPDEST SWAP4 POP PUSH2 0xAD9 DUP2 DUP6 PUSH1 0x20 DUP7 ADD PUSH2 0xA97 JUMP JUMPDEST PUSH2 0xAE2 DUP2 PUSH2 0xAA5 JUMP JUMPDEST DUP5 ADD SWAP2 POP POP SWAP3 SWAP2 POP POP JUMP JUMPDEST PUSH0 PUSH1 0x60 DUP3 ADD SWAP1 POP DUP2 DUP2 SUB PUSH0 DUP4 ADD MSTORE PUSH2 0xB05 DUP2 DUP7 PUSH2 0xAB5 JUMP JUMPDEST SWAP1 POP PUSH2 0xB14 PUSH1 0x20 DUP4 ADD DUP6 PUSH2 0x8F7 JUMP JUMPDEST PUSH2 0xB21 PUSH1 0x40 DUP4 ADD DUP5 PUSH2 0x8F7 JUMP JUMPDEST SWAP5 SWAP4 POP POP POP POP JUMP JUMPDEST PUSH0 PUSH1 0x80 DUP3 ADD SWAP1 POP DUP2 DUP2 SUB PUSH0 DUP4 ADD MSTORE PUSH2 0xB41 DUP2 DUP8 PUSH2 0xAB5 JUMP JUMPDEST SWAP1 POP PUSH2 0xB50 PUSH1 0x20 DUP4 ADD DUP7 PUSH2 0x8F7 JUMP JUMPDEST PUSH2 0xB5D PUSH1 0x40 DUP4 ADD DUP6 PUSH2 0x8F7 JUMP JUMPDEST PUSH2 0xB6A PUSH1 0x60 DUP4 ADD DUP5 PUSH2 0x8F7 JUMP JUMPDEST SWAP6 SWAP5 POP POP POP POP POP JUMP JUMPDEST PUSH32 0x4E487B7100000000000000000000000000000000000000000000000000000000 PUSH0 MSTORE PUSH1 0x51 PUSH1 0x4 MSTORE PUSH1 0x24 PUSH0 REVERT INVALID LOG2 PUSH5 0x6970667358 0x22 SLT KECCAK256 0xC5 EXTSTATICCALL 0xD7 DUP2 PUSH18 0x396738AE646F759EB3DE62CBA49F4BCA83DB 0xD5 SMOD SWAP6 0x29 SLOAD ADDMOD 0xC8 DUP5 DUP14 PUSH5 0x736F6C6343 STOP ADDMOD 0x1F STOP CALLER "
		},
		"gasEstimates": {
			"creation": {
				"codeDepositCost": "606000",
				"executionCost": "infinite",
				"totalCost": "infinite"
			},
			"external": {
				"arr(uint256)": "infinite",
				"arr2(uint256)": "infinite",
				"exmaples()": "infinite",
				"fixedArray(uint256)": "infinite",
				"get(uint256)": "infinite",
				"getArray()": "infinite",
				"getLength()": "2484",
				"pop()": "29463",
				"push(uint256)": "46910",
				"remove(uint256)": "7588"
			}
		},
		"methodIdentifiers": {
			"arr(uint256)": "71e5ee5f",
			"arr2(uint256)": "edf0099b",
			"exmaples()": "60699612",
			"fixedArray(uint256)": "9a5009ac",
			"get(uint256)": "9507d39a",
			"getArray()": "d504ea1d",
			"getLength()": "be1c766b",
			"pop()": "a4ece52c",
			"push(uint256)": "959ac484",
			"remove(uint256)": "4cc82215"
		}
	},
	"abi": [
		{
			"inputs": [
				{
					"internalType": "uint256",
					"name": "",
					"type": "uint256"
				}
			],
			"name": "arr",
			"outputs": [
				{
					"internalType": "uint256",
					"name": "",
					"type": "uint256"
				}
			],
			"stateMutability": "view",
			"type": "function"
		},
		{
			"inputs": [
				{
					"internalType": "uint256",
					"name": "",
					"type": "uint256"
				}
			],
			"name": "arr2",
			"outputs": [
				{
					"internalType": "uint256",
					"name": "",
					"type": "uint256"
				}
			],
			"stateMutability": "view",
			"type": "function"
		},
		{
			"inputs": [],
			"name": "exmaples",
			"outputs": [],
			"stateMutability": "pure",
			"type": "function"
		},
		{
			"inputs": [
				{
					"internalType": "uint256",
					"name": "",
					"type": "uint256"
				}
			],
			"name": "fixedArray",
			"outputs": [
				{
					"internalType": "uint256",
					"name": "",
					"type": "uint256"
				}
			],
			"stateMutability": "view",
			"type": "function"
		},
		{
			"inputs": [
				{
					"internalType": "uint256",
					"name": "i",
					"type": "uint256"
				}
			],
			"name": "get",
			"outputs": [
				{
					"internalType": "uint256",
					"name": "",
					"type": "uint256"
				}
			],
			"stateMutability": "view",
			"type": "function"
		},
		{
			"inputs": [],
			"name": "getArray",
			"outputs": [
				{
					"internalType": "uint256[]",
					"name": "",
					"type": "uint256[]"
				}
			],
			"stateMutability": "view",
			"type": "function"
		},
		{
			"inputs": [],
			"name": "getLength",
			"outputs": [
				{
					"internalType": "uint256",
					"name": "",
					"type": "uint256"
				}
			],
			"stateMutability": "view",
			"type": "function"
		},
		{
			"inputs": [],
			"name": "pop",
			"outputs": [],
			"stateMutability": "nonpayable",
			"type": "function"
		},
		{
			"inputs": [
				{
					"internalType": "uint256",
					"name": "i",
					"type": "uint256"
				}
			],
			"name": "push",
			"outputs": [],
			"stateMutability": "nonpayable",
			"type": "function"
		},
		{
			"inputs": [
				{
					"internalType": "uint256",
					"name": "index",
					"type": "uint256"
				}
			],
			"name": "remove",
			"outputs": [],
			"stateMutability": "nonpayable",
			"type": "function"
		}
	]
}