{
	"data": {
		"bytecode": {
			"linkReferences": {},
			"object": "60806040526040518060e00160405280600160ff168152602001600260ff168152602001602260ff168152602001600560ff168152602001600660ff168152602001600760ff168152602001600860ff168152505f90600760609291906070565b50348015606b575f5ffd5b5060d4565b828054828255905f5260205f2090810192821560ac579160200282015b8281111560ab578251829060ff16905591602001919060010190608d565b5b50905060b7919060bb565b5090565b5b8082111560d0575f815f90555060010160bc565b5090565b610773806100e15f395ff3fe608060405234801561000f575f5ffd5b506004361061004a575f3560e01c806321efc6e51461004e57806371e5ee5f1461006a578063d504ea1d1461009a578063f8a8fd6d146100b8575b5f5ffd5b61006860048036038101906100639190610454565b6100c2565b005b610084600480360381019061007f9190610454565b6101a1565b604051610091919061048e565b60405180910390f35b6100a26101c0565b6040516100af919061055e565b60405180910390f35b6100c0610215565b005b5f805490508110610108576040517f08c379a00000000000000000000000000000000000000000000000000000000081526004016100ff906105d8565b60405180910390fd5b5f8190505b60015f8054905061011e9190610623565b811015610179575f6001826101339190610656565b8154811061014457610143610689565b5b905f5260205f2001545f82815481106101605761015f610689565b5b905f5260205f200181905550808060010191505061010d565b505f80548061018b5761018a6106b6565b5b600190038181905f5260205f20015f9055905550565b5f81815481106101af575f80fd5b905f5260205f20015f915090505481565b60605f80548060200260200160405190810160405280929190818152602001828054801561020b57602002820191905f5260205f20905b8154815260200190600101908083116101f7575b5050505050905090565b5f600567ffffffffffffffff811115610231576102306106e3565b5b60405190808252806020026020018201604052801561025f5781602001602082028036833780820191505090505b509050600b815f8151811061027757610276610689565b5b60200260200101818152505060168160018151811061029957610298610689565b5b6020026020010181815250506021816002815181106102bb576102ba610689565b5b602002602001018181525050602c816003815181106102dd576102dc610689565b5b6020026020010181815250506037816004815181106102ff576102fe610689565b5b6020026020010181815250505f819050610332815f8151811061032557610324610689565b5b6020026020010151610336565b5050565b6103cc8160405160240161034a919061048e565b6040516020818303038152906040527ff82c50f1000000000000000000000000000000000000000000000000000000007bffffffffffffffffffffffffffffffffffffffffffffffffffffffff19166020820180517bffffffffffffffffffffffffffffffffffffffffffffffffffffffff83818316178352505050506103cf565b50565b6103e6816103de6103e9610408565b63ffffffff16565b50565b5f6a636f6e736f6c652e6c6f6790505f5f835160208501845afa505050565b610413819050919050565b61041b610710565b565b5f5ffd5b5f819050919050565b61043381610421565b811461043d575f5ffd5b50565b5f8135905061044e8161042a565b92915050565b5f602082840312156104695761046861041d565b5b5f61047684828501610440565b91505092915050565b61048881610421565b82525050565b5f6020820190506104a15f83018461047f565b92915050565b5f81519050919050565b5f82825260208201905092915050565b5f819050602082019050919050565b6104d981610421565b82525050565b5f6104ea83836104d0565b60208301905092915050565b5f602082019050919050565b5f61050c826104a7565b61051681856104b1565b9350610521836104c1565b805f5b8381101561055157815161053888826104df565b9750610543836104f6565b925050600181019050610524565b5085935050505092915050565b5f6020820190508181035f8301526105768184610502565b905092915050565b5f82825260208201905092915050565b7f496e646578206f7574206f6620626f756e6473000000000000000000000000005f82015250565b5f6105c260138361057e565b91506105cd8261058e565b602082019050919050565b5f6020820190508181035f8301526105ef816105b6565b9050919050565b7f4e487b71000000000000000000000000000000000000000000000000000000005f52601160045260245ffd5b5f61062d82610421565b915061063883610421565b92508282039050818111156106505761064f6105f6565b5b92915050565b5f61066082610421565b915061066b83610421565b9250828201905080821115610683576106826105f6565b5b92915050565b7f4e487b71000000000000000000000000000000000000000000000000000000005f52603260045260245ffd5b7f4e487b71000000000000000000000000000000000000000000000000000000005f52603160045260245ffd5b7f4e487b71000000000000000000000000000000000000000000000000000000005f52604160045260245ffd5b7f4e487b71000000000000000000000000000000000000000000000000000000005f52605160045260245ffdfea2646970667358221220e1e32460916fccb4482cbcf1d124f657d0946920025e8cfd4ddec930cb6bf1b564736f6c634300081f0033",
			"opcodes": "PUSH1 0x80 PUSH1 0x40 MSTORE PUSH1 0x40 MLOAD DUP1 PUSH1 0xE0 ADD PUSH1 0x40 MSTORE DUP1 PUSH1 0x1 PUSH1 0xFF AND DUP2 MSTORE PUSH1 0x20 ADD PUSH1 0x2 PUSH1 0xFF AND DUP2 MSTORE PUSH1 0x20 ADD PUSH1 0x22 PUSH1 0xFF AND DUP2 MSTORE PUSH1 0x20 ADD PUSH1 0x5 PUSH1 0xFF AND DUP2 MSTORE PUSH1 0x20 ADD PUSH1 0x6 PUSH1 0xFF AND DUP2 MSTORE PUSH1 0x20 ADD PUSH1 0x7 PUSH1 0xFF AND DUP2 MSTORE PUSH1 0x20 ADD PUSH1 0x8 PUSH1 0xFF AND DUP2 MSTORE POP PUSH0 SWAP1 PUSH1 0x7 PUSH1 0x60 SWAP3 SWAP2 SWAP1 PUSH1 0x70 JUMP JUMPDEST POP CALLVALUE DUP1 ISZERO PUSH1 0x6B JUMPI PUSH0 PUSH0 REVERT JUMPDEST POP PUSH1 0xD4 JUMP JUMPDEST DUP3 DUP1 SLOAD DUP3 DUP3 SSTORE SWAP1 PUSH0 MSTORE PUSH1 0x20 PUSH0 KECCAK256 SWAP1 DUP2 ADD SWAP3 DUP3 ISZERO PUSH1 0xAC JUMPI SWAP2 PUSH1 0x20 MUL DUP3 ADD JUMPDEST DUP3 DUP2 GT ISZERO PUSH1 0xAB JUMPI DUP3 MLOAD DUP3 SWAP1 PUSH1 0xFF AND SWAP1 SSTORE SWAP2 PUSH1 0x20 ADD SWAP2 SWAP1 PUSH1 0x1 ADD SWAP1 PUSH1 0x8D JUMP JUMPDEST JUMPDEST POP SWAP1 POP PUSH1 0xB7 SWAP2 SWAP1 PUSH1 0xBB JUMP JUMPDEST POP SWAP1 JUMP JUMPDEST JUMPDEST DUP1 DUP3 GT ISZERO PUSH1 0xD0 JUMPI PUSH0 DUP2 PUSH0 SWAP1 SSTORE POP PUSH1 0x1 ADD PUSH1 0xBC JUMP JUMPDEST POP SWAP1 JUMP JUMPDEST PUSH2 0x773 DUP1 PUSH2 0xE1 PUSH0 CODECOPY PUSH0 RETURN INVALID PUSH1 0x80 PUSH1 0x40 MSTORE CALLVALUE DUP1 ISZERO PUSH2 0xF JUMPI PUSH0 PUSH0 REVERT JUMPDEST POP PUSH1 0x4 CALLDATASIZE LT PUSH2 0x4A JUMPI PUSH0 CALLDATALOAD PUSH1 0xE0 SHR DUP1 PUSH4 0x21EFC6E5 EQ PUSH2 0x4E JUMPI DUP1 PUSH4 0x71E5EE5F EQ PUSH2 0x6A JUMPI DUP1 PUSH4 0xD504EA1D EQ PUSH2 0x9A JUMPI DUP1 PUSH4 0xF8A8FD6D EQ PUSH2 0xB8 JUMPI JUMPDEST PUSH0 PUSH0 REVERT JUMPDEST PUSH2 0x68 PUSH1 0x4 DUP1 CALLDATASIZE SUB DUP2 ADD SWAP1 PUSH2 0x63 SWAP2 SWAP1 PUSH2 0x454 JUMP JUMPDEST PUSH2 0xC2 JUMP JUMPDEST STOP JUMPDEST PUSH2 0x84 PUSH1 0x4 DUP1 CALLDATASIZE SUB DUP2 ADD SWAP1 PUSH2 0x7F SWAP2 SWAP1 PUSH2 0x454 JUMP JUMPDEST PUSH2 0x1A1 JUMP JUMPDEST PUSH1 0x40 MLOAD PUSH2 0x91 SWAP2 SWAP1 PUSH2 0x48E JUMP JUMPDEST PUSH1 0x40 MLOAD DUP1 SWAP2 SUB SWAP1 RETURN JUMPDEST PUSH2 0xA2 PUSH2 0x1C0 JUMP JUMPDEST PUSH1 0x40 MLOAD PUSH2 0xAF SWAP2 SWAP1 PUSH2 0x55E JUMP JUMPDEST PUSH1 0x40 MLOAD DUP1 SWAP2 SUB SWAP1 RETURN JUMPDEST PUSH2 0xC0 PUSH2 0x215 JUMP JUMPDEST STOP JUMPDEST PUSH0 DUP1 SLOAD SWAP1 POP DUP2 LT PUSH2 0x108 JUMPI PUSH1 0x40 MLOAD PUSH32 0x8C379A000000000000000000000000000000000000000000000000000000000 DUP2 MSTORE PUSH1 0x4 ADD PUSH2 0xFF SWAP1 PUSH2 0x5D8 JUMP JUMPDEST PUSH1 0x40 MLOAD DUP1 SWAP2 SUB SWAP1 REVERT JUMPDEST PUSH0 DUP2 SWAP1 POP JUMPDEST PUSH1 0x1 PUSH0 DUP1 SLOAD SWAP1 POP PUSH2 0x11E SWAP2 SWAP1 PUSH2 0x623 JUMP JUMPDEST DUP2 LT ISZERO PUSH2 0x179 JUMPI PUSH0 PUSH1 0x1 DUP3 PUSH2 0x133 SWAP2 SWAP1 PUSH2 0x656 JUMP JUMPDEST DUP2 SLOAD DUP2 LT PUSH2 0x144 JUMPI PUSH2 0x143 PUSH2 0x689 JUMP JUMPDEST JUMPDEST SWAP1 PUSH0 MSTORE PUSH1 0x20 PUSH0 KECCAK256 ADD SLOAD PUSH0 DUP3 DUP2 SLOAD DUP2 LT PUSH2 0x160 JUMPI PUSH2 0x15F PUSH2 0x689 JUMP JUMPDEST JUMPDEST SWAP1 PUSH0 MSTORE PUSH1 0x20 PUSH0 KECCAK256 ADD DUP2 SWAP1 SSTORE POP DUP1 DUP1 PUSH1 0x1 ADD SWAP2 POP POP PUSH2 0x10D JUMP JUMPDEST POP PUSH0 DUP1 SLOAD DUP1 PUSH2 0x18B JUMPI PUSH2 0x18A PUSH2 0x6B6 JUMP JUMPDEST JUMPDEST PUSH1 0x1 SWAP1 SUB DUP2 DUP2 SWAP1 PUSH0 MSTORE PUSH1 0x20 PUSH0 KECCAK256 ADD PUSH0 SWAP1 SSTORE SWAP1 SSTORE POP JUMP JUMPDEST PUSH0 DUP2 DUP2 SLOAD DUP2 LT PUSH2 0x1AF JUMPI PUSH0 DUP1 REVERT JUMPDEST SWAP1 PUSH0 MSTORE PUSH1 0x20 PUSH0 KECCAK256 ADD PUSH0 SWAP2 POP SWAP1 POP SLOAD DUP2 JUMP JUMPDEST PUSH1 0x60 PUSH0 DUP1 SLOAD DUP1 PUSH1 0x20 MUL PUSH1 0x20 ADD PUSH1 0x40 MLOAD SWAP1 DUP2 ADD PUSH1 0x40 MSTORE DUP1 SWAP3 SWAP2 SWAP1 DUP2 DUP2 MSTORE PUSH1 0x20 ADD DUP3 DUP1 SLOAD DUP1 ISZERO PUSH2 0x20B JUMPI PUSH1 0x20 MUL DUP3 ADD SWAP2 SWAP1 PUSH0 MSTORE PUSH1 0x20 PUSH0 KECCAK256 SWAP1 JUMPDEST DUP2 SLOAD DUP2 MSTORE PUSH1 0x20 ADD SWAP1 PUSH1 0x1 ADD SWAP1 DUP1 DUP4 GT PUSH2 0x1F7 JUMPI JUMPDEST POP POP POP POP POP SWAP1 POP SWAP1 JUMP JUMPDEST PUSH0 PUSH1 0x5 PUSH8 0xFFFFFFFFFFFFFFFF DUP2 GT ISZERO PUSH2 0x231 JUMPI PUSH2 0x230 PUSH2 0x6E3 JUMP JUMPDEST JUMPDEST PUSH1 0x40 MLOAD SWAP1 DUP1 DUP3 MSTORE DUP1 PUSH1 0x20 MUL PUSH1 0x20 ADD DUP3 ADD PUSH1 0x40 MSTORE DUP1 ISZERO PUSH2 0x25F JUMPI DUP2 PUSH1 0x20 ADD PUSH1 0x20 DUP3 MUL DUP1 CALLDATASIZE DUP4 CALLDATACOPY DUP1 DUP3 ADD SWAP2 POP POP SWAP1 POP JUMPDEST POP SWAP1 POP PUSH1 0xB DUP2 PUSH0 DUP2 MLOAD DUP2 LT PUSH2 0x277 JUMPI PUSH2 0x276 PUSH2 0x689 JUMP JUMPDEST JUMPDEST PUSH1 0x20 MUL PUSH1 0x20 ADD ADD DUP2 DUP2 MSTORE POP POP PUSH1 0x16 DUP2 PUSH1 0x1 DUP2 MLOAD DUP2 LT PUSH2 0x299 JUMPI PUSH2 0x298 PUSH2 0x689 JUMP JUMPDEST JUMPDEST PUSH1 0x20 MUL PUSH1 0x20 ADD ADD DUP2 DUP2 MSTORE POP POP PUSH1 0x21 DUP2 PUSH1 0x2 DUP2 MLOAD DUP2 LT PUSH2 0x2BB JUMPI PUSH2 0x2BA PUSH2 0x689 JUMP JUMPDEST JUMPDEST PUSH1 0x20 MUL PUSH1 0x20 ADD ADD DUP2 DUP2 MSTORE POP POP PUSH1 0x2C DUP2 PUSH1 0x3 DUP2 MLOAD DUP2 LT PUSH2 0x2DD JUMPI PUSH2 0x2DC PUSH2 0x689 JUMP JUMPDEST JUMPDEST PUSH1 0x20 MUL PUSH1 0x20 ADD ADD DUP2 DUP2 MSTORE POP POP PUSH1 0x37 DUP2 PUSH1 0x4 DUP2 MLOAD DUP2 LT PUSH2 0x2FF JUMPI PUSH2 0x2FE PUSH2 0x689 JUMP JUMPDEST JUMPDEST PUSH1 0x20 MUL PUSH1 0x20 ADD ADD DUP2 DUP2 MSTORE POP POP PUSH0 DUP2 SWAP1 POP PUSH2 0x332 DUP2 PUSH0 DUP2 MLOAD DUP2 LT PUSH2 0x325 JUMPI PUSH2 0x324 PUSH2 0x689 JUMP JUMPDEST JUMPDEST PUSH1 0x20 MUL PUSH1 0x20 ADD ADD MLOAD PUSH2 0x336 JUMP JUMPDEST POP POP JUMP JUMPDEST PUSH2 0x3CC DUP2 PUSH1 0x40 MLOAD PUSH1 0x24 ADD PUSH2 0x34A SWAP2 SWAP1 PUSH2 0x48E JUMP JUMPDEST PUSH1 0x40 MLOAD PUSH1 0x20 DUP2 DUP4 SUB SUB DUP2 MSTORE SWAP1 PUSH1 0x40 MSTORE PUSH32 0xF82C50F100000000000000000000000000000000000000000000000000000000 PUSH28 0xFFFFFFFFFFFFFFFFFFFFFFFFFFFFFFFFFFFFFFFFFFFFFFFFFFFFFFFF NOT AND PUSH1 0x20 DUP3 ADD DUP1 MLOAD PUSH28 0xFFFFFFFFFFFFFFFFFFFFFFFFFFFFFFFFFFFFFFFFFFFFFFFFFFFFFFFF DUP4 DUP2 DUP4 AND OR DUP4 MSTORE POP POP POP POP PUSH2 0x3CF JUMP JUMPDEST POP JUMP JUMPDEST PUSH2 0x3E6 DUP2 PUSH2 0x3DE PUSH2 0x3E9 PUSH2 0x408 JUMP JUMPDEST PUSH4 0xFFFFFFFF AND JUMP JUMPDEST POP JUMP JUMPDEST PUSH0 PUSH11 0x636F6E736F6C652E6C6F67 SWAP1 POP PUSH0 PUSH0 DUP4 MLOAD PUSH1 0x20 DUP6 ADD DUP5 GAS STATICCALL POP POP POP JUMP JUMPDEST PUSH2 0x413 DUP2 SWAP1 POP SWAP2 SWAP1 POP JUMP JUMPDEST PUSH2 0x41B PUSH2 0x710 JUMP JUMPDEST JUMP JUMPDEST PUSH0 PUSH0 REVERT JUMPDEST PUSH0 DUP2 SWAP1 POP SWAP2 SWAP1 POP JUMP JUMPDEST PUSH2 0x433 DUP2 PUSH2 0x421 JUMP JUMPDEST DUP2 EQ PUSH2 0x43D JUMPI PUSH0 PUSH0 REVERT JUMPDEST POP JUMP JUMPDEST PUSH0 DUP2 CALLDATALOAD SWAP1 POP PUSH2 0x44E DUP2 PUSH2 0x42A JUMP JUMPDEST SWAP3 SWAP2 POP POP JUMP JUMPDEST PUSH0 PUSH1 0x20 DUP3 DUP5 SUB SLT ISZERO PUSH2 0x469 JUMPI PUSH2 0x468 PUSH2 0x41D JUMP JUMPDEST JUMPDEST PUSH0 PUSH2 0x476 DUP5 DUP3 DUP6 ADD PUSH2 0x440 JUMP JUMPDEST SWAP2 POP POP SWAP3 SWAP2 POP POP JUMP JUMPDEST PUSH2 0x488 DUP2 PUSH2 0x421 JUMP JUMPDEST DUP3 MSTORE POP POP JUMP JUMPDEST PUSH0 PUSH1 0x20 DUP3 ADD SWAP1 POP PUSH2 0x4A1 PUSH0 DUP4 ADD DUP5 PUSH2 0x47F JUMP JUMPDEST SWAP3 SWAP2 POP POP JUMP JUMPDEST PUSH0 DUP2 MLOAD SWAP1 POP SWAP2 SWAP1 POP JUMP JUMPDEST PUSH0 DUP3 DUP3 MSTORE PUSH1 0x20 DUP3 ADD SWAP1 POP SWAP3 SWAP2 POP POP JUMP JUMPDEST PUSH0 DUP2 SWAP1 POP PUSH1 0x20 DUP3 ADD SWAP1 POP SWAP2 SWAP1 POP JUMP JUMPDEST PUSH2 0x4D9 DUP2 PUSH2 0x421 JUMP JUMPDEST DUP3 MSTORE POP POP JUMP JUMPDEST PUSH0 PUSH2 0x4EA DUP4 DUP4 PUSH2 0x4D0 JUMP JUMPDEST PUSH1 0x20 DUP4 ADD SWAP1 POP SWAP3 SWAP2 POP POP JUMP JUMPDEST PUSH0 PUSH1 0x20 DUP3 ADD SWAP1 POP SWAP2 SWAP1 POP JUMP JUMPDEST PUSH0 PUSH2 0x50C DUP3 PUSH2 0x4A7 JUMP JUMPDEST PUSH2 0x516 DUP2 DUP6 PUSH2 0x4B1 JUMP JUMPDEST SWAP4 POP PUSH2 0x521 DUP4 PUSH2 0x4C1 JUMP JUMPDEST DUP1 PUSH0 JUMPDEST DUP4 DUP2 LT ISZERO PUSH2 0x551 JUMPI DUP2 MLOAD PUSH2 0x538 DUP9 DUP3 PUSH2 0x4DF JUMP JUMPDEST SWAP8 POP PUSH2 0x543 DUP4 PUSH2 0x4F6 JUMP JUMPDEST SWAP3 POP POP PUSH1 0x1 DUP2 ADD SWAP1 POP PUSH2 0x524 JUMP JUMPDEST POP DUP6 SWAP4 POP POP POP POP SWAP3 SWAP2 POP POP JUMP JUMPDEST PUSH0 PUSH1 0x20 DUP3 ADD SWAP1 POP DUP2 DUP2 SUB PUSH0 DUP4 ADD MSTORE PUSH2 0x576 DUP2 DUP5 PUSH2 0x502 JUMP JUMPDEST SWAP1 POP SWAP3 SWAP2 POP POP JUMP JUMPDEST PUSH0 DUP3 DUP3 MSTORE PUSH1 0x20 DUP3 ADD SWAP1 POP SWAP3 SWAP2 POP POP JUMP JUMPDEST PUSH32 0x496E646578206F7574206F6620626F756E647300000000000000000000000000 PUSH0 DUP3 ADD MSTORE POP JUMP JUMPDEST PUSH0 PUSH2 0x5C2 PUSH1 0x13 DUP4 PUSH2 0x57E JUMP JUMPDEST SWAP2 POP PUSH2 0x5CD DUP3 PUSH2 0x58E JUMP JUMPDEST PUSH1 0x20 DUP3 ADD SWAP1 POP SWAP2 SWAP1 POP JUMP JUMPDEST PUSH0 PUSH1 0x20 DUP3 ADD SWAP1 POP DUP2 DUP2 SUB PUSH0 DUP4 ADD MSTORE PUSH2 0x5EF DUP2 PUSH2 0x5B6 JUMP JUMPDEST SWAP1 POP SWAP2 SWAP1 POP JUMP JUMPDEST PUSH32 0x4E487B7100000000000000000000000000000000000000000000000000000000 PUSH0 MSTORE PUSH1 0x11 PUSH1 0x4 MSTORE PUSH1 0x24 PUSH0 REVERT JUMPDEST PUSH0 PUSH2 0x62D DUP3 PUSH2 0x421 JUMP JUMPDEST SWAP2 POP PUSH2 0x638 DUP4 PUSH2 0x421 JUMP JUMPDEST SWAP3 POP DUP3 DUP3 SUB SWAP1 POP DUP2 DUP2 GT ISZERO PUSH2 0x650 JUMPI PUSH2 0x64F PUSH2 0x5F6 JUMP JUMPDEST JUMPDEST SWAP3 SWAP2 POP POP JUMP JUMPDEST PUSH0 PUSH2 0x660 DUP3 PUSH2 0x421 JUMP JUMPDEST SWAP2 POP PUSH2 0x66B DUP4 PUSH2 0x421 JUMP JUMPDEST SWAP3 POP DUP3 DUP3 ADD SWAP1 POP DUP1 DUP3 GT ISZERO PUSH2 0x683 JUMPI PUSH2 0x682 PUSH2 0x5F6 JUMP JUMPDEST JUMPDEST SWAP3 SWAP2 POP POP JUMP JUMPDEST PUSH32 0x4E487B7100000000000000000000000000000000000000000000000000000000 PUSH0 MSTORE PUSH1 0x32 PUSH1 0x4 MSTORE PUSH1 0x24 PUSH0 REVERT JUMPDEST PUSH32 0x4E487B7100000000000000000000000000000000000000000000000000000000 PUSH0 MSTORE PUSH1 0x31 PUSH1 0x4 MSTORE PUSH1 0x24 PUSH0 REVERT JUMPDEST PUSH32 0x4E487B7100000000000000000000000000000000000000000000000000000000 PUSH0 MSTORE PUSH1 0x41 PUSH1 0x4 MSTORE PUSH1 0x24 PUSH0 REVERT JUMPDEST PUSH32 0x4E487B7100000000000000000000000000000000000000000000000000000000 PUSH0 MSTORE PUSH1 0x51 PUSH1 0x4 MSTORE PUSH1 0x24 PUSH0 REVERT INVALID LOG2 PUSH5 0x6970667358 0x22 SLT KECCAK256 RJUMPI 0xE324 PUSH1 0x91 PUSH16 0xCCB4482CBCF1D124F657D0946920025E DUP13 REVERT 0x4D 0xDE 0xC9 ADDRESS 0xCB PUSH12 0xF1B564736F6C634300081F00 CALLER "
		},
		"gasEstimates": {
			"creation": {
				"codeDepositCost": "381400",
				"executionCost": "infinite",
				"totalCost": "infinite"
			},
			"external": {
				"arr(uint256)": "infinite",
				"getArray()": "infinite",
				"removeByShifting(uint256)": "infinite",
				"test()": "infinite"
			}
		},
		"methodIdentifiers": {
			"arr(uint256)": "71e5ee5f",
			"getArray()": "d504ea1d",
			"removeByShifting(uint256)": "21efc6e5",
			"test()": "f8a8fd6d"
		}
	},
	"abi": [
		{
			"inputs": [
				{
					"internalType": "uint256",
					"name": "",
					"type": "uint256"
				}
			],
			"name": "arr",
			"outputs": [
				{
					"internalType": "uint256",
					"name": "",
					"type": "uint256"
				}
			],
			"stateMutability": "view",
			"type": "function"
		},
		{
			"inputs": [],
			"name": "getArray",
			"outputs": [
				{
					"internalType": "uint256[]",
					"name": "",
					"type": "uint256[]"
				}
			],
			"stateMutability": "view",
			"type": "function"
		},
		{
			"inputs": [
				{
					"internalType": "uint256",
					"name": "_index",
					"type": "uint256"
				}
			],
			"name": "removeByShifting",
			"outputs": [],
			"stateMutability": "nonpayable",
			"type": "function"
		},
		{
			"inputs": [],
			"name": "test",
			"outputs": [],
			"stateMutability": "pure",
			"type": "function"
		}
	]
}