{
	"data": {
		"bytecode": {
			"linkReferences": {},
			"object": "6080604052348015600e575f5ffd5b5060b280601a5f395ff3fe6080604052348015600e575f5ffd5b50600436106026575f3560e01c8063fa0de16814602a575b5f5ffd5b60306044565b604051603b91906065565b60405180910390f35b5f6064603291505090565b5f819050919050565b605f81604f565b82525050565b5f60208201905060765f8301846058565b9291505056fea26469706673582212208d66f0349afc0985772abf862cc3d02f3c73d44d119894fd68379e98cb93a29864736f6c634300081f0033",
			"opcodes": "PUSH1 0x80 PUSH1 0x40 MSTORE CALLVALUE DUP1 ISZERO PUSH1 0xE JUMPI PUSH0 PUSH0 REVERT JUMPDEST POP PUSH1 0xB2 DUP1 PUSH1 0x1A PUSH0 CODECOPY PUSH0 RETURN INVALID PUSH1 0x80 PUSH1 0x40 MSTORE CALLVALUE DUP1 ISZERO PUSH1 0xE JUMPI PUSH0 PUSH0 REVERT JUMPDEST POP PUSH1 0x4 CALLDATASIZE LT PUSH1 0x26 JUMPI PUSH0 CALLDATALOAD PUSH1 0xE0 SHR DUP1 PUSH4 0xFA0DE168 EQ PUSH1 0x2A JUMPI JUMPDEST PUSH0 PUSH0 REVERT JUMPDEST PUSH1 0x30 PUSH1 0x44 JUMP JUMPDEST PUSH1 0x40 MLOAD PUSH1 0x3B SWAP2 SWAP1 PUSH1 0x65 JUMP JUMPDEST PUSH1 0x40 MLOAD DUP1 SWAP2 SUB SWAP1 RETURN JUMPDEST PUSH0 PUSH1 0x64 PUSH1 0x32 SWAP2 POP POP SWAP1 JUMP JUMPDEST PUSH0 DUP2 SWAP1 POP SWAP2 SWAP1 POP JUMP JUMPDEST PUSH1 0x5F DUP2 PUSH1 0x4F JUMP JUMPDEST DUP3 MSTORE POP POP JUMP JUMPDEST PUSH0 PUSH1 0x20 DUP3 ADD SWAP1 POP PUSH1 0x76 PUSH0 DUP4 ADD DUP5 PUSH1 0x58 JUMP JUMPDEST SWAP3 SWAP2 POP POP JUMP INVALID LOG2 PUSH5 0x6970667358 0x22 SLT KECCAK256 DUP14 PUSH7 0xF0349AFC098577 0x2A 0xBF DUP7 0x2C 0xC3 0xD0 0x2F EXTCODECOPY PUSH20 0xD44D119894FD68379E98CB93A29864736F6C6343 STOP ADDMOD 0x1F STOP CALLER "
		},
		"gasEstimates": {
			"creation": {
				"codeDepositCost": "35600",
				"executionCost": "85",
				"totalCost": "35685"
			},
			"external": {
				"yul_let()": "315"
			}
		},
		"methodIdentifiers": {
			"yul_let()": "fa0de168"
		}
	},
	"abi": [
		{
			"inputs": [],
			"name": "yul_let",
			"outputs": [
				{
					"internalType": "uint256",
					"name": "z",
					"type": "uint256"
				}
			],
			"stateMutability": "pure",
			"type": "function"
		}
	]
}