{
	"data": {
		"bytecode": {
			"linkReferences": {},
			"object": "6080604052348015600e575f5ffd5b5061054a8061001c5f395ff3fe608060405234801561000f575f5ffd5b5060043610610034575f3560e01c80638c5c525514610038578063a25206d414610068575b5f5ffd5b610052600480360381019061004d919061029d565b610098565b60405161005f9190610358565b60405180910390f35b610082600480360381019061007d91906104a0565b6100fd565b60405161008f9190610358565b60405180910390f35b60606100b160405180602001604052805f815250610144565b82828080601f0160208091040260200160405190810160405280939291908181526020018383808284375f81840152601f19601f82011690508083019250505050505050905092915050565b60606040518060400160405280600781526020017f6578616d706c650000000000000000000000000000000000000000000000000081525091505f82905080915050919050565b6101da816040516024016101589190610358565b6040516020818303038152906040527f41304fac000000000000000000000000000000000000000000000000000000007bffffffffffffffffffffffffffffffffffffffffffffffffffffffff19166020820180517bffffffffffffffffffffffffffffffffffffffffffffffffffffffff83818316178352505050506101dd565b50565b6101f4816101ec6101f7610216565b63ffffffff16565b50565b5f6a636f6e736f6c652e6c6f6790505f5f835160208501845afa505050565b610221819050919050565b6102296104e7565b565b5f604051905090565b5f5ffd5b5f5ffd5b5f5ffd5b5f5ffd5b5f5ffd5b5f5f83601f84011261025d5761025c61023c565b5b8235905067ffffffffffffffff81111561027a57610279610240565b5b60208301915083600182028301111561029657610295610244565b5b9250929050565b5f5f602083850312156102b3576102b2610234565b5b5f83013567ffffffffffffffff8111156102d0576102cf610238565b5b6102dc85828601610248565b92509250509250929050565b5f81519050919050565b5f82825260208201905092915050565b8281835e5f83830152505050565b5f601f19601f8301169050919050565b5f61032a826102e8565b61033481856102f2565b9350610344818560208601610302565b61034d81610310565b840191505092915050565b5f6020820190508181035f8301526103708184610320565b905092915050565b5f5ffd5b7f4e487b71000000000000000000000000000000000000000000000000000000005f52604160045260245ffd5b6103b282610310565b810181811067ffffffffffffffff821117156103d1576103d061037c565b5b80604052505050565b5f6103e361022b565b90506103ef82826103a9565b919050565b5f67ffffffffffffffff82111561040e5761040d61037c565b5b61041782610310565b9050602081019050919050565b828183375f83830152505050565b5f61044461043f846103f4565b6103da565b9050828152602081018484840111156104605761045f610378565b5b61046b848285610424565b509392505050565b5f82601f8301126104875761048661023c565b5b8135610497848260208601610432565b91505092915050565b5f602082840312156104b5576104b4610234565b5b5f82013567ffffffffffffffff8111156104d2576104d1610238565b5b6104de84828501610473565b91505092915050565b7f4e487b71000000000000000000000000000000000000000000000000000000005f52605160045260245ffdfea26469706673582212200d97749390a8268eb77c9c7ddd7502271f58d929369290d720263f7943bb59cc64736f6c634300081f0033",
			"opcodes": "PUSH1 0x80 PUSH1 0x40 MSTORE CALLVALUE DUP1 ISZERO PUSH1 0xE JUMPI PUSH0 PUSH0 REVERT JUMPDEST POP PUSH2 0x54A DUP1 PUSH2 0x1C PUSH0 CODECOPY PUSH0 RETURN INVALID PUSH1 0x80 PUSH1 0x40 MSTORE CALLVALUE DUP1 ISZERO PUSH2 0xF JUMPI PUSH0 PUSH0 REVERT JUMPDEST POP PUSH1 0x4 CALLDATASIZE LT PUSH2 0x34 JUMPI PUSH0 CALLDATALOAD PUSH1 0xE0 SHR DUP1 PUSH4 0x8C5C5255 EQ PUSH2 0x38 JUMPI DUP1 PUSH4 0xA25206D4 EQ PUSH2 0x68 JUMPI JUMPDEST PUSH0 PUSH0 REVERT JUMPDEST PUSH2 0x52 PUSH1 0x4 DUP1 CALLDATASIZE SUB DUP2 ADD SWAP1 PUSH2 0x4D SWAP2 SWAP1 PUSH2 0x29D JUMP JUMPDEST PUSH2 0x98 JUMP JUMPDEST PUSH1 0x40 MLOAD PUSH2 0x5F SWAP2 SWAP1 PUSH2 0x358 JUMP JUMPDEST PUSH1 0x40 MLOAD DUP1 SWAP2 SUB SWAP1 RETURN JUMPDEST PUSH2 0x82 PUSH1 0x4 DUP1 CALLDATASIZE SUB DUP2 ADD SWAP1 PUSH2 0x7D SWAP2 SWAP1 PUSH2 0x4A0 JUMP JUMPDEST PUSH2 0xFD JUMP JUMPDEST PUSH1 0x40 MLOAD PUSH2 0x8F SWAP2 SWAP1 PUSH2 0x358 JUMP JUMPDEST PUSH1 0x40 MLOAD DUP1 SWAP2 SUB SWAP1 RETURN JUMPDEST PUSH1 0x60 PUSH2 0xB1 PUSH1 0x40 MLOAD DUP1 PUSH1 0x20 ADD PUSH1 0x40 MSTORE DUP1 PUSH0 DUP2 MSTORE POP PUSH2 0x144 JUMP JUMPDEST DUP3 DUP3 DUP1 DUP1 PUSH1 0x1F ADD PUSH1 0x20 DUP1 SWAP2 DIV MUL PUSH1 0x20 ADD PUSH1 0x40 MLOAD SWAP1 DUP2 ADD PUSH1 0x40 MSTORE DUP1 SWAP4 SWAP3 SWAP2 SWAP1 DUP2 DUP2 MSTORE PUSH1 0x20 ADD DUP4 DUP4 DUP1 DUP3 DUP5 CALLDATACOPY PUSH0 DUP2 DUP5 ADD MSTORE PUSH1 0x1F NOT PUSH1 0x1F DUP3 ADD AND SWAP1 POP DUP1 DUP4 ADD SWAP3 POP POP POP POP POP POP POP SWAP1 POP SWAP3 SWAP2 POP POP JUMP JUMPDEST PUSH1 0x60 PUSH1 0x40 MLOAD DUP1 PUSH1 0x40 ADD PUSH1 0x40 MSTORE DUP1 PUSH1 0x7 DUP2 MSTORE PUSH1 0x20 ADD PUSH32 0x6578616D706C6500000000000000000000000000000000000000000000000000 DUP2 MSTORE POP SWAP2 POP PUSH0 DUP3 SWAP1 POP DUP1 SWAP2 POP POP SWAP2 SWAP1 POP JUMP JUMPDEST PUSH2 0x1DA DUP2 PUSH1 0x40 MLOAD PUSH1 0x24 ADD PUSH2 0x158 SWAP2 SWAP1 PUSH2 0x358 JUMP JUMPDEST PUSH1 0x40 MLOAD PUSH1 0x20 DUP2 DUP4 SUB SUB DUP2 MSTORE SWAP1 PUSH1 0x40 MSTORE PUSH32 0x41304FAC00000000000000000000000000000000000000000000000000000000 PUSH28 0xFFFFFFFFFFFFFFFFFFFFFFFFFFFFFFFFFFFFFFFFFFFFFFFFFFFFFFFF NOT AND PUSH1 0x20 DUP3 ADD DUP1 MLOAD PUSH28 0xFFFFFFFFFFFFFFFFFFFFFFFFFFFFFFFFFFFFFFFFFFFFFFFFFFFFFFFF DUP4 DUP2 DUP4 AND OR DUP4 MSTORE POP POP POP POP PUSH2 0x1DD JUMP JUMPDEST POP JUMP JUMPDEST PUSH2 0x1F4 DUP2 PUSH2 0x1EC PUSH2 0x1F7 PUSH2 0x216 JUMP JUMPDEST PUSH4 0xFFFFFFFF AND JUMP JUMPDEST POP JUMP JUMPDEST PUSH0 PUSH11 0x636F6E736F6C652E6C6F67 SWAP1 POP PUSH0 PUSH0 DUP4 MLOAD PUSH1 0x20 DUP6 ADD DUP5 GAS STATICCALL POP POP POP JUMP JUMPDEST PUSH2 0x221 DUP2 SWAP1 POP SWAP2 SWAP1 POP JUMP JUMPDEST PUSH2 0x229 PUSH2 0x4E7 JUMP JUMPDEST JUMP JUMPDEST PUSH0 PUSH1 0x40 MLOAD SWAP1 POP SWAP1 JUMP JUMPDEST PUSH0 PUSH0 REVERT JUMPDEST PUSH0 PUSH0 REVERT JUMPDEST PUSH0 PUSH0 REVERT JUMPDEST PUSH0 PUSH0 REVERT JUMPDEST PUSH0 PUSH0 REVERT JUMPDEST PUSH0 PUSH0 DUP4 PUSH1 0x1F DUP5 ADD SLT PUSH2 0x25D JUMPI PUSH2 0x25C PUSH2 0x23C JUMP JUMPDEST JUMPDEST DUP3 CALLDATALOAD SWAP1 POP PUSH8 0xFFFFFFFFFFFFFFFF DUP2 GT ISZERO PUSH2 0x27A JUMPI PUSH2 0x279 PUSH2 0x240 JUMP JUMPDEST JUMPDEST PUSH1 0x20 DUP4 ADD SWAP2 POP DUP4 PUSH1 0x1 DUP3 MUL DUP4 ADD GT ISZERO PUSH2 0x296 JUMPI PUSH2 0x295 PUSH2 0x244 JUMP JUMPDEST JUMPDEST SWAP3 POP SWAP3 SWAP1 POP JUMP JUMPDEST PUSH0 PUSH0 PUSH1 0x20 DUP4 DUP6 SUB SLT ISZERO PUSH2 0x2B3 JUMPI PUSH2 0x2B2 PUSH2 0x234 JUMP JUMPDEST JUMPDEST PUSH0 DUP4 ADD CALLDATALOAD PUSH8 0xFFFFFFFFFFFFFFFF DUP2 GT ISZERO PUSH2 0x2D0 JUMPI PUSH2 0x2CF PUSH2 0x238 JUMP JUMPDEST JUMPDEST PUSH2 0x2DC DUP6 DUP3 DUP7 ADD PUSH2 0x248 JUMP JUMPDEST SWAP3 POP SWAP3 POP POP SWAP3 POP SWAP3 SWAP1 POP JUMP JUMPDEST PUSH0 DUP2 MLOAD SWAP1 POP SWAP2 SWAP1 POP JUMP JUMPDEST PUSH0 DUP3 DUP3 MSTORE PUSH1 0x20 DUP3 ADD SWAP1 POP SWAP3 SWAP2 POP POP JUMP JUMPDEST DUP3 DUP2 DUP4 MCOPY PUSH0 DUP4 DUP4 ADD MSTORE POP POP POP JUMP JUMPDEST PUSH0 PUSH1 0x1F NOT PUSH1 0x1F DUP4 ADD AND SWAP1 POP SWAP2 SWAP1 POP JUMP JUMPDEST PUSH0 PUSH2 0x32A DUP3 PUSH2 0x2E8 JUMP JUMPDEST PUSH2 0x334 DUP2 DUP6 PUSH2 0x2F2 JUMP JUMPDEST SWAP4 POP PUSH2 0x344 DUP2 DUP6 PUSH1 0x20 DUP7 ADD PUSH2 0x302 JUMP JUMPDEST PUSH2 0x34D DUP2 PUSH2 0x310 JUMP JUMPDEST DUP5 ADD SWAP2 POP POP SWAP3 SWAP2 POP POP JUMP JUMPDEST PUSH0 PUSH1 0x20 DUP3 ADD SWAP1 POP DUP2 DUP2 SUB PUSH0 DUP4 ADD MSTORE PUSH2 0x370 DUP2 DUP5 PUSH2 0x320 JUMP JUMPDEST SWAP1 POP SWAP3 SWAP2 POP POP JUMP JUMPDEST PUSH0 PUSH0 REVERT JUMPDEST PUSH32 0x4E487B7100000000000000000000000000000000000000000000000000000000 PUSH0 MSTORE PUSH1 0x41 PUSH1 0x4 MSTORE PUSH1 0x24 PUSH0 REVERT JUMPDEST PUSH2 0x3B2 DUP3 PUSH2 0x310 JUMP JUMPDEST DUP2 ADD DUP2 DUP2 LT PUSH8 0xFFFFFFFFFFFFFFFF DUP3 GT OR ISZERO PUSH2 0x3D1 JUMPI PUSH2 0x3D0 PUSH2 0x37C JUMP JUMPDEST JUMPDEST DUP1 PUSH1 0x40 MSTORE POP POP POP JUMP JUMPDEST PUSH0 PUSH2 0x3E3 PUSH2 0x22B JUMP JUMPDEST SWAP1 POP PUSH2 0x3EF DUP3 DUP3 PUSH2 0x3A9 JUMP JUMPDEST SWAP2 SWAP1 POP JUMP JUMPDEST PUSH0 PUSH8 0xFFFFFFFFFFFFFFFF DUP3 GT ISZERO PUSH2 0x40E JUMPI PUSH2 0x40D PUSH2 0x37C JUMP JUMPDEST JUMPDEST PUSH2 0x417 DUP3 PUSH2 0x310 JUMP JUMPDEST SWAP1 POP PUSH1 0x20 DUP2 ADD SWAP1 POP SWAP2 SWAP1 POP JUMP JUMPDEST DUP3 DUP2 DUP4 CALLDATACOPY PUSH0 DUP4 DUP4 ADD MSTORE POP POP POP JUMP JUMPDEST PUSH0 PUSH2 0x444 PUSH2 0x43F DUP5 PUSH2 0x3F4 JUMP JUMPDEST PUSH2 0x3DA JUMP JUMPDEST SWAP1 POP DUP3 DUP2 MSTORE PUSH1 0x20 DUP2 ADD DUP5 DUP5 DUP5 ADD GT ISZERO PUSH2 0x460 JUMPI PUSH2 0x45F PUSH2 0x378 JUMP JUMPDEST JUMPDEST PUSH2 0x46B DUP5 DUP3 DUP6 PUSH2 0x424 JUMP JUMPDEST POP SWAP4 SWAP3 POP POP POP JUMP JUMPDEST PUSH0 DUP3 PUSH1 0x1F DUP4 ADD SLT PUSH2 0x487 JUMPI PUSH2 0x486 PUSH2 0x23C JUMP JUMPDEST JUMPDEST DUP2 CALLDATALOAD PUSH2 0x497 DUP5 DUP3 PUSH1 0x20 DUP7 ADD PUSH2 0x432 JUMP JUMPDEST SWAP2 POP POP SWAP3 SWAP2 POP POP JUMP JUMPDEST PUSH0 PUSH1 0x20 DUP3 DUP5 SUB SLT ISZERO PUSH2 0x4B5 JUMPI PUSH2 0x4B4 PUSH2 0x234 JUMP JUMPDEST JUMPDEST PUSH0 DUP3 ADD CALLDATALOAD PUSH8 0xFFFFFFFFFFFFFFFF DUP2 GT ISZERO PUSH2 0x4D2 JUMPI PUSH2 0x4D1 PUSH2 0x238 JUMP JUMPDEST JUMPDEST PUSH2 0x4DE DUP5 DUP3 DUP6 ADD PUSH2 0x473 JUMP JUMPDEST SWAP2 POP POP SWAP3 SWAP2 POP POP JUMP JUMPDEST PUSH32 0x4E487B7100000000000000000000000000000000000000000000000000000000 PUSH0 MSTORE PUSH1 0x51 PUSH1 0x4 MSTORE PUSH1 0x24 PUSH0 REVERT INVALID LOG2 PUSH5 0x6970667358 0x22 SLT KECCAK256 0xD SWAP8 PUSH21 0x9390A8268EB77C9C7DDD7502271F58D929369290D7 KECCAK256 0x26 EXTCODEHASH PUSH26 0x43BB59CC64736F6C634300081F00330000000000000000000000 "
		},
		"gasEstimates": {
			"creation": {
				"codeDepositCost": "270800",
				"executionCost": "310",
				"totalCost": "271110"
			},
			"external": {
				"calldataTest(string)": "infinite",
				"memoryTest(string)": "infinite"
			}
		},
		"methodIdentifiers": {
			"calldataTest(string)": "8c5c5255",
			"memoryTest(string)": "a25206d4"
		}
	},
	"abi": [
		{
			"inputs": [
				{
					"internalType": "string",
					"name": "_exampleString",
					"type": "string"
				}
			],
			"name": "calldataTest",
			"outputs": [
				{
					"internalType": "string",
					"name": "",
					"type": "string"
				}
			],
			"stateMutability": "pure",
			"type": "function"
		},
		{
			"inputs": [
				{
					"internalType": "string",
					"name": "_exampleString",
					"type": "string"
				}
			],
			"name": "memoryTest",
			"outputs": [
				{
					"internalType": "string",
					"name": "",
					"type": "string"
				}
			],
			"stateMutability": "pure",
			"type": "function"
		}
	]
}