{
	"data": {
		"bytecode": {
			"linkReferences": {},
			"object": "6080604052348015600e575f5ffd5b506101c18061001c5f395ff3fe608060405234801561000f575f5ffd5b506004361061003f575f3560e01c8063371303c014610043578063a87d942c1461004d578063b3bcfa821461006b575b5f5ffd5b61004b610075565b005b61005561008a565b60405161006291906100c4565b60405180910390f35b610073610092565b005b60015f54610083919061010a565b5f81905550565b5f5f54905090565b60015f5f8282546100a3919061014b565b92505081905550565b5f819050919050565b6100be816100ac565b82525050565b5f6020820190506100d75f8301846100b5565b92915050565b7f4e487b71000000000000000000000000000000000000000000000000000000005f52601160045260245ffd5b5f610114826100ac565b915061011f836100ac565b92508282019050828112155f8312168382125f841215161715610145576101446100dd565b5b92915050565b5f610155826100ac565b9150610160836100ac565b925082820390508181125f8412168282135f851215161715610185576101846100dd565b5b9291505056fea2646970667358221220cf72c633296614214e5da7808d637b9310b1169d0d314674a5614f6403270abb64736f6c634300081f0033",
			"opcodes": "PUSH1 0x80 PUSH1 0x40 MSTORE CALLVALUE DUP1 ISZERO PUSH1 0xE JUMPI PUSH0 PUSH0 REVERT JUMPDEST POP PUSH2 0x1C1 DUP1 PUSH2 0x1C PUSH0 CODECOPY PUSH0 RETURN INVALID PUSH1 0x80 PUSH1 0x40 MSTORE CALLVALUE DUP1 ISZERO PUSH2 0xF JUMPI PUSH0 PUSH0 REVERT JUMPDEST POP PUSH1 0x4 CALLDATASIZE LT PUSH2 0x3F JUMPI PUSH0 CALLDATALOAD PUSH1 0xE0 SHR DUP1 PUSH4 0x371303C0 EQ PUSH2 0x43 JUMPI DUP1 PUSH4 0xA87D942C EQ PUSH2 0x4D JUMPI DUP1 PUSH4 0xB3BCFA82 EQ PUSH2 0x6B JUMPI JUMPDEST PUSH0 PUSH0 REVERT JUMPDEST PUSH2 0x4B PUSH2 0x75 JUMP JUMPDEST STOP JUMPDEST PUSH2 0x55 PUSH2 0x8A JUMP JUMPDEST PUSH1 0x40 MLOAD PUSH2 0x62 SWAP2 SWAP1 PUSH2 0xC4 JUMP JUMPDEST PUSH1 0x40 MLOAD DUP1 SWAP2 SUB SWAP1 RETURN JUMPDEST PUSH2 0x73 PUSH2 0x92 JUMP JUMPDEST STOP JUMPDEST PUSH1 0x1 PUSH0 SLOAD PUSH2 0x83 SWAP2 SWAP1 PUSH2 0x10A JUMP JUMPDEST PUSH0 DUP2 SWAP1 SSTORE POP JUMP JUMPDEST PUSH0 PUSH0 SLOAD SWAP1 POP SWAP1 JUMP JUMPDEST PUSH1 0x1 PUSH0 PUSH0 DUP3 DUP3 SLOAD PUSH2 0xA3 SWAP2 SWAP1 PUSH2 0x14B JUMP JUMPDEST SWAP3 POP POP DUP2 SWAP1 SSTORE POP JUMP JUMPDEST PUSH0 DUP2 SWAP1 POP SWAP2 SWAP1 POP JUMP JUMPDEST PUSH2 0xBE DUP2 PUSH2 0xAC JUMP JUMPDEST DUP3 MSTORE POP POP JUMP JUMPDEST PUSH0 PUSH1 0x20 DUP3 ADD SWAP1 POP PUSH2 0xD7 PUSH0 DUP4 ADD DUP5 PUSH2 0xB5 JUMP JUMPDEST SWAP3 SWAP2 POP POP JUMP JUMPDEST PUSH32 0x4E487B7100000000000000000000000000000000000000000000000000000000 PUSH0 MSTORE PUSH1 0x11 PUSH1 0x4 MSTORE PUSH1 0x24 PUSH0 REVERT JUMPDEST PUSH0 PUSH2 0x114 DUP3 PUSH2 0xAC JUMP JUMPDEST SWAP2 POP PUSH2 0x11F DUP4 PUSH2 0xAC JUMP JUMPDEST SWAP3 POP DUP3 DUP3 ADD SWAP1 POP DUP3 DUP2 SLT ISZERO PUSH0 DUP4 SLT AND DUP4 DUP3 SLT PUSH0 DUP5 SLT ISZERO AND OR ISZERO PUSH2 0x145 JUMPI PUSH2 0x144 PUSH2 0xDD JUMP JUMPDEST JUMPDEST SWAP3 SWAP2 POP POP JUMP JUMPDEST PUSH0 PUSH2 0x155 DUP3 PUSH2 0xAC JUMP JUMPDEST SWAP2 POP PUSH2 0x160 DUP4 PUSH2 0xAC JUMP JUMPDEST SWAP3 POP DUP3 DUP3 SUB SWAP1 POP DUP2 DUP2 SLT PUSH0 DUP5 SLT AND DUP3 DUP3 SGT PUSH0 DUP6 SLT ISZERO AND OR ISZERO PUSH2 0x185 JUMPI PUSH2 0x184 PUSH2 0xDD JUMP JUMPDEST JUMPDEST SWAP3 SWAP2 POP POP JUMP INVALID LOG2 PUSH5 0x6970667358 0x22 SLT KECCAK256 0xCF PUSH19 0xC633296614214E5DA7808D637B9310B1169D0D BALANCE CHAINID PUSH21 0xA5614F6403270ABB64736F6C634300081F00330000 "
		},
		"gasEstimates": {
			"creation": {
				"codeDepositCost": "89800",
				"executionCost": "139",
				"totalCost": "89939"
			},
			"external": {
				"dec()": "infinite",
				"getCount()": "2431",
				"inc()": "infinite"
			}
		},
		"methodIdentifiers": {
			"dec()": "b3bcfa82",
			"getCount()": "a87d942c",
			"inc()": "371303c0"
		}
	},
	"abi": [
		{
			"inputs": [],
			"name": "dec",
			"outputs": [],
			"stateMutability": "nonpayable",
			"type": "function"
		},
		{
			"inputs": [],
			"name": "getCount",
			"outputs": [
				{
					"internalType": "int256",
					"name": "",
					"type": "int256"
				}
			],
			"stateMutability": "view",
			"type": "function"
		},
		{
			"inputs": [],
			"name": "inc",
			"outputs": [],
			"stateMutability": "nonpayable",
			"type": "function"
		}
	]
}