{
	"data": {
		"bytecode": {
			"linkReferences": {},
			"object": "60a060405260646002556001600355348015610019575f5ffd5b50604051612c92380380612c92833981810160405281019061003b91906102de565b61004c33600161019160201b60201c565b5f73ffffffffffffffffffffffffffffffffffffffff168273ffffffffffffffffffffffffffffffffffffffff16036100b1576040517fd92e233d00000000000000000000000000000000000000000000000000000000815260040160405180910390fd5b5f73ffffffffffffffffffffffffffffffffffffffff168173ffffffffffffffffffffffffffffffffffffffff1603610116576040517fd92e233d00000000000000000000000000000000000000000000000000000000815260040160405180910390fd5b8173ffffffffffffffffffffffffffffffffffffffff1660808173ffffffffffffffffffffffffffffffffffffffff16815250508060015f6101000a81548173ffffffffffffffffffffffffffffffffffffffff021916908373ffffffffffffffffffffffffffffffffffffffff160217905550505061031c565b60015f5f8473ffffffffffffffffffffffffffffffffffffffff1673ffffffffffffffffffffffffffffffffffffffff1681526020019081526020015f205f8360ff1660ff1681526020019081526020015f205f6101000a81548160ff0219169083151502179055508060ff168273ffffffffffffffffffffffffffffffffffffffff167faa259565575c834bc07e74dca784b4071676133ac78513b431afb6ee7edae12160405160405180910390a35050565b5f5ffd5b5f73ffffffffffffffffffffffffffffffffffffffff82169050919050565b5f61027282610249565b9050919050565b61028281610268565b811461028c575f5ffd5b50565b5f8151905061029d81610279565b92915050565b5f6102ad82610249565b9050919050565b6102bd816102a3565b81146102c7575f5ffd5b50565b5f815190506102d8816102b4565b92915050565b5f5f604083850312156102f4576102f3610245565b5b5f6103018582860161028f565b9250506020610312858286016102ca565b9150509250929050565b6080516129506103425f395f8181610b8601528181610e7d015261169e01526129505ff3fe608060405260043610610134575f3560e01c80636cc6cde1116100aa578063b9c4d0a71161006e578063b9c4d0a7146103ea578063bca93eba14610406578063c56e610e14610430578063d09ef2411461045a578063d55be8c614610496578063eed90d6b146104c057610134565b80636cc6cde11461030a5780639012c4a81461033457806395a8c58d1461035c578063b0eefabe14610398578063b2170409146103c057610134565b806334b25ee2116100fc57806334b25ee214610204578063392927631461022c5780633e8402361461025457806341e8a42a1461027c5780634d471e85146102a457806361d027b3146102e057610134565b8063077d3c031461013857806324a9d8531461016057806327d00fb01461018a57806327dac36d146101b25780632a0acc6a146101da575b5f5ffd5b348015610143575f5ffd5b5061015e60048036038101906101599190612270565b6104e8565b005b34801561016b575f5ffd5b50610174610697565b60405161018191906122c6565b60405180910390f35b348015610195575f5ffd5b506101b060048036038101906101ab9190612309565b61069d565b005b3480156101bd575f5ffd5b506101d860048036038101906101d39190612309565b610951565b005b3480156101e5575f5ffd5b506101ee610bca565b6040516101fb9190612343565b60405180910390f35b34801561020f575f5ffd5b5061022a60048036038101906102259190612391565b610bcf565b005b348015610237575f5ffd5b50610252600480360381019061024d9190612309565b610f36565b005b34801561025f575f5ffd5b5061027a60048036038101906102759190612270565b61117b565b005b348015610287575f5ffd5b506102a2600480360381019061029d9190612309565b611285565b005b3480156102af575f5ffd5b506102ca60048036038101906102c59190612402565b61140b565b6040516102d791906122c6565b60405180910390f35b3480156102eb575f5ffd5b506102f461169c565b604051610301919061249b565b60405180910390f35b348015610315575f5ffd5b5061031e6116c0565b60405161032b91906124e5565b60405180910390f35b34801561033f575f5ffd5b5061035a60048036038101906103559190612309565b6116e5565b005b348015610367575f5ffd5b50610382600480360381019061037d9190612270565b61180c565b60405161038f919061250d565b60405180910390f35b3480156103a3575f5ffd5b506103be60048036038101906103b99190612526565b611873565b005b3480156103cb575f5ffd5b506103d4611a0c565b6040516103e19190612343565b60405180910390f35b61040460048036038101906103ff9190612309565b611a11565b005b348015610411575f5ffd5b5061041a611c5d565b6040516104279190612343565b60405180910390f35b34801561043b575f5ffd5b50610444611c62565b60405161045191906122c6565b60405180910390f35b348015610465575f5ffd5b50610480600480360381019061047b9190612309565b611c69565b60405161048d919061267d565b60405180910390f35b3480156104a1575f5ffd5b506104aa611d97565b6040516104b791906122c6565b60405180910390f35b3480156104cb575f5ffd5b506104e660048036038101906104e19190612309565b611d9d565b005b60015f5f3373ffffffffffffffffffffffffffffffffffffffff1673ffffffffffffffffffffffffffffffffffffffff1681526020019081526020015f205f8260ff1660ff1681526020019081526020015f205f9054906101000a900460ff1661057e576040517f82b4290000000000000000000000000000000000000000000000000000000000815260040160405180910390fd5b5f73ffffffffffffffffffffffffffffffffffffffff168373ffffffffffffffffffffffffffffffffffffffff16036105e3576040517fd92e233d00000000000000000000000000000000000000000000000000000000815260040160405180910390fd5b5f5f5f8573ffffffffffffffffffffffffffffffffffffffff1673ffffffffffffffffffffffffffffffffffffffff1681526020019081526020015f205f8460ff1660ff1681526020019081526020015f205f6101000a81548160ff0219169083151502179055508160ff168373ffffffffffffffffffffffffffffffffffffffff167f34a1009b84e077aee5bc8197faf7105e54f9ba6879e2a51a716e4156ea9ad76960405160405180910390a3505050565b60025481565b5f6106a782611f24565b90503373ffffffffffffffffffffffffffffffffffffffff16816001015f9054906101000a900473ffffffffffffffffffffffffffffffffffffffff1673ffffffffffffffffffffffffffffffffffffffff161461073c57816040517f09b4c33d00000000000000000000000000000000000000000000000000000000815260040161073391906122c6565b60405180910390fd5b600160068111156107505761074f61257e565b5b816006015f9054906101000a900460ff1660068111156107735761077261257e565b5b141580156107b65750600260068111156107905761078f61257e565b5b816006015f9054906101000a900460ff1660068111156107b3576107b261257e565b5b14155b1561080a5781816006015f9054906101000a900460ff166040517f0a5889e50000000000000000000000000000000000000000000000000000000081526004016108019291906126a5565b60405180910390fd5b6004816006015f6101000a81548160ff021916908360068111156108315761083061257e565b5b02179055503373ffffffffffffffffffffffffffffffffffffffff16827f44f3c3ed15c708331582bc379d28659a58f183a563abe41aa4c8889db469f71c60405160405180910390a360015f9054906101000a900473ffffffffffffffffffffffffffffffffffffffff1673ffffffffffffffffffffffffffffffffffffffff1663a4adcdd083836001015f9054906101000a900473ffffffffffffffffffffffffffffffffffffffff16846002015f9054906101000a900473ffffffffffffffffffffffffffffffffffffffff1685600301546040518563ffffffff1660e01b815260040161092494939291906126db565b5f604051808303815f87803b15801561093b575f5ffd5b505af192505050801561094c575060015b505050565b60045f9054906101000a900460ff1615610997576040517fed3ba6a600000000000000000000000000000000000000000000000000000000815260040160405180910390fd5b600160045f6101000a81548160ff0219169083151502179055505f6109bb82611f24565b90503373ffffffffffffffffffffffffffffffffffffffff16816001015f9054906101000a900473ffffffffffffffffffffffffffffffffffffffff1673ffffffffffffffffffffffffffffffffffffffff1614610a5057816040517f09b4c33d000000000000000000000000000000000000000000000000000000008152600401610a4791906122c6565b60405180910390fd5b60026006811115610a6457610a6361257e565b5b816006015f9054906101000a900460ff166006811115610a8757610a8661257e565b5b14610adb5781816006015f9054906101000a900460ff166040517f0a5889e5000000000000000000000000000000000000000000000000000000008152600401610ad29291906126a5565b60405180910390fd5b6003816006015f6101000a81548160ff02191690836006811115610b0257610b0161257e565b5b02179055505f5f610b168360030154611fd5565b91509150837fc4bfc30eeb4d37af0bfe8327e0acfdc5e10da19745a4677dd5f4244993d7ca988383604051610b4c92919061271e565b60405180910390a2610b81836002015f9054906101000a900473ffffffffffffffffffffffffffffffffffffffff1683612007565b610bab7f000000000000000000000000000000000000000000000000000000000000000082612007565b5050505f60045f6101000a81548160ff02191690831515021790555050565b600181565b60045f9054906101000a900460ff1615610c15576040517fed3ba6a600000000000000000000000000000000000000000000000000000000815260040160405180910390fd5b600160045f6101000a81548160ff02191690831515021790555060035f5f3373ffffffffffffffffffffffffffffffffffffffff1673ffffffffffffffffffffffffffffffffffffffff1681526020019081526020015f205f8260ff1660ff1681526020019081526020015f205f9054906101000a900460ff16610cc5576040517f82b4290000000000000000000000000000000000000000000000000000000000815260040160405180910390fd5b5f610ccf84611f24565b905060046006811115610ce557610ce461257e565b5b816006015f9054906101000a900460ff166006811115610d0857610d0761257e565b5b14610d5c5783816006015f9054906101000a900460ff166040517f0a5889e5000000000000000000000000000000000000000000000000000000008152600401610d539291906126a5565b60405180910390fd5b8215610d93576003816006015f6101000a81548160ff02191690836006811115610d8957610d8861257e565b5b0217905550610dc0565b6005816006015f6101000a81548160ff02191690836006811115610dba57610db961257e565b5b02179055505b837f5a87909bff68caaaaf0b3fd9c74eeccc928832f879315e5c6fb7a73612f26c0c84604051610df0919061250d565b60405180910390a28215610ea9575f5f610e0d8360030154611fd5565b91509150857fc4bfc30eeb4d37af0bfe8327e0acfdc5e10da19745a4677dd5f4244993d7ca988383604051610e4392919061271e565b60405180910390a2610e78836002015f9054906101000a900473ffffffffffffffffffffffffffffffffffffffff1683612007565b610ea27f000000000000000000000000000000000000000000000000000000000000000082612007565b5050610f17565b837fb7c1f9298a18c36af08bd57eabbfbeb04695f24d0438f67614741ec15fb5c4a98260030154604051610edd91906122c6565b60405180910390a2610f16816001015f9054906101000a900473ffffffffffffffffffffffffffffffffffffffff168260030154612007565b5b50505f60045f6101000a81548160ff0219169083151502179055505050565b60045f9054906101000a900460ff1615610f7c576040517fed3ba6a600000000000000000000000000000000000000000000000000000000815260040160405180910390fd5b600160045f6101000a81548160ff02191690831515021790555060035f5f3373ffffffffffffffffffffffffffffffffffffffff1673ffffffffffffffffffffffffffffffffffffffff1681526020019081526020015f205f8260ff1660ff1681526020019081526020015f205f9054906101000a900460ff1661102c576040517f82b4290000000000000000000000000000000000000000000000000000000000815260040160405180910390fd5b5f61103683611f24565b90506004600681111561104c5761104b61257e565b5b816006015f9054906101000a900460ff16600681111561106f5761106e61257e565b5b146110c35782816006015f9054906101000a900460ff166040517f0a5889e50000000000000000000000000000000000000000000000000000000081526004016110ba9291906126a5565b60405180910390fd5b5f816003015490506005826006015f6101000a81548160ff021916908360068111156110f2576110f161257e565b5b0217905550837fb7c1f9298a18c36af08bd57eabbfbeb04695f24d0438f67614741ec15fb5c4a98260405161112791906122c6565b60405180910390a261115c826001015f9054906101000a900473ffffffffffffffffffffffffffffffffffffffff1682612007565b5050505f60045f6101000a81548160ff02191690831515021790555050565b60015f5f3373ffffffffffffffffffffffffffffffffffffffff1673ffffffffffffffffffffffffffffffffffffffff1681526020019081526020015f205f8260ff1660ff1681526020019081526020015f205f9054906101000a900460ff16611211576040517f82b4290000000000000000000000000000000000000000000000000000000000815260040160405180910390fd5b5f73ffffffffffffffffffffffffffffffffffffffff168373ffffffffffffffffffffffffffffffffffffffff1603611276576040517fd92e233d00000000000000000000000000000000000000000000000000000000815260040160405180910390fd5b61128083836120b4565b505050565b5f61128f82611f24565b90503373ffffffffffffffffffffffffffffffffffffffff16816001015f9054906101000a900473ffffffffffffffffffffffffffffffffffffffff1673ffffffffffffffffffffffffffffffffffffffff161461132457816040517f09b4c33d00000000000000000000000000000000000000000000000000000000815260040161131b91906122c6565b60405180910390fd5b5f60068111156113375761133661257e565b5b816006015f9054906101000a900460ff16600681111561135a5761135961257e565b5b146113ae5781816006015f9054906101000a900460ff166040517f0a5889e50000000000000000000000000000000000000000000000000000000081526004016113a59291906126a5565b60405180910390fd5b6006816006015f6101000a81548160ff021916908360068111156113d5576113d461257e565b5b0217905550817fc41d93b8bfbf9fd7cf5bfe271fd649ab6a6fec0ea101c23b82a2a28eca2533a960405160405180910390a25050565b5f61141783600261180c565b61144d576040517f82b4290000000000000000000000000000000000000000000000000000000000815260040160405180910390fd5b3373ffffffffffffffffffffffffffffffffffffffff168373ffffffffffffffffffffffffffffffffffffffff16036114b2576040517f82b4290000000000000000000000000000000000000000000000000000000000815260040160405180910390fd5b60035f8154809291906114c490612772565b9190505590506040518060e001604052808281526020013373ffffffffffffffffffffffffffffffffffffffff1681526020018473ffffffffffffffffffffffffffffffffffffffff1681526020015f81526020014281526020018381526020015f60068111156115385761153761257e565b5b81525060055f8381526020019081526020015f205f820151815f01556020820151816001015f6101000a81548173ffffffffffffffffffffffffffffffffffffffff021916908373ffffffffffffffffffffffffffffffffffffffff1602179055506040820151816002015f6101000a81548173ffffffffffffffffffffffffffffffffffffffff021916908373ffffffffffffffffffffffffffffffffffffffff160217905550606082015181600301556080820151816004015560a0820151816005015560c0820151816006015f6101000a81548160ff021916908360068111156116285761162761257e565b5b02179055509050508273ffffffffffffffffffffffffffffffffffffffff163373ffffffffffffffffffffffffffffffffffffffff16827f7de7bde3ca286d550a77f3d882ed0362f8a4d6200740c1cfcab9a661088c36098560405161168e91906127c8565b60405180910390a492915050565b7f000000000000000000000000000000000000000000000000000000000000000081565b60015f9054906101000a900473ffffffffffffffffffffffffffffffffffffffff1681565b60015f5f3373ffffffffffffffffffffffffffffffffffffffff1673ffffffffffffffffffffffffffffffffffffffff1681526020019081526020015f205f8260ff1660ff1681526020019081526020015f205f9054906101000a900460ff1661177b576040517f82b4290000000000000000000000000000000000000000000000000000000000815260040160405180910390fd5b6101f48211156117c657816101f46040517fe757126a0000000000000000000000000000000000000000000000000000000081526004016117bd92919061271e565b60405180910390fd5b7f528d9479e9f9889a87a3c30c7f7ba537e5e59c4c85a37733b16e57c62df61302600254836040516117f992919061271e565b60405180910390a1816002819055505050565b5f5f5f8473ffffffffffffffffffffffffffffffffffffffff1673ffffffffffffffffffffffffffffffffffffffff1681526020019081526020015f205f8360ff1660ff1681526020019081526020015f205f9054906101000a900460ff16905092915050565b60015f5f3373ffffffffffffffffffffffffffffffffffffffff1673ffffffffffffffffffffffffffffffffffffffff1681526020019081526020015f205f8260ff1660ff1681526020019081526020015f205f9054906101000a900460ff16611909576040517f82b4290000000000000000000000000000000000000000000000000000000000815260040160405180910390fd5b5f73ffffffffffffffffffffffffffffffffffffffff168273ffffffffffffffffffffffffffffffffffffffff160361196e576040517fd92e233d00000000000000000000000000000000000000000000000000000000815260040160405180910390fd5b7f0a4eb09e14cf0b6177b79042a04365517d9b189a50ec69eaabc40a6440103c9060015f9054906101000a900473ffffffffffffffffffffffffffffffffffffffff16836040516119c09291906127e1565b60405180910390a18160015f6101000a81548173ffffffffffffffffffffffffffffffffffffffff021916908373ffffffffffffffffffffffffffffffffffffffff1602179055505050565b600381565b60045f9054906101000a900460ff1615611a57576040517fed3ba6a600000000000000000000000000000000000000000000000000000000815260040160405180910390fd5b600160045f6101000a81548160ff0219169083151502179055505f611a7b82611f24565b90503373ffffffffffffffffffffffffffffffffffffffff16816001015f9054906101000a900473ffffffffffffffffffffffffffffffffffffffff1673ffffffffffffffffffffffffffffffffffffffff1614611b1057816040517f09b4c33d000000000000000000000000000000000000000000000000000000008152600401611b0791906122c6565b60405180910390fd5b5f6006811115611b2357611b2261257e565b5b816006015f9054906101000a900460ff166006811115611b4657611b4561257e565b5b14611b9a5781816006015f9054906101000a900460ff166040517f0a5889e5000000000000000000000000000000000000000000000000000000008152600401611b919291906126a5565b60405180910390fd5b5f3403611bd3576040517f1f2a200500000000000000000000000000000000000000000000000000000000815260040160405180910390fd5b3481600301819055506001816006015f6101000a81548160ff02191690836006811115611c0357611c0261257e565b5b0217905550817f86441ec7b38b2d00ecf92f8283f1303d21d33149d841dc49c80f1bde8f7c388634604051611c3891906122c6565b60405180910390a2505f60045f6101000a81548160ff02191690831515021790555050565b600281565b5f47905090565b611c71612168565b611c7a82611f24565b6040518060e00160405290815f8201548152602001600182015f9054906101000a900473ffffffffffffffffffffffffffffffffffffffff1673ffffffffffffffffffffffffffffffffffffffff1673ffffffffffffffffffffffffffffffffffffffff168152602001600282015f9054906101000a900473ffffffffffffffffffffffffffffffffffffffff1673ffffffffffffffffffffffffffffffffffffffff1673ffffffffffffffffffffffffffffffffffffffff168152602001600382015481526020016004820154815260200160058201548152602001600682015f9054906101000a900460ff166006811115611d7a57611d7961257e565b5b6006811115611d8c57611d8b61257e565b5b815250509050919050565b6101f481565b5f611da782611f24565b90503373ffffffffffffffffffffffffffffffffffffffff16816002015f9054906101000a900473ffffffffffffffffffffffffffffffffffffffff1673ffffffffffffffffffffffffffffffffffffffff1614611e3c57816040517fa7e67778000000000000000000000000000000000000000000000000000000008152600401611e3391906122c6565b60405180910390fd5b60016006811115611e5057611e4f61257e565b5b816006015f9054906101000a900460ff166006811115611e7357611e7261257e565b5b14611ec75781816006015f9054906101000a900460ff166040517f0a5889e5000000000000000000000000000000000000000000000000000000008152600401611ebe9291906126a5565b60405180910390fd5b6002816006015f6101000a81548160ff02191690836006811115611eee57611eed61257e565b5b0217905550817fe3ce5f36666aec295b2ed1a858caf4782066e5e8c1a5a5da7ba6551b14fcfdcb60405160405180910390a25050565b5f5f60055f8481526020019081526020015f2090505f73ffffffffffffffffffffffffffffffffffffffff16816001015f9054906101000a900473ffffffffffffffffffffffffffffffffffffffff1673ffffffffffffffffffffffffffffffffffffffff1603611fcc57826040517f4e90badc000000000000000000000000000000000000000000000000000000008152600401611fc391906122c6565b60405180910390fd5b80915050919050565b5f5f61271060025484611fe89190612808565b611ff29190612876565b9050808361200091906128a6565b9150915091565b5f8103156120b0575f8273ffffffffffffffffffffffffffffffffffffffff168260405161203490612906565b5f6040518083038185875af1925050503d805f811461206e576040519150601f19603f3d011682016040523d82523d5f602084013e612073565b606091505b50509050806120ae576040517f90b8ec1800000000000000000000000000000000000000000000000000000000815260040160405180910390fd5b505b5050565b60015f5f8473ffffffffffffffffffffffffffffffffffffffff1673ffffffffffffffffffffffffffffffffffffffff1681526020019081526020015f205f8360ff1660ff1681526020019081526020015f205f6101000a81548160ff0219169083151502179055508060ff168273ffffffffffffffffffffffffffffffffffffffff167faa259565575c834bc07e74dca784b4071676133ac78513b431afb6ee7edae12160405160405180910390a35050565b6040518060e001604052805f81526020015f73ffffffffffffffffffffffffffffffffffffffff1681526020015f73ffffffffffffffffffffffffffffffffffffffff1681526020015f81526020015f81526020015f81526020015f60068111156121d6576121d561257e565b5b81525090565b5f5ffd5b5f73ffffffffffffffffffffffffffffffffffffffff82169050919050565b5f612209826121e0565b9050919050565b612219816121ff565b8114612223575f5ffd5b50565b5f8135905061223481612210565b92915050565b5f60ff82169050919050565b61224f8161223a565b8114612259575f5ffd5b50565b5f8135905061226a81612246565b92915050565b5f5f60408385031215612286576122856121dc565b5b5f61229385828601612226565b92505060206122a48582860161225c565b9150509250929050565b5f819050919050565b6122c0816122ae565b82525050565b5f6020820190506122d95f8301846122b7565b92915050565b6122e8816122ae565b81146122f2575f5ffd5b50565b5f81359050612303816122df565b92915050565b5f6020828403121561231e5761231d6121dc565b5b5f61232b848285016122f5565b91505092915050565b61233d8161223a565b82525050565b5f6020820190506123565f830184612334565b92915050565b5f8115159050919050565b6123708161235c565b811461237a575f5ffd5b50565b5f8135905061238b81612367565b92915050565b5f5f604083850312156123a7576123a66121dc565b5b5f6123b4858286016122f5565b92505060206123c58582860161237d565b9150509250929050565b5f819050919050565b6123e1816123cf565b81146123eb575f5ffd5b50565b5f813590506123fc816123d8565b92915050565b5f5f60408385031215612418576124176121dc565b5b5f61242585828601612226565b9250506020612436858286016123ee565b9150509250929050565b5f819050919050565b5f61246361245e612459846121e0565b612440565b6121e0565b9050919050565b5f61247482612449565b9050919050565b5f6124858261246a565b9050919050565b6124958161247b565b82525050565b5f6020820190506124ae5f83018461248c565b92915050565b5f6124be82612449565b9050919050565b5f6124cf826124b4565b9050919050565b6124df816124c5565b82525050565b5f6020820190506124f85f8301846124d6565b92915050565b6125078161235c565b82525050565b5f6020820190506125205f8301846124fe565b92915050565b5f6020828403121561253b5761253a6121dc565b5b5f61254884828501612226565b91505092915050565b61255a816122ae565b82525050565b612569816121ff565b82525050565b612578816123cf565b82525050565b7f4e487b71000000000000000000000000000000000000000000000000000000005f52602160045260245ffd5b600781106125bc576125bb61257e565b5b50565b5f8190506125cc826125ab565b919050565b5f6125db826125bf565b9050919050565b6125eb816125d1565b82525050565b60e082015f8201516126055f850182612551565b5060208201516126186020850182612560565b50604082015161262b6040850182612560565b50606082015161263e6060850182612551565b5060808201516126516080850182612551565b5060a082015161266460a085018261256f565b5060c082015161267760c08501826125e2565b50505050565b5f60e0820190506126905f8301846125f1565b92915050565b61269f816125d1565b82525050565b5f6040820190506126b85f8301856122b7565b6126c56020830184612696565b9392505050565b6126d5816121ff565b82525050565b5f6080820190506126ee5f8301876122b7565b6126fb60208301866126cc565b61270860408301856126cc565b61271560608301846122b7565b95945050505050565b5f6040820190506127315f8301856122b7565b61273e60208301846122b7565b9392505050565b7f4e487b71000000000000000000000000000000000000000000000000000000005f52601160045260245ffd5b5f61277c826122ae565b91507fffffffffffffffffffffffffffffffffffffffffffffffffffffffffffffffff82036127ae576127ad612745565b5b600182019050919050565b6127c2816123cf565b82525050565b5f6020820190506127db5f8301846127b9565b92915050565b5f6040820190506127f45f8301856126cc565b61280160208301846126cc565b9392505050565b5f612812826122ae565b915061281d836122ae565b925082820261282b816122ae565b9150828204841483151761284257612841612745565b5b5092915050565b7f4e487b71000000000000000000000000000000000000000000000000000000005f52601260045260245ffd5b5f612880826122ae565b915061288b836122ae565b92508261289b5761289a612849565b5b828204905092915050565b5f6128b0826122ae565b91506128bb836122ae565b92508282039050818111156128d3576128d2612745565b5b92915050565b5f81905092915050565b50565b5f6128f15f836128d9565b91506128fc826128e3565b5f82019050919050565b5f612910826128e6565b915081905091905056fea264697066735822122033cccd231c554e63a5a9efca431ebd15659d8f7ee4a47464a082614d2fa78af664736f6c634300081f0033",
			"opcodes": "PUSH1 0xA0 PUSH1 0x40 MSTORE PUSH1 0x64 PUSH1 0x2 SSTORE PUSH1 0x1 PUSH1 0x3 SSTORE CALLVALUE DUP1 ISZERO PUSH2 0x19 JUMPI PUSH0 PUSH0 REVERT JUMPDEST POP PUSH1 0x40 MLOAD PUSH2 0x2C92 CODESIZE SUB DUP1 PUSH2 0x2C92 DUP4 CODECOPY DUP2 DUP2 ADD PUSH1 0x40 MSTORE DUP2 ADD SWAP1 PUSH2 0x3B SWAP2 SWAP1 PUSH2 0x2DE JUMP JUMPDEST PUSH2 0x4C CALLER PUSH1 0x1 PUSH2 0x191 PUSH1 0x20 SHL PUSH1 0x20 SHR JUMP JUMPDEST PUSH0 PUSH20 0xFFFFFFFFFFFFFFFFFFFFFFFFFFFFFFFFFFFFFFFF AND DUP3 PUSH20 0xFFFFFFFFFFFFFFFFFFFFFFFFFFFFFFFFFFFFFFFF AND SUB PUSH2 0xB1 JUMPI PUSH1 0x40 MLOAD PUSH32 0xD92E233D00000000000000000000000000000000000000000000000000000000 DUP2 MSTORE PUSH1 0x4 ADD PUSH1 0x40 MLOAD DUP1 SWAP2 SUB SWAP1 REVERT JUMPDEST PUSH0 PUSH20 0xFFFFFFFFFFFFFFFFFFFFFFFFFFFFFFFFFFFFFFFF AND DUP2 PUSH20 0xFFFFFFFFFFFFFFFFFFFFFFFFFFFFFFFFFFFFFFFF AND SUB PUSH2 0x116 JUMPI PUSH1 0x40 MLOAD PUSH32 0xD92E233D00000000000000000000000000000000000000000000000000000000 DUP2 MSTORE PUSH1 0x4 ADD PUSH1 0x40 MLOAD DUP1 SWAP2 SUB SWAP1 REVERT JUMPDEST DUP2 PUSH20 0xFFFFFFFFFFFFFFFFFFFFFFFFFFFFFFFFFFFFFFFF AND PUSH1 0x80 DUP2 PUSH20 0xFFFFFFFFFFFFFFFFFFFFFFFFFFFFFFFFFFFFFFFF AND DUP2 MSTORE POP POP DUP1 PUSH1 0x1 PUSH0 PUSH2 0x100 EXP DUP2 SLOAD DUP2 PUSH20 0xFFFFFFFFFFFFFFFFFFFFFFFFFFFFFFFFFFFFFFFF MUL NOT AND SWAP1 DUP4 PUSH20 0xFFFFFFFFFFFFFFFFFFFFFFFFFFFFFFFFFFFFFFFF AND MUL OR SWAP1 SSTORE POP POP POP PUSH2 0x31C JUMP JUMPDEST PUSH1 0x1 PUSH0 PUSH0 DUP5 PUSH20 0xFFFFFFFFFFFFFFFFFFFFFFFFFFFFFFFFFFFFFFFF AND PUSH20 0xFFFFFFFFFFFFFFFFFFFFFFFFFFFFFFFFFFFFFFFF AND DUP2 MSTORE PUSH1 0x20 ADD SWAP1 DUP2 MSTORE PUSH1 0x20 ADD PUSH0 KECCAK256 PUSH0 DUP4 PUSH1 0xFF AND PUSH1 0xFF AND DUP2 MSTORE PUSH1 0x20 ADD SWAP1 DUP2 MSTORE PUSH1 0x20 ADD PUSH0 KECCAK256 PUSH0 PUSH2 0x100 EXP DUP2 SLOAD DUP2 PUSH1 0xFF MUL NOT AND SWAP1 DUP4 ISZERO ISZERO MUL OR SWAP1 SSTORE POP DUP1 PUSH1 0xFF AND DUP3 PUSH20 0xFFFFFFFFFFFFFFFFFFFFFFFFFFFFFFFFFFFFFFFF AND PUSH32 0xAA259565575C834BC07E74DCA784B4071676133AC78513B431AFB6EE7EDAE121 PUSH1 0x40 MLOAD PUSH1 0x40 MLOAD DUP1 SWAP2 SUB SWAP1 LOG3 POP POP JUMP JUMPDEST PUSH0 PUSH0 REVERT JUMPDEST PUSH0 PUSH20 0xFFFFFFFFFFFFFFFFFFFFFFFFFFFFFFFFFFFFFFFF DUP3 AND SWAP1 POP SWAP2 SWAP1 POP JUMP JUMPDEST PUSH0 PUSH2 0x272 DUP3 PUSH2 0x249 JUMP JUMPDEST SWAP1 POP SWAP2 SWAP1 POP JUMP JUMPDEST PUSH2 0x282 DUP2 PUSH2 0x268 JUMP JUMPDEST DUP2 EQ PUSH2 0x28C JUMPI PUSH0 PUSH0 REVERT JUMPDEST POP JUMP JUMPDEST PUSH0 DUP2 MLOAD SWAP1 POP PUSH2 0x29D DUP2 PUSH2 0x279 JUMP JUMPDEST SWAP3 SWAP2 POP POP JUMP JUMPDEST PUSH0 PUSH2 0x2AD DUP3 PUSH2 0x249 JUMP JUMPDEST SWAP1 POP SWAP2 SWAP1 POP JUMP JUMPDEST PUSH2 0x2BD DUP2 PUSH2 0x2A3 JUMP JUMPDEST DUP2 EQ PUSH2 0x2C7 JUMPI PUSH0 PUSH0 REVERT JUMPDEST POP JUMP JUMPDEST PUSH0 DUP2 MLOAD SWAP1 POP PUSH2 0x2D8 DUP2 PUSH2 0x2B4 JUMP JUMPDEST SWAP3 SWAP2 POP POP JUMP JUMPDEST PUSH0 PUSH0 PUSH1 0x40 DUP4 DUP6 SUB SLT ISZERO PUSH2 0x2F4 JUMPI PUSH2 0x2F3 PUSH2 0x245 JUMP JUMPDEST JUMPDEST PUSH0 PUSH2 0x301 DUP6 DUP3 DUP7 ADD PUSH2 0x28F JUMP JUMPDEST SWAP3 POP POP PUSH1 0x20 PUSH2 0x312 DUP6 DUP3 DUP7 ADD PUSH2 0x2CA JUMP JUMPDEST SWAP2 POP POP SWAP3 POP SWAP3 SWAP1 POP JUMP JUMPDEST PUSH1 0x80 MLOAD PUSH2 0x2950 PUSH2 0x342 PUSH0 CODECOPY PUSH0 DUP2 DUP2 PUSH2 0xB86 ADD MSTORE DUP2 DUP2 PUSH2 0xE7D ADD MSTORE PUSH2 0x169E ADD MSTORE PUSH2 0x2950 PUSH0 RETURN INVALID PUSH1 0x80 PUSH1 0x40 MSTORE PUSH1 0x4 CALLDATASIZE LT PUSH2 0x134 JUMPI PUSH0 CALLDATALOAD PUSH1 0xE0 SHR DUP1 PUSH4 0x6CC6CDE1 GT PUSH2 0xAA JUMPI DUP1 PUSH4 0xB9C4D0A7 GT PUSH2 0x6E JUMPI DUP1 PUSH4 0xB9C4D0A7 EQ PUSH2 0x3EA JUMPI DUP1 PUSH4 0xBCA93EBA EQ PUSH2 0x406 JUMPI DUP1 PUSH4 0xC56E610E EQ PUSH2 0x430 JUMPI DUP1 PUSH4 0xD09EF241 EQ PUSH2 0x45A JUMPI DUP1 PUSH4 0xD55BE8C6 EQ PUSH2 0x496 JUMPI DUP1 PUSH4 0xEED90D6B EQ PUSH2 0x4C0 JUMPI PUSH2 0x134 JUMP JUMPDEST DUP1 PUSH4 0x6CC6CDE1 EQ PUSH2 0x30A JUMPI DUP1 PUSH4 0x9012C4A8 EQ PUSH2 0x334 JUMPI DUP1 PUSH4 0x95A8C58D EQ PUSH2 0x35C JUMPI DUP1 PUSH4 0xB0EEFABE EQ PUSH2 0x398 JUMPI DUP1 PUSH4 0xB2170409 EQ PUSH2 0x3C0 JUMPI PUSH2 0x134 JUMP JUMPDEST DUP1 PUSH4 0x34B25EE2 GT PUSH2 0xFC JUMPI DUP1 PUSH4 0x34B25EE2 EQ PUSH2 0x204 JUMPI DUP1 PUSH4 0x39292763 EQ PUSH2 0x22C JUMPI DUP1 PUSH4 0x3E840236 EQ PUSH2 0x254 JUMPI DUP1 PUSH4 0x41E8A42A EQ PUSH2 0x27C JUMPI DUP1 PUSH4 0x4D471E85 EQ PUSH2 0x2A4 JUMPI DUP1 PUSH4 0x61D027B3 EQ PUSH2 0x2E0 JUMPI PUSH2 0x134 JUMP JUMPDEST DUP1 PUSH4 0x77D3C03 EQ PUSH2 0x138 JUMPI DUP1 PUSH4 0x24A9D853 EQ PUSH2 0x160 JUMPI DUP1 PUSH4 0x27D00FB0 EQ PUSH2 0x18A JUMPI DUP1 PUSH4 0x27DAC36D EQ PUSH2 0x1B2 JUMPI DUP1 PUSH4 0x2A0ACC6A EQ PUSH2 0x1DA JUMPI JUMPDEST PUSH0 PUSH0 REVERT JUMPDEST CALLVALUE DUP1 ISZERO PUSH2 0x143 JUMPI PUSH0 PUSH0 REVERT JUMPDEST POP PUSH2 0x15E PUSH1 0x4 DUP1 CALLDATASIZE SUB DUP2 ADD SWAP1 PUSH2 0x159 SWAP2 SWAP1 PUSH2 0x2270 JUMP JUMPDEST PUSH2 0x4E8 JUMP JUMPDEST STOP JUMPDEST CALLVALUE DUP1 ISZERO PUSH2 0x16B JUMPI PUSH0 PUSH0 REVERT JUMPDEST POP PUSH2 0x174 PUSH2 0x697 JUMP JUMPDEST PUSH1 0x40 MLOAD PUSH2 0x181 SWAP2 SWAP1 PUSH2 0x22C6 JUMP JUMPDEST PUSH1 0x40 MLOAD DUP1 SWAP2 SUB SWAP1 RETURN JUMPDEST CALLVALUE DUP1 ISZERO PUSH2 0x195 JUMPI PUSH0 PUSH0 REVERT JUMPDEST POP PUSH2 0x1B0 PUSH1 0x4 DUP1 CALLDATASIZE SUB DUP2 ADD SWAP1 PUSH2 0x1AB SWAP2 SWAP1 PUSH2 0x2309 JUMP JUMPDEST PUSH2 0x69D JUMP JUMPDEST STOP JUMPDEST CALLVALUE DUP1 ISZERO PUSH2 0x1BD JUMPI PUSH0 PUSH0 REVERT JUMPDEST POP PUSH2 0x1D8 PUSH1 0x4 DUP1 CALLDATASIZE SUB DUP2 ADD SWAP1 PUSH2 0x1D3 SWAP2 SWAP1 PUSH2 0x2309 JUMP JUMPDEST PUSH2 0x951 JUMP JUMPDEST STOP JUMPDEST CALLVALUE DUP1 ISZERO PUSH2 0x1E5 JUMPI PUSH0 PUSH0 REVERT JUMPDEST POP PUSH2 0x1EE PUSH2 0xBCA JUMP JUMPDEST PUSH1 0x40 MLOAD PUSH2 0x1FB SWAP2 SWAP1 PUSH2 0x2343 JUMP JUMPDEST PUSH1 0x40 MLOAD DUP1 SWAP2 SUB SWAP1 RETURN JUMPDEST CALLVALUE DUP1 ISZERO PUSH2 0x20F JUMPI PUSH0 PUSH0 REVERT JUMPDEST POP PUSH2 0x22A PUSH1 0x4 DUP1 CALLDATASIZE SUB DUP2 ADD SWAP1 PUSH2 0x225 SWAP2 SWAP1 PUSH2 0x2391 JUMP JUMPDEST PUSH2 0xBCF JUMP JUMPDEST STOP JUMPDEST CALLVALUE DUP1 ISZERO PUSH2 0x237 JUMPI PUSH0 PUSH0 REVERT JUMPDEST POP PUSH2 0x252 PUSH1 0x4 DUP1 CALLDATASIZE SUB DUP2 ADD SWAP1 PUSH2 0x24D SWAP2 SWAP1 PUSH2 0x2309 JUMP JUMPDEST PUSH2 0xF36 JUMP JUMPDEST STOP JUMPDEST CALLVALUE DUP1 ISZERO PUSH2 0x25F JUMPI PUSH0 PUSH0 REVERT JUMPDEST POP PUSH2 0x27A PUSH1 0x4 DUP1 CALLDATASIZE SUB DUP2 ADD SWAP1 PUSH2 0x275 SWAP2 SWAP1 PUSH2 0x2270 JUMP JUMPDEST PUSH2 0x117B JUMP JUMPDEST STOP JUMPDEST CALLVALUE DUP1 ISZERO PUSH2 0x287 JUMPI PUSH0 PUSH0 REVERT JUMPDEST POP PUSH2 0x2A2 PUSH1 0x4 DUP1 CALLDATASIZE SUB DUP2 ADD SWAP1 PUSH2 0x29D SWAP2 SWAP1 PUSH2 0x2309 JUMP JUMPDEST PUSH2 0x1285 JUMP JUMPDEST STOP JUMPDEST CALLVALUE DUP1 ISZERO PUSH2 0x2AF JUMPI PUSH0 PUSH0 REVERT JUMPDEST POP PUSH2 0x2CA PUSH1 0x4 DUP1 CALLDATASIZE SUB DUP2 ADD SWAP1 PUSH2 0x2C5 SWAP2 SWAP1 PUSH2 0x2402 JUMP JUMPDEST PUSH2 0x140B JUMP JUMPDEST PUSH1 0x40 MLOAD PUSH2 0x2D7 SWAP2 SWAP1 PUSH2 0x22C6 JUMP JUMPDEST PUSH1 0x40 MLOAD DUP1 SWAP2 SUB SWAP1 RETURN JUMPDEST CALLVALUE DUP1 ISZERO PUSH2 0x2EB JUMPI PUSH0 PUSH0 REVERT JUMPDEST POP PUSH2 0x2F4 PUSH2 0x169C JUMP JUMPDEST PUSH1 0x40 MLOAD PUSH2 0x301 SWAP2 SWAP1 PUSH2 0x249B JUMP JUMPDEST PUSH1 0x40 MLOAD DUP1 SWAP2 SUB SWAP1 RETURN JUMPDEST CALLVALUE DUP1 ISZERO PUSH2 0x315 JUMPI PUSH0 PUSH0 REVERT JUMPDEST POP PUSH2 0x31E PUSH2 0x16C0 JUMP JUMPDEST PUSH1 0x40 MLOAD PUSH2 0x32B SWAP2 SWAP1 PUSH2 0x24E5 JUMP JUMPDEST PUSH1 0x40 MLOAD DUP1 SWAP2 SUB SWAP1 RETURN JUMPDEST CALLVALUE DUP1 ISZERO PUSH2 0x33F JUMPI PUSH0 PUSH0 REVERT JUMPDEST POP PUSH2 0x35A PUSH1 0x4 DUP1 CALLDATASIZE SUB DUP2 ADD SWAP1 PUSH2 0x355 SWAP2 SWAP1 PUSH2 0x2309 JUMP JUMPDEST PUSH2 0x16E5 JUMP JUMPDEST STOP JUMPDEST CALLVALUE DUP1 ISZERO PUSH2 0x367 JUMPI PUSH0 PUSH0 REVERT JUMPDEST POP PUSH2 0x382 PUSH1 0x4 DUP1 CALLDATASIZE SUB DUP2 ADD SWAP1 PUSH2 0x37D SWAP2 SWAP1 PUSH2 0x2270 JUMP JUMPDEST PUSH2 0x180C JUMP JUMPDEST PUSH1 0x40 MLOAD PUSH2 0x38F SWAP2 SWAP1 PUSH2 0x250D JUMP JUMPDEST PUSH1 0x40 MLOAD DUP1 SWAP2 SUB SWAP1 RETURN JUMPDEST CALLVALUE DUP1 ISZERO PUSH2 0x3A3 JUMPI PUSH0 PUSH0 REVERT JUMPDEST POP PUSH2 0x3BE PUSH1 0x4 DUP1 CALLDATASIZE SUB DUP2 ADD SWAP1 PUSH2 0x3B9 SWAP2 SWAP1 PUSH2 0x2526 JUMP JUMPDEST PUSH2 0x1873 JUMP JUMPDEST STOP JUMPDEST CALLVALUE DUP1 ISZERO PUSH2 0x3CB JUMPI PUSH0 PUSH0 REVERT JUMPDEST POP PUSH2 0x3D4 PUSH2 0x1A0C JUMP JUMPDEST PUSH1 0x40 MLOAD PUSH2 0x3E1 SWAP2 SWAP1 PUSH2 0x2343 JUMP JUMPDEST PUSH1 0x40 MLOAD DUP1 SWAP2 SUB SWAP1 RETURN JUMPDEST PUSH2 0x404 PUSH1 0x4 DUP1 CALLDATASIZE SUB DUP2 ADD SWAP1 PUSH2 0x3FF SWAP2 SWAP1 PUSH2 0x2309 JUMP JUMPDEST PUSH2 0x1A11 JUMP JUMPDEST STOP JUMPDEST CALLVALUE DUP1 ISZERO PUSH2 0x411 JUMPI PUSH0 PUSH0 REVERT JUMPDEST POP PUSH2 0x41A PUSH2 0x1C5D JUMP JUMPDEST PUSH1 0x40 MLOAD PUSH2 0x427 SWAP2 SWAP1 PUSH2 0x2343 JUMP JUMPDEST PUSH1 0x40 MLOAD DUP1 SWAP2 SUB SWAP1 RETURN JUMPDEST CALLVALUE DUP1 ISZERO PUSH2 0x43B JUMPI PUSH0 PUSH0 REVERT JUMPDEST POP PUSH2 0x444 PUSH2 0x1C62 JUMP JUMPDEST PUSH1 0x40 MLOAD PUSH2 0x451 SWAP2 SWAP1 PUSH2 0x22C6 JUMP JUMPDEST PUSH1 0x40 MLOAD DUP1 SWAP2 SUB SWAP1 RETURN JUMPDEST CALLVALUE DUP1 ISZERO PUSH2 0x465 JUMPI PUSH0 PUSH0 REVERT JUMPDEST POP PUSH2 0x480 PUSH1 0x4 DUP1 CALLDATASIZE SUB DUP2 ADD SWAP1 PUSH2 0x47B SWAP2 SWAP1 PUSH2 0x2309 JUMP JUMPDEST PUSH2 0x1C69 JUMP JUMPDEST PUSH1 0x40 MLOAD PUSH2 0x48D SWAP2 SWAP1 PUSH2 0x267D JUMP JUMPDEST PUSH1 0x40 MLOAD DUP1 SWAP2 SUB SWAP1 RETURN JUMPDEST CALLVALUE DUP1 ISZERO PUSH2 0x4A1 JUMPI PUSH0 PUSH0 REVERT JUMPDEST POP PUSH2 0x4AA PUSH2 0x1D97 JUMP JUMPDEST PUSH1 0x40 MLOAD PUSH2 0x4B7 SWAP2 SWAP1 PUSH2 0x22C6 JUMP JUMPDEST PUSH1 0x40 MLOAD DUP1 SWAP2 SUB SWAP1 RETURN JUMPDEST CALLVALUE DUP1 ISZERO PUSH2 0x4CB JUMPI PUSH0 PUSH0 REVERT JUMPDEST POP PUSH2 0x4E6 PUSH1 0x4 DUP1 CALLDATASIZE SUB DUP2 ADD SWAP1 PUSH2 0x4E1 SWAP2 SWAP1 PUSH2 0x2309 JUMP JUMPDEST PUSH2 0x1D9D JUMP JUMPDEST STOP JUMPDEST PUSH1 0x1 PUSH0 PUSH0 CALLER PUSH20 0xFFFFFFFFFFFFFFFFFFFFFFFFFFFFFFFFFFFFFFFF AND PUSH20 0xFFFFFFFFFFFFFFFFFFFFFFFFFFFFFFFFFFFFFFFF AND DUP2 MSTORE PUSH1 0x20 ADD SWAP1 DUP2 MSTORE PUSH1 0x20 ADD PUSH0 KECCAK256 PUSH0 DUP3 PUSH1 0xFF AND PUSH1 0xFF AND DUP2 MSTORE PUSH1 0x20 ADD SWAP1 DUP2 MSTORE PUSH1 0x20 ADD PUSH0 KECCAK256 PUSH0 SWAP1 SLOAD SWAP1 PUSH2 0x100 EXP SWAP1 DIV PUSH1 0xFF AND PUSH2 0x57E JUMPI PUSH1 0x40 MLOAD PUSH32 0x82B4290000000000000000000000000000000000000000000000000000000000 DUP2 MSTORE PUSH1 0x4 ADD PUSH1 0x40 MLOAD DUP1 SWAP2 SUB SWAP1 REVERT JUMPDEST PUSH0 PUSH20 0xFFFFFFFFFFFFFFFFFFFFFFFFFFFFFFFFFFFFFFFF AND DUP4 PUSH20 0xFFFFFFFFFFFFFFFFFFFFFFFFFFFFFFFFFFFFFFFF AND SUB PUSH2 0x5E3 JUMPI PUSH1 0x40 MLOAD PUSH32 0xD92E233D00000000000000000000000000000000000000000000000000000000 DUP2 MSTORE PUSH1 0x4 ADD PUSH1 0x40 MLOAD DUP1 SWAP2 SUB SWAP1 REVERT JUMPDEST PUSH0 PUSH0 PUSH0 DUP6 PUSH20 0xFFFFFFFFFFFFFFFFFFFFFFFFFFFFFFFFFFFFFFFF AND PUSH20 0xFFFFFFFFFFFFFFFFFFFFFFFFFFFFFFFFFFFFFFFF AND DUP2 MSTORE PUSH1 0x20 ADD SWAP1 DUP2 MSTORE PUSH1 0x20 ADD PUSH0 KECCAK256 PUSH0 DUP5 PUSH1 0xFF AND PUSH1 0xFF AND DUP2 MSTORE PUSH1 0x20 ADD SWAP1 DUP2 MSTORE PUSH1 0x20 ADD PUSH0 KECCAK256 PUSH0 PUSH2 0x100 EXP DUP2 SLOAD DUP2 PUSH1 0xFF MUL NOT AND SWAP1 DUP4 ISZERO ISZERO MUL OR SWAP1 SSTORE POP DUP2 PUSH1 0xFF AND DUP4 PUSH20 0xFFFFFFFFFFFFFFFFFFFFFFFFFFFFFFFFFFFFFFFF AND PUSH32 0x34A1009B84E077AEE5BC8197FAF7105E54F9BA6879E2A51A716E4156EA9AD769 PUSH1 0x40 MLOAD PUSH1 0x40 MLOAD DUP1 SWAP2 SUB SWAP1 LOG3 POP POP POP JUMP JUMPDEST PUSH1 0x2 SLOAD DUP2 JUMP JUMPDEST PUSH0 PUSH2 0x6A7 DUP3 PUSH2 0x1F24 JUMP JUMPDEST SWAP1 POP CALLER PUSH20 0xFFFFFFFFFFFFFFFFFFFFFFFFFFFFFFFFFFFFFFFF AND DUP2 PUSH1 0x1 ADD PUSH0 SWAP1 SLOAD SWAP1 PUSH2 0x100 EXP SWAP1 DIV PUSH20 0xFFFFFFFFFFFFFFFFFFFFFFFFFFFFFFFFFFFFFFFF AND PUSH20 0xFFFFFFFFFFFFFFFFFFFFFFFFFFFFFFFFFFFFFFFF AND EQ PUSH2 0x73C JUMPI DUP2 PUSH1 0x40 MLOAD PUSH32 0x9B4C33D00000000000000000000000000000000000000000000000000000000 DUP2 MSTORE PUSH1 0x4 ADD PUSH2 0x733 SWAP2 SWAP1 PUSH2 0x22C6 JUMP JUMPDEST PUSH1 0x40 MLOAD DUP1 SWAP2 SUB SWAP1 REVERT JUMPDEST PUSH1 0x1 PUSH1 0x6 DUP2 GT ISZERO PUSH2 0x750 JUMPI PUSH2 0x74F PUSH2 0x257E JUMP JUMPDEST JUMPDEST DUP2 PUSH1 0x6 ADD PUSH0 SWAP1 SLOAD SWAP1 PUSH2 0x100 EXP SWAP1 DIV PUSH1 0xFF AND PUSH1 0x6 DUP2 GT ISZERO PUSH2 0x773 JUMPI PUSH2 0x772 PUSH2 0x257E JUMP JUMPDEST JUMPDEST EQ ISZERO DUP1 ISZERO PUSH2 0x7B6 JUMPI POP PUSH1 0x2 PUSH1 0x6 DUP2 GT ISZERO PUSH2 0x790 JUMPI PUSH2 0x78F PUSH2 0x257E JUMP JUMPDEST JUMPDEST DUP2 PUSH1 0x6 ADD PUSH0 SWAP1 SLOAD SWAP1 PUSH2 0x100 EXP SWAP1 DIV PUSH1 0xFF AND PUSH1 0x6 DUP2 GT ISZERO PUSH2 0x7B3 JUMPI PUSH2 0x7B2 PUSH2 0x257E JUMP JUMPDEST JUMPDEST EQ ISZERO JUMPDEST ISZERO PUSH2 0x80A JUMPI DUP2 DUP2 PUSH1 0x6 ADD PUSH0 SWAP1 SLOAD SWAP1 PUSH2 0x100 EXP SWAP1 DIV PUSH1 0xFF AND PUSH1 0x40 MLOAD PUSH32 0xA5889E500000000000000000000000000000000000000000000000000000000 DUP2 MSTORE PUSH1 0x4 ADD PUSH2 0x801 SWAP3 SWAP2 SWAP1 PUSH2 0x26A5 JUMP JUMPDEST PUSH1 0x40 MLOAD DUP1 SWAP2 SUB SWAP1 REVERT JUMPDEST PUSH1 0x4 DUP2 PUSH1 0x6 ADD PUSH0 PUSH2 0x100 EXP DUP2 SLOAD DUP2 PUSH1 0xFF MUL NOT AND SWAP1 DUP4 PUSH1 0x6 DUP2 GT ISZERO PUSH2 0x831 JUMPI PUSH2 0x830 PUSH2 0x257E JUMP JUMPDEST JUMPDEST MUL OR SWAP1 SSTORE POP CALLER PUSH20 0xFFFFFFFFFFFFFFFFFFFFFFFFFFFFFFFFFFFFFFFF AND DUP3 PUSH32 0x44F3C3ED15C708331582BC379D28659A58F183A563ABE41AA4C8889DB469F71C PUSH1 0x40 MLOAD PUSH1 0x40 MLOAD DUP1 SWAP2 SUB SWAP1 LOG3 PUSH1 0x1 PUSH0 SWAP1 SLOAD SWAP1 PUSH2 0x100 EXP SWAP1 DIV PUSH20 0xFFFFFFFFFFFFFFFFFFFFFFFFFFFFFFFFFFFFFFFF AND PUSH20 0xFFFFFFFFFFFFFFFFFFFFFFFFFFFFFFFFFFFFFFFF AND PUSH4 0xA4ADCDD0 DUP4 DUP4 PUSH1 0x1 ADD PUSH0 SWAP1 SLOAD SWAP1 PUSH2 0x100 EXP SWAP1 DIV PUSH20 0xFFFFFFFFFFFFFFFFFFFFFFFFFFFFFFFFFFFFFFFF AND DUP5 PUSH1 0x2 ADD PUSH0 SWAP1 SLOAD SWAP1 PUSH2 0x100 EXP SWAP1 DIV PUSH20 0xFFFFFFFFFFFFFFFFFFFFFFFFFFFFFFFFFFFFFFFF AND DUP6 PUSH1 0x3 ADD SLOAD PUSH1 0x40 MLOAD DUP6 PUSH4 0xFFFFFFFF AND PUSH1 0xE0 SHL DUP2 MSTORE PUSH1 0x4 ADD PUSH2 0x924 SWAP5 SWAP4 SWAP3 SWAP2 SWAP1 PUSH2 0x26DB JUMP JUMPDEST PUSH0 PUSH1 0x40 MLOAD DUP1 DUP4 SUB DUP2 PUSH0 DUP8 DUP1 EXTCODESIZE ISZERO DUP1 ISZERO PUSH2 0x93B JUMPI PUSH0 PUSH0 REVERT JUMPDEST POP GAS CALL SWAP3 POP POP POP DUP1 ISZERO PUSH2 0x94C JUMPI POP PUSH1 0x1 JUMPDEST POP POP POP JUMP JUMPDEST PUSH1 0x4 PUSH0 SWAP1 SLOAD SWAP1 PUSH2 0x100 EXP SWAP1 DIV PUSH1 0xFF AND ISZERO PUSH2 0x997 JUMPI PUSH1 0x40 MLOAD PUSH32 0xED3BA6A600000000000000000000000000000000000000000000000000000000 DUP2 MSTORE PUSH1 0x4 ADD PUSH1 0x40 MLOAD DUP1 SWAP2 SUB SWAP1 REVERT JUMPDEST PUSH1 0x1 PUSH1 0x4 PUSH0 PUSH2 0x100 EXP DUP2 SLOAD DUP2 PUSH1 0xFF MUL NOT AND SWAP1 DUP4 ISZERO ISZERO MUL OR SWAP1 SSTORE POP PUSH0 PUSH2 0x9BB DUP3 PUSH2 0x1F24 JUMP JUMPDEST SWAP1 POP CALLER PUSH20 0xFFFFFFFFFFFFFFFFFFFFFFFFFFFFFFFFFFFFFFFF AND DUP2 PUSH1 0x1 ADD PUSH0 SWAP1 SLOAD SWAP1 PUSH2 0x100 EXP SWAP1 DIV PUSH20 0xFFFFFFFFFFFFFFFFFFFFFFFFFFFFFFFFFFFFFFFF AND PUSH20 0xFFFFFFFFFFFFFFFFFFFFFFFFFFFFFFFFFFFFFFFF AND EQ PUSH2 0xA50 JUMPI DUP2 PUSH1 0x40 MLOAD PUSH32 0x9B4C33D00000000000000000000000000000000000000000000000000000000 DUP2 MSTORE PUSH1 0x4 ADD PUSH2 0xA47 SWAP2 SWAP1 PUSH2 0x22C6 JUMP JUMPDEST PUSH1 0x40 MLOAD DUP1 SWAP2 SUB SWAP1 REVERT JUMPDEST PUSH1 0x2 PUSH1 0x6 DUP2 GT ISZERO PUSH2 0xA64 JUMPI PUSH2 0xA63 PUSH2 0x257E JUMP JUMPDEST JUMPDEST DUP2 PUSH1 0x6 ADD PUSH0 SWAP1 SLOAD SWAP1 PUSH2 0x100 EXP SWAP1 DIV PUSH1 0xFF AND PUSH1 0x6 DUP2 GT ISZERO PUSH2 0xA87 JUMPI PUSH2 0xA86 PUSH2 0x257E JUMP JUMPDEST JUMPDEST EQ PUSH2 0xADB JUMPI DUP2 DUP2 PUSH1 0x6 ADD PUSH0 SWAP1 SLOAD SWAP1 PUSH2 0x100 EXP SWAP1 DIV PUSH1 0xFF AND PUSH1 0x40 MLOAD PUSH32 0xA5889E500000000000000000000000000000000000000000000000000000000 DUP2 MSTORE PUSH1 0x4 ADD PUSH2 0xAD2 SWAP3 SWAP2 SWAP1 PUSH2 0x26A5 JUMP JUMPDEST PUSH1 0x40 MLOAD DUP1 SWAP2 SUB SWAP1 REVERT JUMPDEST PUSH1 0x3 DUP2 PUSH1 0x6 ADD PUSH0 PUSH2 0x100 EXP DUP2 SLOAD DUP2 PUSH1 0xFF MUL NOT AND SWAP1 DUP4 PUSH1 0x6 DUP2 GT ISZERO PUSH2 0xB02 JUMPI PUSH2 0xB01 PUSH2 0x257E JUMP JUMPDEST JUMPDEST MUL OR SWAP1 SSTORE POP PUSH0 PUSH0 PUSH2 0xB16 DUP4 PUSH1 0x3 ADD SLOAD PUSH2 0x1FD5 JUMP JUMPDEST SWAP2 POP SWAP2 POP DUP4 PUSH32 0xC4BFC30EEB4D37AF0BFE8327E0ACFDC5E10DA19745A4677DD5F4244993D7CA98 DUP4 DUP4 PUSH1 0x40 MLOAD PUSH2 0xB4C SWAP3 SWAP2 SWAP1 PUSH2 0x271E JUMP JUMPDEST PUSH1 0x40 MLOAD DUP1 SWAP2 SUB SWAP1 LOG2 PUSH2 0xB81 DUP4 PUSH1 0x2 ADD PUSH0 SWAP1 SLOAD SWAP1 PUSH2 0x100 EXP SWAP1 DIV PUSH20 0xFFFFFFFFFFFFFFFFFFFFFFFFFFFFFFFFFFFFFFFF AND DUP4 PUSH2 0x2007 JUMP JUMPDEST PUSH2 0xBAB PUSH32 0x0 DUP3 PUSH2 0x2007 JUMP JUMPDEST POP POP POP PUSH0 PUSH1 0x4 PUSH0 PUSH2 0x100 EXP DUP2 SLOAD DUP2 PUSH1 0xFF MUL NOT AND SWAP1 DUP4 ISZERO ISZERO MUL OR SWAP1 SSTORE POP POP JUMP JUMPDEST PUSH1 0x1 DUP2 JUMP JUMPDEST PUSH1 0x4 PUSH0 SWAP1 SLOAD SWAP1 PUSH2 0x100 EXP SWAP1 DIV PUSH1 0xFF AND ISZERO PUSH2 0xC15 JUMPI PUSH1 0x40 MLOAD PUSH32 0xED3BA6A600000000000000000000000000000000000000000000000000000000 DUP2 MSTORE PUSH1 0x4 ADD PUSH1 0x40 MLOAD DUP1 SWAP2 SUB SWAP1 REVERT JUMPDEST PUSH1 0x1 PUSH1 0x4 PUSH0 PUSH2 0x100 EXP DUP2 SLOAD DUP2 PUSH1 0xFF MUL NOT AND SWAP1 DUP4 ISZERO ISZERO MUL OR SWAP1 SSTORE POP PUSH1 0x3 PUSH0 PUSH0 CALLER PUSH20 0xFFFFFFFFFFFFFFFFFFFFFFFFFFFFFFFFFFFFFFFF AND PUSH20 0xFFFFFFFFFFFFFFFFFFFFFFFFFFFFFFFFFFFFFFFF AND DUP2 MSTORE PUSH1 0x20 ADD SWAP1 DUP2 MSTORE PUSH1 0x20 ADD PUSH0 KECCAK256 PUSH0 DUP3 PUSH1 0xFF AND PUSH1 0xFF AND DUP2 MSTORE PUSH1 0x20 ADD SWAP1 DUP2 MSTORE PUSH1 0x20 ADD PUSH0 KECCAK256 PUSH0 SWAP1 SLOAD SWAP1 PUSH2 0x100 EXP SWAP1 DIV PUSH1 0xFF AND PUSH2 0xCC5 JUMPI PUSH1 0x40 MLOAD PUSH32 0x82B4290000000000000000000000000000000000000000000000000000000000 DUP2 MSTORE PUSH1 0x4 ADD PUSH1 0x40 MLOAD DUP1 SWAP2 SUB SWAP1 REVERT JUMPDEST PUSH0 PUSH2 0xCCF DUP5 PUSH2 0x1F24 JUMP JUMPDEST SWAP1 POP PUSH1 0x4 PUSH1 0x6 DUP2 GT ISZERO PUSH2 0xCE5 JUMPI PUSH2 0xCE4 PUSH2 0x257E JUMP JUMPDEST JUMPDEST DUP2 PUSH1 0x6 ADD PUSH0 SWAP1 SLOAD SWAP1 PUSH2 0x100 EXP SWAP1 DIV PUSH1 0xFF AND PUSH1 0x6 DUP2 GT ISZERO PUSH2 0xD08 JUMPI PUSH2 0xD07 PUSH2 0x257E JUMP JUMPDEST JUMPDEST EQ PUSH2 0xD5C JUMPI DUP4 DUP2 PUSH1 0x6 ADD PUSH0 SWAP1 SLOAD SWAP1 PUSH2 0x100 EXP SWAP1 DIV PUSH1 0xFF AND PUSH1 0x40 MLOAD PUSH32 0xA5889E500000000000000000000000000000000000000000000000000000000 DUP2 MSTORE PUSH1 0x4 ADD PUSH2 0xD53 SWAP3 SWAP2 SWAP1 PUSH2 0x26A5 JUMP JUMPDEST PUSH1 0x40 MLOAD DUP1 SWAP2 SUB SWAP1 REVERT JUMPDEST DUP3 ISZERO PUSH2 0xD93 JUMPI PUSH1 0x3 DUP2 PUSH1 0x6 ADD PUSH0 PUSH2 0x100 EXP DUP2 SLOAD DUP2 PUSH1 0xFF MUL NOT AND SWAP1 DUP4 PUSH1 0x6 DUP2 GT ISZERO PUSH2 0xD89 JUMPI PUSH2 0xD88 PUSH2 0x257E JUMP JUMPDEST JUMPDEST MUL OR SWAP1 SSTORE POP PUSH2 0xDC0 JUMP JUMPDEST PUSH1 0x5 DUP2 PUSH1 0x6 ADD PUSH0 PUSH2 0x100 EXP DUP2 SLOAD DUP2 PUSH1 0xFF MUL NOT AND SWAP1 DUP4 PUSH1 0x6 DUP2 GT ISZERO PUSH2 0xDBA JUMPI PUSH2 0xDB9 PUSH2 0x257E JUMP JUMPDEST JUMPDEST MUL OR SWAP1 SSTORE POP JUMPDEST DUP4 PUSH32 0x5A87909BFF68CAAAAF0B3FD9C74EECCC928832F879315E5C6FB7A73612F26C0C DUP5 PUSH1 0x40 MLOAD PUSH2 0xDF0 SWAP2 SWAP1 PUSH2 0x250D JUMP JUMPDEST PUSH1 0x40 MLOAD DUP1 SWAP2 SUB SWAP1 LOG2 DUP3 ISZERO PUSH2 0xEA9 JUMPI PUSH0 PUSH0 PUSH2 0xE0D DUP4 PUSH1 0x3 ADD SLOAD PUSH2 0x1FD5 JUMP JUMPDEST SWAP2 POP SWAP2 POP DUP6 PUSH32 0xC4BFC30EEB4D37AF0BFE8327E0ACFDC5E10DA19745A4677DD5F4244993D7CA98 DUP4 DUP4 PUSH1 0x40 MLOAD PUSH2 0xE43 SWAP3 SWAP2 SWAP1 PUSH2 0x271E JUMP JUMPDEST PUSH1 0x40 MLOAD DUP1 SWAP2 SUB SWAP1 LOG2 PUSH2 0xE78 DUP4 PUSH1 0x2 ADD PUSH0 SWAP1 SLOAD SWAP1 PUSH2 0x100 EXP SWAP1 DIV PUSH20 0xFFFFFFFFFFFFFFFFFFFFFFFFFFFFFFFFFFFFFFFF AND DUP4 PUSH2 0x2007 JUMP JUMPDEST PUSH2 0xEA2 PUSH32 0x0 DUP3 PUSH2 0x2007 JUMP JUMPDEST POP POP PUSH2 0xF17 JUMP JUMPDEST DUP4 PUSH32 0xB7C1F9298A18C36AF08BD57EABBFBEB04695F24D0438F67614741EC15FB5C4A9 DUP3 PUSH1 0x3 ADD SLOAD PUSH1 0x40 MLOAD PUSH2 0xEDD SWAP2 SWAP1 PUSH2 0x22C6 JUMP JUMPDEST PUSH1 0x40 MLOAD DUP1 SWAP2 SUB SWAP1 LOG2 PUSH2 0xF16 DUP2 PUSH1 0x1 ADD PUSH0 SWAP1 SLOAD SWAP1 PUSH2 0x100 EXP SWAP1 DIV PUSH20 0xFFFFFFFFFFFFFFFFFFFFFFFFFFFFFFFFFFFFFFFF AND DUP3 PUSH1 0x3 ADD SLOAD PUSH2 0x2007 JUMP JUMPDEST JUMPDEST POP POP PUSH0 PUSH1 0x4 PUSH0 PUSH2 0x100 EXP DUP2 SLOAD DUP2 PUSH1 0xFF MUL NOT AND SWAP1 DUP4 ISZERO ISZERO MUL OR SWAP1 SSTORE POP POP POP JUMP JUMPDEST PUSH1 0x4 PUSH0 SWAP1 SLOAD SWAP1 PUSH2 0x100 EXP SWAP1 DIV PUSH1 0xFF AND ISZERO PUSH2 0xF7C JUMPI PUSH1 0x40 MLOAD PUSH32 0xED3BA6A600000000000000000000000000000000000000000000000000000000 DUP2 MSTORE PUSH1 0x4 ADD PUSH1 0x40 MLOAD DUP1 SWAP2 SUB SWAP1 REVERT JUMPDEST PUSH1 0x1 PUSH1 0x4 PUSH0 PUSH2 0x100 EXP DUP2 SLOAD DUP2 PUSH1 0xFF MUL NOT AND SWAP1 DUP4 ISZERO ISZERO MUL OR SWAP1 SSTORE POP PUSH1 0x3 PUSH0 PUSH0 CALLER PUSH20 0xFFFFFFFFFFFFFFFFFFFFFFFFFFFFFFFFFFFFFFFF AND PUSH20 0xFFFFFFFFFFFFFFFFFFFFFFFFFFFFFFFFFFFFFFFF AND DUP2 MSTORE PUSH1 0x20 ADD SWAP1 DUP2 MSTORE PUSH1 0x20 ADD PUSH0 KECCAK256 PUSH0 DUP3 PUSH1 0xFF AND PUSH1 0xFF AND DUP2 MSTORE PUSH1 0x20 ADD SWAP1 DUP2 MSTORE PUSH1 0x20 ADD PUSH0 KECCAK256 PUSH0 SWAP1 SLOAD SWAP1 PUSH2 0x100 EXP SWAP1 DIV PUSH1 0xFF AND PUSH2 0x102C JUMPI PUSH1 0x40 MLOAD PUSH32 0x82B4290000000000000000000000000000000000000000000000000000000000 DUP2 MSTORE PUSH1 0x4 ADD PUSH1 0x40 MLOAD DUP1 SWAP2 SUB SWAP1 REVERT JUMPDEST PUSH0 PUSH2 0x1036 DUP4 PUSH2 0x1F24 JUMP JUMPDEST SWAP1 POP PUSH1 0x4 PUSH1 0x6 DUP2 GT ISZERO PUSH2 0x104C JUMPI PUSH2 0x104B PUSH2 0x257E JUMP JUMPDEST JUMPDEST DUP2 PUSH1 0x6 ADD PUSH0 SWAP1 SLOAD SWAP1 PUSH2 0x100 EXP SWAP1 DIV PUSH1 0xFF AND PUSH1 0x6 DUP2 GT ISZERO PUSH2 0x106F JUMPI PUSH2 0x106E PUSH2 0x257E JUMP JUMPDEST JUMPDEST EQ PUSH2 0x10C3 JUMPI DUP3 DUP2 PUSH1 0x6 ADD PUSH0 SWAP1 SLOAD SWAP1 PUSH2 0x100 EXP SWAP1 DIV PUSH1 0xFF AND PUSH1 0x40 MLOAD PUSH32 0xA5889E500000000000000000000000000000000000000000000000000000000 DUP2 MSTORE PUSH1 0x4 ADD PUSH2 0x10BA SWAP3 SWAP2 SWAP1 PUSH2 0x26A5 JUMP JUMPDEST PUSH1 0x40 MLOAD DUP1 SWAP2 SUB SWAP1 REVERT JUMPDEST PUSH0 DUP2 PUSH1 0x3 ADD SLOAD SWAP1 POP PUSH1 0x5 DUP3 PUSH1 0x6 ADD PUSH0 PUSH2 0x100 EXP DUP2 SLOAD DUP2 PUSH1 0xFF MUL NOT AND SWAP1 DUP4 PUSH1 0x6 DUP2 GT ISZERO PUSH2 0x10F2 JUMPI PUSH2 0x10F1 PUSH2 0x257E JUMP JUMPDEST JUMPDEST MUL OR SWAP1 SSTORE POP DUP4 PUSH32 0xB7C1F9298A18C36AF08BD57EABBFBEB04695F24D0438F67614741EC15FB5C4A9 DUP3 PUSH1 0x40 MLOAD PUSH2 0x1127 SWAP2 SWAP1 PUSH2 0x22C6 JUMP JUMPDEST PUSH1 0x40 MLOAD DUP1 SWAP2 SUB SWAP1 LOG2 PUSH2 0x115C DUP3 PUSH1 0x1 ADD PUSH0 SWAP1 SLOAD SWAP1 PUSH2 0x100 EXP SWAP1 DIV PUSH20 0xFFFFFFFFFFFFFFFFFFFFFFFFFFFFFFFFFFFFFFFF AND DUP3 PUSH2 0x2007 JUMP JUMPDEST POP POP POP PUSH0 PUSH1 0x4 PUSH0 PUSH2 0x100 EXP DUP2 SLOAD DUP2 PUSH1 0xFF MUL NOT AND SWAP1 DUP4 ISZERO ISZERO MUL OR SWAP1 SSTORE POP POP JUMP JUMPDEST PUSH1 0x1 PUSH0 PUSH0 CALLER PUSH20 0xFFFFFFFFFFFFFFFFFFFFFFFFFFFFFFFFFFFFFFFF AND PUSH20 0xFFFFFFFFFFFFFFFFFFFFFFFFFFFFFFFFFFFFFFFF AND DUP2 MSTORE PUSH1 0x20 ADD SWAP1 DUP2 MSTORE PUSH1 0x20 ADD PUSH0 KECCAK256 PUSH0 DUP3 PUSH1 0xFF AND PUSH1 0xFF AND DUP2 MSTORE PUSH1 0x20 ADD SWAP1 DUP2 MSTORE PUSH1 0x20 ADD PUSH0 KECCAK256 PUSH0 SWAP1 SLOAD SWAP1 PUSH2 0x100 EXP SWAP1 DIV PUSH1 0xFF AND PUSH2 0x1211 JUMPI PUSH1 0x40 MLOAD PUSH32 0x82B4290000000000000000000000000000000000000000000000000000000000 DUP2 MSTORE PUSH1 0x4 ADD PUSH1 0x40 MLOAD DUP1 SWAP2 SUB SWAP1 REVERT JUMPDEST PUSH0 PUSH20 0xFFFFFFFFFFFFFFFFFFFFFFFFFFFFFFFFFFFFFFFF AND DUP4 PUSH20 0xFFFFFFFFFFFFFFFFFFFFFFFFFFFFFFFFFFFFFFFF AND SUB PUSH2 0x1276 JUMPI PUSH1 0x40 MLOAD PUSH32 0xD92E233D00000000000000000000000000000000000000000000000000000000 DUP2 MSTORE PUSH1 0x4 ADD PUSH1 0x40 MLOAD DUP1 SWAP2 SUB SWAP1 REVERT JUMPDEST PUSH2 0x1280 DUP4 DUP4 PUSH2 0x20B4 JUMP JUMPDEST POP POP POP JUMP JUMPDEST PUSH0 PUSH2 0x128F DUP3 PUSH2 0x1F24 JUMP JUMPDEST SWAP1 POP CALLER PUSH20 0xFFFFFFFFFFFFFFFFFFFFFFFFFFFFFFFFFFFFFFFF AND DUP2 PUSH1 0x1 ADD PUSH0 SWAP1 SLOAD SWAP1 PUSH2 0x100 EXP SWAP1 DIV PUSH20 0xFFFFFFFFFFFFFFFFFFFFFFFFFFFFFFFFFFFFFFFF AND PUSH20 0xFFFFFFFFFFFFFFFFFFFFFFFFFFFFFFFFFFFFFFFF AND EQ PUSH2 0x1324 JUMPI DUP2 PUSH1 0x40 MLOAD PUSH32 0x9B4C33D00000000000000000000000000000000000000000000000000000000 DUP2 MSTORE PUSH1 0x4 ADD PUSH2 0x131B SWAP2 SWAP1 PUSH2 0x22C6 JUMP JUMPDEST PUSH1 0x40 MLOAD DUP1 SWAP2 SUB SWAP1 REVERT JUMPDEST PUSH0 PUSH1 0x6 DUP2 GT ISZERO PUSH2 0x1337 JUMPI PUSH2 0x1336 PUSH2 0x257E JUMP JUMPDEST JUMPDEST DUP2 PUSH1 0x6 ADD PUSH0 SWAP1 SLOAD SWAP1 PUSH2 0x100 EXP SWAP1 DIV PUSH1 0xFF AND PUSH1 0x6 DUP2 GT ISZERO PUSH2 0x135A JUMPI PUSH2 0x1359 PUSH2 0x257E JUMP JUMPDEST JUMPDEST EQ PUSH2 0x13AE JUMPI DUP2 DUP2 PUSH1 0x6 ADD PUSH0 SWAP1 SLOAD SWAP1 PUSH2 0x100 EXP SWAP1 DIV PUSH1 0xFF AND PUSH1 0x40 MLOAD PUSH32 0xA5889E500000000000000000000000000000000000000000000000000000000 DUP2 MSTORE PUSH1 0x4 ADD PUSH2 0x13A5 SWAP3 SWAP2 SWAP1 PUSH2 0x26A5 JUMP JUMPDEST PUSH1 0x40 MLOAD DUP1 SWAP2 SUB SWAP1 REVERT JUMPDEST PUSH1 0x6 DUP2 PUSH1 0x6 ADD PUSH0 PUSH2 0x100 EXP DUP2 SLOAD DUP2 PUSH1 0xFF MUL NOT AND SWAP1 DUP4 PUSH1 0x6 DUP2 GT ISZERO PUSH2 0x13D5 JUMPI PUSH2 0x13D4 PUSH2 0x257E JUMP JUMPDEST JUMPDEST MUL OR SWAP1 SSTORE POP DUP2 PUSH32 0xC41D93B8BFBF9FD7CF5BFE271FD649AB6A6FEC0EA101C23B82A2A28ECA2533A9 PUSH1 0x40 MLOAD PUSH1 0x40 MLOAD DUP1 SWAP2 SUB SWAP1 LOG2 POP POP JUMP JUMPDEST PUSH0 PUSH2 0x1417 DUP4 PUSH1 0x2 PUSH2 0x180C JUMP JUMPDEST PUSH2 0x144D JUMPI PUSH1 0x40 MLOAD PUSH32 0x82B4290000000000000000000000000000000000000000000000000000000000 DUP2 MSTORE PUSH1 0x4 ADD PUSH1 0x40 MLOAD DUP1 SWAP2 SUB SWAP1 REVERT JUMPDEST CALLER PUSH20 0xFFFFFFFFFFFFFFFFFFFFFFFFFFFFFFFFFFFFFFFF AND DUP4 PUSH20 0xFFFFFFFFFFFFFFFFFFFFFFFFFFFFFFFFFFFFFFFF AND SUB PUSH2 0x14B2 JUMPI PUSH1 0x40 MLOAD PUSH32 0x82B4290000000000000000000000000000000000000000000000000000000000 DUP2 MSTORE PUSH1 0x4 ADD PUSH1 0x40 MLOAD DUP1 SWAP2 SUB SWAP1 REVERT JUMPDEST PUSH1 0x3 PUSH0 DUP2 SLOAD DUP1 SWAP3 SWAP2 SWAP1 PUSH2 0x14C4 SWAP1 PUSH2 0x2772 JUMP JUMPDEST SWAP2 SWAP1 POP SSTORE SWAP1 POP PUSH1 0x40 MLOAD DUP1 PUSH1 0xE0 ADD PUSH1 0x40 MSTORE DUP1 DUP3 DUP2 MSTORE PUSH1 0x20 ADD CALLER PUSH20 0xFFFFFFFFFFFFFFFFFFFFFFFFFFFFFFFFFFFFFFFF AND DUP2 MSTORE PUSH1 0x20 ADD DUP5 PUSH20 0xFFFFFFFFFFFFFFFFFFFFFFFFFFFFFFFFFFFFFFFF AND DUP2 MSTORE PUSH1 0x20 ADD PUSH0 DUP2 MSTORE PUSH1 0x20 ADD TIMESTAMP DUP2 MSTORE PUSH1 0x20 ADD DUP4 DUP2 MSTORE PUSH1 0x20 ADD PUSH0 PUSH1 0x6 DUP2 GT ISZERO PUSH2 0x1538 JUMPI PUSH2 0x1537 PUSH2 0x257E JUMP JUMPDEST JUMPDEST DUP2 MSTORE POP PUSH1 0x5 PUSH0 DUP4 DUP2 MSTORE PUSH1 0x20 ADD SWAP1 DUP2 MSTORE PUSH1 0x20 ADD PUSH0 KECCAK256 PUSH0 DUP3 ADD MLOAD DUP2 PUSH0 ADD SSTORE PUSH1 0x20 DUP3 ADD MLOAD DUP2 PUSH1 0x1 ADD PUSH0 PUSH2 0x100 EXP DUP2 SLOAD DUP2 PUSH20 0xFFFFFFFFFFFFFFFFFFFFFFFFFFFFFFFFFFFFFFFF MUL NOT AND SWAP1 DUP4 PUSH20 0xFFFFFFFFFFFFFFFFFFFFFFFFFFFFFFFFFFFFFFFF AND MUL OR SWAP1 SSTORE POP PUSH1 0x40 DUP3 ADD MLOAD DUP2 PUSH1 0x2 ADD PUSH0 PUSH2 0x100 EXP DUP2 SLOAD DUP2 PUSH20 0xFFFFFFFFFFFFFFFFFFFFFFFFFFFFFFFFFFFFFFFF MUL NOT AND SWAP1 DUP4 PUSH20 0xFFFFFFFFFFFFFFFFFFFFFFFFFFFFFFFFFFFFFFFF AND MUL OR SWAP1 SSTORE POP PUSH1 0x60 DUP3 ADD MLOAD DUP2 PUSH1 0x3 ADD SSTORE PUSH1 0x80 DUP3 ADD MLOAD DUP2 PUSH1 0x4 ADD SSTORE PUSH1 0xA0 DUP3 ADD MLOAD DUP2 PUSH1 0x5 ADD SSTORE PUSH1 0xC0 DUP3 ADD MLOAD DUP2 PUSH1 0x6 ADD PUSH0 PUSH2 0x100 EXP DUP2 SLOAD DUP2 PUSH1 0xFF MUL NOT AND SWAP1 DUP4 PUSH1 0x6 DUP2 GT ISZERO PUSH2 0x1628 JUMPI PUSH2 0x1627 PUSH2 0x257E JUMP JUMPDEST JUMPDEST MUL OR SWAP1 SSTORE POP SWAP1 POP POP DUP3 PUSH20 0xFFFFFFFFFFFFFFFFFFFFFFFFFFFFFFFFFFFFFFFF AND CALLER PUSH20 0xFFFFFFFFFFFFFFFFFFFFFFFFFFFFFFFFFFFFFFFF AND DUP3 PUSH32 0x7DE7BDE3CA286D550A77F3D882ED0362F8A4D6200740C1CFCAB9A661088C3609 DUP6 PUSH1 0x40 MLOAD PUSH2 0x168E SWAP2 SWAP1 PUSH2 0x27C8 JUMP JUMPDEST PUSH1 0x40 MLOAD DUP1 SWAP2 SUB SWAP1 LOG4 SWAP3 SWAP2 POP POP JUMP JUMPDEST PUSH32 0x0 DUP2 JUMP JUMPDEST PUSH1 0x1 PUSH0 SWAP1 SLOAD SWAP1 PUSH2 0x100 EXP SWAP1 DIV PUSH20 0xFFFFFFFFFFFFFFFFFFFFFFFFFFFFFFFFFFFFFFFF AND DUP2 JUMP JUMPDEST PUSH1 0x1 PUSH0 PUSH0 CALLER PUSH20 0xFFFFFFFFFFFFFFFFFFFFFFFFFFFFFFFFFFFFFFFF AND PUSH20 0xFFFFFFFFFFFFFFFFFFFFFFFFFFFFFFFFFFFFFFFF AND DUP2 MSTORE PUSH1 0x20 ADD SWAP1 DUP2 MSTORE PUSH1 0x20 ADD PUSH0 KECCAK256 PUSH0 DUP3 PUSH1 0xFF AND PUSH1 0xFF AND DUP2 MSTORE PUSH1 0x20 ADD SWAP1 DUP2 MSTORE PUSH1 0x20 ADD PUSH0 KECCAK256 PUSH0 SWAP1 SLOAD SWAP1 PUSH2 0x100 EXP SWAP1 DIV PUSH1 0xFF AND PUSH2 0x177B JUMPI PUSH1 0x40 MLOAD PUSH32 0x82B4290000000000000000000000000000000000000000000000000000000000 DUP2 MSTORE PUSH1 0x4 ADD PUSH1 0x40 MLOAD DUP1 SWAP2 SUB SWAP1 REVERT JUMPDEST PUSH2 0x1F4 DUP3 GT ISZERO PUSH2 0x17C6 JUMPI DUP2 PUSH2 0x1F4 PUSH1 0x40 MLOAD PUSH32 0xE757126A00000000000000000000000000000000000000000000000000000000 DUP2 MSTORE PUSH1 0x4 ADD PUSH2 0x17BD SWAP3 SWAP2 SWAP1 PUSH2 0x271E JUMP JUMPDEST PUSH1 0x40 MLOAD DUP1 SWAP2 SUB SWAP1 REVERT JUMPDEST PUSH32 0x528D9479E9F9889A87A3C30C7F7BA537E5E59C4C85A37733B16E57C62DF61302 PUSH1 0x2 SLOAD DUP4 PUSH1 0x40 MLOAD PUSH2 0x17F9 SWAP3 SWAP2 SWAP1 PUSH2 0x271E JUMP JUMPDEST PUSH1 0x40 MLOAD DUP1 SWAP2 SUB SWAP1 LOG1 DUP2 PUSH1 0x2 DUP2 SWAP1 SSTORE POP POP POP JUMP JUMPDEST PUSH0 PUSH0 PUSH0 DUP5 PUSH20 0xFFFFFFFFFFFFFFFFFFFFFFFFFFFFFFFFFFFFFFFF AND PUSH20 0xFFFFFFFFFFFFFFFFFFFFFFFFFFFFFFFFFFFFFFFF AND DUP2 MSTORE PUSH1 0x20 ADD SWAP1 DUP2 MSTORE PUSH1 0x20 ADD PUSH0 KECCAK256 PUSH0 DUP4 PUSH1 0xFF AND PUSH1 0xFF AND DUP2 MSTORE PUSH1 0x20 ADD SWAP1 DUP2 MSTORE PUSH1 0x20 ADD PUSH0 KECCAK256 PUSH0 SWAP1 SLOAD SWAP1 PUSH2 0x100 EXP SWAP1 DIV PUSH1 0xFF AND SWAP1 POP SWAP3 SWAP2 POP POP JUMP JUMPDEST PUSH1 0x1 PUSH0 PUSH0 CALLER PUSH20 0xFFFFFFFFFFFFFFFFFFFFFFFFFFFFFFFFFFFFFFFF AND PUSH20 0xFFFFFFFFFFFFFFFFFFFFFFFFFFFFFFFFFFFFFFFF AND DUP2 MSTORE PUSH1 0x20 ADD SWAP1 DUP2 MSTORE PUSH1 0x20 ADD PUSH0 KECCAK256 PUSH0 DUP3 PUSH1 0xFF AND PUSH1 0xFF AND DUP2 MSTORE PUSH1 0x20 ADD SWAP1 DUP2 MSTORE PUSH1 0x20 ADD PUSH0 KECCAK256 PUSH0 SWAP1 SLOAD SWAP1 PUSH2 0x100 EXP SWAP1 DIV PUSH1 0xFF AND PUSH2 0x1909 JUMPI PUSH1 0x40 MLOAD PUSH32 0x82B4290000000000000000000000000000000000000000000000000000000000 DUP2 MSTORE PUSH1 0x4 ADD PUSH1 0x40 MLOAD DUP1 SWAP2 SUB SWAP1 REVERT JUMPDEST PUSH0 PUSH20 0xFFFFFFFFFFFFFFFFFFFFFFFFFFFFFFFFFFFFFFFF AND DUP3 PUSH20 0xFFFFFFFFFFFFFFFFFFFFFFFFFFFFFFFFFFFFFFFF AND SUB PUSH2 0x196E JUMPI PUSH1 0x40 MLOAD PUSH32 0xD92E233D00000000000000000000000000000000000000000000000000000000 DUP2 MSTORE PUSH1 0x4 ADD PUSH1 0x40 MLOAD DUP1 SWAP2 SUB SWAP1 REVERT JUMPDEST PUSH32 0xA4EB09E14CF0B6177B79042A04365517D9B189A50EC69EAABC40A6440103C90 PUSH1 0x1 PUSH0 SWAP1 SLOAD SWAP1 PUSH2 0x100 EXP SWAP1 DIV PUSH20 0xFFFFFFFFFFFFFFFFFFFFFFFFFFFFFFFFFFFFFFFF AND DUP4 PUSH1 0x40 MLOAD PUSH2 0x19C0 SWAP3 SWAP2 SWAP1 PUSH2 0x27E1 JUMP JUMPDEST PUSH1 0x40 MLOAD DUP1 SWAP2 SUB SWAP1 LOG1 DUP2 PUSH1 0x1 PUSH0 PUSH2 0x100 EXP DUP2 SLOAD DUP2 PUSH20 0xFFFFFFFFFFFFFFFFFFFFFFFFFFFFFFFFFFFFFFFF MUL NOT AND SWAP1 DUP4 PUSH20 0xFFFFFFFFFFFFFFFFFFFFFFFFFFFFFFFFFFFFFFFF AND MUL OR SWAP1 SSTORE POP POP POP JUMP JUMPDEST PUSH1 0x3 DUP2 JUMP JUMPDEST PUSH1 0x4 PUSH0 SWAP1 SLOAD SWAP1 PUSH2 0x100 EXP SWAP1 DIV PUSH1 0xFF AND ISZERO PUSH2 0x1A57 JUMPI PUSH1 0x40 MLOAD PUSH32 0xED3BA6A600000000000000000000000000000000000000000000000000000000 DUP2 MSTORE PUSH1 0x4 ADD PUSH1 0x40 MLOAD DUP1 SWAP2 SUB SWAP1 REVERT JUMPDEST PUSH1 0x1 PUSH1 0x4 PUSH0 PUSH2 0x100 EXP DUP2 SLOAD DUP2 PUSH1 0xFF MUL NOT AND SWAP1 DUP4 ISZERO ISZERO MUL OR SWAP1 SSTORE POP PUSH0 PUSH2 0x1A7B DUP3 PUSH2 0x1F24 JUMP JUMPDEST SWAP1 POP CALLER PUSH20 0xFFFFFFFFFFFFFFFFFFFFFFFFFFFFFFFFFFFFFFFF AND DUP2 PUSH1 0x1 ADD PUSH0 SWAP1 SLOAD SWAP1 PUSH2 0x100 EXP SWAP1 DIV PUSH20 0xFFFFFFFFFFFFFFFFFFFFFFFFFFFFFFFFFFFFFFFF AND PUSH20 0xFFFFFFFFFFFFFFFFFFFFFFFFFFFFFFFFFFFFFFFF AND EQ PUSH2 0x1B10 JUMPI DUP2 PUSH1 0x40 MLOAD PUSH32 0x9B4C33D00000000000000000000000000000000000000000000000000000000 DUP2 MSTORE PUSH1 0x4 ADD PUSH2 0x1B07 SWAP2 SWAP1 PUSH2 0x22C6 JUMP JUMPDEST PUSH1 0x40 MLOAD DUP1 SWAP2 SUB SWAP1 REVERT JUMPDEST PUSH0 PUSH1 0x6 DUP2 GT ISZERO PUSH2 0x1B23 JUMPI PUSH2 0x1B22 PUSH2 0x257E JUMP JUMPDEST JUMPDEST DUP2 PUSH1 0x6 ADD PUSH0 SWAP1 SLOAD SWAP1 PUSH2 0x100 EXP SWAP1 DIV PUSH1 0xFF AND PUSH1 0x6 DUP2 GT ISZERO PUSH2 0x1B46 JUMPI PUSH2 0x1B45 PUSH2 0x257E JUMP JUMPDEST JUMPDEST EQ PUSH2 0x1B9A JUMPI DUP2 DUP2 PUSH1 0x6 ADD PUSH0 SWAP1 SLOAD SWAP1 PUSH2 0x100 EXP SWAP1 DIV PUSH1 0xFF AND PUSH1 0x40 MLOAD PUSH32 0xA5889E500000000000000000000000000000000000000000000000000000000 DUP2 MSTORE PUSH1 0x4 ADD PUSH2 0x1B91 SWAP3 SWAP2 SWAP1 PUSH2 0x26A5 JUMP JUMPDEST PUSH1 0x40 MLOAD DUP1 SWAP2 SUB SWAP1 REVERT JUMPDEST PUSH0 CALLVALUE SUB PUSH2 0x1BD3 JUMPI PUSH1 0x40 MLOAD PUSH32 0x1F2A200500000000000000000000000000000000000000000000000000000000 DUP2 MSTORE PUSH1 0x4 ADD PUSH1 0x40 MLOAD DUP1 SWAP2 SUB SWAP1 REVERT JUMPDEST CALLVALUE DUP2 PUSH1 0x3 ADD DUP2 SWAP1 SSTORE POP PUSH1 0x1 DUP2 PUSH1 0x6 ADD PUSH0 PUSH2 0x100 EXP DUP2 SLOAD DUP2 PUSH1 0xFF MUL NOT AND SWAP1 DUP4 PUSH1 0x6 DUP2 GT ISZERO PUSH2 0x1C03 JUMPI PUSH2 0x1C02 PUSH2 0x257E JUMP JUMPDEST JUMPDEST MUL OR SWAP1 SSTORE POP DUP2 PUSH32 0x86441EC7B38B2D00ECF92F8283F1303D21D33149D841DC49C80F1BDE8F7C3886 CALLVALUE PUSH1 0x40 MLOAD PUSH2 0x1C38 SWAP2 SWAP1 PUSH2 0x22C6 JUMP JUMPDEST PUSH1 0x40 MLOAD DUP1 SWAP2 SUB SWAP1 LOG2 POP PUSH0 PUSH1 0x4 PUSH0 PUSH2 0x100 EXP DUP2 SLOAD DUP2 PUSH1 0xFF MUL NOT AND SWAP1 DUP4 ISZERO ISZERO MUL OR SWAP1 SSTORE POP POP JUMP JUMPDEST PUSH1 0x2 DUP2 JUMP JUMPDEST PUSH0 SELFBALANCE SWAP1 POP SWAP1 JUMP JUMPDEST PUSH2 0x1C71 PUSH2 0x2168 JUMP JUMPDEST PUSH2 0x1C7A DUP3 PUSH2 0x1F24 JUMP JUMPDEST PUSH1 0x40 MLOAD DUP1 PUSH1 0xE0 ADD PUSH1 0x40 MSTORE SWAP1 DUP2 PUSH0 DUP3 ADD SLOAD DUP2 MSTORE PUSH1 0x20 ADD PUSH1 0x1 DUP3 ADD PUSH0 SWAP1 SLOAD SWAP1 PUSH2 0x100 EXP SWAP1 DIV PUSH20 0xFFFFFFFFFFFFFFFFFFFFFFFFFFFFFFFFFFFFFFFF AND PUSH20 0xFFFFFFFFFFFFFFFFFFFFFFFFFFFFFFFFFFFFFFFF AND PUSH20 0xFFFFFFFFFFFFFFFFFFFFFFFFFFFFFFFFFFFFFFFF AND DUP2 MSTORE PUSH1 0x20 ADD PUSH1 0x2 DUP3 ADD PUSH0 SWAP1 SLOAD SWAP1 PUSH2 0x100 EXP SWAP1 DIV PUSH20 0xFFFFFFFFFFFFFFFFFFFFFFFFFFFFFFFFFFFFFFFF AND PUSH20 0xFFFFFFFFFFFFFFFFFFFFFFFFFFFFFFFFFFFFFFFF AND PUSH20 0xFFFFFFFFFFFFFFFFFFFFFFFFFFFFFFFFFFFFFFFF AND DUP2 MSTORE PUSH1 0x20 ADD PUSH1 0x3 DUP3 ADD SLOAD DUP2 MSTORE PUSH1 0x20 ADD PUSH1 0x4 DUP3 ADD SLOAD DUP2 MSTORE PUSH1 0x20 ADD PUSH1 0x5 DUP3 ADD SLOAD DUP2 MSTORE PUSH1 0x20 ADD PUSH1 0x6 DUP3 ADD PUSH0 SWAP1 SLOAD SWAP1 PUSH2 0x100 EXP SWAP1 DIV PUSH1 0xFF AND PUSH1 0x6 DUP2 GT ISZERO PUSH2 0x1D7A JUMPI PUSH2 0x1D79 PUSH2 0x257E JUMP JUMPDEST JUMPDEST PUSH1 0x6 DUP2 GT ISZERO PUSH2 0x1D8C JUMPI PUSH2 0x1D8B PUSH2 0x257E JUMP JUMPDEST JUMPDEST DUP2 MSTORE POP POP SWAP1 POP SWAP2 SWAP1 POP JUMP JUMPDEST PUSH2 0x1F4 DUP2 JUMP JUMPDEST PUSH0 PUSH2 0x1DA7 DUP3 PUSH2 0x1F24 JUMP JUMPDEST SWAP1 POP CALLER PUSH20 0xFFFFFFFFFFFFFFFFFFFFFFFFFFFFFFFFFFFFFFFF AND DUP2 PUSH1 0x2 ADD PUSH0 SWAP1 SLOAD SWAP1 PUSH2 0x100 EXP SWAP1 DIV PUSH20 0xFFFFFFFFFFFFFFFFFFFFFFFFFFFFFFFFFFFFFFFF AND PUSH20 0xFFFFFFFFFFFFFFFFFFFFFFFFFFFFFFFFFFFFFFFF AND EQ PUSH2 0x1E3C JUMPI DUP2 PUSH1 0x40 MLOAD PUSH32 0xA7E6777800000000000000000000000000000000000000000000000000000000 DUP2 MSTORE PUSH1 0x4 ADD PUSH2 0x1E33 SWAP2 SWAP1 PUSH2 0x22C6 JUMP JUMPDEST PUSH1 0x40 MLOAD DUP1 SWAP2 SUB SWAP1 REVERT JUMPDEST PUSH1 0x1 PUSH1 0x6 DUP2 GT ISZERO PUSH2 0x1E50 JUMPI PUSH2 0x1E4F PUSH2 0x257E JUMP JUMPDEST JUMPDEST DUP2 PUSH1 0x6 ADD PUSH0 SWAP1 SLOAD SWAP1 PUSH2 0x100 EXP SWAP1 DIV PUSH1 0xFF AND PUSH1 0x6 DUP2 GT ISZERO PUSH2 0x1E73 JUMPI PUSH2 0x1E72 PUSH2 0x257E JUMP JUMPDEST JUMPDEST EQ PUSH2 0x1EC7 JUMPI DUP2 DUP2 PUSH1 0x6 ADD PUSH0 SWAP1 SLOAD SWAP1 PUSH2 0x100 EXP SWAP1 DIV PUSH1 0xFF AND PUSH1 0x40 MLOAD PUSH32 0xA5889E500000000000000000000000000000000000000000000000000000000 DUP2 MSTORE PUSH1 0x4 ADD PUSH2 0x1EBE SWAP3 SWAP2 SWAP1 PUSH2 0x26A5 JUMP JUMPDEST PUSH1 0x40 MLOAD DUP1 SWAP2 SUB SWAP1 REVERT JUMPDEST PUSH1 0x2 DUP2 PUSH1 0x6 ADD PUSH0 PUSH2 0x100 EXP DUP2 SLOAD DUP2 PUSH1 0xFF MUL NOT AND SWAP1 DUP4 PUSH1 0x6 DUP2 GT ISZERO PUSH2 0x1EEE JUMPI PUSH2 0x1EED PUSH2 0x257E JUMP JUMPDEST JUMPDEST MUL OR SWAP1 SSTORE POP DUP2 PUSH32 0xE3CE5F36666AEC295B2ED1A858CAF4782066E5E8C1A5A5DA7BA6551B14FCFDCB PUSH1 0x40 MLOAD PUSH1 0x40 MLOAD DUP1 SWAP2 SUB SWAP1 LOG2 POP POP JUMP JUMPDEST PUSH0 PUSH0 PUSH1 0x5 PUSH0 DUP5 DUP2 MSTORE PUSH1 0x20 ADD SWAP1 DUP2 MSTORE PUSH1 0x20 ADD PUSH0 KECCAK256 SWAP1 POP PUSH0 PUSH20 0xFFFFFFFFFFFFFFFFFFFFFFFFFFFFFFFFFFFFFFFF AND DUP2 PUSH1 0x1 ADD PUSH0 SWAP1 SLOAD SWAP1 PUSH2 0x100 EXP SWAP1 DIV PUSH20 0xFFFFFFFFFFFFFFFFFFFFFFFFFFFFFFFFFFFFFFFF AND PUSH20 0xFFFFFFFFFFFFFFFFFFFFFFFFFFFFFFFFFFFFFFFF AND SUB PUSH2 0x1FCC JUMPI DUP3 PUSH1 0x40 MLOAD PUSH32 0x4E90BADC00000000000000000000000000000000000000000000000000000000 DUP2 MSTORE PUSH1 0x4 ADD PUSH2 0x1FC3 SWAP2 SWAP1 PUSH2 0x22C6 JUMP JUMPDEST PUSH1 0x40 MLOAD DUP1 SWAP2 SUB SWAP1 REVERT JUMPDEST DUP1 SWAP2 POP POP SWAP2 SWAP1 POP JUMP JUMPDEST PUSH0 PUSH0 PUSH2 0x2710 PUSH1 0x2 SLOAD DUP5 PUSH2 0x1FE8 SWAP2 SWAP1 PUSH2 0x2808 JUMP JUMPDEST PUSH2 0x1FF2 SWAP2 SWAP1 PUSH2 0x2876 JUMP JUMPDEST SWAP1 POP DUP1 DUP4 PUSH2 0x2000 SWAP2 SWAP1 PUSH2 0x28A6 JUMP JUMPDEST SWAP2 POP SWAP2 POP SWAP2 JUMP JUMPDEST PUSH0 DUP2 SUB ISZERO PUSH2 0x20B0 JUMPI PUSH0 DUP3 PUSH20 0xFFFFFFFFFFFFFFFFFFFFFFFFFFFFFFFFFFFFFFFF AND DUP3 PUSH1 0x40 MLOAD PUSH2 0x2034 SWAP1 PUSH2 0x2906 JUMP JUMPDEST PUSH0 PUSH1 0x40 MLOAD DUP1 DUP4 SUB DUP2 DUP6 DUP8 GAS CALL SWAP3 POP POP POP RETURNDATASIZE DUP1 PUSH0 DUP2 EQ PUSH2 0x206E JUMPI PUSH1 0x40 MLOAD SWAP2 POP PUSH1 0x1F NOT PUSH1 0x3F RETURNDATASIZE ADD AND DUP3 ADD PUSH1 0x40 MSTORE RETURNDATASIZE DUP3 MSTORE RETURNDATASIZE PUSH0 PUSH1 0x20 DUP5 ADD RETURNDATACOPY PUSH2 0x2073 JUMP JUMPDEST PUSH1 0x60 SWAP2 POP JUMPDEST POP POP SWAP1 POP DUP1 PUSH2 0x20AE JUMPI PUSH1 0x40 MLOAD PUSH32 0x90B8EC1800000000000000000000000000000000000000000000000000000000 DUP2 MSTORE PUSH1 0x4 ADD PUSH1 0x40 MLOAD DUP1 SWAP2 SUB SWAP1 REVERT JUMPDEST POP JUMPDEST POP POP JUMP JUMPDEST PUSH1 0x1 PUSH0 PUSH0 DUP5 PUSH20 0xFFFFFFFFFFFFFFFFFFFFFFFFFFFFFFFFFFFFFFFF AND PUSH20 0xFFFFFFFFFFFFFFFFFFFFFFFFFFFFFFFFFFFFFFFF AND DUP2 MSTORE PUSH1 0x20 ADD SWAP1 DUP2 MSTORE PUSH1 0x20 ADD PUSH0 KECCAK256 PUSH0 DUP4 PUSH1 0xFF AND PUSH1 0xFF AND DUP2 MSTORE PUSH1 0x20 ADD SWAP1 DUP2 MSTORE PUSH1 0x20 ADD PUSH0 KECCAK256 PUSH0 PUSH2 0x100 EXP DUP2 SLOAD DUP2 PUSH1 0xFF MUL NOT AND SWAP1 DUP4 ISZERO ISZERO MUL OR SWAP1 SSTORE POP DUP1 PUSH1 0xFF AND DUP3 PUSH20 0xFFFFFFFFFFFFFFFFFFFFFFFFFFFFFFFFFFFFFFFF AND PUSH32 0xAA259565575C834BC07E74DCA784B4071676133AC78513B431AFB6EE7EDAE121 PUSH1 0x40 MLOAD PUSH1 0x40 MLOAD DUP1 SWAP2 SUB SWAP1 LOG3 POP POP JUMP JUMPDEST PUSH1 0x40 MLOAD DUP1 PUSH1 0xE0 ADD PUSH1 0x40 MSTORE DUP1 PUSH0 DUP2 MSTORE PUSH1 0x20 ADD PUSH0 PUSH20 0xFFFFFFFFFFFFFFFFFFFFFFFFFFFFFFFFFFFFFFFF AND DUP2 MSTORE PUSH1 0x20 ADD PUSH0 PUSH20 0xFFFFFFFFFFFFFFFFFFFFFFFFFFFFFFFFFFFFFFFF AND DUP2 MSTORE PUSH1 0x20 ADD PUSH0 DUP2 MSTORE PUSH1 0x20 ADD PUSH0 DUP2 MSTORE PUSH1 0x20 ADD PUSH0 DUP2 MSTORE PUSH1 0x20 ADD PUSH0 PUSH1 0x6 DUP2 GT ISZERO PUSH2 0x21D6 JUMPI PUSH2 0x21D5 PUSH2 0x257E JUMP JUMPDEST JUMPDEST DUP2 MSTORE POP SWAP1 JUMP JUMPDEST PUSH0 PUSH0 REVERT JUMPDEST PUSH0 PUSH20 0xFFFFFFFFFFFFFFFFFFFFFFFFFFFFFFFFFFFFFFFF DUP3 AND SWAP1 POP SWAP2 SWAP1 POP JUMP JUMPDEST PUSH0 PUSH2 0x2209 DUP3 PUSH2 0x21E0 JUMP JUMPDEST SWAP1 POP SWAP2 SWAP1 POP JUMP JUMPDEST PUSH2 0x2219 DUP2 PUSH2 0x21FF JUMP JUMPDEST DUP2 EQ PUSH2 0x2223 JUMPI PUSH0 PUSH0 REVERT JUMPDEST POP JUMP JUMPDEST PUSH0 DUP2 CALLDATALOAD SWAP1 POP PUSH2 0x2234 DUP2 PUSH2 0x2210 JUMP JUMPDEST SWAP3 SWAP2 POP POP JUMP JUMPDEST PUSH0 PUSH1 0xFF DUP3 AND SWAP1 POP SWAP2 SWAP1 POP JUMP JUMPDEST PUSH2 0x224F DUP2 PUSH2 0x223A JUMP JUMPDEST DUP2 EQ PUSH2 0x2259 JUMPI PUSH0 PUSH0 REVERT JUMPDEST POP JUMP JUMPDEST PUSH0 DUP2 CALLDATALOAD SWAP1 POP PUSH2 0x226A DUP2 PUSH2 0x2246 JUMP JUMPDEST SWAP3 SWAP2 POP POP JUMP JUMPDEST PUSH0 PUSH0 PUSH1 0x40 DUP4 DUP6 SUB SLT ISZERO PUSH2 0x2286 JUMPI PUSH2 0x2285 PUSH2 0x21DC JUMP JUMPDEST JUMPDEST PUSH0 PUSH2 0x2293 DUP6 DUP3 DUP7 ADD PUSH2 0x2226 JUMP JUMPDEST SWAP3 POP POP PUSH1 0x20 PUSH2 0x22A4 DUP6 DUP3 DUP7 ADD PUSH2 0x225C JUMP JUMPDEST SWAP2 POP POP SWAP3 POP SWAP3 SWAP1 POP JUMP JUMPDEST PUSH0 DUP2 SWAP1 POP SWAP2 SWAP1 POP JUMP JUMPDEST PUSH2 0x22C0 DUP2 PUSH2 0x22AE JUMP JUMPDEST DUP3 MSTORE POP POP JUMP JUMPDEST PUSH0 PUSH1 0x20 DUP3 ADD SWAP1 POP PUSH2 0x22D9 PUSH0 DUP4 ADD DUP5 PUSH2 0x22B7 JUMP JUMPDEST SWAP3 SWAP2 POP POP JUMP JUMPDEST PUSH2 0x22E8 DUP2 PUSH2 0x22AE JUMP JUMPDEST DUP2 EQ PUSH2 0x22F2 JUMPI PUSH0 PUSH0 REVERT JUMPDEST POP JUMP JUMPDEST PUSH0 DUP2 CALLDATALOAD SWAP1 POP PUSH2 0x2303 DUP2 PUSH2 0x22DF JUMP JUMPDEST SWAP3 SWAP2 POP POP JUMP JUMPDEST PUSH0 PUSH1 0x20 DUP3 DUP5 SUB SLT ISZERO PUSH2 0x231E JUMPI PUSH2 0x231D PUSH2 0x21DC JUMP JUMPDEST JUMPDEST PUSH0 PUSH2 0x232B DUP5 DUP3 DUP6 ADD PUSH2 0x22F5 JUMP JUMPDEST SWAP2 POP POP SWAP3 SWAP2 POP POP JUMP JUMPDEST PUSH2 0x233D DUP2 PUSH2 0x223A JUMP JUMPDEST DUP3 MSTORE POP POP JUMP JUMPDEST PUSH0 PUSH1 0x20 DUP3 ADD SWAP1 POP PUSH2 0x2356 PUSH0 DUP4 ADD DUP5 PUSH2 0x2334 JUMP JUMPDEST SWAP3 SWAP2 POP POP JUMP JUMPDEST PUSH0 DUP2 ISZERO ISZERO SWAP1 POP SWAP2 SWAP1 POP JUMP JUMPDEST PUSH2 0x2370 DUP2 PUSH2 0x235C JUMP JUMPDEST DUP2 EQ PUSH2 0x237A JUMPI PUSH0 PUSH0 REVERT JUMPDEST POP JUMP JUMPDEST PUSH0 DUP2 CALLDATALOAD SWAP1 POP PUSH2 0x238B DUP2 PUSH2 0x2367 JUMP JUMPDEST SWAP3 SWAP2 POP POP JUMP JUMPDEST PUSH0 PUSH0 PUSH1 0x40 DUP4 DUP6 SUB SLT ISZERO PUSH2 0x23A7 JUMPI PUSH2 0x23A6 PUSH2 0x21DC JUMP JUMPDEST JUMPDEST PUSH0 PUSH2 0x23B4 DUP6 DUP3 DUP7 ADD PUSH2 0x22F5 JUMP JUMPDEST SWAP3 POP POP PUSH1 0x20 PUSH2 0x23C5 DUP6 DUP3 DUP7 ADD PUSH2 0x237D JUMP JUMPDEST SWAP2 POP POP SWAP3 POP SWAP3 SWAP1 POP JUMP JUMPDEST PUSH0 DUP2 SWAP1 POP SWAP2 SWAP1 POP JUMP JUMPDEST PUSH2 0x23E1 DUP2 PUSH2 0x23CF JUMP JUMPDEST DUP2 EQ PUSH2 0x23EB JUMPI PUSH0 PUSH0 REVERT JUMPDEST POP JUMP JUMPDEST PUSH0 DUP2 CALLDATALOAD SWAP1 POP PUSH2 0x23FC DUP2 PUSH2 0x23D8 JUMP JUMPDEST SWAP3 SWAP2 POP POP JUMP JUMPDEST PUSH0 PUSH0 PUSH1 0x40 DUP4 DUP6 SUB SLT ISZERO PUSH2 0x2418 JUMPI PUSH2 0x2417 PUSH2 0x21DC JUMP JUMPDEST JUMPDEST PUSH0 PUSH2 0x2425 DUP6 DUP3 DUP7 ADD PUSH2 0x2226 JUMP JUMPDEST SWAP3 POP POP PUSH1 0x20 PUSH2 0x2436 DUP6 DUP3 DUP7 ADD PUSH2 0x23EE JUMP JUMPDEST SWAP2 POP POP SWAP3 POP SWAP3 SWAP1 POP JUMP JUMPDEST PUSH0 DUP2 SWAP1 POP SWAP2 SWAP1 POP JUMP JUMPDEST PUSH0 PUSH2 0x2463 PUSH2 0x245E PUSH2 0x2459 DUP5 PUSH2 0x21E0 JUMP JUMPDEST PUSH2 0x2440 JUMP JUMPDEST PUSH2 0x21E0 JUMP JUMPDEST SWAP1 POP SWAP2 SWAP1 POP JUMP JUMPDEST PUSH0 PUSH2 0x2474 DUP3 PUSH2 0x2449 JUMP JUMPDEST SWAP1 POP SWAP2 SWAP1 POP JUMP JUMPDEST PUSH0 PUSH2 0x2485 DUP3 PUSH2 0x246A JUMP JUMPDEST SWAP1 POP SWAP2 SWAP1 POP JUMP JUMPDEST PUSH2 0x2495 DUP2 PUSH2 0x247B JUMP JUMPDEST DUP3 MSTORE POP POP JUMP JUMPDEST PUSH0 PUSH1 0x20 DUP3 ADD SWAP1 POP PUSH2 0x24AE PUSH0 DUP4 ADD DUP5 PUSH2 0x248C JUMP JUMPDEST SWAP3 SWAP2 POP POP JUMP JUMPDEST PUSH0 PUSH2 0x24BE DUP3 PUSH2 0x2449 JUMP JUMPDEST SWAP1 POP SWAP2 SWAP1 POP JUMP JUMPDEST PUSH0 PUSH2 0x24CF DUP3 PUSH2 0x24B4 JUMP JUMPDEST SWAP1 POP SWAP2 SWAP1 POP JUMP JUMPDEST PUSH2 0x24DF DUP2 PUSH2 0x24C5 JUMP JUMPDEST DUP3 MSTORE POP POP JUMP JUMPDEST PUSH0 PUSH1 0x20 DUP3 ADD SWAP1 POP PUSH2 0x24F8 PUSH0 DUP4 ADD DUP5 PUSH2 0x24D6 JUMP JUMPDEST SWAP3 SWAP2 POP POP JUMP JUMPDEST PUSH2 0x2507 DUP2 PUSH2 0x235C JUMP JUMPDEST DUP3 MSTORE POP POP JUMP JUMPDEST PUSH0 PUSH1 0x20 DUP3 ADD SWAP1 POP PUSH2 0x2520 PUSH0 DUP4 ADD DUP5 PUSH2 0x24FE JUMP JUMPDEST SWAP3 SWAP2 POP POP JUMP JUMPDEST PUSH0 PUSH1 0x20 DUP3 DUP5 SUB SLT ISZERO PUSH2 0x253B JUMPI PUSH2 0x253A PUSH2 0x21DC JUMP JUMPDEST JUMPDEST PUSH0 PUSH2 0x2548 DUP5 DUP3 DUP6 ADD PUSH2 0x2226 JUMP JUMPDEST SWAP2 POP POP SWAP3 SWAP2 POP POP JUMP JUMPDEST PUSH2 0x255A DUP2 PUSH2 0x22AE JUMP JUMPDEST DUP3 MSTORE POP POP JUMP JUMPDEST PUSH2 0x2569 DUP2 PUSH2 0x21FF JUMP JUMPDEST DUP3 MSTORE POP POP JUMP JUMPDEST PUSH2 0x2578 DUP2 PUSH2 0x23CF JUMP JUMPDEST DUP3 MSTORE POP POP JUMP JUMPDEST PUSH32 0x4E487B7100000000000000000000000000000000000000000000000000000000 PUSH0 MSTORE PUSH1 0x21 PUSH1 0x4 MSTORE PUSH1 0x24 PUSH0 REVERT JUMPDEST PUSH1 0x7 DUP2 LT PUSH2 0x25BC JUMPI PUSH2 0x25BB PUSH2 0x257E JUMP JUMPDEST JUMPDEST POP JUMP JUMPDEST PUSH0 DUP2 SWAP1 POP PUSH2 0x25CC DUP3 PUSH2 0x25AB JUMP JUMPDEST SWAP2 SWAP1 POP JUMP JUMPDEST PUSH0 PUSH2 0x25DB DUP3 PUSH2 0x25BF JUMP JUMPDEST SWAP1 POP SWAP2 SWAP1 POP JUMP JUMPDEST PUSH2 0x25EB DUP2 PUSH2 0x25D1 JUMP JUMPDEST DUP3 MSTORE POP POP JUMP JUMPDEST PUSH1 0xE0 DUP3 ADD PUSH0 DUP3 ADD MLOAD PUSH2 0x2605 PUSH0 DUP6 ADD DUP3 PUSH2 0x2551 JUMP JUMPDEST POP PUSH1 0x20 DUP3 ADD MLOAD PUSH2 0x2618 PUSH1 0x20 DUP6 ADD DUP3 PUSH2 0x2560 JUMP JUMPDEST POP PUSH1 0x40 DUP3 ADD MLOAD PUSH2 0x262B PUSH1 0x40 DUP6 ADD DUP3 PUSH2 0x2560 JUMP JUMPDEST POP PUSH1 0x60 DUP3 ADD MLOAD PUSH2 0x263E PUSH1 0x60 DUP6 ADD DUP3 PUSH2 0x2551 JUMP JUMPDEST POP PUSH1 0x80 DUP3 ADD MLOAD PUSH2 0x2651 PUSH1 0x80 DUP6 ADD DUP3 PUSH2 0x2551 JUMP JUMPDEST POP PUSH1 0xA0 DUP3 ADD MLOAD PUSH2 0x2664 PUSH1 0xA0 DUP6 ADD DUP3 PUSH2 0x256F JUMP JUMPDEST POP PUSH1 0xC0 DUP3 ADD MLOAD PUSH2 0x2677 PUSH1 0xC0 DUP6 ADD DUP3 PUSH2 0x25E2 JUMP JUMPDEST POP POP POP POP JUMP JUMPDEST PUSH0 PUSH1 0xE0 DUP3 ADD SWAP1 POP PUSH2 0x2690 PUSH0 DUP4 ADD DUP5 PUSH2 0x25F1 JUMP JUMPDEST SWAP3 SWAP2 POP POP JUMP JUMPDEST PUSH2 0x269F DUP2 PUSH2 0x25D1 JUMP JUMPDEST DUP3 MSTORE POP POP JUMP JUMPDEST PUSH0 PUSH1 0x40 DUP3 ADD SWAP1 POP PUSH2 0x26B8 PUSH0 DUP4 ADD DUP6 PUSH2 0x22B7 JUMP JUMPDEST PUSH2 0x26C5 PUSH1 0x20 DUP4 ADD DUP5 PUSH2 0x2696 JUMP JUMPDEST SWAP4 SWAP3 POP POP POP JUMP JUMPDEST PUSH2 0x26D5 DUP2 PUSH2 0x21FF JUMP JUMPDEST DUP3 MSTORE POP POP JUMP JUMPDEST PUSH0 PUSH1 0x80 DUP3 ADD SWAP1 POP PUSH2 0x26EE PUSH0 DUP4 ADD DUP8 PUSH2 0x22B7 JUMP JUMPDEST PUSH2 0x26FB PUSH1 0x20 DUP4 ADD DUP7 PUSH2 0x26CC JUMP JUMPDEST PUSH2 0x2708 PUSH1 0x40 DUP4 ADD DUP6 PUSH2 0x26CC JUMP JUMPDEST PUSH2 0x2715 PUSH1 0x60 DUP4 ADD DUP5 PUSH2 0x22B7 JUMP JUMPDEST SWAP6 SWAP5 POP POP POP POP POP JUMP JUMPDEST PUSH0 PUSH1 0x40 DUP3 ADD SWAP1 POP PUSH2 0x2731 PUSH0 DUP4 ADD DUP6 PUSH2 0x22B7 JUMP JUMPDEST PUSH2 0x273E PUSH1 0x20 DUP4 ADD DUP5 PUSH2 0x22B7 JUMP JUMPDEST SWAP4 SWAP3 POP POP POP JUMP JUMPDEST PUSH32 0x4E487B7100000000000000000000000000000000000000000000000000000000 PUSH0 MSTORE PUSH1 0x11 PUSH1 0x4 MSTORE PUSH1 0x24 PUSH0 REVERT JUMPDEST PUSH0 PUSH2 0x277C DUP3 PUSH2 0x22AE JUMP JUMPDEST SWAP2 POP PUSH32 0xFFFFFFFFFFFFFFFFFFFFFFFFFFFFFFFFFFFFFFFFFFFFFFFFFFFFFFFFFFFFFFFF DUP3 SUB PUSH2 0x27AE JUMPI PUSH2 0x27AD PUSH2 0x2745 JUMP JUMPDEST JUMPDEST PUSH1 0x1 DUP3 ADD SWAP1 POP SWAP2 SWAP1 POP JUMP JUMPDEST PUSH2 0x27C2 DUP2 PUSH2 0x23CF JUMP JUMPDEST DUP3 MSTORE POP POP JUMP JUMPDEST PUSH0 PUSH1 0x20 DUP3 ADD SWAP1 POP PUSH2 0x27DB PUSH0 DUP4 ADD DUP5 PUSH2 0x27B9 JUMP JUMPDEST SWAP3 SWAP2 POP POP JUMP JUMPDEST PUSH0 PUSH1 0x40 DUP3 ADD SWAP1 POP PUSH2 0x27F4 PUSH0 DUP4 ADD DUP6 PUSH2 0x26CC JUMP JUMPDEST PUSH2 0x2801 PUSH1 0x20 DUP4 ADD DUP5 PUSH2 0x26CC JUMP JUMPDEST SWAP4 SWAP3 POP POP POP JUMP JUMPDEST PUSH0 PUSH2 0x2812 DUP3 PUSH2 0x22AE JUMP JUMPDEST SWAP2 POP PUSH2 0x281D DUP4 PUSH2 0x22AE JUMP JUMPDEST SWAP3 POP DUP3 DUP3 MUL PUSH2 0x282B DUP2 PUSH2 0x22AE JUMP JUMPDEST SWAP2 POP DUP3 DUP3 DIV DUP5 EQ DUP4 ISZERO OR PUSH2 0x2842 JUMPI PUSH2 0x2841 PUSH2 0x2745 JUMP JUMPDEST JUMPDEST POP SWAP3 SWAP2 POP POP JUMP JUMPDEST PUSH32 0x4E487B7100000000000000000000000000000000000000000000000000000000 PUSH0 MSTORE PUSH1 0x12 PUSH1 0x4 MSTORE PUSH1 0x24 PUSH0 REVERT JUMPDEST PUSH0 PUSH2 0x2880 DUP3 PUSH2 0x22AE JUMP JUMPDEST SWAP2 POP PUSH2 0x288B DUP4 PUSH2 0x22AE JUMP JUMPDEST SWAP3 POP DUP3 PUSH2 0x289B JUMPI PUSH2 0x289A PUSH2 0x2849 JUMP JUMPDEST JUMPDEST DUP3 DUP3 DIV SWAP1 POP SWAP3 SWAP2 POP POP JUMP JUMPDEST PUSH0 PUSH2 0x28B0 DUP3 PUSH2 0x22AE JUMP JUMPDEST SWAP2 POP PUSH2 0x28BB DUP4 PUSH2 0x22AE JUMP JUMPDEST SWAP3 POP DUP3 DUP3 SUB SWAP1 POP DUP2 DUP2 GT ISZERO PUSH2 0x28D3 JUMPI PUSH2 0x28D2 PUSH2 0x2745 JUMP JUMPDEST JUMPDEST SWAP3 SWAP2 POP POP JUMP JUMPDEST PUSH0 DUP2 SWAP1 POP SWAP3 SWAP2 POP POP JUMP JUMPDEST POP JUMP JUMPDEST PUSH0 PUSH2 0x28F1 PUSH0 DUP4 PUSH2 0x28D9 JUMP JUMPDEST SWAP2 POP PUSH2 0x28FC DUP3 PUSH2 0x28E3 JUMP JUMPDEST PUSH0 DUP3 ADD SWAP1 POP SWAP2 SWAP1 POP JUMP JUMPDEST PUSH0 PUSH2 0x2910 DUP3 PUSH2 0x28E6 JUMP JUMPDEST SWAP2 POP DUP2 SWAP1 POP SWAP2 SWAP1 POP JUMP INVALID LOG2 PUSH5 0x6970667358 0x22 SLT KECCAK256 CALLER 0xCC 0xCD 0x23 SHR SSTORE 0x4E PUSH4 0xA5A9EFCA NUMBER CLZ 0xBD ISZERO PUSH6 0x9D8F7EE4A474 PUSH5 0xA082614D2F 0xA7 DUP11 0xF6 PUSH5 0x736F6C6343 STOP ADDMOD 0x1F STOP CALLER "
		},
		"gasEstimates": {
			"creation": {
				"codeDepositCost": "2115200",
				"executionCost": "infinite",
				"totalCost": "infinite"
			},
			"external": {
				"ADMIN()": "443",
				"MAX_FEE_BPS()": "435",
				"MEDIATOR()": "442",
				"SELLER()": "375",
				"arbitrator()": "infinite",
				"cancelUnfunded(uint256)": "infinite",
				"confirmReceived(uint256)": "infinite",
				"createOrder(address,bytes32)": "infinite",
				"feeBps()": "2471",
				"fundOrder(uint256)": "infinite",
				"getEscrowBalance()": "400",
				"getOrder(uint256)": "infinite",
				"grantRole(address,uint8)": "29077",
				"hasRole(address,uint8)": "3200",
				"markShipped(uint256)": "infinite",
				"openDispute(uint256)": "infinite",
				"refundBuyer(uint256)": "infinite",
				"resolveDispute(uint256,bool)": "infinite",
				"revokeRole(address,uint8)": "28999",
				"setArbitrator(address)": "infinite",
				"treasury()": "infinite",
				"updateFee(uint256)": "infinite"
			},
			"internal": {
				"_calcFee(uint256)": "infinite",
				"_getOrder(uint256)": "infinite",
				"_safeTransfer(address,uint256)": "infinite"
			}
		},
		"methodIdentifiers": {
			"ADMIN()": "2a0acc6a",
			"MAX_FEE_BPS()": "d55be8c6",
			"MEDIATOR()": "b2170409",
			"SELLER()": "bca93eba",
			"arbitrator()": "6cc6cde1",
			"cancelUnfunded(uint256)": "41e8a42a",
			"confirmReceived(uint256)": "27dac36d",
			"createOrder(address,bytes32)": "4d471e85",
			"feeBps()": "24a9d853",
			"fundOrder(uint256)": "b9c4d0a7",
			"getEscrowBalance()": "c56e610e",
			"getOrder(uint256)": "d09ef241",
			"grantRole(address,uint8)": "3e840236",
			"hasRole(address,uint8)": "95a8c58d",
			"markShipped(uint256)": "eed90d6b",
			"openDispute(uint256)": "27d00fb0",
			"refundBuyer(uint256)": "39292763",
			"resolveDispute(uint256,bool)": "34b25ee2",
			"revokeRole(address,uint8)": "077d3c03",
			"setArbitrator(address)": "b0eefabe",
			"treasury()": "61d027b3",
			"updateFee(uint256)": "9012c4a8"
		}
	},
	"abi": [
		{
			"inputs": [
				{
					"internalType": "address payable",
					"name": "treasuryAddr",
					"type": "address"
				},
				{
					"internalType": "address",
					"name": "arbitratorAddr",
					"type": "address"
				}
			],
			"stateMutability": "nonpayable",
			"type": "constructor"
		},
		{
			"inputs": [
				{
					"internalType": "uint256",
					"name": "requested",
					"type": "uint256"
				},
				{
					"internalType": "uint256",
					"name": "max",
					"type": "uint256"
				}
			],
			"name": "FeeTooHigh",
			"type": "error"
		},
		{
			"inputs": [
				{
					"internalType": "uint256",
					"name": "expected",
					"type": "uint256"
				},
				{
					"internalType": "uint256",
					"name": "received",
					"type": "uint256"
				}
			],
			"name": "IncorrectPayment",
			"type": "error"
		},
		{
			"inputs": [
				{
					"internalType": "uint256",
					"name": "orderId",
					"type": "uint256"
				},
				{
					"internalType": "enum EscrowMarketplace.OrderState",
					"name": "current",
					"type": "uint8"
				}
			],
			"name": "InvalidState",
			"type": "error"
		},
		{
			"inputs": [
				{
					"internalType": "uint256",
					"name": "orderId",
					"type": "uint256"
				}
			],
			"name": "NotBuyer",
			"type": "error"
		},
		{
			"inputs": [
				{
					"internalType": "uint256",
					"name": "orderId",
					"type": "uint256"
				}
			],
			"name": "NotSeller",
			"type": "error"
		},
		{
			"inputs": [
				{
					"internalType": "uint256",
					"name": "orderId",
					"type": "uint256"
				}
			],
			"name": "OrderNotFound",
			"type": "error"
		},
		{
			"inputs": [],
			"name": "Reentrant",
			"type": "error"
		},
		{
			"inputs": [],
			"name": "TransferFailed",
			"type": "error"
		},
		{
			"inputs": [],
			"name": "Unauthorized",
			"type": "error"
		},
		{
			"inputs": [],
			"name": "ZeroAddress",
			"type": "error"
		},
		{
			"inputs": [],
			"name": "ZeroAmount",
			"type": "error"
		},
		{
			"anonymous": false,
			"inputs": [
				{
					"indexed": false,
					"internalType": "address",
					"name": "oldArbitrator",
					"type": "address"
				},
				{
					"indexed": false,
					"internalType": "address",
					"name": "newArbitrator",
					"type": "address"
				}
			],
			"name": "ArbitratorUpdated",
			"type": "event"
		},
		{
			"anonymous": false,
			"inputs": [
				{
					"indexed": true,
					"internalType": "uint256",
					"name": "id",
					"type": "uint256"
				}
			],
			"name": "Cancelled",
			"type": "event"
		},
		{
			"anonymous": false,
			"inputs": [
				{
					"indexed": true,
					"internalType": "uint256",
					"name": "id",
					"type": "uint256"
				},
				{
					"indexed": true,
					"internalType": "address",
					"name": "openedBy",
					"type": "address"
				}
			],
			"name": "DisputeOpened",
			"type": "event"
		},
		{
			"anonymous": false,
			"inputs": [
				{
					"indexed": true,
					"internalType": "uint256",
					"name": "id",
					"type": "uint256"
				},
				{
					"indexed": false,
					"internalType": "bool",
					"name": "releasedToSeller",
					"type": "bool"
				}
			],
			"name": "DisputeResolved",
			"type": "event"
		},
		{
			"anonymous": false,
			"inputs": [
				{
					"indexed": false,
					"internalType": "uint256",
					"name": "oldBps",
					"type": "uint256"
				},
				{
					"indexed": false,
					"internalType": "uint256",
					"name": "newBps",
					"type": "uint256"
				}
			],
			"name": "FeeUpdated",
			"type": "event"
		},
		{
			"anonymous": false,
			"inputs": [
				{
					"indexed": true,
					"internalType": "uint256",
					"name": "id",
					"type": "uint256"
				},
				{
					"indexed": false,
					"internalType": "uint256",
					"name": "payoutToSeller",
					"type": "uint256"
				},
				{
					"indexed": false,
					"internalType": "uint256",
					"name": "fee",
					"type": "uint256"
				}
			],
			"name": "OrderCompleted",
			"type": "event"
		},
		{
			"anonymous": false,
			"inputs": [
				{
					"indexed": true,
					"internalType": "uint256",
					"name": "id",
					"type": "uint256"
				},
				{
					"indexed": true,
					"internalType": "address",
					"name": "buyer",
					"type": "address"
				},
				{
					"indexed": true,
					"internalType": "address",
					"name": "seller",
					"type": "address"
				},
				{
					"indexed": false,
					"internalType": "bytes32",
					"name": "detailsHash",
					"type": "bytes32"
				}
			],
			"name": "OrderCreated",
			"type": "event"
		},
		{
			"anonymous": false,
			"inputs": [
				{
					"indexed": true,
					"internalType": "uint256",
					"name": "id",
					"type": "uint256"
				},
				{
					"indexed": false,
					"internalType": "uint256",
					"name": "amount",
					"type": "uint256"
				}
			],
			"name": "OrderFunded",
			"type": "event"
		},
		{
			"anonymous": false,
			"inputs": [
				{
					"indexed": true,
					"internalType": "uint256",
					"name": "id",
					"type": "uint256"
				}
			],
			"name": "OrderShipped",
			"type": "event"
		},
		{
			"anonymous": false,
			"inputs": [
				{
					"indexed": true,
					"internalType": "uint256",
					"name": "id",
					"type": "uint256"
				},
				{
					"indexed": false,
					"internalType": "uint256",
					"name": "amount",
					"type": "uint256"
				}
			],
			"name": "Refunded",
			"type": "event"
		},
		{
			"anonymous": false,
			"inputs": [
				{
					"indexed": true,
					"internalType": "address",
					"name": "account",
					"type": "address"
				},
				{
					"indexed": true,
					"internalType": "uint8",
					"name": "role",
					"type": "uint8"
				}
			],
			"name": "RoleGranted",
			"type": "event"
		},
		{
			"anonymous": false,
			"inputs": [
				{
					"indexed": true,
					"internalType": "address",
					"name": "account",
					"type": "address"
				},
				{
					"indexed": true,
					"internalType": "uint8",
					"name": "role",
					"type": "uint8"
				}
			],
			"name": "RoleRevoked",
			"type": "event"
		},
		{
			"inputs": [],
			"name": "ADMIN",
			"outputs": [
				{
					"internalType": "uint8",
					"name": "",
					"type": "uint8"
				}
			],
			"stateMutability": "view",
			"type": "function"
		},
		{
			"inputs": [],
			"name": "MAX_FEE_BPS",
			"outputs": [
				{
					"internalType": "uint256",
					"name": "",
					"type": "uint256"
				}
			],
			"stateMutability": "view",
			"type": "function"
		},
		{
			"inputs": [],
			"name": "MEDIATOR",
			"outputs": [
				{
					"internalType": "uint8",
					"name": "",
					"type": "uint8"
				}
			],
			"stateMutability": "view",
			"type": "function"
		},
		{
			"inputs": [],
			"name": "SELLER",
			"outputs": [
				{
					"internalType": "uint8",
					"name": "",
					"type": "uint8"
				}
			],
			"stateMutability": "view",
			"type": "function"
		},
		{
			"inputs": [],
			"name": "arbitrator",
			"outputs": [
				{
					"internalType": "contract IArbitrator",
					"name": "",
					"type": "address"
				}
			],
			"stateMutability": "view",
			"type": "function"
		},
		{
			"inputs": [
				{
					"internalType": "uint256",
					"name": "orderId",
					"type": "uint256"
				}
			],
			"name": "cancelUnfunded",
			"outputs": [],
			"stateMutability": "nonpayable",
			"type": "function"
		},
		{
			"inputs": [
				{
					"internalType": "uint256",
					"name": "orderId",
					"type": "uint256"
				}
			],
			"name": "confirmReceived",
			"outputs": [],
			"stateMutability": "nonpayable",
			"type": "function"
		},
		{
			"inputs": [
				{
					"internalType": "address",
					"name": "seller",
					"type": "address"
				},
				{
					"internalType": "bytes32",
					"name": "detailsHash",
					"type": "bytes32"
				}
			],
			"name": "createOrder",
			"outputs": [
				{
					"internalType": "uint256",
					"name": "orderId",
					"type": "uint256"
				}
			],
			"stateMutability": "nonpayable",
			"type": "function"
		},
		{
			"inputs": [],
			"name": "feeBps",
			"outputs": [
				{
					"internalType": "uint256",
					"name": "",
					"type": "uint256"
				}
			],
			"stateMutability": "view",
			"type": "function"
		},
		{
			"inputs": [
				{
					"internalType": "uint256",
					"name": "orderId",
					"type": "uint256"
				}
			],
			"name": "fundOrder",
			"outputs": [],
			"stateMutability": "payable",
			"type": "function"
		},
		{
			"inputs": [],
			"name": "getEscrowBalance",
			"outputs": [
				{
					"internalType": "uint256",
					"name": "balance",
					"type": "uint256"
				}
			],
			"stateMutability": "view",
			"type": "function"
		},
		{
			"inputs": [
				{
					"internalType": "uint256",
					"name": "orderId",
					"type": "uint256"
				}
			],
			"name": "getOrder",
			"outputs": [
				{
					"components": [
						{
							"internalType": "uint256",
							"name": "id",
							"type": "uint256"
						},
						{
							"internalType": "address",
							"name": "buyer",
							"type": "address"
						},
						{
							"internalType": "address",
							"name": "seller",
							"type": "address"
						},
						{
							"internalType": "uint256",
							"name": "amount",
							"type": "uint256"
						},
						{
							"internalType": "uint256",
							"name": "createdAt",
							"type": "uint256"
						},
						{
							"internalType": "bytes32",
							"name": "detailsHash",
							"type": "bytes32"
						},
						{
							"internalType": "enum EscrowMarketplace.OrderState",
							"name": "state",
							"type": "uint8"
						}
					],
					"internalType": "struct EscrowMarketplace.Order",
					"name": "",
					"type": "tuple"
				}
			],
			"stateMutability": "view",
			"type": "function"
		},
		{
			"inputs": [
				{
					"internalType": "address",
					"name": "account",
					"type": "address"
				},
				{
					"internalType": "uint8",
					"name": "role",
					"type": "uint8"
				}
			],
			"name": "grantRole",
			"outputs": [],
			"stateMutability": "nonpayable",
			"type": "function"
		},
		{
			"inputs": [
				{
					"internalType": "address",
					"name": "account",
					"type": "address"
				},
				{
					"internalType": "uint8",
					"name": "role",
					"type": "uint8"
				}
			],
			"name": "hasRole",
			"outputs": [
				{
					"internalType": "bool",
					"name": "",
					"type": "bool"
				}
			],
			"stateMutability": "view",
			"type": "function"
		},
		{
			"inputs": [
				{
					"internalType": "uint256",
					"name": "orderId",
					"type": "uint256"
				}
			],
			"name": "markShipped",
			"outputs": [],
			"stateMutability": "nonpayable",
			"type": "function"
		},
		{
			"inputs": [
				{
					"internalType": "uint256",
					"name": "orderId",
					"type": "uint256"
				}
			],
			"name": "openDispute",
			"outputs": [],
			"stateMutability": "nonpayable",
			"type": "function"
		},
		{
			"inputs": [
				{
					"internalType": "uint256",
					"name": "orderId",
					"type": "uint256"
				}
			],
			"name": "refundBuyer",
			"outputs": [],
			"stateMutability": "nonpayable",
			"type": "function"
		},
		{
			"inputs": [
				{
					"internalType": "uint256",
					"name": "orderId",
					"type": "uint256"
				},
				{
					"internalType": "bool",
					"name": "releaseToSeller",
					"type": "bool"
				}
			],
			"name": "resolveDispute",
			"outputs": [],
			"stateMutability": "nonpayable",
			"type": "function"
		},
		{
			"inputs": [
				{
					"internalType": "address",
					"name": "account",
					"type": "address"
				},
				{
					"internalType": "uint8",
					"name": "role",
					"type": "uint8"
				}
			],
			"name": "revokeRole",
			"outputs": [],
			"stateMutability": "nonpayable",
			"type": "function"
		},
		{
			"inputs": [
				{
					"internalType": "address",
					"name": "newArbitrator",
					"type": "address"
				}
			],
			"name": "setArbitrator",
			"outputs": [],
			"stateMutability": "nonpayable",
			"type": "function"
		},
		{
			"inputs": [],
			"name": "treasury",
			"outputs": [
				{
					"internalType": "contract Treasury",
					"name": "",
					"type": "address"
				}
			],
			"stateMutability": "view",
			"type": "function"
		},
		{
			"inputs": [
				{
					"internalType": "uint256",
					"name": "newBps",
					"type": "uint256"
				}
			],
			"name": "updateFee",
			"outputs": [],
			"stateMutability": "nonpayable",
			"type": "function"
		}
	]
}