{
	"data": {
		"bytecode": {
			"linkReferences": {},
			"object": "6080604052348015600e575f5ffd5b506106978061001c5f395ff3fe608060405234801561000f575f5ffd5b506004361061004a575f3560e01c806381bfbd141461004e5780638b83c7451461007e578063a4da8e411461009a578063ecc9750c146100a4575b5f5ffd5b61006860048036038101906100639190610390565b6100c0565b60405161007591906103d5565b60405180910390f35b6100986004803603810190610093919061047b565b6100dc565b005b6100a2610145565b005b6100be60048036038101906100b99190610390565b610185565b005b5f602052805f5260405f205f915054906101000a900460ff1681565b8173ffffffffffffffffffffffffffffffffffffffff163373ffffffffffffffffffffffffffffffffffffffff167f0cb34e106629dce34b632826bbba6b38e39c5957eb06a27e76efcc3d55da46b58360405161013991906104c8565b60405180910390a35050565b6101836040518060400160405280600281526020017f596f000000000000000000000000000000000000000000000000000000000000815250610272565b565b5f5f8281526020019081526020015f205f9054906101000a900460ff16156101e2576040517f08c379a00000000000000000000000000000000000000000000000000000000081526004016101d99061053b565b60405180910390fd5b60015f5f8381526020019081526020015f205f6101000a81548160ff0219169083151502179055503073ffffffffffffffffffffffffffffffffffffffff163373ffffffffffffffffffffffffffffffffffffffff167f2124d88aa92c7e58a611e48ff010ce34513712663afaac6573ccfd957d8965795f604051610267919061059b565b60405180910390a350565b610308816040516024016102869190610614565b6040516020818303038152906040527f41304fac000000000000000000000000000000000000000000000000000000007bffffffffffffffffffffffffffffffffffffffffffffffffffffffff19166020820180517bffffffffffffffffffffffffffffffffffffffffffffffffffffffff838183161783525050505061030b565b50565b6103228161031a610325610344565b63ffffffff16565b50565b5f6a636f6e736f6c652e6c6f6790505f5f835160208501845afa505050565b61034f819050919050565b610357610634565b565b5f5ffd5b5f819050919050565b61036f8161035d565b8114610379575f5ffd5b50565b5f8135905061038a81610366565b92915050565b5f602082840312156103a5576103a4610359565b5b5f6103b28482850161037c565b91505092915050565b5f8115159050919050565b6103cf816103bb565b82525050565b5f6020820190506103e85f8301846103c6565b92915050565b5f73ffffffffffffffffffffffffffffffffffffffff82169050919050565b5f610417826103ee565b9050919050565b6104278161040d565b8114610431575f5ffd5b50565b5f813590506104428161041e565b92915050565b5f819050919050565b61045a81610448565b8114610464575f5ffd5b50565b5f8135905061047581610451565b92915050565b5f5f6040838503121561049157610490610359565b5b5f61049e85828601610434565b92505060206104af85828601610467565b9150509250929050565b6104c281610448565b82525050565b5f6020820190506104db5f8301846104b9565b92915050565b5f82825260208201905092915050565b7f5472616e7366657220616c64726561647920636f6e6669726d656400000000005f82015250565b5f610525601b836104e1565b9150610530826104f1565b602082019050919050565b5f6020820190508181035f83015261055281610519565b9050919050565b5f819050919050565b5f819050919050565b5f61058561058061057b84610559565b610562565b610448565b9050919050565b6105958161056b565b82525050565b5f6020820190506105ae5f83018461058c565b92915050565b5f81519050919050565b8281835e5f83830152505050565b5f601f19601f8301169050919050565b5f6105e6826105b4565b6105f081856104e1565b93506106008185602086016105be565b610609816105cc565b840191505092915050565b5f6020820190508181035f83015261062c81846105dc565b905092915050565b7f4e487b71000000000000000000000000000000000000000000000000000000005f52605160045260245ffdfea2646970667358221220b3ff46802712eebeb982f55eefe121d876a61270d6af699c285fe2092eb34ec664736f6c634300081f0033",
			"opcodes": "PUSH1 0x80 PUSH1 0x40 MSTORE CALLVALUE DUP1 ISZERO PUSH1 0xE JUMPI PUSH0 PUSH0 REVERT JUMPDEST POP PUSH2 0x697 DUP1 PUSH2 0x1C PUSH0 CODECOPY PUSH0 RETURN INVALID PUSH1 0x80 PUSH1 0x40 MSTORE CALLVALUE DUP1 ISZERO PUSH2 0xF JUMPI PUSH0 PUSH0 REVERT JUMPDEST POP PUSH1 0x4 CALLDATASIZE LT PUSH2 0x4A JUMPI PUSH0 CALLDATALOAD PUSH1 0xE0 SHR DUP1 PUSH4 0x81BFBD14 EQ PUSH2 0x4E JUMPI DUP1 PUSH4 0x8B83C745 EQ PUSH2 0x7E JUMPI DUP1 PUSH4 0xA4DA8E41 EQ PUSH2 0x9A JUMPI DUP1 PUSH4 0xECC9750C EQ PUSH2 0xA4 JUMPI JUMPDEST PUSH0 PUSH0 REVERT JUMPDEST PUSH2 0x68 PUSH1 0x4 DUP1 CALLDATASIZE SUB DUP2 ADD SWAP1 PUSH2 0x63 SWAP2 SWAP1 PUSH2 0x390 JUMP JUMPDEST PUSH2 0xC0 JUMP JUMPDEST PUSH1 0x40 MLOAD PUSH2 0x75 SWAP2 SWAP1 PUSH2 0x3D5 JUMP JUMPDEST PUSH1 0x40 MLOAD DUP1 SWAP2 SUB SWAP1 RETURN JUMPDEST PUSH2 0x98 PUSH1 0x4 DUP1 CALLDATASIZE SUB DUP2 ADD SWAP1 PUSH2 0x93 SWAP2 SWAP1 PUSH2 0x47B JUMP JUMPDEST PUSH2 0xDC JUMP JUMPDEST STOP JUMPDEST PUSH2 0xA2 PUSH2 0x145 JUMP JUMPDEST STOP JUMPDEST PUSH2 0xBE PUSH1 0x4 DUP1 CALLDATASIZE SUB DUP2 ADD SWAP1 PUSH2 0xB9 SWAP2 SWAP1 PUSH2 0x390 JUMP JUMPDEST PUSH2 0x185 JUMP JUMPDEST STOP JUMPDEST PUSH0 PUSH1 0x20 MSTORE DUP1 PUSH0 MSTORE PUSH1 0x40 PUSH0 KECCAK256 PUSH0 SWAP2 POP SLOAD SWAP1 PUSH2 0x100 EXP SWAP1 DIV PUSH1 0xFF AND DUP2 JUMP JUMPDEST DUP2 PUSH20 0xFFFFFFFFFFFFFFFFFFFFFFFFFFFFFFFFFFFFFFFF AND CALLER PUSH20 0xFFFFFFFFFFFFFFFFFFFFFFFFFFFFFFFFFFFFFFFF AND PUSH32 0xCB34E106629DCE34B632826BBBA6B38E39C5957EB06A27E76EFCC3D55DA46B5 DUP4 PUSH1 0x40 MLOAD PUSH2 0x139 SWAP2 SWAP1 PUSH2 0x4C8 JUMP JUMPDEST PUSH1 0x40 MLOAD DUP1 SWAP2 SUB SWAP1 LOG3 POP POP JUMP JUMPDEST PUSH2 0x183 PUSH1 0x40 MLOAD DUP1 PUSH1 0x40 ADD PUSH1 0x40 MSTORE DUP1 PUSH1 0x2 DUP2 MSTORE PUSH1 0x20 ADD PUSH32 0x596F000000000000000000000000000000000000000000000000000000000000 DUP2 MSTORE POP PUSH2 0x272 JUMP JUMPDEST JUMP JUMPDEST PUSH0 PUSH0 DUP3 DUP2 MSTORE PUSH1 0x20 ADD SWAP1 DUP2 MSTORE PUSH1 0x20 ADD PUSH0 KECCAK256 PUSH0 SWAP1 SLOAD SWAP1 PUSH2 0x100 EXP SWAP1 DIV PUSH1 0xFF AND ISZERO PUSH2 0x1E2 JUMPI PUSH1 0x40 MLOAD PUSH32 0x8C379A000000000000000000000000000000000000000000000000000000000 DUP2 MSTORE PUSH1 0x4 ADD PUSH2 0x1D9 SWAP1 PUSH2 0x53B JUMP JUMPDEST PUSH1 0x40 MLOAD DUP1 SWAP2 SUB SWAP1 REVERT JUMPDEST PUSH1 0x1 PUSH0 PUSH0 DUP4 DUP2 MSTORE PUSH1 0x20 ADD SWAP1 DUP2 MSTORE PUSH1 0x20 ADD PUSH0 KECCAK256 PUSH0 PUSH2 0x100 EXP DUP2 SLOAD DUP2 PUSH1 0xFF MUL NOT AND SWAP1 DUP4 ISZERO ISZERO MUL OR SWAP1 SSTORE POP ADDRESS PUSH20 0xFFFFFFFFFFFFFFFFFFFFFFFFFFFFFFFFFFFFFFFF AND CALLER PUSH20 0xFFFFFFFFFFFFFFFFFFFFFFFFFFFFFFFFFFFFFFFF AND PUSH32 0x2124D88AA92C7E58A611E48FF010CE34513712663AFAAC6573CCFD957D896579 PUSH0 PUSH1 0x40 MLOAD PUSH2 0x267 SWAP2 SWAP1 PUSH2 0x59B JUMP JUMPDEST PUSH1 0x40 MLOAD DUP1 SWAP2 SUB SWAP1 LOG3 POP JUMP JUMPDEST PUSH2 0x308 DUP2 PUSH1 0x40 MLOAD PUSH1 0x24 ADD PUSH2 0x286 SWAP2 SWAP1 PUSH2 0x614 JUMP JUMPDEST PUSH1 0x40 MLOAD PUSH1 0x20 DUP2 DUP4 SUB SUB DUP2 MSTORE SWAP1 PUSH1 0x40 MSTORE PUSH32 0x41304FAC00000000000000000000000000000000000000000000000000000000 PUSH28 0xFFFFFFFFFFFFFFFFFFFFFFFFFFFFFFFFFFFFFFFFFFFFFFFFFFFFFFFF NOT AND PUSH1 0x20 DUP3 ADD DUP1 MLOAD PUSH28 0xFFFFFFFFFFFFFFFFFFFFFFFFFFFFFFFFFFFFFFFFFFFFFFFFFFFFFFFF DUP4 DUP2 DUP4 AND OR DUP4 MSTORE POP POP POP POP PUSH2 0x30B JUMP JUMPDEST POP JUMP JUMPDEST PUSH2 0x322 DUP2 PUSH2 0x31A PUSH2 0x325 PUSH2 0x344 JUMP JUMPDEST PUSH4 0xFFFFFFFF AND JUMP JUMPDEST POP JUMP JUMPDEST PUSH0 PUSH11 0x636F6E736F6C652E6C6F67 SWAP1 POP PUSH0 PUSH0 DUP4 MLOAD PUSH1 0x20 DUP6 ADD DUP5 GAS STATICCALL POP POP POP JUMP JUMPDEST PUSH2 0x34F DUP2 SWAP1 POP SWAP2 SWAP1 POP JUMP JUMPDEST PUSH2 0x357 PUSH2 0x634 JUMP JUMPDEST JUMP JUMPDEST PUSH0 PUSH0 REVERT JUMPDEST PUSH0 DUP2 SWAP1 POP SWAP2 SWAP1 POP JUMP JUMPDEST PUSH2 0x36F DUP2 PUSH2 0x35D JUMP JUMPDEST DUP2 EQ PUSH2 0x379 JUMPI PUSH0 PUSH0 REVERT JUMPDEST POP JUMP JUMPDEST PUSH0 DUP2 CALLDATALOAD SWAP1 POP PUSH2 0x38A DUP2 PUSH2 0x366 JUMP JUMPDEST SWAP3 SWAP2 POP POP JUMP JUMPDEST PUSH0 PUSH1 0x20 DUP3 DUP5 SUB SLT ISZERO PUSH2 0x3A5 JUMPI PUSH2 0x3A4 PUSH2 0x359 JUMP JUMPDEST JUMPDEST PUSH0 PUSH2 0x3B2 DUP5 DUP3 DUP6 ADD PUSH2 0x37C JUMP JUMPDEST SWAP2 POP POP SWAP3 SWAP2 POP POP JUMP JUMPDEST PUSH0 DUP2 ISZERO ISZERO SWAP1 POP SWAP2 SWAP1 POP JUMP JUMPDEST PUSH2 0x3CF DUP2 PUSH2 0x3BB JUMP JUMPDEST DUP3 MSTORE POP POP JUMP JUMPDEST PUSH0 PUSH1 0x20 DUP3 ADD SWAP1 POP PUSH2 0x3E8 PUSH0 DUP4 ADD DUP5 PUSH2 0x3C6 JUMP JUMPDEST SWAP3 SWAP2 POP POP JUMP JUMPDEST PUSH0 PUSH20 0xFFFFFFFFFFFFFFFFFFFFFFFFFFFFFFFFFFFFFFFF DUP3 AND SWAP1 POP SWAP2 SWAP1 POP JUMP JUMPDEST PUSH0 PUSH2 0x417 DUP3 PUSH2 0x3EE JUMP JUMPDEST SWAP1 POP SWAP2 SWAP1 POP JUMP JUMPDEST PUSH2 0x427 DUP2 PUSH2 0x40D JUMP JUMPDEST DUP2 EQ PUSH2 0x431 JUMPI PUSH0 PUSH0 REVERT JUMPDEST POP JUMP JUMPDEST PUSH0 DUP2 CALLDATALOAD SWAP1 POP PUSH2 0x442 DUP2 PUSH2 0x41E JUMP JUMPDEST SWAP3 SWAP2 POP POP JUMP JUMPDEST PUSH0 DUP2 SWAP1 POP SWAP2 SWAP1 POP JUMP JUMPDEST PUSH2 0x45A DUP2 PUSH2 0x448 JUMP JUMPDEST DUP2 EQ PUSH2 0x464 JUMPI PUSH0 PUSH0 REVERT JUMPDEST POP JUMP JUMPDEST PUSH0 DUP2 CALLDATALOAD SWAP1 POP PUSH2 0x475 DUP2 PUSH2 0x451 JUMP JUMPDEST SWAP3 SWAP2 POP POP JUMP JUMPDEST PUSH0 PUSH0 PUSH1 0x40 DUP4 DUP6 SUB SLT ISZERO PUSH2 0x491 JUMPI PUSH2 0x490 PUSH2 0x359 JUMP JUMPDEST JUMPDEST PUSH0 PUSH2 0x49E DUP6 DUP3 DUP7 ADD PUSH2 0x434 JUMP JUMPDEST SWAP3 POP POP PUSH1 0x20 PUSH2 0x4AF DUP6 DUP3 DUP7 ADD PUSH2 0x467 JUMP JUMPDEST SWAP2 POP POP SWAP3 POP SWAP3 SWAP1 POP JUMP JUMPDEST PUSH2 0x4C2 DUP2 PUSH2 0x448 JUMP JUMPDEST DUP3 MSTORE POP POP JUMP JUMPDEST PUSH0 PUSH1 0x20 DUP3 ADD SWAP1 POP PUSH2 0x4DB PUSH0 DUP4 ADD DUP5 PUSH2 0x4B9 JUMP JUMPDEST SWAP3 SWAP2 POP POP JUMP JUMPDEST PUSH0 DUP3 DUP3 MSTORE PUSH1 0x20 DUP3 ADD SWAP1 POP SWAP3 SWAP2 POP POP JUMP JUMPDEST PUSH32 0x5472616E7366657220616C64726561647920636F6E6669726D65640000000000 PUSH0 DUP3 ADD MSTORE POP JUMP JUMPDEST PUSH0 PUSH2 0x525 PUSH1 0x1B DUP4 PUSH2 0x4E1 JUMP JUMPDEST SWAP2 POP PUSH2 0x530 DUP3 PUSH2 0x4F1 JUMP JUMPDEST PUSH1 0x20 DUP3 ADD SWAP1 POP SWAP2 SWAP1 POP JUMP JUMPDEST PUSH0 PUSH1 0x20 DUP3 ADD SWAP1 POP DUP2 DUP2 SUB PUSH0 DUP4 ADD MSTORE PUSH2 0x552 DUP2 PUSH2 0x519 JUMP JUMPDEST SWAP1 POP SWAP2 SWAP1 POP JUMP JUMPDEST PUSH0 DUP2 SWAP1 POP SWAP2 SWAP1 POP JUMP JUMPDEST PUSH0 DUP2 SWAP1 POP SWAP2 SWAP1 POP JUMP JUMPDEST PUSH0 PUSH2 0x585 PUSH2 0x580 PUSH2 0x57B DUP5 PUSH2 0x559 JUMP JUMPDEST PUSH2 0x562 JUMP JUMPDEST PUSH2 0x448 JUMP JUMPDEST SWAP1 POP SWAP2 SWAP1 POP JUMP JUMPDEST PUSH2 0x595 DUP2 PUSH2 0x56B JUMP JUMPDEST DUP3 MSTORE POP POP JUMP JUMPDEST PUSH0 PUSH1 0x20 DUP3 ADD SWAP1 POP PUSH2 0x5AE PUSH0 DUP4 ADD DUP5 PUSH2 0x58C JUMP JUMPDEST SWAP3 SWAP2 POP POP JUMP JUMPDEST PUSH0 DUP2 MLOAD SWAP1 POP SWAP2 SWAP1 POP JUMP JUMPDEST DUP3 DUP2 DUP4 MCOPY PUSH0 DUP4 DUP4 ADD MSTORE POP POP POP JUMP JUMPDEST PUSH0 PUSH1 0x1F NOT PUSH1 0x1F DUP4 ADD AND SWAP1 POP SWAP2 SWAP1 POP JUMP JUMPDEST PUSH0 PUSH2 0x5E6 DUP3 PUSH2 0x5B4 JUMP JUMPDEST PUSH2 0x5F0 DUP2 DUP6 PUSH2 0x4E1 JUMP JUMPDEST SWAP4 POP PUSH2 0x600 DUP2 DUP6 PUSH1 0x20 DUP7 ADD PUSH2 0x5BE JUMP JUMPDEST PUSH2 0x609 DUP2 PUSH2 0x5CC JUMP JUMPDEST DUP5 ADD SWAP2 POP POP SWAP3 SWAP2 POP POP JUMP JUMPDEST PUSH0 PUSH1 0x20 DUP3 ADD SWAP1 POP DUP2 DUP2 SUB PUSH0 DUP4 ADD MSTORE PUSH2 0x62C DUP2 DUP5 PUSH2 0x5DC JUMP JUMPDEST SWAP1 POP SWAP3 SWAP2 POP POP JUMP JUMPDEST PUSH32 0x4E487B7100000000000000000000000000000000000000000000000000000000 PUSH0 MSTORE PUSH1 0x51 PUSH1 0x4 MSTORE PUSH1 0x24 PUSH0 REVERT INVALID LOG2 PUSH5 0x6970667358 0x22 SLT KECCAK256 0xB3 SELFDESTRUCT CHAINID DUP1 0x27 SLT RETURNCONTRACT 0xBE 0xB9 DUP3 CREATE2 MCOPY 0xEF RJUMPI 0x21D8 PUSH23 0xA61270D6AF699C285FE2092EB34EC664736F6C63430008 0x1F STOP CALLER "
		},
		"gasEstimates": {
			"creation": {
				"codeDepositCost": "337400",
				"executionCost": "372",
				"totalCost": "337772"
			},
			"external": {
				"confirmTrasfer(bytes32)": "29095",
				"consolelog()": "infinite",
				"initiateTranfer(address,uint256)": "infinite",
				"transferConfimation(bytes32)": "2762"
			}
		},
		"methodIdentifiers": {
			"confirmTrasfer(bytes32)": "ecc9750c",
			"consolelog()": "a4da8e41",
			"initiateTranfer(address,uint256)": "8b83c745",
			"transferConfimation(bytes32)": "81bfbd14"
		}
	},
	"abi": [
		{
			"anonymous": false,
			"inputs": [
				{
					"indexed": true,
					"internalType": "address",
					"name": "from",
					"type": "address"
				},
				{
					"indexed": true,
					"internalType": "address",
					"name": "",
					"type": "address"
				},
				{
					"indexed": false,
					"internalType": "uint256",
					"name": "value",
					"type": "uint256"
				}
			],
			"name": "TransferConfirmed",
			"type": "event"
		},
		{
			"anonymous": false,
			"inputs": [
				{
					"indexed": true,
					"internalType": "address",
					"name": "from",
					"type": "address"
				},
				{
					"indexed": true,
					"internalType": "address",
					"name": "to",
					"type": "address"
				},
				{
					"indexed": false,
					"internalType": "uint256",
					"name": "vlaue",
					"type": "uint256"
				}
			],
			"name": "TransferInitiated",
			"type": "event"
		},
		{
			"inputs": [
				{
					"internalType": "bytes32",
					"name": "transferId",
					"type": "bytes32"
				}
			],
			"name": "confirmTrasfer",
			"outputs": [],
			"stateMutability": "nonpayable",
			"type": "function"
		},
		{
			"inputs": [],
			"name": "consolelog",
			"outputs": [],
			"stateMutability": "pure",
			"type": "function"
		},
		{
			"inputs": [
				{
					"internalType": "address",
					"name": "to",
					"type": "address"
				},
				{
					"internalType": "uint256",
					"name": "value",
					"type": "uint256"
				}
			],
			"name": "initiateTranfer",
			"outputs": [],
			"stateMutability": "nonpayable",
			"type": "function"
		},
		{
			"inputs": [
				{
					"internalType": "bytes32",
					"name": "",
					"type": "bytes32"
				}
			],
			"name": "transferConfimation",
			"outputs": [
				{
					"internalType": "bool",
					"name": "",
					"type": "bool"
				}
			],
			"stateMutability": "view",
			"type": "function"
		}
	]
}