{
	"data": {
		"bytecode": {
			"linkReferences": {},
			"object": "6080604052348015600e575f5ffd5b506104ae8061001c5f395ff3fe608060405234801561000f575f5ffd5b506004361061003f575f3560e01c806381bfbd14146100435780638b83c74514610073578063ecc9750c1461008f575b5f5ffd5b61005d60048036038101906100589190610254565b6100ab565b60405161006a9190610299565b60405180910390f35b61008d6004803603810190610088919061033f565b6100c7565b005b6100a960048036038101906100a49190610254565b610130565b005b5f602052805f5260405f205f915054906101000a900460ff1681565b8173ffffffffffffffffffffffffffffffffffffffff163373ffffffffffffffffffffffffffffffffffffffff167f0cb34e106629dce34b632826bbba6b38e39c5957eb06a27e76efcc3d55da46b583604051610124919061038c565b60405180910390a35050565b5f5f8281526020019081526020015f205f9054906101000a900460ff161561018d576040517f08c379a0000000000000000000000000000000000000000000000000000000008152600401610184906103ff565b60405180910390fd5b60015f5f8381526020019081526020015f205f6101000a81548160ff0219169083151502179055503073ffffffffffffffffffffffffffffffffffffffff163373ffffffffffffffffffffffffffffffffffffffff167f2124d88aa92c7e58a611e48ff010ce34513712663afaac6573ccfd957d8965795f604051610212919061045f565b60405180910390a350565b5f5ffd5b5f819050919050565b61023381610221565b811461023d575f5ffd5b50565b5f8135905061024e8161022a565b92915050565b5f602082840312156102695761026861021d565b5b5f61027684828501610240565b91505092915050565b5f8115159050919050565b6102938161027f565b82525050565b5f6020820190506102ac5f83018461028a565b92915050565b5f73ffffffffffffffffffffffffffffffffffffffff82169050919050565b5f6102db826102b2565b9050919050565b6102eb816102d1565b81146102f5575f5ffd5b50565b5f81359050610306816102e2565b92915050565b5f819050919050565b61031e8161030c565b8114610328575f5ffd5b50565b5f8135905061033981610315565b92915050565b5f5f604083850312156103555761035461021d565b5b5f610362858286016102f8565b92505060206103738582860161032b565b9150509250929050565b6103868161030c565b82525050565b5f60208201905061039f5f83018461037d565b92915050565b5f82825260208201905092915050565b7f5472616e7366657220616c64726561647920636f6e6669726d656400000000005f82015250565b5f6103e9601b836103a5565b91506103f4826103b5565b602082019050919050565b5f6020820190508181035f830152610416816103dd565b9050919050565b5f819050919050565b5f819050919050565b5f61044961044461043f8461041d565b610426565b61030c565b9050919050565b6104598161042f565b82525050565b5f6020820190506104725f830184610450565b9291505056fea26469706673582212203ee4885d5445cfa54648c79ddd2129d01ea75ca21047acf344c780bdf60cbe0964736f6c634300081f0033",
			"opcodes": "PUSH1 0x80 PUSH1 0x40 MSTORE CALLVALUE DUP1 ISZERO PUSH1 0xE JUMPI PUSH0 PUSH0 REVERT JUMPDEST POP PUSH2 0x4AE DUP1 PUSH2 0x1C PUSH0 CODECOPY PUSH0 RETURN INVALID PUSH1 0x80 PUSH1 0x40 MSTORE CALLVALUE DUP1 ISZERO PUSH2 0xF JUMPI PUSH0 PUSH0 REVERT JUMPDEST POP PUSH1 0x4 CALLDATASIZE LT PUSH2 0x3F JUMPI PUSH0 CALLDATALOAD PUSH1 0xE0 SHR DUP1 PUSH4 0x81BFBD14 EQ PUSH2 0x43 JUMPI DUP1 PUSH4 0x8B83C745 EQ PUSH2 0x73 JUMPI DUP1 PUSH4 0xECC9750C EQ PUSH2 0x8F JUMPI JUMPDEST PUSH0 PUSH0 REVERT JUMPDEST PUSH2 0x5D PUSH1 0x4 DUP1 CALLDATASIZE SUB DUP2 ADD SWAP1 PUSH2 0x58 SWAP2 SWAP1 PUSH2 0x254 JUMP JUMPDEST PUSH2 0xAB JUMP JUMPDEST PUSH1 0x40 MLOAD PUSH2 0x6A SWAP2 SWAP1 PUSH2 0x299 JUMP JUMPDEST PUSH1 0x40 MLOAD DUP1 SWAP2 SUB SWAP1 RETURN JUMPDEST PUSH2 0x8D PUSH1 0x4 DUP1 CALLDATASIZE SUB DUP2 ADD SWAP1 PUSH2 0x88 SWAP2 SWAP1 PUSH2 0x33F JUMP JUMPDEST PUSH2 0xC7 JUMP JUMPDEST STOP JUMPDEST PUSH2 0xA9 PUSH1 0x4 DUP1 CALLDATASIZE SUB DUP2 ADD SWAP1 PUSH2 0xA4 SWAP2 SWAP1 PUSH2 0x254 JUMP JUMPDEST PUSH2 0x130 JUMP JUMPDEST STOP JUMPDEST PUSH0 PUSH1 0x20 MSTORE DUP1 PUSH0 MSTORE PUSH1 0x40 PUSH0 KECCAK256 PUSH0 SWAP2 POP SLOAD SWAP1 PUSH2 0x100 EXP SWAP1 DIV PUSH1 0xFF AND DUP2 JUMP JUMPDEST DUP2 PUSH20 0xFFFFFFFFFFFFFFFFFFFFFFFFFFFFFFFFFFFFFFFF AND CALLER PUSH20 0xFFFFFFFFFFFFFFFFFFFFFFFFFFFFFFFFFFFFFFFF AND PUSH32 0xCB34E106629DCE34B632826BBBA6B38E39C5957EB06A27E76EFCC3D55DA46B5 DUP4 PUSH1 0x40 MLOAD PUSH2 0x124 SWAP2 SWAP1 PUSH2 0x38C JUMP JUMPDEST PUSH1 0x40 MLOAD DUP1 SWAP2 SUB SWAP1 LOG3 POP POP JUMP JUMPDEST PUSH0 PUSH0 DUP3 DUP2 MSTORE PUSH1 0x20 ADD SWAP1 DUP2 MSTORE PUSH1 0x20 ADD PUSH0 KECCAK256 PUSH0 SWAP1 SLOAD SWAP1 PUSH2 0x100 EXP SWAP1 DIV PUSH1 0xFF AND ISZERO PUSH2 0x18D JUMPI PUSH1 0x40 MLOAD PUSH32 0x8C379A000000000000000000000000000000000000000000000000000000000 DUP2 MSTORE PUSH1 0x4 ADD PUSH2 0x184 SWAP1 PUSH2 0x3FF JUMP JUMPDEST PUSH1 0x40 MLOAD DUP1 SWAP2 SUB SWAP1 REVERT JUMPDEST PUSH1 0x1 PUSH0 PUSH0 DUP4 DUP2 MSTORE PUSH1 0x20 ADD SWAP1 DUP2 MSTORE PUSH1 0x20 ADD PUSH0 KECCAK256 PUSH0 PUSH2 0x100 EXP DUP2 SLOAD DUP2 PUSH1 0xFF MUL NOT AND SWAP1 DUP4 ISZERO ISZERO MUL OR SWAP1 SSTORE POP ADDRESS PUSH20 0xFFFFFFFFFFFFFFFFFFFFFFFFFFFFFFFFFFFFFFFF AND CALLER PUSH20 0xFFFFFFFFFFFFFFFFFFFFFFFFFFFFFFFFFFFFFFFF AND PUSH32 0x2124D88AA92C7E58A611E48FF010CE34513712663AFAAC6573CCFD957D896579 PUSH0 PUSH1 0x40 MLOAD PUSH2 0x212 SWAP2 SWAP1 PUSH2 0x45F JUMP JUMPDEST PUSH1 0x40 MLOAD DUP1 SWAP2 SUB SWAP1 LOG3 POP JUMP JUMPDEST PUSH0 PUSH0 REVERT JUMPDEST PUSH0 DUP2 SWAP1 POP SWAP2 SWAP1 POP JUMP JUMPDEST PUSH2 0x233 DUP2 PUSH2 0x221 JUMP JUMPDEST DUP2 EQ PUSH2 0x23D JUMPI PUSH0 PUSH0 REVERT JUMPDEST POP JUMP JUMPDEST PUSH0 DUP2 CALLDATALOAD SWAP1 POP PUSH2 0x24E DUP2 PUSH2 0x22A JUMP JUMPDEST SWAP3 SWAP2 POP POP JUMP JUMPDEST PUSH0 PUSH1 0x20 DUP3 DUP5 SUB SLT ISZERO PUSH2 0x269 JUMPI PUSH2 0x268 PUSH2 0x21D JUMP JUMPDEST JUMPDEST PUSH0 PUSH2 0x276 DUP5 DUP3 DUP6 ADD PUSH2 0x240 JUMP JUMPDEST SWAP2 POP POP SWAP3 SWAP2 POP POP JUMP JUMPDEST PUSH0 DUP2 ISZERO ISZERO SWAP1 POP SWAP2 SWAP1 POP JUMP JUMPDEST PUSH2 0x293 DUP2 PUSH2 0x27F JUMP JUMPDEST DUP3 MSTORE POP POP JUMP JUMPDEST PUSH0 PUSH1 0x20 DUP3 ADD SWAP1 POP PUSH2 0x2AC PUSH0 DUP4 ADD DUP5 PUSH2 0x28A JUMP JUMPDEST SWAP3 SWAP2 POP POP JUMP JUMPDEST PUSH0 PUSH20 0xFFFFFFFFFFFFFFFFFFFFFFFFFFFFFFFFFFFFFFFF DUP3 AND SWAP1 POP SWAP2 SWAP1 POP JUMP JUMPDEST PUSH0 PUSH2 0x2DB DUP3 PUSH2 0x2B2 JUMP JUMPDEST SWAP1 POP SWAP2 SWAP1 POP JUMP JUMPDEST PUSH2 0x2EB DUP2 PUSH2 0x2D1 JUMP JUMPDEST DUP2 EQ PUSH2 0x2F5 JUMPI PUSH0 PUSH0 REVERT JUMPDEST POP JUMP JUMPDEST PUSH0 DUP2 CALLDATALOAD SWAP1 POP PUSH2 0x306 DUP2 PUSH2 0x2E2 JUMP JUMPDEST SWAP3 SWAP2 POP POP JUMP JUMPDEST PUSH0 DUP2 SWAP1 POP SWAP2 SWAP1 POP JUMP JUMPDEST PUSH2 0x31E DUP2 PUSH2 0x30C JUMP JUMPDEST DUP2 EQ PUSH2 0x328 JUMPI PUSH0 PUSH0 REVERT JUMPDEST POP JUMP JUMPDEST PUSH0 DUP2 CALLDATALOAD SWAP1 POP PUSH2 0x339 DUP2 PUSH2 0x315 JUMP JUMPDEST SWAP3 SWAP2 POP POP JUMP JUMPDEST PUSH0 PUSH0 PUSH1 0x40 DUP4 DUP6 SUB SLT ISZERO PUSH2 0x355 JUMPI PUSH2 0x354 PUSH2 0x21D JUMP JUMPDEST JUMPDEST PUSH0 PUSH2 0x362 DUP6 DUP3 DUP7 ADD PUSH2 0x2F8 JUMP JUMPDEST SWAP3 POP POP PUSH1 0x20 PUSH2 0x373 DUP6 DUP3 DUP7 ADD PUSH2 0x32B JUMP JUMPDEST SWAP2 POP POP SWAP3 POP SWAP3 SWAP1 POP JUMP JUMPDEST PUSH2 0x386 DUP2 PUSH2 0x30C JUMP JUMPDEST DUP3 MSTORE POP POP JUMP JUMPDEST PUSH0 PUSH1 0x20 DUP3 ADD SWAP1 POP PUSH2 0x39F PUSH0 DUP4 ADD DUP5 PUSH2 0x37D JUMP JUMPDEST SWAP3 SWAP2 POP POP JUMP JUMPDEST PUSH0 DUP3 DUP3 MSTORE PUSH1 0x20 DUP3 ADD SWAP1 POP SWAP3 SWAP2 POP POP JUMP JUMPDEST PUSH32 0x5472616E7366657220616C64726561647920636F6E6669726D65640000000000 PUSH0 DUP3 ADD MSTORE POP JUMP JUMPDEST PUSH0 PUSH2 0x3E9 PUSH1 0x1B DUP4 PUSH2 0x3A5 JUMP JUMPDEST SWAP2 POP PUSH2 0x3F4 DUP3 PUSH2 0x3B5 JUMP JUMPDEST PUSH1 0x20 DUP3 ADD SWAP1 POP SWAP2 SWAP1 POP JUMP JUMPDEST PUSH0 PUSH1 0x20 DUP3 ADD SWAP1 POP DUP2 DUP2 SUB PUSH0 DUP4 ADD MSTORE PUSH2 0x416 DUP2 PUSH2 0x3DD JUMP JUMPDEST SWAP1 POP SWAP2 SWAP1 POP JUMP JUMPDEST PUSH0 DUP2 SWAP1 POP SWAP2 SWAP1 POP JUMP JUMPDEST PUSH0 DUP2 SWAP1 POP SWAP2 SWAP1 POP JUMP JUMPDEST PUSH0 PUSH2 0x449 PUSH2 0x444 PUSH2 0x43F DUP5 PUSH2 0x41D JUMP JUMPDEST PUSH2 0x426 JUMP JUMPDEST PUSH2 0x30C JUMP JUMPDEST SWAP1 POP SWAP2 SWAP1 POP JUMP JUMPDEST PUSH2 0x459 DUP2 PUSH2 0x42F JUMP JUMPDEST DUP3 MSTORE POP POP JUMP JUMPDEST PUSH0 PUSH1 0x20 DUP3 ADD SWAP1 POP PUSH2 0x472 PUSH0 DUP4 ADD DUP5 PUSH2 0x450 JUMP JUMPDEST SWAP3 SWAP2 POP POP JUMP INVALID LOG2 PUSH5 0x6970667358 0x22 SLT KECCAK256 RETURNDATACOPY RETF DUP9 TSTORE SLOAD GASLIMIT 0xCF 0xA5 CHAINID BASEFEE 0xC7 SWAP14 0xDD 0x21 0x29 0xD0 CLZ 0xA7 TLOAD LOG2 LT SELFBALANCE 0xAC RETURN PREVRANDAO 0xC7 DUP1 0xBD 0xF6 0xC 0xBE MULMOD PUSH5 0x736F6C6343 STOP ADDMOD 0x1F STOP CALLER "
		},
		"gasEstimates": {
			"creation": {
				"codeDepositCost": "239600",
				"executionCost": "279",
				"totalCost": "239879"
			},
			"external": {
				"confirmTrasfer(bytes32)": "29073",
				"initiateTranfer(address,uint256)": "infinite",
				"transferConfimation(bytes32)": "2762"
			}
		},
		"methodIdentifiers": {
			"confirmTrasfer(bytes32)": "ecc9750c",
			"initiateTranfer(address,uint256)": "8b83c745",
			"transferConfimation(bytes32)": "81bfbd14"
		}
	},
	"abi": [
		{
			"anonymous": false,
			"inputs": [
				{
					"indexed": true,
					"internalType": "address",
					"name": "from",
					"type": "address"
				},
				{
					"indexed": true,
					"internalType": "address",
					"name": "",
					"type": "address"
				},
				{
					"indexed": false,
					"internalType": "uint256",
					"name": "value",
					"type": "uint256"
				}
			],
			"name": "TransferConfirmed",
			"type": "event"
		},
		{
			"anonymous": false,
			"inputs": [
				{
					"indexed": true,
					"internalType": "address",
					"name": "from",
					"type": "address"
				},
				{
					"indexed": true,
					"internalType": "address",
					"name": "to",
					"type": "address"
				},
				{
					"indexed": false,
					"internalType": "uint256",
					"name": "vlaue",
					"type": "uint256"
				}
			],
			"name": "TransferInitiated",
			"type": "event"
		},
		{
			"inputs": [
				{
					"internalType": "bytes32",
					"name": "transferId",
					"type": "bytes32"
				}
			],
			"name": "confirmTrasfer",
			"outputs": [],
			"stateMutability": "nonpayable",
			"type": "function"
		},
		{
			"inputs": [
				{
					"internalType": "address",
					"name": "to",
					"type": "address"
				},
				{
					"internalType": "uint256",
					"name": "value",
					"type": "uint256"
				}
			],
			"name": "initiateTranfer",
			"outputs": [],
			"stateMutability": "nonpayable",
			"type": "function"
		},
		{
			"inputs": [
				{
					"internalType": "bytes32",
					"name": "",
					"type": "bytes32"
				}
			],
			"name": "transferConfimation",
			"outputs": [
				{
					"internalType": "bool",
					"name": "",
					"type": "bool"
				}
			],
			"stateMutability": "view",
			"type": "function"
		}
	]
}