{
	"data": {
		"bytecode": {
			"linkReferences": {},
			"object": "6080604052348015600e575f5ffd5b506102638061001c5f395ff3fe608060405234801561000f575f5ffd5b5060043610610034575f3560e01c8063645e9edf146100385780639848d8e614610042575b5f5ffd5b61004061004c565b005b61004a610073565b005b5f5f600190505f42905061006082826100b9565b925061006c81836100b9565b9250505050565b5f600190505f4290505f8290505f8290506100a28267ffffffffffffffff168267ffffffffffffffff166100c8565b5f5f90506100b08585610164565b90505050505050565b5f818360401b17905092915050565b61016082826040516024016100de9291906101d9565b6040516020818303038152906040527ff666715a000000000000000000000000000000000000000000000000000000007bffffffffffffffffffffffffffffffffffffffffffffffffffffffff19166020820180517bffffffffffffffffffffffffffffffffffffffffffffffffffffffff8381831617835250505050610173565b5050565b5f818360401b17905092915050565b61018a8161018261018d6101ac565b63ffffffff16565b50565b5f6a636f6e736f6c652e6c6f6790505f5f835160208501845afa505050565b6101b7819050919050565b6101bf610200565b565b5f819050919050565b6101d3816101c1565b82525050565b5f6040820190506101ec5f8301856101ca565b6101f960208301846101ca565b9392505050565b7f4e487b71000000000000000000000000000000000000000000000000000000005f52605160045260245ffdfea26469706673582212208cd5ed88fcfe3b6333bf1d5345f1cdee391e893a35bc4b23be7ff3e8abe6d08964736f6c634300081f0033",
			"opcodes": "PUSH1 0x80 PUSH1 0x40 MSTORE CALLVALUE DUP1 ISZERO PUSH1 0xE JUMPI PUSH0 PUSH0 REVERT JUMPDEST POP PUSH2 0x263 DUP1 PUSH2 0x1C PUSH0 CODECOPY PUSH0 RETURN INVALID PUSH1 0x80 PUSH1 0x40 MSTORE CALLVALUE DUP1 ISZERO PUSH2 0xF JUMPI PUSH0 PUSH0 REVERT JUMPDEST POP PUSH1 0x4 CALLDATASIZE LT PUSH2 0x34 JUMPI PUSH0 CALLDATALOAD PUSH1 0xE0 SHR DUP1 PUSH4 0x645E9EDF EQ PUSH2 0x38 JUMPI DUP1 PUSH4 0x9848D8E6 EQ PUSH2 0x42 JUMPI JUMPDEST PUSH0 PUSH0 REVERT JUMPDEST PUSH2 0x40 PUSH2 0x4C JUMP JUMPDEST STOP JUMPDEST PUSH2 0x4A PUSH2 0x73 JUMP JUMPDEST STOP JUMPDEST PUSH0 PUSH0 PUSH1 0x1 SWAP1 POP PUSH0 TIMESTAMP SWAP1 POP PUSH2 0x60 DUP3 DUP3 PUSH2 0xB9 JUMP JUMPDEST SWAP3 POP PUSH2 0x6C DUP2 DUP4 PUSH2 0xB9 JUMP JUMPDEST SWAP3 POP POP POP POP JUMP JUMPDEST PUSH0 PUSH1 0x1 SWAP1 POP PUSH0 TIMESTAMP SWAP1 POP PUSH0 DUP3 SWAP1 POP PUSH0 DUP3 SWAP1 POP PUSH2 0xA2 DUP3 PUSH8 0xFFFFFFFFFFFFFFFF AND DUP3 PUSH8 0xFFFFFFFFFFFFFFFF AND PUSH2 0xC8 JUMP JUMPDEST PUSH0 PUSH0 SWAP1 POP PUSH2 0xB0 DUP6 DUP6 PUSH2 0x164 JUMP JUMPDEST SWAP1 POP POP POP POP POP POP JUMP JUMPDEST PUSH0 DUP2 DUP4 PUSH1 0x40 SHL OR SWAP1 POP SWAP3 SWAP2 POP POP JUMP JUMPDEST PUSH2 0x160 DUP3 DUP3 PUSH1 0x40 MLOAD PUSH1 0x24 ADD PUSH2 0xDE SWAP3 SWAP2 SWAP1 PUSH2 0x1D9 JUMP JUMPDEST PUSH1 0x40 MLOAD PUSH1 0x20 DUP2 DUP4 SUB SUB DUP2 MSTORE SWAP1 PUSH1 0x40 MSTORE PUSH32 0xF666715A00000000000000000000000000000000000000000000000000000000 PUSH28 0xFFFFFFFFFFFFFFFFFFFFFFFFFFFFFFFFFFFFFFFFFFFFFFFFFFFFFFFF NOT AND PUSH1 0x20 DUP3 ADD DUP1 MLOAD PUSH28 0xFFFFFFFFFFFFFFFFFFFFFFFFFFFFFFFFFFFFFFFFFFFFFFFFFFFFFFFF DUP4 DUP2 DUP4 AND OR DUP4 MSTORE POP POP POP POP PUSH2 0x173 JUMP JUMPDEST POP POP JUMP JUMPDEST PUSH0 DUP2 DUP4 PUSH1 0x40 SHL OR SWAP1 POP SWAP3 SWAP2 POP POP JUMP JUMPDEST PUSH2 0x18A DUP2 PUSH2 0x182 PUSH2 0x18D PUSH2 0x1AC JUMP JUMPDEST PUSH4 0xFFFFFFFF AND JUMP JUMPDEST POP JUMP JUMPDEST PUSH0 PUSH11 0x636F6E736F6C652E6C6F67 SWAP1 POP PUSH0 PUSH0 DUP4 MLOAD PUSH1 0x20 DUP6 ADD DUP5 GAS STATICCALL POP POP POP JUMP JUMPDEST PUSH2 0x1B7 DUP2 SWAP1 POP SWAP2 SWAP1 POP JUMP JUMPDEST PUSH2 0x1BF PUSH2 0x200 JUMP JUMPDEST JUMP JUMPDEST PUSH0 DUP2 SWAP1 POP SWAP2 SWAP1 POP JUMP JUMPDEST PUSH2 0x1D3 DUP2 PUSH2 0x1C1 JUMP JUMPDEST DUP3 MSTORE POP POP JUMP JUMPDEST PUSH0 PUSH1 0x40 DUP3 ADD SWAP1 POP PUSH2 0x1EC PUSH0 DUP4 ADD DUP6 PUSH2 0x1CA JUMP JUMPDEST PUSH2 0x1F9 PUSH1 0x20 DUP4 ADD DUP5 PUSH2 0x1CA JUMP JUMPDEST SWAP4 SWAP3 POP POP POP JUMP JUMPDEST PUSH32 0x4E487B7100000000000000000000000000000000000000000000000000000000 PUSH0 MSTORE PUSH1 0x51 PUSH1 0x4 MSTORE PUSH1 0x24 PUSH0 REVERT INVALID LOG2 PUSH5 0x6970667358 0x22 SLT KECCAK256 DUP13 0xD5 0xED DUP9 0xFC INVALID EXTCODESIZE PUSH4 0x33BF1D53 GASLIMIT CALL 0xCD RETURNCONTRACT 0x39 CLZ DUP10 GASPRICE CALLDATALOAD 0xBC 0x4B 0x23 0xBE PUSH32 0xF3E8ABE6D08964736F6C634300081F0033000000000000000000000000000000 "
		},
		"gasEstimates": {
			"creation": {
				"codeDepositCost": "122200",
				"executionCost": "169",
				"totalCost": "122369"
			},
			"external": {
				"example_no_uvdt()": "infinite",
				"example_uvdt()": "infinite"
			}
		},
		"methodIdentifiers": {
			"example_no_uvdt()": "645e9edf",
			"example_uvdt()": "9848d8e6"
		}
	},
	"abi": [
		{
			"inputs": [],
			"name": "example_no_uvdt",
			"outputs": [],
			"stateMutability": "view",
			"type": "function"
		},
		{
			"inputs": [],
			"name": "example_uvdt",
			"outputs": [],
			"stateMutability": "view",
			"type": "function"
		}
	]
}