{
	"data": {
		"bytecode": {
			"linkReferences": {},
			"object": "608060405234801561000f575f5ffd5b50610020335f61002560201b60201c565b61018e565b5f5f8373ffffffffffffffffffffffffffffffffffffffff1673ffffffffffffffffffffffffffffffffffffffff1681526020019081526020015f205f8260ff1660ff1681526020019081526020015f205f9054906101000a900460ff166101565760015f5f8473ffffffffffffffffffffffffffffffffffffffff1673ffffffffffffffffffffffffffffffffffffffff1681526020019081526020015f205f8360ff1660ff1681526020019081526020015f205f6101000a81548160ff0219169083151502179055503373ffffffffffffffffffffffffffffffffffffffff168273ffffffffffffffffffffffffffffffffffffffff167f454d3be37ac6a7b902340e5413df5663e10f86d1a576286058188216404a88ef8360405161014d9190610175565b60405180910390a35b5050565b5f60ff82169050919050565b61016f8161015a565b82525050565b5f6020820190506101885f830184610166565b92915050565b610cbe8061019b5f395ff3fe60806040526004361061007e575f3560e01c8063b69ef8a81161004d578063b69ef8a8146101dd578063d391014b14610207578063f3fef3a314610231578063fb8a1a6b14610259576100d3565b8063077d3c03146101275780633e8402361461014f5780634fe4230f1461017757806395a8c58d146101a1576100d3565b366100d3573373ffffffffffffffffffffffffffffffffffffffff167fbb527541f6cc244ae00ab689f8c23d072a30a3b4176021df62ea1c2bac8aa226346040516100c991906109b2565b60405180910390a2005b3373ffffffffffffffffffffffffffffffffffffffff167faca09dd456ca888dccf8cc966e382e6e3042bb7e4d2d7815015f844edeafce42345f3660405161011d93929190610a25565b60405180910390a2005b348015610132575f5ffd5b5061014d60048036038101906101489190610ae9565b610283565b005b34801561015a575f5ffd5b5061017560048036038101906101709190610ae9565b610386565b005b348015610182575f5ffd5b5061018b610489565b6040516101989190610b36565b60405180910390f35b3480156101ac575f5ffd5b506101c760048036038101906101c29190610ae9565b61048e565b6040516101d49190610b69565b60405180910390f35b3480156101e8575f5ffd5b506101f16104f5565b6040516101fe91906109b2565b60405180910390f35b348015610212575f5ffd5b5061021b6104fc565b6040516102289190610b36565b60405180910390f35b34801561023c575f5ffd5b5061025760048036038101906102529190610bac565b610500565b005b348015610264575f5ffd5b5061026d61072b565b60405161027a9190610b36565b60405180910390f35b5f61028e338261048e565b6102d15733816040517f9eb419e10000000000000000000000000000000000000000000000000000000081526004016102c8929190610bf9565b60405180910390fd5b5f73ffffffffffffffffffffffffffffffffffffffff168373ffffffffffffffffffffffffffffffffffffffff1603610336576040517fd92e233d00000000000000000000000000000000000000000000000000000000815260040160405180910390fd5b600260ff168260ff161115610377576040517fd954416a00000000000000000000000000000000000000000000000000000000815260040160405180910390fd5b6103818383610730565b505050565b5f610391338261048e565b6103d45733816040517f9eb419e10000000000000000000000000000000000000000000000000000000081526004016103cb929190610bf9565b60405180910390fd5b5f73ffffffffffffffffffffffffffffffffffffffff168373ffffffffffffffffffffffffffffffffffffffff1603610439576040517fd92e233d00000000000000000000000000000000000000000000000000000000815260040160405180910390fd5b600260ff168260ff16111561047a576040517fd954416a00000000000000000000000000000000000000000000000000000000815260040160405180910390fd5b6104848383610865565b505050565b600181565b5f5f5f8473ffffffffffffffffffffffffffffffffffffffff1673ffffffffffffffffffffffffffffffffffffffff1681526020019081526020015f205f8360ff1660ff1681526020019081526020015f205f9054906101000a900460ff16905092915050565b5f47905090565b5f81565b5f61050b338261048e565b61054e5733816040517f9eb419e1000000000000000000000000000000000000000000000000000000008152600401610545929190610bf9565b60405180910390fd5b5f73ffffffffffffffffffffffffffffffffffffffff168373ffffffffffffffffffffffffffffffffffffffff16036105b3576040517fd92e233d00000000000000000000000000000000000000000000000000000000815260040160405180910390fd5b5f82036105ec576040517f1f2a200500000000000000000000000000000000000000000000000000000000815260040160405180910390fd5b5f479050808311156106375782816040517fcf47918100000000000000000000000000000000000000000000000000000000815260040161062e929190610c20565b60405180910390fd5b5f8473ffffffffffffffffffffffffffffffffffffffff168460405161065c90610c74565b5f6040518083038185875af1925050503d805f8114610696576040519150601f19603f3d011682016040523d82523d5f602084013e61069b565b606091505b50509050806106d6576040517f90b8ec1800000000000000000000000000000000000000000000000000000000815260040160405180910390fd5b8473ffffffffffffffffffffffffffffffffffffffff167f7084f5476618d8e60b11ef0d7d3f06914655adb8793e28ff7f018d4c76d505d58560405161071c91906109b2565b60405180910390a25050505050565b600281565b5f5f8373ffffffffffffffffffffffffffffffffffffffff1673ffffffffffffffffffffffffffffffffffffffff1681526020019081526020015f205f8260ff1660ff1681526020019081526020015f205f9054906101000a900460ff1615610861575f5f5f8473ffffffffffffffffffffffffffffffffffffffff1673ffffffffffffffffffffffffffffffffffffffff1681526020019081526020015f205f8360ff1660ff1681526020019081526020015f205f6101000a81548160ff0219169083151502179055503373ffffffffffffffffffffffffffffffffffffffff168273ffffffffffffffffffffffffffffffffffffffff167fdc8ee88592cee6126ab42f95859fdf2bbf7b0a614a14d4fb307b601e2b5b0b05836040516108589190610b36565b60405180910390a35b5050565b5f5f8373ffffffffffffffffffffffffffffffffffffffff1673ffffffffffffffffffffffffffffffffffffffff1681526020019081526020015f205f8260ff1660ff1681526020019081526020015f205f9054906101000a900460ff166109965760015f5f8473ffffffffffffffffffffffffffffffffffffffff1673ffffffffffffffffffffffffffffffffffffffff1681526020019081526020015f205f8360ff1660ff1681526020019081526020015f205f6101000a81548160ff0219169083151502179055503373ffffffffffffffffffffffffffffffffffffffff168273ffffffffffffffffffffffffffffffffffffffff167f454d3be37ac6a7b902340e5413df5663e10f86d1a576286058188216404a88ef8360405161098d9190610b36565b60405180910390a35b5050565b5f819050919050565b6109ac8161099a565b82525050565b5f6020820190506109c55f8301846109a3565b92915050565b5f82825260208201905092915050565b828183375f83830152505050565b5f601f19601f8301169050919050565b5f610a0483856109cb565b9350610a118385846109db565b610a1a836109e9565b840190509392505050565b5f604082019050610a385f8301866109a3565b8181036020830152610a4b8184866109f9565b9050949350505050565b5f5ffd5b5f73ffffffffffffffffffffffffffffffffffffffff82169050919050565b5f610a8282610a59565b9050919050565b610a9281610a78565b8114610a9c575f5ffd5b50565b5f81359050610aad81610a89565b92915050565b5f60ff82169050919050565b610ac881610ab3565b8114610ad2575f5ffd5b50565b5f81359050610ae381610abf565b92915050565b5f5f60408385031215610aff57610afe610a55565b5b5f610b0c85828601610a9f565b9250506020610b1d85828601610ad5565b9150509250929050565b610b3081610ab3565b82525050565b5f602082019050610b495f830184610b27565b92915050565b5f8115159050919050565b610b6381610b4f565b82525050565b5f602082019050610b7c5f830184610b5a565b92915050565b610b8b8161099a565b8114610b95575f5ffd5b50565b5f81359050610ba681610b82565b92915050565b5f5f60408385031215610bc257610bc1610a55565b5b5f610bcf85828601610a9f565b9250506020610be085828601610b98565b9150509250929050565b610bf381610a78565b82525050565b5f604082019050610c0c5f830185610bea565b610c196020830184610b27565b9392505050565b5f604082019050610c335f8301856109a3565b610c4060208301846109a3565b9392505050565b5f81905092915050565b50565b5f610c5f5f83610c47565b9150610c6a82610c51565b5f82019050919050565b5f610c7e82610c54565b915081905091905056fea264697066735822122037d4d22454324343cefe3e77ab57c75d24e024698cd72697f928829e4a51ec2a64736f6c634300081f0033",
			"opcodes": "PUSH1 0x80 PUSH1 0x40 MSTORE CALLVALUE DUP1 ISZERO PUSH2 0xF JUMPI PUSH0 PUSH0 REVERT JUMPDEST POP PUSH2 0x20 CALLER PUSH0 PUSH2 0x25 PUSH1 0x20 SHL PUSH1 0x20 SHR JUMP JUMPDEST PUSH2 0x18E JUMP JUMPDEST PUSH0 PUSH0 DUP4 PUSH20 0xFFFFFFFFFFFFFFFFFFFFFFFFFFFFFFFFFFFFFFFF AND PUSH20 0xFFFFFFFFFFFFFFFFFFFFFFFFFFFFFFFFFFFFFFFF AND DUP2 MSTORE PUSH1 0x20 ADD SWAP1 DUP2 MSTORE PUSH1 0x20 ADD PUSH0 KECCAK256 PUSH0 DUP3 PUSH1 0xFF AND PUSH1 0xFF AND DUP2 MSTORE PUSH1 0x20 ADD SWAP1 DUP2 MSTORE PUSH1 0x20 ADD PUSH0 KECCAK256 PUSH0 SWAP1 SLOAD SWAP1 PUSH2 0x100 EXP SWAP1 DIV PUSH1 0xFF AND PUSH2 0x156 JUMPI PUSH1 0x1 PUSH0 PUSH0 DUP5 PUSH20 0xFFFFFFFFFFFFFFFFFFFFFFFFFFFFFFFFFFFFFFFF AND PUSH20 0xFFFFFFFFFFFFFFFFFFFFFFFFFFFFFFFFFFFFFFFF AND DUP2 MSTORE PUSH1 0x20 ADD SWAP1 DUP2 MSTORE PUSH1 0x20 ADD PUSH0 KECCAK256 PUSH0 DUP4 PUSH1 0xFF AND PUSH1 0xFF AND DUP2 MSTORE PUSH1 0x20 ADD SWAP1 DUP2 MSTORE PUSH1 0x20 ADD PUSH0 KECCAK256 PUSH0 PUSH2 0x100 EXP DUP2 SLOAD DUP2 PUSH1 0xFF MUL NOT AND SWAP1 DUP4 ISZERO ISZERO MUL OR SWAP1 SSTORE POP CALLER PUSH20 0xFFFFFFFFFFFFFFFFFFFFFFFFFFFFFFFFFFFFFFFF AND DUP3 PUSH20 0xFFFFFFFFFFFFFFFFFFFFFFFFFFFFFFFFFFFFFFFF AND PUSH32 0x454D3BE37AC6A7B902340E5413DF5663E10F86D1A576286058188216404A88EF DUP4 PUSH1 0x40 MLOAD PUSH2 0x14D SWAP2 SWAP1 PUSH2 0x175 JUMP JUMPDEST PUSH1 0x40 MLOAD DUP1 SWAP2 SUB SWAP1 LOG3 JUMPDEST POP POP JUMP JUMPDEST PUSH0 PUSH1 0xFF DUP3 AND SWAP1 POP SWAP2 SWAP1 POP JUMP JUMPDEST PUSH2 0x16F DUP2 PUSH2 0x15A JUMP JUMPDEST DUP3 MSTORE POP POP JUMP JUMPDEST PUSH0 PUSH1 0x20 DUP3 ADD SWAP1 POP PUSH2 0x188 PUSH0 DUP4 ADD DUP5 PUSH2 0x166 JUMP JUMPDEST SWAP3 SWAP2 POP POP JUMP JUMPDEST PUSH2 0xCBE DUP1 PUSH2 0x19B PUSH0 CODECOPY PUSH0 RETURN INVALID PUSH1 0x80 PUSH1 0x40 MSTORE PUSH1 0x4 CALLDATASIZE LT PUSH2 0x7E JUMPI PUSH0 CALLDATALOAD PUSH1 0xE0 SHR DUP1 PUSH4 0xB69EF8A8 GT PUSH2 0x4D JUMPI DUP1 PUSH4 0xB69EF8A8 EQ PUSH2 0x1DD JUMPI DUP1 PUSH4 0xD391014B EQ PUSH2 0x207 JUMPI DUP1 PUSH4 0xF3FEF3A3 EQ PUSH2 0x231 JUMPI DUP1 PUSH4 0xFB8A1A6B EQ PUSH2 0x259 JUMPI PUSH2 0xD3 JUMP JUMPDEST DUP1 PUSH4 0x77D3C03 EQ PUSH2 0x127 JUMPI DUP1 PUSH4 0x3E840236 EQ PUSH2 0x14F JUMPI DUP1 PUSH4 0x4FE4230F EQ PUSH2 0x177 JUMPI DUP1 PUSH4 0x95A8C58D EQ PUSH2 0x1A1 JUMPI PUSH2 0xD3 JUMP JUMPDEST CALLDATASIZE PUSH2 0xD3 JUMPI CALLER PUSH20 0xFFFFFFFFFFFFFFFFFFFFFFFFFFFFFFFFFFFFFFFF AND PUSH32 0xBB527541F6CC244AE00AB689F8C23D072A30A3B4176021DF62EA1C2BAC8AA226 CALLVALUE PUSH1 0x40 MLOAD PUSH2 0xC9 SWAP2 SWAP1 PUSH2 0x9B2 JUMP JUMPDEST PUSH1 0x40 MLOAD DUP1 SWAP2 SUB SWAP1 LOG2 STOP JUMPDEST CALLER PUSH20 0xFFFFFFFFFFFFFFFFFFFFFFFFFFFFFFFFFFFFFFFF AND PUSH32 0xACA09DD456CA888DCCF8CC966E382E6E3042BB7E4D2D7815015F844EDEAFCE42 CALLVALUE PUSH0 CALLDATASIZE PUSH1 0x40 MLOAD PUSH2 0x11D SWAP4 SWAP3 SWAP2 SWAP1 PUSH2 0xA25 JUMP JUMPDEST PUSH1 0x40 MLOAD DUP1 SWAP2 SUB SWAP1 LOG2 STOP JUMPDEST CALLVALUE DUP1 ISZERO PUSH2 0x132 JUMPI PUSH0 PUSH0 REVERT JUMPDEST POP PUSH2 0x14D PUSH1 0x4 DUP1 CALLDATASIZE SUB DUP2 ADD SWAP1 PUSH2 0x148 SWAP2 SWAP1 PUSH2 0xAE9 JUMP JUMPDEST PUSH2 0x283 JUMP JUMPDEST STOP JUMPDEST CALLVALUE DUP1 ISZERO PUSH2 0x15A JUMPI PUSH0 PUSH0 REVERT JUMPDEST POP PUSH2 0x175 PUSH1 0x4 DUP1 CALLDATASIZE SUB DUP2 ADD SWAP1 PUSH2 0x170 SWAP2 SWAP1 PUSH2 0xAE9 JUMP JUMPDEST PUSH2 0x386 JUMP JUMPDEST STOP JUMPDEST CALLVALUE DUP1 ISZERO PUSH2 0x182 JUMPI PUSH0 PUSH0 REVERT JUMPDEST POP PUSH2 0x18B PUSH2 0x489 JUMP JUMPDEST PUSH1 0x40 MLOAD PUSH2 0x198 SWAP2 SWAP1 PUSH2 0xB36 JUMP JUMPDEST PUSH1 0x40 MLOAD DUP1 SWAP2 SUB SWAP1 RETURN JUMPDEST CALLVALUE DUP1 ISZERO PUSH2 0x1AC JUMPI PUSH0 PUSH0 REVERT JUMPDEST POP PUSH2 0x1C7 PUSH1 0x4 DUP1 CALLDATASIZE SUB DUP2 ADD SWAP1 PUSH2 0x1C2 SWAP2 SWAP1 PUSH2 0xAE9 JUMP JUMPDEST PUSH2 0x48E JUMP JUMPDEST PUSH1 0x40 MLOAD PUSH2 0x1D4 SWAP2 SWAP1 PUSH2 0xB69 JUMP JUMPDEST PUSH1 0x40 MLOAD DUP1 SWAP2 SUB SWAP1 RETURN JUMPDEST CALLVALUE DUP1 ISZERO PUSH2 0x1E8 JUMPI PUSH0 PUSH0 REVERT JUMPDEST POP PUSH2 0x1F1 PUSH2 0x4F5 JUMP JUMPDEST PUSH1 0x40 MLOAD PUSH2 0x1FE SWAP2 SWAP1 PUSH2 0x9B2 JUMP JUMPDEST PUSH1 0x40 MLOAD DUP1 SWAP2 SUB SWAP1 RETURN JUMPDEST CALLVALUE DUP1 ISZERO PUSH2 0x212 JUMPI PUSH0 PUSH0 REVERT JUMPDEST POP PUSH2 0x21B PUSH2 0x4FC JUMP JUMPDEST PUSH1 0x40 MLOAD PUSH2 0x228 SWAP2 SWAP1 PUSH2 0xB36 JUMP JUMPDEST PUSH1 0x40 MLOAD DUP1 SWAP2 SUB SWAP1 RETURN JUMPDEST CALLVALUE DUP1 ISZERO PUSH2 0x23C JUMPI PUSH0 PUSH0 REVERT JUMPDEST POP PUSH2 0x257 PUSH1 0x4 DUP1 CALLDATASIZE SUB DUP2 ADD SWAP1 PUSH2 0x252 SWAP2 SWAP1 PUSH2 0xBAC JUMP JUMPDEST PUSH2 0x500 JUMP JUMPDEST STOP JUMPDEST CALLVALUE DUP1 ISZERO PUSH2 0x264 JUMPI PUSH0 PUSH0 REVERT JUMPDEST POP PUSH2 0x26D PUSH2 0x72B JUMP JUMPDEST PUSH1 0x40 MLOAD PUSH2 0x27A SWAP2 SWAP1 PUSH2 0xB36 JUMP JUMPDEST PUSH1 0x40 MLOAD DUP1 SWAP2 SUB SWAP1 RETURN JUMPDEST PUSH0 PUSH2 0x28E CALLER DUP3 PUSH2 0x48E JUMP JUMPDEST PUSH2 0x2D1 JUMPI CALLER DUP2 PUSH1 0x40 MLOAD PUSH32 0x9EB419E100000000000000000000000000000000000000000000000000000000 DUP2 MSTORE PUSH1 0x4 ADD PUSH2 0x2C8 SWAP3 SWAP2 SWAP1 PUSH2 0xBF9 JUMP JUMPDEST PUSH1 0x40 MLOAD DUP1 SWAP2 SUB SWAP1 REVERT JUMPDEST PUSH0 PUSH20 0xFFFFFFFFFFFFFFFFFFFFFFFFFFFFFFFFFFFFFFFF AND DUP4 PUSH20 0xFFFFFFFFFFFFFFFFFFFFFFFFFFFFFFFFFFFFFFFF AND SUB PUSH2 0x336 JUMPI PUSH1 0x40 MLOAD PUSH32 0xD92E233D00000000000000000000000000000000000000000000000000000000 DUP2 MSTORE PUSH1 0x4 ADD PUSH1 0x40 MLOAD DUP1 SWAP2 SUB SWAP1 REVERT JUMPDEST PUSH1 0x2 PUSH1 0xFF AND DUP3 PUSH1 0xFF AND GT ISZERO PUSH2 0x377 JUMPI PUSH1 0x40 MLOAD PUSH32 0xD954416A00000000000000000000000000000000000000000000000000000000 DUP2 MSTORE PUSH1 0x4 ADD PUSH1 0x40 MLOAD DUP1 SWAP2 SUB SWAP1 REVERT JUMPDEST PUSH2 0x381 DUP4 DUP4 PUSH2 0x730 JUMP JUMPDEST POP POP POP JUMP JUMPDEST PUSH0 PUSH2 0x391 CALLER DUP3 PUSH2 0x48E JUMP JUMPDEST PUSH2 0x3D4 JUMPI CALLER DUP2 PUSH1 0x40 MLOAD PUSH32 0x9EB419E100000000000000000000000000000000000000000000000000000000 DUP2 MSTORE PUSH1 0x4 ADD PUSH2 0x3CB SWAP3 SWAP2 SWAP1 PUSH2 0xBF9 JUMP JUMPDEST PUSH1 0x40 MLOAD DUP1 SWAP2 SUB SWAP1 REVERT JUMPDEST PUSH0 PUSH20 0xFFFFFFFFFFFFFFFFFFFFFFFFFFFFFFFFFFFFFFFF AND DUP4 PUSH20 0xFFFFFFFFFFFFFFFFFFFFFFFFFFFFFFFFFFFFFFFF AND SUB PUSH2 0x439 JUMPI PUSH1 0x40 MLOAD PUSH32 0xD92E233D00000000000000000000000000000000000000000000000000000000 DUP2 MSTORE PUSH1 0x4 ADD PUSH1 0x40 MLOAD DUP1 SWAP2 SUB SWAP1 REVERT JUMPDEST PUSH1 0x2 PUSH1 0xFF AND DUP3 PUSH1 0xFF AND GT ISZERO PUSH2 0x47A JUMPI PUSH1 0x40 MLOAD PUSH32 0xD954416A00000000000000000000000000000000000000000000000000000000 DUP2 MSTORE PUSH1 0x4 ADD PUSH1 0x40 MLOAD DUP1 SWAP2 SUB SWAP1 REVERT JUMPDEST PUSH2 0x484 DUP4 DUP4 PUSH2 0x865 JUMP JUMPDEST POP POP POP JUMP JUMPDEST PUSH1 0x1 DUP2 JUMP JUMPDEST PUSH0 PUSH0 PUSH0 DUP5 PUSH20 0xFFFFFFFFFFFFFFFFFFFFFFFFFFFFFFFFFFFFFFFF AND PUSH20 0xFFFFFFFFFFFFFFFFFFFFFFFFFFFFFFFFFFFFFFFF AND DUP2 MSTORE PUSH1 0x20 ADD SWAP1 DUP2 MSTORE PUSH1 0x20 ADD PUSH0 KECCAK256 PUSH0 DUP4 PUSH1 0xFF AND PUSH1 0xFF AND DUP2 MSTORE PUSH1 0x20 ADD SWAP1 DUP2 MSTORE PUSH1 0x20 ADD PUSH0 KECCAK256 PUSH0 SWAP1 SLOAD SWAP1 PUSH2 0x100 EXP SWAP1 DIV PUSH1 0xFF AND SWAP1 POP SWAP3 SWAP2 POP POP JUMP JUMPDEST PUSH0 SELFBALANCE SWAP1 POP SWAP1 JUMP JUMPDEST PUSH0 DUP2 JUMP JUMPDEST PUSH0 PUSH2 0x50B CALLER DUP3 PUSH2 0x48E JUMP JUMPDEST PUSH2 0x54E JUMPI CALLER DUP2 PUSH1 0x40 MLOAD PUSH32 0x9EB419E100000000000000000000000000000000000000000000000000000000 DUP2 MSTORE PUSH1 0x4 ADD PUSH2 0x545 SWAP3 SWAP2 SWAP1 PUSH2 0xBF9 JUMP JUMPDEST PUSH1 0x40 MLOAD DUP1 SWAP2 SUB SWAP1 REVERT JUMPDEST PUSH0 PUSH20 0xFFFFFFFFFFFFFFFFFFFFFFFFFFFFFFFFFFFFFFFF AND DUP4 PUSH20 0xFFFFFFFFFFFFFFFFFFFFFFFFFFFFFFFFFFFFFFFF AND SUB PUSH2 0x5B3 JUMPI PUSH1 0x40 MLOAD PUSH32 0xD92E233D00000000000000000000000000000000000000000000000000000000 DUP2 MSTORE PUSH1 0x4 ADD PUSH1 0x40 MLOAD DUP1 SWAP2 SUB SWAP1 REVERT JUMPDEST PUSH0 DUP3 SUB PUSH2 0x5EC JUMPI PUSH1 0x40 MLOAD PUSH32 0x1F2A200500000000000000000000000000000000000000000000000000000000 DUP2 MSTORE PUSH1 0x4 ADD PUSH1 0x40 MLOAD DUP1 SWAP2 SUB SWAP1 REVERT JUMPDEST PUSH0 SELFBALANCE SWAP1 POP DUP1 DUP4 GT ISZERO PUSH2 0x637 JUMPI DUP3 DUP2 PUSH1 0x40 MLOAD PUSH32 0xCF47918100000000000000000000000000000000000000000000000000000000 DUP2 MSTORE PUSH1 0x4 ADD PUSH2 0x62E SWAP3 SWAP2 SWAP1 PUSH2 0xC20 JUMP JUMPDEST PUSH1 0x40 MLOAD DUP1 SWAP2 SUB SWAP1 REVERT JUMPDEST PUSH0 DUP5 PUSH20 0xFFFFFFFFFFFFFFFFFFFFFFFFFFFFFFFFFFFFFFFF AND DUP5 PUSH1 0x40 MLOAD PUSH2 0x65C SWAP1 PUSH2 0xC74 JUMP JUMPDEST PUSH0 PUSH1 0x40 MLOAD DUP1 DUP4 SUB DUP2 DUP6 DUP8 GAS CALL SWAP3 POP POP POP RETURNDATASIZE DUP1 PUSH0 DUP2 EQ PUSH2 0x696 JUMPI PUSH1 0x40 MLOAD SWAP2 POP PUSH1 0x1F NOT PUSH1 0x3F RETURNDATASIZE ADD AND DUP3 ADD PUSH1 0x40 MSTORE RETURNDATASIZE DUP3 MSTORE RETURNDATASIZE PUSH0 PUSH1 0x20 DUP5 ADD RETURNDATACOPY PUSH2 0x69B JUMP JUMPDEST PUSH1 0x60 SWAP2 POP JUMPDEST POP POP SWAP1 POP DUP1 PUSH2 0x6D6 JUMPI PUSH1 0x40 MLOAD PUSH32 0x90B8EC1800000000000000000000000000000000000000000000000000000000 DUP2 MSTORE PUSH1 0x4 ADD PUSH1 0x40 MLOAD DUP1 SWAP2 SUB SWAP1 REVERT JUMPDEST DUP5 PUSH20 0xFFFFFFFFFFFFFFFFFFFFFFFFFFFFFFFFFFFFFFFF AND PUSH32 0x7084F5476618D8E60B11EF0D7D3F06914655ADB8793E28FF7F018D4C76D505D5 DUP6 PUSH1 0x40 MLOAD PUSH2 0x71C SWAP2 SWAP1 PUSH2 0x9B2 JUMP JUMPDEST PUSH1 0x40 MLOAD DUP1 SWAP2 SUB SWAP1 LOG2 POP POP POP POP POP JUMP JUMPDEST PUSH1 0x2 DUP2 JUMP JUMPDEST PUSH0 PUSH0 DUP4 PUSH20 0xFFFFFFFFFFFFFFFFFFFFFFFFFFFFFFFFFFFFFFFF AND PUSH20 0xFFFFFFFFFFFFFFFFFFFFFFFFFFFFFFFFFFFFFFFF AND DUP2 MSTORE PUSH1 0x20 ADD SWAP1 DUP2 MSTORE PUSH1 0x20 ADD PUSH0 KECCAK256 PUSH0 DUP3 PUSH1 0xFF AND PUSH1 0xFF AND DUP2 MSTORE PUSH1 0x20 ADD SWAP1 DUP2 MSTORE PUSH1 0x20 ADD PUSH0 KECCAK256 PUSH0 SWAP1 SLOAD SWAP1 PUSH2 0x100 EXP SWAP1 DIV PUSH1 0xFF AND ISZERO PUSH2 0x861 JUMPI PUSH0 PUSH0 PUSH0 DUP5 PUSH20 0xFFFFFFFFFFFFFFFFFFFFFFFFFFFFFFFFFFFFFFFF AND PUSH20 0xFFFFFFFFFFFFFFFFFFFFFFFFFFFFFFFFFFFFFFFF AND DUP2 MSTORE PUSH1 0x20 ADD SWAP1 DUP2 MSTORE PUSH1 0x20 ADD PUSH0 KECCAK256 PUSH0 DUP4 PUSH1 0xFF AND PUSH1 0xFF AND DUP2 MSTORE PUSH1 0x20 ADD SWAP1 DUP2 MSTORE PUSH1 0x20 ADD PUSH0 KECCAK256 PUSH0 PUSH2 0x100 EXP DUP2 SLOAD DUP2 PUSH1 0xFF MUL NOT AND SWAP1 DUP4 ISZERO ISZERO MUL OR SWAP1 SSTORE POP CALLER PUSH20 0xFFFFFFFFFFFFFFFFFFFFFFFFFFFFFFFFFFFFFFFF AND DUP3 PUSH20 0xFFFFFFFFFFFFFFFFFFFFFFFFFFFFFFFFFFFFFFFF AND PUSH32 0xDC8EE88592CEE6126AB42F95859FDF2BBF7B0A614A14D4FB307B601E2B5B0B05 DUP4 PUSH1 0x40 MLOAD PUSH2 0x858 SWAP2 SWAP1 PUSH2 0xB36 JUMP JUMPDEST PUSH1 0x40 MLOAD DUP1 SWAP2 SUB SWAP1 LOG3 JUMPDEST POP POP JUMP JUMPDEST PUSH0 PUSH0 DUP4 PUSH20 0xFFFFFFFFFFFFFFFFFFFFFFFFFFFFFFFFFFFFFFFF AND PUSH20 0xFFFFFFFFFFFFFFFFFFFFFFFFFFFFFFFFFFFFFFFF AND DUP2 MSTORE PUSH1 0x20 ADD SWAP1 DUP2 MSTORE PUSH1 0x20 ADD PUSH0 KECCAK256 PUSH0 DUP3 PUSH1 0xFF AND PUSH1 0xFF AND DUP2 MSTORE PUSH1 0x20 ADD SWAP1 DUP2 MSTORE PUSH1 0x20 ADD PUSH0 KECCAK256 PUSH0 SWAP1 SLOAD SWAP1 PUSH2 0x100 EXP SWAP1 DIV PUSH1 0xFF AND PUSH2 0x996 JUMPI PUSH1 0x1 PUSH0 PUSH0 DUP5 PUSH20 0xFFFFFFFFFFFFFFFFFFFFFFFFFFFFFFFFFFFFFFFF AND PUSH20 0xFFFFFFFFFFFFFFFFFFFFFFFFFFFFFFFFFFFFFFFF AND DUP2 MSTORE PUSH1 0x20 ADD SWAP1 DUP2 MSTORE PUSH1 0x20 ADD PUSH0 KECCAK256 PUSH0 DUP4 PUSH1 0xFF AND PUSH1 0xFF AND DUP2 MSTORE PUSH1 0x20 ADD SWAP1 DUP2 MSTORE PUSH1 0x20 ADD PUSH0 KECCAK256 PUSH0 PUSH2 0x100 EXP DUP2 SLOAD DUP2 PUSH1 0xFF MUL NOT AND SWAP1 DUP4 ISZERO ISZERO MUL OR SWAP1 SSTORE POP CALLER PUSH20 0xFFFFFFFFFFFFFFFFFFFFFFFFFFFFFFFFFFFFFFFF AND DUP3 PUSH20 0xFFFFFFFFFFFFFFFFFFFFFFFFFFFFFFFFFFFFFFFF AND PUSH32 0x454D3BE37AC6A7B902340E5413DF5663E10F86D1A576286058188216404A88EF DUP4 PUSH1 0x40 MLOAD PUSH2 0x98D SWAP2 SWAP1 PUSH2 0xB36 JUMP JUMPDEST PUSH1 0x40 MLOAD DUP1 SWAP2 SUB SWAP1 LOG3 JUMPDEST POP POP JUMP JUMPDEST PUSH0 DUP2 SWAP1 POP SWAP2 SWAP1 POP JUMP JUMPDEST PUSH2 0x9AC DUP2 PUSH2 0x99A JUMP JUMPDEST DUP3 MSTORE POP POP JUMP JUMPDEST PUSH0 PUSH1 0x20 DUP3 ADD SWAP1 POP PUSH2 0x9C5 PUSH0 DUP4 ADD DUP5 PUSH2 0x9A3 JUMP JUMPDEST SWAP3 SWAP2 POP POP JUMP JUMPDEST PUSH0 DUP3 DUP3 MSTORE PUSH1 0x20 DUP3 ADD SWAP1 POP SWAP3 SWAP2 POP POP JUMP JUMPDEST DUP3 DUP2 DUP4 CALLDATACOPY PUSH0 DUP4 DUP4 ADD MSTORE POP POP POP JUMP JUMPDEST PUSH0 PUSH1 0x1F NOT PUSH1 0x1F DUP4 ADD AND SWAP1 POP SWAP2 SWAP1 POP JUMP JUMPDEST PUSH0 PUSH2 0xA04 DUP4 DUP6 PUSH2 0x9CB JUMP JUMPDEST SWAP4 POP PUSH2 0xA11 DUP4 DUP6 DUP5 PUSH2 0x9DB JUMP JUMPDEST PUSH2 0xA1A DUP4 PUSH2 0x9E9 JUMP JUMPDEST DUP5 ADD SWAP1 POP SWAP4 SWAP3 POP POP POP JUMP JUMPDEST PUSH0 PUSH1 0x40 DUP3 ADD SWAP1 POP PUSH2 0xA38 PUSH0 DUP4 ADD DUP7 PUSH2 0x9A3 JUMP JUMPDEST DUP2 DUP2 SUB PUSH1 0x20 DUP4 ADD MSTORE PUSH2 0xA4B DUP2 DUP5 DUP7 PUSH2 0x9F9 JUMP JUMPDEST SWAP1 POP SWAP5 SWAP4 POP POP POP POP JUMP JUMPDEST PUSH0 PUSH0 REVERT JUMPDEST PUSH0 PUSH20 0xFFFFFFFFFFFFFFFFFFFFFFFFFFFFFFFFFFFFFFFF DUP3 AND SWAP1 POP SWAP2 SWAP1 POP JUMP JUMPDEST PUSH0 PUSH2 0xA82 DUP3 PUSH2 0xA59 JUMP JUMPDEST SWAP1 POP SWAP2 SWAP1 POP JUMP JUMPDEST PUSH2 0xA92 DUP2 PUSH2 0xA78 JUMP JUMPDEST DUP2 EQ PUSH2 0xA9C JUMPI PUSH0 PUSH0 REVERT JUMPDEST POP JUMP JUMPDEST PUSH0 DUP2 CALLDATALOAD SWAP1 POP PUSH2 0xAAD DUP2 PUSH2 0xA89 JUMP JUMPDEST SWAP3 SWAP2 POP POP JUMP JUMPDEST PUSH0 PUSH1 0xFF DUP3 AND SWAP1 POP SWAP2 SWAP1 POP JUMP JUMPDEST PUSH2 0xAC8 DUP2 PUSH2 0xAB3 JUMP JUMPDEST DUP2 EQ PUSH2 0xAD2 JUMPI PUSH0 PUSH0 REVERT JUMPDEST POP JUMP JUMPDEST PUSH0 DUP2 CALLDATALOAD SWAP1 POP PUSH2 0xAE3 DUP2 PUSH2 0xABF JUMP JUMPDEST SWAP3 SWAP2 POP POP JUMP JUMPDEST PUSH0 PUSH0 PUSH1 0x40 DUP4 DUP6 SUB SLT ISZERO PUSH2 0xAFF JUMPI PUSH2 0xAFE PUSH2 0xA55 JUMP JUMPDEST JUMPDEST PUSH0 PUSH2 0xB0C DUP6 DUP3 DUP7 ADD PUSH2 0xA9F JUMP JUMPDEST SWAP3 POP POP PUSH1 0x20 PUSH2 0xB1D DUP6 DUP3 DUP7 ADD PUSH2 0xAD5 JUMP JUMPDEST SWAP2 POP POP SWAP3 POP SWAP3 SWAP1 POP JUMP JUMPDEST PUSH2 0xB30 DUP2 PUSH2 0xAB3 JUMP JUMPDEST DUP3 MSTORE POP POP JUMP JUMPDEST PUSH0 PUSH1 0x20 DUP3 ADD SWAP1 POP PUSH2 0xB49 PUSH0 DUP4 ADD DUP5 PUSH2 0xB27 JUMP JUMPDEST SWAP3 SWAP2 POP POP JUMP JUMPDEST PUSH0 DUP2 ISZERO ISZERO SWAP1 POP SWAP2 SWAP1 POP JUMP JUMPDEST PUSH2 0xB63 DUP2 PUSH2 0xB4F JUMP JUMPDEST DUP3 MSTORE POP POP JUMP JUMPDEST PUSH0 PUSH1 0x20 DUP3 ADD SWAP1 POP PUSH2 0xB7C PUSH0 DUP4 ADD DUP5 PUSH2 0xB5A JUMP JUMPDEST SWAP3 SWAP2 POP POP JUMP JUMPDEST PUSH2 0xB8B DUP2 PUSH2 0x99A JUMP JUMPDEST DUP2 EQ PUSH2 0xB95 JUMPI PUSH0 PUSH0 REVERT JUMPDEST POP JUMP JUMPDEST PUSH0 DUP2 CALLDATALOAD SWAP1 POP PUSH2 0xBA6 DUP2 PUSH2 0xB82 JUMP JUMPDEST SWAP3 SWAP2 POP POP JUMP JUMPDEST PUSH0 PUSH0 PUSH1 0x40 DUP4 DUP6 SUB SLT ISZERO PUSH2 0xBC2 JUMPI PUSH2 0xBC1 PUSH2 0xA55 JUMP JUMPDEST JUMPDEST PUSH0 PUSH2 0xBCF DUP6 DUP3 DUP7 ADD PUSH2 0xA9F JUMP JUMPDEST SWAP3 POP POP PUSH1 0x20 PUSH2 0xBE0 DUP6 DUP3 DUP7 ADD PUSH2 0xB98 JUMP JUMPDEST SWAP2 POP POP SWAP3 POP SWAP3 SWAP1 POP JUMP JUMPDEST PUSH2 0xBF3 DUP2 PUSH2 0xA78 JUMP JUMPDEST DUP3 MSTORE POP POP JUMP JUMPDEST PUSH0 PUSH1 0x40 DUP3 ADD SWAP1 POP PUSH2 0xC0C PUSH0 DUP4 ADD DUP6 PUSH2 0xBEA JUMP JUMPDEST PUSH2 0xC19 PUSH1 0x20 DUP4 ADD DUP5 PUSH2 0xB27 JUMP JUMPDEST SWAP4 SWAP3 POP POP POP JUMP JUMPDEST PUSH0 PUSH1 0x40 DUP3 ADD SWAP1 POP PUSH2 0xC33 PUSH0 DUP4 ADD DUP6 PUSH2 0x9A3 JUMP JUMPDEST PUSH2 0xC40 PUSH1 0x20 DUP4 ADD DUP5 PUSH2 0x9A3 JUMP JUMPDEST SWAP4 SWAP3 POP POP POP JUMP JUMPDEST PUSH0 DUP2 SWAP1 POP SWAP3 SWAP2 POP POP JUMP JUMPDEST POP JUMP JUMPDEST PUSH0 PUSH2 0xC5F PUSH0 DUP4 PUSH2 0xC47 JUMP JUMPDEST SWAP2 POP PUSH2 0xC6A DUP3 PUSH2 0xC51 JUMP JUMPDEST PUSH0 DUP3 ADD SWAP1 POP SWAP2 SWAP1 POP JUMP JUMPDEST PUSH0 PUSH2 0xC7E DUP3 PUSH2 0xC54 JUMP JUMPDEST SWAP2 POP DUP2 SWAP1 POP SWAP2 SWAP1 POP JUMP INVALID LOG2 PUSH5 0x6970667358 0x22 SLT KECCAK256 CALLDATACOPY 0xD4 0xD2 0x24 SLOAD ORIGIN NUMBER NUMBER 0xCE INVALID RETURNDATACOPY PUSH24 0xAB57C75D24E024698CD72697F928829E4A51EC2A64736F6C PUSH4 0x4300081F STOP CALLER "
		},
		"gasEstimates": {
			"creation": {
				"codeDepositCost": "652400",
				"executionCost": "infinite",
				"totalCost": "infinite"
			},
			"external": {
				"": "infinite",
				"ROLE_ADMIN()": "352",
				"ROLE_MEDIATOR()": "397",
				"ROLE_SELLER()": "376",
				"balance()": "334",
				"grantRole(address,uint8)": "infinite",
				"hasRole(address,uint8)": "3200",
				"revokeRole(address,uint8)": "infinite",
				"withdraw(address,uint256)": "infinite"
			}
		},
		"methodIdentifiers": {
			"ROLE_ADMIN()": "d391014b",
			"ROLE_MEDIATOR()": "fb8a1a6b",
			"ROLE_SELLER()": "4fe4230f",
			"balance()": "b69ef8a8",
			"grantRole(address,uint8)": "3e840236",
			"hasRole(address,uint8)": "95a8c58d",
			"revokeRole(address,uint8)": "077d3c03",
			"withdraw(address,uint256)": "f3fef3a3"
		}
	},
	"abi": [
		{
			"inputs": [
				{
					"internalType": "uint256",
					"name": "requested",
					"type": "uint256"
				},
				{
					"internalType": "uint256",
					"name": "available",
					"type": "uint256"
				}
			],
			"name": "InsufficientBalance",
			"type": "error"
		},
		{
			"inputs": [],
			"name": "InvalidRole",
			"type": "error"
		},
		{
			"inputs": [],
			"name": "TransferFailed",
			"type": "error"
		},
		{
			"inputs": [
				{
					"internalType": "address",
					"name": "caller",
					"type": "address"
				},
				{
					"internalType": "uint8",
					"name": "role",
					"type": "uint8"
				}
			],
			"name": "Unauthorized",
			"type": "error"
		},
		{
			"inputs": [],
			"name": "ZeroAddress",
			"type": "error"
		},
		{
			"inputs": [],
			"name": "ZeroAmount",
			"type": "error"
		},
		{
			"anonymous": false,
			"inputs": [
				{
					"indexed": true,
					"internalType": "address",
					"name": "sender",
					"type": "address"
				},
				{
					"indexed": false,
					"internalType": "uint256",
					"name": "value",
					"type": "uint256"
				},
				{
					"indexed": false,
					"internalType": "bytes",
					"name": "data",
					"type": "bytes"
				}
			],
			"name": "FallbackCalled",
			"type": "event"
		},
		{
			"anonymous": false,
			"inputs": [
				{
					"indexed": true,
					"internalType": "address",
					"name": "from",
					"type": "address"
				},
				{
					"indexed": false,
					"internalType": "uint256",
					"name": "amount",
					"type": "uint256"
				}
			],
			"name": "FeeReceived",
			"type": "event"
		},
		{
			"anonymous": false,
			"inputs": [
				{
					"indexed": true,
					"internalType": "address",
					"name": "account",
					"type": "address"
				},
				{
					"indexed": false,
					"internalType": "uint8",
					"name": "role",
					"type": "uint8"
				},
				{
					"indexed": true,
					"internalType": "address",
					"name": "by",
					"type": "address"
				}
			],
			"name": "RoleGranted",
			"type": "event"
		},
		{
			"anonymous": false,
			"inputs": [
				{
					"indexed": true,
					"internalType": "address",
					"name": "account",
					"type": "address"
				},
				{
					"indexed": false,
					"internalType": "uint8",
					"name": "role",
					"type": "uint8"
				},
				{
					"indexed": true,
					"internalType": "address",
					"name": "by",
					"type": "address"
				}
			],
			"name": "RoleRevoked",
			"type": "event"
		},
		{
			"anonymous": false,
			"inputs": [
				{
					"indexed": true,
					"internalType": "address",
					"name": "to",
					"type": "address"
				},
				{
					"indexed": false,
					"internalType": "uint256",
					"name": "amount",
					"type": "uint256"
				}
			],
			"name": "Withdrawn",
			"type": "event"
		},
		{
			"stateMutability": "payable",
			"type": "fallback"
		},
		{
			"inputs": [],
			"name": "ROLE_ADMIN",
			"outputs": [
				{
					"internalType": "uint8",
					"name": "",
					"type": "uint8"
				}
			],
			"stateMutability": "view",
			"type": "function"
		},
		{
			"inputs": [],
			"name": "ROLE_MEDIATOR",
			"outputs": [
				{
					"internalType": "uint8",
					"name": "",
					"type": "uint8"
				}
			],
			"stateMutability": "view",
			"type": "function"
		},
		{
			"inputs": [],
			"name": "ROLE_SELLER",
			"outputs": [
				{
					"internalType": "uint8",
					"name": "",
					"type": "uint8"
				}
			],
			"stateMutability": "view",
			"type": "function"
		},
		{
			"inputs": [],
			"name": "balance",
			"outputs": [
				{
					"internalType": "uint256",
					"name": "",
					"type": "uint256"
				}
			],
			"stateMutability": "view",
			"type": "function"
		},
		{
			"inputs": [
				{
					"internalType": "address",
					"name": "account",
					"type": "address"
				},
				{
					"internalType": "uint8",
					"name": "role",
					"type": "uint8"
				}
			],
			"name": "grantRole",
			"outputs": [],
			"stateMutability": "nonpayable",
			"type": "function"
		},
		{
			"inputs": [
				{
					"internalType": "address",
					"name": "account",
					"type": "address"
				},
				{
					"internalType": "uint8",
					"name": "role",
					"type": "uint8"
				}
			],
			"name": "hasRole",
			"outputs": [
				{
					"internalType": "bool",
					"name": "",
					"type": "bool"
				}
			],
			"stateMutability": "view",
			"type": "function"
		},
		{
			"inputs": [
				{
					"internalType": "address",
					"name": "account",
					"type": "address"
				},
				{
					"internalType": "uint8",
					"name": "role",
					"type": "uint8"
				}
			],
			"name": "revokeRole",
			"outputs": [],
			"stateMutability": "nonpayable",
			"type": "function"
		},
		{
			"inputs": [
				{
					"internalType": "address",
					"name": "to",
					"type": "address"
				},
				{
					"internalType": "uint256",
					"name": "amount",
					"type": "uint256"
				}
			],
			"name": "withdraw",
			"outputs": [],
			"stateMutability": "nonpayable",
			"type": "function"
		},
		{
			"stateMutability": "payable",
			"type": "receive"
		}
	]
}